{
  "contracts/token/UnbondedEvmos.sol": {
    "UnbondedEvmos": {
      "abi": [
        {
          "anonymous": false,
          "inputs": [
            {
              "indexed": false,
              "internalType": "uint8",
              "name": "version",
              "type": "uint8"
            }
          ],
          "name": "Initialized",
          "type": "event"
        },
        {
          "anonymous": false,
          "inputs": [
            {
              "indexed": false,
              "internalType": "address",
              "name": "account",
              "type": "address"
            },
            {
              "indexed": false,
              "internalType": "address",
              "name": "vault",
              "type": "address"
            },
            {
              "indexed": false,
              "internalType": "uint256",
              "name": "lockedIndex",
              "type": "uint256"
            }
          ],
          "name": "Lock",
          "type": "event"
        },
        {
          "anonymous": false,
          "inputs": [
            {
              "indexed": true,
              "internalType": "address",
              "name": "previousOwner",
              "type": "address"
            },
            {
              "indexed": true,
              "internalType": "address",
              "name": "newOwner",
              "type": "address"
            }
          ],
          "name": "OwnershipTransferred",
          "type": "event"
        },
        {
          "anonymous": false,
          "inputs": [
            {
              "indexed": false,
              "internalType": "uint256",
              "name": "amount",
              "type": "uint256"
            }
          ],
          "name": "Supply",
          "type": "event"
        },
        {
          "anonymous": false,
          "inputs": [
            {
              "indexed": false,
              "internalType": "address",
              "name": "account",
              "type": "address"
            },
            {
              "indexed": false,
              "internalType": "uint256",
              "name": "amount",
              "type": "uint256"
            },
            {
              "indexed": false,
              "internalType": "uint256",
              "name": "returned",
              "type": "uint256"
            }
          ],
          "name": "Unlock",
          "type": "event"
        },
        {
          "anonymous": false,
          "inputs": [
            {
              "indexed": false,
              "internalType": "uint256",
              "name": "killFactorBps",
              "type": "uint256"
            },
            {
              "indexed": false,
              "internalType": "uint256",
              "name": "liquidateFeeBps",
              "type": "uint256"
            }
          ],
          "name": "UpdateConfigs",
          "type": "event"
        },
        {
          "anonymous": false,
          "inputs": [
            {
              "indexed": false,
              "internalType": "address",
              "name": "account",
              "type": "address"
            },
            {
              "indexed": false,
              "internalType": "bool",
              "name": "status",
              "type": "bool"
            }
          ],
          "name": "UpdateMinterStatus",
          "type": "event"
        },
        {
          "anonymous": false,
          "inputs": [
            {
              "indexed": false,
              "internalType": "address",
              "name": "account",
              "type": "address"
            },
            {
              "indexed": false,
              "internalType": "uint256",
              "name": "amount",
              "type": "uint256"
            }
          ],
          "name": "Withdraw",
          "type": "event"
        },
        {
          "stateMutability": "payable",
          "type": "fallback"
        },
        {
          "inputs": [
            {
              "internalType": "address",
              "name": "minter_",
              "type": "address"
            },
            {
              "internalType": "uint256",
              "name": "killFactorBps_",
              "type": "uint256"
            },
            {
              "internalType": "uint256",
              "name": "liquidateFeeBps_",
              "type": "uint256"
            }
          ],
          "name": "__UnbondedEvmos_init",
          "outputs": [],
          "stateMutability": "nonpayable",
          "type": "function"
        },
        {
          "inputs": [
            {
              "internalType": "address",
              "name": "account",
              "type": "address"
            }
          ],
          "name": "balanceOf",
          "outputs": [
            {
              "internalType": "uint256",
              "name": "",
              "type": "uint256"
            }
          ],
          "stateMutability": "view",
          "type": "function"
        },
        {
          "inputs": [],
          "name": "decimals",
          "outputs": [
            {
              "internalType": "uint8",
              "name": "",
              "type": "uint8"
            }
          ],
          "stateMutability": "view",
          "type": "function"
        },
        {
          "inputs": [
            {
              "internalType": "address",
              "name": "account",
              "type": "address"
            }
          ],
          "name": "getUnlockable",
          "outputs": [
            {
              "internalType": "uint256",
              "name": "unlockable",
              "type": "uint256"
            },
            {
              "internalType": "uint256",
              "name": "debt",
              "type": "uint256"
            }
          ],
          "stateMutability": "view",
          "type": "function"
        },
        {
          "inputs": [
            {
              "internalType": "uint256",
              "name": "lockedId",
              "type": "uint256"
            }
          ],
          "name": "isKillable",
          "outputs": [
            {
              "internalType": "bool",
              "name": "",
              "type": "bool"
            }
          ],
          "stateMutability": "view",
          "type": "function"
        },
        {
          "inputs": [
            {
              "internalType": "address",
              "name": "",
              "type": "address"
            }
          ],
          "name": "isMinter",
          "outputs": [
            {
              "internalType": "bool",
              "name": "",
              "type": "bool"
            }
          ],
          "stateMutability": "view",
          "type": "function"
        },
        {
          "inputs": [
            {
              "internalType": "uint256",
              "name": "lockedId",
              "type": "uint256"
            }
          ],
          "name": "kill",
          "outputs": [],
          "stateMutability": "nonpayable",
          "type": "function"
        },
        {
          "inputs": [],
          "name": "killFactorBps",
          "outputs": [
            {
              "internalType": "uint256",
              "name": "",
              "type": "uint256"
            }
          ],
          "stateMutability": "view",
          "type": "function"
        },
        {
          "inputs": [],
          "name": "liquidateFeeBps",
          "outputs": [
            {
              "internalType": "uint256",
              "name": "",
              "type": "uint256"
            }
          ],
          "stateMutability": "view",
          "type": "function"
        },
        {
          "inputs": [
            {
              "internalType": "address",
              "name": "",
              "type": "address"
            }
          ],
          "name": "lockedOf",
          "outputs": [
            {
              "internalType": "uint128",
              "name": "front",
              "type": "uint128"
            },
            {
              "internalType": "uint128",
              "name": "rear",
              "type": "uint128"
            }
          ],
          "stateMutability": "view",
          "type": "function"
        },
        {
          "inputs": [
            {
              "internalType": "uint256",
              "name": "",
              "type": "uint256"
            }
          ],
          "name": "locks",
          "outputs": [
            {
              "internalType": "bool",
              "name": "received",
              "type": "bool"
            },
            {
              "internalType": "address",
              "name": "account",
              "type": "address"
            },
            {
              "internalType": "address",
              "name": "vault",
              "type": "address"
            },
            {
              "internalType": "uint256",
              "name": "amount",
              "type": "uint256"
            },
            {
              "internalType": "uint256",
              "name": "unlockedAt",
              "type": "uint256"
            }
          ],
          "stateMutability": "view",
          "type": "function"
        },
        {
          "inputs": [],
          "name": "locksLength",
          "outputs": [
            {
              "internalType": "uint256",
              "name": "",
              "type": "uint256"
            }
          ],
          "stateMutability": "view",
          "type": "function"
        },
        {
          "inputs": [
            {
              "internalType": "address",
              "name": "to",
              "type": "address"
            },
            {
              "internalType": "address",
              "name": "vault",
              "type": "address"
            },
            {
              "internalType": "uint256",
              "name": "amount",
              "type": "uint256"
            },
            {
              "internalType": "uint256",
              "name": "time",
              "type": "uint256"
            }
          ],
          "name": "mintLockedToken",
          "outputs": [],
          "stateMutability": "nonpayable",
          "type": "function"
        },
        {
          "inputs": [],
          "name": "name",
          "outputs": [
            {
              "internalType": "string",
              "name": "",
              "type": "string"
            }
          ],
          "stateMutability": "view",
          "type": "function"
        },
        {
          "inputs": [],
          "name": "owner",
          "outputs": [
            {
              "internalType": "address",
              "name": "",
              "type": "address"
            }
          ],
          "stateMutability": "view",
          "type": "function"
        },
        {
          "inputs": [],
          "name": "renounceOwnership",
          "outputs": [],
          "stateMutability": "nonpayable",
          "type": "function"
        },
        {
          "inputs": [],
          "name": "supplyUnbondedToken",
          "outputs": [],
          "stateMutability": "payable",
          "type": "function"
        },
        {
          "inputs": [],
          "name": "symbol",
          "outputs": [
            {
              "internalType": "string",
              "name": "",
              "type": "string"
            }
          ],
          "stateMutability": "view",
          "type": "function"
        },
        {
          "inputs": [],
          "name": "totalSupply",
          "outputs": [
            {
              "internalType": "uint256",
              "name": "",
              "type": "uint256"
            }
          ],
          "stateMutability": "view",
          "type": "function"
        },
        {
          "inputs": [
            {
              "internalType": "address",
              "name": "newOwner",
              "type": "address"
            }
          ],
          "name": "transferOwnership",
          "outputs": [],
          "stateMutability": "nonpayable",
          "type": "function"
        },
        {
          "inputs": [
            {
              "internalType": "uint256",
              "name": "minRepaid",
              "type": "uint256"
            }
          ],
          "name": "unlock",
          "outputs": [],
          "stateMutability": "nonpayable",
          "type": "function"
        },
        {
          "inputs": [
            {
              "internalType": "uint256",
              "name": "_killFactorBps",
              "type": "uint256"
            },
            {
              "internalType": "uint256",
              "name": "_liquidateFeeBps",
              "type": "uint256"
            }
          ],
          "name": "updateConfigs",
          "outputs": [],
          "stateMutability": "nonpayable",
          "type": "function"
        },
        {
          "inputs": [
            {
              "internalType": "address",
              "name": "account",
              "type": "address"
            },
            {
              "internalType": "bool",
              "name": "status",
              "type": "bool"
            }
          ],
          "name": "updateMinterStatus",
          "outputs": [],
          "stateMutability": "nonpayable",
          "type": "function"
        },
        {
          "stateMutability": "payable",
          "type": "receive"
        }
      ],
      "devdoc": {
        "kind": "dev",
        "methods": {
          "getUnlockable(address)": {
            "details": "calc user's unlockable uEVMOS(includes debt) & debt"
          },
          "owner()": {
            "details": "Returns the address of the current owner."
          },
          "renounceOwnership()": {
            "details": "Leaves the contract without owner. It will not be possible to call `onlyOwner` functions anymore. Can only be called by the current owner. NOTE: Renouncing ownership will leave the contract without an owner, thereby removing any functionality that is only available to the owner."
          },
          "transferOwnership(address)": {
            "details": "Transfers ownership of the contract to a new account (`newOwner`). Can only be called by the current owner."
          }
        },
        "version": 1
      },
      "evm": {
        "bytecode": {
          "linkReferences": {},
          "object": "608060405234801561001057600080fd5b5061300e806100206000396000f3fe6080604052600436106101435760003560e01c80638da5cb5b116100b6578063d29a00251161006f578063d29a002514610467578063e158c1ac14610490578063efc8f3c81461049a578063f2fde38b146104c3578063f4dadc61146104ec578063ffae61561461052d5761014a565b80638da5cb5b1461031b57806395d89b411461034657806397e7381e14610371578063a5f1e282146103ae578063aa271e1a146103ec578063c8630178146104295761014a565b80635bfc5a6e116101085780635bfc5a6e146102215780636198e3391461024c578063633235d01461027557806370a082311461029e578063715018a6146102db5780637bf52bd7146102f25761014a565b8062dbccc61461014c57806306fdde031461017557806318160ddd146101a057806328f55a6c146101cb578063313ce567146101f65761014a565b3661014a57005b005b34801561015857600080fd5b50610173600480360381019061016e9190612425565b610558565b005b34801561018157600080fd5b5061018a6105ab565b604051610197919061287c565b60405180910390f35b3480156101ac57600080fd5b506101b56105e4565b6040516101c29190612a47565b60405180910390f35b3480156101d757600080fd5b506101e06105ea565b6040516101ed9190612a47565b60405180910390f35b34801561020257600080fd5b5061020b6105f0565b6040516102189190612a8b565b60405180910390f35b34801561022d57600080fd5b506102366105f5565b6040516102439190612a47565b60405180910390f35b34801561025857600080fd5b50610273600480360381019061026e91906123d3565b6105fb565b005b34801561028157600080fd5b5061029c600480360381019061029791906122e5565b61064d565b005b3480156102aa57600080fd5b506102c560048036038101906102c091906122bc565b6109f3565b6040516102d29190612a47565b60405180910390f35b3480156102e757600080fd5b506102f0610a3c565b005b3480156102fe57600080fd5b5061031960048036038101906103149190612384565b610a50565b005b34801561032757600080fd5b50610330610ba6565b60405161033d91906126ef565b60405180910390f35b34801561035257600080fd5b5061035b610bd0565b604051610368919061287c565b60405180910390f35b34801561037d57600080fd5b50610398600480360381019061039391906123d3565b610c09565b6040516103a591906127f3565b60405180910390f35b3480156103ba57600080fd5b506103d560048036038101906103d091906122bc565b610df9565b6040516103e3929190612a1e565b60405180910390f35b3480156103f857600080fd5b50610413600480360381019061040e91906122bc565b610e55565b60405161042091906127f3565b60405180910390f35b34801561043557600080fd5b50610450600480360381019061044b91906122bc565b610e75565b60405161045e929190612a62565b60405180910390f35b34801561047357600080fd5b5061048e600480360381019061048991906123d3565b6112a4565b005b610498611551565b005b3480156104a657600080fd5b506104c160048036038101906104bc9190612348565b611553565b005b3480156104cf57600080fd5b506104ea60048036038101906104e591906122bc565b6115ef565b005b3480156104f857600080fd5b50610513600480360381019061050e91906123d3565b611673565b60405161052495949392919061280e565b60405180910390f35b34801561053957600080fd5b50610542611706565b60405161054f9190612a47565b60405180910390f35b61056061170c565b80606781905550816066819055507ff88c4daabad4d8a3268872e6513d06a7f6924a2390f0e3d89b8451a2ac0635c5828260405161059f929190612a62565b60405180910390a15050565b6040518060400160405280600e81526020017f556e7374616b65642045564d4f5300000000000000000000000000000000000081525081565b606c5481565b60665481565b601281565b60695481565b6000606a60003373ffffffffffffffffffffffffffffffffffffffff1673ffffffffffffffffffffffffffffffffffffffff168152602001908152602001600020905061064933828461178a565b5050565b606560003373ffffffffffffffffffffffffffffffffffffffff1673ffffffffffffffffffffffffffffffffffffffff16815260200190815260200160002060009054906101000a900460ff166106d9576040517f08c379a00000000000000000000000000000000000000000000000000000000081526004016106d0906129de565b60405180910390fd5b6000821161071c576040517f08c379a00000000000000000000000000000000000000000000000000000000081526004016107139061297e565b60405180910390fd5b6000606a60008673ffffffffffffffffffffffffffffffffffffffff1673ffffffffffffffffffffffffffffffffffffffff168152602001908152602001600020905061076b8582600161178a565b600082426107799190612b1e565b905060686040518060a001604052806000151581526020013373ffffffffffffffffffffffffffffffffffffffff1681526020018773ffffffffffffffffffffffffffffffffffffffff16815260200186815260200183815250908060018154018082558091505060019003906000526020600020906004020160009091909190915060008201518160000160006101000a81548160ff02191690831515021790555060208201518160000160016101000a81548173ffffffffffffffffffffffffffffffffffffffff021916908373ffffffffffffffffffffffffffffffffffffffff16021790555060408201518160010160006101000a81548173ffffffffffffffffffffffffffffffffffffffff021916908373ffffffffffffffffffffffffffffffffffffffff1602179055506060820151816002015560808201518160030155505060016068805490506108d29190612b74565b60698190555060008260000160109054906101000a90046fffffffffffffffffffffffffffffffff16905060695483600101826fffffffffffffffffffffffffffffffff168154811061094e577f4e487b7100000000000000000000000000000000000000000000000000000000600052603260045260246000fd5b90600052602060002001819055506001816109699190612ad8565b8360000160106101000a8154816fffffffffffffffffffffffffffffffff02191690836fffffffffffffffffffffffffffffffff1602179055506109ad8786611b84565b7fec36c0364d931187a76cf66d7eee08fad0ec2e8b7458a8d8b26b36769d4d13f387876069546040516109e29392919061270a565b60405180910390a150505050505050565b6000606b60008373ffffffffffffffffffffffffffffffffffffffff1673ffffffffffffffffffffffffffffffffffffffff168152602001908152602001600020549050919050565b610a4461170c565b610a4e6000611c67565b565b60008060019054906101000a900460ff16159050808015610a815750600160008054906101000a900460ff1660ff16105b80610aae5750610a9030611d2d565b158015610aad5750600160008054906101000a900460ff1660ff16145b5b610aed576040517f08c379a0000000000000000000000000000000000000000000000000000000008152600401610ae4906128de565b60405180910390fd5b60016000806101000a81548160ff021916908360ff1602179055508015610b2a576001600060016101000a81548160ff0219169083151502179055505b610b32611d50565b610b3d846001611553565b610b478383610558565b8015610ba05760008060016101000a81548160ff0219169083151502179055507f7f26b83ff96e1f2b6a682f133852f6798a09c465da95921460cefb38474024986001604051610b979190612861565b60405180910390a15b50505050565b6000603360009054906101000a900473ffffffffffffffffffffffffffffffffffffffff16905090565b6040518060400160405280600681526020017f7545564d4f53000000000000000000000000000000000000000000000000000081525081565b60008060688381548110610c46577f4e487b7100000000000000000000000000000000000000000000000000000000600052603260045260246000fd5b90600052602060002090600402016040518060a00160405290816000820160009054906101000a900460ff161515151581526020016000820160019054906101000a900473ffffffffffffffffffffffffffffffffffffffff1673ffffffffffffffffffffffffffffffffffffffff1673ffffffffffffffffffffffffffffffffffffffff1681526020016001820160009054906101000a900473ffffffffffffffffffffffffffffffffffffffff1673ffffffffffffffffffffffffffffffffffffffff1673ffffffffffffffffffffffffffffffffffffffff1681526020016002820154815260200160038201548152505090504281608001511115610d52576000915050610df4565b6000816040015173ffffffffffffffffffffffffffffffffffffffff16635eeff10183602001516040518263ffffffff1660e01b8152600401610d9591906126ef565b60206040518083038186803b158015610dad57600080fd5b505afa158015610dc1573d6000803e3d6000fd5b505050506040513d601f19601f82011682018060405250810190610de591906123fc565b90508160600151811015925050505b919050565b606a6020528060005260406000206000915090508060000160009054906101000a90046fffffffffffffffffffffffffffffffff16908060000160109054906101000a90046fffffffffffffffffffffffffffffffff16905082565b60656020528060005260406000206000915054906101000a900460ff1681565b6000806000606a60008573ffffffffffffffffffffffffffffffffffffffff1673ffffffffffffffffffffffffffffffffffffffff16815260200190815260200160002060000160009054906101000a90046fffffffffffffffffffffffffffffffff1690506000606a60008673ffffffffffffffffffffffffffffffffffffffff1673ffffffffffffffffffffffffffffffffffffffff16815260200190815260200160002060000160109054906101000a90046fffffffffffffffffffffffffffffffff1690506000606a60008773ffffffffffffffffffffffffffffffffffffffff1673ffffffffffffffffffffffffffffffffffffffff168152602001908152602001600020600101805480602002602001604051908101604052809291908181526020018280548015610fcc57602002820191906000526020600020905b815481526020019060010190808311610fb8575b50505050509050816fffffffffffffffffffffffffffffffff16836fffffffffffffffffffffffffffffffff16141561100e576000809450945050505061129f565b60008390505b826fffffffffffffffffffffffffffffffff16816fffffffffffffffffffffffffffffffff16101561129a576000606883836fffffffffffffffffffffffffffffffff168151811061108f577f4e487b7100000000000000000000000000000000000000000000000000000000600052603260045260246000fd5b6020026020010151815481106110ce577f4e487b7100000000000000000000000000000000000000000000000000000000600052603260045260246000fd5b90600052602060002090600402016040518060a00160405290816000820160009054906101000a900460ff161515151581526020016000820160019054906101000a900473ffffffffffffffffffffffffffffffffffffffff1673ffffffffffffffffffffffffffffffffffffffff1673ffffffffffffffffffffffffffffffffffffffff1681526020016001820160009054906101000a900473ffffffffffffffffffffffffffffffffffffffff1673ffffffffffffffffffffffffffffffffffffffff1673ffffffffffffffffffffffffffffffffffffffff16815260200160028201548152602001600382015481525050905042816080015111611280578060600151876111df9190612b1e565b9650806040015173ffffffffffffffffffffffffffffffffffffffff16635eeff101896040518263ffffffff1660e01b815260040161121e91906126ef565b60206040518083038186803b15801561123657600080fd5b505afa15801561124a573d6000803e3d6000fd5b505050506040513d601f19601f8201168201806040525081019061126e91906123fc565b866112799190612b1e565b9550611286565b5061129a565b50808061129290612c70565b915050611014565b505050505b915091565b6000606882815481106112e0577f4e487b7100000000000000000000000000000000000000000000000000000000600052603260045260246000fd5b906000526020600020906004020190504281600301541115611337576040517f08c379a000000000000000000000000000000000000000000000000000000000815260040161132e906129fe565b60405180910390fd5b60008160010160009054906101000a900473ffffffffffffffffffffffffffffffffffffffff1673ffffffffffffffffffffffffffffffffffffffff16635eeff1018360000160019054906101000a900473ffffffffffffffffffffffffffffffffffffffff166040518263ffffffff1660e01b81526004016113ba91906126ef565b60206040518083038186803b1580156113d257600080fd5b505afa1580156113e6573d6000803e3d6000fd5b505050506040513d601f19601f8201168201806040525081019061140a91906123fc565b90508160020154811015611453576040517f08c379a000000000000000000000000000000000000000000000000000000000815260040161144a9061291e565b60405180910390fd5b8160010160009054906101000a900473ffffffffffffffffffffffffffffffffffffffff1673ffffffffffffffffffffffffffffffffffffffff16639d2e6fcb83600201548460000160019054906101000a900473ffffffffffffffffffffffffffffffffffffffff1660016040518463ffffffff1660e01b81526004016114dc92919061276a565b6020604051808303818588803b1580156114f557600080fd5b505af1158015611509573d6000803e3d6000fd5b50505050506040513d601f19601f8201168201806040525081019061152e91906123fc565b5060018260000160006101000a81548160ff021916908315150217905550505050565b565b61155b61170c565b80606560008473ffffffffffffffffffffffffffffffffffffffff1673ffffffffffffffffffffffffffffffffffffffff16815260200190815260200160002060006101000a81548160ff0219169083151502179055507ff6c10b2804d0174249f23bd4c462fb3e65ea16bf2b6896effe8a09f8f6a8e3b082826040516115e3929190612741565b60405180910390a15050565b6115f761170c565b600073ffffffffffffffffffffffffffffffffffffffff168173ffffffffffffffffffffffffffffffffffffffff161415611667576040517f08c379a000000000000000000000000000000000000000000000000000000000815260040161165e906128be565b60405180910390fd5b61167081611c67565b50565b6068818154811061168357600080fd5b90600052602060002090600402016000915090508060000160009054906101000a900460ff16908060000160019054906101000a900473ffffffffffffffffffffffffffffffffffffffff16908060010160009054906101000a900473ffffffffffffffffffffffffffffffffffffffff16908060020154908060030154905085565b60675481565b611714611da9565b73ffffffffffffffffffffffffffffffffffffffff16611732610ba6565b73ffffffffffffffffffffffffffffffffffffffff1614611788576040517f08c379a000000000000000000000000000000000000000000000000000000000815260040161177f9061293e565b60405180910390fd5b565b606a60008473ffffffffffffffffffffffffffffffffffffffff1673ffffffffffffffffffffffffffffffffffffffff168152602001908152602001600020915060008260000160009054906101000a90046fffffffffffffffffffffffffffffffff16905060008360000160109054906101000a90046fffffffffffffffffffffffffffffffff169050806fffffffffffffffffffffffffffffffff16826fffffffffffffffffffffffffffffffff161415611848575050611b7f565b60008060008490505b836fffffffffffffffffffffffffffffffff16816fffffffffffffffffffffffffffffffff161015611acf57600087600101826fffffffffffffffffffffffffffffffff16815481106118cd577f4e487b7100000000000000000000000000000000000000000000000000000000600052603260045260246000fd5b90600052602060002001549050600060688281548110611916577f4e487b7100000000000000000000000000000000000000000000000000000000600052603260045260246000fd5b90600052602060002090600402016040518060a00160405290816000820160009054906101000a900460ff161515151581526020016000820160019054906101000a900473ffffffffffffffffffffffffffffffffffffffff1673ffffffffffffffffffffffffffffffffffffffff1673ffffffffffffffffffffffffffffffffffffffff1681526020016001820160009054906101000a900473ffffffffffffffffffffffffffffffffffffffff1673ffffffffffffffffffffffffffffffffffffffff1673ffffffffffffffffffffffffffffffffffffffff16815260200160028201548152602001600382015481525050905042816080015111611ab357806060015185611a279190612b1e565b9450611a3d8a826040015183606001518b611db1565b84611a489190612b1e565b9350600160688381548110611a86577f4e487b7100000000000000000000000000000000000000000000000000000000600052603260045260246000fd5b906000526020600020906004020160000160006101000a81548160ff021916908315150217905550611aba565b5050611acf565b50508080611ac790612c70565b915050611851565b6000831115611b7957600181611ae59190612ad8565b8760000160006101000a8154816fffffffffffffffffffffffffffffffff02191690836fffffffffffffffffffffffffffffffff160217905550611b298884611f86565b6000821115611b3d57611b3c88836120e1565b5b7ff7870c5b224cbc19873599e46ccfc7103934650509b1af0c3ce90138377c2004888484604051611b70939291906127bc565b60405180910390a15b50505050505b505050565b600073ffffffffffffffffffffffffffffffffffffffff168273ffffffffffffffffffffffffffffffffffffffff161415611bf4576040517f08c379a0000000000000000000000000000000000000000000000000000000008152600401611beb9061295e565b60405180910390fd5b80606c6000828254611c069190612b1e565b9250508190555080606b60008473ffffffffffffffffffffffffffffffffffffffff1673ffffffffffffffffffffffffffffffffffffffff1681526020019081526020016000206000828254611c5c9190612b1e565b925050819055505050565b6000603360009054906101000a900473ffffffffffffffffffffffffffffffffffffffff16905081603360006101000a81548173ffffffffffffffffffffffffffffffffffffffff021916908373ffffffffffffffffffffffffffffffffffffffff1602179055508173ffffffffffffffffffffffffffffffffffffffff168173ffffffffffffffffffffffffffffffffffffffff167f8be0079c531659141344cd1fd0a4f28419497f9722a3daafe3b4186f6b6457e060405160405180910390a35050565b6000808273ffffffffffffffffffffffffffffffffffffffff163b119050919050565b600060019054906101000a900460ff16611d9f576040517f08c379a0000000000000000000000000000000000000000000000000000000008152600401611d96906129be565b60405180910390fd5b611da7612207565b565b600033905090565b6000808473ffffffffffffffffffffffffffffffffffffffff16635eeff101876040518263ffffffff1660e01b8152600401611ded91906126ef565b60206040518083038186803b158015611e0557600080fd5b505afa158015611e19573d6000803e3d6000fd5b505050506040513d601f19601f82011682018060405250810190611e3d91906123fc565b9050808410611ee9578473ffffffffffffffffffffffffffffffffffffffff16639d2e6fcb8288866040518463ffffffff1660e01b8152600401611e82929190612793565b6020604051808303818588803b158015611e9b57600080fd5b505af1158015611eaf573d6000803e3d6000fd5b50505050506040513d601f19601f82011682018060405250810190611ed491906123fc565b508084611ee19190612b74565b915050611f7e565b8473ffffffffffffffffffffffffffffffffffffffff16639d2e6fcb8588866040518463ffffffff1660e01b8152600401611f25929190612793565b6020604051808303818588803b158015611f3e57600080fd5b505af1158015611f52573d6000803e3d6000fd5b50505050506040513d601f19601f82011682018060405250810190611f7791906123fc565b5060009150505b949350505050565b600073ffffffffffffffffffffffffffffffffffffffff168273ffffffffffffffffffffffffffffffffffffffff161415611ff6576040517f08c379a0000000000000000000000000000000000000000000000000000000008152600401611fed9061299e565b60405180910390fd5b6000606b60008473ffffffffffffffffffffffffffffffffffffffff1673ffffffffffffffffffffffffffffffffffffffff1681526020019081526020016000205490508181101561207d576040517f08c379a00000000000000000000000000000000000000000000000000000000081526004016120749061289e565b60405180910390fd5b818103606b60008573ffffffffffffffffffffffffffffffffffffffff1673ffffffffffffffffffffffffffffffffffffffff1681526020019081526020016000208190555081606c60008282546120d59190612b74565b92505081905550505050565b60008273ffffffffffffffffffffffffffffffffffffffff1682600067ffffffffffffffff81111561213c577f4e487b7100000000000000000000000000000000000000000000000000000000600052604160045260246000fd5b6040519080825280601f01601f19166020018201604052801561216e5781602001600182028036833780820191505090505b5060405161217c91906126d8565b60006040518083038185875af1925050503d80600081146121b9576040519150601f19603f3d011682016040523d82523d6000602084013e6121be565b606091505b5050905080612202576040517f08c379a00000000000000000000000000000000000000000000000000000000081526004016121f9906128fe565b60405180910390fd5b505050565b600060019054906101000a900460ff16612256576040517f08c379a000000000000000000000000000000000000000000000000000000000815260040161224d906129be565b60405180910390fd5b612266612261611da9565b611c67565b565b60008135905061227781612f93565b92915050565b60008135905061228c81612faa565b92915050565b6000813590506122a181612fc1565b92915050565b6000815190506122b681612fc1565b92915050565b6000602082840312156122ce57600080fd5b60006122dc84828501612268565b91505092915050565b600080600080608085870312156122fb57600080fd5b600061230987828801612268565b945050602061231a87828801612268565b935050604061232b87828801612292565b925050606061233c87828801612292565b91505092959194509250565b6000806040838503121561235b57600080fd5b600061236985828601612268565b925050602061237a8582860161227d565b9150509250929050565b60008060006060848603121561239957600080fd5b60006123a786828701612268565b93505060206123b886828701612292565b92505060406123c986828701612292565b9150509250925092565b6000602082840312156123e557600080fd5b60006123f384828501612292565b91505092915050565b60006020828403121561240e57600080fd5b600061241c848285016122a7565b91505092915050565b6000806040838503121561243857600080fd5b600061244685828601612292565b925050602061245785828601612292565b9150509250929050565b61246a81612ba8565b82525050565b61247981612bba565b82525050565b600061248a82612aa6565b6124948185612abc565b93506124a4818560208601612c3d565b80840191505092915050565b6124b981612c19565b82525050565b6124c881612c2b565b82525050565b60006124d982612ab1565b6124e38185612ac7565b93506124f3818560208601612c3d565b6124fc81612cd8565b840191505092915050565b6000612514602283612ac7565b915061251f82612ce9565b604082019050919050565b6000612537602683612ac7565b915061254282612d38565b604082019050919050565b600061255a602e83612ac7565b915061256582612d87565b604082019050919050565b600061257d601283612ac7565b915061258882612dd6565b602082019050919050565b60006125a0601883612ac7565b91506125ab82612dff565b602082019050919050565b60006125c3602083612ac7565b91506125ce82612e28565b602082019050919050565b60006125e6602083612ac7565b91506125f182612e51565b602082019050919050565b6000612609601c83612ac7565b915061261482612e7a565b602082019050919050565b600061262c602283612ac7565b915061263782612ea3565b604082019050919050565b600061264f602b83612ac7565b915061265a82612ef2565b604082019050919050565b6000612672601a83612ac7565b915061267d82612f41565b602082019050919050565b6000612695601b83612ac7565b91506126a082612f6a565b602082019050919050565b6126b481612bc6565b82525050565b6126c381612c02565b82525050565b6126d281612c0c565b82525050565b60006126e4828461247f565b915081905092915050565b60006020820190506127046000830184612461565b92915050565b600060608201905061271f6000830186612461565b61272c6020830185612461565b61273960408301846126ba565b949350505050565b60006040820190506127566000830185612461565b6127636020830184612470565b9392505050565b600060408201905061277f6000830185612461565b61278c60208301846124b0565b9392505050565b60006040820190506127a86000830185612461565b6127b560208301846126ba565b9392505050565b60006060820190506127d16000830186612461565b6127de60208301856126ba565b6127eb60408301846126ba565b949350505050565b60006020820190506128086000830184612470565b92915050565b600060a0820190506128236000830188612470565b6128306020830187612461565b61283d6040830186612461565b61284a60608301856126ba565b61285760808301846126ba565b9695505050505050565b600060208201905061287660008301846124bf565b92915050565b6000602082019050818103600083015261289681846124ce565b905092915050565b600060208201905081810360008301526128b781612507565b9050919050565b600060208201905081810360008301526128d78161252a565b9050919050565b600060208201905081810360008301526128f78161254d565b9050919050565b6000602082019050818103600083015261291781612570565b9050919050565b6000602082019050818103600083015261293781612593565b9050919050565b60006020820190508181036000830152612957816125b6565b9050919050565b60006020820190508181036000830152612977816125d9565b9050919050565b60006020820190508181036000830152612997816125fc565b9050919050565b600060208201905081810360008301526129b78161261f565b9050919050565b600060208201905081810360008301526129d781612642565b9050919050565b600060208201905081810360008301526129f781612665565b9050919050565b60006020820190508181036000830152612a1781612688565b9050919050565b6000604082019050612a3360008301856126ab565b612a4060208301846126ab565b9392505050565b6000602082019050612a5c60008301846126ba565b92915050565b6000604082019050612a7760008301856126ba565b612a8460208301846126ba565b9392505050565b6000602082019050612aa060008301846126c9565b92915050565b600081519050919050565b600081519050919050565b600081905092915050565b600082825260208201905092915050565b6000612ae382612bc6565b9150612aee83612bc6565b9250826fffffffffffffffffffffffffffffffff03821115612b1357612b12612ca9565b5b828201905092915050565b6000612b2982612c02565b9150612b3483612c02565b9250827fffffffffffffffffffffffffffffffffffffffffffffffffffffffffffffffff03821115612b6957612b68612ca9565b5b828201905092915050565b6000612b7f82612c02565b9150612b8a83612c02565b925082821015612b9d57612b9c612ca9565b5b828203905092915050565b6000612bb382612be2565b9050919050565b60008115159050919050565b60006fffffffffffffffffffffffffffffffff82169050919050565b600073ffffffffffffffffffffffffffffffffffffffff82169050919050565b6000819050919050565b600060ff82169050919050565b6000612c2482612c02565b9050919050565b6000612c3682612c0c565b9050919050565b60005b83811015612c5b578082015181840152602081019050612c40565b83811115612c6a576000848401525b50505050565b6000612c7b82612bc6565b91506fffffffffffffffffffffffffffffffff821415612c9e57612c9d612ca9565b5b600182019050919050565b7f4e487b7100000000000000000000000000000000000000000000000000000000600052601160045260246000fd5b6000601f19601f8301169050919050565b7f45524332303a206275726e20616d6f756e7420657863656564732062616c616e60008201527f6365000000000000000000000000000000000000000000000000000000000000602082015250565b7f4f776e61626c653a206e6577206f776e657220697320746865207a65726f206160008201527f6464726573730000000000000000000000000000000000000000000000000000602082015250565b7f496e697469616c697a61626c653a20636f6e747261637420697320616c72656160008201527f647920696e697469616c697a6564000000000000000000000000000000000000602082015250565b7f21736166655472616e7366657245564d4f530000000000000000000000000000600082015250565b7f7545564d4f53204b696c6c3a205374696c6c20736166652e0000000000000000600082015250565b7f4f776e61626c653a2063616c6c6572206973206e6f7420746865206f776e6572600082015250565b7f7545564d4f533a206d696e7420746f20746865207a65726f2061646472657373600082015250565b7f6d696e744c6f636b6564546f6b656e3a20616d6f756e74203c3d203000000000600082015250565b7f7545564d4f533a206275726e2066726f6d20746865207a65726f20616464726560008201527f7373000000000000000000000000000000000000000000000000000000000000602082015250565b7f496e697469616c697a61626c653a20636f6e7472616374206973206e6f74206960008201527f6e697469616c697a696e67000000000000000000000000000000000000000000602082015250565b7f556e626f6e64656445766d6f733a204e6f74206d696e7465722e000000000000600082015250565b7f7545564d4f53204b696c6c3a2043616e6e6f7420556e6c6f636b2e0000000000600082015250565b612f9c81612ba8565b8114612fa757600080fd5b50565b612fb381612bba565b8114612fbe57600080fd5b50565b612fca81612c02565b8114612fd557600080fd5b5056fea2646970667358221220dd656a87c1b737fe6994b07b88c6d33c6eae9fa70b3ea0ecc07f27b2873d8b1164736f6c63430008040033",
          "opcodes": "PUSH1 0x80 PUSH1 0x40 MSTORE CALLVALUE DUP1 ISZERO PUSH2 0x10 JUMPI PUSH1 0x0 DUP1 REVERT JUMPDEST POP PUSH2 0x300E DUP1 PUSH2 0x20 PUSH1 0x0 CODECOPY PUSH1 0x0 RETURN INVALID PUSH1 0x80 PUSH1 0x40 MSTORE PUSH1 0x4 CALLDATASIZE LT PUSH2 0x143 JUMPI PUSH1 0x0 CALLDATALOAD PUSH1 0xE0 SHR DUP1 PUSH4 0x8DA5CB5B GT PUSH2 0xB6 JUMPI DUP1 PUSH4 0xD29A0025 GT PUSH2 0x6F JUMPI DUP1 PUSH4 0xD29A0025 EQ PUSH2 0x467 JUMPI DUP1 PUSH4 0xE158C1AC EQ PUSH2 0x490 JUMPI DUP1 PUSH4 0xEFC8F3C8 EQ PUSH2 0x49A JUMPI DUP1 PUSH4 0xF2FDE38B EQ PUSH2 0x4C3 JUMPI DUP1 PUSH4 0xF4DADC61 EQ PUSH2 0x4EC JUMPI DUP1 PUSH4 0xFFAE6156 EQ PUSH2 0x52D JUMPI PUSH2 0x14A JUMP JUMPDEST DUP1 PUSH4 0x8DA5CB5B EQ PUSH2 0x31B JUMPI DUP1 PUSH4 0x95D89B41 EQ PUSH2 0x346 JUMPI DUP1 PUSH4 0x97E7381E EQ PUSH2 0x371 JUMPI DUP1 PUSH4 0xA5F1E282 EQ PUSH2 0x3AE JUMPI DUP1 PUSH4 0xAA271E1A EQ PUSH2 0x3EC JUMPI DUP1 PUSH4 0xC8630178 EQ PUSH2 0x429 JUMPI PUSH2 0x14A JUMP JUMPDEST DUP1 PUSH4 0x5BFC5A6E GT PUSH2 0x108 JUMPI DUP1 PUSH4 0x5BFC5A6E EQ PUSH2 0x221 JUMPI DUP1 PUSH4 0x6198E339 EQ PUSH2 0x24C JUMPI DUP1 PUSH4 0x633235D0 EQ PUSH2 0x275 JUMPI DUP1 PUSH4 0x70A08231 EQ PUSH2 0x29E JUMPI DUP1 PUSH4 0x715018A6 EQ PUSH2 0x2DB JUMPI DUP1 PUSH4 0x7BF52BD7 EQ PUSH2 0x2F2 JUMPI PUSH2 0x14A JUMP JUMPDEST DUP1 PUSH3 0xDBCCC6 EQ PUSH2 0x14C JUMPI DUP1 PUSH4 0x6FDDE03 EQ PUSH2 0x175 JUMPI DUP1 PUSH4 0x18160DDD EQ PUSH2 0x1A0 JUMPI DUP1 PUSH4 0x28F55A6C EQ PUSH2 0x1CB JUMPI DUP1 PUSH4 0x313CE567 EQ PUSH2 0x1F6 JUMPI PUSH2 0x14A JUMP JUMPDEST CALLDATASIZE PUSH2 0x14A JUMPI STOP JUMPDEST STOP JUMPDEST CALLVALUE DUP1 ISZERO PUSH2 0x158 JUMPI PUSH1 0x0 DUP1 REVERT JUMPDEST POP PUSH2 0x173 PUSH1 0x4 DUP1 CALLDATASIZE SUB DUP2 ADD SWAP1 PUSH2 0x16E SWAP2 SWAP1 PUSH2 0x2425 JUMP JUMPDEST PUSH2 0x558 JUMP JUMPDEST STOP JUMPDEST CALLVALUE DUP1 ISZERO PUSH2 0x181 JUMPI PUSH1 0x0 DUP1 REVERT JUMPDEST POP PUSH2 0x18A PUSH2 0x5AB JUMP JUMPDEST PUSH1 0x40 MLOAD PUSH2 0x197 SWAP2 SWAP1 PUSH2 0x287C JUMP JUMPDEST PUSH1 0x40 MLOAD DUP1 SWAP2 SUB SWAP1 RETURN JUMPDEST CALLVALUE DUP1 ISZERO PUSH2 0x1AC JUMPI PUSH1 0x0 DUP1 REVERT JUMPDEST POP PUSH2 0x1B5 PUSH2 0x5E4 JUMP JUMPDEST PUSH1 0x40 MLOAD PUSH2 0x1C2 SWAP2 SWAP1 PUSH2 0x2A47 JUMP JUMPDEST PUSH1 0x40 MLOAD DUP1 SWAP2 SUB SWAP1 RETURN JUMPDEST CALLVALUE DUP1 ISZERO PUSH2 0x1D7 JUMPI PUSH1 0x0 DUP1 REVERT JUMPDEST POP PUSH2 0x1E0 PUSH2 0x5EA JUMP JUMPDEST PUSH1 0x40 MLOAD PUSH2 0x1ED SWAP2 SWAP1 PUSH2 0x2A47 JUMP JUMPDEST PUSH1 0x40 MLOAD DUP1 SWAP2 SUB SWAP1 RETURN JUMPDEST CALLVALUE DUP1 ISZERO PUSH2 0x202 JUMPI PUSH1 0x0 DUP1 REVERT JUMPDEST POP PUSH2 0x20B PUSH2 0x5F0 JUMP JUMPDEST PUSH1 0x40 MLOAD PUSH2 0x218 SWAP2 SWAP1 PUSH2 0x2A8B JUMP JUMPDEST PUSH1 0x40 MLOAD DUP1 SWAP2 SUB SWAP1 RETURN JUMPDEST CALLVALUE DUP1 ISZERO PUSH2 0x22D JUMPI PUSH1 0x0 DUP1 REVERT JUMPDEST POP PUSH2 0x236 PUSH2 0x5F5 JUMP JUMPDEST PUSH1 0x40 MLOAD PUSH2 0x243 SWAP2 SWAP1 PUSH2 0x2A47 JUMP JUMPDEST PUSH1 0x40 MLOAD DUP1 SWAP2 SUB SWAP1 RETURN JUMPDEST CALLVALUE DUP1 ISZERO PUSH2 0x258 JUMPI PUSH1 0x0 DUP1 REVERT JUMPDEST POP PUSH2 0x273 PUSH1 0x4 DUP1 CALLDATASIZE SUB DUP2 ADD SWAP1 PUSH2 0x26E SWAP2 SWAP1 PUSH2 0x23D3 JUMP JUMPDEST PUSH2 0x5FB JUMP JUMPDEST STOP JUMPDEST CALLVALUE DUP1 ISZERO PUSH2 0x281 JUMPI PUSH1 0x0 DUP1 REVERT JUMPDEST POP PUSH2 0x29C PUSH1 0x4 DUP1 CALLDATASIZE SUB DUP2 ADD SWAP1 PUSH2 0x297 SWAP2 SWAP1 PUSH2 0x22E5 JUMP JUMPDEST PUSH2 0x64D JUMP JUMPDEST STOP JUMPDEST CALLVALUE DUP1 ISZERO PUSH2 0x2AA JUMPI PUSH1 0x0 DUP1 REVERT JUMPDEST POP PUSH2 0x2C5 PUSH1 0x4 DUP1 CALLDATASIZE SUB DUP2 ADD SWAP1 PUSH2 0x2C0 SWAP2 SWAP1 PUSH2 0x22BC JUMP JUMPDEST PUSH2 0x9F3 JUMP JUMPDEST PUSH1 0x40 MLOAD PUSH2 0x2D2 SWAP2 SWAP1 PUSH2 0x2A47 JUMP JUMPDEST PUSH1 0x40 MLOAD DUP1 SWAP2 SUB SWAP1 RETURN JUMPDEST CALLVALUE DUP1 ISZERO PUSH2 0x2E7 JUMPI PUSH1 0x0 DUP1 REVERT JUMPDEST POP PUSH2 0x2F0 PUSH2 0xA3C JUMP JUMPDEST STOP JUMPDEST CALLVALUE DUP1 ISZERO PUSH2 0x2FE JUMPI PUSH1 0x0 DUP1 REVERT JUMPDEST POP PUSH2 0x319 PUSH1 0x4 DUP1 CALLDATASIZE SUB DUP2 ADD SWAP1 PUSH2 0x314 SWAP2 SWAP1 PUSH2 0x2384 JUMP JUMPDEST PUSH2 0xA50 JUMP JUMPDEST STOP JUMPDEST CALLVALUE DUP1 ISZERO PUSH2 0x327 JUMPI PUSH1 0x0 DUP1 REVERT JUMPDEST POP PUSH2 0x330 PUSH2 0xBA6 JUMP JUMPDEST PUSH1 0x40 MLOAD PUSH2 0x33D SWAP2 SWAP1 PUSH2 0x26EF JUMP JUMPDEST PUSH1 0x40 MLOAD DUP1 SWAP2 SUB SWAP1 RETURN JUMPDEST CALLVALUE DUP1 ISZERO PUSH2 0x352 JUMPI PUSH1 0x0 DUP1 REVERT JUMPDEST POP PUSH2 0x35B PUSH2 0xBD0 JUMP JUMPDEST PUSH1 0x40 MLOAD PUSH2 0x368 SWAP2 SWAP1 PUSH2 0x287C JUMP JUMPDEST PUSH1 0x40 MLOAD DUP1 SWAP2 SUB SWAP1 RETURN JUMPDEST CALLVALUE DUP1 ISZERO PUSH2 0x37D JUMPI PUSH1 0x0 DUP1 REVERT JUMPDEST POP PUSH2 0x398 PUSH1 0x4 DUP1 CALLDATASIZE SUB DUP2 ADD SWAP1 PUSH2 0x393 SWAP2 SWAP1 PUSH2 0x23D3 JUMP JUMPDEST PUSH2 0xC09 JUMP JUMPDEST PUSH1 0x40 MLOAD PUSH2 0x3A5 SWAP2 SWAP1 PUSH2 0x27F3 JUMP JUMPDEST PUSH1 0x40 MLOAD DUP1 SWAP2 SUB SWAP1 RETURN JUMPDEST CALLVALUE DUP1 ISZERO PUSH2 0x3BA JUMPI PUSH1 0x0 DUP1 REVERT JUMPDEST POP PUSH2 0x3D5 PUSH1 0x4 DUP1 CALLDATASIZE SUB DUP2 ADD SWAP1 PUSH2 0x3D0 SWAP2 SWAP1 PUSH2 0x22BC JUMP JUMPDEST PUSH2 0xDF9 JUMP JUMPDEST PUSH1 0x40 MLOAD PUSH2 0x3E3 SWAP3 SWAP2 SWAP1 PUSH2 0x2A1E JUMP JUMPDEST PUSH1 0x40 MLOAD DUP1 SWAP2 SUB SWAP1 RETURN JUMPDEST CALLVALUE DUP1 ISZERO PUSH2 0x3F8 JUMPI PUSH1 0x0 DUP1 REVERT JUMPDEST POP PUSH2 0x413 PUSH1 0x4 DUP1 CALLDATASIZE SUB DUP2 ADD SWAP1 PUSH2 0x40E SWAP2 SWAP1 PUSH2 0x22BC JUMP JUMPDEST PUSH2 0xE55 JUMP JUMPDEST PUSH1 0x40 MLOAD PUSH2 0x420 SWAP2 SWAP1 PUSH2 0x27F3 JUMP JUMPDEST PUSH1 0x40 MLOAD DUP1 SWAP2 SUB SWAP1 RETURN JUMPDEST CALLVALUE DUP1 ISZERO PUSH2 0x435 JUMPI PUSH1 0x0 DUP1 REVERT JUMPDEST POP PUSH2 0x450 PUSH1 0x4 DUP1 CALLDATASIZE SUB DUP2 ADD SWAP1 PUSH2 0x44B SWAP2 SWAP1 PUSH2 0x22BC JUMP JUMPDEST PUSH2 0xE75 JUMP JUMPDEST PUSH1 0x40 MLOAD PUSH2 0x45E SWAP3 SWAP2 SWAP1 PUSH2 0x2A62 JUMP JUMPDEST PUSH1 0x40 MLOAD DUP1 SWAP2 SUB SWAP1 RETURN JUMPDEST CALLVALUE DUP1 ISZERO PUSH2 0x473 JUMPI PUSH1 0x0 DUP1 REVERT JUMPDEST POP PUSH2 0x48E PUSH1 0x4 DUP1 CALLDATASIZE SUB DUP2 ADD SWAP1 PUSH2 0x489 SWAP2 SWAP1 PUSH2 0x23D3 JUMP JUMPDEST PUSH2 0x12A4 JUMP JUMPDEST STOP JUMPDEST PUSH2 0x498 PUSH2 0x1551 JUMP JUMPDEST STOP JUMPDEST CALLVALUE DUP1 ISZERO PUSH2 0x4A6 JUMPI PUSH1 0x0 DUP1 REVERT JUMPDEST POP PUSH2 0x4C1 PUSH1 0x4 DUP1 CALLDATASIZE SUB DUP2 ADD SWAP1 PUSH2 0x4BC SWAP2 SWAP1 PUSH2 0x2348 JUMP JUMPDEST PUSH2 0x1553 JUMP JUMPDEST STOP JUMPDEST CALLVALUE DUP1 ISZERO PUSH2 0x4CF JUMPI PUSH1 0x0 DUP1 REVERT JUMPDEST POP PUSH2 0x4EA PUSH1 0x4 DUP1 CALLDATASIZE SUB DUP2 ADD SWAP1 PUSH2 0x4E5 SWAP2 SWAP1 PUSH2 0x22BC JUMP JUMPDEST PUSH2 0x15EF JUMP JUMPDEST STOP JUMPDEST CALLVALUE DUP1 ISZERO PUSH2 0x4F8 JUMPI PUSH1 0x0 DUP1 REVERT JUMPDEST POP PUSH2 0x513 PUSH1 0x4 DUP1 CALLDATASIZE SUB DUP2 ADD SWAP1 PUSH2 0x50E SWAP2 SWAP1 PUSH2 0x23D3 JUMP JUMPDEST PUSH2 0x1673 JUMP JUMPDEST PUSH1 0x40 MLOAD PUSH2 0x524 SWAP6 SWAP5 SWAP4 SWAP3 SWAP2 SWAP1 PUSH2 0x280E JUMP JUMPDEST PUSH1 0x40 MLOAD DUP1 SWAP2 SUB SWAP1 RETURN JUMPDEST CALLVALUE DUP1 ISZERO PUSH2 0x539 JUMPI PUSH1 0x0 DUP1 REVERT JUMPDEST POP PUSH2 0x542 PUSH2 0x1706 JUMP JUMPDEST PUSH1 0x40 MLOAD PUSH2 0x54F SWAP2 SWAP1 PUSH2 0x2A47 JUMP JUMPDEST PUSH1 0x40 MLOAD DUP1 SWAP2 SUB SWAP1 RETURN JUMPDEST PUSH2 0x560 PUSH2 0x170C JUMP JUMPDEST DUP1 PUSH1 0x67 DUP2 SWAP1 SSTORE POP DUP2 PUSH1 0x66 DUP2 SWAP1 SSTORE POP PUSH32 0xF88C4DAABAD4D8A3268872E6513D06A7F6924A2390F0E3D89B8451A2AC0635C5 DUP3 DUP3 PUSH1 0x40 MLOAD PUSH2 0x59F SWAP3 SWAP2 SWAP1 PUSH2 0x2A62 JUMP JUMPDEST PUSH1 0x40 MLOAD DUP1 SWAP2 SUB SWAP1 LOG1 POP POP JUMP JUMPDEST PUSH1 0x40 MLOAD DUP1 PUSH1 0x40 ADD PUSH1 0x40 MSTORE DUP1 PUSH1 0xE DUP2 MSTORE PUSH1 0x20 ADD PUSH32 0x556E7374616B65642045564D4F53000000000000000000000000000000000000 DUP2 MSTORE POP DUP2 JUMP JUMPDEST PUSH1 0x6C SLOAD DUP2 JUMP JUMPDEST PUSH1 0x66 SLOAD DUP2 JUMP JUMPDEST PUSH1 0x12 DUP2 JUMP JUMPDEST PUSH1 0x69 SLOAD DUP2 JUMP JUMPDEST PUSH1 0x0 PUSH1 0x6A PUSH1 0x0 CALLER PUSH20 0xFFFFFFFFFFFFFFFFFFFFFFFFFFFFFFFFFFFFFFFF AND PUSH20 0xFFFFFFFFFFFFFFFFFFFFFFFFFFFFFFFFFFFFFFFF AND DUP2 MSTORE PUSH1 0x20 ADD SWAP1 DUP2 MSTORE PUSH1 0x20 ADD PUSH1 0x0 KECCAK256 SWAP1 POP PUSH2 0x649 CALLER DUP3 DUP5 PUSH2 0x178A JUMP JUMPDEST POP POP JUMP JUMPDEST PUSH1 0x65 PUSH1 0x0 CALLER PUSH20 0xFFFFFFFFFFFFFFFFFFFFFFFFFFFFFFFFFFFFFFFF AND PUSH20 0xFFFFFFFFFFFFFFFFFFFFFFFFFFFFFFFFFFFFFFFF AND DUP2 MSTORE PUSH1 0x20 ADD SWAP1 DUP2 MSTORE PUSH1 0x20 ADD PUSH1 0x0 KECCAK256 PUSH1 0x0 SWAP1 SLOAD SWAP1 PUSH2 0x100 EXP SWAP1 DIV PUSH1 0xFF AND PUSH2 0x6D9 JUMPI PUSH1 0x40 MLOAD PUSH32 0x8C379A000000000000000000000000000000000000000000000000000000000 DUP2 MSTORE PUSH1 0x4 ADD PUSH2 0x6D0 SWAP1 PUSH2 0x29DE JUMP JUMPDEST PUSH1 0x40 MLOAD DUP1 SWAP2 SUB SWAP1 REVERT JUMPDEST PUSH1 0x0 DUP3 GT PUSH2 0x71C JUMPI PUSH1 0x40 MLOAD PUSH32 0x8C379A000000000000000000000000000000000000000000000000000000000 DUP2 MSTORE PUSH1 0x4 ADD PUSH2 0x713 SWAP1 PUSH2 0x297E JUMP JUMPDEST PUSH1 0x40 MLOAD DUP1 SWAP2 SUB SWAP1 REVERT JUMPDEST PUSH1 0x0 PUSH1 0x6A PUSH1 0x0 DUP7 PUSH20 0xFFFFFFFFFFFFFFFFFFFFFFFFFFFFFFFFFFFFFFFF AND PUSH20 0xFFFFFFFFFFFFFFFFFFFFFFFFFFFFFFFFFFFFFFFF AND DUP2 MSTORE PUSH1 0x20 ADD SWAP1 DUP2 MSTORE PUSH1 0x20 ADD PUSH1 0x0 KECCAK256 SWAP1 POP PUSH2 0x76B DUP6 DUP3 PUSH1 0x1 PUSH2 0x178A JUMP JUMPDEST PUSH1 0x0 DUP3 TIMESTAMP PUSH2 0x779 SWAP2 SWAP1 PUSH2 0x2B1E JUMP JUMPDEST SWAP1 POP PUSH1 0x68 PUSH1 0x40 MLOAD DUP1 PUSH1 0xA0 ADD PUSH1 0x40 MSTORE DUP1 PUSH1 0x0 ISZERO ISZERO DUP2 MSTORE PUSH1 0x20 ADD CALLER PUSH20 0xFFFFFFFFFFFFFFFFFFFFFFFFFFFFFFFFFFFFFFFF AND DUP2 MSTORE PUSH1 0x20 ADD DUP8 PUSH20 0xFFFFFFFFFFFFFFFFFFFFFFFFFFFFFFFFFFFFFFFF AND DUP2 MSTORE PUSH1 0x20 ADD DUP7 DUP2 MSTORE PUSH1 0x20 ADD DUP4 DUP2 MSTORE POP SWAP1 DUP1 PUSH1 0x1 DUP2 SLOAD ADD DUP1 DUP3 SSTORE DUP1 SWAP2 POP POP PUSH1 0x1 SWAP1 SUB SWAP1 PUSH1 0x0 MSTORE PUSH1 0x20 PUSH1 0x0 KECCAK256 SWAP1 PUSH1 0x4 MUL ADD PUSH1 0x0 SWAP1 SWAP2 SWAP1 SWAP2 SWAP1 SWAP2 POP PUSH1 0x0 DUP3 ADD MLOAD DUP2 PUSH1 0x0 ADD PUSH1 0x0 PUSH2 0x100 EXP DUP2 SLOAD DUP2 PUSH1 0xFF MUL NOT AND SWAP1 DUP4 ISZERO ISZERO MUL OR SWAP1 SSTORE POP PUSH1 0x20 DUP3 ADD MLOAD DUP2 PUSH1 0x0 ADD PUSH1 0x1 PUSH2 0x100 EXP DUP2 SLOAD DUP2 PUSH20 0xFFFFFFFFFFFFFFFFFFFFFFFFFFFFFFFFFFFFFFFF MUL NOT AND SWAP1 DUP4 PUSH20 0xFFFFFFFFFFFFFFFFFFFFFFFFFFFFFFFFFFFFFFFF AND MUL OR SWAP1 SSTORE POP PUSH1 0x40 DUP3 ADD MLOAD DUP2 PUSH1 0x1 ADD PUSH1 0x0 PUSH2 0x100 EXP DUP2 SLOAD DUP2 PUSH20 0xFFFFFFFFFFFFFFFFFFFFFFFFFFFFFFFFFFFFFFFF MUL NOT AND SWAP1 DUP4 PUSH20 0xFFFFFFFFFFFFFFFFFFFFFFFFFFFFFFFFFFFFFFFF AND MUL OR SWAP1 SSTORE POP PUSH1 0x60 DUP3 ADD MLOAD DUP2 PUSH1 0x2 ADD SSTORE PUSH1 0x80 DUP3 ADD MLOAD DUP2 PUSH1 0x3 ADD SSTORE POP POP PUSH1 0x1 PUSH1 0x68 DUP1 SLOAD SWAP1 POP PUSH2 0x8D2 SWAP2 SWAP1 PUSH2 0x2B74 JUMP JUMPDEST PUSH1 0x69 DUP2 SWAP1 SSTORE POP PUSH1 0x0 DUP3 PUSH1 0x0 ADD PUSH1 0x10 SWAP1 SLOAD SWAP1 PUSH2 0x100 EXP SWAP1 DIV PUSH16 0xFFFFFFFFFFFFFFFFFFFFFFFFFFFFFFFF AND SWAP1 POP PUSH1 0x69 SLOAD DUP4 PUSH1 0x1 ADD DUP3 PUSH16 0xFFFFFFFFFFFFFFFFFFFFFFFFFFFFFFFF AND DUP2 SLOAD DUP2 LT PUSH2 0x94E JUMPI PUSH32 0x4E487B7100000000000000000000000000000000000000000000000000000000 PUSH1 0x0 MSTORE PUSH1 0x32 PUSH1 0x4 MSTORE PUSH1 0x24 PUSH1 0x0 REVERT JUMPDEST SWAP1 PUSH1 0x0 MSTORE PUSH1 0x20 PUSH1 0x0 KECCAK256 ADD DUP2 SWAP1 SSTORE POP PUSH1 0x1 DUP2 PUSH2 0x969 SWAP2 SWAP1 PUSH2 0x2AD8 JUMP JUMPDEST DUP4 PUSH1 0x0 ADD PUSH1 0x10 PUSH2 0x100 EXP DUP2 SLOAD DUP2 PUSH16 0xFFFFFFFFFFFFFFFFFFFFFFFFFFFFFFFF MUL NOT AND SWAP1 DUP4 PUSH16 0xFFFFFFFFFFFFFFFFFFFFFFFFFFFFFFFF AND MUL OR SWAP1 SSTORE POP PUSH2 0x9AD DUP8 DUP7 PUSH2 0x1B84 JUMP JUMPDEST PUSH32 0xEC36C0364D931187A76CF66D7EEE08FAD0EC2E8B7458A8D8B26B36769D4D13F3 DUP8 DUP8 PUSH1 0x69 SLOAD PUSH1 0x40 MLOAD PUSH2 0x9E2 SWAP4 SWAP3 SWAP2 SWAP1 PUSH2 0x270A JUMP JUMPDEST PUSH1 0x40 MLOAD DUP1 SWAP2 SUB SWAP1 LOG1 POP POP POP POP POP POP POP JUMP JUMPDEST PUSH1 0x0 PUSH1 0x6B PUSH1 0x0 DUP4 PUSH20 0xFFFFFFFFFFFFFFFFFFFFFFFFFFFFFFFFFFFFFFFF AND PUSH20 0xFFFFFFFFFFFFFFFFFFFFFFFFFFFFFFFFFFFFFFFF AND DUP2 MSTORE PUSH1 0x20 ADD SWAP1 DUP2 MSTORE PUSH1 0x20 ADD PUSH1 0x0 KECCAK256 SLOAD SWAP1 POP SWAP2 SWAP1 POP JUMP JUMPDEST PUSH2 0xA44 PUSH2 0x170C JUMP JUMPDEST PUSH2 0xA4E PUSH1 0x0 PUSH2 0x1C67 JUMP JUMPDEST JUMP JUMPDEST PUSH1 0x0 DUP1 PUSH1 0x1 SWAP1 SLOAD SWAP1 PUSH2 0x100 EXP SWAP1 DIV PUSH1 0xFF AND ISZERO SWAP1 POP DUP1 DUP1 ISZERO PUSH2 0xA81 JUMPI POP PUSH1 0x1 PUSH1 0x0 DUP1 SLOAD SWAP1 PUSH2 0x100 EXP SWAP1 DIV PUSH1 0xFF AND PUSH1 0xFF AND LT JUMPDEST DUP1 PUSH2 0xAAE JUMPI POP PUSH2 0xA90 ADDRESS PUSH2 0x1D2D JUMP JUMPDEST ISZERO DUP1 ISZERO PUSH2 0xAAD JUMPI POP PUSH1 0x1 PUSH1 0x0 DUP1 SLOAD SWAP1 PUSH2 0x100 EXP SWAP1 DIV PUSH1 0xFF AND PUSH1 0xFF AND EQ JUMPDEST JUMPDEST PUSH2 0xAED JUMPI PUSH1 0x40 MLOAD PUSH32 0x8C379A000000000000000000000000000000000000000000000000000000000 DUP2 MSTORE PUSH1 0x4 ADD PUSH2 0xAE4 SWAP1 PUSH2 0x28DE JUMP JUMPDEST PUSH1 0x40 MLOAD DUP1 SWAP2 SUB SWAP1 REVERT JUMPDEST PUSH1 0x1 PUSH1 0x0 DUP1 PUSH2 0x100 EXP DUP2 SLOAD DUP2 PUSH1 0xFF MUL NOT AND SWAP1 DUP4 PUSH1 0xFF AND MUL OR SWAP1 SSTORE POP DUP1 ISZERO PUSH2 0xB2A JUMPI PUSH1 0x1 PUSH1 0x0 PUSH1 0x1 PUSH2 0x100 EXP DUP2 SLOAD DUP2 PUSH1 0xFF MUL NOT AND SWAP1 DUP4 ISZERO ISZERO MUL OR SWAP1 SSTORE POP JUMPDEST PUSH2 0xB32 PUSH2 0x1D50 JUMP JUMPDEST PUSH2 0xB3D DUP5 PUSH1 0x1 PUSH2 0x1553 JUMP JUMPDEST PUSH2 0xB47 DUP4 DUP4 PUSH2 0x558 JUMP JUMPDEST DUP1 ISZERO PUSH2 0xBA0 JUMPI PUSH1 0x0 DUP1 PUSH1 0x1 PUSH2 0x100 EXP DUP2 SLOAD DUP2 PUSH1 0xFF MUL NOT AND SWAP1 DUP4 ISZERO ISZERO MUL OR SWAP1 SSTORE POP PUSH32 0x7F26B83FF96E1F2B6A682F133852F6798A09C465DA95921460CEFB3847402498 PUSH1 0x1 PUSH1 0x40 MLOAD PUSH2 0xB97 SWAP2 SWAP1 PUSH2 0x2861 JUMP JUMPDEST PUSH1 0x40 MLOAD DUP1 SWAP2 SUB SWAP1 LOG1 JUMPDEST POP POP POP POP JUMP JUMPDEST PUSH1 0x0 PUSH1 0x33 PUSH1 0x0 SWAP1 SLOAD SWAP1 PUSH2 0x100 EXP SWAP1 DIV PUSH20 0xFFFFFFFFFFFFFFFFFFFFFFFFFFFFFFFFFFFFFFFF AND SWAP1 POP SWAP1 JUMP JUMPDEST PUSH1 0x40 MLOAD DUP1 PUSH1 0x40 ADD PUSH1 0x40 MSTORE DUP1 PUSH1 0x6 DUP2 MSTORE PUSH1 0x20 ADD PUSH32 0x7545564D4F530000000000000000000000000000000000000000000000000000 DUP2 MSTORE POP DUP2 JUMP JUMPDEST PUSH1 0x0 DUP1 PUSH1 0x68 DUP4 DUP2 SLOAD DUP2 LT PUSH2 0xC46 JUMPI PUSH32 0x4E487B7100000000000000000000000000000000000000000000000000000000 PUSH1 0x0 MSTORE PUSH1 0x32 PUSH1 0x4 MSTORE PUSH1 0x24 PUSH1 0x0 REVERT JUMPDEST SWAP1 PUSH1 0x0 MSTORE PUSH1 0x20 PUSH1 0x0 KECCAK256 SWAP1 PUSH1 0x4 MUL ADD PUSH1 0x40 MLOAD DUP1 PUSH1 0xA0 ADD PUSH1 0x40 MSTORE SWAP1 DUP2 PUSH1 0x0 DUP3 ADD PUSH1 0x0 SWAP1 SLOAD SWAP1 PUSH2 0x100 EXP SWAP1 DIV PUSH1 0xFF AND ISZERO ISZERO ISZERO ISZERO DUP2 MSTORE PUSH1 0x20 ADD PUSH1 0x0 DUP3 ADD PUSH1 0x1 SWAP1 SLOAD SWAP1 PUSH2 0x100 EXP SWAP1 DIV PUSH20 0xFFFFFFFFFFFFFFFFFFFFFFFFFFFFFFFFFFFFFFFF AND PUSH20 0xFFFFFFFFFFFFFFFFFFFFFFFFFFFFFFFFFFFFFFFF AND PUSH20 0xFFFFFFFFFFFFFFFFFFFFFFFFFFFFFFFFFFFFFFFF AND DUP2 MSTORE PUSH1 0x20 ADD PUSH1 0x1 DUP3 ADD PUSH1 0x0 SWAP1 SLOAD SWAP1 PUSH2 0x100 EXP SWAP1 DIV PUSH20 0xFFFFFFFFFFFFFFFFFFFFFFFFFFFFFFFFFFFFFFFF AND PUSH20 0xFFFFFFFFFFFFFFFFFFFFFFFFFFFFFFFFFFFFFFFF AND PUSH20 0xFFFFFFFFFFFFFFFFFFFFFFFFFFFFFFFFFFFFFFFF AND DUP2 MSTORE PUSH1 0x20 ADD PUSH1 0x2 DUP3 ADD SLOAD DUP2 MSTORE PUSH1 0x20 ADD PUSH1 0x3 DUP3 ADD SLOAD DUP2 MSTORE POP POP SWAP1 POP TIMESTAMP DUP2 PUSH1 0x80 ADD MLOAD GT ISZERO PUSH2 0xD52 JUMPI PUSH1 0x0 SWAP2 POP POP PUSH2 0xDF4 JUMP JUMPDEST PUSH1 0x0 DUP2 PUSH1 0x40 ADD MLOAD PUSH20 0xFFFFFFFFFFFFFFFFFFFFFFFFFFFFFFFFFFFFFFFF AND PUSH4 0x5EEFF101 DUP4 PUSH1 0x20 ADD MLOAD PUSH1 0x40 MLOAD DUP3 PUSH4 0xFFFFFFFF AND PUSH1 0xE0 SHL DUP2 MSTORE PUSH1 0x4 ADD PUSH2 0xD95 SWAP2 SWAP1 PUSH2 0x26EF JUMP JUMPDEST PUSH1 0x20 PUSH1 0x40 MLOAD DUP1 DUP4 SUB DUP2 DUP7 DUP1 EXTCODESIZE ISZERO DUP1 ISZERO PUSH2 0xDAD JUMPI PUSH1 0x0 DUP1 REVERT JUMPDEST POP GAS STATICCALL ISZERO DUP1 ISZERO PUSH2 0xDC1 JUMPI RETURNDATASIZE PUSH1 0x0 DUP1 RETURNDATACOPY RETURNDATASIZE PUSH1 0x0 REVERT JUMPDEST POP POP POP POP PUSH1 0x40 MLOAD RETURNDATASIZE PUSH1 0x1F NOT PUSH1 0x1F DUP3 ADD AND DUP3 ADD DUP1 PUSH1 0x40 MSTORE POP DUP2 ADD SWAP1 PUSH2 0xDE5 SWAP2 SWAP1 PUSH2 0x23FC JUMP JUMPDEST SWAP1 POP DUP2 PUSH1 0x60 ADD MLOAD DUP2 LT ISZERO SWAP3 POP POP POP JUMPDEST SWAP2 SWAP1 POP JUMP JUMPDEST PUSH1 0x6A PUSH1 0x20 MSTORE DUP1 PUSH1 0x0 MSTORE PUSH1 0x40 PUSH1 0x0 KECCAK256 PUSH1 0x0 SWAP2 POP SWAP1 POP DUP1 PUSH1 0x0 ADD PUSH1 0x0 SWAP1 SLOAD SWAP1 PUSH2 0x100 EXP SWAP1 DIV PUSH16 0xFFFFFFFFFFFFFFFFFFFFFFFFFFFFFFFF AND SWAP1 DUP1 PUSH1 0x0 ADD PUSH1 0x10 SWAP1 SLOAD SWAP1 PUSH2 0x100 EXP SWAP1 DIV PUSH16 0xFFFFFFFFFFFFFFFFFFFFFFFFFFFFFFFF AND SWAP1 POP DUP3 JUMP JUMPDEST PUSH1 0x65 PUSH1 0x20 MSTORE DUP1 PUSH1 0x0 MSTORE PUSH1 0x40 PUSH1 0x0 KECCAK256 PUSH1 0x0 SWAP2 POP SLOAD SWAP1 PUSH2 0x100 EXP SWAP1 DIV PUSH1 0xFF AND DUP2 JUMP JUMPDEST PUSH1 0x0 DUP1 PUSH1 0x0 PUSH1 0x6A PUSH1 0x0 DUP6 PUSH20 0xFFFFFFFFFFFFFFFFFFFFFFFFFFFFFFFFFFFFFFFF AND PUSH20 0xFFFFFFFFFFFFFFFFFFFFFFFFFFFFFFFFFFFFFFFF AND DUP2 MSTORE PUSH1 0x20 ADD SWAP1 DUP2 MSTORE PUSH1 0x20 ADD PUSH1 0x0 KECCAK256 PUSH1 0x0 ADD PUSH1 0x0 SWAP1 SLOAD SWAP1 PUSH2 0x100 EXP SWAP1 DIV PUSH16 0xFFFFFFFFFFFFFFFFFFFFFFFFFFFFFFFF AND SWAP1 POP PUSH1 0x0 PUSH1 0x6A PUSH1 0x0 DUP7 PUSH20 0xFFFFFFFFFFFFFFFFFFFFFFFFFFFFFFFFFFFFFFFF AND PUSH20 0xFFFFFFFFFFFFFFFFFFFFFFFFFFFFFFFFFFFFFFFF AND DUP2 MSTORE PUSH1 0x20 ADD SWAP1 DUP2 MSTORE PUSH1 0x20 ADD PUSH1 0x0 KECCAK256 PUSH1 0x0 ADD PUSH1 0x10 SWAP1 SLOAD SWAP1 PUSH2 0x100 EXP SWAP1 DIV PUSH16 0xFFFFFFFFFFFFFFFFFFFFFFFFFFFFFFFF AND SWAP1 POP PUSH1 0x0 PUSH1 0x6A PUSH1 0x0 DUP8 PUSH20 0xFFFFFFFFFFFFFFFFFFFFFFFFFFFFFFFFFFFFFFFF AND PUSH20 0xFFFFFFFFFFFFFFFFFFFFFFFFFFFFFFFFFFFFFFFF AND DUP2 MSTORE PUSH1 0x20 ADD SWAP1 DUP2 MSTORE PUSH1 0x20 ADD PUSH1 0x0 KECCAK256 PUSH1 0x1 ADD DUP1 SLOAD DUP1 PUSH1 0x20 MUL PUSH1 0x20 ADD PUSH1 0x40 MLOAD SWAP1 DUP2 ADD PUSH1 0x40 MSTORE DUP1 SWAP3 SWAP2 SWAP1 DUP2 DUP2 MSTORE PUSH1 0x20 ADD DUP3 DUP1 SLOAD DUP1 ISZERO PUSH2 0xFCC JUMPI PUSH1 0x20 MUL DUP3 ADD SWAP2 SWAP1 PUSH1 0x0 MSTORE PUSH1 0x20 PUSH1 0x0 KECCAK256 SWAP1 JUMPDEST DUP2 SLOAD DUP2 MSTORE PUSH1 0x20 ADD SWAP1 PUSH1 0x1 ADD SWAP1 DUP1 DUP4 GT PUSH2 0xFB8 JUMPI JUMPDEST POP POP POP POP POP SWAP1 POP DUP2 PUSH16 0xFFFFFFFFFFFFFFFFFFFFFFFFFFFFFFFF AND DUP4 PUSH16 0xFFFFFFFFFFFFFFFFFFFFFFFFFFFFFFFF AND EQ ISZERO PUSH2 0x100E JUMPI PUSH1 0x0 DUP1 SWAP5 POP SWAP5 POP POP POP POP PUSH2 0x129F JUMP JUMPDEST PUSH1 0x0 DUP4 SWAP1 POP JUMPDEST DUP3 PUSH16 0xFFFFFFFFFFFFFFFFFFFFFFFFFFFFFFFF AND DUP2 PUSH16 0xFFFFFFFFFFFFFFFFFFFFFFFFFFFFFFFF AND LT ISZERO PUSH2 0x129A JUMPI PUSH1 0x0 PUSH1 0x68 DUP4 DUP4 PUSH16 0xFFFFFFFFFFFFFFFFFFFFFFFFFFFFFFFF AND DUP2 MLOAD DUP2 LT PUSH2 0x108F JUMPI PUSH32 0x4E487B7100000000000000000000000000000000000000000000000000000000 PUSH1 0x0 MSTORE PUSH1 0x32 PUSH1 0x4 MSTORE PUSH1 0x24 PUSH1 0x0 REVERT JUMPDEST PUSH1 0x20 MUL PUSH1 0x20 ADD ADD MLOAD DUP2 SLOAD DUP2 LT PUSH2 0x10CE JUMPI PUSH32 0x4E487B7100000000000000000000000000000000000000000000000000000000 PUSH1 0x0 MSTORE PUSH1 0x32 PUSH1 0x4 MSTORE PUSH1 0x24 PUSH1 0x0 REVERT JUMPDEST SWAP1 PUSH1 0x0 MSTORE PUSH1 0x20 PUSH1 0x0 KECCAK256 SWAP1 PUSH1 0x4 MUL ADD PUSH1 0x40 MLOAD DUP1 PUSH1 0xA0 ADD PUSH1 0x40 MSTORE SWAP1 DUP2 PUSH1 0x0 DUP3 ADD PUSH1 0x0 SWAP1 SLOAD SWAP1 PUSH2 0x100 EXP SWAP1 DIV PUSH1 0xFF AND ISZERO ISZERO ISZERO ISZERO DUP2 MSTORE PUSH1 0x20 ADD PUSH1 0x0 DUP3 ADD PUSH1 0x1 SWAP1 SLOAD SWAP1 PUSH2 0x100 EXP SWAP1 DIV PUSH20 0xFFFFFFFFFFFFFFFFFFFFFFFFFFFFFFFFFFFFFFFF AND PUSH20 0xFFFFFFFFFFFFFFFFFFFFFFFFFFFFFFFFFFFFFFFF AND PUSH20 0xFFFFFFFFFFFFFFFFFFFFFFFFFFFFFFFFFFFFFFFF AND DUP2 MSTORE PUSH1 0x20 ADD PUSH1 0x1 DUP3 ADD PUSH1 0x0 SWAP1 SLOAD SWAP1 PUSH2 0x100 EXP SWAP1 DIV PUSH20 0xFFFFFFFFFFFFFFFFFFFFFFFFFFFFFFFFFFFFFFFF AND PUSH20 0xFFFFFFFFFFFFFFFFFFFFFFFFFFFFFFFFFFFFFFFF AND PUSH20 0xFFFFFFFFFFFFFFFFFFFFFFFFFFFFFFFFFFFFFFFF AND DUP2 MSTORE PUSH1 0x20 ADD PUSH1 0x2 DUP3 ADD SLOAD DUP2 MSTORE PUSH1 0x20 ADD PUSH1 0x3 DUP3 ADD SLOAD DUP2 MSTORE POP POP SWAP1 POP TIMESTAMP DUP2 PUSH1 0x80 ADD MLOAD GT PUSH2 0x1280 JUMPI DUP1 PUSH1 0x60 ADD MLOAD DUP8 PUSH2 0x11DF SWAP2 SWAP1 PUSH2 0x2B1E JUMP JUMPDEST SWAP7 POP DUP1 PUSH1 0x40 ADD MLOAD PUSH20 0xFFFFFFFFFFFFFFFFFFFFFFFFFFFFFFFFFFFFFFFF AND PUSH4 0x5EEFF101 DUP10 PUSH1 0x40 MLOAD DUP3 PUSH4 0xFFFFFFFF AND PUSH1 0xE0 SHL DUP2 MSTORE PUSH1 0x4 ADD PUSH2 0x121E SWAP2 SWAP1 PUSH2 0x26EF JUMP JUMPDEST PUSH1 0x20 PUSH1 0x40 MLOAD DUP1 DUP4 SUB DUP2 DUP7 DUP1 EXTCODESIZE ISZERO DUP1 ISZERO PUSH2 0x1236 JUMPI PUSH1 0x0 DUP1 REVERT JUMPDEST POP GAS STATICCALL ISZERO DUP1 ISZERO PUSH2 0x124A JUMPI RETURNDATASIZE PUSH1 0x0 DUP1 RETURNDATACOPY RETURNDATASIZE PUSH1 0x0 REVERT JUMPDEST POP POP POP POP PUSH1 0x40 MLOAD RETURNDATASIZE PUSH1 0x1F NOT PUSH1 0x1F DUP3 ADD AND DUP3 ADD DUP1 PUSH1 0x40 MSTORE POP DUP2 ADD SWAP1 PUSH2 0x126E SWAP2 SWAP1 PUSH2 0x23FC JUMP JUMPDEST DUP7 PUSH2 0x1279 SWAP2 SWAP1 PUSH2 0x2B1E JUMP JUMPDEST SWAP6 POP PUSH2 0x1286 JUMP JUMPDEST POP PUSH2 0x129A JUMP JUMPDEST POP DUP1 DUP1 PUSH2 0x1292 SWAP1 PUSH2 0x2C70 JUMP JUMPDEST SWAP2 POP POP PUSH2 0x1014 JUMP JUMPDEST POP POP POP POP JUMPDEST SWAP2 POP SWAP2 JUMP JUMPDEST PUSH1 0x0 PUSH1 0x68 DUP3 DUP2 SLOAD DUP2 LT PUSH2 0x12E0 JUMPI PUSH32 0x4E487B7100000000000000000000000000000000000000000000000000000000 PUSH1 0x0 MSTORE PUSH1 0x32 PUSH1 0x4 MSTORE PUSH1 0x24 PUSH1 0x0 REVERT JUMPDEST SWAP1 PUSH1 0x0 MSTORE PUSH1 0x20 PUSH1 0x0 KECCAK256 SWAP1 PUSH1 0x4 MUL ADD SWAP1 POP TIMESTAMP DUP2 PUSH1 0x3 ADD SLOAD GT ISZERO PUSH2 0x1337 JUMPI PUSH1 0x40 MLOAD PUSH32 0x8C379A000000000000000000000000000000000000000000000000000000000 DUP2 MSTORE PUSH1 0x4 ADD PUSH2 0x132E SWAP1 PUSH2 0x29FE JUMP JUMPDEST PUSH1 0x40 MLOAD DUP1 SWAP2 SUB SWAP1 REVERT JUMPDEST PUSH1 0x0 DUP2 PUSH1 0x1 ADD PUSH1 0x0 SWAP1 SLOAD SWAP1 PUSH2 0x100 EXP SWAP1 DIV PUSH20 0xFFFFFFFFFFFFFFFFFFFFFFFFFFFFFFFFFFFFFFFF AND PUSH20 0xFFFFFFFFFFFFFFFFFFFFFFFFFFFFFFFFFFFFFFFF AND PUSH4 0x5EEFF101 DUP4 PUSH1 0x0 ADD PUSH1 0x1 SWAP1 SLOAD SWAP1 PUSH2 0x100 EXP SWAP1 DIV PUSH20 0xFFFFFFFFFFFFFFFFFFFFFFFFFFFFFFFFFFFFFFFF AND PUSH1 0x40 MLOAD DUP3 PUSH4 0xFFFFFFFF AND PUSH1 0xE0 SHL DUP2 MSTORE PUSH1 0x4 ADD PUSH2 0x13BA SWAP2 SWAP1 PUSH2 0x26EF JUMP JUMPDEST PUSH1 0x20 PUSH1 0x40 MLOAD DUP1 DUP4 SUB DUP2 DUP7 DUP1 EXTCODESIZE ISZERO DUP1 ISZERO PUSH2 0x13D2 JUMPI PUSH1 0x0 DUP1 REVERT JUMPDEST POP GAS STATICCALL ISZERO DUP1 ISZERO PUSH2 0x13E6 JUMPI RETURNDATASIZE PUSH1 0x0 DUP1 RETURNDATACOPY RETURNDATASIZE PUSH1 0x0 REVERT JUMPDEST POP POP POP POP PUSH1 0x40 MLOAD RETURNDATASIZE PUSH1 0x1F NOT PUSH1 0x1F DUP3 ADD AND DUP3 ADD DUP1 PUSH1 0x40 MSTORE POP DUP2 ADD SWAP1 PUSH2 0x140A SWAP2 SWAP1 PUSH2 0x23FC JUMP JUMPDEST SWAP1 POP DUP2 PUSH1 0x2 ADD SLOAD DUP2 LT ISZERO PUSH2 0x1453 JUMPI PUSH1 0x40 MLOAD PUSH32 0x8C379A000000000000000000000000000000000000000000000000000000000 DUP2 MSTORE PUSH1 0x4 ADD PUSH2 0x144A SWAP1 PUSH2 0x291E JUMP JUMPDEST PUSH1 0x40 MLOAD DUP1 SWAP2 SUB SWAP1 REVERT JUMPDEST DUP2 PUSH1 0x1 ADD PUSH1 0x0 SWAP1 SLOAD SWAP1 PUSH2 0x100 EXP SWAP1 DIV PUSH20 0xFFFFFFFFFFFFFFFFFFFFFFFFFFFFFFFFFFFFFFFF AND PUSH20 0xFFFFFFFFFFFFFFFFFFFFFFFFFFFFFFFFFFFFFFFF AND PUSH4 0x9D2E6FCB DUP4 PUSH1 0x2 ADD SLOAD DUP5 PUSH1 0x0 ADD PUSH1 0x1 SWAP1 SLOAD SWAP1 PUSH2 0x100 EXP SWAP1 DIV PUSH20 0xFFFFFFFFFFFFFFFFFFFFFFFFFFFFFFFFFFFFFFFF AND PUSH1 0x1 PUSH1 0x40 MLOAD DUP5 PUSH4 0xFFFFFFFF AND PUSH1 0xE0 SHL DUP2 MSTORE PUSH1 0x4 ADD PUSH2 0x14DC SWAP3 SWAP2 SWAP1 PUSH2 0x276A JUMP JUMPDEST PUSH1 0x20 PUSH1 0x40 MLOAD DUP1 DUP4 SUB DUP2 DUP6 DUP9 DUP1 EXTCODESIZE ISZERO DUP1 ISZERO PUSH2 0x14F5 JUMPI PUSH1 0x0 DUP1 REVERT JUMPDEST POP GAS CALL ISZERO DUP1 ISZERO PUSH2 0x1509 JUMPI RETURNDATASIZE PUSH1 0x0 DUP1 RETURNDATACOPY RETURNDATASIZE PUSH1 0x0 REVERT JUMPDEST POP POP POP POP POP PUSH1 0x40 MLOAD RETURNDATASIZE PUSH1 0x1F NOT PUSH1 0x1F DUP3 ADD AND DUP3 ADD DUP1 PUSH1 0x40 MSTORE POP DUP2 ADD SWAP1 PUSH2 0x152E SWAP2 SWAP1 PUSH2 0x23FC JUMP JUMPDEST POP PUSH1 0x1 DUP3 PUSH1 0x0 ADD PUSH1 0x0 PUSH2 0x100 EXP DUP2 SLOAD DUP2 PUSH1 0xFF MUL NOT AND SWAP1 DUP4 ISZERO ISZERO MUL OR SWAP1 SSTORE POP POP POP POP JUMP JUMPDEST JUMP JUMPDEST PUSH2 0x155B PUSH2 0x170C JUMP JUMPDEST DUP1 PUSH1 0x65 PUSH1 0x0 DUP5 PUSH20 0xFFFFFFFFFFFFFFFFFFFFFFFFFFFFFFFFFFFFFFFF AND PUSH20 0xFFFFFFFFFFFFFFFFFFFFFFFFFFFFFFFFFFFFFFFF AND DUP2 MSTORE PUSH1 0x20 ADD SWAP1 DUP2 MSTORE PUSH1 0x20 ADD PUSH1 0x0 KECCAK256 PUSH1 0x0 PUSH2 0x100 EXP DUP2 SLOAD DUP2 PUSH1 0xFF MUL NOT AND SWAP1 DUP4 ISZERO ISZERO MUL OR SWAP1 SSTORE POP PUSH32 0xF6C10B2804D0174249F23BD4C462FB3E65EA16BF2B6896EFFE8A09F8F6A8E3B0 DUP3 DUP3 PUSH1 0x40 MLOAD PUSH2 0x15E3 SWAP3 SWAP2 SWAP1 PUSH2 0x2741 JUMP JUMPDEST PUSH1 0x40 MLOAD DUP1 SWAP2 SUB SWAP1 LOG1 POP POP JUMP JUMPDEST PUSH2 0x15F7 PUSH2 0x170C JUMP JUMPDEST PUSH1 0x0 PUSH20 0xFFFFFFFFFFFFFFFFFFFFFFFFFFFFFFFFFFFFFFFF AND DUP2 PUSH20 0xFFFFFFFFFFFFFFFFFFFFFFFFFFFFFFFFFFFFFFFF AND EQ ISZERO PUSH2 0x1667 JUMPI PUSH1 0x40 MLOAD PUSH32 0x8C379A000000000000000000000000000000000000000000000000000000000 DUP2 MSTORE PUSH1 0x4 ADD PUSH2 0x165E SWAP1 PUSH2 0x28BE JUMP JUMPDEST PUSH1 0x40 MLOAD DUP1 SWAP2 SUB SWAP1 REVERT JUMPDEST PUSH2 0x1670 DUP2 PUSH2 0x1C67 JUMP JUMPDEST POP JUMP JUMPDEST PUSH1 0x68 DUP2 DUP2 SLOAD DUP2 LT PUSH2 0x1683 JUMPI PUSH1 0x0 DUP1 REVERT JUMPDEST SWAP1 PUSH1 0x0 MSTORE PUSH1 0x20 PUSH1 0x0 KECCAK256 SWAP1 PUSH1 0x4 MUL ADD PUSH1 0x0 SWAP2 POP SWAP1 POP DUP1 PUSH1 0x0 ADD PUSH1 0x0 SWAP1 SLOAD SWAP1 PUSH2 0x100 EXP SWAP1 DIV PUSH1 0xFF AND SWAP1 DUP1 PUSH1 0x0 ADD PUSH1 0x1 SWAP1 SLOAD SWAP1 PUSH2 0x100 EXP SWAP1 DIV PUSH20 0xFFFFFFFFFFFFFFFFFFFFFFFFFFFFFFFFFFFFFFFF AND SWAP1 DUP1 PUSH1 0x1 ADD PUSH1 0x0 SWAP1 SLOAD SWAP1 PUSH2 0x100 EXP SWAP1 DIV PUSH20 0xFFFFFFFFFFFFFFFFFFFFFFFFFFFFFFFFFFFFFFFF AND SWAP1 DUP1 PUSH1 0x2 ADD SLOAD SWAP1 DUP1 PUSH1 0x3 ADD SLOAD SWAP1 POP DUP6 JUMP JUMPDEST PUSH1 0x67 SLOAD DUP2 JUMP JUMPDEST PUSH2 0x1714 PUSH2 0x1DA9 JUMP JUMPDEST PUSH20 0xFFFFFFFFFFFFFFFFFFFFFFFFFFFFFFFFFFFFFFFF AND PUSH2 0x1732 PUSH2 0xBA6 JUMP JUMPDEST PUSH20 0xFFFFFFFFFFFFFFFFFFFFFFFFFFFFFFFFFFFFFFFF AND EQ PUSH2 0x1788 JUMPI PUSH1 0x40 MLOAD PUSH32 0x8C379A000000000000000000000000000000000000000000000000000000000 DUP2 MSTORE PUSH1 0x4 ADD PUSH2 0x177F SWAP1 PUSH2 0x293E JUMP JUMPDEST PUSH1 0x40 MLOAD DUP1 SWAP2 SUB SWAP1 REVERT JUMPDEST JUMP JUMPDEST PUSH1 0x6A PUSH1 0x0 DUP5 PUSH20 0xFFFFFFFFFFFFFFFFFFFFFFFFFFFFFFFFFFFFFFFF AND PUSH20 0xFFFFFFFFFFFFFFFFFFFFFFFFFFFFFFFFFFFFFFFF AND DUP2 MSTORE PUSH1 0x20 ADD SWAP1 DUP2 MSTORE PUSH1 0x20 ADD PUSH1 0x0 KECCAK256 SWAP2 POP PUSH1 0x0 DUP3 PUSH1 0x0 ADD PUSH1 0x0 SWAP1 SLOAD SWAP1 PUSH2 0x100 EXP SWAP1 DIV PUSH16 0xFFFFFFFFFFFFFFFFFFFFFFFFFFFFFFFF AND SWAP1 POP PUSH1 0x0 DUP4 PUSH1 0x0 ADD PUSH1 0x10 SWAP1 SLOAD SWAP1 PUSH2 0x100 EXP SWAP1 DIV PUSH16 0xFFFFFFFFFFFFFFFFFFFFFFFFFFFFFFFF AND SWAP1 POP DUP1 PUSH16 0xFFFFFFFFFFFFFFFFFFFFFFFFFFFFFFFF AND DUP3 PUSH16 0xFFFFFFFFFFFFFFFFFFFFFFFFFFFFFFFF AND EQ ISZERO PUSH2 0x1848 JUMPI POP POP PUSH2 0x1B7F JUMP JUMPDEST PUSH1 0x0 DUP1 PUSH1 0x0 DUP5 SWAP1 POP JUMPDEST DUP4 PUSH16 0xFFFFFFFFFFFFFFFFFFFFFFFFFFFFFFFF AND DUP2 PUSH16 0xFFFFFFFFFFFFFFFFFFFFFFFFFFFFFFFF AND LT ISZERO PUSH2 0x1ACF JUMPI PUSH1 0x0 DUP8 PUSH1 0x1 ADD DUP3 PUSH16 0xFFFFFFFFFFFFFFFFFFFFFFFFFFFFFFFF AND DUP2 SLOAD DUP2 LT PUSH2 0x18CD JUMPI PUSH32 0x4E487B7100000000000000000000000000000000000000000000000000000000 PUSH1 0x0 MSTORE PUSH1 0x32 PUSH1 0x4 MSTORE PUSH1 0x24 PUSH1 0x0 REVERT JUMPDEST SWAP1 PUSH1 0x0 MSTORE PUSH1 0x20 PUSH1 0x0 KECCAK256 ADD SLOAD SWAP1 POP PUSH1 0x0 PUSH1 0x68 DUP3 DUP2 SLOAD DUP2 LT PUSH2 0x1916 JUMPI PUSH32 0x4E487B7100000000000000000000000000000000000000000000000000000000 PUSH1 0x0 MSTORE PUSH1 0x32 PUSH1 0x4 MSTORE PUSH1 0x24 PUSH1 0x0 REVERT JUMPDEST SWAP1 PUSH1 0x0 MSTORE PUSH1 0x20 PUSH1 0x0 KECCAK256 SWAP1 PUSH1 0x4 MUL ADD PUSH1 0x40 MLOAD DUP1 PUSH1 0xA0 ADD PUSH1 0x40 MSTORE SWAP1 DUP2 PUSH1 0x0 DUP3 ADD PUSH1 0x0 SWAP1 SLOAD SWAP1 PUSH2 0x100 EXP SWAP1 DIV PUSH1 0xFF AND ISZERO ISZERO ISZERO ISZERO DUP2 MSTORE PUSH1 0x20 ADD PUSH1 0x0 DUP3 ADD PUSH1 0x1 SWAP1 SLOAD SWAP1 PUSH2 0x100 EXP SWAP1 DIV PUSH20 0xFFFFFFFFFFFFFFFFFFFFFFFFFFFFFFFFFFFFFFFF AND PUSH20 0xFFFFFFFFFFFFFFFFFFFFFFFFFFFFFFFFFFFFFFFF AND PUSH20 0xFFFFFFFFFFFFFFFFFFFFFFFFFFFFFFFFFFFFFFFF AND DUP2 MSTORE PUSH1 0x20 ADD PUSH1 0x1 DUP3 ADD PUSH1 0x0 SWAP1 SLOAD SWAP1 PUSH2 0x100 EXP SWAP1 DIV PUSH20 0xFFFFFFFFFFFFFFFFFFFFFFFFFFFFFFFFFFFFFFFF AND PUSH20 0xFFFFFFFFFFFFFFFFFFFFFFFFFFFFFFFFFFFFFFFF AND PUSH20 0xFFFFFFFFFFFFFFFFFFFFFFFFFFFFFFFFFFFFFFFF AND DUP2 MSTORE PUSH1 0x20 ADD PUSH1 0x2 DUP3 ADD SLOAD DUP2 MSTORE PUSH1 0x20 ADD PUSH1 0x3 DUP3 ADD SLOAD DUP2 MSTORE POP POP SWAP1 POP TIMESTAMP DUP2 PUSH1 0x80 ADD MLOAD GT PUSH2 0x1AB3 JUMPI DUP1 PUSH1 0x60 ADD MLOAD DUP6 PUSH2 0x1A27 SWAP2 SWAP1 PUSH2 0x2B1E JUMP JUMPDEST SWAP5 POP PUSH2 0x1A3D DUP11 DUP3 PUSH1 0x40 ADD MLOAD DUP4 PUSH1 0x60 ADD MLOAD DUP12 PUSH2 0x1DB1 JUMP JUMPDEST DUP5 PUSH2 0x1A48 SWAP2 SWAP1 PUSH2 0x2B1E JUMP JUMPDEST SWAP4 POP PUSH1 0x1 PUSH1 0x68 DUP4 DUP2 SLOAD DUP2 LT PUSH2 0x1A86 JUMPI PUSH32 0x4E487B7100000000000000000000000000000000000000000000000000000000 PUSH1 0x0 MSTORE PUSH1 0x32 PUSH1 0x4 MSTORE PUSH1 0x24 PUSH1 0x0 REVERT JUMPDEST SWAP1 PUSH1 0x0 MSTORE PUSH1 0x20 PUSH1 0x0 KECCAK256 SWAP1 PUSH1 0x4 MUL ADD PUSH1 0x0 ADD PUSH1 0x0 PUSH2 0x100 EXP DUP2 SLOAD DUP2 PUSH1 0xFF MUL NOT AND SWAP1 DUP4 ISZERO ISZERO MUL OR SWAP1 SSTORE POP PUSH2 0x1ABA JUMP JUMPDEST POP POP PUSH2 0x1ACF JUMP JUMPDEST POP POP DUP1 DUP1 PUSH2 0x1AC7 SWAP1 PUSH2 0x2C70 JUMP JUMPDEST SWAP2 POP POP PUSH2 0x1851 JUMP JUMPDEST PUSH1 0x0 DUP4 GT ISZERO PUSH2 0x1B79 JUMPI PUSH1 0x1 DUP2 PUSH2 0x1AE5 SWAP2 SWAP1 PUSH2 0x2AD8 JUMP JUMPDEST DUP8 PUSH1 0x0 ADD PUSH1 0x0 PUSH2 0x100 EXP DUP2 SLOAD DUP2 PUSH16 0xFFFFFFFFFFFFFFFFFFFFFFFFFFFFFFFF MUL NOT AND SWAP1 DUP4 PUSH16 0xFFFFFFFFFFFFFFFFFFFFFFFFFFFFFFFF AND MUL OR SWAP1 SSTORE POP PUSH2 0x1B29 DUP9 DUP5 PUSH2 0x1F86 JUMP JUMPDEST PUSH1 0x0 DUP3 GT ISZERO PUSH2 0x1B3D JUMPI PUSH2 0x1B3C DUP9 DUP4 PUSH2 0x20E1 JUMP JUMPDEST JUMPDEST PUSH32 0xF7870C5B224CBC19873599E46CCFC7103934650509B1AF0C3CE90138377C2004 DUP9 DUP5 DUP5 PUSH1 0x40 MLOAD PUSH2 0x1B70 SWAP4 SWAP3 SWAP2 SWAP1 PUSH2 0x27BC JUMP JUMPDEST PUSH1 0x40 MLOAD DUP1 SWAP2 SUB SWAP1 LOG1 JUMPDEST POP POP POP POP POP JUMPDEST POP POP POP JUMP JUMPDEST PUSH1 0x0 PUSH20 0xFFFFFFFFFFFFFFFFFFFFFFFFFFFFFFFFFFFFFFFF AND DUP3 PUSH20 0xFFFFFFFFFFFFFFFFFFFFFFFFFFFFFFFFFFFFFFFF AND EQ ISZERO PUSH2 0x1BF4 JUMPI PUSH1 0x40 MLOAD PUSH32 0x8C379A000000000000000000000000000000000000000000000000000000000 DUP2 MSTORE PUSH1 0x4 ADD PUSH2 0x1BEB SWAP1 PUSH2 0x295E JUMP JUMPDEST PUSH1 0x40 MLOAD DUP1 SWAP2 SUB SWAP1 REVERT JUMPDEST DUP1 PUSH1 0x6C PUSH1 0x0 DUP3 DUP3 SLOAD PUSH2 0x1C06 SWAP2 SWAP1 PUSH2 0x2B1E JUMP JUMPDEST SWAP3 POP POP DUP2 SWAP1 SSTORE POP DUP1 PUSH1 0x6B PUSH1 0x0 DUP5 PUSH20 0xFFFFFFFFFFFFFFFFFFFFFFFFFFFFFFFFFFFFFFFF AND PUSH20 0xFFFFFFFFFFFFFFFFFFFFFFFFFFFFFFFFFFFFFFFF AND DUP2 MSTORE PUSH1 0x20 ADD SWAP1 DUP2 MSTORE PUSH1 0x20 ADD PUSH1 0x0 KECCAK256 PUSH1 0x0 DUP3 DUP3 SLOAD PUSH2 0x1C5C SWAP2 SWAP1 PUSH2 0x2B1E JUMP JUMPDEST SWAP3 POP POP DUP2 SWAP1 SSTORE POP POP POP JUMP JUMPDEST PUSH1 0x0 PUSH1 0x33 PUSH1 0x0 SWAP1 SLOAD SWAP1 PUSH2 0x100 EXP SWAP1 DIV PUSH20 0xFFFFFFFFFFFFFFFFFFFFFFFFFFFFFFFFFFFFFFFF AND SWAP1 POP DUP2 PUSH1 0x33 PUSH1 0x0 PUSH2 0x100 EXP DUP2 SLOAD DUP2 PUSH20 0xFFFFFFFFFFFFFFFFFFFFFFFFFFFFFFFFFFFFFFFF MUL NOT AND SWAP1 DUP4 PUSH20 0xFFFFFFFFFFFFFFFFFFFFFFFFFFFFFFFFFFFFFFFF AND MUL OR SWAP1 SSTORE POP DUP2 PUSH20 0xFFFFFFFFFFFFFFFFFFFFFFFFFFFFFFFFFFFFFFFF AND DUP2 PUSH20 0xFFFFFFFFFFFFFFFFFFFFFFFFFFFFFFFFFFFFFFFF AND PUSH32 0x8BE0079C531659141344CD1FD0A4F28419497F9722A3DAAFE3B4186F6B6457E0 PUSH1 0x40 MLOAD PUSH1 0x40 MLOAD DUP1 SWAP2 SUB SWAP1 LOG3 POP POP JUMP JUMPDEST PUSH1 0x0 DUP1 DUP3 PUSH20 0xFFFFFFFFFFFFFFFFFFFFFFFFFFFFFFFFFFFFFFFF AND EXTCODESIZE GT SWAP1 POP SWAP2 SWAP1 POP JUMP JUMPDEST PUSH1 0x0 PUSH1 0x1 SWAP1 SLOAD SWAP1 PUSH2 0x100 EXP SWAP1 DIV PUSH1 0xFF AND PUSH2 0x1D9F JUMPI PUSH1 0x40 MLOAD PUSH32 0x8C379A000000000000000000000000000000000000000000000000000000000 DUP2 MSTORE PUSH1 0x4 ADD PUSH2 0x1D96 SWAP1 PUSH2 0x29BE JUMP JUMPDEST PUSH1 0x40 MLOAD DUP1 SWAP2 SUB SWAP1 REVERT JUMPDEST PUSH2 0x1DA7 PUSH2 0x2207 JUMP JUMPDEST JUMP JUMPDEST PUSH1 0x0 CALLER SWAP1 POP SWAP1 JUMP JUMPDEST PUSH1 0x0 DUP1 DUP5 PUSH20 0xFFFFFFFFFFFFFFFFFFFFFFFFFFFFFFFFFFFFFFFF AND PUSH4 0x5EEFF101 DUP8 PUSH1 0x40 MLOAD DUP3 PUSH4 0xFFFFFFFF AND PUSH1 0xE0 SHL DUP2 MSTORE PUSH1 0x4 ADD PUSH2 0x1DED SWAP2 SWAP1 PUSH2 0x26EF JUMP JUMPDEST PUSH1 0x20 PUSH1 0x40 MLOAD DUP1 DUP4 SUB DUP2 DUP7 DUP1 EXTCODESIZE ISZERO DUP1 ISZERO PUSH2 0x1E05 JUMPI PUSH1 0x0 DUP1 REVERT JUMPDEST POP GAS STATICCALL ISZERO DUP1 ISZERO PUSH2 0x1E19 JUMPI RETURNDATASIZE PUSH1 0x0 DUP1 RETURNDATACOPY RETURNDATASIZE PUSH1 0x0 REVERT JUMPDEST POP POP POP POP PUSH1 0x40 MLOAD RETURNDATASIZE PUSH1 0x1F NOT PUSH1 0x1F DUP3 ADD AND DUP3 ADD DUP1 PUSH1 0x40 MSTORE POP DUP2 ADD SWAP1 PUSH2 0x1E3D SWAP2 SWAP1 PUSH2 0x23FC JUMP JUMPDEST SWAP1 POP DUP1 DUP5 LT PUSH2 0x1EE9 JUMPI DUP5 PUSH20 0xFFFFFFFFFFFFFFFFFFFFFFFFFFFFFFFFFFFFFFFF AND PUSH4 0x9D2E6FCB DUP3 DUP9 DUP7 PUSH1 0x40 MLOAD DUP5 PUSH4 0xFFFFFFFF AND PUSH1 0xE0 SHL DUP2 MSTORE PUSH1 0x4 ADD PUSH2 0x1E82 SWAP3 SWAP2 SWAP1 PUSH2 0x2793 JUMP JUMPDEST PUSH1 0x20 PUSH1 0x40 MLOAD DUP1 DUP4 SUB DUP2 DUP6 DUP9 DUP1 EXTCODESIZE ISZERO DUP1 ISZERO PUSH2 0x1E9B JUMPI PUSH1 0x0 DUP1 REVERT JUMPDEST POP GAS CALL ISZERO DUP1 ISZERO PUSH2 0x1EAF JUMPI RETURNDATASIZE PUSH1 0x0 DUP1 RETURNDATACOPY RETURNDATASIZE PUSH1 0x0 REVERT JUMPDEST POP POP POP POP POP PUSH1 0x40 MLOAD RETURNDATASIZE PUSH1 0x1F NOT PUSH1 0x1F DUP3 ADD AND DUP3 ADD DUP1 PUSH1 0x40 MSTORE POP DUP2 ADD SWAP1 PUSH2 0x1ED4 SWAP2 SWAP1 PUSH2 0x23FC JUMP JUMPDEST POP DUP1 DUP5 PUSH2 0x1EE1 SWAP2 SWAP1 PUSH2 0x2B74 JUMP JUMPDEST SWAP2 POP POP PUSH2 0x1F7E JUMP JUMPDEST DUP5 PUSH20 0xFFFFFFFFFFFFFFFFFFFFFFFFFFFFFFFFFFFFFFFF AND PUSH4 0x9D2E6FCB DUP6 DUP9 DUP7 PUSH1 0x40 MLOAD DUP5 PUSH4 0xFFFFFFFF AND PUSH1 0xE0 SHL DUP2 MSTORE PUSH1 0x4 ADD PUSH2 0x1F25 SWAP3 SWAP2 SWAP1 PUSH2 0x2793 JUMP JUMPDEST PUSH1 0x20 PUSH1 0x40 MLOAD DUP1 DUP4 SUB DUP2 DUP6 DUP9 DUP1 EXTCODESIZE ISZERO DUP1 ISZERO PUSH2 0x1F3E JUMPI PUSH1 0x0 DUP1 REVERT JUMPDEST POP GAS CALL ISZERO DUP1 ISZERO PUSH2 0x1F52 JUMPI RETURNDATASIZE PUSH1 0x0 DUP1 RETURNDATACOPY RETURNDATASIZE PUSH1 0x0 REVERT JUMPDEST POP POP POP POP POP PUSH1 0x40 MLOAD RETURNDATASIZE PUSH1 0x1F NOT PUSH1 0x1F DUP3 ADD AND DUP3 ADD DUP1 PUSH1 0x40 MSTORE POP DUP2 ADD SWAP1 PUSH2 0x1F77 SWAP2 SWAP1 PUSH2 0x23FC JUMP JUMPDEST POP PUSH1 0x0 SWAP2 POP POP JUMPDEST SWAP5 SWAP4 POP POP POP POP JUMP JUMPDEST PUSH1 0x0 PUSH20 0xFFFFFFFFFFFFFFFFFFFFFFFFFFFFFFFFFFFFFFFF AND DUP3 PUSH20 0xFFFFFFFFFFFFFFFFFFFFFFFFFFFFFFFFFFFFFFFF AND EQ ISZERO PUSH2 0x1FF6 JUMPI PUSH1 0x40 MLOAD PUSH32 0x8C379A000000000000000000000000000000000000000000000000000000000 DUP2 MSTORE PUSH1 0x4 ADD PUSH2 0x1FED SWAP1 PUSH2 0x299E JUMP JUMPDEST PUSH1 0x40 MLOAD DUP1 SWAP2 SUB SWAP1 REVERT JUMPDEST PUSH1 0x0 PUSH1 0x6B PUSH1 0x0 DUP5 PUSH20 0xFFFFFFFFFFFFFFFFFFFFFFFFFFFFFFFFFFFFFFFF AND PUSH20 0xFFFFFFFFFFFFFFFFFFFFFFFFFFFFFFFFFFFFFFFF AND DUP2 MSTORE PUSH1 0x20 ADD SWAP1 DUP2 MSTORE PUSH1 0x20 ADD PUSH1 0x0 KECCAK256 SLOAD SWAP1 POP DUP2 DUP2 LT ISZERO PUSH2 0x207D JUMPI PUSH1 0x40 MLOAD PUSH32 0x8C379A000000000000000000000000000000000000000000000000000000000 DUP2 MSTORE PUSH1 0x4 ADD PUSH2 0x2074 SWAP1 PUSH2 0x289E JUMP JUMPDEST PUSH1 0x40 MLOAD DUP1 SWAP2 SUB SWAP1 REVERT JUMPDEST DUP2 DUP2 SUB PUSH1 0x6B PUSH1 0x0 DUP6 PUSH20 0xFFFFFFFFFFFFFFFFFFFFFFFFFFFFFFFFFFFFFFFF AND PUSH20 0xFFFFFFFFFFFFFFFFFFFFFFFFFFFFFFFFFFFFFFFF AND DUP2 MSTORE PUSH1 0x20 ADD SWAP1 DUP2 MSTORE PUSH1 0x20 ADD PUSH1 0x0 KECCAK256 DUP2 SWAP1 SSTORE POP DUP2 PUSH1 0x6C PUSH1 0x0 DUP3 DUP3 SLOAD PUSH2 0x20D5 SWAP2 SWAP1 PUSH2 0x2B74 JUMP JUMPDEST SWAP3 POP POP DUP2 SWAP1 SSTORE POP POP POP POP JUMP JUMPDEST PUSH1 0x0 DUP3 PUSH20 0xFFFFFFFFFFFFFFFFFFFFFFFFFFFFFFFFFFFFFFFF AND DUP3 PUSH1 0x0 PUSH8 0xFFFFFFFFFFFFFFFF DUP2 GT ISZERO PUSH2 0x213C JUMPI PUSH32 0x4E487B7100000000000000000000000000000000000000000000000000000000 PUSH1 0x0 MSTORE PUSH1 0x41 PUSH1 0x4 MSTORE PUSH1 0x24 PUSH1 0x0 REVERT JUMPDEST PUSH1 0x40 MLOAD SWAP1 DUP1 DUP3 MSTORE DUP1 PUSH1 0x1F ADD PUSH1 0x1F NOT AND PUSH1 0x20 ADD DUP3 ADD PUSH1 0x40 MSTORE DUP1 ISZERO PUSH2 0x216E JUMPI DUP2 PUSH1 0x20 ADD PUSH1 0x1 DUP3 MUL DUP1 CALLDATASIZE DUP4 CALLDATACOPY DUP1 DUP3 ADD SWAP2 POP POP SWAP1 POP JUMPDEST POP PUSH1 0x40 MLOAD PUSH2 0x217C SWAP2 SWAP1 PUSH2 0x26D8 JUMP JUMPDEST PUSH1 0x0 PUSH1 0x40 MLOAD DUP1 DUP4 SUB DUP2 DUP6 DUP8 GAS CALL SWAP3 POP POP POP RETURNDATASIZE DUP1 PUSH1 0x0 DUP2 EQ PUSH2 0x21B9 JUMPI PUSH1 0x40 MLOAD SWAP2 POP PUSH1 0x1F NOT PUSH1 0x3F RETURNDATASIZE ADD AND DUP3 ADD PUSH1 0x40 MSTORE RETURNDATASIZE DUP3 MSTORE RETURNDATASIZE PUSH1 0x0 PUSH1 0x20 DUP5 ADD RETURNDATACOPY PUSH2 0x21BE JUMP JUMPDEST PUSH1 0x60 SWAP2 POP JUMPDEST POP POP SWAP1 POP DUP1 PUSH2 0x2202 JUMPI PUSH1 0x40 MLOAD PUSH32 0x8C379A000000000000000000000000000000000000000000000000000000000 DUP2 MSTORE PUSH1 0x4 ADD PUSH2 0x21F9 SWAP1 PUSH2 0x28FE JUMP JUMPDEST PUSH1 0x40 MLOAD DUP1 SWAP2 SUB SWAP1 REVERT JUMPDEST POP POP POP JUMP JUMPDEST PUSH1 0x0 PUSH1 0x1 SWAP1 SLOAD SWAP1 PUSH2 0x100 EXP SWAP1 DIV PUSH1 0xFF AND PUSH2 0x2256 JUMPI PUSH1 0x40 MLOAD PUSH32 0x8C379A000000000000000000000000000000000000000000000000000000000 DUP2 MSTORE PUSH1 0x4 ADD PUSH2 0x224D SWAP1 PUSH2 0x29BE JUMP JUMPDEST PUSH1 0x40 MLOAD DUP1 SWAP2 SUB SWAP1 REVERT JUMPDEST PUSH2 0x2266 PUSH2 0x2261 PUSH2 0x1DA9 JUMP JUMPDEST PUSH2 0x1C67 JUMP JUMPDEST JUMP JUMPDEST PUSH1 0x0 DUP2 CALLDATALOAD SWAP1 POP PUSH2 0x2277 DUP2 PUSH2 0x2F93 JUMP JUMPDEST SWAP3 SWAP2 POP POP JUMP JUMPDEST PUSH1 0x0 DUP2 CALLDATALOAD SWAP1 POP PUSH2 0x228C DUP2 PUSH2 0x2FAA JUMP JUMPDEST SWAP3 SWAP2 POP POP JUMP JUMPDEST PUSH1 0x0 DUP2 CALLDATALOAD SWAP1 POP PUSH2 0x22A1 DUP2 PUSH2 0x2FC1 JUMP JUMPDEST SWAP3 SWAP2 POP POP JUMP JUMPDEST PUSH1 0x0 DUP2 MLOAD SWAP1 POP PUSH2 0x22B6 DUP2 PUSH2 0x2FC1 JUMP JUMPDEST SWAP3 SWAP2 POP POP JUMP JUMPDEST PUSH1 0x0 PUSH1 0x20 DUP3 DUP5 SUB SLT ISZERO PUSH2 0x22CE JUMPI PUSH1 0x0 DUP1 REVERT JUMPDEST PUSH1 0x0 PUSH2 0x22DC DUP5 DUP3 DUP6 ADD PUSH2 0x2268 JUMP JUMPDEST SWAP2 POP POP SWAP3 SWAP2 POP POP JUMP JUMPDEST PUSH1 0x0 DUP1 PUSH1 0x0 DUP1 PUSH1 0x80 DUP6 DUP8 SUB SLT ISZERO PUSH2 0x22FB JUMPI PUSH1 0x0 DUP1 REVERT JUMPDEST PUSH1 0x0 PUSH2 0x2309 DUP8 DUP3 DUP9 ADD PUSH2 0x2268 JUMP JUMPDEST SWAP5 POP POP PUSH1 0x20 PUSH2 0x231A DUP8 DUP3 DUP9 ADD PUSH2 0x2268 JUMP JUMPDEST SWAP4 POP POP PUSH1 0x40 PUSH2 0x232B DUP8 DUP3 DUP9 ADD PUSH2 0x2292 JUMP JUMPDEST SWAP3 POP POP PUSH1 0x60 PUSH2 0x233C DUP8 DUP3 DUP9 ADD PUSH2 0x2292 JUMP JUMPDEST SWAP2 POP POP SWAP3 SWAP6 SWAP2 SWAP5 POP SWAP3 POP JUMP JUMPDEST PUSH1 0x0 DUP1 PUSH1 0x40 DUP4 DUP6 SUB SLT ISZERO PUSH2 0x235B JUMPI PUSH1 0x0 DUP1 REVERT JUMPDEST PUSH1 0x0 PUSH2 0x2369 DUP6 DUP3 DUP7 ADD PUSH2 0x2268 JUMP JUMPDEST SWAP3 POP POP PUSH1 0x20 PUSH2 0x237A DUP6 DUP3 DUP7 ADD PUSH2 0x227D JUMP JUMPDEST SWAP2 POP POP SWAP3 POP SWAP3 SWAP1 POP JUMP JUMPDEST PUSH1 0x0 DUP1 PUSH1 0x0 PUSH1 0x60 DUP5 DUP7 SUB SLT ISZERO PUSH2 0x2399 JUMPI PUSH1 0x0 DUP1 REVERT JUMPDEST PUSH1 0x0 PUSH2 0x23A7 DUP7 DUP3 DUP8 ADD PUSH2 0x2268 JUMP JUMPDEST SWAP4 POP POP PUSH1 0x20 PUSH2 0x23B8 DUP7 DUP3 DUP8 ADD PUSH2 0x2292 JUMP JUMPDEST SWAP3 POP POP PUSH1 0x40 PUSH2 0x23C9 DUP7 DUP3 DUP8 ADD PUSH2 0x2292 JUMP JUMPDEST SWAP2 POP POP SWAP3 POP SWAP3 POP SWAP3 JUMP JUMPDEST PUSH1 0x0 PUSH1 0x20 DUP3 DUP5 SUB SLT ISZERO PUSH2 0x23E5 JUMPI PUSH1 0x0 DUP1 REVERT JUMPDEST PUSH1 0x0 PUSH2 0x23F3 DUP5 DUP3 DUP6 ADD PUSH2 0x2292 JUMP JUMPDEST SWAP2 POP POP SWAP3 SWAP2 POP POP JUMP JUMPDEST PUSH1 0x0 PUSH1 0x20 DUP3 DUP5 SUB SLT ISZERO PUSH2 0x240E JUMPI PUSH1 0x0 DUP1 REVERT JUMPDEST PUSH1 0x0 PUSH2 0x241C DUP5 DUP3 DUP6 ADD PUSH2 0x22A7 JUMP JUMPDEST SWAP2 POP POP SWAP3 SWAP2 POP POP JUMP JUMPDEST PUSH1 0x0 DUP1 PUSH1 0x40 DUP4 DUP6 SUB SLT ISZERO PUSH2 0x2438 JUMPI PUSH1 0x0 DUP1 REVERT JUMPDEST PUSH1 0x0 PUSH2 0x2446 DUP6 DUP3 DUP7 ADD PUSH2 0x2292 JUMP JUMPDEST SWAP3 POP POP PUSH1 0x20 PUSH2 0x2457 DUP6 DUP3 DUP7 ADD PUSH2 0x2292 JUMP JUMPDEST SWAP2 POP POP SWAP3 POP SWAP3 SWAP1 POP JUMP JUMPDEST PUSH2 0x246A DUP2 PUSH2 0x2BA8 JUMP JUMPDEST DUP3 MSTORE POP POP JUMP JUMPDEST PUSH2 0x2479 DUP2 PUSH2 0x2BBA JUMP JUMPDEST DUP3 MSTORE POP POP JUMP JUMPDEST PUSH1 0x0 PUSH2 0x248A DUP3 PUSH2 0x2AA6 JUMP JUMPDEST PUSH2 0x2494 DUP2 DUP6 PUSH2 0x2ABC JUMP JUMPDEST SWAP4 POP PUSH2 0x24A4 DUP2 DUP6 PUSH1 0x20 DUP7 ADD PUSH2 0x2C3D JUMP JUMPDEST DUP1 DUP5 ADD SWAP2 POP POP SWAP3 SWAP2 POP POP JUMP JUMPDEST PUSH2 0x24B9 DUP2 PUSH2 0x2C19 JUMP JUMPDEST DUP3 MSTORE POP POP JUMP JUMPDEST PUSH2 0x24C8 DUP2 PUSH2 0x2C2B JUMP JUMPDEST DUP3 MSTORE POP POP JUMP JUMPDEST PUSH1 0x0 PUSH2 0x24D9 DUP3 PUSH2 0x2AB1 JUMP JUMPDEST PUSH2 0x24E3 DUP2 DUP6 PUSH2 0x2AC7 JUMP JUMPDEST SWAP4 POP PUSH2 0x24F3 DUP2 DUP6 PUSH1 0x20 DUP7 ADD PUSH2 0x2C3D JUMP JUMPDEST PUSH2 0x24FC DUP2 PUSH2 0x2CD8 JUMP JUMPDEST DUP5 ADD SWAP2 POP POP SWAP3 SWAP2 POP POP JUMP JUMPDEST PUSH1 0x0 PUSH2 0x2514 PUSH1 0x22 DUP4 PUSH2 0x2AC7 JUMP JUMPDEST SWAP2 POP PUSH2 0x251F DUP3 PUSH2 0x2CE9 JUMP JUMPDEST PUSH1 0x40 DUP3 ADD SWAP1 POP SWAP2 SWAP1 POP JUMP JUMPDEST PUSH1 0x0 PUSH2 0x2537 PUSH1 0x26 DUP4 PUSH2 0x2AC7 JUMP JUMPDEST SWAP2 POP PUSH2 0x2542 DUP3 PUSH2 0x2D38 JUMP JUMPDEST PUSH1 0x40 DUP3 ADD SWAP1 POP SWAP2 SWAP1 POP JUMP JUMPDEST PUSH1 0x0 PUSH2 0x255A PUSH1 0x2E DUP4 PUSH2 0x2AC7 JUMP JUMPDEST SWAP2 POP PUSH2 0x2565 DUP3 PUSH2 0x2D87 JUMP JUMPDEST PUSH1 0x40 DUP3 ADD SWAP1 POP SWAP2 SWAP1 POP JUMP JUMPDEST PUSH1 0x0 PUSH2 0x257D PUSH1 0x12 DUP4 PUSH2 0x2AC7 JUMP JUMPDEST SWAP2 POP PUSH2 0x2588 DUP3 PUSH2 0x2DD6 JUMP JUMPDEST PUSH1 0x20 DUP3 ADD SWAP1 POP SWAP2 SWAP1 POP JUMP JUMPDEST PUSH1 0x0 PUSH2 0x25A0 PUSH1 0x18 DUP4 PUSH2 0x2AC7 JUMP JUMPDEST SWAP2 POP PUSH2 0x25AB DUP3 PUSH2 0x2DFF JUMP JUMPDEST PUSH1 0x20 DUP3 ADD SWAP1 POP SWAP2 SWAP1 POP JUMP JUMPDEST PUSH1 0x0 PUSH2 0x25C3 PUSH1 0x20 DUP4 PUSH2 0x2AC7 JUMP JUMPDEST SWAP2 POP PUSH2 0x25CE DUP3 PUSH2 0x2E28 JUMP JUMPDEST PUSH1 0x20 DUP3 ADD SWAP1 POP SWAP2 SWAP1 POP JUMP JUMPDEST PUSH1 0x0 PUSH2 0x25E6 PUSH1 0x20 DUP4 PUSH2 0x2AC7 JUMP JUMPDEST SWAP2 POP PUSH2 0x25F1 DUP3 PUSH2 0x2E51 JUMP JUMPDEST PUSH1 0x20 DUP3 ADD SWAP1 POP SWAP2 SWAP1 POP JUMP JUMPDEST PUSH1 0x0 PUSH2 0x2609 PUSH1 0x1C DUP4 PUSH2 0x2AC7 JUMP JUMPDEST SWAP2 POP PUSH2 0x2614 DUP3 PUSH2 0x2E7A JUMP JUMPDEST PUSH1 0x20 DUP3 ADD SWAP1 POP SWAP2 SWAP1 POP JUMP JUMPDEST PUSH1 0x0 PUSH2 0x262C PUSH1 0x22 DUP4 PUSH2 0x2AC7 JUMP JUMPDEST SWAP2 POP PUSH2 0x2637 DUP3 PUSH2 0x2EA3 JUMP JUMPDEST PUSH1 0x40 DUP3 ADD SWAP1 POP SWAP2 SWAP1 POP JUMP JUMPDEST PUSH1 0x0 PUSH2 0x264F PUSH1 0x2B DUP4 PUSH2 0x2AC7 JUMP JUMPDEST SWAP2 POP PUSH2 0x265A DUP3 PUSH2 0x2EF2 JUMP JUMPDEST PUSH1 0x40 DUP3 ADD SWAP1 POP SWAP2 SWAP1 POP JUMP JUMPDEST PUSH1 0x0 PUSH2 0x2672 PUSH1 0x1A DUP4 PUSH2 0x2AC7 JUMP JUMPDEST SWAP2 POP PUSH2 0x267D DUP3 PUSH2 0x2F41 JUMP JUMPDEST PUSH1 0x20 DUP3 ADD SWAP1 POP SWAP2 SWAP1 POP JUMP JUMPDEST PUSH1 0x0 PUSH2 0x2695 PUSH1 0x1B DUP4 PUSH2 0x2AC7 JUMP JUMPDEST SWAP2 POP PUSH2 0x26A0 DUP3 PUSH2 0x2F6A JUMP JUMPDEST PUSH1 0x20 DUP3 ADD SWAP1 POP SWAP2 SWAP1 POP JUMP JUMPDEST PUSH2 0x26B4 DUP2 PUSH2 0x2BC6 JUMP JUMPDEST DUP3 MSTORE POP POP JUMP JUMPDEST PUSH2 0x26C3 DUP2 PUSH2 0x2C02 JUMP JUMPDEST DUP3 MSTORE POP POP JUMP JUMPDEST PUSH2 0x26D2 DUP2 PUSH2 0x2C0C JUMP JUMPDEST DUP3 MSTORE POP POP JUMP JUMPDEST PUSH1 0x0 PUSH2 0x26E4 DUP3 DUP5 PUSH2 0x247F JUMP JUMPDEST SWAP2 POP DUP2 SWAP1 POP SWAP3 SWAP2 POP POP JUMP JUMPDEST PUSH1 0x0 PUSH1 0x20 DUP3 ADD SWAP1 POP PUSH2 0x2704 PUSH1 0x0 DUP4 ADD DUP5 PUSH2 0x2461 JUMP JUMPDEST SWAP3 SWAP2 POP POP JUMP JUMPDEST PUSH1 0x0 PUSH1 0x60 DUP3 ADD SWAP1 POP PUSH2 0x271F PUSH1 0x0 DUP4 ADD DUP7 PUSH2 0x2461 JUMP JUMPDEST PUSH2 0x272C PUSH1 0x20 DUP4 ADD DUP6 PUSH2 0x2461 JUMP JUMPDEST PUSH2 0x2739 PUSH1 0x40 DUP4 ADD DUP5 PUSH2 0x26BA JUMP JUMPDEST SWAP5 SWAP4 POP POP POP POP JUMP JUMPDEST PUSH1 0x0 PUSH1 0x40 DUP3 ADD SWAP1 POP PUSH2 0x2756 PUSH1 0x0 DUP4 ADD DUP6 PUSH2 0x2461 JUMP JUMPDEST PUSH2 0x2763 PUSH1 0x20 DUP4 ADD DUP5 PUSH2 0x2470 JUMP JUMPDEST SWAP4 SWAP3 POP POP POP JUMP JUMPDEST PUSH1 0x0 PUSH1 0x40 DUP3 ADD SWAP1 POP PUSH2 0x277F PUSH1 0x0 DUP4 ADD DUP6 PUSH2 0x2461 JUMP JUMPDEST PUSH2 0x278C PUSH1 0x20 DUP4 ADD DUP5 PUSH2 0x24B0 JUMP JUMPDEST SWAP4 SWAP3 POP POP POP JUMP JUMPDEST PUSH1 0x0 PUSH1 0x40 DUP3 ADD SWAP1 POP PUSH2 0x27A8 PUSH1 0x0 DUP4 ADD DUP6 PUSH2 0x2461 JUMP JUMPDEST PUSH2 0x27B5 PUSH1 0x20 DUP4 ADD DUP5 PUSH2 0x26BA JUMP JUMPDEST SWAP4 SWAP3 POP POP POP JUMP JUMPDEST PUSH1 0x0 PUSH1 0x60 DUP3 ADD SWAP1 POP PUSH2 0x27D1 PUSH1 0x0 DUP4 ADD DUP7 PUSH2 0x2461 JUMP JUMPDEST PUSH2 0x27DE PUSH1 0x20 DUP4 ADD DUP6 PUSH2 0x26BA JUMP JUMPDEST PUSH2 0x27EB PUSH1 0x40 DUP4 ADD DUP5 PUSH2 0x26BA JUMP JUMPDEST SWAP5 SWAP4 POP POP POP POP JUMP JUMPDEST PUSH1 0x0 PUSH1 0x20 DUP3 ADD SWAP1 POP PUSH2 0x2808 PUSH1 0x0 DUP4 ADD DUP5 PUSH2 0x2470 JUMP JUMPDEST SWAP3 SWAP2 POP POP JUMP JUMPDEST PUSH1 0x0 PUSH1 0xA0 DUP3 ADD SWAP1 POP PUSH2 0x2823 PUSH1 0x0 DUP4 ADD DUP9 PUSH2 0x2470 JUMP JUMPDEST PUSH2 0x2830 PUSH1 0x20 DUP4 ADD DUP8 PUSH2 0x2461 JUMP JUMPDEST PUSH2 0x283D PUSH1 0x40 DUP4 ADD DUP7 PUSH2 0x2461 JUMP JUMPDEST PUSH2 0x284A PUSH1 0x60 DUP4 ADD DUP6 PUSH2 0x26BA JUMP JUMPDEST PUSH2 0x2857 PUSH1 0x80 DUP4 ADD DUP5 PUSH2 0x26BA JUMP JUMPDEST SWAP7 SWAP6 POP POP POP POP POP POP JUMP JUMPDEST PUSH1 0x0 PUSH1 0x20 DUP3 ADD SWAP1 POP PUSH2 0x2876 PUSH1 0x0 DUP4 ADD DUP5 PUSH2 0x24BF JUMP JUMPDEST SWAP3 SWAP2 POP POP JUMP JUMPDEST PUSH1 0x0 PUSH1 0x20 DUP3 ADD SWAP1 POP DUP2 DUP2 SUB PUSH1 0x0 DUP4 ADD MSTORE PUSH2 0x2896 DUP2 DUP5 PUSH2 0x24CE JUMP JUMPDEST SWAP1 POP SWAP3 SWAP2 POP POP JUMP JUMPDEST PUSH1 0x0 PUSH1 0x20 DUP3 ADD SWAP1 POP DUP2 DUP2 SUB PUSH1 0x0 DUP4 ADD MSTORE PUSH2 0x28B7 DUP2 PUSH2 0x2507 JUMP JUMPDEST SWAP1 POP SWAP2 SWAP1 POP JUMP JUMPDEST PUSH1 0x0 PUSH1 0x20 DUP3 ADD SWAP1 POP DUP2 DUP2 SUB PUSH1 0x0 DUP4 ADD MSTORE PUSH2 0x28D7 DUP2 PUSH2 0x252A JUMP JUMPDEST SWAP1 POP SWAP2 SWAP1 POP JUMP JUMPDEST PUSH1 0x0 PUSH1 0x20 DUP3 ADD SWAP1 POP DUP2 DUP2 SUB PUSH1 0x0 DUP4 ADD MSTORE PUSH2 0x28F7 DUP2 PUSH2 0x254D JUMP JUMPDEST SWAP1 POP SWAP2 SWAP1 POP JUMP JUMPDEST PUSH1 0x0 PUSH1 0x20 DUP3 ADD SWAP1 POP DUP2 DUP2 SUB PUSH1 0x0 DUP4 ADD MSTORE PUSH2 0x2917 DUP2 PUSH2 0x2570 JUMP JUMPDEST SWAP1 POP SWAP2 SWAP1 POP JUMP JUMPDEST PUSH1 0x0 PUSH1 0x20 DUP3 ADD SWAP1 POP DUP2 DUP2 SUB PUSH1 0x0 DUP4 ADD MSTORE PUSH2 0x2937 DUP2 PUSH2 0x2593 JUMP JUMPDEST SWAP1 POP SWAP2 SWAP1 POP JUMP JUMPDEST PUSH1 0x0 PUSH1 0x20 DUP3 ADD SWAP1 POP DUP2 DUP2 SUB PUSH1 0x0 DUP4 ADD MSTORE PUSH2 0x2957 DUP2 PUSH2 0x25B6 JUMP JUMPDEST SWAP1 POP SWAP2 SWAP1 POP JUMP JUMPDEST PUSH1 0x0 PUSH1 0x20 DUP3 ADD SWAP1 POP DUP2 DUP2 SUB PUSH1 0x0 DUP4 ADD MSTORE PUSH2 0x2977 DUP2 PUSH2 0x25D9 JUMP JUMPDEST SWAP1 POP SWAP2 SWAP1 POP JUMP JUMPDEST PUSH1 0x0 PUSH1 0x20 DUP3 ADD SWAP1 POP DUP2 DUP2 SUB PUSH1 0x0 DUP4 ADD MSTORE PUSH2 0x2997 DUP2 PUSH2 0x25FC JUMP JUMPDEST SWAP1 POP SWAP2 SWAP1 POP JUMP JUMPDEST PUSH1 0x0 PUSH1 0x20 DUP3 ADD SWAP1 POP DUP2 DUP2 SUB PUSH1 0x0 DUP4 ADD MSTORE PUSH2 0x29B7 DUP2 PUSH2 0x261F JUMP JUMPDEST SWAP1 POP SWAP2 SWAP1 POP JUMP JUMPDEST PUSH1 0x0 PUSH1 0x20 DUP3 ADD SWAP1 POP DUP2 DUP2 SUB PUSH1 0x0 DUP4 ADD MSTORE PUSH2 0x29D7 DUP2 PUSH2 0x2642 JUMP JUMPDEST SWAP1 POP SWAP2 SWAP1 POP JUMP JUMPDEST PUSH1 0x0 PUSH1 0x20 DUP3 ADD SWAP1 POP DUP2 DUP2 SUB PUSH1 0x0 DUP4 ADD MSTORE PUSH2 0x29F7 DUP2 PUSH2 0x2665 JUMP JUMPDEST SWAP1 POP SWAP2 SWAP1 POP JUMP JUMPDEST PUSH1 0x0 PUSH1 0x20 DUP3 ADD SWAP1 POP DUP2 DUP2 SUB PUSH1 0x0 DUP4 ADD MSTORE PUSH2 0x2A17 DUP2 PUSH2 0x2688 JUMP JUMPDEST SWAP1 POP SWAP2 SWAP1 POP JUMP JUMPDEST PUSH1 0x0 PUSH1 0x40 DUP3 ADD SWAP1 POP PUSH2 0x2A33 PUSH1 0x0 DUP4 ADD DUP6 PUSH2 0x26AB JUMP JUMPDEST PUSH2 0x2A40 PUSH1 0x20 DUP4 ADD DUP5 PUSH2 0x26AB JUMP JUMPDEST SWAP4 SWAP3 POP POP POP JUMP JUMPDEST PUSH1 0x0 PUSH1 0x20 DUP3 ADD SWAP1 POP PUSH2 0x2A5C PUSH1 0x0 DUP4 ADD DUP5 PUSH2 0x26BA JUMP JUMPDEST SWAP3 SWAP2 POP POP JUMP JUMPDEST PUSH1 0x0 PUSH1 0x40 DUP3 ADD SWAP1 POP PUSH2 0x2A77 PUSH1 0x0 DUP4 ADD DUP6 PUSH2 0x26BA JUMP JUMPDEST PUSH2 0x2A84 PUSH1 0x20 DUP4 ADD DUP5 PUSH2 0x26BA JUMP JUMPDEST SWAP4 SWAP3 POP POP POP JUMP JUMPDEST PUSH1 0x0 PUSH1 0x20 DUP3 ADD SWAP1 POP PUSH2 0x2AA0 PUSH1 0x0 DUP4 ADD DUP5 PUSH2 0x26C9 JUMP JUMPDEST SWAP3 SWAP2 POP POP JUMP JUMPDEST PUSH1 0x0 DUP2 MLOAD SWAP1 POP SWAP2 SWAP1 POP JUMP JUMPDEST PUSH1 0x0 DUP2 MLOAD SWAP1 POP SWAP2 SWAP1 POP JUMP JUMPDEST PUSH1 0x0 DUP2 SWAP1 POP SWAP3 SWAP2 POP POP JUMP JUMPDEST PUSH1 0x0 DUP3 DUP3 MSTORE PUSH1 0x20 DUP3 ADD SWAP1 POP SWAP3 SWAP2 POP POP JUMP JUMPDEST PUSH1 0x0 PUSH2 0x2AE3 DUP3 PUSH2 0x2BC6 JUMP JUMPDEST SWAP2 POP PUSH2 0x2AEE DUP4 PUSH2 0x2BC6 JUMP JUMPDEST SWAP3 POP DUP3 PUSH16 0xFFFFFFFFFFFFFFFFFFFFFFFFFFFFFFFF SUB DUP3 GT ISZERO PUSH2 0x2B13 JUMPI PUSH2 0x2B12 PUSH2 0x2CA9 JUMP JUMPDEST JUMPDEST DUP3 DUP3 ADD SWAP1 POP SWAP3 SWAP2 POP POP JUMP JUMPDEST PUSH1 0x0 PUSH2 0x2B29 DUP3 PUSH2 0x2C02 JUMP JUMPDEST SWAP2 POP PUSH2 0x2B34 DUP4 PUSH2 0x2C02 JUMP JUMPDEST SWAP3 POP DUP3 PUSH32 0xFFFFFFFFFFFFFFFFFFFFFFFFFFFFFFFFFFFFFFFFFFFFFFFFFFFFFFFFFFFFFFFF SUB DUP3 GT ISZERO PUSH2 0x2B69 JUMPI PUSH2 0x2B68 PUSH2 0x2CA9 JUMP JUMPDEST JUMPDEST DUP3 DUP3 ADD SWAP1 POP SWAP3 SWAP2 POP POP JUMP JUMPDEST PUSH1 0x0 PUSH2 0x2B7F DUP3 PUSH2 0x2C02 JUMP JUMPDEST SWAP2 POP PUSH2 0x2B8A DUP4 PUSH2 0x2C02 JUMP JUMPDEST SWAP3 POP DUP3 DUP3 LT ISZERO PUSH2 0x2B9D JUMPI PUSH2 0x2B9C PUSH2 0x2CA9 JUMP JUMPDEST JUMPDEST DUP3 DUP3 SUB SWAP1 POP SWAP3 SWAP2 POP POP JUMP JUMPDEST PUSH1 0x0 PUSH2 0x2BB3 DUP3 PUSH2 0x2BE2 JUMP JUMPDEST SWAP1 POP SWAP2 SWAP1 POP JUMP JUMPDEST PUSH1 0x0 DUP2 ISZERO ISZERO SWAP1 POP SWAP2 SWAP1 POP JUMP JUMPDEST PUSH1 0x0 PUSH16 0xFFFFFFFFFFFFFFFFFFFFFFFFFFFFFFFF DUP3 AND SWAP1 POP SWAP2 SWAP1 POP JUMP JUMPDEST PUSH1 0x0 PUSH20 0xFFFFFFFFFFFFFFFFFFFFFFFFFFFFFFFFFFFFFFFF DUP3 AND SWAP1 POP SWAP2 SWAP1 POP JUMP JUMPDEST PUSH1 0x0 DUP2 SWAP1 POP SWAP2 SWAP1 POP JUMP JUMPDEST PUSH1 0x0 PUSH1 0xFF DUP3 AND SWAP1 POP SWAP2 SWAP1 POP JUMP JUMPDEST PUSH1 0x0 PUSH2 0x2C24 DUP3 PUSH2 0x2C02 JUMP JUMPDEST SWAP1 POP SWAP2 SWAP1 POP JUMP JUMPDEST PUSH1 0x0 PUSH2 0x2C36 DUP3 PUSH2 0x2C0C JUMP JUMPDEST SWAP1 POP SWAP2 SWAP1 POP JUMP JUMPDEST PUSH1 0x0 JUMPDEST DUP4 DUP2 LT ISZERO PUSH2 0x2C5B JUMPI DUP1 DUP3 ADD MLOAD DUP2 DUP5 ADD MSTORE PUSH1 0x20 DUP2 ADD SWAP1 POP PUSH2 0x2C40 JUMP JUMPDEST DUP4 DUP2 GT ISZERO PUSH2 0x2C6A JUMPI PUSH1 0x0 DUP5 DUP5 ADD MSTORE JUMPDEST POP POP POP POP JUMP JUMPDEST PUSH1 0x0 PUSH2 0x2C7B DUP3 PUSH2 0x2BC6 JUMP JUMPDEST SWAP2 POP PUSH16 0xFFFFFFFFFFFFFFFFFFFFFFFFFFFFFFFF DUP3 EQ ISZERO PUSH2 0x2C9E JUMPI PUSH2 0x2C9D PUSH2 0x2CA9 JUMP JUMPDEST JUMPDEST PUSH1 0x1 DUP3 ADD SWAP1 POP SWAP2 SWAP1 POP JUMP JUMPDEST PUSH32 0x4E487B7100000000000000000000000000000000000000000000000000000000 PUSH1 0x0 MSTORE PUSH1 0x11 PUSH1 0x4 MSTORE PUSH1 0x24 PUSH1 0x0 REVERT JUMPDEST PUSH1 0x0 PUSH1 0x1F NOT PUSH1 0x1F DUP4 ADD AND SWAP1 POP SWAP2 SWAP1 POP JUMP JUMPDEST PUSH32 0x45524332303A206275726E20616D6F756E7420657863656564732062616C616E PUSH1 0x0 DUP3 ADD MSTORE PUSH32 0x6365000000000000000000000000000000000000000000000000000000000000 PUSH1 0x20 DUP3 ADD MSTORE POP JUMP JUMPDEST PUSH32 0x4F776E61626C653A206E6577206F776E657220697320746865207A65726F2061 PUSH1 0x0 DUP3 ADD MSTORE PUSH32 0x6464726573730000000000000000000000000000000000000000000000000000 PUSH1 0x20 DUP3 ADD MSTORE POP JUMP JUMPDEST PUSH32 0x496E697469616C697A61626C653A20636F6E747261637420697320616C726561 PUSH1 0x0 DUP3 ADD MSTORE PUSH32 0x647920696E697469616C697A6564000000000000000000000000000000000000 PUSH1 0x20 DUP3 ADD MSTORE POP JUMP JUMPDEST PUSH32 0x21736166655472616E7366657245564D4F530000000000000000000000000000 PUSH1 0x0 DUP3 ADD MSTORE POP JUMP JUMPDEST PUSH32 0x7545564D4F53204B696C6C3A205374696C6C20736166652E0000000000000000 PUSH1 0x0 DUP3 ADD MSTORE POP JUMP JUMPDEST PUSH32 0x4F776E61626C653A2063616C6C6572206973206E6F7420746865206F776E6572 PUSH1 0x0 DUP3 ADD MSTORE POP JUMP JUMPDEST PUSH32 0x7545564D4F533A206D696E7420746F20746865207A65726F2061646472657373 PUSH1 0x0 DUP3 ADD MSTORE POP JUMP JUMPDEST PUSH32 0x6D696E744C6F636B6564546F6B656E3A20616D6F756E74203C3D203000000000 PUSH1 0x0 DUP3 ADD MSTORE POP JUMP JUMPDEST PUSH32 0x7545564D4F533A206275726E2066726F6D20746865207A65726F206164647265 PUSH1 0x0 DUP3 ADD MSTORE PUSH32 0x7373000000000000000000000000000000000000000000000000000000000000 PUSH1 0x20 DUP3 ADD MSTORE POP JUMP JUMPDEST PUSH32 0x496E697469616C697A61626C653A20636F6E7472616374206973206E6F742069 PUSH1 0x0 DUP3 ADD MSTORE PUSH32 0x6E697469616C697A696E67000000000000000000000000000000000000000000 PUSH1 0x20 DUP3 ADD MSTORE POP JUMP JUMPDEST PUSH32 0x556E626F6E64656445766D6F733A204E6F74206D696E7465722E000000000000 PUSH1 0x0 DUP3 ADD MSTORE POP JUMP JUMPDEST PUSH32 0x7545564D4F53204B696C6C3A2043616E6E6F7420556E6C6F636B2E0000000000 PUSH1 0x0 DUP3 ADD MSTORE POP JUMP JUMPDEST PUSH2 0x2F9C DUP2 PUSH2 0x2BA8 JUMP JUMPDEST DUP2 EQ PUSH2 0x2FA7 JUMPI PUSH1 0x0 DUP1 REVERT JUMPDEST POP JUMP JUMPDEST PUSH2 0x2FB3 DUP2 PUSH2 0x2BBA JUMP JUMPDEST DUP2 EQ PUSH2 0x2FBE JUMPI PUSH1 0x0 DUP1 REVERT JUMPDEST POP JUMP JUMPDEST PUSH2 0x2FCA DUP2 PUSH2 0x2C02 JUMP JUMPDEST DUP2 EQ PUSH2 0x2FD5 JUMPI PUSH1 0x0 DUP1 REVERT JUMPDEST POP JUMP INVALID LOG2 PUSH5 0x6970667358 0x22 SLT KECCAK256 0xDD PUSH6 0x6A87C1B737FE PUSH10 0x94B07B88C6D33C6EAE9F 0xA7 SIGNEXTEND RETURNDATACOPY LOG0 0xEC 0xC0 PUSH32 0x27B2873D8B1164736F6C63430008040033000000000000000000000000000000 "
        },
        "gasEstimates": {
          "creation": {
            "codeDepositCost": "2460400",
            "executionCost": "2650",
            "totalCost": "2463050"
          },
          "external": {
            "": "219",
            "__UnbondedEvmos_init(address,uint256,uint256)": "infinite",
            "balanceOf(address)": "1630",
            "decimals()": "447",
            "getUnlockable(address)": "infinite",
            "isKillable(uint256)": "infinite",
            "isMinter(address)": "1656",
            "kill(uint256)": "infinite",
            "killFactorBps()": "1219",
            "liquidateFeeBps()": "1261",
            "lockedOf(address)": "infinite",
            "locks(uint256)": "infinite",
            "locksLength()": "1152",
            "mintLockedToken(address,address,uint256,uint256)": "infinite",
            "name()": "infinite",
            "owner()": "1245",
            "renounceOwnership()": "24509",
            "supplyUnbondedToken()": "164",
            "symbol()": "infinite",
            "totalSupply()": "1197",
            "transferOwnership(address)": "24835",
            "unlock(uint256)": "infinite",
            "updateConfigs(uint256,uint256)": "infinite",
            "updateMinterStatus(address,bool)": "infinite"
          },
          "internal": {
            "_burn(address,uint256)": "infinite",
            "_mint(address,uint256)": "infinite",
            "_repayPendingDebt(address,address,uint256,uint256)": "infinite",
            "_unlock(address,struct UnbondedEvmos.LockedQueue storage pointer,uint256)": "infinite"
          }
        },
        "methodIdentifiers": {
          "__UnbondedEvmos_init(address,uint256,uint256)": "7bf52bd7",
          "balanceOf(address)": "70a08231",
          "decimals()": "313ce567",
          "getUnlockable(address)": "c8630178",
          "isKillable(uint256)": "97e7381e",
          "isMinter(address)": "aa271e1a",
          "kill(uint256)": "d29a0025",
          "killFactorBps()": "28f55a6c",
          "liquidateFeeBps()": "ffae6156",
          "lockedOf(address)": "a5f1e282",
          "locks(uint256)": "f4dadc61",
          "locksLength()": "5bfc5a6e",
          "mintLockedToken(address,address,uint256,uint256)": "633235d0",
          "name()": "06fdde03",
          "owner()": "8da5cb5b",
          "renounceOwnership()": "715018a6",
          "supplyUnbondedToken()": "e158c1ac",
          "symbol()": "95d89b41",
          "totalSupply()": "18160ddd",
          "transferOwnership(address)": "f2fde38b",
          "unlock(uint256)": "6198e339",
          "updateConfigs(uint256,uint256)": "00dbccc6",
          "updateMinterStatus(address,bool)": "efc8f3c8"
        }
      },
      "storageLayout": {
        "storage": [
          {
            "astId": 570,
            "contract": "contracts/token/UnbondedEvmos.sol:UnbondedEvmos",
            "label": "_initialized",
            "offset": 0,
            "slot": "0",
            "type": "t_uint8"
          },
          {
            "astId": 573,
            "contract": "contracts/token/UnbondedEvmos.sol:UnbondedEvmos",
            "label": "_initializing",
            "offset": 1,
            "slot": "0",
            "type": "t_bool"
          },
          {
            "astId": 562,
            "contract": "contracts/token/UnbondedEvmos.sol:UnbondedEvmos",
            "label": "__gap",
            "offset": 0,
            "slot": "1",
            "type": "t_array(t_uint256)50_storage"
          },
          {
            "astId": 725,
            "contract": "contracts/token/UnbondedEvmos.sol:UnbondedEvmos",
            "label": "_owner",
            "offset": 0,
            "slot": "51",
            "type": "t_address"
          },
          {
            "astId": 845,
            "contract": "contracts/token/UnbondedEvmos.sol:UnbondedEvmos",
            "label": "__gap",
            "offset": 0,
            "slot": "52",
            "type": "t_array(t_uint256)49_storage"
          },
          {
            "astId": 1059,
            "contract": "contracts/token/UnbondedEvmos.sol:UnbondedEvmos",
            "label": "isMinter",
            "offset": 0,
            "slot": "101",
            "type": "t_mapping(t_address,t_bool)"
          },
          {
            "astId": 1071,
            "contract": "contracts/token/UnbondedEvmos.sol:UnbondedEvmos",
            "label": "killFactorBps",
            "offset": 0,
            "slot": "102",
            "type": "t_uint256"
          },
          {
            "astId": 1073,
            "contract": "contracts/token/UnbondedEvmos.sol:UnbondedEvmos",
            "label": "liquidateFeeBps",
            "offset": 0,
            "slot": "103",
            "type": "t_uint256"
          },
          {
            "astId": 1088,
            "contract": "contracts/token/UnbondedEvmos.sol:UnbondedEvmos",
            "label": "locks",
            "offset": 0,
            "slot": "104",
            "type": "t_array(t_struct(Locked)1084_storage)dyn_storage"
          },
          {
            "astId": 1090,
            "contract": "contracts/token/UnbondedEvmos.sol:UnbondedEvmos",
            "label": "locksLength",
            "offset": 0,
            "slot": "105",
            "type": "t_uint256"
          },
          {
            "astId": 1103,
            "contract": "contracts/token/UnbondedEvmos.sol:UnbondedEvmos",
            "label": "lockedOf",
            "offset": 0,
            "slot": "106",
            "type": "t_mapping(t_address,t_struct(LockedQueue)1098_storage)"
          },
          {
            "astId": 1107,
            "contract": "contracts/token/UnbondedEvmos.sol:UnbondedEvmos",
            "label": "_balances",
            "offset": 0,
            "slot": "107",
            "type": "t_mapping(t_address,t_uint256)"
          },
          {
            "astId": 1110,
            "contract": "contracts/token/UnbondedEvmos.sol:UnbondedEvmos",
            "label": "totalSupply",
            "offset": 0,
            "slot": "108",
            "type": "t_uint256"
          }
        ],
        "types": {
          "t_address": {
            "encoding": "inplace",
            "label": "address",
            "numberOfBytes": "20"
          },
          "t_array(t_struct(Locked)1084_storage)dyn_storage": {
            "base": "t_struct(Locked)1084_storage",
            "encoding": "dynamic_array",
            "label": "struct UnbondedEvmos.Locked[]",
            "numberOfBytes": "32"
          },
          "t_array(t_uint256)49_storage": {
            "base": "t_uint256",
            "encoding": "inplace",
            "label": "uint256[49]",
            "numberOfBytes": "1568"
          },
          "t_array(t_uint256)50_storage": {
            "base": "t_uint256",
            "encoding": "inplace",
            "label": "uint256[50]",
            "numberOfBytes": "1600"
          },
          "t_array(t_uint256)dyn_storage": {
            "base": "t_uint256",
            "encoding": "dynamic_array",
            "label": "uint256[]",
            "numberOfBytes": "32"
          },
          "t_bool": {
            "encoding": "inplace",
            "label": "bool",
            "numberOfBytes": "1"
          },
          "t_mapping(t_address,t_bool)": {
            "encoding": "mapping",
            "key": "t_address",
            "label": "mapping(address => bool)",
            "numberOfBytes": "32",
            "value": "t_bool"
          },
          "t_mapping(t_address,t_struct(LockedQueue)1098_storage)": {
            "encoding": "mapping",
            "key": "t_address",
            "label": "mapping(address => struct UnbondedEvmos.LockedQueue)",
            "numberOfBytes": "32",
            "value": "t_struct(LockedQueue)1098_storage"
          },
          "t_mapping(t_address,t_uint256)": {
            "encoding": "mapping",
            "key": "t_address",
            "label": "mapping(address => uint256)",
            "numberOfBytes": "32",
            "value": "t_uint256"
          },
          "t_struct(Locked)1084_storage": {
            "encoding": "inplace",
            "label": "struct UnbondedEvmos.Locked",
            "members": [
              {
                "astId": 1075,
                "contract": "contracts/token/UnbondedEvmos.sol:UnbondedEvmos",
                "label": "received",
                "offset": 0,
                "slot": "0",
                "type": "t_bool"
              },
              {
                "astId": 1077,
                "contract": "contracts/token/UnbondedEvmos.sol:UnbondedEvmos",
                "label": "account",
                "offset": 1,
                "slot": "0",
                "type": "t_address"
              },
              {
                "astId": 1079,
                "contract": "contracts/token/UnbondedEvmos.sol:UnbondedEvmos",
                "label": "vault",
                "offset": 0,
                "slot": "1",
                "type": "t_address"
              },
              {
                "astId": 1081,
                "contract": "contracts/token/UnbondedEvmos.sol:UnbondedEvmos",
                "label": "amount",
                "offset": 0,
                "slot": "2",
                "type": "t_uint256"
              },
              {
                "astId": 1083,
                "contract": "contracts/token/UnbondedEvmos.sol:UnbondedEvmos",
                "label": "unlockedAt",
                "offset": 0,
                "slot": "3",
                "type": "t_uint256"
              }
            ],
            "numberOfBytes": "128"
          },
          "t_struct(LockedQueue)1098_storage": {
            "encoding": "inplace",
            "label": "struct UnbondedEvmos.LockedQueue",
            "members": [
              {
                "astId": 1092,
                "contract": "contracts/token/UnbondedEvmos.sol:UnbondedEvmos",
                "label": "front",
                "offset": 0,
                "slot": "0",
                "type": "t_uint128"
              },
              {
                "astId": 1094,
                "contract": "contracts/token/UnbondedEvmos.sol:UnbondedEvmos",
                "label": "rear",
                "offset": 16,
                "slot": "0",
                "type": "t_uint128"
              },
              {
                "astId": 1097,
                "contract": "contracts/token/UnbondedEvmos.sol:UnbondedEvmos",
                "label": "lockedIds",
                "offset": 0,
                "slot": "1",
                "type": "t_array(t_uint256)dyn_storage"
              }
            ],
            "numberOfBytes": "64"
          },
          "t_uint128": {
            "encoding": "inplace",
            "label": "uint128",
            "numberOfBytes": "16"
          },
          "t_uint256": {
            "encoding": "inplace",
            "label": "uint256",
            "numberOfBytes": "32"
          },
          "t_uint8": {
            "encoding": "inplace",
            "label": "uint8",
            "numberOfBytes": "1"
          }
        }
      },
      "userdoc": {
        "kind": "user",
        "methods": {
          "isKillable(uint256)": {
            "notice": "TODO kor) 유저가 일부만 unstake 요청하는 경우, 빚을 다 못 갚는 경우가 당연히 발생한다. 일단 부채비율이 100% 넘기는 경우 우리가 unlock 시키는 것만 구현."
          },
          "killFactorBps()": {
            "notice": "kor) 필요 없을 수 있다."
          }
        },
        "version": 1
      }
    }
  }
}