{
  "contracts/mock/MockSwap.sol": {
    "MockSwap": {
      "abi": [
        {
          "inputs": [
            {
              "internalType": "address[]",
              "name": "tokens",
              "type": "address[]"
            }
          ],
          "stateMutability": "nonpayable",
          "type": "constructor"
        },
        {
          "inputs": [
            {
              "internalType": "address",
              "name": "tokenX",
              "type": "address"
            },
            {
              "internalType": "address",
              "name": "tokenY",
              "type": "address"
            },
            {
              "internalType": "uint256",
              "name": "dx",
              "type": "uint256"
            },
            {
              "internalType": "uint256",
              "name": "",
              "type": "uint256"
            }
          ],
          "name": "exchange",
          "outputs": [
            {
              "internalType": "uint256",
              "name": "dy",
              "type": "uint256"
            }
          ],
          "stateMutability": "payable",
          "type": "function"
        },
        {
          "inputs": [
            {
              "internalType": "address",
              "name": "tokenX",
              "type": "address"
            },
            {
              "internalType": "address",
              "name": "tokenY",
              "type": "address"
            },
            {
              "internalType": "uint256",
              "name": "dy",
              "type": "uint256"
            }
          ],
          "name": "getDx",
          "outputs": [
            {
              "internalType": "uint256",
              "name": "",
              "type": "uint256"
            }
          ],
          "stateMutability": "pure",
          "type": "function"
        },
        {
          "inputs": [
            {
              "internalType": "address",
              "name": "tokenX",
              "type": "address"
            },
            {
              "internalType": "address",
              "name": "tokenY",
              "type": "address"
            },
            {
              "internalType": "uint256",
              "name": "dx",
              "type": "uint256"
            }
          ],
          "name": "getDy",
          "outputs": [
            {
              "internalType": "uint256",
              "name": "",
              "type": "uint256"
            }
          ],
          "stateMutability": "pure",
          "type": "function"
        },
        {
          "inputs": [
            {
              "internalType": "address",
              "name": "",
              "type": "address"
            }
          ],
          "name": "isSupported",
          "outputs": [
            {
              "internalType": "bool",
              "name": "",
              "type": "bool"
            }
          ],
          "stateMutability": "view",
          "type": "function"
        }
      ],
      "evm": {
        "bytecode": {
          "linkReferences": {},
          "object": "60806040523480156200001157600080fd5b50604051620010ba380380620010ba8339818101604052810190620000379190620001b3565b60005b8151811015620000f257600160008084848151811062000083577f4e487b7100000000000000000000000000000000000000000000000000000000600052603260045260246000fd5b602002602001015173ffffffffffffffffffffffffffffffffffffffff1673ffffffffffffffffffffffffffffffffffffffff16815260200190815260200160002060006101000a81548160ff0219169083151502179055508080620000e990620002c4565b9150506200003a565b50506200039b565b6000620001116200010b8462000221565b620001f8565b905080838252602082019050828560208602820111156200013157600080fd5b60005b858110156200016557816200014a88826200016f565b84526020840193506020830192505060018101905062000134565b5050509392505050565b600081519050620001808162000381565b92915050565b600082601f8301126200019857600080fd5b8151620001aa848260208601620000fa565b91505092915050565b600060208284031215620001c657600080fd5b600082015167ffffffffffffffff811115620001e157600080fd5b620001ef8482850162000186565b91505092915050565b60006200020462000217565b90506200021282826200028e565b919050565b6000604051905090565b600067ffffffffffffffff8211156200023f576200023e62000341565b5b602082029050602081019050919050565b60006200025d8262000264565b9050919050565b600073ffffffffffffffffffffffffffffffffffffffff82169050919050565b6000819050919050565b620002998262000370565b810181811067ffffffffffffffff82111715620002bb57620002ba62000341565b5b80604052505050565b6000620002d18262000284565b91507fffffffffffffffffffffffffffffffffffffffffffffffffffffffffffffffff82141562000307576200030662000312565b5b600182019050919050565b7f4e487b7100000000000000000000000000000000000000000000000000000000600052601160045260246000fd5b7f4e487b7100000000000000000000000000000000000000000000000000000000600052604160045260246000fd5b6000601f19601f8301169050919050565b6200038c8162000250565b81146200039857600080fd5b50565b610d0f80620003ab6000396000f3fe60806040526004361061003f5760003560e01c80630ed2fc95146100445780634f119bbd146100745780634f129c53146100b15780637dceefee146100ee575b600080fd5b61005e600480360381019061005991906107c2565b61012b565b60405161006b9190610a4a565b60405180910390f35b34801561008057600080fd5b5061009b60048036038101906100969190610773565b61021a565b6040516100a89190610a4a565b60405180910390f35b3480156100bd57600080fd5b506100d860048036038101906100d3919061074a565b6102b8565b6040516100e591906109af565b60405180910390f35b3480156100fa57600080fd5b5061011560048036038101906101109190610773565b6102d8565b6040516101229190610a4a565b60405180910390f35b60008073ffffffffffffffffffffffffffffffffffffffff168573ffffffffffffffffffffffffffffffffffffffff1614156101a8578234146101a3576040517f08c379a000000000000000000000000000000000000000000000000000000000815260040161019a90610a0a565b60405180910390fd5b6101b5565b6101b485333086610376565b5b6101c085858561021a565b9050600073ffffffffffffffffffffffffffffffffffffffff168473ffffffffffffffffffffffffffffffffffffffff1614156102065761020133826104af565b610212565b6102118433836105d5565b5b949350505050565b60008073ffffffffffffffffffffffffffffffffffffffff168473ffffffffffffffffffffffffffffffffffffffff1614156102645760028261025d9190610abd565b90506102b1565b600073ffffffffffffffffffffffffffffffffffffffff168373ffffffffffffffffffffffffffffffffffffffff1614156102ad576002826102a69190610a8c565b90506102b1565b8190505b9392505050565b60006020528060005260406000206000915054906101000a900460ff1681565b60008073ffffffffffffffffffffffffffffffffffffffff168473ffffffffffffffffffffffffffffffffffffffff1614156103225760028261031b9190610a8c565b905061036f565b600073ffffffffffffffffffffffffffffffffffffffff168373ffffffffffffffffffffffffffffffffffffffff16141561036b576002826103649190610abd565b905061036f565b8190505b9392505050565b6000808573ffffffffffffffffffffffffffffffffffffffff166323b872dd8686866040516024016103aa9392919061094f565b6040516020818303038152906040529060e01b6020820180517bffffffffffffffffffffffffffffffffffffffffffffffffffffffff83818316178352505050506040516103f89190610938565b6000604051808303816000865af19150503d8060008114610435576040519150601f19603f3d011682016040523d82523d6000602084013e61043a565b606091505b509150915081801561046857506000815114806104675750808060200190518101906104669190610825565b5b5b6104a7576040517f08c379a000000000000000000000000000000000000000000000000000000000815260040161049e90610a2a565b60405180910390fd5b505050505050565b60008273ffffffffffffffffffffffffffffffffffffffff1682600067ffffffffffffffff81111561050a577f4e487b7100000000000000000000000000000000000000000000000000000000600052604160045260246000fd5b6040519080825280601f01601f19166020018201604052801561053c5781602001600182028036833780820191505090505b5060405161054a9190610938565b60006040518083038185875af1925050503d8060008114610587576040519150601f19603f3d011682016040523d82523d6000602084013e61058c565b606091505b50509050806105d0576040517f08c379a00000000000000000000000000000000000000000000000000000000081526004016105c7906109ca565b60405180910390fd5b505050565b6000808473ffffffffffffffffffffffffffffffffffffffff1663a9059cbb8585604051602401610607929190610986565b6040516020818303038152906040529060e01b6020820180517bffffffffffffffffffffffffffffffffffffffffffffffffffffffff83818316178352505050506040516106559190610938565b6000604051808303816000865af19150503d8060008114610692576040519150601f19603f3d011682016040523d82523d6000602084013e610697565b606091505b50915091508180156106c557506000815114806106c45750808060200190518101906106c39190610825565b5b5b610704576040517f08c379a00000000000000000000000000000000000000000000000000000000081526004016106fb906109ea565b60405180910390fd5b5050505050565b60008135905061071a81610c94565b92915050565b60008151905061072f81610cab565b92915050565b60008135905061074481610cc2565b92915050565b60006020828403121561075c57600080fd5b600061076a8482850161070b565b91505092915050565b60008060006060848603121561078857600080fd5b60006107968682870161070b565b93505060206107a78682870161070b565b92505060406107b886828701610735565b9150509250925092565b600080600080608085870312156107d857600080fd5b60006107e68782880161070b565b94505060206107f78782880161070b565b935050604061080887828801610735565b925050606061081987828801610735565b91505092959194509250565b60006020828403121561083757600080fd5b600061084584828501610720565b91505092915050565b61085781610b17565b82525050565b61086681610b29565b82525050565b600061087782610a65565b6108818185610a70565b9350610891818560208601610b5f565b80840191505092915050565b60006108aa601283610a7b565b91506108b582610bf0565b602082019050919050565b60006108cd600d83610a7b565b91506108d882610c19565b602082019050919050565b60006108f0601983610a7b565b91506108fb82610c42565b602082019050919050565b6000610913601183610a7b565b915061091e82610c6b565b602082019050919050565b61093281610b55565b82525050565b6000610944828461086c565b915081905092915050565b6000606082019050610964600083018661084e565b610971602083018561084e565b61097e6040830184610929565b949350505050565b600060408201905061099b600083018561084e565b6109a86020830184610929565b9392505050565b60006020820190506109c4600083018461085d565b92915050565b600060208201905081810360008301526109e38161089d565b9050919050565b60006020820190508181036000830152610a03816108c0565b9050919050565b60006020820190508181036000830152610a23816108e3565b9050919050565b60006020820190508181036000830152610a4381610906565b9050919050565b6000602082019050610a5f6000830184610929565b92915050565b600081519050919050565b600081905092915050565b600082825260208201905092915050565b6000610a9782610b55565b9150610aa283610b55565b925082610ab257610ab1610bc1565b5b828204905092915050565b6000610ac882610b55565b9150610ad383610b55565b9250817fffffffffffffffffffffffffffffffffffffffffffffffffffffffffffffffff0483118215151615610b0c57610b0b610b92565b5b828202905092915050565b6000610b2282610b35565b9050919050565b60008115159050919050565b600073ffffffffffffffffffffffffffffffffffffffff82169050919050565b6000819050919050565b60005b83811015610b7d578082015181840152602081019050610b62565b83811115610b8c576000848401525b50505050565b7f4e487b7100000000000000000000000000000000000000000000000000000000600052601160045260246000fd5b7f4e487b7100000000000000000000000000000000000000000000000000000000600052601260045260246000fd5b7f21736166655472616e7366657245564d4f530000000000000000000000000000600082015250565b7f21736166655472616e7366657200000000000000000000000000000000000000600082015250565b7f4d6f636b537761703a206d73672e76616c756520213d20647800000000000000600082015250565b7f21736166655472616e7366657246726f6d000000000000000000000000000000600082015250565b610c9d81610b17565b8114610ca857600080fd5b50565b610cb481610b29565b8114610cbf57600080fd5b50565b610ccb81610b55565b8114610cd657600080fd5b5056fea26469706673582212204004277055dfa6e8d59c2e3793d9ad85a10a3606e411b1f0bfbea05cc7fa19b564736f6c63430008040033",
          "opcodes": "PUSH1 0x80 PUSH1 0x40 MSTORE CALLVALUE DUP1 ISZERO PUSH3 0x11 JUMPI PUSH1 0x0 DUP1 REVERT JUMPDEST POP PUSH1 0x40 MLOAD PUSH3 0x10BA CODESIZE SUB DUP1 PUSH3 0x10BA DUP4 CODECOPY DUP2 DUP2 ADD PUSH1 0x40 MSTORE DUP2 ADD SWAP1 PUSH3 0x37 SWAP2 SWAP1 PUSH3 0x1B3 JUMP JUMPDEST PUSH1 0x0 JUMPDEST DUP2 MLOAD DUP2 LT ISZERO PUSH3 0xF2 JUMPI PUSH1 0x1 PUSH1 0x0 DUP1 DUP5 DUP5 DUP2 MLOAD DUP2 LT PUSH3 0x83 JUMPI PUSH32 0x4E487B7100000000000000000000000000000000000000000000000000000000 PUSH1 0x0 MSTORE PUSH1 0x32 PUSH1 0x4 MSTORE PUSH1 0x24 PUSH1 0x0 REVERT JUMPDEST PUSH1 0x20 MUL PUSH1 0x20 ADD ADD MLOAD PUSH20 0xFFFFFFFFFFFFFFFFFFFFFFFFFFFFFFFFFFFFFFFF AND PUSH20 0xFFFFFFFFFFFFFFFFFFFFFFFFFFFFFFFFFFFFFFFF AND DUP2 MSTORE PUSH1 0x20 ADD SWAP1 DUP2 MSTORE PUSH1 0x20 ADD PUSH1 0x0 KECCAK256 PUSH1 0x0 PUSH2 0x100 EXP DUP2 SLOAD DUP2 PUSH1 0xFF MUL NOT AND SWAP1 DUP4 ISZERO ISZERO MUL OR SWAP1 SSTORE POP DUP1 DUP1 PUSH3 0xE9 SWAP1 PUSH3 0x2C4 JUMP JUMPDEST SWAP2 POP POP PUSH3 0x3A JUMP JUMPDEST POP POP PUSH3 0x39B JUMP JUMPDEST PUSH1 0x0 PUSH3 0x111 PUSH3 0x10B DUP5 PUSH3 0x221 JUMP JUMPDEST PUSH3 0x1F8 JUMP JUMPDEST SWAP1 POP DUP1 DUP4 DUP3 MSTORE PUSH1 0x20 DUP3 ADD SWAP1 POP DUP3 DUP6 PUSH1 0x20 DUP7 MUL DUP3 ADD GT ISZERO PUSH3 0x131 JUMPI PUSH1 0x0 DUP1 REVERT JUMPDEST PUSH1 0x0 JUMPDEST DUP6 DUP2 LT ISZERO PUSH3 0x165 JUMPI DUP2 PUSH3 0x14A DUP9 DUP3 PUSH3 0x16F JUMP JUMPDEST DUP5 MSTORE PUSH1 0x20 DUP5 ADD SWAP4 POP PUSH1 0x20 DUP4 ADD SWAP3 POP POP PUSH1 0x1 DUP2 ADD SWAP1 POP PUSH3 0x134 JUMP JUMPDEST POP POP POP SWAP4 SWAP3 POP POP POP JUMP JUMPDEST PUSH1 0x0 DUP2 MLOAD SWAP1 POP PUSH3 0x180 DUP2 PUSH3 0x381 JUMP JUMPDEST SWAP3 SWAP2 POP POP JUMP JUMPDEST PUSH1 0x0 DUP3 PUSH1 0x1F DUP4 ADD SLT PUSH3 0x198 JUMPI PUSH1 0x0 DUP1 REVERT JUMPDEST DUP2 MLOAD PUSH3 0x1AA DUP5 DUP3 PUSH1 0x20 DUP7 ADD PUSH3 0xFA JUMP JUMPDEST SWAP2 POP POP SWAP3 SWAP2 POP POP JUMP JUMPDEST PUSH1 0x0 PUSH1 0x20 DUP3 DUP5 SUB SLT ISZERO PUSH3 0x1C6 JUMPI PUSH1 0x0 DUP1 REVERT JUMPDEST PUSH1 0x0 DUP3 ADD MLOAD PUSH8 0xFFFFFFFFFFFFFFFF DUP2 GT ISZERO PUSH3 0x1E1 JUMPI PUSH1 0x0 DUP1 REVERT JUMPDEST PUSH3 0x1EF DUP5 DUP3 DUP6 ADD PUSH3 0x186 JUMP JUMPDEST SWAP2 POP POP SWAP3 SWAP2 POP POP JUMP JUMPDEST PUSH1 0x0 PUSH3 0x204 PUSH3 0x217 JUMP JUMPDEST SWAP1 POP PUSH3 0x212 DUP3 DUP3 PUSH3 0x28E JUMP JUMPDEST SWAP2 SWAP1 POP JUMP JUMPDEST PUSH1 0x0 PUSH1 0x40 MLOAD SWAP1 POP SWAP1 JUMP JUMPDEST PUSH1 0x0 PUSH8 0xFFFFFFFFFFFFFFFF DUP3 GT ISZERO PUSH3 0x23F JUMPI PUSH3 0x23E PUSH3 0x341 JUMP JUMPDEST JUMPDEST PUSH1 0x20 DUP3 MUL SWAP1 POP PUSH1 0x20 DUP2 ADD SWAP1 POP SWAP2 SWAP1 POP JUMP JUMPDEST PUSH1 0x0 PUSH3 0x25D DUP3 PUSH3 0x264 JUMP JUMPDEST SWAP1 POP SWAP2 SWAP1 POP JUMP JUMPDEST PUSH1 0x0 PUSH20 0xFFFFFFFFFFFFFFFFFFFFFFFFFFFFFFFFFFFFFFFF DUP3 AND SWAP1 POP SWAP2 SWAP1 POP JUMP JUMPDEST PUSH1 0x0 DUP2 SWAP1 POP SWAP2 SWAP1 POP JUMP JUMPDEST PUSH3 0x299 DUP3 PUSH3 0x370 JUMP JUMPDEST DUP2 ADD DUP2 DUP2 LT PUSH8 0xFFFFFFFFFFFFFFFF DUP3 GT OR ISZERO PUSH3 0x2BB JUMPI PUSH3 0x2BA PUSH3 0x341 JUMP JUMPDEST JUMPDEST DUP1 PUSH1 0x40 MSTORE POP POP POP JUMP JUMPDEST PUSH1 0x0 PUSH3 0x2D1 DUP3 PUSH3 0x284 JUMP JUMPDEST SWAP2 POP PUSH32 0xFFFFFFFFFFFFFFFFFFFFFFFFFFFFFFFFFFFFFFFFFFFFFFFFFFFFFFFFFFFFFFFF DUP3 EQ ISZERO PUSH3 0x307 JUMPI PUSH3 0x306 PUSH3 0x312 JUMP JUMPDEST JUMPDEST PUSH1 0x1 DUP3 ADD SWAP1 POP SWAP2 SWAP1 POP JUMP JUMPDEST PUSH32 0x4E487B7100000000000000000000000000000000000000000000000000000000 PUSH1 0x0 MSTORE PUSH1 0x11 PUSH1 0x4 MSTORE PUSH1 0x24 PUSH1 0x0 REVERT JUMPDEST PUSH32 0x4E487B7100000000000000000000000000000000000000000000000000000000 PUSH1 0x0 MSTORE PUSH1 0x41 PUSH1 0x4 MSTORE PUSH1 0x24 PUSH1 0x0 REVERT JUMPDEST PUSH1 0x0 PUSH1 0x1F NOT PUSH1 0x1F DUP4 ADD AND SWAP1 POP SWAP2 SWAP1 POP JUMP JUMPDEST PUSH3 0x38C DUP2 PUSH3 0x250 JUMP JUMPDEST DUP2 EQ PUSH3 0x398 JUMPI PUSH1 0x0 DUP1 REVERT JUMPDEST POP JUMP JUMPDEST PUSH2 0xD0F DUP1 PUSH3 0x3AB PUSH1 0x0 CODECOPY PUSH1 0x0 RETURN INVALID PUSH1 0x80 PUSH1 0x40 MSTORE PUSH1 0x4 CALLDATASIZE LT PUSH2 0x3F JUMPI PUSH1 0x0 CALLDATALOAD PUSH1 0xE0 SHR DUP1 PUSH4 0xED2FC95 EQ PUSH2 0x44 JUMPI DUP1 PUSH4 0x4F119BBD EQ PUSH2 0x74 JUMPI DUP1 PUSH4 0x4F129C53 EQ PUSH2 0xB1 JUMPI DUP1 PUSH4 0x7DCEEFEE EQ PUSH2 0xEE JUMPI JUMPDEST PUSH1 0x0 DUP1 REVERT JUMPDEST PUSH2 0x5E PUSH1 0x4 DUP1 CALLDATASIZE SUB DUP2 ADD SWAP1 PUSH2 0x59 SWAP2 SWAP1 PUSH2 0x7C2 JUMP JUMPDEST PUSH2 0x12B JUMP JUMPDEST PUSH1 0x40 MLOAD PUSH2 0x6B SWAP2 SWAP1 PUSH2 0xA4A JUMP JUMPDEST PUSH1 0x40 MLOAD DUP1 SWAP2 SUB SWAP1 RETURN JUMPDEST CALLVALUE DUP1 ISZERO PUSH2 0x80 JUMPI PUSH1 0x0 DUP1 REVERT JUMPDEST POP PUSH2 0x9B PUSH1 0x4 DUP1 CALLDATASIZE SUB DUP2 ADD SWAP1 PUSH2 0x96 SWAP2 SWAP1 PUSH2 0x773 JUMP JUMPDEST PUSH2 0x21A JUMP JUMPDEST PUSH1 0x40 MLOAD PUSH2 0xA8 SWAP2 SWAP1 PUSH2 0xA4A JUMP JUMPDEST PUSH1 0x40 MLOAD DUP1 SWAP2 SUB SWAP1 RETURN JUMPDEST CALLVALUE DUP1 ISZERO PUSH2 0xBD JUMPI PUSH1 0x0 DUP1 REVERT JUMPDEST POP PUSH2 0xD8 PUSH1 0x4 DUP1 CALLDATASIZE SUB DUP2 ADD SWAP1 PUSH2 0xD3 SWAP2 SWAP1 PUSH2 0x74A JUMP JUMPDEST PUSH2 0x2B8 JUMP JUMPDEST PUSH1 0x40 MLOAD PUSH2 0xE5 SWAP2 SWAP1 PUSH2 0x9AF JUMP JUMPDEST PUSH1 0x40 MLOAD DUP1 SWAP2 SUB SWAP1 RETURN JUMPDEST CALLVALUE DUP1 ISZERO PUSH2 0xFA JUMPI PUSH1 0x0 DUP1 REVERT JUMPDEST POP PUSH2 0x115 PUSH1 0x4 DUP1 CALLDATASIZE SUB DUP2 ADD SWAP1 PUSH2 0x110 SWAP2 SWAP1 PUSH2 0x773 JUMP JUMPDEST PUSH2 0x2D8 JUMP JUMPDEST PUSH1 0x40 MLOAD PUSH2 0x122 SWAP2 SWAP1 PUSH2 0xA4A JUMP JUMPDEST PUSH1 0x40 MLOAD DUP1 SWAP2 SUB SWAP1 RETURN JUMPDEST PUSH1 0x0 DUP1 PUSH20 0xFFFFFFFFFFFFFFFFFFFFFFFFFFFFFFFFFFFFFFFF AND DUP6 PUSH20 0xFFFFFFFFFFFFFFFFFFFFFFFFFFFFFFFFFFFFFFFF AND EQ ISZERO PUSH2 0x1A8 JUMPI DUP3 CALLVALUE EQ PUSH2 0x1A3 JUMPI PUSH1 0x40 MLOAD PUSH32 0x8C379A000000000000000000000000000000000000000000000000000000000 DUP2 MSTORE PUSH1 0x4 ADD PUSH2 0x19A SWAP1 PUSH2 0xA0A JUMP JUMPDEST PUSH1 0x40 MLOAD DUP1 SWAP2 SUB SWAP1 REVERT JUMPDEST PUSH2 0x1B5 JUMP JUMPDEST PUSH2 0x1B4 DUP6 CALLER ADDRESS DUP7 PUSH2 0x376 JUMP JUMPDEST JUMPDEST PUSH2 0x1C0 DUP6 DUP6 DUP6 PUSH2 0x21A JUMP JUMPDEST SWAP1 POP PUSH1 0x0 PUSH20 0xFFFFFFFFFFFFFFFFFFFFFFFFFFFFFFFFFFFFFFFF AND DUP5 PUSH20 0xFFFFFFFFFFFFFFFFFFFFFFFFFFFFFFFFFFFFFFFF AND EQ ISZERO PUSH2 0x206 JUMPI PUSH2 0x201 CALLER DUP3 PUSH2 0x4AF JUMP JUMPDEST PUSH2 0x212 JUMP JUMPDEST PUSH2 0x211 DUP5 CALLER DUP4 PUSH2 0x5D5 JUMP JUMPDEST JUMPDEST SWAP5 SWAP4 POP POP POP POP JUMP JUMPDEST PUSH1 0x0 DUP1 PUSH20 0xFFFFFFFFFFFFFFFFFFFFFFFFFFFFFFFFFFFFFFFF AND DUP5 PUSH20 0xFFFFFFFFFFFFFFFFFFFFFFFFFFFFFFFFFFFFFFFF AND EQ ISZERO PUSH2 0x264 JUMPI PUSH1 0x2 DUP3 PUSH2 0x25D SWAP2 SWAP1 PUSH2 0xABD JUMP JUMPDEST SWAP1 POP PUSH2 0x2B1 JUMP JUMPDEST PUSH1 0x0 PUSH20 0xFFFFFFFFFFFFFFFFFFFFFFFFFFFFFFFFFFFFFFFF AND DUP4 PUSH20 0xFFFFFFFFFFFFFFFFFFFFFFFFFFFFFFFFFFFFFFFF AND EQ ISZERO PUSH2 0x2AD JUMPI PUSH1 0x2 DUP3 PUSH2 0x2A6 SWAP2 SWAP1 PUSH2 0xA8C JUMP JUMPDEST SWAP1 POP PUSH2 0x2B1 JUMP JUMPDEST DUP2 SWAP1 POP JUMPDEST SWAP4 SWAP3 POP POP POP JUMP JUMPDEST PUSH1 0x0 PUSH1 0x20 MSTORE DUP1 PUSH1 0x0 MSTORE PUSH1 0x40 PUSH1 0x0 KECCAK256 PUSH1 0x0 SWAP2 POP SLOAD SWAP1 PUSH2 0x100 EXP SWAP1 DIV PUSH1 0xFF AND DUP2 JUMP JUMPDEST PUSH1 0x0 DUP1 PUSH20 0xFFFFFFFFFFFFFFFFFFFFFFFFFFFFFFFFFFFFFFFF AND DUP5 PUSH20 0xFFFFFFFFFFFFFFFFFFFFFFFFFFFFFFFFFFFFFFFF AND EQ ISZERO PUSH2 0x322 JUMPI PUSH1 0x2 DUP3 PUSH2 0x31B SWAP2 SWAP1 PUSH2 0xA8C JUMP JUMPDEST SWAP1 POP PUSH2 0x36F JUMP JUMPDEST PUSH1 0x0 PUSH20 0xFFFFFFFFFFFFFFFFFFFFFFFFFFFFFFFFFFFFFFFF AND DUP4 PUSH20 0xFFFFFFFFFFFFFFFFFFFFFFFFFFFFFFFFFFFFFFFF AND EQ ISZERO PUSH2 0x36B JUMPI PUSH1 0x2 DUP3 PUSH2 0x364 SWAP2 SWAP1 PUSH2 0xABD JUMP JUMPDEST SWAP1 POP PUSH2 0x36F JUMP JUMPDEST DUP2 SWAP1 POP JUMPDEST SWAP4 SWAP3 POP POP POP JUMP JUMPDEST PUSH1 0x0 DUP1 DUP6 PUSH20 0xFFFFFFFFFFFFFFFFFFFFFFFFFFFFFFFFFFFFFFFF AND PUSH4 0x23B872DD DUP7 DUP7 DUP7 PUSH1 0x40 MLOAD PUSH1 0x24 ADD PUSH2 0x3AA SWAP4 SWAP3 SWAP2 SWAP1 PUSH2 0x94F JUMP JUMPDEST PUSH1 0x40 MLOAD PUSH1 0x20 DUP2 DUP4 SUB SUB DUP2 MSTORE SWAP1 PUSH1 0x40 MSTORE SWAP1 PUSH1 0xE0 SHL PUSH1 0x20 DUP3 ADD DUP1 MLOAD PUSH28 0xFFFFFFFFFFFFFFFFFFFFFFFFFFFFFFFFFFFFFFFFFFFFFFFFFFFFFFFF DUP4 DUP2 DUP4 AND OR DUP4 MSTORE POP POP POP POP PUSH1 0x40 MLOAD PUSH2 0x3F8 SWAP2 SWAP1 PUSH2 0x938 JUMP JUMPDEST PUSH1 0x0 PUSH1 0x40 MLOAD DUP1 DUP4 SUB DUP2 PUSH1 0x0 DUP7 GAS CALL SWAP2 POP POP RETURNDATASIZE DUP1 PUSH1 0x0 DUP2 EQ PUSH2 0x435 JUMPI PUSH1 0x40 MLOAD SWAP2 POP PUSH1 0x1F NOT PUSH1 0x3F RETURNDATASIZE ADD AND DUP3 ADD PUSH1 0x40 MSTORE RETURNDATASIZE DUP3 MSTORE RETURNDATASIZE PUSH1 0x0 PUSH1 0x20 DUP5 ADD RETURNDATACOPY PUSH2 0x43A JUMP JUMPDEST PUSH1 0x60 SWAP2 POP JUMPDEST POP SWAP2 POP SWAP2 POP DUP2 DUP1 ISZERO PUSH2 0x468 JUMPI POP PUSH1 0x0 DUP2 MLOAD EQ DUP1 PUSH2 0x467 JUMPI POP DUP1 DUP1 PUSH1 0x20 ADD SWAP1 MLOAD DUP2 ADD SWAP1 PUSH2 0x466 SWAP2 SWAP1 PUSH2 0x825 JUMP JUMPDEST JUMPDEST JUMPDEST PUSH2 0x4A7 JUMPI PUSH1 0x40 MLOAD PUSH32 0x8C379A000000000000000000000000000000000000000000000000000000000 DUP2 MSTORE PUSH1 0x4 ADD PUSH2 0x49E SWAP1 PUSH2 0xA2A JUMP JUMPDEST PUSH1 0x40 MLOAD DUP1 SWAP2 SUB SWAP1 REVERT JUMPDEST POP POP POP POP POP POP JUMP JUMPDEST PUSH1 0x0 DUP3 PUSH20 0xFFFFFFFFFFFFFFFFFFFFFFFFFFFFFFFFFFFFFFFF AND DUP3 PUSH1 0x0 PUSH8 0xFFFFFFFFFFFFFFFF DUP2 GT ISZERO PUSH2 0x50A JUMPI PUSH32 0x4E487B7100000000000000000000000000000000000000000000000000000000 PUSH1 0x0 MSTORE PUSH1 0x41 PUSH1 0x4 MSTORE PUSH1 0x24 PUSH1 0x0 REVERT JUMPDEST PUSH1 0x40 MLOAD SWAP1 DUP1 DUP3 MSTORE DUP1 PUSH1 0x1F ADD PUSH1 0x1F NOT AND PUSH1 0x20 ADD DUP3 ADD PUSH1 0x40 MSTORE DUP1 ISZERO PUSH2 0x53C JUMPI DUP2 PUSH1 0x20 ADD PUSH1 0x1 DUP3 MUL DUP1 CALLDATASIZE DUP4 CALLDATACOPY DUP1 DUP3 ADD SWAP2 POP POP SWAP1 POP JUMPDEST POP PUSH1 0x40 MLOAD PUSH2 0x54A SWAP2 SWAP1 PUSH2 0x938 JUMP JUMPDEST PUSH1 0x0 PUSH1 0x40 MLOAD DUP1 DUP4 SUB DUP2 DUP6 DUP8 GAS CALL SWAP3 POP POP POP RETURNDATASIZE DUP1 PUSH1 0x0 DUP2 EQ PUSH2 0x587 JUMPI PUSH1 0x40 MLOAD SWAP2 POP PUSH1 0x1F NOT PUSH1 0x3F RETURNDATASIZE ADD AND DUP3 ADD PUSH1 0x40 MSTORE RETURNDATASIZE DUP3 MSTORE RETURNDATASIZE PUSH1 0x0 PUSH1 0x20 DUP5 ADD RETURNDATACOPY PUSH2 0x58C JUMP JUMPDEST PUSH1 0x60 SWAP2 POP JUMPDEST POP POP SWAP1 POP DUP1 PUSH2 0x5D0 JUMPI PUSH1 0x40 MLOAD PUSH32 0x8C379A000000000000000000000000000000000000000000000000000000000 DUP2 MSTORE PUSH1 0x4 ADD PUSH2 0x5C7 SWAP1 PUSH2 0x9CA JUMP JUMPDEST PUSH1 0x40 MLOAD DUP1 SWAP2 SUB SWAP1 REVERT JUMPDEST POP POP POP JUMP JUMPDEST PUSH1 0x0 DUP1 DUP5 PUSH20 0xFFFFFFFFFFFFFFFFFFFFFFFFFFFFFFFFFFFFFFFF AND PUSH4 0xA9059CBB DUP6 DUP6 PUSH1 0x40 MLOAD PUSH1 0x24 ADD PUSH2 0x607 SWAP3 SWAP2 SWAP1 PUSH2 0x986 JUMP JUMPDEST PUSH1 0x40 MLOAD PUSH1 0x20 DUP2 DUP4 SUB SUB DUP2 MSTORE SWAP1 PUSH1 0x40 MSTORE SWAP1 PUSH1 0xE0 SHL PUSH1 0x20 DUP3 ADD DUP1 MLOAD PUSH28 0xFFFFFFFFFFFFFFFFFFFFFFFFFFFFFFFFFFFFFFFFFFFFFFFFFFFFFFFF DUP4 DUP2 DUP4 AND OR DUP4 MSTORE POP POP POP POP PUSH1 0x40 MLOAD PUSH2 0x655 SWAP2 SWAP1 PUSH2 0x938 JUMP JUMPDEST PUSH1 0x0 PUSH1 0x40 MLOAD DUP1 DUP4 SUB DUP2 PUSH1 0x0 DUP7 GAS CALL SWAP2 POP POP RETURNDATASIZE DUP1 PUSH1 0x0 DUP2 EQ PUSH2 0x692 JUMPI PUSH1 0x40 MLOAD SWAP2 POP PUSH1 0x1F NOT PUSH1 0x3F RETURNDATASIZE ADD AND DUP3 ADD PUSH1 0x40 MSTORE RETURNDATASIZE DUP3 MSTORE RETURNDATASIZE PUSH1 0x0 PUSH1 0x20 DUP5 ADD RETURNDATACOPY PUSH2 0x697 JUMP JUMPDEST PUSH1 0x60 SWAP2 POP JUMPDEST POP SWAP2 POP SWAP2 POP DUP2 DUP1 ISZERO PUSH2 0x6C5 JUMPI POP PUSH1 0x0 DUP2 MLOAD EQ DUP1 PUSH2 0x6C4 JUMPI POP DUP1 DUP1 PUSH1 0x20 ADD SWAP1 MLOAD DUP2 ADD SWAP1 PUSH2 0x6C3 SWAP2 SWAP1 PUSH2 0x825 JUMP JUMPDEST JUMPDEST JUMPDEST PUSH2 0x704 JUMPI PUSH1 0x40 MLOAD PUSH32 0x8C379A000000000000000000000000000000000000000000000000000000000 DUP2 MSTORE PUSH1 0x4 ADD PUSH2 0x6FB SWAP1 PUSH2 0x9EA JUMP JUMPDEST PUSH1 0x40 MLOAD DUP1 SWAP2 SUB SWAP1 REVERT JUMPDEST POP POP POP POP POP JUMP JUMPDEST PUSH1 0x0 DUP2 CALLDATALOAD SWAP1 POP PUSH2 0x71A DUP2 PUSH2 0xC94 JUMP JUMPDEST SWAP3 SWAP2 POP POP JUMP JUMPDEST PUSH1 0x0 DUP2 MLOAD SWAP1 POP PUSH2 0x72F DUP2 PUSH2 0xCAB JUMP JUMPDEST SWAP3 SWAP2 POP POP JUMP JUMPDEST PUSH1 0x0 DUP2 CALLDATALOAD SWAP1 POP PUSH2 0x744 DUP2 PUSH2 0xCC2 JUMP JUMPDEST SWAP3 SWAP2 POP POP JUMP JUMPDEST PUSH1 0x0 PUSH1 0x20 DUP3 DUP5 SUB SLT ISZERO PUSH2 0x75C JUMPI PUSH1 0x0 DUP1 REVERT JUMPDEST PUSH1 0x0 PUSH2 0x76A DUP5 DUP3 DUP6 ADD PUSH2 0x70B JUMP JUMPDEST SWAP2 POP POP SWAP3 SWAP2 POP POP JUMP JUMPDEST PUSH1 0x0 DUP1 PUSH1 0x0 PUSH1 0x60 DUP5 DUP7 SUB SLT ISZERO PUSH2 0x788 JUMPI PUSH1 0x0 DUP1 REVERT JUMPDEST PUSH1 0x0 PUSH2 0x796 DUP7 DUP3 DUP8 ADD PUSH2 0x70B JUMP JUMPDEST SWAP4 POP POP PUSH1 0x20 PUSH2 0x7A7 DUP7 DUP3 DUP8 ADD PUSH2 0x70B JUMP JUMPDEST SWAP3 POP POP PUSH1 0x40 PUSH2 0x7B8 DUP7 DUP3 DUP8 ADD PUSH2 0x735 JUMP JUMPDEST SWAP2 POP POP SWAP3 POP SWAP3 POP SWAP3 JUMP JUMPDEST PUSH1 0x0 DUP1 PUSH1 0x0 DUP1 PUSH1 0x80 DUP6 DUP8 SUB SLT ISZERO PUSH2 0x7D8 JUMPI PUSH1 0x0 DUP1 REVERT JUMPDEST PUSH1 0x0 PUSH2 0x7E6 DUP8 DUP3 DUP9 ADD PUSH2 0x70B JUMP JUMPDEST SWAP5 POP POP PUSH1 0x20 PUSH2 0x7F7 DUP8 DUP3 DUP9 ADD PUSH2 0x70B JUMP JUMPDEST SWAP4 POP POP PUSH1 0x40 PUSH2 0x808 DUP8 DUP3 DUP9 ADD PUSH2 0x735 JUMP JUMPDEST SWAP3 POP POP PUSH1 0x60 PUSH2 0x819 DUP8 DUP3 DUP9 ADD PUSH2 0x735 JUMP JUMPDEST SWAP2 POP POP SWAP3 SWAP6 SWAP2 SWAP5 POP SWAP3 POP JUMP JUMPDEST PUSH1 0x0 PUSH1 0x20 DUP3 DUP5 SUB SLT ISZERO PUSH2 0x837 JUMPI PUSH1 0x0 DUP1 REVERT JUMPDEST PUSH1 0x0 PUSH2 0x845 DUP5 DUP3 DUP6 ADD PUSH2 0x720 JUMP JUMPDEST SWAP2 POP POP SWAP3 SWAP2 POP POP JUMP JUMPDEST PUSH2 0x857 DUP2 PUSH2 0xB17 JUMP JUMPDEST DUP3 MSTORE POP POP JUMP JUMPDEST PUSH2 0x866 DUP2 PUSH2 0xB29 JUMP JUMPDEST DUP3 MSTORE POP POP JUMP JUMPDEST PUSH1 0x0 PUSH2 0x877 DUP3 PUSH2 0xA65 JUMP JUMPDEST PUSH2 0x881 DUP2 DUP6 PUSH2 0xA70 JUMP JUMPDEST SWAP4 POP PUSH2 0x891 DUP2 DUP6 PUSH1 0x20 DUP7 ADD PUSH2 0xB5F JUMP JUMPDEST DUP1 DUP5 ADD SWAP2 POP POP SWAP3 SWAP2 POP POP JUMP JUMPDEST PUSH1 0x0 PUSH2 0x8AA PUSH1 0x12 DUP4 PUSH2 0xA7B JUMP JUMPDEST SWAP2 POP PUSH2 0x8B5 DUP3 PUSH2 0xBF0 JUMP JUMPDEST PUSH1 0x20 DUP3 ADD SWAP1 POP SWAP2 SWAP1 POP JUMP JUMPDEST PUSH1 0x0 PUSH2 0x8CD PUSH1 0xD DUP4 PUSH2 0xA7B JUMP JUMPDEST SWAP2 POP PUSH2 0x8D8 DUP3 PUSH2 0xC19 JUMP JUMPDEST PUSH1 0x20 DUP3 ADD SWAP1 POP SWAP2 SWAP1 POP JUMP JUMPDEST PUSH1 0x0 PUSH2 0x8F0 PUSH1 0x19 DUP4 PUSH2 0xA7B JUMP JUMPDEST SWAP2 POP PUSH2 0x8FB DUP3 PUSH2 0xC42 JUMP JUMPDEST PUSH1 0x20 DUP3 ADD SWAP1 POP SWAP2 SWAP1 POP JUMP JUMPDEST PUSH1 0x0 PUSH2 0x913 PUSH1 0x11 DUP4 PUSH2 0xA7B JUMP JUMPDEST SWAP2 POP PUSH2 0x91E DUP3 PUSH2 0xC6B JUMP JUMPDEST PUSH1 0x20 DUP3 ADD SWAP1 POP SWAP2 SWAP1 POP JUMP JUMPDEST PUSH2 0x932 DUP2 PUSH2 0xB55 JUMP JUMPDEST DUP3 MSTORE POP POP JUMP JUMPDEST PUSH1 0x0 PUSH2 0x944 DUP3 DUP5 PUSH2 0x86C JUMP JUMPDEST SWAP2 POP DUP2 SWAP1 POP SWAP3 SWAP2 POP POP JUMP JUMPDEST PUSH1 0x0 PUSH1 0x60 DUP3 ADD SWAP1 POP PUSH2 0x964 PUSH1 0x0 DUP4 ADD DUP7 PUSH2 0x84E JUMP JUMPDEST PUSH2 0x971 PUSH1 0x20 DUP4 ADD DUP6 PUSH2 0x84E JUMP JUMPDEST PUSH2 0x97E PUSH1 0x40 DUP4 ADD DUP5 PUSH2 0x929 JUMP JUMPDEST SWAP5 SWAP4 POP POP POP POP JUMP JUMPDEST PUSH1 0x0 PUSH1 0x40 DUP3 ADD SWAP1 POP PUSH2 0x99B PUSH1 0x0 DUP4 ADD DUP6 PUSH2 0x84E JUMP JUMPDEST PUSH2 0x9A8 PUSH1 0x20 DUP4 ADD DUP5 PUSH2 0x929 JUMP JUMPDEST SWAP4 SWAP3 POP POP POP JUMP JUMPDEST PUSH1 0x0 PUSH1 0x20 DUP3 ADD SWAP1 POP PUSH2 0x9C4 PUSH1 0x0 DUP4 ADD DUP5 PUSH2 0x85D JUMP JUMPDEST SWAP3 SWAP2 POP POP JUMP JUMPDEST PUSH1 0x0 PUSH1 0x20 DUP3 ADD SWAP1 POP DUP2 DUP2 SUB PUSH1 0x0 DUP4 ADD MSTORE PUSH2 0x9E3 DUP2 PUSH2 0x89D JUMP JUMPDEST SWAP1 POP SWAP2 SWAP1 POP JUMP JUMPDEST PUSH1 0x0 PUSH1 0x20 DUP3 ADD SWAP1 POP DUP2 DUP2 SUB PUSH1 0x0 DUP4 ADD MSTORE PUSH2 0xA03 DUP2 PUSH2 0x8C0 JUMP JUMPDEST SWAP1 POP SWAP2 SWAP1 POP JUMP JUMPDEST PUSH1 0x0 PUSH1 0x20 DUP3 ADD SWAP1 POP DUP2 DUP2 SUB PUSH1 0x0 DUP4 ADD MSTORE PUSH2 0xA23 DUP2 PUSH2 0x8E3 JUMP JUMPDEST SWAP1 POP SWAP2 SWAP1 POP JUMP JUMPDEST PUSH1 0x0 PUSH1 0x20 DUP3 ADD SWAP1 POP DUP2 DUP2 SUB PUSH1 0x0 DUP4 ADD MSTORE PUSH2 0xA43 DUP2 PUSH2 0x906 JUMP JUMPDEST SWAP1 POP SWAP2 SWAP1 POP JUMP JUMPDEST PUSH1 0x0 PUSH1 0x20 DUP3 ADD SWAP1 POP PUSH2 0xA5F PUSH1 0x0 DUP4 ADD DUP5 PUSH2 0x929 JUMP JUMPDEST SWAP3 SWAP2 POP POP JUMP JUMPDEST PUSH1 0x0 DUP2 MLOAD SWAP1 POP SWAP2 SWAP1 POP JUMP JUMPDEST PUSH1 0x0 DUP2 SWAP1 POP SWAP3 SWAP2 POP POP JUMP JUMPDEST PUSH1 0x0 DUP3 DUP3 MSTORE PUSH1 0x20 DUP3 ADD SWAP1 POP SWAP3 SWAP2 POP POP JUMP JUMPDEST PUSH1 0x0 PUSH2 0xA97 DUP3 PUSH2 0xB55 JUMP JUMPDEST SWAP2 POP PUSH2 0xAA2 DUP4 PUSH2 0xB55 JUMP JUMPDEST SWAP3 POP DUP3 PUSH2 0xAB2 JUMPI PUSH2 0xAB1 PUSH2 0xBC1 JUMP JUMPDEST JUMPDEST DUP3 DUP3 DIV SWAP1 POP SWAP3 SWAP2 POP POP JUMP JUMPDEST PUSH1 0x0 PUSH2 0xAC8 DUP3 PUSH2 0xB55 JUMP JUMPDEST SWAP2 POP PUSH2 0xAD3 DUP4 PUSH2 0xB55 JUMP JUMPDEST SWAP3 POP DUP2 PUSH32 0xFFFFFFFFFFFFFFFFFFFFFFFFFFFFFFFFFFFFFFFFFFFFFFFFFFFFFFFFFFFFFFFF DIV DUP4 GT DUP3 ISZERO ISZERO AND ISZERO PUSH2 0xB0C JUMPI PUSH2 0xB0B PUSH2 0xB92 JUMP JUMPDEST JUMPDEST DUP3 DUP3 MUL SWAP1 POP SWAP3 SWAP2 POP POP JUMP JUMPDEST PUSH1 0x0 PUSH2 0xB22 DUP3 PUSH2 0xB35 JUMP JUMPDEST SWAP1 POP SWAP2 SWAP1 POP JUMP JUMPDEST PUSH1 0x0 DUP2 ISZERO ISZERO SWAP1 POP SWAP2 SWAP1 POP JUMP JUMPDEST PUSH1 0x0 PUSH20 0xFFFFFFFFFFFFFFFFFFFFFFFFFFFFFFFFFFFFFFFF DUP3 AND SWAP1 POP SWAP2 SWAP1 POP JUMP JUMPDEST PUSH1 0x0 DUP2 SWAP1 POP SWAP2 SWAP1 POP JUMP JUMPDEST PUSH1 0x0 JUMPDEST DUP4 DUP2 LT ISZERO PUSH2 0xB7D JUMPI DUP1 DUP3 ADD MLOAD DUP2 DUP5 ADD MSTORE PUSH1 0x20 DUP2 ADD SWAP1 POP PUSH2 0xB62 JUMP JUMPDEST DUP4 DUP2 GT ISZERO PUSH2 0xB8C JUMPI PUSH1 0x0 DUP5 DUP5 ADD MSTORE JUMPDEST POP POP POP POP JUMP JUMPDEST PUSH32 0x4E487B7100000000000000000000000000000000000000000000000000000000 PUSH1 0x0 MSTORE PUSH1 0x11 PUSH1 0x4 MSTORE PUSH1 0x24 PUSH1 0x0 REVERT JUMPDEST PUSH32 0x4E487B7100000000000000000000000000000000000000000000000000000000 PUSH1 0x0 MSTORE PUSH1 0x12 PUSH1 0x4 MSTORE PUSH1 0x24 PUSH1 0x0 REVERT JUMPDEST PUSH32 0x21736166655472616E7366657245564D4F530000000000000000000000000000 PUSH1 0x0 DUP3 ADD MSTORE POP JUMP JUMPDEST PUSH32 0x21736166655472616E7366657200000000000000000000000000000000000000 PUSH1 0x0 DUP3 ADD MSTORE POP JUMP JUMPDEST PUSH32 0x4D6F636B537761703A206D73672E76616C756520213D20647800000000000000 PUSH1 0x0 DUP3 ADD MSTORE POP JUMP JUMPDEST PUSH32 0x21736166655472616E7366657246726F6D000000000000000000000000000000 PUSH1 0x0 DUP3 ADD MSTORE POP JUMP JUMPDEST PUSH2 0xC9D DUP2 PUSH2 0xB17 JUMP JUMPDEST DUP2 EQ PUSH2 0xCA8 JUMPI PUSH1 0x0 DUP1 REVERT JUMPDEST POP JUMP JUMPDEST PUSH2 0xCB4 DUP2 PUSH2 0xB29 JUMP JUMPDEST DUP2 EQ PUSH2 0xCBF JUMPI PUSH1 0x0 DUP1 REVERT JUMPDEST POP JUMP JUMPDEST PUSH2 0xCCB DUP2 PUSH2 0xB55 JUMP JUMPDEST DUP2 EQ PUSH2 0xCD6 JUMPI PUSH1 0x0 DUP1 REVERT JUMPDEST POP JUMP INVALID LOG2 PUSH5 0x6970667358 0x22 SLT KECCAK256 BLOCKHASH DIV 0x27 PUSH17 0x55DFA6E8D59C2E3793D9AD85A10A3606E4 GT 0xB1 CREATE 0xBF 0xBE LOG0 0x5C 0xC7 STATICCALL NOT 0xB5 PUSH5 0x736F6C6343 STOP ADDMOD DIV STOP CALLER "
        },
        "methodIdentifiers": {
          "exchange(address,address,uint256,uint256)": "0ed2fc95",
          "getDx(address,address,uint256)": "7dceefee",
          "getDy(address,address,uint256)": "4f119bbd",
          "isSupported(address)": "4f129c53"
        }
      }
    }
  }
}