{
  "address": "0x01D80b72490152E96eCFe4E3aBA1449C30D1952F",
  "abi": [
    {
      "anonymous": false,
      "inputs": [
        {
          "indexed": true,
          "internalType": "address",
          "name": "owner",
          "type": "address"
        },
        {
          "indexed": true,
          "internalType": "address",
          "name": "spender",
          "type": "address"
        },
        {
          "indexed": false,
          "internalType": "uint256",
          "name": "value",
          "type": "uint256"
        }
      ],
      "name": "Approval",
      "type": "event"
    },
    {
      "anonymous": false,
      "inputs": [
        {
          "indexed": false,
          "internalType": "address",
          "name": "user",
          "type": "address"
        },
        {
          "indexed": false,
          "internalType": "uint256",
          "name": "amount",
          "type": "uint256"
        },
        {
          "indexed": false,
          "internalType": "uint256",
          "name": "share",
          "type": "uint256"
        }
      ],
      "name": "Deposit",
      "type": "event"
    },
    {
      "anonymous": false,
      "inputs": [
        {
          "indexed": false,
          "internalType": "uint8",
          "name": "version",
          "type": "uint8"
        }
      ],
      "name": "Initialized",
      "type": "event"
    },
    {
      "anonymous": false,
      "inputs": [
        {
          "indexed": false,
          "internalType": "address",
          "name": "user",
          "type": "address"
        },
        {
          "indexed": false,
          "internalType": "uint256",
          "name": "debtAmount",
          "type": "uint256"
        }
      ],
      "name": "Loan",
      "type": "event"
    },
    {
      "anonymous": false,
      "inputs": [
        {
          "indexed": true,
          "internalType": "address",
          "name": "previousOwner",
          "type": "address"
        },
        {
          "indexed": true,
          "internalType": "address",
          "name": "newOwner",
          "type": "address"
        }
      ],
      "name": "OwnershipTransferred",
      "type": "event"
    },
    {
      "anonymous": false,
      "inputs": [
        {
          "indexed": false,
          "internalType": "uint256",
          "name": "paidInterest",
          "type": "uint256"
        },
        {
          "indexed": false,
          "internalType": "uint256",
          "name": "reward",
          "type": "uint256"
        }
      ],
      "name": "PayInterest",
      "type": "event"
    },
    {
      "anonymous": false,
      "inputs": [
        {
          "indexed": false,
          "internalType": "address",
          "name": "user",
          "type": "address"
        },
        {
          "indexed": false,
          "internalType": "uint256",
          "name": "debtAmount",
          "type": "uint256"
        }
      ],
      "name": "Repay",
      "type": "event"
    },
    {
      "anonymous": false,
      "inputs": [
        {
          "indexed": true,
          "internalType": "address",
          "name": "from",
          "type": "address"
        },
        {
          "indexed": true,
          "internalType": "address",
          "name": "to",
          "type": "address"
        },
        {
          "indexed": false,
          "internalType": "uint256",
          "name": "value",
          "type": "uint256"
        }
      ],
      "name": "Transfer",
      "type": "event"
    },
    {
      "anonymous": false,
      "inputs": [
        {
          "indexed": false,
          "internalType": "address",
          "name": "from",
          "type": "address"
        },
        {
          "indexed": false,
          "internalType": "address",
          "name": "to",
          "type": "address"
        },
        {
          "indexed": false,
          "internalType": "uint256",
          "name": "amount",
          "type": "uint256"
        }
      ],
      "name": "TransferDebtOwnership",
      "type": "event"
    },
    {
      "anonymous": false,
      "inputs": [
        {
          "indexed": false,
          "internalType": "uint256",
          "name": "rateBps",
          "type": "uint256"
        }
      ],
      "name": "UtilizationRate",
      "type": "event"
    },
    {
      "anonymous": false,
      "inputs": [
        {
          "indexed": false,
          "internalType": "address",
          "name": "user",
          "type": "address"
        },
        {
          "indexed": false,
          "internalType": "uint256",
          "name": "amount",
          "type": "uint256"
        },
        {
          "indexed": false,
          "internalType": "uint256",
          "name": "share",
          "type": "uint256"
        }
      ],
      "name": "Withdraw",
      "type": "event"
    },
    {
      "stateMutability": "payable",
      "type": "fallback"
    },
    {
      "inputs": [
        {
          "internalType": "string",
          "name": "_name",
          "type": "string"
        },
        {
          "internalType": "string",
          "name": "_symbol",
          "type": "string"
        },
        {
          "internalType": "address",
          "name": "_swapHelper",
          "type": "address"
        },
        {
          "internalType": "address",
          "name": "_stayking",
          "type": "address"
        },
        {
          "internalType": "address",
          "name": "_token",
          "type": "address"
        },
        {
          "internalType": "address",
          "name": "_interestModel",
          "type": "address"
        },
        {
          "internalType": "uint256",
          "name": "_minReservedBps",
          "type": "uint256"
        }
      ],
      "name": "__Vault_init",
      "outputs": [],
      "stateMutability": "nonpayable",
      "type": "function"
    },
    {
      "inputs": [],
      "name": "accInterest",
      "outputs": [
        {
          "internalType": "uint256",
          "name": "",
          "type": "uint256"
        }
      ],
      "stateMutability": "view",
      "type": "function"
    },
    {
      "inputs": [],
      "name": "accrue",
      "outputs": [],
      "stateMutability": "nonpayable",
      "type": "function"
    },
    {
      "inputs": [
        {
          "internalType": "address",
          "name": "owner",
          "type": "address"
        },
        {
          "internalType": "address",
          "name": "spender",
          "type": "address"
        }
      ],
      "name": "allowance",
      "outputs": [
        {
          "internalType": "uint256",
          "name": "",
          "type": "uint256"
        }
      ],
      "stateMutability": "view",
      "type": "function"
    },
    {
      "inputs": [
        {
          "internalType": "uint256",
          "name": "amount",
          "type": "uint256"
        }
      ],
      "name": "amountToShare",
      "outputs": [
        {
          "internalType": "uint256",
          "name": "",
          "type": "uint256"
        }
      ],
      "stateMutability": "view",
      "type": "function"
    },
    {
      "inputs": [
        {
          "internalType": "address",
          "name": "spender",
          "type": "address"
        },
        {
          "internalType": "uint256",
          "name": "amount",
          "type": "uint256"
        }
      ],
      "name": "approve",
      "outputs": [
        {
          "internalType": "bool",
          "name": "",
          "type": "bool"
        }
      ],
      "stateMutability": "nonpayable",
      "type": "function"
    },
    {
      "inputs": [
        {
          "internalType": "address",
          "name": "account",
          "type": "address"
        }
      ],
      "name": "balanceOf",
      "outputs": [
        {
          "internalType": "uint256",
          "name": "",
          "type": "uint256"
        }
      ],
      "stateMutability": "view",
      "type": "function"
    },
    {
      "inputs": [
        {
          "internalType": "address",
          "name": "user",
          "type": "address"
        }
      ],
      "name": "debtAmountInBase",
      "outputs": [
        {
          "internalType": "uint256",
          "name": "",
          "type": "uint256"
        }
      ],
      "stateMutability": "view",
      "type": "function"
    },
    {
      "inputs": [
        {
          "internalType": "address",
          "name": "",
          "type": "address"
        }
      ],
      "name": "debtAmountOf",
      "outputs": [
        {
          "internalType": "uint256",
          "name": "",
          "type": "uint256"
        }
      ],
      "stateMutability": "view",
      "type": "function"
    },
    {
      "inputs": [],
      "name": "decimals",
      "outputs": [
        {
          "internalType": "uint8",
          "name": "",
          "type": "uint8"
        }
      ],
      "stateMutability": "view",
      "type": "function"
    },
    {
      "inputs": [
        {
          "internalType": "address",
          "name": "spender",
          "type": "address"
        },
        {
          "internalType": "uint256",
          "name": "subtractedValue",
          "type": "uint256"
        }
      ],
      "name": "decreaseAllowance",
      "outputs": [
        {
          "internalType": "bool",
          "name": "",
          "type": "bool"
        }
      ],
      "stateMutability": "nonpayable",
      "type": "function"
    },
    {
      "inputs": [
        {
          "internalType": "uint256",
          "name": "amount",
          "type": "uint256"
        }
      ],
      "name": "deposit",
      "outputs": [
        {
          "internalType": "uint256",
          "name": "share",
          "type": "uint256"
        }
      ],
      "stateMutability": "nonpayable",
      "type": "function"
    },
    {
      "inputs": [],
      "name": "getAccruedRateBps",
      "outputs": [
        {
          "internalType": "uint256",
          "name": "baseBps",
          "type": "uint256"
        },
        {
          "internalType": "uint256",
          "name": "bonusBps",
          "type": "uint256"
        }
      ],
      "stateMutability": "view",
      "type": "function"
    },
    {
      "inputs": [
        {
          "internalType": "uint256",
          "name": "tokenOut",
          "type": "uint256"
        }
      ],
      "name": "getBaseIn",
      "outputs": [
        {
          "internalType": "uint256",
          "name": "baseIn",
          "type": "uint256"
        }
      ],
      "stateMutability": "view",
      "type": "function"
    },
    {
      "inputs": [
        {
          "internalType": "uint256",
          "name": "baseIn",
          "type": "uint256"
        }
      ],
      "name": "getBaseOut",
      "outputs": [
        {
          "internalType": "uint256",
          "name": "tokenOut",
          "type": "uint256"
        }
      ],
      "stateMutability": "view",
      "type": "function"
    },
    {
      "inputs": [],
      "name": "getInterestInBase",
      "outputs": [
        {
          "internalType": "uint256",
          "name": "",
          "type": "uint256"
        }
      ],
      "stateMutability": "view",
      "type": "function"
    },
    {
      "inputs": [],
      "name": "getInterestRate",
      "outputs": [
        {
          "internalType": "uint256",
          "name": "interestRate",
          "type": "uint256"
        }
      ],
      "stateMutability": "view",
      "type": "function"
    },
    {
      "inputs": [
        {
          "internalType": "address",
          "name": "user",
          "type": "address"
        }
      ],
      "name": "getPendingDebt",
      "outputs": [
        {
          "internalType": "uint256",
          "name": "",
          "type": "uint256"
        }
      ],
      "stateMutability": "view",
      "type": "function"
    },
    {
      "inputs": [
        {
          "internalType": "address",
          "name": "user",
          "type": "address"
        }
      ],
      "name": "getPendingDebtInBase",
      "outputs": [
        {
          "internalType": "uint256",
          "name": "",
          "type": "uint256"
        }
      ],
      "stateMutability": "view",
      "type": "function"
    },
    {
      "inputs": [
        {
          "internalType": "uint256",
          "name": "baseOut",
          "type": "uint256"
        }
      ],
      "name": "getTokenIn",
      "outputs": [
        {
          "internalType": "uint256",
          "name": "tokenIn",
          "type": "uint256"
        }
      ],
      "stateMutability": "view",
      "type": "function"
    },
    {
      "inputs": [
        {
          "internalType": "uint256",
          "name": "tokenIn",
          "type": "uint256"
        }
      ],
      "name": "getTokenOut",
      "outputs": [
        {
          "internalType": "uint256",
          "name": "baseOut",
          "type": "uint256"
        }
      ],
      "stateMutability": "view",
      "type": "function"
    },
    {
      "inputs": [
        {
          "internalType": "address",
          "name": "spender",
          "type": "address"
        },
        {
          "internalType": "uint256",
          "name": "addedValue",
          "type": "uint256"
        }
      ],
      "name": "increaseAllowance",
      "outputs": [
        {
          "internalType": "bool",
          "name": "",
          "type": "bool"
        }
      ],
      "stateMutability": "nonpayable",
      "type": "function"
    },
    {
      "inputs": [],
      "name": "interestModel",
      "outputs": [
        {
          "internalType": "address",
          "name": "",
          "type": "address"
        }
      ],
      "stateMutability": "view",
      "type": "function"
    },
    {
      "inputs": [],
      "name": "lastAccruedAt",
      "outputs": [
        {
          "internalType": "uint256",
          "name": "",
          "type": "uint256"
        }
      ],
      "stateMutability": "view",
      "type": "function"
    },
    {
      "inputs": [],
      "name": "lastAnnualRateBps",
      "outputs": [
        {
          "internalType": "uint256",
          "name": "",
          "type": "uint256"
        }
      ],
      "stateMutability": "view",
      "type": "function"
    },
    {
      "inputs": [],
      "name": "lastPaid",
      "outputs": [
        {
          "internalType": "uint256",
          "name": "totalDebtAmount",
          "type": "uint256"
        },
        {
          "internalType": "uint256",
          "name": "totalAmount",
          "type": "uint256"
        },
        {
          "internalType": "uint256",
          "name": "reward",
          "type": "uint256"
        },
        {
          "internalType": "uint128",
          "name": "timestamp",
          "type": "uint128"
        },
        {
          "internalType": "uint128",
          "name": "interval",
          "type": "uint128"
        }
      ],
      "stateMutability": "view",
      "type": "function"
    },
    {
      "inputs": [
        {
          "internalType": "address",
          "name": "user",
          "type": "address"
        },
        {
          "internalType": "uint256",
          "name": "debtInBase",
          "type": "uint256"
        }
      ],
      "name": "loan",
      "outputs": [
        {
          "internalType": "uint256",
          "name": "debt",
          "type": "uint256"
        }
      ],
      "stateMutability": "nonpayable",
      "type": "function"
    },
    {
      "inputs": [],
      "name": "minReservedBps",
      "outputs": [
        {
          "internalType": "uint256",
          "name": "",
          "type": "uint256"
        }
      ],
      "stateMutability": "view",
      "type": "function"
    },
    {
      "inputs": [],
      "name": "name",
      "outputs": [
        {
          "internalType": "string",
          "name": "",
          "type": "string"
        }
      ],
      "stateMutability": "view",
      "type": "function"
    },
    {
      "inputs": [],
      "name": "owner",
      "outputs": [
        {
          "internalType": "address",
          "name": "",
          "type": "address"
        }
      ],
      "stateMutability": "view",
      "type": "function"
    },
    {
      "inputs": [
        {
          "internalType": "uint256",
          "name": "minPaidInterest",
          "type": "uint256"
        }
      ],
      "name": "payInterest",
      "outputs": [],
      "stateMutability": "payable",
      "type": "function"
    },
    {
      "inputs": [
        {
          "internalType": "address",
          "name": "user",
          "type": "address"
        },
        {
          "internalType": "uint256",
          "name": "amount",
          "type": "uint256"
        }
      ],
      "name": "pendRepay",
      "outputs": [
        {
          "internalType": "uint256",
          "name": "pendingDebtShare",
          "type": "uint256"
        }
      ],
      "stateMutability": "nonpayable",
      "type": "function"
    },
    {
      "inputs": [
        {
          "internalType": "uint256",
          "name": "amount",
          "type": "uint256"
        }
      ],
      "name": "pendingDebtAmountToShare",
      "outputs": [
        {
          "internalType": "uint256",
          "name": "",
          "type": "uint256"
        }
      ],
      "stateMutability": "view",
      "type": "function"
    },
    {
      "inputs": [
        {
          "internalType": "address",
          "name": "",
          "type": "address"
        }
      ],
      "name": "pendingDebtShareOf",
      "outputs": [
        {
          "internalType": "uint256",
          "name": "",
          "type": "uint256"
        }
      ],
      "stateMutability": "view",
      "type": "function"
    },
    {
      "inputs": [
        {
          "internalType": "uint256",
          "name": "share",
          "type": "uint256"
        }
      ],
      "name": "pendingDebtShareToAmount",
      "outputs": [
        {
          "internalType": "uint256",
          "name": "",
          "type": "uint256"
        }
      ],
      "stateMutability": "view",
      "type": "function"
    },
    {
      "inputs": [],
      "name": "renounceOwnership",
      "outputs": [],
      "stateMutability": "nonpayable",
      "type": "function"
    },
    {
      "inputs": [
        {
          "internalType": "address",
          "name": "user",
          "type": "address"
        },
        {
          "internalType": "uint256",
          "name": "minRepaid",
          "type": "uint256"
        }
      ],
      "name": "repayInBase",
      "outputs": [
        {
          "internalType": "uint256",
          "name": "repaid",
          "type": "uint256"
        }
      ],
      "stateMutability": "payable",
      "type": "function"
    },
    {
      "inputs": [
        {
          "internalType": "address",
          "name": "user",
          "type": "address"
        },
        {
          "internalType": "uint256",
          "name": "amount",
          "type": "uint256"
        }
      ],
      "name": "repayInToken",
      "outputs": [],
      "stateMutability": "nonpayable",
      "type": "function"
    },
    {
      "inputs": [
        {
          "internalType": "address",
          "name": "user",
          "type": "address"
        }
      ],
      "name": "repayPendingDebt",
      "outputs": [
        {
          "internalType": "uint256",
          "name": "remained",
          "type": "uint256"
        }
      ],
      "stateMutability": "payable",
      "type": "function"
    },
    {
      "inputs": [
        {
          "internalType": "uint256",
          "name": "share",
          "type": "uint256"
        }
      ],
      "name": "shareToAmount",
      "outputs": [
        {
          "internalType": "uint256",
          "name": "",
          "type": "uint256"
        }
      ],
      "stateMutability": "view",
      "type": "function"
    },
    {
      "inputs": [],
      "name": "stayking",
      "outputs": [
        {
          "internalType": "address",
          "name": "",
          "type": "address"
        }
      ],
      "stateMutability": "view",
      "type": "function"
    },
    {
      "inputs": [],
      "name": "swapHelper",
      "outputs": [
        {
          "internalType": "contract ISwapHelper",
          "name": "",
          "type": "address"
        }
      ],
      "stateMutability": "view",
      "type": "function"
    },
    {
      "inputs": [],
      "name": "symbol",
      "outputs": [
        {
          "internalType": "string",
          "name": "",
          "type": "string"
        }
      ],
      "stateMutability": "view",
      "type": "function"
    },
    {
      "inputs": [
        {
          "internalType": "address",
          "name": "from",
          "type": "address"
        },
        {
          "internalType": "uint256",
          "name": "amount",
          "type": "uint256"
        }
      ],
      "name": "takeDebtOwnership",
      "outputs": [],
      "stateMutability": "nonpayable",
      "type": "function"
    },
    {
      "inputs": [],
      "name": "token",
      "outputs": [
        {
          "internalType": "address",
          "name": "",
          "type": "address"
        }
      ],
      "stateMutability": "view",
      "type": "function"
    },
    {
      "inputs": [],
      "name": "totalAmount",
      "outputs": [
        {
          "internalType": "uint256",
          "name": "",
          "type": "uint256"
        }
      ],
      "stateMutability": "view",
      "type": "function"
    },
    {
      "inputs": [],
      "name": "totalDebtAmount",
      "outputs": [
        {
          "internalType": "uint256",
          "name": "",
          "type": "uint256"
        }
      ],
      "stateMutability": "view",
      "type": "function"
    },
    {
      "inputs": [],
      "name": "totalPendingDebtAmount",
      "outputs": [
        {
          "internalType": "uint256",
          "name": "",
          "type": "uint256"
        }
      ],
      "stateMutability": "view",
      "type": "function"
    },
    {
      "inputs": [],
      "name": "totalPendingDebtShare",
      "outputs": [
        {
          "internalType": "uint256",
          "name": "",
          "type": "uint256"
        }
      ],
      "stateMutability": "view",
      "type": "function"
    },
    {
      "inputs": [],
      "name": "totalStakedDebtAmount",
      "outputs": [
        {
          "internalType": "uint256",
          "name": "",
          "type": "uint256"
        }
      ],
      "stateMutability": "view",
      "type": "function"
    },
    {
      "inputs": [],
      "name": "totalSupply",
      "outputs": [
        {
          "internalType": "uint256",
          "name": "",
          "type": "uint256"
        }
      ],
      "stateMutability": "view",
      "type": "function"
    },
    {
      "inputs": [
        {
          "internalType": "address",
          "name": "to",
          "type": "address"
        },
        {
          "internalType": "uint256",
          "name": "amount",
          "type": "uint256"
        }
      ],
      "name": "transfer",
      "outputs": [
        {
          "internalType": "bool",
          "name": "",
          "type": "bool"
        }
      ],
      "stateMutability": "nonpayable",
      "type": "function"
    },
    {
      "inputs": [
        {
          "internalType": "address",
          "name": "from",
          "type": "address"
        },
        {
          "internalType": "address",
          "name": "to",
          "type": "address"
        },
        {
          "internalType": "uint256",
          "name": "amount",
          "type": "uint256"
        }
      ],
      "name": "transferFrom",
      "outputs": [
        {
          "internalType": "bool",
          "name": "",
          "type": "bool"
        }
      ],
      "stateMutability": "nonpayable",
      "type": "function"
    },
    {
      "inputs": [
        {
          "internalType": "address",
          "name": "newOwner",
          "type": "address"
        }
      ],
      "name": "transferOwnership",
      "outputs": [],
      "stateMutability": "nonpayable",
      "type": "function"
    },
    {
      "inputs": [
        {
          "internalType": "address",
          "name": "_interestModel",
          "type": "address"
        }
      ],
      "name": "updateInterestModel",
      "outputs": [],
      "stateMutability": "nonpayable",
      "type": "function"
    },
    {
      "inputs": [
        {
          "internalType": "uint256",
          "name": "_minReservedBps",
          "type": "uint256"
        }
      ],
      "name": "updateMinReservedBps",
      "outputs": [],
      "stateMutability": "nonpayable",
      "type": "function"
    },
    {
      "inputs": [
        {
          "internalType": "address",
          "name": "_swapHelper",
          "type": "address"
        }
      ],
      "name": "updateSwapHelper",
      "outputs": [],
      "stateMutability": "nonpayable",
      "type": "function"
    },
    {
      "inputs": [],
      "name": "utilizationRateBps",
      "outputs": [
        {
          "internalType": "uint256",
          "name": "",
          "type": "uint256"
        }
      ],
      "stateMutability": "view",
      "type": "function"
    },
    {
      "inputs": [
        {
          "internalType": "uint256",
          "name": "share",
          "type": "uint256"
        }
      ],
      "name": "withdraw",
      "outputs": [
        {
          "internalType": "uint256",
          "name": "amount",
          "type": "uint256"
        }
      ],
      "stateMutability": "nonpayable",
      "type": "function"
    },
    {
      "stateMutability": "payable",
      "type": "receive"
    }
  ],
  "transactionHash": "0xe1b9b5da0c3a5d1c271d06ba5455c0167bf7687352cb8d5a4bc5cfa0d55bd84a",
  "args": [],
  "numDeployments": 2,
  "solcInputHash": "f26cc2e2892ddf1a6ec0c1c2a516afdd",
  "bytecode": "0x608060405234801561001057600080fd5b50613161806100206000396000f3fe6080604052600436106103605760003560e01c80636819862f116101c4578063b9529e9f116100f6578063dafbdba81161009a578063eab329811161006c578063eab3298114610a3f578063f2fde38b14610a5f578063f8ba4cff14610a7f578063fc0c546a14610a9457005b8063dafbdba8146109c9578063dd62ed3e146109df578063e18c5131146109ff578063e6d7059a14610a1f57005b8063c4b8db46116100d3578063c4b8db4614610913578063c8dffa951461097e578063d9ecd8d314610993578063da45ec7e146109b357005b8063b9529e9f146108b3578063b95d4ae1146108d3578063c4809798146108f357005b806395d89b4111610168578063a9059cbb1161013a578063a9059cbb14610840578063ac165d7a14610860578063ad452d7514610880578063b6b55f251461089357005b806395d89b41146107e2578063963a4d96146107f75780639d2e6fcb1461080d578063a457c2d71461082057005b8063724e5910116101a1578063724e5910146107575780638122af77146107775780638da5cb5b146107a457806395d6abf8146107c257005b80636819862f146106f957806370a082311461070c578063715018a61461074257005b80631ce9ba361161029d5780633d7d31fc116102415780635483067d116102135780635483067d146106815780635e181ec6146106975780635eeff101146106ac5780636592183b146106cc57005b80633d7d31fc146106175780633f2b97231461062c578063494e42f41461064c5780635257b5661461066c57005b80632d6f80131161027a5780632d6f80131461059b5780632e1a7d4d146105bb578063313ce567146105db57806339509351146105f757005b80631ce9ba361461053b57806323b872dd1461055b5780632d4047e51461057b57005b8063131829151161030457806318160ddd116102e157806318160ddd146104d1578063185cc751146104e65780631a39d8ef146105065780631a4e1aef1461051b57005b8063131829151461047b57806315d6dae91461049b57806316f2c005146104bb57005b8063095ea7b31161033d578063095ea7b3146103c95780630ed5236d146103f95780630efc51a7146104235780630fc6a11c1461044357005b806303d98c1f1461036957806306fdde0314610391578063072481e3146103b357005b3661036757005b005b34801561037557600080fd5b5061037e610ab4565b6040519081526020015b60405180910390f35b34801561039d57600080fd5b506103a6610af3565b6040516103889190612f69565b3480156103bf57600080fd5b5061037e609f5481565b3480156103d557600080fd5b506103e96103e4366004612df8565b610b85565b6040519015158152602001610388565b34801561040557600080fd5b5061040e610b9f565b60408051928352602083019190915201610388565b34801561042f57600080fd5b5061037e61043e366004612ef9565b610d1f565b34801561044f57600080fd5b50609754610463906001600160a01b031681565b6040516001600160a01b039091168152602001610388565b34801561048757600080fd5b50610367610496366004612d71565b610dab565b3480156104a757600080fd5b5061037e6104b6366004612ef9565b610dd5565b3480156104c757600080fd5b5061037e60a05481565b3480156104dd57600080fd5b5060355461037e565b3480156104f257600080fd5b5061037e610501366004612df8565b610e0f565b34801561051257600080fd5b5061037e610fd4565b34801561052757600080fd5b5061037e610536366004612df8565b611068565b34801561054757600080fd5b5061037e610556366004612ef9565b6111b4565b34801561056757600080fd5b506103e9610576366004612dbd565b6111e4565b34801561058757600080fd5b5061037e610596366004612ef9565b611208565b3480156105a757600080fd5b5061037e6105b6366004612ef9565b611248565b3480156105c757600080fd5b5061037e6105d6366004612ef9565b611266565b3480156105e757600080fd5b5060405160128152602001610388565b34801561060357600080fd5b506103e9610612366004612df8565b6112e3565b34801561062357600080fd5b5061037e611305565b34801561063857600080fd5b50610367610647366004612d71565b611321565b34801561065857600080fd5b50610367610667366004612ef9565b61134b565b34801561067857600080fd5b5061037e611358565b34801561068d57600080fd5b5061037e60a15481565b3480156106a357600080fd5b5061037e611463565b3480156106b857600080fd5b5061037e6106c7366004612d71565b6114ce565b3480156106d857600080fd5b5061037e6106e7366004612d71565b609b6020526000908152604090205481565b61037e610707366004612d71565b6114dc565b34801561071857600080fd5b5061037e610727366004612d71565b6001600160a01b031660009081526033602052604090205490565b34801561074e57600080fd5b50610367611598565b34801561076357600080fd5b50610367610772366004612df8565b6115ac565b34801561078357600080fd5b5061037e610792366004612d71565b609d6020526000908152604090205481565b3480156107b057600080fd5b506065546001600160a01b0316610463565b3480156107ce57600080fd5b5061037e6107dd366004612ef9565b6115fc565b3480156107ee57600080fd5b506103a6611636565b34801561080357600080fd5b5061037e609c5481565b61037e61081b366004612df8565b611645565b34801561082c57600080fd5b506103e961083b366004612df8565b611688565b34801561084c57600080fd5b506103e961085b366004612df8565b611703565b34801561086c57600080fd5b50609a54610463906001600160a01b031681565b61036761088e366004612ef9565b611711565b34801561089f57600080fd5b5061037e6108ae366004612ef9565b6118b6565b3480156108bf57600080fd5b506103676108ce366004612df8565b61192c565b3480156108df57600080fd5b5061037e6108ee366004612d71565b611a40565b3480156108ff57600080fd5b5061037e61090e366004612ef9565b611a62565b34801561091f57600080fd5b5060a35460a45460a55460a65461094a939291906001600160801b0380821691600160801b90041685565b604080519586526020860194909452928401919091526001600160801b03908116606084015216608082015260a001610388565b34801561098a57600080fd5b5061037e611a7f565b34801561099f57600080fd5b506103676109ae366004612e41565b611a91565b3480156109bf57600080fd5b5061037e60a25481565b3480156109d557600080fd5b5061037e609e5481565b3480156109eb57600080fd5b5061037e6109fa366004612d8b565b611d6b565b348015610a0b57600080fd5b5061037e610a1a366004612d71565b611d96565b348015610a2b57600080fd5b5061037e610a3a366004612ef9565b611db8565b348015610a4b57600080fd5b50609954610463906001600160a01b031681565b348015610a6b57600080fd5b50610367610a7a366004612d71565b611df4565b348015610a8b57600080fd5b50610367611e6d565b348015610aa057600080fd5b50609854610463906001600160a01b031681565b600080610abf610fd4565b905080610ace57600091505090565b80610ad7611a7f565b610ae390612710613056565b610aed9190613036565b91505090565b606060368054610b02906130e0565b80601f0160208091040260200160405190810160405280929190818152602001828054610b2e906130e0565b8015610b7b5780601f10610b5057610100808354040283529160200191610b7b565b820191906000526020600020905b815481529060010190602001808311610b5e57829003601f168201915b5050505050905090565b600033610b93818585611e75565b60019150505b92915050565b6000806000610bac610fd4565b905080610bbe57506000928392509050565b80610bc7611358565b610bd390612710613056565b610be1906301e13380613056565b610beb9190613036565b9250609960009054906101000a90046001600160a01b03166001600160a01b0316631a39d8ef6040518163ffffffff1660e01b815260040160206040518083038186803b158015610c3b57600080fd5b505afa158015610c4f573d6000803e3d6000fd5b505050506040513d601f19601f82011682018060405250810190610c739190612f11565b609960009054906101000a90046001600160a01b03166001600160a01b031663fc8389956040518163ffffffff1660e01b815260040160206040518083038186803b158015610cc157600080fd5b505afa158015610cd5573d6000803e3d6000fd5b505050506040513d601f19601f82011682018060405250810190610cf99190612f11565b610d04609c546115fc565b610d0e9190613056565b610d189190613036565b9150509091565b609754609854604051633ee777f760e11b81526000926001600160a01b0390811692637dceefee92610d5b929091169085908790600401612f45565b60206040518083038186803b158015610d7357600080fd5b505afa158015610d87573d6000803e3d6000fd5b505050506040513d601f19601f82011682018060405250810190610b999190612f11565b610db3611f99565b609a80546001600160a01b0319166001600160a01b0392909216919091179055565b609754609854604051634f119bbd60e01b81526000926001600160a01b0390811692634f119bbd92610d5b92869216908790600401612f45565b6099546000906001600160a01b03163314610e455760405162461bcd60e51b8152600401610e3c90612f9c565b60405180910390fd5b610e4d611ff3565b6001600160a01b038316610ea35760405162461bcd60e51b815260206004820152601f60248201527f6c6f616e3a207a65726f20616464726573732063616e6e6f74206c6f616e2e006044820152606401610e3c565b610eac826120b7565b6001600160a01b0384166000908152609b6020526040812080549293508392909190610ed990849061301e565b9250508190555080609c6000828254610ef2919061301e565b909155505060a054610f069061271061309d565b610f0e610fd4565b610f189190613056565b609f54609c54610f28919061301e565b610f3490612710613056565b1115610f825760405162461bcd60e51b815260206004820152601e60248201527f4c6f616e3a2043616e7427206c6f616e206465627420616e796d6f72652e00006044820152606401610e3c565b610f8c338361217e565b604080516001600160a01b0385168152602081018390527f1db23cf53464267c45324569941e81e23d29c48ff9be2b35af2cc0a2681159d6910160405180910390a192915050565b6000610fde611a7f565b6098546040516370a0823160e01b81523060048201526001600160a01b03909116906370a082319060240160206040518083038186803b15801561102157600080fd5b505afa158015611035573d6000803e3d6000fd5b505050506040513d601f19601f820116820180604052508101906110599190612f11565b611063919061301e565b905090565b6099546000906001600160a01b031633146110955760405162461bcd60e51b8152600401610e3c90612f9c565b6001600160a01b0383166000908152609b60205260409020548211156111095760405162461bcd60e51b8152602060048201526024808201527f70656e6452657061793a20746f6f206d75636820616d6f756e7420746f2072656044820152633830bc9760e11b6064820152608401610e3c565b6001600160a01b0383166000908152609b6020526040812080548490039055609c805484929061113a90849061309d565b90915550611149905082611a62565b6001600160a01b0384166000908152609d602052604081208054929350839290919061117690849061301e565b9250508190555080609e600082825461118f919061301e565b9250508190555081609f60008282546111a8919061301e565b90915550909392505050565b6000609e546000146111e057609e5482609f546111d19190613056565b6111db9190613036565b610b99565b5090565b6000336111f2858285612235565b6111fd8585856122af565b506001949350505050565b600080611213610fd4565b9050801561123f57808361122660355490565b6112309190613056565b61123a9190613036565b611241565b825b9392505050565b60008061125460355490565b9050801561123f578083611226610fd4565b6000611270611ff3565b61127982611248565b9050611285338361247d565b60985461129c906001600160a01b031633836125cb565b60408051338152602081018390529081018390527ff279e6a1f5e320cca91135676d9cb6e44ca8a08c0b88342bcdb1144f6511b568906060015b60405180910390a1919050565b600033610b938185856112f68383611d6b565b611300919061301e565b611e75565b60008060a254116113165750600090565b61106360a2546115fc565b611329611f99565b609780546001600160a01b0319166001600160a01b0392909216919091179055565b611353611f99565b60a055565b609a546000906001600160a01b031663d4a99bbb611374611a7f565b6098546040516370a0823160e01b81523060048201526001600160a01b03909116906370a082319060240160206040518083038186803b1580156113b757600080fd5b505afa1580156113cb573d6000803e3d6000fd5b505050506040513d601f19601f820116820180604052508101906113ef9190612f11565b6040516001600160e01b031960e085901b1681526004810192909252602482015260440160206040518083038186803b15801561142b57600080fd5b505afa15801561143f573d6000803e3d6000fd5b505050506040513d601f19601f820116820180604052508101906110639190612f11565b60a4546000901580611485575060a654600160801b90046001600160801b0316155b156114905750600090565b60a65460a45460a554600160801b9092046001600160801b0316916114ba9064496cebb800613056565b6114c49190613036565b6110639190613036565b6000610b996107dd83611d96565b6000806114e883611d96565b905060006114f5826115fc565b90508034111561153e5761150981836126d6565b506001600160a01b0384166000908152609d602052604081205561152d813461309d565b9250611539338461217e565b611591565b600061154b3460016126d6565b9050600061155882611a62565b6001600160a01b0387166000908152609d602052604081208054929350839290919061158590849061309d565b90915550600095505050505b5050919050565b6115a0611f99565b6115aa6000612773565b565b6099546001600160a01b031633146115d65760405162461bcd60e51b8152600401610e3c90612f9c565b6098546115ee906001600160a01b03168330846127c5565b6115f882826128d9565b5050565b609754609854604051633ee777f760e11b81526000926001600160a01b0390811692637dceefee92610d5b92869216908790600401612f45565b606060378054610b02906130e0565b6099546000906001600160a01b031633146116725760405162461bcd60e51b8152600401610e3c90612f9c565b61167c34836126d6565b9050610b9983826128d9565b600033816116968286611d6b565b9050838110156116f65760405162461bcd60e51b815260206004820152602560248201527f45524332303a2064656372656173656420616c6c6f77616e63652062656c6f77604482015264207a65726f60d81b6064820152608401610e3c565b6111fd8286868403611e75565b600033610b938185856122af565b6099546001600160a01b0316331461173b5760405162461bcd60e51b8152600401610e3c90612f9c565b611743611ff3565b60a6546001600160801b0316421161179d5760405162461bcd60e51b815260206004820152601a60248201527f706179496e7465726573743a20616c726561647920706169642e0000000000006044820152606401610e3c565b60006117a934836126d6565b90506117b3611a7f565b60a3556117be610fd4565b60a45560a6546117d7906001600160801b031642613075565b426001600160801b039081169116600160801b026fffffffffffffffffffffffffffffffff19161760a65560a581905560a2548111156118615760a2547f57546d41506d4d7643c2ea350647fa3d6ada23d1de3afa7a32496df9b7686bc090611840818461309d565b6040805192835260208301919091520160405180910390a1600060a2555050565b8060a26000828254611873919061309d565b909155505060408051828152600060208201527f57546d41506d4d7643c2ea350647fa3d6ada23d1de3afa7a32496df9b7686bc091015b60405180910390a15050565b60006118c0611ff3565b6118c982611208565b6098549091506118e4906001600160a01b03163330856127c5565b6118ee33826129be565b60408051338152602081018490529081018290527f90890809c654f11d6e72a28fa60149770a0d11ec6c92319d6ceb2bb0a4ea1a15906060016112d6565b6099546001600160a01b031633146119565760405162461bcd60e51b8152600401610e3c90612f9c565b6001600160a01b0382166000908152609b60205260409020548111156119d25760405162461bcd60e51b815260206004820152602b60248201527f74616b65446562744f776e6572736869703a20746f6f206d75636820616d6f7560448201526a373a103a37903a30b5b29760a91b6064820152608401610e3c565b6001600160a01b0382166000908152609b60205260408082208054849003905533825281208054839290611a0790849061301e565b90915550506040517f80caff6c1c70cc823c773c968ebdab44b7dc12da8117b4634b5f3eb78b07011e906118aa90849033908590612f45565b6001600160a01b0381166000908152609b6020526040812054610b99906115fc565b6000609f546000146111e057609f5482609e546111d19190613056565b6000609f54609c54611063919061301e565b600054610100900460ff1615808015611ab15750600054600160ff909116105b80611acb5750303b158015611acb575060005460ff166001145b611b2e5760405162461bcd60e51b815260206004820152602e60248201527f496e697469616c697a61626c653a20636f6e747261637420697320616c72656160448201526d191e481a5b9a5d1a585b1a5e995960921b6064820152608401610e3c565b6000805460ff191660011790558015611b51576000805461ff0019166101001790555b6001600160a01b038516611ba75760405162461bcd60e51b815260206004820152601f60248201527f5661756c743a20537461796b696e672061646472657373206973207a65726f006044820152606401610e3c565b6001600160a01b038416611c075760405162461bcd60e51b815260206004820152602160248201527f5661756c743a204261736520546f6b656e206973207a65726f206164647265736044820152607360f81b6064820152608401610e3c565b611c7a8a8a8080601f01602080910402602001604051908101604052809392919081815260200183838082843760009201919091525050604080516020601f8e018190048102820181019092528c815292508c91508b9081908401838280828437600092019190915250612a9d92505050565b611c82612ace565b609880546001600160a01b038087166001600160a01b03199283161790925560998054928816929091169190911790554260a155611cbf8261134b565b611cc883610dab565b611cd186611321565b6040805160a0810182526000808252602082018190529181018290526001600160801b03421660608201819052608090910182905260a382905560a482905560a59190915560a6558015611d5f576000805461ff0019169055604051600181527f7f26b83ff96e1f2b6a682f133852f6798a09c465da95921460cefb38474024989060200160405180910390a15b50505050505050505050565b6001600160a01b03918216600090815260346020908152604080832093909416825291909152205490565b6001600160a01b0381166000908152609d6020526040812054610b99906111b4565b609754609854604051634f119bbd60e01b81526000926001600160a01b0390811692634f119bbd92610d5b929091169085908790600401612f45565b611dfc611f99565b6001600160a01b038116611e615760405162461bcd60e51b815260206004820152602660248201527f4f776e61626c653a206e6577206f776e657220697320746865207a65726f206160448201526564647265737360d01b6064820152608401610e3c565b611e6a81612773565b50565b6115aa611ff3565b6001600160a01b038316611ed75760405162461bcd60e51b8152602060048201526024808201527f45524332303a20617070726f76652066726f6d20746865207a65726f206164646044820152637265737360e01b6064820152608401610e3c565b6001600160a01b038216611f385760405162461bcd60e51b815260206004820152602260248201527f45524332303a20617070726f766520746f20746865207a65726f206164647265604482015261737360f01b6064820152608401610e3c565b6001600160a01b0383811660008181526034602090815260408083209487168084529482529182902085905590518481527f8c5be1e5ebec7d5bd14f71427d1e84f3dd0314c0f7b2291e5b200ac8c7c3b925910160405180910390a3505050565b6065546001600160a01b031633146115aa5760405162461bcd60e51b815260206004820181905260248201527f4f776e61626c653a2063616c6c6572206973206e6f7420746865206f776e65726044820152606401610e3c565b60a1544211611ffe57565b600060a1544261200e919061309d565b90506000670de0b6b3a764000082609c54612027611358565b6120319190613056565b61203b9190613056565b6120459190613036565b90508060a26000828254612059919061301e565b925050819055506000670de0b6b3a764000083609f54612077611358565b6120819190613056565b61208b9190613056565b6120959190613036565b905080609f60008282546120a9919061301e565b90915550504260a155505050565b60006120c282610d1f565b6098546097549192506120e2916001600160a01b03918216911683612afd565b609754609854604051630ed2fc9560e01b81526001600160a01b039182166004820152600060248201526044810184905260648101859052911690630ed2fc9590608401602060405180830381600087803b15801561214057600080fd5b505af1158015612154573d6000803e3d6000fd5b505050506040513d601f19601f820116820180604052508101906121789190612f11565b50919050565b604080516000808252602082019092526001600160a01b0384169083906040516121a89190612f29565b60006040518083038185875af1925050503d80600081146121e5576040519150601f19603f3d011682016040523d82523d6000602084013e6121ea565b606091505b50509050806122305760405162461bcd60e51b815260206004820152601260248201527121736166655472616e7366657245564d4f5360701b6044820152606401610e3c565b505050565b60006122418484611d6b565b905060001981146122a9578181101561229c5760405162461bcd60e51b815260206004820152601d60248201527f45524332303a20696e73756666696369656e7420616c6c6f77616e63650000006044820152606401610e3c565b6122a98484848403611e75565b50505050565b6001600160a01b0383166123135760405162461bcd60e51b815260206004820152602560248201527f45524332303a207472616e736665722066726f6d20746865207a65726f206164604482015264647265737360d81b6064820152608401610e3c565b6001600160a01b0382166123755760405162461bcd60e51b815260206004820152602360248201527f45524332303a207472616e7366657220746f20746865207a65726f206164647260448201526265737360e81b6064820152608401610e3c565b6001600160a01b038316600090815260336020526040902054818110156123ed5760405162461bcd60e51b815260206004820152602660248201527f45524332303a207472616e7366657220616d6f756e7420657863656564732062604482015265616c616e636560d01b6064820152608401610e3c565b6001600160a01b0380851660009081526033602052604080822085850390559185168152908120805484929061242490849061301e565b92505081905550826001600160a01b0316846001600160a01b03167fddf252ad1be2c89b69c2b068fc378daa952ba7f163c4a11628f55a4df523b3ef8460405161247091815260200190565b60405180910390a36122a9565b6001600160a01b0382166124dd5760405162461bcd60e51b815260206004820152602160248201527f45524332303a206275726e2066726f6d20746865207a65726f206164647265736044820152607360f81b6064820152608401610e3c565b6001600160a01b038216600090815260336020526040902054818110156125515760405162461bcd60e51b815260206004820152602260248201527f45524332303a206275726e20616d6f756e7420657863656564732062616c616e604482015261636560f01b6064820152608401610e3c565b6001600160a01b038316600090815260336020526040812083830390556035805484929061258090849061309d565b90915550506040518281526000906001600160a01b038516907fddf252ad1be2c89b69c2b068fc378daa952ba7f163c4a11628f55a4df523b3ef9060200160405180910390a3505050565b604080516001600160a01b038481166024830152604480830185905283518084039091018152606490920183526020820180516001600160e01b031663a9059cbb60e01b17905291516000928392908716916126279190612f29565b6000604051808303816000865af19150503d8060008114612664576040519150601f19603f3d011682016040523d82523d6000602084013e612669565b606091505b50915091508180156126935750805115806126935750808060200190518101906126939190612e21565b6126cf5760405162461bcd60e51b815260206004820152600d60248201526c10b9b0b332aa3930b739b332b960991b6044820152606401610e3c565b5050505050565b609754609854604051630ed2fc9560e01b81526000600482018190526001600160a01b0392831660248301526044820186905260648201859052929190911690630ed2fc959085906084016020604051808303818588803b15801561273a57600080fd5b505af115801561274e573d6000803e3d6000fd5b50505050506040513d601f19601f820116820180604052508101906112419190612f11565b606580546001600160a01b038381166001600160a01b0319831681179093556040519116919082907f8be0079c531659141344cd1fd0a4f28419497f9722a3daafe3b4186f6b6457e090600090a35050565b600080856001600160a01b03166323b872dd8686866040516024016127ec93929190612f45565b6040516020818303038152906040529060e01b6020820180516001600160e01b0383818316178352505050506040516128259190612f29565b6000604051808303816000865af19150503d8060008114612862576040519150601f19603f3d011682016040523d82523d6000602084013e612867565b606091505b50915091508180156128915750805115806128915750808060200190518101906128919190612e21565b6128d15760405162461bcd60e51b815260206004820152601160248201527021736166655472616e7366657246726f6d60781b6044820152606401610e3c565b505050505050565b6128e1611ff3565b6001600160a01b0382166000908152609b60205260409020548111156129495760405162461bcd60e51b815260206004820181905260248201527f72657061793a20746f6f206d75636820616d6f756e7420746f2072657061792e6044820152606401610e3c565b6001600160a01b0382166000908152609b6020526040812080548390039055609c805483929061297a90849061309d565b9091555050604080516001600160a01b0384168152602081018390527f5c16de4f8b59bd9caf0f49a545f25819a895ed223294290b408242e72a59423191016118aa565b6001600160a01b038216612a145760405162461bcd60e51b815260206004820152601f60248201527f45524332303a206d696e7420746f20746865207a65726f2061646472657373006044820152606401610e3c565b8060356000828254612a26919061301e565b90915550506001600160a01b03821660009081526033602052604081208054839290612a5390849061301e565b90915550506040518181526001600160a01b038316906000907fddf252ad1be2c89b69c2b068fc378daa952ba7f163c4a11628f55a4df523b3ef9060200160405180910390a35050565b600054610100900460ff16612ac45760405162461bcd60e51b8152600401610e3c90612fd3565b6115f88282612c00565b600054610100900460ff16612af55760405162461bcd60e51b8152600401610e3c90612fd3565b6115aa612c4e565b604080516001600160a01b038481166024830152604480830185905283518084039091018152606490920183526020820180516001600160e01b031663095ea7b360e01b1790529151600092839290871691612b599190612f29565b6000604051808303816000865af19150503d8060008114612b96576040519150601f19603f3d011682016040523d82523d6000602084013e612b9b565b606091505b5091509150818015612bc5575080511580612bc5575080806020019051810190612bc59190612e21565b6126cf5760405162461bcd60e51b815260206004820152600c60248201526b2173616665417070726f766560a01b6044820152606401610e3c565b600054610100900460ff16612c275760405162461bcd60e51b8152600401610e3c90612fd3565b8151612c3a906036906020850190612c7e565b508051612230906037906020840190612c7e565b600054610100900460ff16612c755760405162461bcd60e51b8152600401610e3c90612fd3565b6115aa33612773565b828054612c8a906130e0565b90600052602060002090601f016020900481019282612cac5760008555612cf2565b82601f10612cc557805160ff1916838001178555612cf2565b82800160010185558215612cf2579182015b82811115612cf2578251825591602001919060010190612cd7565b506111e09291505b808211156111e05760008155600101612cfa565b80356001600160a01b0381168114612d2557600080fd5b919050565b60008083601f840112612d3b578182fd5b50813567ffffffffffffffff811115612d52578182fd5b602083019150836020828501011115612d6a57600080fd5b9250929050565b600060208284031215612d82578081fd5b61124182612d0e565b60008060408385031215612d9d578081fd5b612da683612d0e565b9150612db460208401612d0e565b90509250929050565b600080600060608486031215612dd1578081fd5b612dda84612d0e565b9250612de860208501612d0e565b9150604084013590509250925092565b60008060408385031215612e0a578182fd5b612e1383612d0e565b946020939093013593505050565b600060208284031215612e32578081fd5b81518015158114611241578182fd5b600080600080600080600080600060e08a8c031215612e5e578485fd5b893567ffffffffffffffff80821115612e75578687fd5b612e818d838e01612d2a565b909b50995060208c0135915080821115612e99578687fd5b50612ea68c828d01612d2a565b9098509650612eb9905060408b01612d0e565b9450612ec760608b01612d0e565b9350612ed560808b01612d0e565b9250612ee360a08b01612d0e565b915060c08a013590509295985092959850929598565b600060208284031215612f0a578081fd5b5035919050565b600060208284031215612f22578081fd5b5051919050565b60008251612f3b8184602087016130b4565b9190910192915050565b6001600160a01b039384168152919092166020820152604081019190915260600190565b6020815260008251806020840152612f888160408501602087016130b4565b601f01601f19169190910160400192915050565b6020808252601d908201527f5661756c743a204e6f7420537461796b696e6720636f6e74726163742e000000604082015260600190565b6020808252602b908201527f496e697469616c697a61626c653a20636f6e7472616374206973206e6f74206960408201526a6e697469616c697a696e6760a81b606082015260800190565b6000821982111561303157613031613115565b500190565b60008261305157634e487b7160e01b81526012600452602481fd5b500490565b600081600019048311821515161561307057613070613115565b500290565b60006001600160801b038381169083168181101561309557613095613115565b039392505050565b6000828210156130af576130af613115565b500390565b60005b838110156130cf5781810151838201526020016130b7565b838111156122a95750506000910152565b600181811c908216806130f457607f821691505b6020821081141561217857634e487b7160e01b600052602260045260246000fd5b634e487b7160e01b600052601160045260246000fdfea26469706673582212207a33e21e09845782179a804a72cafe837a4a71fa6db2b8728eb6bece21c10abd64736f6c63430008040033",
  "devdoc": {
    "kind": "dev",
    "methods": {
      "accrue()": {
        "details": "for test -> should be REMOVED"
      },
      "allowance(address,address)": {
        "details": "See {IERC20-allowance}."
      },
      "approve(address,uint256)": {
        "details": "See {IERC20-approve}. NOTE: If `amount` is the maximum `uint256`, the allowance is not updated on `transferFrom`. This is semantically equivalent to an infinite approval. Requirements: - `spender` cannot be the zero address."
      },
      "balanceOf(address)": {
        "details": "See {IERC20-balanceOf}."
      },
      "decimals()": {
        "details": "Returns the number of decimals used to get its user representation. For example, if `decimals` equals `2`, a balance of `505` tokens should be displayed to a user as `5.05` (`505 / 10 ** 2`). Tokens usually opt for a value of 18, imitating the relationship between Ether and Wei. This is the value {ERC20} uses, unless this function is overridden; NOTE: This information is only used for _display_ purposes: it in no way affects any of the arithmetic of the contract, including {IERC20-balanceOf} and {IERC20-transfer}."
      },
      "decreaseAllowance(address,uint256)": {
        "details": "Atomically decreases the allowance granted to `spender` by the caller. This is an alternative to {approve} that can be used as a mitigation for problems described in {IERC20-approve}. Emits an {Approval} event indicating the updated allowance. Requirements: - `spender` cannot be the zero address. - `spender` must have allowance for the caller of at least `subtractedValue`."
      },
      "getBaseIn(uint256)": {
        "details": "calc (?)EVMOS = $ token"
      },
      "getBaseOut(uint256)": {
        "details": "calc $ token = (?)EVMOS"
      },
      "getInterestInBase()": {
        "details": "calculate interest (1 day) in base (EVMOS)"
      },
      "getInterestRate()": {
        "details": "denominator = 1E18 "
      },
      "getTokenIn(uint256)": {
        "details": "calc (?)token = $ EVMOS"
      },
      "getTokenOut(uint256)": {
        "details": "calc $ EVMOS = (?)token"
      },
      "increaseAllowance(address,uint256)": {
        "details": "Atomically increases the allowance granted to `spender` by the caller. This is an alternative to {approve} that can be used as a mitigation for problems described in {IERC20-approve}. Emits an {Approval} event indicating the updated allowance. Requirements: - `spender` cannot be the zero address."
      },
      "name()": {
        "details": "Returns the name of the token."
      },
      "owner()": {
        "details": "Returns the address of the current owner."
      },
      "pendRepay(address,uint256)": {
        "details": "pending repay debt because of EVMOS Unstaking's 14 days lock. Stayking should approve token first."
      },
      "renounceOwnership()": {
        "details": "Leaves the contract without owner. It will not be possible to call `onlyOwner` functions anymore. Can only be called by the current owner. NOTE: Renouncing ownership will leave the contract without an owner, thereby removing any functionality that is only available to the owner."
      },
      "repayInBase(address,uint256)": {
        "details": "repay debt for Base token(EVMOS).",
        "params": {
          "minRepaid": "minimum repaid debtToken amonut",
          "user": "debt owner"
        }
      },
      "repayPendingDebt(address)": {
        "details": "stayking should send with msg.value(=repayingDebtInBase)"
      },
      "symbol()": {
        "details": "Returns the symbol of the token, usually a shorter version of the name."
      },
      "totalSupply()": {
        "details": "See {IERC20-totalSupply}."
      },
      "transfer(address,uint256)": {
        "details": "See {IERC20-transfer}. Requirements: - `to` cannot be the zero address. - the caller must have a balance of at least `amount`."
      },
      "transferFrom(address,address,uint256)": {
        "details": "See {IERC20-transferFrom}. Emits an {Approval} event indicating the updated allowance. This is not required by the EIP. See the note at the beginning of {ERC20}. NOTE: Does not update the allowance if the current allowance is the maximum `uint256`. Requirements: - `from` and `to` cannot be the zero address. - `from` must have a balance of at least `amount`. - the caller must have allowance for ``from``'s tokens of at least `amount`."
      },
      "transferOwnership(address)": {
        "details": "Transfers ownership of the contract to a new account (`newOwner`). Can only be called by the current owner."
      }
    },
    "stateVariables": {
      "debtAmountOf": {
        "details": "totalAmount == Token.balanceOf(this) + totalStakedDebtAmount + totalPendingDebtAmount totalShare == totalSupply()"
      }
    },
    "version": 1
  },
  "userdoc": {
    "kind": "user",
    "methods": {
      "deposit(uint256)": {
        "notice": "user approve should be preceded"
      },
      "getInterestRate()": {
        "notice": "Amount of interest paid per second"
      },
      "loan(address,uint256)": {
        "notice": "loan is only for Stayking contract."
      }
    },
    "version": 1
  },
  "storageLayout": {
    "storage": [
      {
        "astId": 2410,
        "contract": "contracts/token/Vault.sol:Vault",
        "label": "_initialized",
        "offset": 0,
        "slot": "0",
        "type": "t_uint8"
      },
      {
        "astId": 2413,
        "contract": "contracts/token/Vault.sol:Vault",
        "label": "_initializing",
        "offset": 1,
        "slot": "0",
        "type": "t_bool"
      },
      {
        "astId": 1175,
        "contract": "contracts/token/Vault.sol:Vault",
        "label": "__gap",
        "offset": 0,
        "slot": "1",
        "type": "t_array(t_uint256)50_storage"
      },
      {
        "astId": 1811,
        "contract": "contracts/token/Vault.sol:Vault",
        "label": "_balances",
        "offset": 0,
        "slot": "51",
        "type": "t_mapping(t_address,t_uint256)"
      },
      {
        "astId": 1817,
        "contract": "contracts/token/Vault.sol:Vault",
        "label": "_allowances",
        "offset": 0,
        "slot": "52",
        "type": "t_mapping(t_address,t_mapping(t_address,t_uint256))"
      },
      {
        "astId": 1819,
        "contract": "contracts/token/Vault.sol:Vault",
        "label": "_totalSupply",
        "offset": 0,
        "slot": "53",
        "type": "t_uint256"
      },
      {
        "astId": 1821,
        "contract": "contracts/token/Vault.sol:Vault",
        "label": "_name",
        "offset": 0,
        "slot": "54",
        "type": "t_string_storage"
      },
      {
        "astId": 1823,
        "contract": "contracts/token/Vault.sol:Vault",
        "label": "_symbol",
        "offset": 0,
        "slot": "55",
        "type": "t_string_storage"
      },
      {
        "astId": 2402,
        "contract": "contracts/token/Vault.sol:Vault",
        "label": "__gap",
        "offset": 0,
        "slot": "56",
        "type": "t_array(t_uint256)45_storage"
      },
      {
        "astId": 2678,
        "contract": "contracts/token/Vault.sol:Vault",
        "label": "_owner",
        "offset": 0,
        "slot": "101",
        "type": "t_address"
      },
      {
        "astId": 2798,
        "contract": "contracts/token/Vault.sol:Vault",
        "label": "__gap",
        "offset": 0,
        "slot": "102",
        "type": "t_array(t_uint256)49_storage"
      },
      {
        "astId": 6901,
        "contract": "contracts/token/Vault.sol:Vault",
        "label": "swapHelper",
        "offset": 0,
        "slot": "151",
        "type": "t_contract(ISwapHelper)577"
      },
      {
        "astId": 6904,
        "contract": "contracts/token/Vault.sol:Vault",
        "label": "token",
        "offset": 0,
        "slot": "152",
        "type": "t_address"
      },
      {
        "astId": 6907,
        "contract": "contracts/token/Vault.sol:Vault",
        "label": "stayking",
        "offset": 0,
        "slot": "153",
        "type": "t_address"
      },
      {
        "astId": 6910,
        "contract": "contracts/token/Vault.sol:Vault",
        "label": "interestModel",
        "offset": 0,
        "slot": "154",
        "type": "t_address"
      },
      {
        "astId": 6916,
        "contract": "contracts/token/Vault.sol:Vault",
        "label": "debtAmountOf",
        "offset": 0,
        "slot": "155",
        "type": "t_mapping(t_address,t_uint256)"
      },
      {
        "astId": 6919,
        "contract": "contracts/token/Vault.sol:Vault",
        "label": "totalStakedDebtAmount",
        "offset": 0,
        "slot": "156",
        "type": "t_uint256"
      },
      {
        "astId": 6923,
        "contract": "contracts/token/Vault.sol:Vault",
        "label": "pendingDebtShareOf",
        "offset": 0,
        "slot": "157",
        "type": "t_mapping(t_address,t_uint256)"
      },
      {
        "astId": 6926,
        "contract": "contracts/token/Vault.sol:Vault",
        "label": "totalPendingDebtShare",
        "offset": 0,
        "slot": "158",
        "type": "t_uint256"
      },
      {
        "astId": 6929,
        "contract": "contracts/token/Vault.sol:Vault",
        "label": "totalPendingDebtAmount",
        "offset": 0,
        "slot": "159",
        "type": "t_uint256"
      },
      {
        "astId": 6932,
        "contract": "contracts/token/Vault.sol:Vault",
        "label": "minReservedBps",
        "offset": 0,
        "slot": "160",
        "type": "t_uint256"
      },
      {
        "astId": 6935,
        "contract": "contracts/token/Vault.sol:Vault",
        "label": "lastAccruedAt",
        "offset": 0,
        "slot": "161",
        "type": "t_uint256"
      },
      {
        "astId": 6938,
        "contract": "contracts/token/Vault.sol:Vault",
        "label": "accInterest",
        "offset": 0,
        "slot": "162",
        "type": "t_uint256"
      },
      {
        "astId": 6952,
        "contract": "contracts/token/Vault.sol:Vault",
        "label": "lastPaid",
        "offset": 0,
        "slot": "163",
        "type": "t_struct(LastPaid)6949_storage"
      }
    ],
    "types": {
      "t_address": {
        "encoding": "inplace",
        "label": "address",
        "numberOfBytes": "20"
      },
      "t_array(t_uint256)45_storage": {
        "base": "t_uint256",
        "encoding": "inplace",
        "label": "uint256[45]",
        "numberOfBytes": "1440"
      },
      "t_array(t_uint256)49_storage": {
        "base": "t_uint256",
        "encoding": "inplace",
        "label": "uint256[49]",
        "numberOfBytes": "1568"
      },
      "t_array(t_uint256)50_storage": {
        "base": "t_uint256",
        "encoding": "inplace",
        "label": "uint256[50]",
        "numberOfBytes": "1600"
      },
      "t_bool": {
        "encoding": "inplace",
        "label": "bool",
        "numberOfBytes": "1"
      },
      "t_contract(ISwapHelper)577": {
        "encoding": "inplace",
        "label": "contract ISwapHelper",
        "numberOfBytes": "20"
      },
      "t_mapping(t_address,t_mapping(t_address,t_uint256))": {
        "encoding": "mapping",
        "key": "t_address",
        "label": "mapping(address => mapping(address => uint256))",
        "numberOfBytes": "32",
        "value": "t_mapping(t_address,t_uint256)"
      },
      "t_mapping(t_address,t_uint256)": {
        "encoding": "mapping",
        "key": "t_address",
        "label": "mapping(address => uint256)",
        "numberOfBytes": "32",
        "value": "t_uint256"
      },
      "t_string_storage": {
        "encoding": "bytes",
        "label": "string",
        "numberOfBytes": "32"
      },
      "t_struct(LastPaid)6949_storage": {
        "encoding": "inplace",
        "label": "struct Vault.LastPaid",
        "members": [
          {
            "astId": 6940,
            "contract": "contracts/token/Vault.sol:Vault",
            "label": "totalDebtAmount",
            "offset": 0,
            "slot": "0",
            "type": "t_uint256"
          },
          {
            "astId": 6942,
            "contract": "contracts/token/Vault.sol:Vault",
            "label": "totalAmount",
            "offset": 0,
            "slot": "1",
            "type": "t_uint256"
          },
          {
            "astId": 6944,
            "contract": "contracts/token/Vault.sol:Vault",
            "label": "reward",
            "offset": 0,
            "slot": "2",
            "type": "t_uint256"
          },
          {
            "astId": 6946,
            "contract": "contracts/token/Vault.sol:Vault",
            "label": "timestamp",
            "offset": 0,
            "slot": "3",
            "type": "t_uint128"
          },
          {
            "astId": 6948,
            "contract": "contracts/token/Vault.sol:Vault",
            "label": "interval",
            "offset": 16,
            "slot": "3",
            "type": "t_uint128"
          }
        ],
        "numberOfBytes": "128"
      },
      "t_uint128": {
        "encoding": "inplace",
        "label": "uint128",
        "numberOfBytes": "16"
      },
      "t_uint256": {
        "encoding": "inplace",
        "label": "uint256",
        "numberOfBytes": "32"
      },
      "t_uint8": {
        "encoding": "inplace",
        "label": "uint8",
        "numberOfBytes": "1"
      }
    }
  }
}