{
  "_format": "hh-sol-artifact-1",
  "contractName": "UnbondedEvmos",
  "sourceName": "contracts/token/UnbondedEvmos.sol",
  "abi": [
    {
      "anonymous": false,
      "inputs": [
        {
          "indexed": false,
          "internalType": "uint8",
          "name": "version",
          "type": "uint8"
        }
      ],
      "name": "Initialized",
      "type": "event"
    },
    {
      "anonymous": false,
      "inputs": [
        {
          "indexed": false,
          "internalType": "address",
          "name": "account",
          "type": "address"
        },
        {
          "indexed": false,
          "internalType": "address",
          "name": "vault",
          "type": "address"
        },
        {
          "indexed": false,
          "internalType": "uint256",
          "name": "lockedIndex",
          "type": "uint256"
        }
      ],
      "name": "Lock",
      "type": "event"
    },
    {
      "anonymous": false,
      "inputs": [
        {
          "indexed": true,
          "internalType": "address",
          "name": "previousOwner",
          "type": "address"
        },
        {
          "indexed": true,
          "internalType": "address",
          "name": "newOwner",
          "type": "address"
        }
      ],
      "name": "OwnershipTransferred",
      "type": "event"
    },
    {
      "anonymous": false,
      "inputs": [
        {
          "indexed": false,
          "internalType": "uint256",
          "name": "amount",
          "type": "uint256"
        }
      ],
      "name": "Supply",
      "type": "event"
    },
    {
      "anonymous": false,
      "inputs": [
        {
          "indexed": false,
          "internalType": "address",
          "name": "account",
          "type": "address"
        },
        {
          "indexed": false,
          "internalType": "uint256",
          "name": "amount",
          "type": "uint256"
        },
        {
          "indexed": false,
          "internalType": "uint256",
          "name": "returned",
          "type": "uint256"
        }
      ],
      "name": "Unlock",
      "type": "event"
    },
    {
      "anonymous": false,
      "inputs": [
        {
          "indexed": false,
          "internalType": "uint256",
          "name": "killFactorBps",
          "type": "uint256"
        },
        {
          "indexed": false,
          "internalType": "uint256",
          "name": "liquidateFeeBps",
          "type": "uint256"
        }
      ],
      "name": "UpdateConfigs",
      "type": "event"
    },
    {
      "anonymous": false,
      "inputs": [
        {
          "indexed": false,
          "internalType": "address",
          "name": "account",
          "type": "address"
        },
        {
          "indexed": false,
          "internalType": "bool",
          "name": "status",
          "type": "bool"
        }
      ],
      "name": "UpdateMinterStatus",
      "type": "event"
    },
    {
      "anonymous": false,
      "inputs": [
        {
          "indexed": false,
          "internalType": "address",
          "name": "account",
          "type": "address"
        },
        {
          "indexed": false,
          "internalType": "uint256",
          "name": "amount",
          "type": "uint256"
        }
      ],
      "name": "Withdraw",
      "type": "event"
    },
    {
      "stateMutability": "payable",
      "type": "fallback"
    },
    {
      "inputs": [
        {
          "internalType": "address",
          "name": "minter_",
          "type": "address"
        },
        {
          "internalType": "uint256",
          "name": "killFactorBps_",
          "type": "uint256"
        },
        {
          "internalType": "uint256",
          "name": "liquidateFeeBps_",
          "type": "uint256"
        }
      ],
      "name": "__UnbondedEvmos_init",
      "outputs": [],
      "stateMutability": "nonpayable",
      "type": "function"
    },
    {
      "inputs": [
        {
          "internalType": "address",
          "name": "account",
          "type": "address"
        }
      ],
      "name": "balanceOf",
      "outputs": [
        {
          "internalType": "uint256",
          "name": "",
          "type": "uint256"
        }
      ],
      "stateMutability": "view",
      "type": "function"
    },
    {
      "inputs": [],
      "name": "decimals",
      "outputs": [
        {
          "internalType": "uint8",
          "name": "",
          "type": "uint8"
        }
      ],
      "stateMutability": "view",
      "type": "function"
    },
    {
      "inputs": [
        {
          "internalType": "address",
          "name": "account",
          "type": "address"
        }
      ],
      "name": "getUnlockable",
      "outputs": [
        {
          "internalType": "uint256",
          "name": "unlockable",
          "type": "uint256"
        },
        {
          "internalType": "uint256",
          "name": "debt",
          "type": "uint256"
        }
      ],
      "stateMutability": "view",
      "type": "function"
    },
    {
      "inputs": [
        {
          "internalType": "uint256",
          "name": "lockedId",
          "type": "uint256"
        }
      ],
      "name": "isKillable",
      "outputs": [
        {
          "internalType": "bool",
          "name": "",
          "type": "bool"
        }
      ],
      "stateMutability": "view",
      "type": "function"
    },
    {
      "inputs": [
        {
          "internalType": "address",
          "name": "",
          "type": "address"
        }
      ],
      "name": "isMinter",
      "outputs": [
        {
          "internalType": "bool",
          "name": "",
          "type": "bool"
        }
      ],
      "stateMutability": "view",
      "type": "function"
    },
    {
      "inputs": [
        {
          "internalType": "uint256",
          "name": "lockedId",
          "type": "uint256"
        }
      ],
      "name": "kill",
      "outputs": [],
      "stateMutability": "nonpayable",
      "type": "function"
    },
    {
      "inputs": [],
      "name": "killFactorBps",
      "outputs": [
        {
          "internalType": "uint256",
          "name": "",
          "type": "uint256"
        }
      ],
      "stateMutability": "view",
      "type": "function"
    },
    {
      "inputs": [],
      "name": "liquidateFeeBps",
      "outputs": [
        {
          "internalType": "uint256",
          "name": "",
          "type": "uint256"
        }
      ],
      "stateMutability": "view",
      "type": "function"
    },
    {
      "inputs": [
        {
          "internalType": "address",
          "name": "",
          "type": "address"
        }
      ],
      "name": "lockedOf",
      "outputs": [
        {
          "internalType": "uint128",
          "name": "front",
          "type": "uint128"
        },
        {
          "internalType": "uint128",
          "name": "rear",
          "type": "uint128"
        }
      ],
      "stateMutability": "view",
      "type": "function"
    },
    {
      "inputs": [
        {
          "internalType": "uint256",
          "name": "",
          "type": "uint256"
        }
      ],
      "name": "locks",
      "outputs": [
        {
          "internalType": "bool",
          "name": "received",
          "type": "bool"
        },
        {
          "internalType": "address",
          "name": "account",
          "type": "address"
        },
        {
          "internalType": "address",
          "name": "vault",
          "type": "address"
        },
        {
          "internalType": "uint256",
          "name": "amount",
          "type": "uint256"
        },
        {
          "internalType": "uint256",
          "name": "unlockedAt",
          "type": "uint256"
        }
      ],
      "stateMutability": "view",
      "type": "function"
    },
    {
      "inputs": [],
      "name": "locksLength",
      "outputs": [
        {
          "internalType": "uint256",
          "name": "",
          "type": "uint256"
        }
      ],
      "stateMutability": "view",
      "type": "function"
    },
    {
      "inputs": [
        {
          "internalType": "address",
          "name": "to",
          "type": "address"
        },
        {
          "internalType": "address",
          "name": "vault",
          "type": "address"
        },
        {
          "internalType": "uint256",
          "name": "amount",
          "type": "uint256"
        },
        {
          "internalType": "uint256",
          "name": "time",
          "type": "uint256"
        }
      ],
      "name": "mintLockedToken",
      "outputs": [],
      "stateMutability": "nonpayable",
      "type": "function"
    },
    {
      "inputs": [],
      "name": "name",
      "outputs": [
        {
          "internalType": "string",
          "name": "",
          "type": "string"
        }
      ],
      "stateMutability": "view",
      "type": "function"
    },
    {
      "inputs": [],
      "name": "owner",
      "outputs": [
        {
          "internalType": "address",
          "name": "",
          "type": "address"
        }
      ],
      "stateMutability": "view",
      "type": "function"
    },
    {
      "inputs": [],
      "name": "renounceOwnership",
      "outputs": [],
      "stateMutability": "nonpayable",
      "type": "function"
    },
    {
      "inputs": [],
      "name": "supplyUnbondedToken",
      "outputs": [],
      "stateMutability": "payable",
      "type": "function"
    },
    {
      "inputs": [],
      "name": "symbol",
      "outputs": [
        {
          "internalType": "string",
          "name": "",
          "type": "string"
        }
      ],
      "stateMutability": "view",
      "type": "function"
    },
    {
      "inputs": [],
      "name": "totalSupply",
      "outputs": [
        {
          "internalType": "uint256",
          "name": "",
          "type": "uint256"
        }
      ],
      "stateMutability": "view",
      "type": "function"
    },
    {
      "inputs": [
        {
          "internalType": "address",
          "name": "newOwner",
          "type": "address"
        }
      ],
      "name": "transferOwnership",
      "outputs": [],
      "stateMutability": "nonpayable",
      "type": "function"
    },
    {
      "inputs": [
        {
          "internalType": "uint256",
          "name": "minRepaid",
          "type": "uint256"
        }
      ],
      "name": "unlock",
      "outputs": [],
      "stateMutability": "nonpayable",
      "type": "function"
    },
    {
      "inputs": [
        {
          "internalType": "uint256",
          "name": "_killFactorBps",
          "type": "uint256"
        },
        {
          "internalType": "uint256",
          "name": "_liquidateFeeBps",
          "type": "uint256"
        }
      ],
      "name": "updateConfigs",
      "outputs": [],
      "stateMutability": "nonpayable",
      "type": "function"
    },
    {
      "inputs": [
        {
          "internalType": "address",
          "name": "account",
          "type": "address"
        },
        {
          "internalType": "bool",
          "name": "status",
          "type": "bool"
        }
      ],
      "name": "updateMinterStatus",
      "outputs": [],
      "stateMutability": "nonpayable",
      "type": "function"
    },
    {
      "stateMutability": "payable",
      "type": "receive"
    }
  ],
  "bytecode": "0x608060405234801561001057600080fd5b5061300e806100206000396000f3fe6080604052600436106101435760003560e01c80638da5cb5b116100b6578063d29a00251161006f578063d29a002514610467578063e158c1ac14610490578063efc8f3c81461049a578063f2fde38b146104c3578063f4dadc61146104ec578063ffae61561461052d5761014a565b80638da5cb5b1461031b57806395d89b411461034657806397e7381e14610371578063a5f1e282146103ae578063aa271e1a146103ec578063c8630178146104295761014a565b80635bfc5a6e116101085780635bfc5a6e146102215780636198e3391461024c578063633235d01461027557806370a082311461029e578063715018a6146102db5780637bf52bd7146102f25761014a565b8062dbccc61461014c57806306fdde031461017557806318160ddd146101a057806328f55a6c146101cb578063313ce567146101f65761014a565b3661014a57005b005b34801561015857600080fd5b50610173600480360381019061016e9190612425565b610558565b005b34801561018157600080fd5b5061018a6105ab565b604051610197919061287c565b60405180910390f35b3480156101ac57600080fd5b506101b56105e4565b6040516101c29190612a47565b60405180910390f35b3480156101d757600080fd5b506101e06105ea565b6040516101ed9190612a47565b60405180910390f35b34801561020257600080fd5b5061020b6105f0565b6040516102189190612a8b565b60405180910390f35b34801561022d57600080fd5b506102366105f5565b6040516102439190612a47565b60405180910390f35b34801561025857600080fd5b50610273600480360381019061026e91906123d3565b6105fb565b005b34801561028157600080fd5b5061029c600480360381019061029791906122e5565b61064d565b005b3480156102aa57600080fd5b506102c560048036038101906102c091906122bc565b6109f3565b6040516102d29190612a47565b60405180910390f35b3480156102e757600080fd5b506102f0610a3c565b005b3480156102fe57600080fd5b5061031960048036038101906103149190612384565b610a50565b005b34801561032757600080fd5b50610330610ba6565b60405161033d91906126ef565b60405180910390f35b34801561035257600080fd5b5061035b610bd0565b604051610368919061287c565b60405180910390f35b34801561037d57600080fd5b50610398600480360381019061039391906123d3565b610c09565b6040516103a591906127f3565b60405180910390f35b3480156103ba57600080fd5b506103d560048036038101906103d091906122bc565b610df9565b6040516103e3929190612a1e565b60405180910390f35b3480156103f857600080fd5b50610413600480360381019061040e91906122bc565b610e55565b60405161042091906127f3565b60405180910390f35b34801561043557600080fd5b50610450600480360381019061044b91906122bc565b610e75565b60405161045e929190612a62565b60405180910390f35b34801561047357600080fd5b5061048e600480360381019061048991906123d3565b6112a4565b005b610498611551565b005b3480156104a657600080fd5b506104c160048036038101906104bc9190612348565b611553565b005b3480156104cf57600080fd5b506104ea60048036038101906104e591906122bc565b6115ef565b005b3480156104f857600080fd5b50610513600480360381019061050e91906123d3565b611673565b60405161052495949392919061280e565b60405180910390f35b34801561053957600080fd5b50610542611706565b60405161054f9190612a47565b60405180910390f35b61056061170c565b80606781905550816066819055507ff88c4daabad4d8a3268872e6513d06a7f6924a2390f0e3d89b8451a2ac0635c5828260405161059f929190612a62565b60405180910390a15050565b6040518060400160405280600e81526020017f556e7374616b65642045564d4f5300000000000000000000000000000000000081525081565b606c5481565b60665481565b601281565b60695481565b6000606a60003373ffffffffffffffffffffffffffffffffffffffff1673ffffffffffffffffffffffffffffffffffffffff168152602001908152602001600020905061064933828461178a565b5050565b606560003373ffffffffffffffffffffffffffffffffffffffff1673ffffffffffffffffffffffffffffffffffffffff16815260200190815260200160002060009054906101000a900460ff166106d9576040517f08c379a00000000000000000000000000000000000000000000000000000000081526004016106d0906129de565b60405180910390fd5b6000821161071c576040517f08c379a00000000000000000000000000000000000000000000000000000000081526004016107139061297e565b60405180910390fd5b6000606a60008673ffffffffffffffffffffffffffffffffffffffff1673ffffffffffffffffffffffffffffffffffffffff168152602001908152602001600020905061076b8582600161178a565b600082426107799190612b1e565b905060686040518060a001604052806000151581526020013373ffffffffffffffffffffffffffffffffffffffff1681526020018773ffffffffffffffffffffffffffffffffffffffff16815260200186815260200183815250908060018154018082558091505060019003906000526020600020906004020160009091909190915060008201518160000160006101000a81548160ff02191690831515021790555060208201518160000160016101000a81548173ffffffffffffffffffffffffffffffffffffffff021916908373ffffffffffffffffffffffffffffffffffffffff16021790555060408201518160010160006101000a81548173ffffffffffffffffffffffffffffffffffffffff021916908373ffffffffffffffffffffffffffffffffffffffff1602179055506060820151816002015560808201518160030155505060016068805490506108d29190612b74565b60698190555060008260000160109054906101000a90046fffffffffffffffffffffffffffffffff16905060695483600101826fffffffffffffffffffffffffffffffff168154811061094e577f4e487b7100000000000000000000000000000000000000000000000000000000600052603260045260246000fd5b90600052602060002001819055506001816109699190612ad8565b8360000160106101000a8154816fffffffffffffffffffffffffffffffff02191690836fffffffffffffffffffffffffffffffff1602179055506109ad8786611b84565b7fec36c0364d931187a76cf66d7eee08fad0ec2e8b7458a8d8b26b36769d4d13f387876069546040516109e29392919061270a565b60405180910390a150505050505050565b6000606b60008373ffffffffffffffffffffffffffffffffffffffff1673ffffffffffffffffffffffffffffffffffffffff168152602001908152602001600020549050919050565b610a4461170c565b610a4e6000611c67565b565b60008060019054906101000a900460ff16159050808015610a815750600160008054906101000a900460ff1660ff16105b80610aae5750610a9030611d2d565b158015610aad5750600160008054906101000a900460ff1660ff16145b5b610aed576040517f08c379a0000000000000000000000000000000000000000000000000000000008152600401610ae4906128de565b60405180910390fd5b60016000806101000a81548160ff021916908360ff1602179055508015610b2a576001600060016101000a81548160ff0219169083151502179055505b610b32611d50565b610b3d846001611553565b610b478383610558565b8015610ba05760008060016101000a81548160ff0219169083151502179055507f7f26b83ff96e1f2b6a682f133852f6798a09c465da95921460cefb38474024986001604051610b979190612861565b60405180910390a15b50505050565b6000603360009054906101000a900473ffffffffffffffffffffffffffffffffffffffff16905090565b6040518060400160405280600681526020017f7545564d4f53000000000000000000000000000000000000000000000000000081525081565b60008060688381548110610c46577f4e487b7100000000000000000000000000000000000000000000000000000000600052603260045260246000fd5b90600052602060002090600402016040518060a00160405290816000820160009054906101000a900460ff161515151581526020016000820160019054906101000a900473ffffffffffffffffffffffffffffffffffffffff1673ffffffffffffffffffffffffffffffffffffffff1673ffffffffffffffffffffffffffffffffffffffff1681526020016001820160009054906101000a900473ffffffffffffffffffffffffffffffffffffffff1673ffffffffffffffffffffffffffffffffffffffff1673ffffffffffffffffffffffffffffffffffffffff1681526020016002820154815260200160038201548152505090504281608001511115610d52576000915050610df4565b6000816040015173ffffffffffffffffffffffffffffffffffffffff16635eeff10183602001516040518263ffffffff1660e01b8152600401610d9591906126ef565b60206040518083038186803b158015610dad57600080fd5b505afa158015610dc1573d6000803e3d6000fd5b505050506040513d601f19601f82011682018060405250810190610de591906123fc565b90508160600151811015925050505b919050565b606a6020528060005260406000206000915090508060000160009054906101000a90046fffffffffffffffffffffffffffffffff16908060000160109054906101000a90046fffffffffffffffffffffffffffffffff16905082565b60656020528060005260406000206000915054906101000a900460ff1681565b6000806000606a60008573ffffffffffffffffffffffffffffffffffffffff1673ffffffffffffffffffffffffffffffffffffffff16815260200190815260200160002060000160009054906101000a90046fffffffffffffffffffffffffffffffff1690506000606a60008673ffffffffffffffffffffffffffffffffffffffff1673ffffffffffffffffffffffffffffffffffffffff16815260200190815260200160002060000160109054906101000a90046fffffffffffffffffffffffffffffffff1690506000606a60008773ffffffffffffffffffffffffffffffffffffffff1673ffffffffffffffffffffffffffffffffffffffff168152602001908152602001600020600101805480602002602001604051908101604052809291908181526020018280548015610fcc57602002820191906000526020600020905b815481526020019060010190808311610fb8575b50505050509050816fffffffffffffffffffffffffffffffff16836fffffffffffffffffffffffffffffffff16141561100e576000809450945050505061129f565b60008390505b826fffffffffffffffffffffffffffffffff16816fffffffffffffffffffffffffffffffff16101561129a576000606883836fffffffffffffffffffffffffffffffff168151811061108f577f4e487b7100000000000000000000000000000000000000000000000000000000600052603260045260246000fd5b6020026020010151815481106110ce577f4e487b7100000000000000000000000000000000000000000000000000000000600052603260045260246000fd5b90600052602060002090600402016040518060a00160405290816000820160009054906101000a900460ff161515151581526020016000820160019054906101000a900473ffffffffffffffffffffffffffffffffffffffff1673ffffffffffffffffffffffffffffffffffffffff1673ffffffffffffffffffffffffffffffffffffffff1681526020016001820160009054906101000a900473ffffffffffffffffffffffffffffffffffffffff1673ffffffffffffffffffffffffffffffffffffffff1673ffffffffffffffffffffffffffffffffffffffff16815260200160028201548152602001600382015481525050905042816080015111611280578060600151876111df9190612b1e565b9650806040015173ffffffffffffffffffffffffffffffffffffffff16635eeff101896040518263ffffffff1660e01b815260040161121e91906126ef565b60206040518083038186803b15801561123657600080fd5b505afa15801561124a573d6000803e3d6000fd5b505050506040513d601f19601f8201168201806040525081019061126e91906123fc565b866112799190612b1e565b9550611286565b5061129a565b50808061129290612c70565b915050611014565b505050505b915091565b6000606882815481106112e0577f4e487b7100000000000000000000000000000000000000000000000000000000600052603260045260246000fd5b906000526020600020906004020190504281600301541115611337576040517f08c379a000000000000000000000000000000000000000000000000000000000815260040161132e906129fe565b60405180910390fd5b60008160010160009054906101000a900473ffffffffffffffffffffffffffffffffffffffff1673ffffffffffffffffffffffffffffffffffffffff16635eeff1018360000160019054906101000a900473ffffffffffffffffffffffffffffffffffffffff166040518263ffffffff1660e01b81526004016113ba91906126ef565b60206040518083038186803b1580156113d257600080fd5b505afa1580156113e6573d6000803e3d6000fd5b505050506040513d601f19601f8201168201806040525081019061140a91906123fc565b90508160020154811015611453576040517f08c379a000000000000000000000000000000000000000000000000000000000815260040161144a9061291e565b60405180910390fd5b8160010160009054906101000a900473ffffffffffffffffffffffffffffffffffffffff1673ffffffffffffffffffffffffffffffffffffffff16639d2e6fcb83600201548460000160019054906101000a900473ffffffffffffffffffffffffffffffffffffffff1660016040518463ffffffff1660e01b81526004016114dc92919061276a565b6020604051808303818588803b1580156114f557600080fd5b505af1158015611509573d6000803e3d6000fd5b50505050506040513d601f19601f8201168201806040525081019061152e91906123fc565b5060018260000160006101000a81548160ff021916908315150217905550505050565b565b61155b61170c565b80606560008473ffffffffffffffffffffffffffffffffffffffff1673ffffffffffffffffffffffffffffffffffffffff16815260200190815260200160002060006101000a81548160ff0219169083151502179055507ff6c10b2804d0174249f23bd4c462fb3e65ea16bf2b6896effe8a09f8f6a8e3b082826040516115e3929190612741565b60405180910390a15050565b6115f761170c565b600073ffffffffffffffffffffffffffffffffffffffff168173ffffffffffffffffffffffffffffffffffffffff161415611667576040517f08c379a000000000000000000000000000000000000000000000000000000000815260040161165e906128be565b60405180910390fd5b61167081611c67565b50565b6068818154811061168357600080fd5b90600052602060002090600402016000915090508060000160009054906101000a900460ff16908060000160019054906101000a900473ffffffffffffffffffffffffffffffffffffffff16908060010160009054906101000a900473ffffffffffffffffffffffffffffffffffffffff16908060020154908060030154905085565b60675481565b611714611da9565b73ffffffffffffffffffffffffffffffffffffffff16611732610ba6565b73ffffffffffffffffffffffffffffffffffffffff1614611788576040517f08c379a000000000000000000000000000000000000000000000000000000000815260040161177f9061293e565b60405180910390fd5b565b606a60008473ffffffffffffffffffffffffffffffffffffffff1673ffffffffffffffffffffffffffffffffffffffff168152602001908152602001600020915060008260000160009054906101000a90046fffffffffffffffffffffffffffffffff16905060008360000160109054906101000a90046fffffffffffffffffffffffffffffffff169050806fffffffffffffffffffffffffffffffff16826fffffffffffffffffffffffffffffffff161415611848575050611b7f565b60008060008490505b836fffffffffffffffffffffffffffffffff16816fffffffffffffffffffffffffffffffff161015611acf57600087600101826fffffffffffffffffffffffffffffffff16815481106118cd577f4e487b7100000000000000000000000000000000000000000000000000000000600052603260045260246000fd5b90600052602060002001549050600060688281548110611916577f4e487b7100000000000000000000000000000000000000000000000000000000600052603260045260246000fd5b90600052602060002090600402016040518060a00160405290816000820160009054906101000a900460ff161515151581526020016000820160019054906101000a900473ffffffffffffffffffffffffffffffffffffffff1673ffffffffffffffffffffffffffffffffffffffff1673ffffffffffffffffffffffffffffffffffffffff1681526020016001820160009054906101000a900473ffffffffffffffffffffffffffffffffffffffff1673ffffffffffffffffffffffffffffffffffffffff1673ffffffffffffffffffffffffffffffffffffffff16815260200160028201548152602001600382015481525050905042816080015111611ab357806060015185611a279190612b1e565b9450611a3d8a826040015183606001518b611db1565b84611a489190612b1e565b9350600160688381548110611a86577f4e487b7100000000000000000000000000000000000000000000000000000000600052603260045260246000fd5b906000526020600020906004020160000160006101000a81548160ff021916908315150217905550611aba565b5050611acf565b50508080611ac790612c70565b915050611851565b6000831115611b7957600181611ae59190612ad8565b8760000160006101000a8154816fffffffffffffffffffffffffffffffff02191690836fffffffffffffffffffffffffffffffff160217905550611b298884611f86565b6000821115611b3d57611b3c88836120e1565b5b7ff7870c5b224cbc19873599e46ccfc7103934650509b1af0c3ce90138377c2004888484604051611b70939291906127bc565b60405180910390a15b50505050505b505050565b600073ffffffffffffffffffffffffffffffffffffffff168273ffffffffffffffffffffffffffffffffffffffff161415611bf4576040517f08c379a0000000000000000000000000000000000000000000000000000000008152600401611beb9061295e565b60405180910390fd5b80606c6000828254611c069190612b1e565b9250508190555080606b60008473ffffffffffffffffffffffffffffffffffffffff1673ffffffffffffffffffffffffffffffffffffffff1681526020019081526020016000206000828254611c5c9190612b1e565b925050819055505050565b6000603360009054906101000a900473ffffffffffffffffffffffffffffffffffffffff16905081603360006101000a81548173ffffffffffffffffffffffffffffffffffffffff021916908373ffffffffffffffffffffffffffffffffffffffff1602179055508173ffffffffffffffffffffffffffffffffffffffff168173ffffffffffffffffffffffffffffffffffffffff167f8be0079c531659141344cd1fd0a4f28419497f9722a3daafe3b4186f6b6457e060405160405180910390a35050565b6000808273ffffffffffffffffffffffffffffffffffffffff163b119050919050565b600060019054906101000a900460ff16611d9f576040517f08c379a0000000000000000000000000000000000000000000000000000000008152600401611d96906129be565b60405180910390fd5b611da7612207565b565b600033905090565b6000808473ffffffffffffffffffffffffffffffffffffffff16635eeff101876040518263ffffffff1660e01b8152600401611ded91906126ef565b60206040518083038186803b158015611e0557600080fd5b505afa158015611e19573d6000803e3d6000fd5b505050506040513d601f19601f82011682018060405250810190611e3d91906123fc565b9050808410611ee9578473ffffffffffffffffffffffffffffffffffffffff16639d2e6fcb8288866040518463ffffffff1660e01b8152600401611e82929190612793565b6020604051808303818588803b158015611e9b57600080fd5b505af1158015611eaf573d6000803e3d6000fd5b50505050506040513d601f19601f82011682018060405250810190611ed491906123fc565b508084611ee19190612b74565b915050611f7e565b8473ffffffffffffffffffffffffffffffffffffffff16639d2e6fcb8588866040518463ffffffff1660e01b8152600401611f25929190612793565b6020604051808303818588803b158015611f3e57600080fd5b505af1158015611f52573d6000803e3d6000fd5b50505050506040513d601f19601f82011682018060405250810190611f7791906123fc565b5060009150505b949350505050565b600073ffffffffffffffffffffffffffffffffffffffff168273ffffffffffffffffffffffffffffffffffffffff161415611ff6576040517f08c379a0000000000000000000000000000000000000000000000000000000008152600401611fed9061299e565b60405180910390fd5b6000606b60008473ffffffffffffffffffffffffffffffffffffffff1673ffffffffffffffffffffffffffffffffffffffff1681526020019081526020016000205490508181101561207d576040517f08c379a00000000000000000000000000000000000000000000000000000000081526004016120749061289e565b60405180910390fd5b818103606b60008573ffffffffffffffffffffffffffffffffffffffff1673ffffffffffffffffffffffffffffffffffffffff1681526020019081526020016000208190555081606c60008282546120d59190612b74565b92505081905550505050565b60008273ffffffffffffffffffffffffffffffffffffffff1682600067ffffffffffffffff81111561213c577f4e487b7100000000000000000000000000000000000000000000000000000000600052604160045260246000fd5b6040519080825280601f01601f19166020018201604052801561216e5781602001600182028036833780820191505090505b5060405161217c91906126d8565b60006040518083038185875af1925050503d80600081146121b9576040519150601f19603f3d011682016040523d82523d6000602084013e6121be565b606091505b5050905080612202576040517f08c379a00000000000000000000000000000000000000000000000000000000081526004016121f9906128fe565b60405180910390fd5b505050565b600060019054906101000a900460ff16612256576040517f08c379a000000000000000000000000000000000000000000000000000000000815260040161224d906129be565b60405180910390fd5b612266612261611da9565b611c67565b565b60008135905061227781612f93565b92915050565b60008135905061228c81612faa565b92915050565b6000813590506122a181612fc1565b92915050565b6000815190506122b681612fc1565b92915050565b6000602082840312156122ce57600080fd5b60006122dc84828501612268565b91505092915050565b600080600080608085870312156122fb57600080fd5b600061230987828801612268565b945050602061231a87828801612268565b935050604061232b87828801612292565b925050606061233c87828801612292565b91505092959194509250565b6000806040838503121561235b57600080fd5b600061236985828601612268565b925050602061237a8582860161227d565b9150509250929050565b60008060006060848603121561239957600080fd5b60006123a786828701612268565b93505060206123b886828701612292565b92505060406123c986828701612292565b9150509250925092565b6000602082840312156123e557600080fd5b60006123f384828501612292565b91505092915050565b60006020828403121561240e57600080fd5b600061241c848285016122a7565b91505092915050565b6000806040838503121561243857600080fd5b600061244685828601612292565b925050602061245785828601612292565b9150509250929050565b61246a81612ba8565b82525050565b61247981612bba565b82525050565b600061248a82612aa6565b6124948185612abc565b93506124a4818560208601612c3d565b80840191505092915050565b6124b981612c19565b82525050565b6124c881612c2b565b82525050565b60006124d982612ab1565b6124e38185612ac7565b93506124f3818560208601612c3d565b6124fc81612cd8565b840191505092915050565b6000612514602283612ac7565b915061251f82612ce9565b604082019050919050565b6000612537602683612ac7565b915061254282612d38565b604082019050919050565b600061255a602e83612ac7565b915061256582612d87565b604082019050919050565b600061257d601283612ac7565b915061258882612dd6565b602082019050919050565b60006125a0601883612ac7565b91506125ab82612dff565b602082019050919050565b60006125c3602083612ac7565b91506125ce82612e28565b602082019050919050565b60006125e6602083612ac7565b91506125f182612e51565b602082019050919050565b6000612609601c83612ac7565b915061261482612e7a565b602082019050919050565b600061262c602283612ac7565b915061263782612ea3565b604082019050919050565b600061264f602b83612ac7565b915061265a82612ef2565b604082019050919050565b6000612672601a83612ac7565b915061267d82612f41565b602082019050919050565b6000612695601b83612ac7565b91506126a082612f6a565b602082019050919050565b6126b481612bc6565b82525050565b6126c381612c02565b82525050565b6126d281612c0c565b82525050565b60006126e4828461247f565b915081905092915050565b60006020820190506127046000830184612461565b92915050565b600060608201905061271f6000830186612461565b61272c6020830185612461565b61273960408301846126ba565b949350505050565b60006040820190506127566000830185612461565b6127636020830184612470565b9392505050565b600060408201905061277f6000830185612461565b61278c60208301846124b0565b9392505050565b60006040820190506127a86000830185612461565b6127b560208301846126ba565b9392505050565b60006060820190506127d16000830186612461565b6127de60208301856126ba565b6127eb60408301846126ba565b949350505050565b60006020820190506128086000830184612470565b92915050565b600060a0820190506128236000830188612470565b6128306020830187612461565b61283d6040830186612461565b61284a60608301856126ba565b61285760808301846126ba565b9695505050505050565b600060208201905061287660008301846124bf565b92915050565b6000602082019050818103600083015261289681846124ce565b905092915050565b600060208201905081810360008301526128b781612507565b9050919050565b600060208201905081810360008301526128d78161252a565b9050919050565b600060208201905081810360008301526128f78161254d565b9050919050565b6000602082019050818103600083015261291781612570565b9050919050565b6000602082019050818103600083015261293781612593565b9050919050565b60006020820190508181036000830152612957816125b6565b9050919050565b60006020820190508181036000830152612977816125d9565b9050919050565b60006020820190508181036000830152612997816125fc565b9050919050565b600060208201905081810360008301526129b78161261f565b9050919050565b600060208201905081810360008301526129d781612642565b9050919050565b600060208201905081810360008301526129f781612665565b9050919050565b60006020820190508181036000830152612a1781612688565b9050919050565b6000604082019050612a3360008301856126ab565b612a4060208301846126ab565b9392505050565b6000602082019050612a5c60008301846126ba565b92915050565b6000604082019050612a7760008301856126ba565b612a8460208301846126ba565b9392505050565b6000602082019050612aa060008301846126c9565b92915050565b600081519050919050565b600081519050919050565b600081905092915050565b600082825260208201905092915050565b6000612ae382612bc6565b9150612aee83612bc6565b9250826fffffffffffffffffffffffffffffffff03821115612b1357612b12612ca9565b5b828201905092915050565b6000612b2982612c02565b9150612b3483612c02565b9250827fffffffffffffffffffffffffffffffffffffffffffffffffffffffffffffffff03821115612b6957612b68612ca9565b5b828201905092915050565b6000612b7f82612c02565b9150612b8a83612c02565b925082821015612b9d57612b9c612ca9565b5b828203905092915050565b6000612bb382612be2565b9050919050565b60008115159050919050565b60006fffffffffffffffffffffffffffffffff82169050919050565b600073ffffffffffffffffffffffffffffffffffffffff82169050919050565b6000819050919050565b600060ff82169050919050565b6000612c2482612c02565b9050919050565b6000612c3682612c0c565b9050919050565b60005b83811015612c5b578082015181840152602081019050612c40565b83811115612c6a576000848401525b50505050565b6000612c7b82612bc6565b91506fffffffffffffffffffffffffffffffff821415612c9e57612c9d612ca9565b5b600182019050919050565b7f4e487b7100000000000000000000000000000000000000000000000000000000600052601160045260246000fd5b6000601f19601f8301169050919050565b7f45524332303a206275726e20616d6f756e7420657863656564732062616c616e60008201527f6365000000000000000000000000000000000000000000000000000000000000602082015250565b7f4f776e61626c653a206e6577206f776e657220697320746865207a65726f206160008201527f6464726573730000000000000000000000000000000000000000000000000000602082015250565b7f496e697469616c697a61626c653a20636f6e747261637420697320616c72656160008201527f647920696e697469616c697a6564000000000000000000000000000000000000602082015250565b7f21736166655472616e7366657245564d4f530000000000000000000000000000600082015250565b7f7545564d4f53204b696c6c3a205374696c6c20736166652e0000000000000000600082015250565b7f4f776e61626c653a2063616c6c6572206973206e6f7420746865206f776e6572600082015250565b7f7545564d4f533a206d696e7420746f20746865207a65726f2061646472657373600082015250565b7f6d696e744c6f636b6564546f6b656e3a20616d6f756e74203c3d203000000000600082015250565b7f7545564d4f533a206275726e2066726f6d20746865207a65726f20616464726560008201527f7373000000000000000000000000000000000000000000000000000000000000602082015250565b7f496e697469616c697a61626c653a20636f6e7472616374206973206e6f74206960008201527f6e697469616c697a696e67000000000000000000000000000000000000000000602082015250565b7f556e626f6e64656445766d6f733a204e6f74206d696e7465722e000000000000600082015250565b7f7545564d4f53204b696c6c3a2043616e6e6f7420556e6c6f636b2e0000000000600082015250565b612f9c81612ba8565b8114612fa757600080fd5b50565b612fb381612bba565b8114612fbe57600080fd5b50565b612fca81612c02565b8114612fd557600080fd5b5056fea2646970667358221220dd656a87c1b737fe6994b07b88c6d33c6eae9fa70b3ea0ecc07f27b2873d8b1164736f6c63430008040033",
  "linkReferences": {},
  "deployedLinkReferences": {}
}