{
  "_format": "hh-sol-artifact-1",
  "contractName": "StayKingLendingPool",
  "sourceName": "contracts/StayKingLendingPool.sol",
  "abi": [
    {
      "inputs": [
        {
          "internalType": "contract IERC20",
          "name": "_ibToken",
          "type": "address"
        },
        {
          "internalType": "address",
          "name": "_vault",
          "type": "address"
        }
      ],
      "stateMutability": "nonpayable",
      "type": "constructor"
    },
    {
      "anonymous": false,
      "inputs": [
        {
          "indexed": true,
          "internalType": "address",
          "name": "sender",
          "type": "address"
        },
        {
          "indexed": false,
          "internalType": "uint256",
          "name": "amount",
          "type": "uint256"
        },
        {
          "indexed": false,
          "internalType": "uint256",
          "name": "shares",
          "type": "uint256"
        },
        {
          "indexed": false,
          "internalType": "uint256",
          "name": "lastDepositedTime",
          "type": "uint256"
        }
      ],
      "name": "Deposit",
      "type": "event"
    },
    {
      "anonymous": false,
      "inputs": [
        {
          "indexed": true,
          "internalType": "address",
          "name": "previousOwner",
          "type": "address"
        },
        {
          "indexed": true,
          "internalType": "address",
          "name": "newOwner",
          "type": "address"
        }
      ],
      "name": "OwnershipTransferred",
      "type": "event"
    },
    {
      "anonymous": false,
      "inputs": [
        {
          "indexed": false,
          "internalType": "address",
          "name": "account",
          "type": "address"
        }
      ],
      "name": "Paused",
      "type": "event"
    },
    {
      "anonymous": false,
      "inputs": [
        {
          "indexed": false,
          "internalType": "address",
          "name": "account",
          "type": "address"
        }
      ],
      "name": "Unpaused",
      "type": "event"
    },
    {
      "anonymous": false,
      "inputs": [
        {
          "indexed": true,
          "internalType": "address",
          "name": "sender",
          "type": "address"
        },
        {
          "indexed": false,
          "internalType": "uint256",
          "name": "amount",
          "type": "uint256"
        },
        {
          "indexed": false,
          "internalType": "uint256",
          "name": "shares",
          "type": "uint256"
        }
      ],
      "name": "Withdraw",
      "type": "event"
    },
    {
      "inputs": [],
      "name": "balanceOf",
      "outputs": [
        {
          "internalType": "uint256",
          "name": "",
          "type": "uint256"
        }
      ],
      "stateMutability": "view",
      "type": "function"
    },
    {
      "inputs": [],
      "name": "deposit",
      "outputs": [],
      "stateMutability": "payable",
      "type": "function"
    },
    {
      "inputs": [],
      "name": "ibToken",
      "outputs": [
        {
          "internalType": "contract IERC20",
          "name": "",
          "type": "address"
        }
      ],
      "stateMutability": "view",
      "type": "function"
    },
    {
      "inputs": [],
      "name": "loan",
      "outputs": [],
      "stateMutability": "nonpayable",
      "type": "function"
    },
    {
      "inputs": [],
      "name": "owner",
      "outputs": [
        {
          "internalType": "address",
          "name": "",
          "type": "address"
        }
      ],
      "stateMutability": "view",
      "type": "function"
    },
    {
      "inputs": [],
      "name": "paused",
      "outputs": [
        {
          "internalType": "bool",
          "name": "",
          "type": "bool"
        }
      ],
      "stateMutability": "view",
      "type": "function"
    },
    {
      "inputs": [],
      "name": "renounceOwnership",
      "outputs": [],
      "stateMutability": "nonpayable",
      "type": "function"
    },
    {
      "inputs": [],
      "name": "totalShares",
      "outputs": [
        {
          "internalType": "uint256",
          "name": "",
          "type": "uint256"
        }
      ],
      "stateMutability": "view",
      "type": "function"
    },
    {
      "inputs": [
        {
          "internalType": "address",
          "name": "newOwner",
          "type": "address"
        }
      ],
      "name": "transferOwnership",
      "outputs": [],
      "stateMutability": "nonpayable",
      "type": "function"
    },
    {
      "inputs": [
        {
          "internalType": "address",
          "name": "",
          "type": "address"
        }
      ],
      "name": "userInfo",
      "outputs": [
        {
          "internalType": "uint256",
          "name": "shares",
          "type": "uint256"
        },
        {
          "internalType": "uint256",
          "name": "lastDepositedTime",
          "type": "uint256"
        },
        {
          "internalType": "uint256",
          "name": "evmosAtLastUserAction",
          "type": "uint256"
        },
        {
          "internalType": "uint256",
          "name": "lastUserActionTime",
          "type": "uint256"
        }
      ],
      "stateMutability": "view",
      "type": "function"
    },
    {
      "inputs": [],
      "name": "withdraw",
      "outputs": [],
      "stateMutability": "nonpayable",
      "type": "function"
    }
  ],
  "bytecode": "0x608060405234801561001057600080fd5b506040516111913803806111918339818101604052604081101561003357600080fd5b810190808051906020019092919080519060200190929190505050600061005e61019f60201b60201c565b9050806000806101000a81548173ffffffffffffffffffffffffffffffffffffffff021916908373ffffffffffffffffffffffffffffffffffffffff1602179055508073ffffffffffffffffffffffffffffffffffffffff16600073ffffffffffffffffffffffffffffffffffffffff167f8be0079c531659141344cd1fd0a4f28419497f9722a3daafe3b4186f6b6457e060405160405180910390a35060008060146101000a81548160ff02191690831515021790555081600160006101000a81548173ffffffffffffffffffffffffffffffffffffffff021916908373ffffffffffffffffffffffffffffffffffffffff16021790555080600360006101000a81548173ffffffffffffffffffffffffffffffffffffffff021916908373ffffffffffffffffffffffffffffffffffffffff16021790555050506101a7565b600033905090565b610fdb806101b66000396000f3fe60806040526004361061009c5760003560e01c8063715018a611610064578063715018a6146101e3578063722713f7146101fa5780638da5cb5b14610225578063d0e30db01461027c578063d285b7b414610286578063f2fde38b1461029d5761009c565b80630a8a5a5f146100a15780631959a002146100f85780633a98ef39146101725780633ccfd60b1461019d5780635c975abb146101b4575b600080fd5b3480156100ad57600080fd5b506100b66102ee565b604051808273ffffffffffffffffffffffffffffffffffffffff1673ffffffffffffffffffffffffffffffffffffffff16815260200191505060405180910390f35b34801561010457600080fd5b506101476004803603602081101561011b57600080fd5b81019080803573ffffffffffffffffffffffffffffffffffffffff169060200190929190505050610314565b6040518085815260200184815260200183815260200182815260200194505050505060405180910390f35b34801561017e57600080fd5b50610187610344565b6040518082815260200191505060405180910390f35b3480156101a957600080fd5b506101b261034a565b005b3480156101c057600080fd5b506101c96104e4565b604051808215151515815260200191505060405180910390f35b3480156101ef57600080fd5b506101f86104fa565b005b34801561020657600080fd5b5061020f610668565b6040518082815260200191505060405180910390f35b34801561023157600080fd5b5061023a610670565b604051808273ffffffffffffffffffffffffffffffffffffffff1673ffffffffffffffffffffffffffffffffffffffff16815260200191505060405180910390f35b610284610699565b005b34801561029257600080fd5b5061029b610a1f565b005b3480156102a957600080fd5b506102ec600480360360208110156102c057600080fd5b81019080803573ffffffffffffffffffffffffffffffffffffffff169060200190929190505050610bb9565b005b600160009054906101000a900473ffffffffffffffffffffffffffffffffffffffff1681565b60046020528060005260406000206000915090508060000154908060010154908060020154908060030154905084565b60025481565b6103526104e4565b156103c5576040517f08c379a00000000000000000000000000000000000000000000000000000000081526004018080602001828103825260108152602001807f5061757361626c653a207061757365640000000000000000000000000000000081525060200191505060405180910390fd5b6103ce33610dac565b15610441576040517f08c379a00000000000000000000000000000000000000000000000000000000081526004018080602001828103825260148152602001807f636f6e7472616374206e6f7420616c6c6f77656400000000000000000000000081525060200191505060405180910390fd5b3273ffffffffffffffffffffffffffffffffffffffff163373ffffffffffffffffffffffffffffffffffffffff16146104e2576040517f08c379a000000000000000000000000000000000000000000000000000000000815260040180806020018281038252601a8152602001807f70726f787920636f6e7472616374206e6f7420616c6c6f77656400000000000081525060200191505060405180910390fd5b565b60008060149054906101000a900460ff16905090565b610502610dbf565b73ffffffffffffffffffffffffffffffffffffffff16610520610670565b73ffffffffffffffffffffffffffffffffffffffff16146105a9576040517f08c379a00000000000000000000000000000000000000000000000000000000081526004018080602001828103825260208152602001807f4f776e61626c653a2063616c6c6572206973206e6f7420746865206f776e657281525060200191505060405180910390fd5b600073ffffffffffffffffffffffffffffffffffffffff166000809054906101000a900473ffffffffffffffffffffffffffffffffffffffff1673ffffffffffffffffffffffffffffffffffffffff167f8be0079c531659141344cd1fd0a4f28419497f9722a3daafe3b4186f6b6457e060405160405180910390a360008060006101000a81548173ffffffffffffffffffffffffffffffffffffffff021916908373ffffffffffffffffffffffffffffffffffffffff160217905550565b600047905090565b60008060009054906101000a900473ffffffffffffffffffffffffffffffffffffffff16905090565b6106a16104e4565b15610714576040517f08c379a00000000000000000000000000000000000000000000000000000000081526004018080602001828103825260108152602001807f5061757361626c653a207061757365640000000000000000000000000000000081525060200191505060405180910390fd5b61071d33610dac565b15610790576040517f08c379a00000000000000000000000000000000000000000000000000000000081526004018080602001828103825260148152602001807f636f6e7472616374206e6f7420616c6c6f77656400000000000000000000000081525060200191505060405180910390fd5b3273ffffffffffffffffffffffffffffffffffffffff163373ffffffffffffffffffffffffffffffffffffffff1614610831576040517f08c379a000000000000000000000000000000000000000000000000000000000815260040180806020018281038252601a8152602001807f70726f787920636f6e7472616374206e6f7420616c6c6f77656400000000000081525060200191505060405180910390fd5b600034116108a7576040517f08c379a00000000000000000000000000000000000000000000000000000000081526004018080602001828103825260128152602001807f4e6f7468696e6720746f206465706f736974000000000000000000000000000081525060200191505060405180910390fd5b600034905060006108b6610668565b905060008090506000600254146108f5576108ee826108e060025486610dc790919063ffffffff16565b610e4d90919063ffffffff16565b90506108f9565b8290505b6000600460003373ffffffffffffffffffffffffffffffffffffffff1673ffffffffffffffffffffffffffffffffffffffff1681526020019081526020016000209050610953828260000154610ed690919063ffffffff16565b816000018190555042816001018190555061097982600254610ed690919063ffffffff16565b6002819055506109aa60025461099c858460000154610dc790919063ffffffff16565b610e4d90919063ffffffff16565b81600201819055504281600301819055503373ffffffffffffffffffffffffffffffffffffffff167f36af321ec8d3c75236829c5317affd40ddb308863a1236d2d277a4025cccee1e85844260405180848152602001838152602001828152602001935050505060405180910390a250505050565b610a276104e4565b15610a9a576040517f08c379a00000000000000000000000000000000000000000000000000000000081526004018080602001828103825260108152602001807f5061757361626c653a207061757365640000000000000000000000000000000081525060200191505060405180910390fd5b610aa333610dac565b15610b16576040517f08c379a00000000000000000000000000000000000000000000000000000000081526004018080602001828103825260148152602001807f636f6e7472616374206e6f7420616c6c6f77656400000000000000000000000081525060200191505060405180910390fd5b3273ffffffffffffffffffffffffffffffffffffffff163373ffffffffffffffffffffffffffffffffffffffff1614610bb7576040517f08c379a000000000000000000000000000000000000000000000000000000000815260040180806020018281038252601a8152602001807f70726f787920636f6e7472616374206e6f7420616c6c6f77656400000000000081525060200191505060405180910390fd5b565b610bc1610dbf565b73ffffffffffffffffffffffffffffffffffffffff16610bdf610670565b73ffffffffffffffffffffffffffffffffffffffff1614610c68576040517f08c379a00000000000000000000000000000000000000000000000000000000081526004018080602001828103825260208152602001807f4f776e61626c653a2063616c6c6572206973206e6f7420746865206f776e657281525060200191505060405180910390fd5b600073ffffffffffffffffffffffffffffffffffffffff168173ffffffffffffffffffffffffffffffffffffffff161415610cee576040517f08c379a0000000000000000000000000000000000000000000000000000000008152600401808060200182810382526026815260200180610f5f6026913960400191505060405180910390fd5b8073ffffffffffffffffffffffffffffffffffffffff166000809054906101000a900473ffffffffffffffffffffffffffffffffffffffff1673ffffffffffffffffffffffffffffffffffffffff167f8be0079c531659141344cd1fd0a4f28419497f9722a3daafe3b4186f6b6457e060405160405180910390a3806000806101000a81548173ffffffffffffffffffffffffffffffffffffffff021916908373ffffffffffffffffffffffffffffffffffffffff16021790555050565b600080823b905060008111915050919050565b600033905090565b600080831415610dda5760009050610e47565b6000828402905082848281610deb57fe5b0414610e42576040517f08c379a0000000000000000000000000000000000000000000000000000000008152600401808060200182810382526021815260200180610f856021913960400191505060405180910390fd5b809150505b92915050565b6000808211610ec4576040517f08c379a000000000000000000000000000000000000000000000000000000000815260040180806020018281038252601a8152602001807f536166654d6174683a206469766973696f6e206279207a65726f00000000000081525060200191505060405180910390fd5b818381610ecd57fe5b04905092915050565b600080828401905083811015610f54576040517f08c379a000000000000000000000000000000000000000000000000000000000815260040180806020018281038252601b8152602001807f536166654d6174683a206164646974696f6e206f766572666c6f77000000000081525060200191505060405180910390fd5b809150509291505056fe4f776e61626c653a206e6577206f776e657220697320746865207a65726f2061646472657373536166654d6174683a206d756c7469706c69636174696f6e206f766572666c6f77a26469706673582212206ccfa28eb990eeef446ed065381b58e1b45b5d108f15e35e77211b745706816f64736f6c63430006000033",
  "linkReferences": {},
  "deployedLinkReferences": {}
}