{
  "_format": "hh-sol-artifact-1",
  "contractName": "MockSwap",
  "sourceName": "contracts/mock/MockSwap.sol",
  "abi": [
    {
      "inputs": [
        {
          "internalType": "address[]",
          "name": "tokens",
          "type": "address[]"
        }
      ],
      "stateMutability": "nonpayable",
      "type": "constructor"
    },
    {
      "inputs": [
        {
          "internalType": "address",
          "name": "tokenX",
          "type": "address"
        },
        {
          "internalType": "address",
          "name": "tokenY",
          "type": "address"
        },
        {
          "internalType": "uint256",
          "name": "dx",
          "type": "uint256"
        },
        {
          "internalType": "uint256",
          "name": "",
          "type": "uint256"
        }
      ],
      "name": "exchange",
      "outputs": [
        {
          "internalType": "uint256",
          "name": "dy",
          "type": "uint256"
        }
      ],
      "stateMutability": "payable",
      "type": "function"
    },
    {
      "inputs": [
        {
          "internalType": "address",
          "name": "tokenX",
          "type": "address"
        },
        {
          "internalType": "address",
          "name": "tokenY",
          "type": "address"
        },
        {
          "internalType": "uint256",
          "name": "dy",
          "type": "uint256"
        }
      ],
      "name": "getDx",
      "outputs": [
        {
          "internalType": "uint256",
          "name": "",
          "type": "uint256"
        }
      ],
      "stateMutability": "pure",
      "type": "function"
    },
    {
      "inputs": [
        {
          "internalType": "address",
          "name": "tokenX",
          "type": "address"
        },
        {
          "internalType": "address",
          "name": "tokenY",
          "type": "address"
        },
        {
          "internalType": "uint256",
          "name": "dx",
          "type": "uint256"
        }
      ],
      "name": "getDy",
      "outputs": [
        {
          "internalType": "uint256",
          "name": "",
          "type": "uint256"
        }
      ],
      "stateMutability": "pure",
      "type": "function"
    },
    {
      "inputs": [
        {
          "internalType": "address",
          "name": "",
          "type": "address"
        }
      ],
      "name": "isSupported",
      "outputs": [
        {
          "internalType": "bool",
          "name": "",
          "type": "bool"
        }
      ],
      "stateMutability": "view",
      "type": "function"
    }
  ],
  "bytecode": "0x60806040523480156200001157600080fd5b50604051620010ba380380620010ba8339818101604052810190620000379190620001b3565b60005b8151811015620000f257600160008084848151811062000083577f4e487b7100000000000000000000000000000000000000000000000000000000600052603260045260246000fd5b602002602001015173ffffffffffffffffffffffffffffffffffffffff1673ffffffffffffffffffffffffffffffffffffffff16815260200190815260200160002060006101000a81548160ff0219169083151502179055508080620000e990620002c4565b9150506200003a565b50506200039b565b6000620001116200010b8462000221565b620001f8565b905080838252602082019050828560208602820111156200013157600080fd5b60005b858110156200016557816200014a88826200016f565b84526020840193506020830192505060018101905062000134565b5050509392505050565b600081519050620001808162000381565b92915050565b600082601f8301126200019857600080fd5b8151620001aa848260208601620000fa565b91505092915050565b600060208284031215620001c657600080fd5b600082015167ffffffffffffffff811115620001e157600080fd5b620001ef8482850162000186565b91505092915050565b60006200020462000217565b90506200021282826200028e565b919050565b6000604051905090565b600067ffffffffffffffff8211156200023f576200023e62000341565b5b602082029050602081019050919050565b60006200025d8262000264565b9050919050565b600073ffffffffffffffffffffffffffffffffffffffff82169050919050565b6000819050919050565b620002998262000370565b810181811067ffffffffffffffff82111715620002bb57620002ba62000341565b5b80604052505050565b6000620002d18262000284565b91507fffffffffffffffffffffffffffffffffffffffffffffffffffffffffffffffff82141562000307576200030662000312565b5b600182019050919050565b7f4e487b7100000000000000000000000000000000000000000000000000000000600052601160045260246000fd5b7f4e487b7100000000000000000000000000000000000000000000000000000000600052604160045260246000fd5b6000601f19601f8301169050919050565b6200038c8162000250565b81146200039857600080fd5b50565b610d0f80620003ab6000396000f3fe60806040526004361061003f5760003560e01c80630ed2fc95146100445780634f119bbd146100745780634f129c53146100b15780637dceefee146100ee575b600080fd5b61005e600480360381019061005991906107c2565b61012b565b60405161006b9190610a4a565b60405180910390f35b34801561008057600080fd5b5061009b60048036038101906100969190610773565b61021a565b6040516100a89190610a4a565b60405180910390f35b3480156100bd57600080fd5b506100d860048036038101906100d3919061074a565b6102b8565b6040516100e591906109af565b60405180910390f35b3480156100fa57600080fd5b5061011560048036038101906101109190610773565b6102d8565b6040516101229190610a4a565b60405180910390f35b60008073ffffffffffffffffffffffffffffffffffffffff168573ffffffffffffffffffffffffffffffffffffffff1614156101a8578234146101a3576040517f08c379a000000000000000000000000000000000000000000000000000000000815260040161019a90610a0a565b60405180910390fd5b6101b5565b6101b485333086610376565b5b6101c085858561021a565b9050600073ffffffffffffffffffffffffffffffffffffffff168473ffffffffffffffffffffffffffffffffffffffff1614156102065761020133826104af565b610212565b6102118433836105d5565b5b949350505050565b60008073ffffffffffffffffffffffffffffffffffffffff168473ffffffffffffffffffffffffffffffffffffffff1614156102645760028261025d9190610abd565b90506102b1565b600073ffffffffffffffffffffffffffffffffffffffff168373ffffffffffffffffffffffffffffffffffffffff1614156102ad576002826102a69190610a8c565b90506102b1565b8190505b9392505050565b60006020528060005260406000206000915054906101000a900460ff1681565b60008073ffffffffffffffffffffffffffffffffffffffff168473ffffffffffffffffffffffffffffffffffffffff1614156103225760028261031b9190610a8c565b905061036f565b600073ffffffffffffffffffffffffffffffffffffffff168373ffffffffffffffffffffffffffffffffffffffff16141561036b576002826103649190610abd565b905061036f565b8190505b9392505050565b6000808573ffffffffffffffffffffffffffffffffffffffff166323b872dd8686866040516024016103aa9392919061094f565b6040516020818303038152906040529060e01b6020820180517bffffffffffffffffffffffffffffffffffffffffffffffffffffffff83818316178352505050506040516103f89190610938565b6000604051808303816000865af19150503d8060008114610435576040519150601f19603f3d011682016040523d82523d6000602084013e61043a565b606091505b509150915081801561046857506000815114806104675750808060200190518101906104669190610825565b5b5b6104a7576040517f08c379a000000000000000000000000000000000000000000000000000000000815260040161049e90610a2a565b60405180910390fd5b505050505050565b60008273ffffffffffffffffffffffffffffffffffffffff1682600067ffffffffffffffff81111561050a577f4e487b7100000000000000000000000000000000000000000000000000000000600052604160045260246000fd5b6040519080825280601f01601f19166020018201604052801561053c5781602001600182028036833780820191505090505b5060405161054a9190610938565b60006040518083038185875af1925050503d8060008114610587576040519150601f19603f3d011682016040523d82523d6000602084013e61058c565b606091505b50509050806105d0576040517f08c379a00000000000000000000000000000000000000000000000000000000081526004016105c7906109ca565b60405180910390fd5b505050565b6000808473ffffffffffffffffffffffffffffffffffffffff1663a9059cbb8585604051602401610607929190610986565b6040516020818303038152906040529060e01b6020820180517bffffffffffffffffffffffffffffffffffffffffffffffffffffffff83818316178352505050506040516106559190610938565b6000604051808303816000865af19150503d8060008114610692576040519150601f19603f3d011682016040523d82523d6000602084013e610697565b606091505b50915091508180156106c557506000815114806106c45750808060200190518101906106c39190610825565b5b5b610704576040517f08c379a00000000000000000000000000000000000000000000000000000000081526004016106fb906109ea565b60405180910390fd5b5050505050565b60008135905061071a81610c94565b92915050565b60008151905061072f81610cab565b92915050565b60008135905061074481610cc2565b92915050565b60006020828403121561075c57600080fd5b600061076a8482850161070b565b91505092915050565b60008060006060848603121561078857600080fd5b60006107968682870161070b565b93505060206107a78682870161070b565b92505060406107b886828701610735565b9150509250925092565b600080600080608085870312156107d857600080fd5b60006107e68782880161070b565b94505060206107f78782880161070b565b935050604061080887828801610735565b925050606061081987828801610735565b91505092959194509250565b60006020828403121561083757600080fd5b600061084584828501610720565b91505092915050565b61085781610b17565b82525050565b61086681610b29565b82525050565b600061087782610a65565b6108818185610a70565b9350610891818560208601610b5f565b80840191505092915050565b60006108aa601283610a7b565b91506108b582610bf0565b602082019050919050565b60006108cd600d83610a7b565b91506108d882610c19565b602082019050919050565b60006108f0601983610a7b565b91506108fb82610c42565b602082019050919050565b6000610913601183610a7b565b915061091e82610c6b565b602082019050919050565b61093281610b55565b82525050565b6000610944828461086c565b915081905092915050565b6000606082019050610964600083018661084e565b610971602083018561084e565b61097e6040830184610929565b949350505050565b600060408201905061099b600083018561084e565b6109a86020830184610929565b9392505050565b60006020820190506109c4600083018461085d565b92915050565b600060208201905081810360008301526109e38161089d565b9050919050565b60006020820190508181036000830152610a03816108c0565b9050919050565b60006020820190508181036000830152610a23816108e3565b9050919050565b60006020820190508181036000830152610a4381610906565b9050919050565b6000602082019050610a5f6000830184610929565b92915050565b600081519050919050565b600081905092915050565b600082825260208201905092915050565b6000610a9782610b55565b9150610aa283610b55565b925082610ab257610ab1610bc1565b5b828204905092915050565b6000610ac882610b55565b9150610ad383610b55565b9250817fffffffffffffffffffffffffffffffffffffffffffffffffffffffffffffffff0483118215151615610b0c57610b0b610b92565b5b828202905092915050565b6000610b2282610b35565b9050919050565b60008115159050919050565b600073ffffffffffffffffffffffffffffffffffffffff82169050919050565b6000819050919050565b60005b83811015610b7d578082015181840152602081019050610b62565b83811115610b8c576000848401525b50505050565b7f4e487b7100000000000000000000000000000000000000000000000000000000600052601160045260246000fd5b7f4e487b7100000000000000000000000000000000000000000000000000000000600052601260045260246000fd5b7f21736166655472616e7366657245564d4f530000000000000000000000000000600082015250565b7f21736166655472616e7366657200000000000000000000000000000000000000600082015250565b7f4d6f636b537761703a206d73672e76616c756520213d20647800000000000000600082015250565b7f21736166655472616e7366657246726f6d000000000000000000000000000000600082015250565b610c9d81610b17565b8114610ca857600080fd5b50565b610cb481610b29565b8114610cbf57600080fd5b50565b610ccb81610b55565b8114610cd657600080fd5b5056fea26469706673582212204004277055dfa6e8d59c2e3793d9ad85a10a3606e411b1f0bfbea05cc7fa19b564736f6c63430008040033",
  "linkReferences": {},
  "deployedLinkReferences": {}
}