{
  "address": "0x09635F643e140090A9A8Dcd712eD6285858ceBef",
  "abi": [
    {
      "anonymous": false,
      "inputs": [
        {
          "indexed": true,
          "internalType": "address",
          "name": "delegator",
          "type": "address"
        },
        {
          "indexed": false,
          "internalType": "uint256",
          "name": "amount",
          "type": "uint256"
        }
      ],
      "name": "Accrue",
      "type": "event"
    },
    {
      "anonymous": false,
      "inputs": [
        {
          "indexed": true,
          "internalType": "address",
          "name": "user",
          "type": "address"
        },
        {
          "indexed": true,
          "internalType": "address",
          "name": "vault",
          "type": "address"
        },
        {
          "indexed": false,
          "internalType": "uint256",
          "name": "equity",
          "type": "uint256"
        },
        {
          "indexed": false,
          "internalType": "uint256",
          "name": "debtInBase",
          "type": "uint256"
        },
        {
          "indexed": false,
          "internalType": "uint256",
          "name": "debt",
          "type": "uint256"
        },
        {
          "indexed": false,
          "internalType": "uint256",
          "name": "share",
          "type": "uint256"
        }
      ],
      "name": "AddPosition",
      "type": "event"
    },
    {
      "anonymous": false,
      "inputs": [
        {
          "indexed": false,
          "internalType": "address",
          "name": "token",
          "type": "address"
        },
        {
          "indexed": false,
          "internalType": "address",
          "name": "vault",
          "type": "address"
        }
      ],
      "name": "AddVault",
      "type": "event"
    },
    {
      "anonymous": false,
      "inputs": [
        {
          "indexed": false,
          "internalType": "address",
          "name": "delegator",
          "type": "address"
        }
      ],
      "name": "ChangeDelegator",
      "type": "event"
    },
    {
      "anonymous": false,
      "inputs": [
        {
          "indexed": false,
          "internalType": "uint8",
          "name": "version",
          "type": "uint8"
        }
      ],
      "name": "Initialized",
      "type": "event"
    },
    {
      "anonymous": false,
      "inputs": [
        {
          "indexed": true,
          "internalType": "address",
          "name": "killer",
          "type": "address"
        },
        {
          "indexed": true,
          "internalType": "address",
          "name": "user",
          "type": "address"
        },
        {
          "indexed": false,
          "internalType": "address",
          "name": "vault",
          "type": "address"
        },
        {
          "indexed": false,
          "internalType": "uint256",
          "name": "equity",
          "type": "uint256"
        },
        {
          "indexed": false,
          "internalType": "uint256",
          "name": "debtInBase",
          "type": "uint256"
        },
        {
          "indexed": false,
          "internalType": "uint256",
          "name": "debt",
          "type": "uint256"
        },
        {
          "indexed": false,
          "internalType": "uint256",
          "name": "share",
          "type": "uint256"
        }
      ],
      "name": "Kill",
      "type": "event"
    },
    {
      "anonymous": false,
      "inputs": [
        {
          "indexed": true,
          "internalType": "address",
          "name": "previousOwner",
          "type": "address"
        },
        {
          "indexed": true,
          "internalType": "address",
          "name": "newOwner",
          "type": "address"
        }
      ],
      "name": "OwnershipTransferred",
      "type": "event"
    },
    {
      "anonymous": false,
      "inputs": [
        {
          "indexed": true,
          "internalType": "address",
          "name": "user",
          "type": "address"
        },
        {
          "indexed": true,
          "internalType": "address",
          "name": "vault",
          "type": "address"
        },
        {
          "indexed": false,
          "internalType": "uint256",
          "name": "amount",
          "type": "uint256"
        },
        {
          "indexed": false,
          "internalType": "uint256",
          "name": "share",
          "type": "uint256"
        },
        {
          "indexed": false,
          "internalType": "uint256",
          "name": "debt",
          "type": "uint256"
        }
      ],
      "name": "PositionChanged",
      "type": "event"
    },
    {
      "anonymous": false,
      "inputs": [
        {
          "indexed": true,
          "internalType": "address",
          "name": "user",
          "type": "address"
        },
        {
          "indexed": true,
          "internalType": "address",
          "name": "vault",
          "type": "address"
        },
        {
          "indexed": false,
          "internalType": "uint256",
          "name": "equity",
          "type": "uint256"
        },
        {
          "indexed": false,
          "internalType": "uint256",
          "name": "debtInBase",
          "type": "uint256"
        },
        {
          "indexed": false,
          "internalType": "uint256",
          "name": "debt",
          "type": "uint256"
        },
        {
          "indexed": false,
          "internalType": "uint256",
          "name": "share",
          "type": "uint256"
        }
      ],
      "name": "RemovePosition",
      "type": "event"
    },
    {
      "anonymous": false,
      "inputs": [
        {
          "indexed": true,
          "internalType": "address",
          "name": "delegator",
          "type": "address"
        },
        {
          "indexed": true,
          "internalType": "address",
          "name": "user",
          "type": "address"
        },
        {
          "indexed": false,
          "internalType": "uint256",
          "name": "amount",
          "type": "uint256"
        },
        {
          "indexed": false,
          "internalType": "uint256",
          "name": "share",
          "type": "uint256"
        }
      ],
      "name": "Stake",
      "type": "event"
    },
    {
      "anonymous": false,
      "inputs": [
        {
          "indexed": true,
          "internalType": "address",
          "name": "delegator",
          "type": "address"
        },
        {
          "indexed": true,
          "internalType": "address",
          "name": "user",
          "type": "address"
        },
        {
          "indexed": false,
          "internalType": "uint256",
          "name": "amount",
          "type": "uint256"
        },
        {
          "indexed": false,
          "internalType": "uint256",
          "name": "share",
          "type": "uint256"
        }
      ],
      "name": "Unstake",
      "type": "event"
    },
    {
      "anonymous": false,
      "inputs": [
        {
          "indexed": false,
          "internalType": "uint256",
          "name": "minDebtInBase",
          "type": "uint256"
        },
        {
          "indexed": false,
          "internalType": "uint256",
          "name": "killFactorBps",
          "type": "uint256"
        }
      ],
      "name": "UpdateConfigs",
      "type": "event"
    },
    {
      "anonymous": false,
      "inputs": [
        {
          "indexed": false,
          "internalType": "address",
          "name": "token",
          "type": "address"
        },
        {
          "indexed": false,
          "internalType": "address",
          "name": "vault",
          "type": "address"
        }
      ],
      "name": "UpdateVault",
      "type": "event"
    },
    {
      "inputs": [
        {
          "internalType": "address",
          "name": "delegator_",
          "type": "address"
        },
        {
          "internalType": "address",
          "name": "uEVMOS_",
          "type": "address"
        }
      ],
      "name": "__Stayking_init",
      "outputs": [],
      "stateMutability": "nonpayable",
      "type": "function"
    },
    {
      "inputs": [
        {
          "internalType": "uint256",
          "name": "currentTotalStaked",
          "type": "uint256"
        }
      ],
      "name": "accrue",
      "outputs": [],
      "stateMutability": "payable",
      "type": "function"
    },
    {
      "inputs": [
        {
          "internalType": "address",
          "name": "debtToken",
          "type": "address"
        },
        {
          "internalType": "uint256",
          "name": "extraDebtInBase",
          "type": "uint256"
        }
      ],
      "name": "addDebt",
      "outputs": [],
      "stateMutability": "nonpayable",
      "type": "function"
    },
    {
      "inputs": [
        {
          "internalType": "address",
          "name": "debtToken",
          "type": "address"
        },
        {
          "internalType": "uint256",
          "name": "extraEquity",
          "type": "uint256"
        }
      ],
      "name": "addEquity",
      "outputs": [],
      "stateMutability": "payable",
      "type": "function"
    },
    {
      "inputs": [
        {
          "internalType": "address",
          "name": "debtToken",
          "type": "address"
        },
        {
          "internalType": "uint256",
          "name": "equity",
          "type": "uint256"
        },
        {
          "internalType": "uint256",
          "name": "debtInBase",
          "type": "uint256"
        }
      ],
      "name": "addPosition",
      "outputs": [],
      "stateMutability": "payable",
      "type": "function"
    },
    {
      "inputs": [
        {
          "internalType": "uint256",
          "name": "amount",
          "type": "uint256"
        }
      ],
      "name": "amountToShare",
      "outputs": [
        {
          "internalType": "uint256",
          "name": "",
          "type": "uint256"
        }
      ],
      "stateMutability": "view",
      "type": "function"
    },
    {
      "inputs": [
        {
          "internalType": "address",
          "name": "_delegator",
          "type": "address"
        }
      ],
      "name": "changeDelegator",
      "outputs": [],
      "stateMutability": "nonpayable",
      "type": "function"
    },
    {
      "inputs": [
        {
          "internalType": "address",
          "name": "user",
          "type": "address"
        },
        {
          "internalType": "address",
          "name": "vault",
          "type": "address"
        }
      ],
      "name": "debtAmountOf",
      "outputs": [
        {
          "internalType": "uint256",
          "name": "",
          "type": "uint256"
        }
      ],
      "stateMutability": "view",
      "type": "function"
    },
    {
      "inputs": [],
      "name": "delegator",
      "outputs": [
        {
          "internalType": "address",
          "name": "",
          "type": "address"
        }
      ],
      "stateMutability": "view",
      "type": "function"
    },
    {
      "inputs": [
        {
          "internalType": "address",
          "name": "debtToken",
          "type": "address"
        },
        {
          "internalType": "uint256",
          "name": "positionId",
          "type": "uint256"
        }
      ],
      "name": "isKillable",
      "outputs": [
        {
          "internalType": "bool",
          "name": "healthy",
          "type": "bool"
        }
      ],
      "stateMutability": "view",
      "type": "function"
    },
    {
      "inputs": [
        {
          "internalType": "address",
          "name": "debtToken",
          "type": "address"
        },
        {
          "internalType": "uint256",
          "name": "positionId",
          "type": "uint256"
        }
      ],
      "name": "kill",
      "outputs": [],
      "stateMutability": "nonpayable",
      "type": "function"
    },
    {
      "inputs": [],
      "name": "killFactorBps",
      "outputs": [
        {
          "internalType": "uint256",
          "name": "",
          "type": "uint256"
        }
      ],
      "stateMutability": "view",
      "type": "function"
    },
    {
      "inputs": [],
      "name": "minDebtInBase",
      "outputs": [
        {
          "internalType": "uint256",
          "name": "",
          "type": "uint256"
        }
      ],
      "stateMutability": "view",
      "type": "function"
    },
    {
      "inputs": [],
      "name": "owner",
      "outputs": [
        {
          "internalType": "address",
          "name": "",
          "type": "address"
        }
      ],
      "stateMutability": "view",
      "type": "function"
    },
    {
      "inputs": [
        {
          "internalType": "address",
          "name": "",
          "type": "address"
        },
        {
          "internalType": "address",
          "name": "",
          "type": "address"
        }
      ],
      "name": "positionIdOf",
      "outputs": [
        {
          "internalType": "uint256",
          "name": "",
          "type": "uint256"
        }
      ],
      "stateMutability": "view",
      "type": "function"
    },
    {
      "inputs": [
        {
          "internalType": "address",
          "name": "",
          "type": "address"
        },
        {
          "internalType": "uint256",
          "name": "",
          "type": "uint256"
        }
      ],
      "name": "positions",
      "outputs": [
        {
          "internalType": "address",
          "name": "user",
          "type": "address"
        },
        {
          "internalType": "uint256",
          "name": "share",
          "type": "uint256"
        }
      ],
      "stateMutability": "view",
      "type": "function"
    },
    {
      "inputs": [
        {
          "internalType": "address",
          "name": "",
          "type": "address"
        }
      ],
      "name": "positionsLengthOf",
      "outputs": [
        {
          "internalType": "uint256",
          "name": "",
          "type": "uint256"
        }
      ],
      "stateMutability": "view",
      "type": "function"
    },
    {
      "inputs": [
        {
          "internalType": "address",
          "name": "debtToken",
          "type": "address"
        }
      ],
      "name": "removePosition",
      "outputs": [],
      "stateMutability": "nonpayable",
      "type": "function"
    },
    {
      "inputs": [],
      "name": "renounceOwnership",
      "outputs": [],
      "stateMutability": "nonpayable",
      "type": "function"
    },
    {
      "inputs": [
        {
          "internalType": "address",
          "name": "debtToken",
          "type": "address"
        },
        {
          "internalType": "uint256",
          "name": "repaidDebt",
          "type": "uint256"
        }
      ],
      "name": "repayDebt",
      "outputs": [],
      "stateMutability": "nonpayable",
      "type": "function"
    },
    {
      "inputs": [
        {
          "internalType": "address",
          "name": "debtToken",
          "type": "address"
        },
        {
          "internalType": "uint256",
          "name": "minRepaid",
          "type": "uint256"
        }
      ],
      "name": "repayDebtInBase",
      "outputs": [],
      "stateMutability": "payable",
      "type": "function"
    },
    {
      "inputs": [
        {
          "internalType": "uint256",
          "name": "share",
          "type": "uint256"
        }
      ],
      "name": "shareToAmount",
      "outputs": [
        {
          "internalType": "uint256",
          "name": "",
          "type": "uint256"
        }
      ],
      "stateMutability": "view",
      "type": "function"
    },
    {
      "inputs": [
        {
          "internalType": "address",
          "name": "",
          "type": "address"
        }
      ],
      "name": "tokenToVault",
      "outputs": [
        {
          "internalType": "address",
          "name": "",
          "type": "address"
        }
      ],
      "stateMutability": "view",
      "type": "function"
    },
    {
      "inputs": [],
      "name": "totalAmount",
      "outputs": [
        {
          "internalType": "uint256",
          "name": "",
          "type": "uint256"
        }
      ],
      "stateMutability": "view",
      "type": "function"
    },
    {
      "inputs": [
        {
          "internalType": "address",
          "name": "",
          "type": "address"
        }
      ],
      "name": "totalDebtOf",
      "outputs": [
        {
          "internalType": "uint256",
          "name": "",
          "type": "uint256"
        }
      ],
      "stateMutability": "view",
      "type": "function"
    },
    {
      "inputs": [],
      "name": "totalShare",
      "outputs": [
        {
          "internalType": "uint256",
          "name": "",
          "type": "uint256"
        }
      ],
      "stateMutability": "view",
      "type": "function"
    },
    {
      "inputs": [
        {
          "internalType": "address",
          "name": "newOwner",
          "type": "address"
        }
      ],
      "name": "transferOwnership",
      "outputs": [],
      "stateMutability": "nonpayable",
      "type": "function"
    },
    {
      "inputs": [],
      "name": "uEVMOS",
      "outputs": [
        {
          "internalType": "contract IUnbondedEvmos",
          "name": "",
          "type": "address"
        }
      ],
      "stateMutability": "view",
      "type": "function"
    },
    {
      "inputs": [
        {
          "internalType": "uint256",
          "name": "_minDebtInBase",
          "type": "uint256"
        },
        {
          "internalType": "uint256",
          "name": "_killFactorBps",
          "type": "uint256"
        }
      ],
      "name": "updateConfigs",
      "outputs": [],
      "stateMutability": "nonpayable",
      "type": "function"
    },
    {
      "inputs": [
        {
          "internalType": "address",
          "name": "token",
          "type": "address"
        },
        {
          "internalType": "address",
          "name": "vault",
          "type": "address"
        }
      ],
      "name": "updateVault",
      "outputs": [],
      "stateMutability": "nonpayable",
      "type": "function"
    },
    {
      "inputs": [
        {
          "internalType": "address",
          "name": "",
          "type": "address"
        }
      ],
      "name": "whitelistedKiller",
      "outputs": [
        {
          "internalType": "bool",
          "name": "",
          "type": "bool"
        }
      ],
      "stateMutability": "view",
      "type": "function"
    },
    {
      "stateMutability": "payable",
      "type": "receive"
    }
  ],
  "transactionHash": "0xbd511359dceae4247245a9ea3565d20f474943dd41d25f77d9383d72e7ec3571",
  "args": [],
  "numDeployments": 1,
  "solcInputHash": "7df1080f1955151d0e2635705d47dbd4",
  "bytecode": "0x608060405234801561001057600080fd5b506146f3806100206000396000f3fe6080604052600436106101db5760003560e01c806379e20bdc11610102578063bb94d3db11610095578063cff07fd111610064578063cff07fd1146106e5578063df5ca1f814610701578063ef6b24791461072a578063f2fde38b14610746576101e2565b8063bb94d3db14610623578063c1be667714610660578063c6918a611461069e578063ce9b7930146106ba576101e2565b8063a3381d28116100d1578063a3381d2814610569578063afd06b34146105a6578063b1ae5ed3146105d1578063b2a2a96b146105fa576101e2565b806379e20bdc146104af5780638da5cb5b146104d857806392707802146105035780639f2b28331461052c576101e2565b806328f55a6c1161017a57806351dabb751161014957806351dabb75146104025780635ff025311461043f578063715018a61461047c578063744f4cf614610493576101e2565b806328f55a6c146103345780632d4047e51461035f5780632d6f80131461039c57806334c389ef146103d9576101e2565b8063178483a7116101b6578063178483a7146102785780631a39d8ef146102a35780631b451d28146102ce57806327dfaf92146102f7576101e2565b8062dbccc6146101e7578063026c4207146102105780630c7e17251461023b576101e2565b366101e257005b600080fd5b3480156101f357600080fd5b5061020e600480360381019061020991906136a5565b61076f565b005b34801561021c57600080fd5b506102256107c2565b6040516102329190613e3b565b60405180910390f35b34801561024757600080fd5b50610262600480360381019061025d919061353a565b6107c8565b60405161026f9190613a53565b60405180910390f35b34801561028457600080fd5b5061028d6107fb565b60405161029a9190613e3b565b60405180910390f35b3480156102af57600080fd5b506102b8610801565b6040516102c59190613e3b565b60405180910390f35b3480156102da57600080fd5b506102f560048036038101906102f09190613563565b610807565b005b34801561030357600080fd5b5061031e60048036038101906103199190613563565b610ba9565b60405161032b9190613e3b565b60405180910390f35b34801561034057600080fd5b50610349610c3c565b6040516103569190613e3b565b60405180910390f35b34801561036b57600080fd5b5061038660048036038101906103819190613653565b610c42565b6040516103939190613e3b565b60405180910390f35b3480156103a857600080fd5b506103c360048036038101906103be9190613653565b610c76565b6040516103d09190613e3b565b60405180910390f35b3480156103e557600080fd5b5061040060048036038101906103fb919061359f565b610caa565b005b34801561040e57600080fd5b506104296004803603810190610424919061353a565b611019565b6040516104369190613e3b565b60405180910390f35b34801561044b57600080fd5b506104666004803603810190610461919061359f565b611031565b6040516104739190613b4a565b60405180910390f35b34801561048857600080fd5b506104916111cc565b005b6104ad60048036038101906104a89190613653565b6111e0565b005b3480156104bb57600080fd5b506104d660048036038101906104d1919061359f565b611320565b005b3480156104e457600080fd5b506104ed6115a6565b6040516104fa9190613a53565b60405180910390f35b34801561050f57600080fd5b5061052a6004803603810190610525919061359f565b6115d0565b005b34801561053857600080fd5b50610553600480360381019061054e919061353a565b6118d5565b6040516105609190613e3b565b60405180910390f35b34801561057557600080fd5b50610590600480360381019061058b919061353a565b6118ed565b60405161059d9190613b4a565b60405180910390f35b3480156105b257600080fd5b506105bb61190d565b6040516105c89190613b65565b60405180910390f35b3480156105dd57600080fd5b506105f860048036038101906105f3919061353a565b611933565b005b34801561060657600080fd5b50610621600480360381019061061c9190613563565b6119b6565b005b34801561062f57600080fd5b5061064a60048036038101906106459190613563565b611b5c565b6040516106579190613e3b565b60405180910390f35b34801561066c57600080fd5b506106876004803603810190610682919061359f565b611b81565b604051610695929190613ace565b60405180910390f35b6106b860048036038101906106b3919061359f565b611be2565b005b3480156106c657600080fd5b506106cf611e77565b6040516106dc9190613a53565b60405180910390f35b6106ff60048036038101906106fa91906135db565b611e9d565b005b34801561070d57600080fd5b506107286004803603810190610723919061353a565b612409565b005b610744600480360381019061073f919061359f565b6127ae565b005b34801561075257600080fd5b5061076d6004803603810190610768919061353a565b6129aa565b005b610777612a2e565b81609c8190555080609d819055507ff88c4daabad4d8a3268872e6513d06a7f6924a2390f0e3d89b8451a2ac0635c582826040516107b6929190613e56565b60405180910390a15050565b609b5481565b60996020528060005260406000206000915054906101000a900473ffffffffffffffffffffffffffffffffffffffff1681565b609c5481565b609a5481565b61080f612a2e565b60008073ffffffffffffffffffffffffffffffffffffffff16609960008573ffffffffffffffffffffffffffffffffffffffff1673ffffffffffffffffffffffffffffffffffffffff16815260200190815260200160002060009054906101000a900473ffffffffffffffffffffffffffffffffffffffff1673ffffffffffffffffffffffffffffffffffffffff1614905080156108e5577f7f03ac7449144076e2d9d5a237c3ff0d0108e0a2ebdd5213c4b0de6f4d4f695383836040516108d8929190613a6e565b60405180910390a1610a3e565b6000609960008573ffffffffffffffffffffffffffffffffffffffff1673ffffffffffffffffffffffffffffffffffffffff16815260200190815260200160002060009054906101000a900473ffffffffffffffffffffffffffffffffffffffff1673ffffffffffffffffffffffffffffffffffffffff1663c8dffa956040518163ffffffff1660e01b815260040160206040518083038186803b15801561098c57600080fd5b505afa1580156109a0573d6000803e3d6000fd5b505050506040513d601f19601f820116820180604052508101906109c4919061367c565b14610a04576040517f08c379a00000000000000000000000000000000000000000000000000000000081526004016109fb90613c1b565b60405180910390fd5b7f4cc233b502e1e28f371b28114d4a8be87a93f330c18e3c339079fc498320fb8d8383604051610a35929190613a6e565b60405180910390a15b81609960008573ffffffffffffffffffffffffffffffffffffffff1673ffffffffffffffffffffffffffffffffffffffff16815260200190815260200160002060006101000a81548173ffffffffffffffffffffffffffffffffffffffff021916908373ffffffffffffffffffffffffffffffffffffffff16021790555060a060008373ffffffffffffffffffffffffffffffffffffffff1673ffffffffffffffffffffffffffffffffffffffff1681526020019081526020016000206040518060400160405280600073ffffffffffffffffffffffffffffffffffffffff1681526020016000815250908060018154018082558091505060019003906000526020600020906002020160009091909190915060008201518160000160006101000a81548173ffffffffffffffffffffffffffffffffffffffff021916908373ffffffffffffffffffffffffffffffffffffffff160217905550602082015181600101555050505050565b60008173ffffffffffffffffffffffffffffffffffffffff16636592183b846040518263ffffffff1660e01b8152600401610be49190613a53565b60206040518083038186803b158015610bfc57600080fd5b505afa158015610c10573d6000803e3d6000fd5b505050506040513d601f19601f82011682018060405250810190610c34919061367c565b905092915050565b609d5481565b600080609a5414610c6d57609a5482609b54610c5e9190613fa9565b610c689190613f78565b610c6f565b815b9050919050565b600080609b5414610ca157609b5482609a54610c929190613fa9565b610c9c9190613f78565b610ca3565b815b9050919050565b6000609960008473ffffffffffffffffffffffffffffffffffffffff1673ffffffffffffffffffffffffffffffffffffffff16815260200190815260200160002060009054906101000a900473ffffffffffffffffffffffffffffffffffffffff169050600060a060008373ffffffffffffffffffffffffffffffffffffffff1673ffffffffffffffffffffffffffffffffffffffff168152602001908152602001600020609f60003373ffffffffffffffffffffffffffffffffffffffff1673ffffffffffffffffffffffffffffffffffffffff16815260200190815260200160002060008473ffffffffffffffffffffffffffffffffffffffff1673ffffffffffffffffffffffffffffffffffffffff1681526020019081526020016000205481548110610e03577f4e487b7100000000000000000000000000000000000000000000000000000000600052603260045260246000fd5b906000526020600020906002020190506000816001015411610e5a576040517f08c379a0000000000000000000000000000000000000000000000000000000008152600401610e5190613c9b565b60405180910390fd5b60008311610e9d576040517f08c379a0000000000000000000000000000000000000000000000000000000008152600401610e9490613d5b565b60405180910390fd5b8173ffffffffffffffffffffffffffffffffffffffff1663185cc75133856040518363ffffffff1660e01b8152600401610ed8929190613ace565b602060405180830381600087803b158015610ef257600080fd5b505af1158015610f06573d6000803e3d6000fd5b505050506040513d601f19601f82011682018060405250810190610f2a919061367c565b50610f358184612aac565b506000610f423384610ba9565b90506000610f5584846001015484612be5565b50905080610f98576040517f08c379a0000000000000000000000000000000000000000000000000000000008152600401610f8f90613c3b565b60405180910390fd5b8373ffffffffffffffffffffffffffffffffffffffff163373ffffffffffffffffffffffffffffffffffffffff167ff35a14688e4794e8022cd9e5c7ec6475a6095ef189dea9647fad0de771465b8a610ff48660010154610c76565b86600101548660405161100993929190613e7f565b60405180910390a3505050505050565b60a16020528060005260406000206000915090505481565b600080609960008573ffffffffffffffffffffffffffffffffffffffff1673ffffffffffffffffffffffffffffffffffffffff16815260200190815260200160002060009054906101000a900473ffffffffffffffffffffffffffffffffffffffff169050600060a060008373ffffffffffffffffffffffffffffffffffffffff1673ffffffffffffffffffffffffffffffffffffffff168152602001908152602001600020848154811061110f577f4e487b7100000000000000000000000000000000000000000000000000000000600052603260045260246000fd5b90600052602060002090600202016040518060400160405290816000820160009054906101000a900473ffffffffffffffffffffffffffffffffffffffff1673ffffffffffffffffffffffffffffffffffffffff1673ffffffffffffffffffffffffffffffffffffffff16815260200160018201548152505090506000816020015114156111a2576000925050506111c6565b6111be8282602001516111b9846000015186610ba9565b612be5565b508093505050505b92915050565b6111d4612a2e565b6111de6000612ca2565b565b609760009054906101000a900473ffffffffffffffffffffffffffffffffffffffff1673ffffffffffffffffffffffffffffffffffffffff163373ffffffffffffffffffffffffffffffffffffffff1614611270576040517f08c379a000000000000000000000000000000000000000000000000000000000815260040161126790613dbb565b60405180910390fd5b609a548110156112b5576040517f08c379a00000000000000000000000000000000000000000000000000000000081526004016112ac90613cdb565b60405180910390fd5b6000609a54826112c59190614003565b905081609a819055503373ffffffffffffffffffffffffffffffffffffffff167f9a65b5c5cdb30037df3368f844350f18c08099259c8c402a4781b85770983776826040516113149190613e3b565b60405180910390a25050565b6000609960008473ffffffffffffffffffffffffffffffffffffffff1673ffffffffffffffffffffffffffffffffffffffff16815260200190815260200160002060009054906101000a900473ffffffffffffffffffffffffffffffffffffffff169050600060a060008373ffffffffffffffffffffffffffffffffffffffff1673ffffffffffffffffffffffffffffffffffffffff168152602001908152602001600020609f60003373ffffffffffffffffffffffffffffffffffffffff1673ffffffffffffffffffffffffffffffffffffffff16815260200190815260200160002060008473ffffffffffffffffffffffffffffffffffffffff1673ffffffffffffffffffffffffffffffffffffffff1681526020019081526020016000205481548110611479577f4e487b7100000000000000000000000000000000000000000000000000000000600052603260045260246000fd5b9060005260206000209060020201905060006114953384610ba9565b90506114a385333087612d68565b6114ae858486612ea1565b8273ffffffffffffffffffffffffffffffffffffffff1663724e591033866040518363ffffffff1660e01b81526004016114e9929190613ace565b600060405180830381600087803b15801561150357600080fd5b505af1158015611517573d6000803e3d6000fd5b505050508273ffffffffffffffffffffffffffffffffffffffff163373ffffffffffffffffffffffffffffffffffffffff167ff35a14688e4794e8022cd9e5c7ec6475a6095ef189dea9647fad0de771465b8a6115778560010154610c76565b856001015488866115889190614003565b60405161159793929190613e7f565b60405180910390a35050505050565b6000603360009054906101000a900473ffffffffffffffffffffffffffffffffffffffff16905090565b609860003373ffffffffffffffffffffffffffffffffffffffff1673ffffffffffffffffffffffffffffffffffffffff16815260200190815260200160002060009054906101000a900460ff1661165c576040517f08c379a000000000000000000000000000000000000000000000000000000000815260040161165390613d3b565b60405180910390fd5b6000609960008473ffffffffffffffffffffffffffffffffffffffff1673ffffffffffffffffffffffffffffffffffffffff16815260200190815260200160002060009054906101000a900473ffffffffffffffffffffffffffffffffffffffff169050600060a060008373ffffffffffffffffffffffffffffffffffffffff1673ffffffffffffffffffffffffffffffffffffffff1681526020019081526020016000208381548110611739577f4e487b7100000000000000000000000000000000000000000000000000000000600052603260045260246000fd5b906000526020600020906002020190506000816001015411611790576040517f08c379a000000000000000000000000000000000000000000000000000000000815260040161178790613d1b565b60405180910390fd5b60006117c08260000160009054906101000a900473ffffffffffffffffffffffffffffffffffffffff1684610ba9565b90506000806117d485856001015485612be5565b9150915081611818576040517f08c379a000000000000000000000000000000000000000000000000000000000815260040161180f90613d9b565b60405180910390fd5b600061182985878760010154612fd7565b90508460000160009054906101000a900473ffffffffffffffffffffffffffffffffffffffff1673ffffffffffffffffffffffffffffffffffffffff163373ffffffffffffffffffffffffffffffffffffffff167f62b067e31c5a2d2734bc19924c46c930e1b7063b5b473238f2f8bb7ab88a15b68885856118ab9190614003565b86898b600101546040516118c3959493929190613af7565b60405180910390a35050505050505050565b60a26020528060005260406000206000915090505481565b60986020528060005260406000206000915054906101000a900460ff1681565b609e60009054906101000a900473ffffffffffffffffffffffffffffffffffffffff1681565b61193b612a2e565b80609760006101000a81548173ffffffffffffffffffffffffffffffffffffffff021916908373ffffffffffffffffffffffffffffffffffffffff1602179055507fc46722a14b09e7b7e59991ec89fb4bb88ffed57f1b2187a65e959f5c0053716d816040516119ab9190613a53565b60405180910390a150565b60008060019054906101000a900460ff161590508080156119e75750600160008054906101000a900460ff1660ff16105b80611a1457506119f630613229565b158015611a135750600160008054906101000a900460ff1660ff16145b5b611a53576040517f08c379a0000000000000000000000000000000000000000000000000000000008152600401611a4a90613c5b565b60405180910390fd5b60016000806101000a81548160ff021916908360ff1602179055508015611a90576001600060016101000a81548160ff0219169083151502179055505b611a9861324c565b611aa06132a5565b611ab4678ac7230489e80000611f4061076f565b81609e60006101000a81548173ffffffffffffffffffffffffffffffffffffffff021916908373ffffffffffffffffffffffffffffffffffffffff160217905550611afe83611933565b8015611b575760008060016101000a81548160ff0219169083151502179055507f7f26b83ff96e1f2b6a682f133852f6798a09c465da95921460cefb38474024986001604051611b4e9190613b80565b60405180910390a15b505050565b609f602052816000526040600020602052806000526040600020600091509150505481565b60a06020528160005260406000208181548110611b9d57600080fd5b9060005260206000209060020201600091509150508060000160009054906101000a900473ffffffffffffffffffffffffffffffffffffffff16908060010154905082565b6000609960008473ffffffffffffffffffffffffffffffffffffffff1673ffffffffffffffffffffffffffffffffffffffff16815260200190815260200160002060009054906101000a900473ffffffffffffffffffffffffffffffffffffffff169050600060a060008373ffffffffffffffffffffffffffffffffffffffff1673ffffffffffffffffffffffffffffffffffffffff168152602001908152602001600020609f60003373ffffffffffffffffffffffffffffffffffffffff1673ffffffffffffffffffffffffffffffffffffffff16815260200190815260200160002060008473ffffffffffffffffffffffffffffffffffffffff1673ffffffffffffffffffffffffffffffffffffffff1681526020019081526020016000205481548110611d3b577f4e487b7100000000000000000000000000000000000000000000000000000000600052603260045260246000fd5b906000526020600020906002020190506000611d573384610ba9565b905060008373ffffffffffffffffffffffffffffffffffffffff16639d2e6fcb3433886040518463ffffffff1660e01b8152600401611d97929190613ace565b6020604051808303818588803b158015611db057600080fd5b505af1158015611dc4573d6000803e3d6000fd5b50505050506040513d601f19601f82011682018060405250810190611de9919061367c565b90508373ffffffffffffffffffffffffffffffffffffffff163373ffffffffffffffffffffffffffffffffffffffff167ff35a14688e4794e8022cd9e5c7ec6475a6095ef189dea9647fad0de771465b8a611e478660010154610c76565b86600101548587611e589190614003565b604051611e6793929190613e7f565b60405180910390a3505050505050565b609760009054906101000a900473ffffffffffffffffffffffffffffffffffffffff1681565b6000609960008573ffffffffffffffffffffffffffffffffffffffff1673ffffffffffffffffffffffffffffffffffffffff16815260200190815260200160002060009054906101000a900473ffffffffffffffffffffffffffffffffffffffff1690506000609f60003373ffffffffffffffffffffffffffffffffffffffff1673ffffffffffffffffffffffffffffffffffffffff16815260200190815260200160002060008373ffffffffffffffffffffffffffffffffffffffff1673ffffffffffffffffffffffffffffffffffffffff1681526020019081526020016000205411611fc0576040517f08c379a0000000000000000000000000000000000000000000000000000000008152600401611fb790613bbb565b60405180910390fd5b348314612002576040517f08c379a0000000000000000000000000000000000000000000000000000000008152600401611ff990613d7b565b60405180910390fd5b600082846120109190613f22565b9050609d54816120209190613fa9565b6127108461202e9190613fa9565b1061206e576040517f08c379a000000000000000000000000000000000000000000000000000000000815260040161206590613cfb565b60405180910390fd5b60008273ffffffffffffffffffffffffffffffffffffffff1663185cc75133866040518363ffffffff1660e01b81526004016120ab929190613ace565b602060405180830381600087803b1580156120c557600080fd5b505af11580156120d9573d6000803e3d6000fd5b505050506040513d601f19601f820116820180604052508101906120fd919061367c565b905060a060008473ffffffffffffffffffffffffffffffffffffffff1673ffffffffffffffffffffffffffffffffffffffff16815260200190815260200160002060405180604001604052803373ffffffffffffffffffffffffffffffffffffffff1681526020016000815250908060018154018082558091505060019003906000526020600020906002020160009091909190915060008201518160000160006101000a81548173ffffffffffffffffffffffffffffffffffffffff021916908373ffffffffffffffffffffffffffffffffffffffff160217905550602082015181600101555050600060a160008573ffffffffffffffffffffffffffffffffffffffff1673ffffffffffffffffffffffffffffffffffffffff168152602001908152602001600020549050600160a160008673ffffffffffffffffffffffffffffffffffffffff1673ffffffffffffffffffffffffffffffffffffffff168152602001908152602001600020600082825461227a9190613f22565b9250508190555080609f60003373ffffffffffffffffffffffffffffffffffffffff1673ffffffffffffffffffffffffffffffffffffffff16815260200190815260200160002060008673ffffffffffffffffffffffffffffffffffffffff1673ffffffffffffffffffffffffffffffffffffffff16815260200190815260200160002081905550600061239260a060008773ffffffffffffffffffffffffffffffffffffffff1673ffffffffffffffffffffffffffffffffffffffff168152602001908152602001600020838154811061237e577f4e487b7100000000000000000000000000000000000000000000000000000000600052603260045260246000fd5b906000526020600020906002020185612aac565b90508473ffffffffffffffffffffffffffffffffffffffff163373ffffffffffffffffffffffffffffffffffffffff167f92b0fd5c6dbe6ec5b43a8afae4c587c1db47afcca43a21b7800bd848fcf8e496898987866040516123f79493929190613eb6565b60405180910390a35050505050505050565b6000609960008373ffffffffffffffffffffffffffffffffffffffff1673ffffffffffffffffffffffffffffffffffffffff16815260200190815260200160002060009054906101000a900473ffffffffffffffffffffffffffffffffffffffff169050600060a060008373ffffffffffffffffffffffffffffffffffffffff1673ffffffffffffffffffffffffffffffffffffffff168152602001908152602001600020609f60003373ffffffffffffffffffffffffffffffffffffffff1673ffffffffffffffffffffffffffffffffffffffff16815260200190815260200160002060008473ffffffffffffffffffffffffffffffffffffffff1673ffffffffffffffffffffffffffffffffffffffff1681526020019081526020016000205481548110612562577f4e487b7100000000000000000000000000000000000000000000000000000000600052603260045260246000fd5b9060005260206000209060020201905060008160010154116125b9576040517f08c379a00000000000000000000000000000000000000000000000000000000081526004016125b090613e1b565b60405180910390fd5b60006125c53384610ba9565b905060008373ffffffffffffffffffffffffffffffffffffffff166395d6abf8836040518263ffffffff1660e01b81526004016126029190613e3b565b60206040518083038186803b15801561261a57600080fd5b505afa15801561262e573d6000803e3d6000fd5b505050506040513d601f19601f82011682018060405250810190612652919061367c565b9050600061266584868660010154612fd7565b9050818110156126aa576040517f08c379a00000000000000000000000000000000000000000000000000000000081526004016126a190613bfb565b60405180910390fd5b8473ffffffffffffffffffffffffffffffffffffffff163373ffffffffffffffffffffffffffffffffffffffff167f3cb91b4d61d4fefa96da17651a09b54f7b6751cb68d11134cf0efe0a4965796884846127059190614003565b8587896001015460405161271c9493929190613eb6565b60405180910390a36000609f60003373ffffffffffffffffffffffffffffffffffffffff1673ffffffffffffffffffffffffffffffffffffffff16815260200190815260200160002060008773ffffffffffffffffffffffffffffffffffffffff1673ffffffffffffffffffffffffffffffffffffffff16815260200190815260200160002081905550505050505050565b6000609960008473ffffffffffffffffffffffffffffffffffffffff1673ffffffffffffffffffffffffffffffffffffffff16815260200190815260200160002060009054906101000a900473ffffffffffffffffffffffffffffffffffffffff169050600060a060008373ffffffffffffffffffffffffffffffffffffffff1673ffffffffffffffffffffffffffffffffffffffff168152602001908152602001600020609f60003373ffffffffffffffffffffffffffffffffffffffff1673ffffffffffffffffffffffffffffffffffffffff16815260200190815260200160002060008473ffffffffffffffffffffffffffffffffffffffff1673ffffffffffffffffffffffffffffffffffffffff1681526020019081526020016000205481548110612907577f4e487b7100000000000000000000000000000000000000000000000000000000600052603260045260246000fd5b906000526020600020906002020190506129218184612aac565b508173ffffffffffffffffffffffffffffffffffffffff163373ffffffffffffffffffffffffffffffffffffffff167ff35a14688e4794e8022cd9e5c7ec6475a6095ef189dea9647fad0de771465b8a61297e8460010154610c76565b846001015461298d3388610ba9565b60405161299c93929190613e7f565b60405180910390a350505050565b6129b2612a2e565b600073ffffffffffffffffffffffffffffffffffffffff168173ffffffffffffffffffffffffffffffffffffffff161415612a22576040517f08c379a0000000000000000000000000000000000000000000000000000000008152600401612a1990613b9b565b60405180910390fd5b612a2b81612ca2565b50565b612a366132fe565b73ffffffffffffffffffffffffffffffffffffffff16612a546115a6565b73ffffffffffffffffffffffffffffffffffffffff1614612aaa576040517f08c379a0000000000000000000000000000000000000000000000000000000008152600401612aa190613cbb565b60405180910390fd5b565b6000612ab782610c42565b905080836001016000828254612acd9190613f22565b9250508190555081609a6000828254612ae69190613f22565b9250508190555080609b6000828254612aff9190613f22565b92505081905550612b32609760009054906101000a900473ffffffffffffffffffffffffffffffffffffffff1683613306565b8260000160009054906101000a900473ffffffffffffffffffffffffffffffffffffffff1673ffffffffffffffffffffffffffffffffffffffff16609760009054906101000a900473ffffffffffffffffffffffffffffffffffffffff1673ffffffffffffffffffffffffffffffffffffffff167f63602d0ecc7b3a0ef7ff1a116e23056662d64280355ba8031b6d0d767c4b44588484604051612bd7929190613e56565b60405180910390a392915050565b6000808473ffffffffffffffffffffffffffffffffffffffff166395d6abf8846040518263ffffffff1660e01b8152600401612c219190613e3b565b60206040518083038186803b158015612c3957600080fd5b505afa158015612c4d573d6000803e3d6000fd5b505050506040513d601f19601f82011682018060405250810190612c71919061367c565b9050609d54612c7f85610c76565b612c899190613fa9565b61271082612c979190613fa9565b109150935093915050565b6000603360009054906101000a900473ffffffffffffffffffffffffffffffffffffffff16905081603360006101000a81548173ffffffffffffffffffffffffffffffffffffffff021916908373ffffffffffffffffffffffffffffffffffffffff1602179055508173ffffffffffffffffffffffffffffffffffffffff168173ffffffffffffffffffffffffffffffffffffffff167f8be0079c531659141344cd1fd0a4f28419497f9722a3daafe3b4186f6b6457e060405160405180910390a35050565b6000808573ffffffffffffffffffffffffffffffffffffffff166323b872dd868686604051602401612d9c93929190613a97565b6040516020818303038152906040529060e01b6020820180517bffffffffffffffffffffffffffffffffffffffffffffffffffffffff8381831617835250505050604051612dea9190613a3c565b6000604051808303816000865af19150503d8060008114612e27576040519150601f19603f3d011682016040523d82523d6000602084013e612e2c565b606091505b5091509150818015612e5a5750600081511480612e59575080806020019051810190612e58919061362a565b5b5b612e99576040517f08c379a0000000000000000000000000000000000000000000000000000000008152600401612e9090613dfb565b60405180910390fd5b505050505050565b6000808473ffffffffffffffffffffffffffffffffffffffff1663095ea7b38585604051602401612ed3929190613ace565b6040516020818303038152906040529060e01b6020820180517bffffffffffffffffffffffffffffffffffffffffffffffffffffffff8381831617835250505050604051612f219190613a3c565b6000604051808303816000865af19150503d8060008114612f5e576040519150601f19603f3d011682016040523d82523d6000602084013e612f63565b606091505b5091509150818015612f915750600081511480612f90575080806020019051810190612f8f919061362a565b5b5b612fd0576040517f08c379a0000000000000000000000000000000000000000000000000000000008152600401612fc790613bdb565b60405180910390fd5b5050505050565b6000612fe282610c76565b905081846001016000828254612ff89190614003565b9250508190555080609a60008282546130119190614003565b9250508190555081609b600082825461302a9190614003565b925050819055508273ffffffffffffffffffffffffffffffffffffffff16634b794aa18560000160009054906101000a900473ffffffffffffffffffffffffffffffffffffffff166040518263ffffffff1660e01b815260040161308e9190613a53565b600060405180830381600087803b1580156130a857600080fd5b505af11580156130bc573d6000803e3d6000fd5b50505050609e60009054906101000a900473ffffffffffffffffffffffffffffffffffffffff1673ffffffffffffffffffffffffffffffffffffffff166314e7a5798560000160009054906101000a900473ffffffffffffffffffffffffffffffffffffffff1685846040518463ffffffff1660e01b815260040161314393929190613a97565b600060405180830381600087803b15801561315d57600080fd5b505af1158015613171573d6000803e3d6000fd5b505050508360000160009054906101000a900473ffffffffffffffffffffffffffffffffffffffff1673ffffffffffffffffffffffffffffffffffffffff16609760009054906101000a900473ffffffffffffffffffffffffffffffffffffffff1673ffffffffffffffffffffffffffffffffffffffff167f18edd09e80386cd99df397e2e0d87d2bb259423eae08645e776321a36fe680ef838560405161321a929190613e56565b60405180910390a39392505050565b6000808273ffffffffffffffffffffffffffffffffffffffff163b119050919050565b600060019054906101000a900460ff1661329b576040517f08c379a000000000000000000000000000000000000000000000000000000000815260040161329290613ddb565b60405180910390fd5b6132a361342c565b565b600060019054906101000a900460ff166132f4576040517f08c379a00000000000000000000000000000000000000000000000000000000081526004016132eb90613ddb565b60405180910390fd5b6132fc61348d565b565b600033905090565b60008273ffffffffffffffffffffffffffffffffffffffff1682600067ffffffffffffffff811115613361577f4e487b7100000000000000000000000000000000000000000000000000000000600052604160045260246000fd5b6040519080825280601f01601f1916602001820160405280156133935781602001600182028036833780820191505090505b506040516133a19190613a3c565b60006040518083038185875af1925050503d80600081146133de576040519150601f19603f3d011682016040523d82523d6000602084013e6133e3565b606091505b5050905080613427576040517f08c379a000000000000000000000000000000000000000000000000000000000815260040161341e90613c7b565b60405180910390fd5b505050565b600060019054906101000a900460ff1661347b576040517f08c379a000000000000000000000000000000000000000000000000000000000815260040161347290613ddb565b60405180910390fd5b61348b6134866132fe565b612ca2565b565b600060019054906101000a900460ff166134dc576040517f08c379a00000000000000000000000000000000000000000000000000000000081526004016134d390613ddb565b60405180910390fd5b6001606581905550565b6000813590506134f581614678565b92915050565b60008151905061350a8161468f565b92915050565b60008135905061351f816146a6565b92915050565b600081519050613534816146a6565b92915050565b60006020828403121561354c57600080fd5b600061355a848285016134e6565b91505092915050565b6000806040838503121561357657600080fd5b6000613584858286016134e6565b9250506020613595858286016134e6565b9150509250929050565b600080604083850312156135b257600080fd5b60006135c0858286016134e6565b92505060206135d185828601613510565b9150509250929050565b6000806000606084860312156135f057600080fd5b60006135fe868287016134e6565b935050602061360f86828701613510565b925050604061362086828701613510565b9150509250925092565b60006020828403121561363c57600080fd5b600061364a848285016134fb565b91505092915050565b60006020828403121561366557600080fd5b600061367384828501613510565b91505092915050565b60006020828403121561368e57600080fd5b600061369c84828501613525565b91505092915050565b600080604083850312156136b857600080fd5b60006136c685828601613510565b92505060206136d785828601613510565b9150509250929050565b6136ea81614037565b82525050565b6136f981614049565b82525050565b600061370a82613efb565b6137148185613f06565b93506137248185602086016140c2565b80840191505092915050565b6137398161408c565b82525050565b613748816140b0565b82525050565b600061375b602683613f11565b915061376682614153565b604082019050919050565b600061377e602283613f11565b9150613789826141a2565b604082019050919050565b60006137a1600c83613f11565b91506137ac826141f1565b602082019050919050565b60006137c4601883613f11565b91506137cf8261421a565b602082019050919050565b60006137e7603083613f11565b91506137f282614243565b604082019050919050565b600061380a603083613f11565b915061381582614292565b604082019050919050565b600061382d602e83613f11565b9150613838826142e1565b604082019050919050565b6000613850601283613f11565b915061385b82614330565b602082019050919050565b6000613873602783613f11565b915061387e82614359565b604082019050919050565b6000613896602083613f11565b91506138a1826143a8565b602082019050919050565b60006138b9602883613f11565b91506138c4826143d1565b604082019050919050565b60006138dc602b83613f11565b91506138e782614420565b604082019050919050565b60006138ff601683613f11565b915061390a8261446f565b602082019050919050565b6000613922602183613f11565b915061392d82614498565b604082019050919050565b6000613945601d83613f11565b9150613950826144e7565b602082019050919050565b6000613968602083613f11565b915061397382614510565b602082019050919050565b600061398b601a83613f11565b915061399682614539565b602082019050919050565b60006139ae602483613f11565b91506139b982614562565b604082019050919050565b60006139d1602b83613f11565b91506139dc826145b1565b604082019050919050565b60006139f4601183613f11565b91506139ff82614600565b602082019050919050565b6000613a17602a83613f11565b9150613a2282614629565b604082019050919050565b613a3681614075565b82525050565b6000613a4882846136ff565b915081905092915050565b6000602082019050613a6860008301846136e1565b92915050565b6000604082019050613a8360008301856136e1565b613a9060208301846136e1565b9392505050565b6000606082019050613aac60008301866136e1565b613ab960208301856136e1565b613ac66040830184613a2d565b949350505050565b6000604082019050613ae360008301856136e1565b613af06020830184613a2d565b9392505050565b600060a082019050613b0c60008301886136e1565b613b196020830187613a2d565b613b266040830186613a2d565b613b336060830185613a2d565b613b406080830184613a2d565b9695505050505050565b6000602082019050613b5f60008301846136f0565b92915050565b6000602082019050613b7a6000830184613730565b92915050565b6000602082019050613b95600083018461373f565b92915050565b60006020820190508181036000830152613bb48161374e565b9050919050565b60006020820190508181036000830152613bd481613771565b9050919050565b60006020820190508181036000830152613bf481613794565b9050919050565b60006020820190508181036000830152613c14816137b7565b9050919050565b60006020820190508181036000830152613c34816137da565b9050919050565b60006020820190508181036000830152613c54816137fd565b9050919050565b60006020820190508181036000830152613c7481613820565b9050919050565b60006020820190508181036000830152613c9481613843565b9050919050565b60006020820190508181036000830152613cb481613866565b9050919050565b60006020820190508181036000830152613cd481613889565b9050919050565b60006020820190508181036000830152613cf4816138ac565b9050919050565b60006020820190508181036000830152613d14816138cf565b9050919050565b60006020820190508181036000830152613d34816138f2565b9050919050565b60006020820190508181036000830152613d5481613915565b9050919050565b60006020820190508181036000830152613d7481613938565b9050919050565b60006020820190508181036000830152613d948161395b565b9050919050565b60006020820190508181036000830152613db48161397e565b9050919050565b60006020820190508181036000830152613dd4816139a1565b9050919050565b60006020820190508181036000830152613df4816139c4565b9050919050565b60006020820190508181036000830152613e14816139e7565b9050919050565b60006020820190508181036000830152613e3481613a0a565b9050919050565b6000602082019050613e506000830184613a2d565b92915050565b6000604082019050613e6b6000830185613a2d565b613e786020830184613a2d565b9392505050565b6000606082019050613e946000830186613a2d565b613ea16020830185613a2d565b613eae6040830184613a2d565b949350505050565b6000608082019050613ecb6000830187613a2d565b613ed86020830186613a2d565b613ee56040830185613a2d565b613ef26060830184613a2d565b95945050505050565b600081519050919050565b600081905092915050565b600082825260208201905092915050565b6000613f2d82614075565b9150613f3883614075565b9250827fffffffffffffffffffffffffffffffffffffffffffffffffffffffffffffffff03821115613f6d57613f6c6140f5565b5b828201905092915050565b6000613f8382614075565b9150613f8e83614075565b925082613f9e57613f9d614124565b5b828204905092915050565b6000613fb482614075565b9150613fbf83614075565b9250817fffffffffffffffffffffffffffffffffffffffffffffffffffffffffffffffff0483118215151615613ff857613ff76140f5565b5b828202905092915050565b600061400e82614075565b915061401983614075565b92508282101561402c5761402b6140f5565b5b828203905092915050565b600061404282614055565b9050919050565b60008115159050919050565b600073ffffffffffffffffffffffffffffffffffffffff82169050919050565b6000819050919050565b600060ff82169050919050565b60006140978261409e565b9050919050565b60006140a982614055565b9050919050565b60006140bb8261407f565b9050919050565b60005b838110156140e05780820151818401526020810190506140c5565b838111156140ef576000848401525b50505050565b7f4e487b7100000000000000000000000000000000000000000000000000000000600052601160045260246000fd5b7f4e487b7100000000000000000000000000000000000000000000000000000000600052601260045260246000fd5b7f4f776e61626c653a206e6577206f776e657220697320746865207a65726f206160008201527f6464726573730000000000000000000000000000000000000000000000000000602082015250565b7f616464506f736974696f6e3a20616c7265616479206861766520706f7369746960008201527f6f6e000000000000000000000000000000000000000000000000000000000000602082015250565b7f2173616665417070726f76650000000000000000000000000000000000000000600082015250565b7f72656d6f7665506f736974696f6e3a2042616420646562740000000000000000600082015250565b7f7570646174655661756c743a20446562742072656d61696e73206f6e2074686560008201527f206578697374696e67207661756c742e00000000000000000000000000000000602082015250565b7f616464446562743a2062616420646562742c2063616e6e6f7420616464206d6f60008201527f7265206465627420616e796d6f72652e00000000000000000000000000000000602082015250565b7f496e697469616c697a61626c653a20636f6e747261637420697320616c72656160008201527f647920696e697469616c697a6564000000000000000000000000000000000000602082015250565b7f21736166655472616e7366657245564d4f530000000000000000000000000000600082015250565b7f616464446562743a206e6f20706f736974696f6e20696e20666f72207468697360008201527f20746f6b656e2e00000000000000000000000000000000000000000000000000602082015250565b7f4f776e61626c653a2063616c6c6572206973206e6f7420746865206f776e6572600082015250565b7f6163637275653a2063757272656e74546f74616c5374616b6564203c20746f7460008201527f616c416d6f756e74000000000000000000000000000000000000000000000000602082015250565b7f616464506f736974696f6e3a2062616420646562742c2063616e6e6f74206f7060008201527f656e20706f736974696f6e000000000000000000000000000000000000000000602082015250565b7f6b696c6c3a2072656d6f76656420706f736974696f6e00000000000000000000600082015250565b7f537461796b696e673a204e6f742077686974656c6973746564204b696c6c657260008201527f2e00000000000000000000000000000000000000000000000000000000000000602082015250565b7f616464446562743a20657874726144656274496e42617365203c3d2030000000600082015250565b7f616464506f736974696f6e3a206d73672e76616c756520213d20657175697479600082015250565b7f6b696c6c3a207374696c6c207361666520706f736974696f6e2e000000000000600082015250565b7f537461796b696e673a204e6f742077686974656c69737465642064656c65676160008201527f746f722e00000000000000000000000000000000000000000000000000000000602082015250565b7f496e697469616c697a61626c653a20636f6e7472616374206973206e6f74206960008201527f6e697469616c697a696e67000000000000000000000000000000000000000000602082015250565b7f21736166655472616e7366657246726f6d000000000000000000000000000000600082015250565b7f72656d6f7665506f736974696f6e3a204e6f20706f736974696f6e20666f722060008201527f7468697320746f6b656e00000000000000000000000000000000000000000000602082015250565b61468181614037565b811461468c57600080fd5b50565b61469881614049565b81146146a357600080fd5b50565b6146af81614075565b81146146ba57600080fd5b5056fea26469706673582212205a3d769ed4066095c1dac9489cac61e83e5079a06e57da67a9e52424737aadba64736f6c63430008040033",
  "devdoc": {
    "kind": "dev",
    "methods": {
      "addDebt(address,uint256)": {
        "details": "Borrow more debt (increase debt ratio)",
        "params": {
          "debtToken": "debtToken Address (not vault address)",
          "extraDebtInBase": "amount of additional debt in EVMOS"
        }
      },
      "addEquity(address,uint256)": {
        "details": "add additional equity (decrease debt ratio)",
        "params": {
          "debtToken": "debtToken Address (not vault address)",
          "extraEquity": "amount of additional equity"
        }
      },
      "addPosition(address,uint256,uint256)": {
        "params": {
          "debtInBase": "debtAmount in EVMOS",
          "debtToken": "debtToken Address (not vault address)",
          "equity": "equityAmount in EVMOS"
        }
      },
      "owner()": {
        "details": "Returns the address of the current owner."
      },
      "removePosition(address)": {
        "details": "remove all position of debtToken vault.",
        "params": {
          "debtToken": "debtToken Address (not vault address)"
        }
      },
      "renounceOwnership()": {
        "details": "Leaves the contract without owner. It will not be possible to call `onlyOwner` functions anymore. Can only be called by the current owner. NOTE: Renouncing ownership will leave the contract without an owner, thereby removing any functionality that is only available to the owner."
      },
      "repayDebt(address,uint256)": {
        "details": "Repay debt (decrease debt ratio, total staked amount(or share) does not change)",
        "params": {
          "debtToken": "debtToken Address (not vault address)",
          "repaidDebt": "amount of repaid debt in debtToken"
        }
      },
      "repayDebtInBase(address,uint256)": {
        "details": "Repay debt with EVMOS (decrease debt ratio, total staked amount(or share) does not change)",
        "params": {
          "debtToken": "debtToken Address (not vault address)",
          "minRepaid": "minimum value to be repaid"
        }
      },
      "transferOwnership(address)": {
        "details": "Transfers ownership of the contract to a new account (`newOwner`). Can only be called by the current owner."
      }
    },
    "stateVariables": {
      "minDebtInBase": {
        "details": "min debtAmount in EVMOS (base token)"
      },
      "positionIdOf": {
        "details": "userAddress => vaultAddress => positionId (array Index of position)"
      },
      "positions": {
        "details": "vaultAddress => Position[]"
      },
      "totalAmount": {
        "details": "kor)    + auto-compound "
      },
      "totalShare": {
        "details": "kor) auto-compound totalShare  .     ( /totalAmount) * totalShare  share ."
      }
    },
    "version": 1
  },
  "userdoc": {
    "kind": "user",
    "methods": {
      "amountToShare(uint256)": {
        "notice": "    (  / totalAmount) * totalShare  share ."
      },
      "removePosition(address)": {
        "notice": "kor)  100%      . ->   ."
      },
      "repayDebt(address,uint256)": {
        "notice": "user should repay debt using debtTokenuser approve should be preceded"
      },
      "repayDebtInBase(address,uint256)": {
        "notice": "repaidDebtInBase = msg.value"
      }
    },
    "version": 1
  },
  "storageLayout": {
    "storage": [
      {
        "astId": 1949,
        "contract": "contracts/token/Stayking.sol:Stayking",
        "label": "_initialized",
        "offset": 0,
        "slot": "0",
        "type": "t_uint8"
      },
      {
        "astId": 1952,
        "contract": "contracts/token/Stayking.sol:Stayking",
        "label": "_initializing",
        "offset": 1,
        "slot": "0",
        "type": "t_bool"
      },
      {
        "astId": 714,
        "contract": "contracts/token/Stayking.sol:Stayking",
        "label": "__gap",
        "offset": 0,
        "slot": "1",
        "type": "t_array(t_uint256)50_storage"
      },
      {
        "astId": 2217,
        "contract": "contracts/token/Stayking.sol:Stayking",
        "label": "_owner",
        "offset": 0,
        "slot": "51",
        "type": "t_address"
      },
      {
        "astId": 2337,
        "contract": "contracts/token/Stayking.sol:Stayking",
        "label": "__gap",
        "offset": 0,
        "slot": "52",
        "type": "t_array(t_uint256)49_storage"
      },
      {
        "astId": 2352,
        "contract": "contracts/token/Stayking.sol:Stayking",
        "label": "_status",
        "offset": 0,
        "slot": "101",
        "type": "t_uint256"
      },
      {
        "astId": 2396,
        "contract": "contracts/token/Stayking.sol:Stayking",
        "label": "__gap",
        "offset": 0,
        "slot": "102",
        "type": "t_array(t_uint256)49_storage"
      },
      {
        "astId": 3131,
        "contract": "contracts/token/Stayking.sol:Stayking",
        "label": "delegator",
        "offset": 0,
        "slot": "151",
        "type": "t_address"
      },
      {
        "astId": 3135,
        "contract": "contracts/token/Stayking.sol:Stayking",
        "label": "whitelistedKiller",
        "offset": 0,
        "slot": "152",
        "type": "t_mapping(t_address,t_bool)"
      },
      {
        "astId": 3140,
        "contract": "contracts/token/Stayking.sol:Stayking",
        "label": "tokenToVault",
        "offset": 0,
        "slot": "153",
        "type": "t_mapping(t_address,t_address)"
      },
      {
        "astId": 3143,
        "contract": "contracts/token/Stayking.sol:Stayking",
        "label": "totalAmount",
        "offset": 0,
        "slot": "154",
        "type": "t_uint256"
      },
      {
        "astId": 3146,
        "contract": "contracts/token/Stayking.sol:Stayking",
        "label": "totalShare",
        "offset": 0,
        "slot": "155",
        "type": "t_uint256"
      },
      {
        "astId": 3150,
        "contract": "contracts/token/Stayking.sol:Stayking",
        "label": "minDebtInBase",
        "offset": 0,
        "slot": "156",
        "type": "t_uint256"
      },
      {
        "astId": 3153,
        "contract": "contracts/token/Stayking.sol:Stayking",
        "label": "killFactorBps",
        "offset": 0,
        "slot": "157",
        "type": "t_uint256"
      },
      {
        "astId": 3156,
        "contract": "contracts/token/Stayking.sol:Stayking",
        "label": "uEVMOS",
        "offset": 0,
        "slot": "158",
        "type": "t_contract(IUnbondedEvmos)236"
      },
      {
        "astId": 3169,
        "contract": "contracts/token/Stayking.sol:Stayking",
        "label": "positionIdOf",
        "offset": 0,
        "slot": "159",
        "type": "t_mapping(t_address,t_mapping(t_address,t_uint256))"
      },
      {
        "astId": 3176,
        "contract": "contracts/token/Stayking.sol:Stayking",
        "label": "positions",
        "offset": 0,
        "slot": "160",
        "type": "t_mapping(t_address,t_array(t_struct(Position)3162_storage)dyn_storage)"
      },
      {
        "astId": 3180,
        "contract": "contracts/token/Stayking.sol:Stayking",
        "label": "positionsLengthOf",
        "offset": 0,
        "slot": "161",
        "type": "t_mapping(t_address,t_uint256)"
      },
      {
        "astId": 3184,
        "contract": "contracts/token/Stayking.sol:Stayking",
        "label": "totalDebtOf",
        "offset": 0,
        "slot": "162",
        "type": "t_mapping(t_address,t_uint256)"
      }
    ],
    "types": {
      "t_address": {
        "encoding": "inplace",
        "label": "address",
        "numberOfBytes": "20"
      },
      "t_array(t_struct(Position)3162_storage)dyn_storage": {
        "base": "t_struct(Position)3162_storage",
        "encoding": "dynamic_array",
        "label": "struct Stayking.Position[]",
        "numberOfBytes": "32"
      },
      "t_array(t_uint256)49_storage": {
        "base": "t_uint256",
        "encoding": "inplace",
        "label": "uint256[49]",
        "numberOfBytes": "1568"
      },
      "t_array(t_uint256)50_storage": {
        "base": "t_uint256",
        "encoding": "inplace",
        "label": "uint256[50]",
        "numberOfBytes": "1600"
      },
      "t_bool": {
        "encoding": "inplace",
        "label": "bool",
        "numberOfBytes": "1"
      },
      "t_contract(IUnbondedEvmos)236": {
        "encoding": "inplace",
        "label": "contract IUnbondedEvmos",
        "numberOfBytes": "20"
      },
      "t_mapping(t_address,t_address)": {
        "encoding": "mapping",
        "key": "t_address",
        "label": "mapping(address => address)",
        "numberOfBytes": "32",
        "value": "t_address"
      },
      "t_mapping(t_address,t_array(t_struct(Position)3162_storage)dyn_storage)": {
        "encoding": "mapping",
        "key": "t_address",
        "label": "mapping(address => struct Stayking.Position[])",
        "numberOfBytes": "32",
        "value": "t_array(t_struct(Position)3162_storage)dyn_storage"
      },
      "t_mapping(t_address,t_bool)": {
        "encoding": "mapping",
        "key": "t_address",
        "label": "mapping(address => bool)",
        "numberOfBytes": "32",
        "value": "t_bool"
      },
      "t_mapping(t_address,t_mapping(t_address,t_uint256))": {
        "encoding": "mapping",
        "key": "t_address",
        "label": "mapping(address => mapping(address => uint256))",
        "numberOfBytes": "32",
        "value": "t_mapping(t_address,t_uint256)"
      },
      "t_mapping(t_address,t_uint256)": {
        "encoding": "mapping",
        "key": "t_address",
        "label": "mapping(address => uint256)",
        "numberOfBytes": "32",
        "value": "t_uint256"
      },
      "t_struct(Position)3162_storage": {
        "encoding": "inplace",
        "label": "struct Stayking.Position",
        "members": [
          {
            "astId": 3158,
            "contract": "contracts/token/Stayking.sol:Stayking",
            "label": "user",
            "offset": 0,
            "slot": "0",
            "type": "t_address"
          },
          {
            "astId": 3161,
            "contract": "contracts/token/Stayking.sol:Stayking",
            "label": "share",
            "offset": 0,
            "slot": "1",
            "type": "t_uint256"
          }
        ],
        "numberOfBytes": "64"
      },
      "t_uint256": {
        "encoding": "inplace",
        "label": "uint256",
        "numberOfBytes": "32"
      },
      "t_uint8": {
        "encoding": "inplace",
        "label": "uint8",
        "numberOfBytes": "1"
      }
    }
  }
}