{
  "address": "0x4A679253410272dd5232B3Ff7cF5dbB88f295319",
  "abi": [
    {
      "anonymous": false,
      "inputs": [
        {
          "indexed": false,
          "internalType": "uint8",
          "name": "version",
          "type": "uint8"
        }
      ],
      "name": "Initialized",
      "type": "event"
    },
    {
      "anonymous": false,
      "inputs": [
        {
          "indexed": false,
          "internalType": "address",
          "name": "account",
          "type": "address"
        },
        {
          "indexed": false,
          "internalType": "address",
          "name": "vault",
          "type": "address"
        },
        {
          "indexed": false,
          "internalType": "uint256",
          "name": "lockedIndex",
          "type": "uint256"
        }
      ],
      "name": "Lock",
      "type": "event"
    },
    {
      "anonymous": false,
      "inputs": [
        {
          "indexed": true,
          "internalType": "address",
          "name": "previousOwner",
          "type": "address"
        },
        {
          "indexed": true,
          "internalType": "address",
          "name": "newOwner",
          "type": "address"
        }
      ],
      "name": "OwnershipTransferred",
      "type": "event"
    },
    {
      "anonymous": false,
      "inputs": [
        {
          "indexed": false,
          "internalType": "uint256",
          "name": "amount",
          "type": "uint256"
        }
      ],
      "name": "Supply",
      "type": "event"
    },
    {
      "anonymous": false,
      "inputs": [
        {
          "indexed": false,
          "internalType": "address",
          "name": "account",
          "type": "address"
        },
        {
          "indexed": false,
          "internalType": "uint256",
          "name": "amount",
          "type": "uint256"
        },
        {
          "indexed": false,
          "internalType": "uint256",
          "name": "returned",
          "type": "uint256"
        }
      ],
      "name": "Unlock",
      "type": "event"
    },
    {
      "anonymous": false,
      "inputs": [
        {
          "indexed": false,
          "internalType": "uint256",
          "name": "unbondingInterval",
          "type": "uint256"
        }
      ],
      "name": "UpdateConfigs",
      "type": "event"
    },
    {
      "anonymous": false,
      "inputs": [
        {
          "indexed": false,
          "internalType": "address",
          "name": "account",
          "type": "address"
        },
        {
          "indexed": false,
          "internalType": "bool",
          "name": "status",
          "type": "bool"
        }
      ],
      "name": "UpdateMinterStatus",
      "type": "event"
    },
    {
      "anonymous": false,
      "inputs": [
        {
          "indexed": false,
          "internalType": "address",
          "name": "account",
          "type": "address"
        },
        {
          "indexed": false,
          "internalType": "uint256",
          "name": "amount",
          "type": "uint256"
        }
      ],
      "name": "Withdraw",
      "type": "event"
    },
    {
      "stateMutability": "payable",
      "type": "fallback"
    },
    {
      "inputs": [
        {
          "internalType": "uint256",
          "name": "unbondingInterval_",
          "type": "uint256"
        }
      ],
      "name": "__UnbondedEvmos_init",
      "outputs": [],
      "stateMutability": "nonpayable",
      "type": "function"
    },
    {
      "inputs": [
        {
          "internalType": "address",
          "name": "account",
          "type": "address"
        }
      ],
      "name": "balanceOf",
      "outputs": [
        {
          "internalType": "uint256",
          "name": "",
          "type": "uint256"
        }
      ],
      "stateMutability": "view",
      "type": "function"
    },
    {
      "inputs": [],
      "name": "decimals",
      "outputs": [
        {
          "internalType": "uint8",
          "name": "",
          "type": "uint8"
        }
      ],
      "stateMutability": "view",
      "type": "function"
    },
    {
      "inputs": [
        {
          "internalType": "address",
          "name": "account",
          "type": "address"
        }
      ],
      "name": "getUnlockable",
      "outputs": [
        {
          "internalType": "uint256",
          "name": "unlockable",
          "type": "uint256"
        },
        {
          "internalType": "uint256",
          "name": "debt",
          "type": "uint256"
        }
      ],
      "stateMutability": "view",
      "type": "function"
    },
    {
      "inputs": [
        {
          "internalType": "uint256",
          "name": "lockedId",
          "type": "uint256"
        }
      ],
      "name": "isKillable",
      "outputs": [
        {
          "internalType": "bool",
          "name": "",
          "type": "bool"
        }
      ],
      "stateMutability": "view",
      "type": "function"
    },
    {
      "inputs": [
        {
          "internalType": "address",
          "name": "",
          "type": "address"
        }
      ],
      "name": "isMinter",
      "outputs": [
        {
          "internalType": "bool",
          "name": "",
          "type": "bool"
        }
      ],
      "stateMutability": "view",
      "type": "function"
    },
    {
      "inputs": [
        {
          "internalType": "uint256",
          "name": "lockedId",
          "type": "uint256"
        }
      ],
      "name": "kill",
      "outputs": [],
      "stateMutability": "nonpayable",
      "type": "function"
    },
    {
      "inputs": [],
      "name": "lastUnbondedAt",
      "outputs": [
        {
          "internalType": "uint256",
          "name": "",
          "type": "uint256"
        }
      ],
      "stateMutability": "view",
      "type": "function"
    },
    {
      "inputs": [
        {
          "internalType": "address",
          "name": "",
          "type": "address"
        }
      ],
      "name": "lockedOf",
      "outputs": [
        {
          "internalType": "uint128",
          "name": "front",
          "type": "uint128"
        },
        {
          "internalType": "uint128",
          "name": "rear",
          "type": "uint128"
        }
      ],
      "stateMutability": "view",
      "type": "function"
    },
    {
      "inputs": [
        {
          "internalType": "uint256",
          "name": "",
          "type": "uint256"
        }
      ],
      "name": "locks",
      "outputs": [
        {
          "internalType": "bool",
          "name": "received",
          "type": "bool"
        },
        {
          "internalType": "address",
          "name": "account",
          "type": "address"
        },
        {
          "internalType": "address",
          "name": "vault",
          "type": "address"
        },
        {
          "internalType": "uint256",
          "name": "amount",
          "type": "uint256"
        },
        {
          "internalType": "uint256",
          "name": "unlockedAt",
          "type": "uint256"
        }
      ],
      "stateMutability": "view",
      "type": "function"
    },
    {
      "inputs": [],
      "name": "locksLength",
      "outputs": [
        {
          "internalType": "uint256",
          "name": "",
          "type": "uint256"
        }
      ],
      "stateMutability": "view",
      "type": "function"
    },
    {
      "inputs": [
        {
          "internalType": "address",
          "name": "to",
          "type": "address"
        },
        {
          "internalType": "address",
          "name": "vault",
          "type": "address"
        },
        {
          "internalType": "uint256",
          "name": "amount",
          "type": "uint256"
        }
      ],
      "name": "mintLockedToken",
      "outputs": [],
      "stateMutability": "nonpayable",
      "type": "function"
    },
    {
      "inputs": [],
      "name": "name",
      "outputs": [
        {
          "internalType": "string",
          "name": "",
          "type": "string"
        }
      ],
      "stateMutability": "view",
      "type": "function"
    },
    {
      "inputs": [],
      "name": "owner",
      "outputs": [
        {
          "internalType": "address",
          "name": "",
          "type": "address"
        }
      ],
      "stateMutability": "view",
      "type": "function"
    },
    {
      "inputs": [],
      "name": "renounceOwnership",
      "outputs": [],
      "stateMutability": "nonpayable",
      "type": "function"
    },
    {
      "inputs": [],
      "name": "supplyUnbondedToken",
      "outputs": [],
      "stateMutability": "payable",
      "type": "function"
    },
    {
      "inputs": [],
      "name": "symbol",
      "outputs": [
        {
          "internalType": "string",
          "name": "",
          "type": "string"
        }
      ],
      "stateMutability": "view",
      "type": "function"
    },
    {
      "inputs": [],
      "name": "totalSupply",
      "outputs": [
        {
          "internalType": "uint256",
          "name": "",
          "type": "uint256"
        }
      ],
      "stateMutability": "view",
      "type": "function"
    },
    {
      "inputs": [
        {
          "internalType": "address",
          "name": "newOwner",
          "type": "address"
        }
      ],
      "name": "transferOwnership",
      "outputs": [],
      "stateMutability": "nonpayable",
      "type": "function"
    },
    {
      "inputs": [],
      "name": "unbondLimit",
      "outputs": [
        {
          "internalType": "uint256",
          "name": "",
          "type": "uint256"
        }
      ],
      "stateMutability": "view",
      "type": "function"
    },
    {
      "inputs": [],
      "name": "unbondingInterval",
      "outputs": [
        {
          "internalType": "uint256",
          "name": "",
          "type": "uint256"
        }
      ],
      "stateMutability": "view",
      "type": "function"
    },
    {
      "inputs": [
        {
          "internalType": "uint256",
          "name": "minRepaid",
          "type": "uint256"
        }
      ],
      "name": "unlock",
      "outputs": [],
      "stateMutability": "nonpayable",
      "type": "function"
    },
    {
      "inputs": [
        {
          "internalType": "uint256",
          "name": "_unbondingInterval",
          "type": "uint256"
        }
      ],
      "name": "updateConfigs",
      "outputs": [],
      "stateMutability": "nonpayable",
      "type": "function"
    },
    {
      "inputs": [
        {
          "internalType": "address",
          "name": "account",
          "type": "address"
        },
        {
          "internalType": "bool",
          "name": "status",
          "type": "bool"
        }
      ],
      "name": "updateMinterStatus",
      "outputs": [],
      "stateMutability": "nonpayable",
      "type": "function"
    },
    {
      "stateMutability": "payable",
      "type": "receive"
    }
  ],
  "transactionHash": "0xeea3e4ffa388355ead27712915c1a866bf050f118d49549a55734383d7323244",
  "args": [],
  "numDeployments": 1,
  "solcInputHash": "5a8fdb96c94ee140ec1cfa16db1e4445",
  "bytecode": "0x6080604052600760685534801561001557600080fd5b5061310f806100256000396000f3fe60806040526004361061014f5760003560e01c80639c6b2896116100b6578063d29a00251161006f578063d29a00251461049e578063e158c1ac146104c7578063efc8f3c8146104d1578063f2fde38b146104fa578063f420998214610523578063f4dadc611461054e57610156565b80639c6b289614610366578063a4086a8f14610391578063a5f1e282146103bc578063aa271e1a146103fa578063c863017814610437578063cc9bc4af1461047557610156565b806370a082311161010857806370a0823114610256578063715018a61461029357806379564ace146102aa5780638da5cb5b146102d357806395d89b41146102fe57806397e7381e1461032957610156565b806306fdde031461015857806314e7a5791461018357806318160ddd146101ac578063313ce567146101d75780635bfc5a6e146102025780636198e3391461022d57610156565b3661015657005b005b34801561016457600080fd5b5061016d61058f565b60405161017a91906128da565b60405180910390f35b34801561018f57600080fd5b506101aa60048036038101906101a591906123bf565b6105c8565b005b3480156101b857600080fd5b506101c1610a1c565b6040516101ce9190612ac5565b60405180910390f35b3480156101e357600080fd5b506101ec610a22565b6040516101f99190612b09565b60405180910390f35b34801561020e57600080fd5b50610217610a27565b6040516102249190612ac5565b60405180910390f35b34801561023957600080fd5b50610254600480360381019061024f919061244a565b610a2d565b005b34801561026257600080fd5b5061027d60048036038101906102789190612396565b610a7f565b60405161028a9190612ac5565b60405180910390f35b34801561029f57600080fd5b506102a8610ac8565b005b3480156102b657600080fd5b506102d160048036038101906102cc919061244a565b610adc565b005b3480156102df57600080fd5b506102e8610b25565b6040516102f5919061274d565b60405180910390f35b34801561030a57600080fd5b50610313610b4f565b60405161032091906128da565b60405180910390f35b34801561033557600080fd5b50610350600480360381019061034b919061244a565b610b88565b60405161035d9190612851565b60405180910390f35b34801561037257600080fd5b5061037b610d78565b6040516103889190612ac5565b60405180910390f35b34801561039d57600080fd5b506103a6610d7e565b6040516103b39190612ac5565b60405180910390f35b3480156103c857600080fd5b506103e360048036038101906103de9190612396565b610d84565b6040516103f1929190612a9c565b60405180910390f35b34801561040657600080fd5b50610421600480360381019061041c9190612396565b610de0565b60405161042e9190612851565b60405180910390f35b34801561044357600080fd5b5061045e60048036038101906104599190612396565b610e00565b60405161046c929190612ae0565b60405180910390f35b34801561048157600080fd5b5061049c6004803603810190610497919061244a565b61122f565b005b3480156104aa57600080fd5b506104c560048036038101906104c0919061244a565b611377565b005b6104cf611624565b005b3480156104dd57600080fd5b506104f860048036038101906104f3919061240e565b61162d565b005b34801561050657600080fd5b50610521600480360381019061051c9190612396565b6116c9565b005b34801561052f57600080fd5b5061053861174d565b6040516105459190612ac5565b60405180910390f35b34801561055a57600080fd5b506105756004803603810190610570919061244a565b611753565b60405161058695949392919061286c565b60405180910390f35b6040518060400160405280600e81526020017f556e7374616b65642045564d4f5300000000000000000000000000000000000081525081565b606560003373ffffffffffffffffffffffffffffffffffffffff1673ffffffffffffffffffffffffffffffffffffffff16815260200190815260200160002060009054906101000a900460ff16610654576040517f08c379a000000000000000000000000000000000000000000000000000000000815260040161064b90612a1c565b60405180910390fd5b60008111610697576040517f08c379a000000000000000000000000000000000000000000000000000000000815260040161068e906129fc565b60405180910390fd5b6000606b60008573ffffffffffffffffffffffffffffffffffffffff1673ffffffffffffffffffffffffffffffffffffffff16815260200190815260200160002090506106e6848260016117e6565b6068548160000160009054906101000a90046fffffffffffffffffffffffffffffffff168260000160109054906101000a90046fffffffffffffffffffffffffffffffff166107359190612bf2565b6fffffffffffffffffffffffffffffffff1610610787576040517f08c379a000000000000000000000000000000000000000000000000000000000815260040161077e906129bc565b60405180910390fd5b60696040518060a001604052806000151581526020013373ffffffffffffffffffffffffffffffffffffffff1681526020018573ffffffffffffffffffffffffffffffffffffffff16815260200184815260200160675442606654116107ed57426107f1565b6066545b6107fb9190612b9c565b815250908060018154018082558091505060019003906000526020600020906004020160009091909190915060008201518160000160006101000a81548160ff02191690831515021790555060208201518160000160016101000a81548173ffffffffffffffffffffffffffffffffffffffff021916908373ffffffffffffffffffffffffffffffffffffffff16021790555060408201518160010160006101000a81548173ffffffffffffffffffffffffffffffffffffffff021916908373ffffffffffffffffffffffffffffffffffffffff1602179055506060820151816002015560808201518160030155505060016069805490506108fd9190612c26565b606a8190555060008160000160109054906101000a90046fffffffffffffffffffffffffffffffff169050606a5482600101826fffffffffffffffffffffffffffffffff1681548110610979577f4e487b7100000000000000000000000000000000000000000000000000000000600052603260045260246000fd5b90600052602060002001819055506001816109949190612b56565b8260000160106101000a8154816fffffffffffffffffffffffffffffffff02191690836fffffffffffffffffffffffffffffffff1602179055506109d88584611be0565b7fec36c0364d931187a76cf66d7eee08fad0ec2e8b7458a8d8b26b36769d4d13f38585606a54604051610a0d93929190612768565b60405180910390a15050505050565b606d5481565b601281565b606a5481565b6000606b60003373ffffffffffffffffffffffffffffffffffffffff1673ffffffffffffffffffffffffffffffffffffffff1681526020019081526020016000209050610a7b3382846117e6565b5050565b6000606c60008373ffffffffffffffffffffffffffffffffffffffff1673ffffffffffffffffffffffffffffffffffffffff168152602001908152602001600020549050919050565b610ad0611cc3565b610ada6000611d41565b565b610ae4611cc3565b806067819055507f78a3671679b68721aaad9eb74535be0be119bd34c0efa671eb6ab3210d1fe25781604051610b1a9190612ac5565b60405180910390a150565b6000603360009054906101000a900473ffffffffffffffffffffffffffffffffffffffff16905090565b6040518060400160405280600681526020017f7545564d4f53000000000000000000000000000000000000000000000000000081525081565b60008060698381548110610bc5577f4e487b7100000000000000000000000000000000000000000000000000000000600052603260045260246000fd5b90600052602060002090600402016040518060a00160405290816000820160009054906101000a900460ff161515151581526020016000820160019054906101000a900473ffffffffffffffffffffffffffffffffffffffff1673ffffffffffffffffffffffffffffffffffffffff1673ffffffffffffffffffffffffffffffffffffffff1681526020016001820160009054906101000a900473ffffffffffffffffffffffffffffffffffffffff1673ffffffffffffffffffffffffffffffffffffffff1673ffffffffffffffffffffffffffffffffffffffff1681526020016002820154815260200160038201548152505090504281608001511115610cd1576000915050610d73565b6000816040015173ffffffffffffffffffffffffffffffffffffffff16635eeff10183602001516040518263ffffffff1660e01b8152600401610d14919061274d565b60206040518083038186803b158015610d2c57600080fd5b505afa158015610d40573d6000803e3d6000fd5b505050506040513d601f19601f82011682018060405250810190610d649190612473565b90508160600151811015925050505b919050565b60665481565b60675481565b606b6020528060005260406000206000915090508060000160009054906101000a90046fffffffffffffffffffffffffffffffff16908060000160109054906101000a90046fffffffffffffffffffffffffffffffff16905082565b60656020528060005260406000206000915054906101000a900460ff1681565b6000806000606b60008573ffffffffffffffffffffffffffffffffffffffff1673ffffffffffffffffffffffffffffffffffffffff16815260200190815260200160002060000160009054906101000a90046fffffffffffffffffffffffffffffffff1690506000606b60008673ffffffffffffffffffffffffffffffffffffffff1673ffffffffffffffffffffffffffffffffffffffff16815260200190815260200160002060000160109054906101000a90046fffffffffffffffffffffffffffffffff1690506000606b60008773ffffffffffffffffffffffffffffffffffffffff1673ffffffffffffffffffffffffffffffffffffffff168152602001908152602001600020600101805480602002602001604051908101604052809291908181526020018280548015610f5757602002820191906000526020600020905b815481526020019060010190808311610f43575b50505050509050816fffffffffffffffffffffffffffffffff16836fffffffffffffffffffffffffffffffff161415610f99576000809450945050505061122a565b60008390505b826fffffffffffffffffffffffffffffffff16816fffffffffffffffffffffffffffffffff161015611225576000606983836fffffffffffffffffffffffffffffffff168151811061101a577f4e487b7100000000000000000000000000000000000000000000000000000000600052603260045260246000fd5b602002602001015181548110611059577f4e487b7100000000000000000000000000000000000000000000000000000000600052603260045260246000fd5b90600052602060002090600402016040518060a00160405290816000820160009054906101000a900460ff161515151581526020016000820160019054906101000a900473ffffffffffffffffffffffffffffffffffffffff1673ffffffffffffffffffffffffffffffffffffffff1673ffffffffffffffffffffffffffffffffffffffff1681526020016001820160009054906101000a900473ffffffffffffffffffffffffffffffffffffffff1673ffffffffffffffffffffffffffffffffffffffff1673ffffffffffffffffffffffffffffffffffffffff1681526020016002820154815260200160038201548152505090504281608001511161120b5780606001518761116a9190612b9c565b9650806040015173ffffffffffffffffffffffffffffffffffffffff16635eeff101896040518263ffffffff1660e01b81526004016111a9919061274d565b60206040518083038186803b1580156111c157600080fd5b505afa1580156111d5573d6000803e3d6000fd5b505050506040513d601f19601f820116820180604052508101906111f99190612473565b866112049190612b9c565b9550611211565b50611225565b50808061121d90612d22565b915050610f9f565b505050505b915091565b60008060019054906101000a900460ff161590508080156112605750600160008054906101000a900460ff1660ff16105b8061128d575061126f30611e07565b15801561128c5750600160008054906101000a900460ff1660ff16145b5b6112cc576040517f08c379a00000000000000000000000000000000000000000000000000000000081526004016112c39061293c565b60405180910390fd5b60016000806101000a81548160ff021916908360ff1602179055508015611309576001600060016101000a81548160ff0219169083151502179055505b611311611e2a565b61131a82610adc565b80156113735760008060016101000a81548160ff0219169083151502179055507f7f26b83ff96e1f2b6a682f133852f6798a09c465da95921460cefb3847402498600160405161136a91906128bf565b60405180910390a15b5050565b6000606982815481106113b3577f4e487b7100000000000000000000000000000000000000000000000000000000600052603260045260246000fd5b90600052602060002090600402019050428160030154111561140a576040517f08c379a000000000000000000000000000000000000000000000000000000000815260040161140190612a7c565b60405180910390fd5b60008160010160009054906101000a900473ffffffffffffffffffffffffffffffffffffffff1673ffffffffffffffffffffffffffffffffffffffff16635eeff1018360000160019054906101000a900473ffffffffffffffffffffffffffffffffffffffff166040518263ffffffff1660e01b815260040161148d919061274d565b60206040518083038186803b1580156114a557600080fd5b505afa1580156114b9573d6000803e3d6000fd5b505050506040513d601f19601f820116820180604052508101906114dd9190612473565b90508160020154811015611526576040517f08c379a000000000000000000000000000000000000000000000000000000000815260040161151d9061297c565b60405180910390fd5b8160010160009054906101000a900473ffffffffffffffffffffffffffffffffffffffff1673ffffffffffffffffffffffffffffffffffffffff16639d2e6fcb83600201548460000160019054906101000a900473ffffffffffffffffffffffffffffffffffffffff1660016040518463ffffffff1660e01b81526004016115af9291906127c8565b6020604051808303818588803b1580156115c857600080fd5b505af11580156115dc573d6000803e3d6000fd5b50505050506040513d601f19601f820116820180604052508101906116019190612473565b5060018260000160006101000a81548160ff021916908315150217905550505050565b42606681905550565b611635611cc3565b80606560008473ffffffffffffffffffffffffffffffffffffffff1673ffffffffffffffffffffffffffffffffffffffff16815260200190815260200160002060006101000a81548160ff0219169083151502179055507ff6c10b2804d0174249f23bd4c462fb3e65ea16bf2b6896effe8a09f8f6a8e3b082826040516116bd92919061279f565b60405180910390a15050565b6116d1611cc3565b600073ffffffffffffffffffffffffffffffffffffffff168173ffffffffffffffffffffffffffffffffffffffff161415611741576040517f08c379a0000000000000000000000000000000000000000000000000000000008152600401611738906128fc565b60405180910390fd5b61174a81611d41565b50565b60685481565b6069818154811061176357600080fd5b90600052602060002090600402016000915090508060000160009054906101000a900460ff16908060000160019054906101000a900473ffffffffffffffffffffffffffffffffffffffff16908060010160009054906101000a900473ffffffffffffffffffffffffffffffffffffffff16908060020154908060030154905085565b606b60008473ffffffffffffffffffffffffffffffffffffffff1673ffffffffffffffffffffffffffffffffffffffff168152602001908152602001600020915060008260000160009054906101000a90046fffffffffffffffffffffffffffffffff16905060008360000160109054906101000a90046fffffffffffffffffffffffffffffffff169050806fffffffffffffffffffffffffffffffff16826fffffffffffffffffffffffffffffffff1614156118a4575050611bdb565b60008060008490505b836fffffffffffffffffffffffffffffffff16816fffffffffffffffffffffffffffffffff161015611b2b57600087600101826fffffffffffffffffffffffffffffffff1681548110611929577f4e487b7100000000000000000000000000000000000000000000000000000000600052603260045260246000fd5b90600052602060002001549050600060698281548110611972577f4e487b7100000000000000000000000000000000000000000000000000000000600052603260045260246000fd5b90600052602060002090600402016040518060a00160405290816000820160009054906101000a900460ff161515151581526020016000820160019054906101000a900473ffffffffffffffffffffffffffffffffffffffff1673ffffffffffffffffffffffffffffffffffffffff1673ffffffffffffffffffffffffffffffffffffffff1681526020016001820160009054906101000a900473ffffffffffffffffffffffffffffffffffffffff1673ffffffffffffffffffffffffffffffffffffffff1673ffffffffffffffffffffffffffffffffffffffff16815260200160028201548152602001600382015481525050905042816080015111611b0f57806060015185611a839190612b9c565b9450611a998a826040015183606001518b611e83565b84611aa49190612b9c565b9350600160698381548110611ae2577f4e487b7100000000000000000000000000000000000000000000000000000000600052603260045260246000fd5b906000526020600020906004020160000160006101000a81548160ff021916908315150217905550611b16565b5050611b2b565b50508080611b2390612d22565b9150506118ad565b6000831115611bd557600181611b419190612b56565b8760000160006101000a8154816fffffffffffffffffffffffffffffffff02191690836fffffffffffffffffffffffffffffffff160217905550611b858884612058565b6000821115611b9957611b9888836121b3565b5b7ff7870c5b224cbc19873599e46ccfc7103934650509b1af0c3ce90138377c2004888484604051611bcc9392919061281a565b60405180910390a15b50505050505b505050565b600073ffffffffffffffffffffffffffffffffffffffff168273ffffffffffffffffffffffffffffffffffffffff161415611c50576040517f08c379a0000000000000000000000000000000000000000000000000000000008152600401611c47906129dc565b60405180910390fd5b80606d6000828254611c629190612b9c565b9250508190555080606c60008473ffffffffffffffffffffffffffffffffffffffff1673ffffffffffffffffffffffffffffffffffffffff1681526020019081526020016000206000828254611cb89190612b9c565b925050819055505050565b611ccb6122d9565b73ffffffffffffffffffffffffffffffffffffffff16611ce9610b25565b73ffffffffffffffffffffffffffffffffffffffff1614611d3f576040517f08c379a0000000000000000000000000000000000000000000000000000000008152600401611d369061299c565b60405180910390fd5b565b6000603360009054906101000a900473ffffffffffffffffffffffffffffffffffffffff16905081603360006101000a81548173ffffffffffffffffffffffffffffffffffffffff021916908373ffffffffffffffffffffffffffffffffffffffff1602179055508173ffffffffffffffffffffffffffffffffffffffff168173ffffffffffffffffffffffffffffffffffffffff167f8be0079c531659141344cd1fd0a4f28419497f9722a3daafe3b4186f6b6457e060405160405180910390a35050565b6000808273ffffffffffffffffffffffffffffffffffffffff163b119050919050565b600060019054906101000a900460ff16611e79576040517f08c379a0000000000000000000000000000000000000000000000000000000008152600401611e7090612a5c565b60405180910390fd5b611e816122e1565b565b6000808473ffffffffffffffffffffffffffffffffffffffff16635eeff101876040518263ffffffff1660e01b8152600401611ebf919061274d565b60206040518083038186803b158015611ed757600080fd5b505afa158015611eeb573d6000803e3d6000fd5b505050506040513d601f19601f82011682018060405250810190611f0f9190612473565b9050808410611fbb578473ffffffffffffffffffffffffffffffffffffffff16639d2e6fcb8288866040518463ffffffff1660e01b8152600401611f549291906127f1565b6020604051808303818588803b158015611f6d57600080fd5b505af1158015611f81573d6000803e3d6000fd5b50505050506040513d601f19601f82011682018060405250810190611fa69190612473565b508084611fb39190612c26565b915050612050565b8473ffffffffffffffffffffffffffffffffffffffff16639d2e6fcb8588866040518463ffffffff1660e01b8152600401611ff79291906127f1565b6020604051808303818588803b15801561201057600080fd5b505af1158015612024573d6000803e3d6000fd5b50505050506040513d601f19601f820116820180604052508101906120499190612473565b5060009150505b949350505050565b600073ffffffffffffffffffffffffffffffffffffffff168273ffffffffffffffffffffffffffffffffffffffff1614156120c8576040517f08c379a00000000000000000000000000000000000000000000000000000000081526004016120bf90612a3c565b60405180910390fd5b6000606c60008473ffffffffffffffffffffffffffffffffffffffff1673ffffffffffffffffffffffffffffffffffffffff1681526020019081526020016000205490508181101561214f576040517f08c379a00000000000000000000000000000000000000000000000000000000081526004016121469061291c565b60405180910390fd5b818103606c60008573ffffffffffffffffffffffffffffffffffffffff1673ffffffffffffffffffffffffffffffffffffffff1681526020019081526020016000208190555081606d60008282546121a79190612c26565b92505081905550505050565b60008273ffffffffffffffffffffffffffffffffffffffff1682600067ffffffffffffffff81111561220e577f4e487b7100000000000000000000000000000000000000000000000000000000600052604160045260246000fd5b6040519080825280601f01601f1916602001820160405280156122405781602001600182028036833780820191505090505b5060405161224e9190612736565b60006040518083038185875af1925050503d806000811461228b576040519150601f19603f3d011682016040523d82523d6000602084013e612290565b606091505b50509050806122d4576040517f08c379a00000000000000000000000000000000000000000000000000000000081526004016122cb9061295c565b60405180910390fd5b505050565b600033905090565b600060019054906101000a900460ff16612330576040517f08c379a000000000000000000000000000000000000000000000000000000000815260040161232790612a5c565b60405180910390fd5b61234061233b6122d9565b611d41565b565b60008135905061235181613094565b92915050565b600081359050612366816130ab565b92915050565b60008135905061237b816130c2565b92915050565b600081519050612390816130c2565b92915050565b6000602082840312156123a857600080fd5b60006123b684828501612342565b91505092915050565b6000806000606084860312156123d457600080fd5b60006123e286828701612342565b93505060206123f386828701612342565b92505060406124048682870161236c565b9150509250925092565b6000806040838503121561242157600080fd5b600061242f85828601612342565b925050602061244085828601612357565b9150509250929050565b60006020828403121561245c57600080fd5b600061246a8482850161236c565b91505092915050565b60006020828403121561248557600080fd5b600061249384828501612381565b91505092915050565b6124a581612c5a565b82525050565b6124b481612c6c565b82525050565b60006124c582612b24565b6124cf8185612b3a565b93506124df818560208601612cef565b80840191505092915050565b6124f481612ccb565b82525050565b61250381612cdd565b82525050565b600061251482612b2f565b61251e8185612b45565b935061252e818560208601612cef565b61253781612d8a565b840191505092915050565b600061254f602683612b45565b915061255a82612d9b565b604082019050919050565b6000612572602383612b45565b915061257d82612dea565b604082019050919050565b6000612595602e83612b45565b91506125a082612e39565b604082019050919050565b60006125b8601283612b45565b91506125c382612e88565b602082019050919050565b60006125db601883612b45565b91506125e682612eb1565b602082019050919050565b60006125fe602083612b45565b915061260982612eda565b602082019050919050565b6000612621602783612b45565b915061262c82612f03565b604082019050919050565b6000612644602083612b45565b915061264f82612f52565b602082019050919050565b6000612667601c83612b45565b915061267282612f7b565b602082019050919050565b600061268a601383612b45565b915061269582612fa4565b602082019050919050565b60006126ad602283612b45565b91506126b882612fcd565b604082019050919050565b60006126d0602b83612b45565b91506126db8261301c565b604082019050919050565b60006126f3601b83612b45565b91506126fe8261306b565b602082019050919050565b61271281612c78565b82525050565b61272181612cb4565b82525050565b61273081612cbe565b82525050565b600061274282846124ba565b915081905092915050565b6000602082019050612762600083018461249c565b92915050565b600060608201905061277d600083018661249c565b61278a602083018561249c565b6127976040830184612718565b949350505050565b60006040820190506127b4600083018561249c565b6127c160208301846124ab565b9392505050565b60006040820190506127dd600083018561249c565b6127ea60208301846124eb565b9392505050565b6000604082019050612806600083018561249c565b6128136020830184612718565b9392505050565b600060608201905061282f600083018661249c565b61283c6020830185612718565b6128496040830184612718565b949350505050565b600060208201905061286660008301846124ab565b92915050565b600060a08201905061288160008301886124ab565b61288e602083018761249c565b61289b604083018661249c565b6128a86060830185612718565b6128b56080830184612718565b9695505050505050565b60006020820190506128d460008301846124fa565b92915050565b600060208201905081810360008301526128f48184612509565b905092915050565b6000602082019050818103600083015261291581612542565b9050919050565b6000602082019050818103600083015261293581612565565b9050919050565b6000602082019050818103600083015261295581612588565b9050919050565b60006020820190508181036000830152612975816125ab565b9050919050565b60006020820190508181036000830152612995816125ce565b9050919050565b600060208201905081810360008301526129b5816125f1565b9050919050565b600060208201905081810360008301526129d581612614565b9050919050565b600060208201905081810360008301526129f581612637565b9050919050565b60006020820190508181036000830152612a158161265a565b9050919050565b60006020820190508181036000830152612a358161267d565b9050919050565b60006020820190508181036000830152612a55816126a0565b9050919050565b60006020820190508181036000830152612a75816126c3565b9050919050565b60006020820190508181036000830152612a95816126e6565b9050919050565b6000604082019050612ab16000830185612709565b612abe6020830184612709565b9392505050565b6000602082019050612ada6000830184612718565b92915050565b6000604082019050612af56000830185612718565b612b026020830184612718565b9392505050565b6000602082019050612b1e6000830184612727565b92915050565b600081519050919050565b600081519050919050565b600081905092915050565b600082825260208201905092915050565b6000612b6182612c78565b9150612b6c83612c78565b9250826fffffffffffffffffffffffffffffffff03821115612b9157612b90612d5b565b5b828201905092915050565b6000612ba782612cb4565b9150612bb283612cb4565b9250827fffffffffffffffffffffffffffffffffffffffffffffffffffffffffffffffff03821115612be757612be6612d5b565b5b828201905092915050565b6000612bfd82612c78565b9150612c0883612c78565b925082821015612c1b57612c1a612d5b565b5b828203905092915050565b6000612c3182612cb4565b9150612c3c83612cb4565b925082821015612c4f57612c4e612d5b565b5b828203905092915050565b6000612c6582612c94565b9050919050565b60008115159050919050565b60006fffffffffffffffffffffffffffffffff82169050919050565b600073ffffffffffffffffffffffffffffffffffffffff82169050919050565b6000819050919050565b600060ff82169050919050565b6000612cd682612cb4565b9050919050565b6000612ce882612cbe565b9050919050565b60005b83811015612d0d578082015181840152602081019050612cf2565b83811115612d1c576000848401525b50505050565b6000612d2d82612c78565b91506fffffffffffffffffffffffffffffffff821415612d5057612d4f612d5b565b5b600182019050919050565b7f4e487b7100000000000000000000000000000000000000000000000000000000600052601160045260246000fd5b6000601f19601f8301169050919050565b7f4f776e61626c653a206e6577206f776e657220697320746865207a65726f206160008201527f6464726573730000000000000000000000000000000000000000000000000000602082015250565b7f7545564d4f533a206275726e20616d6f756e7420657863656564732062616c6160008201527f6e63650000000000000000000000000000000000000000000000000000000000602082015250565b7f496e697469616c697a61626c653a20636f6e747261637420697320616c72656160008201527f647920696e697469616c697a6564000000000000000000000000000000000000602082015250565b7f21736166655472616e7366657245564d4f530000000000000000000000000000600082015250565b7f7545564d4f53204b696c6c3a205374696c6c20736166652e0000000000000000600082015250565b7f4f776e61626c653a2063616c6c6572206973206e6f7420746865206f776e6572600082015250565b7f6d696e744c6f636b6564546f6b656e3a20756e626f6e64206c696d697420657860008201527f6365656465642e00000000000000000000000000000000000000000000000000602082015250565b7f7545564d4f533a206d696e7420746f20746865207a65726f2061646472657373600082015250565b7f6d696e744c6f636b6564546f6b656e3a20616d6f756e74203c3d203000000000600082015250565b7f7545564d4f533a204e6f74206d696e7465722e00000000000000000000000000600082015250565b7f7545564d4f533a206275726e2066726f6d20746865207a65726f20616464726560008201527f7373000000000000000000000000000000000000000000000000000000000000602082015250565b7f496e697469616c697a61626c653a20636f6e7472616374206973206e6f74206960008201527f6e697469616c697a696e67000000000000000000000000000000000000000000602082015250565b7f7545564d4f53204b696c6c3a2043616e6e6f7420556e6c6f636b2e0000000000600082015250565b61309d81612c5a565b81146130a857600080fd5b50565b6130b481612c6c565b81146130bf57600080fd5b50565b6130cb81612cb4565b81146130d657600080fd5b5056fea2646970667358221220b98cbca360cd330a05752e5fb9ea31a58be9e31635ed5c13083c92aa796a50b364736f6c63430008040033",
  "devdoc": {
    "kind": "dev",
    "methods": {
      "getUnlockable(address)": {
        "details": "calc user's unlockable uEVMOS(includes debt) & debt"
      },
      "mintLockedToken(address,address,uint256)": {
        "details": "mint & lock uEVMOS"
      },
      "owner()": {
        "details": "Returns the address of the current owner."
      },
      "renounceOwnership()": {
        "details": "Leaves the contract without owner. It will not be possible to call `onlyOwner` functions anymore. Can only be called by the current owner. NOTE: Renouncing ownership will leave the contract without an owner, thereby removing any functionality that is only available to the owner."
      },
      "transferOwnership(address)": {
        "details": "Transfers ownership of the contract to a new account (`newOwner`). Can only be called by the current owner."
      }
    },
    "version": 1
  },
  "userdoc": {
    "kind": "user",
    "methods": {
      "__UnbondedEvmos_init(uint256)": {
        "notice": "should set minter (maybe Stayking) after deployed"
      },
      "isKillable(uint256)": {
        "notice": "TODO kor)   unstake  ,       .   100%    unlock   ."
      },
      "unbondLimit()": {
        "notice": "kor)  "
      }
    },
    "version": 1
  },
  "storageLayout": {
    "storage": [
      {
        "astId": 578,
        "contract": "contracts/token/UnbondedEvmos.sol:UnbondedEvmos",
        "label": "_initialized",
        "offset": 0,
        "slot": "0",
        "type": "t_uint8"
      },
      {
        "astId": 581,
        "contract": "contracts/token/UnbondedEvmos.sol:UnbondedEvmos",
        "label": "_initializing",
        "offset": 1,
        "slot": "0",
        "type": "t_bool"
      },
      {
        "astId": 570,
        "contract": "contracts/token/UnbondedEvmos.sol:UnbondedEvmos",
        "label": "__gap",
        "offset": 0,
        "slot": "1",
        "type": "t_array(t_uint256)50_storage"
      },
      {
        "astId": 733,
        "contract": "contracts/token/UnbondedEvmos.sol:UnbondedEvmos",
        "label": "_owner",
        "offset": 0,
        "slot": "51",
        "type": "t_address"
      },
      {
        "astId": 853,
        "contract": "contracts/token/UnbondedEvmos.sol:UnbondedEvmos",
        "label": "__gap",
        "offset": 0,
        "slot": "52",
        "type": "t_array(t_uint256)49_storage"
      },
      {
        "astId": 1065,
        "contract": "contracts/token/UnbondedEvmos.sol:UnbondedEvmos",
        "label": "isMinter",
        "offset": 0,
        "slot": "101",
        "type": "t_mapping(t_address,t_bool)"
      },
      {
        "astId": 1077,
        "contract": "contracts/token/UnbondedEvmos.sol:UnbondedEvmos",
        "label": "lastUnbondedAt",
        "offset": 0,
        "slot": "102",
        "type": "t_uint256"
      },
      {
        "astId": 1080,
        "contract": "contracts/token/UnbondedEvmos.sol:UnbondedEvmos",
        "label": "unbondingInterval",
        "offset": 0,
        "slot": "103",
        "type": "t_uint256"
      },
      {
        "astId": 1084,
        "contract": "contracts/token/UnbondedEvmos.sol:UnbondedEvmos",
        "label": "unbondLimit",
        "offset": 0,
        "slot": "104",
        "type": "t_uint256"
      },
      {
        "astId": 1099,
        "contract": "contracts/token/UnbondedEvmos.sol:UnbondedEvmos",
        "label": "locks",
        "offset": 0,
        "slot": "105",
        "type": "t_array(t_struct(Locked)1095_storage)dyn_storage"
      },
      {
        "astId": 1101,
        "contract": "contracts/token/UnbondedEvmos.sol:UnbondedEvmos",
        "label": "locksLength",
        "offset": 0,
        "slot": "106",
        "type": "t_uint256"
      },
      {
        "astId": 1114,
        "contract": "contracts/token/UnbondedEvmos.sol:UnbondedEvmos",
        "label": "lockedOf",
        "offset": 0,
        "slot": "107",
        "type": "t_mapping(t_address,t_struct(LockedQueue)1109_storage)"
      },
      {
        "astId": 1118,
        "contract": "contracts/token/UnbondedEvmos.sol:UnbondedEvmos",
        "label": "_balances",
        "offset": 0,
        "slot": "108",
        "type": "t_mapping(t_address,t_uint256)"
      },
      {
        "astId": 1121,
        "contract": "contracts/token/UnbondedEvmos.sol:UnbondedEvmos",
        "label": "totalSupply",
        "offset": 0,
        "slot": "109",
        "type": "t_uint256"
      }
    ],
    "types": {
      "t_address": {
        "encoding": "inplace",
        "label": "address",
        "numberOfBytes": "20"
      },
      "t_array(t_struct(Locked)1095_storage)dyn_storage": {
        "base": "t_struct(Locked)1095_storage",
        "encoding": "dynamic_array",
        "label": "struct UnbondedEvmos.Locked[]",
        "numberOfBytes": "32"
      },
      "t_array(t_uint256)49_storage": {
        "base": "t_uint256",
        "encoding": "inplace",
        "label": "uint256[49]",
        "numberOfBytes": "1568"
      },
      "t_array(t_uint256)50_storage": {
        "base": "t_uint256",
        "encoding": "inplace",
        "label": "uint256[50]",
        "numberOfBytes": "1600"
      },
      "t_array(t_uint256)dyn_storage": {
        "base": "t_uint256",
        "encoding": "dynamic_array",
        "label": "uint256[]",
        "numberOfBytes": "32"
      },
      "t_bool": {
        "encoding": "inplace",
        "label": "bool",
        "numberOfBytes": "1"
      },
      "t_mapping(t_address,t_bool)": {
        "encoding": "mapping",
        "key": "t_address",
        "label": "mapping(address => bool)",
        "numberOfBytes": "32",
        "value": "t_bool"
      },
      "t_mapping(t_address,t_struct(LockedQueue)1109_storage)": {
        "encoding": "mapping",
        "key": "t_address",
        "label": "mapping(address => struct UnbondedEvmos.LockedQueue)",
        "numberOfBytes": "32",
        "value": "t_struct(LockedQueue)1109_storage"
      },
      "t_mapping(t_address,t_uint256)": {
        "encoding": "mapping",
        "key": "t_address",
        "label": "mapping(address => uint256)",
        "numberOfBytes": "32",
        "value": "t_uint256"
      },
      "t_struct(Locked)1095_storage": {
        "encoding": "inplace",
        "label": "struct UnbondedEvmos.Locked",
        "members": [
          {
            "astId": 1086,
            "contract": "contracts/token/UnbondedEvmos.sol:UnbondedEvmos",
            "label": "received",
            "offset": 0,
            "slot": "0",
            "type": "t_bool"
          },
          {
            "astId": 1088,
            "contract": "contracts/token/UnbondedEvmos.sol:UnbondedEvmos",
            "label": "account",
            "offset": 1,
            "slot": "0",
            "type": "t_address"
          },
          {
            "astId": 1090,
            "contract": "contracts/token/UnbondedEvmos.sol:UnbondedEvmos",
            "label": "vault",
            "offset": 0,
            "slot": "1",
            "type": "t_address"
          },
          {
            "astId": 1092,
            "contract": "contracts/token/UnbondedEvmos.sol:UnbondedEvmos",
            "label": "amount",
            "offset": 0,
            "slot": "2",
            "type": "t_uint256"
          },
          {
            "astId": 1094,
            "contract": "contracts/token/UnbondedEvmos.sol:UnbondedEvmos",
            "label": "unlockedAt",
            "offset": 0,
            "slot": "3",
            "type": "t_uint256"
          }
        ],
        "numberOfBytes": "128"
      },
      "t_struct(LockedQueue)1109_storage": {
        "encoding": "inplace",
        "label": "struct UnbondedEvmos.LockedQueue",
        "members": [
          {
            "astId": 1103,
            "contract": "contracts/token/UnbondedEvmos.sol:UnbondedEvmos",
            "label": "front",
            "offset": 0,
            "slot": "0",
            "type": "t_uint128"
          },
          {
            "astId": 1105,
            "contract": "contracts/token/UnbondedEvmos.sol:UnbondedEvmos",
            "label": "rear",
            "offset": 16,
            "slot": "0",
            "type": "t_uint128"
          },
          {
            "astId": 1108,
            "contract": "contracts/token/UnbondedEvmos.sol:UnbondedEvmos",
            "label": "lockedIds",
            "offset": 0,
            "slot": "1",
            "type": "t_array(t_uint256)dyn_storage"
          }
        ],
        "numberOfBytes": "64"
      },
      "t_uint128": {
        "encoding": "inplace",
        "label": "uint128",
        "numberOfBytes": "16"
      },
      "t_uint256": {
        "encoding": "inplace",
        "label": "uint256",
        "numberOfBytes": "32"
      },
      "t_uint8": {
        "encoding": "inplace",
        "label": "uint8",
        "numberOfBytes": "1"
      }
    }
  }
}