{
  "address": "0xa4d0806d597146df93796A38435ABB2a3cb96677",
  "abi": [
    {
      "anonymous": false,
      "inputs": [
        {
          "indexed": true,
          "internalType": "address",
          "name": "owner",
          "type": "address"
        },
        {
          "indexed": true,
          "internalType": "address",
          "name": "spender",
          "type": "address"
        },
        {
          "indexed": false,
          "internalType": "uint256",
          "name": "value",
          "type": "uint256"
        }
      ],
      "name": "Approval",
      "type": "event"
    },
    {
      "anonymous": false,
      "inputs": [
        {
          "indexed": false,
          "internalType": "address",
          "name": "user",
          "type": "address"
        },
        {
          "indexed": false,
          "internalType": "uint256",
          "name": "amount",
          "type": "uint256"
        },
        {
          "indexed": false,
          "internalType": "uint256",
          "name": "share",
          "type": "uint256"
        }
      ],
      "name": "Deposit",
      "type": "event"
    },
    {
      "anonymous": false,
      "inputs": [
        {
          "indexed": false,
          "internalType": "uint8",
          "name": "version",
          "type": "uint8"
        }
      ],
      "name": "Initialized",
      "type": "event"
    },
    {
      "anonymous": false,
      "inputs": [
        {
          "indexed": false,
          "internalType": "address",
          "name": "user",
          "type": "address"
        },
        {
          "indexed": false,
          "internalType": "uint256",
          "name": "debtAmount",
          "type": "uint256"
        }
      ],
      "name": "Loan",
      "type": "event"
    },
    {
      "anonymous": false,
      "inputs": [
        {
          "indexed": true,
          "internalType": "address",
          "name": "previousOwner",
          "type": "address"
        },
        {
          "indexed": true,
          "internalType": "address",
          "name": "newOwner",
          "type": "address"
        }
      ],
      "name": "OwnershipTransferred",
      "type": "event"
    },
    {
      "anonymous": false,
      "inputs": [
        {
          "indexed": false,
          "internalType": "uint256",
          "name": "paidInterest",
          "type": "uint256"
        },
        {
          "indexed": false,
          "internalType": "uint256",
          "name": "leftInterest",
          "type": "uint256"
        }
      ],
      "name": "PayInterest",
      "type": "event"
    },
    {
      "anonymous": false,
      "inputs": [
        {
          "indexed": false,
          "internalType": "address",
          "name": "user",
          "type": "address"
        },
        {
          "indexed": false,
          "internalType": "uint256",
          "name": "debtAmount",
          "type": "uint256"
        }
      ],
      "name": "Repay",
      "type": "event"
    },
    {
      "anonymous": false,
      "inputs": [
        {
          "indexed": true,
          "internalType": "address",
          "name": "from",
          "type": "address"
        },
        {
          "indexed": true,
          "internalType": "address",
          "name": "to",
          "type": "address"
        },
        {
          "indexed": false,
          "internalType": "uint256",
          "name": "value",
          "type": "uint256"
        }
      ],
      "name": "Transfer",
      "type": "event"
    },
    {
      "anonymous": false,
      "inputs": [
        {
          "indexed": false,
          "internalType": "address",
          "name": "from",
          "type": "address"
        },
        {
          "indexed": false,
          "internalType": "address",
          "name": "to",
          "type": "address"
        },
        {
          "indexed": false,
          "internalType": "uint256",
          "name": "amount",
          "type": "uint256"
        }
      ],
      "name": "TransferDebtOwnership",
      "type": "event"
    },
    {
      "anonymous": false,
      "inputs": [
        {
          "indexed": false,
          "internalType": "uint256",
          "name": "rateBps",
          "type": "uint256"
        }
      ],
      "name": "UtilizationRate",
      "type": "event"
    },
    {
      "anonymous": false,
      "inputs": [
        {
          "indexed": false,
          "internalType": "address",
          "name": "user",
          "type": "address"
        },
        {
          "indexed": false,
          "internalType": "uint256",
          "name": "amount",
          "type": "uint256"
        },
        {
          "indexed": false,
          "internalType": "uint256",
          "name": "share",
          "type": "uint256"
        }
      ],
      "name": "Withdraw",
      "type": "event"
    },
    {
      "stateMutability": "payable",
      "type": "fallback"
    },
    {
      "inputs": [
        {
          "internalType": "string",
          "name": "_name",
          "type": "string"
        },
        {
          "internalType": "string",
          "name": "_symbol",
          "type": "string"
        },
        {
          "internalType": "address",
          "name": "_swapHelper",
          "type": "address"
        },
        {
          "internalType": "address",
          "name": "_stayking",
          "type": "address"
        },
        {
          "internalType": "address",
          "name": "_token",
          "type": "address"
        },
        {
          "internalType": "address",
          "name": "_interestModel",
          "type": "address"
        },
        {
          "internalType": "uint256",
          "name": "_minReservedBps",
          "type": "uint256"
        }
      ],
      "name": "__Vault_init",
      "outputs": [],
      "stateMutability": "nonpayable",
      "type": "function"
    },
    {
      "inputs": [
        {
          "internalType": "address",
          "name": "owner",
          "type": "address"
        },
        {
          "internalType": "address",
          "name": "spender",
          "type": "address"
        }
      ],
      "name": "allowance",
      "outputs": [
        {
          "internalType": "uint256",
          "name": "",
          "type": "uint256"
        }
      ],
      "stateMutability": "view",
      "type": "function"
    },
    {
      "inputs": [
        {
          "internalType": "uint256",
          "name": "amount",
          "type": "uint256"
        }
      ],
      "name": "amountToShare",
      "outputs": [
        {
          "internalType": "uint256",
          "name": "",
          "type": "uint256"
        }
      ],
      "stateMutability": "view",
      "type": "function"
    },
    {
      "inputs": [
        {
          "internalType": "address",
          "name": "spender",
          "type": "address"
        },
        {
          "internalType": "uint256",
          "name": "amount",
          "type": "uint256"
        }
      ],
      "name": "approve",
      "outputs": [
        {
          "internalType": "bool",
          "name": "",
          "type": "bool"
        }
      ],
      "stateMutability": "nonpayable",
      "type": "function"
    },
    {
      "inputs": [
        {
          "internalType": "address",
          "name": "account",
          "type": "address"
        }
      ],
      "name": "balanceOf",
      "outputs": [
        {
          "internalType": "uint256",
          "name": "",
          "type": "uint256"
        }
      ],
      "stateMutability": "view",
      "type": "function"
    },
    {
      "inputs": [
        {
          "internalType": "address",
          "name": "user",
          "type": "address"
        }
      ],
      "name": "debtAmountInBase",
      "outputs": [
        {
          "internalType": "uint256",
          "name": "",
          "type": "uint256"
        }
      ],
      "stateMutability": "view",
      "type": "function"
    },
    {
      "inputs": [
        {
          "internalType": "address",
          "name": "",
          "type": "address"
        }
      ],
      "name": "debtAmountOf",
      "outputs": [
        {
          "internalType": "uint256",
          "name": "",
          "type": "uint256"
        }
      ],
      "stateMutability": "view",
      "type": "function"
    },
    {
      "inputs": [],
      "name": "decimals",
      "outputs": [
        {
          "internalType": "uint8",
          "name": "",
          "type": "uint8"
        }
      ],
      "stateMutability": "view",
      "type": "function"
    },
    {
      "inputs": [
        {
          "internalType": "address",
          "name": "spender",
          "type": "address"
        },
        {
          "internalType": "uint256",
          "name": "subtractedValue",
          "type": "uint256"
        }
      ],
      "name": "decreaseAllowance",
      "outputs": [
        {
          "internalType": "bool",
          "name": "",
          "type": "bool"
        }
      ],
      "stateMutability": "nonpayable",
      "type": "function"
    },
    {
      "inputs": [
        {
          "internalType": "uint256",
          "name": "amount",
          "type": "uint256"
        }
      ],
      "name": "deposit",
      "outputs": [
        {
          "internalType": "uint256",
          "name": "share",
          "type": "uint256"
        }
      ],
      "stateMutability": "nonpayable",
      "type": "function"
    },
    {
      "inputs": [
        {
          "internalType": "uint256",
          "name": "tokenOut",
          "type": "uint256"
        }
      ],
      "name": "getBaseIn",
      "outputs": [
        {
          "internalType": "uint256",
          "name": "baseIn",
          "type": "uint256"
        }
      ],
      "stateMutability": "view",
      "type": "function"
    },
    {
      "inputs": [
        {
          "internalType": "uint256",
          "name": "tokenIn",
          "type": "uint256"
        }
      ],
      "name": "getBaseOut",
      "outputs": [
        {
          "internalType": "uint256",
          "name": "baseOut",
          "type": "uint256"
        }
      ],
      "stateMutability": "view",
      "type": "function"
    },
    {
      "inputs": [],
      "name": "getInterestRate",
      "outputs": [
        {
          "internalType": "uint256",
          "name": "interestRate",
          "type": "uint256"
        }
      ],
      "stateMutability": "view",
      "type": "function"
    },
    {
      "inputs": [
        {
          "internalType": "address",
          "name": "user",
          "type": "address"
        }
      ],
      "name": "getPendingDebt",
      "outputs": [
        {
          "internalType": "uint256",
          "name": "",
          "type": "uint256"
        }
      ],
      "stateMutability": "view",
      "type": "function"
    },
    {
      "inputs": [
        {
          "internalType": "address",
          "name": "user",
          "type": "address"
        }
      ],
      "name": "getPendingDebtInBase",
      "outputs": [
        {
          "internalType": "uint256",
          "name": "",
          "type": "uint256"
        }
      ],
      "stateMutability": "view",
      "type": "function"
    },
    {
      "inputs": [
        {
          "internalType": "uint256",
          "name": "baseOut",
          "type": "uint256"
        }
      ],
      "name": "getTokenIn",
      "outputs": [
        {
          "internalType": "uint256",
          "name": "tokenIn",
          "type": "uint256"
        }
      ],
      "stateMutability": "view",
      "type": "function"
    },
    {
      "inputs": [
        {
          "internalType": "uint256",
          "name": "baseIn",
          "type": "uint256"
        }
      ],
      "name": "getTokenOut",
      "outputs": [
        {
          "internalType": "uint256",
          "name": "tokenOut",
          "type": "uint256"
        }
      ],
      "stateMutability": "view",
      "type": "function"
    },
    {
      "inputs": [
        {
          "internalType": "address",
          "name": "spender",
          "type": "address"
        },
        {
          "internalType": "uint256",
          "name": "addedValue",
          "type": "uint256"
        }
      ],
      "name": "increaseAllowance",
      "outputs": [
        {
          "internalType": "bool",
          "name": "",
          "type": "bool"
        }
      ],
      "stateMutability": "nonpayable",
      "type": "function"
    },
    {
      "inputs": [],
      "name": "interestModel",
      "outputs": [
        {
          "internalType": "address",
          "name": "",
          "type": "address"
        }
      ],
      "stateMutability": "view",
      "type": "function"
    },
    {
      "inputs": [
        {
          "internalType": "address",
          "name": "user",
          "type": "address"
        },
        {
          "internalType": "uint256",
          "name": "debtInBase",
          "type": "uint256"
        }
      ],
      "name": "loan",
      "outputs": [
        {
          "internalType": "uint256",
          "name": "debt",
          "type": "uint256"
        }
      ],
      "stateMutability": "nonpayable",
      "type": "function"
    },
    {
      "inputs": [],
      "name": "name",
      "outputs": [
        {
          "internalType": "string",
          "name": "",
          "type": "string"
        }
      ],
      "stateMutability": "view",
      "type": "function"
    },
    {
      "inputs": [],
      "name": "owner",
      "outputs": [
        {
          "internalType": "address",
          "name": "",
          "type": "address"
        }
      ],
      "stateMutability": "view",
      "type": "function"
    },
    {
      "inputs": [
        {
          "internalType": "uint256",
          "name": "minPaidInterest",
          "type": "uint256"
        }
      ],
      "name": "payInterest",
      "outputs": [],
      "stateMutability": "payable",
      "type": "function"
    },
    {
      "inputs": [
        {
          "internalType": "address",
          "name": "user",
          "type": "address"
        },
        {
          "internalType": "uint256",
          "name": "amountInBase",
          "type": "uint256"
        }
      ],
      "name": "pendRepay",
      "outputs": [
        {
          "internalType": "uint256",
          "name": "pendingDebtShare",
          "type": "uint256"
        }
      ],
      "stateMutability": "nonpayable",
      "type": "function"
    },
    {
      "inputs": [
        {
          "internalType": "uint256",
          "name": "amount",
          "type": "uint256"
        }
      ],
      "name": "pendingDebtAmountToShare",
      "outputs": [
        {
          "internalType": "uint256",
          "name": "",
          "type": "uint256"
        }
      ],
      "stateMutability": "view",
      "type": "function"
    },
    {
      "inputs": [
        {
          "internalType": "address",
          "name": "",
          "type": "address"
        }
      ],
      "name": "pendingDebtShareOf",
      "outputs": [
        {
          "internalType": "uint256",
          "name": "",
          "type": "uint256"
        }
      ],
      "stateMutability": "view",
      "type": "function"
    },
    {
      "inputs": [
        {
          "internalType": "uint256",
          "name": "share",
          "type": "uint256"
        }
      ],
      "name": "pendingDebtShareToAmount",
      "outputs": [
        {
          "internalType": "uint256",
          "name": "",
          "type": "uint256"
        }
      ],
      "stateMutability": "view",
      "type": "function"
    },
    {
      "inputs": [],
      "name": "renounceOwnership",
      "outputs": [],
      "stateMutability": "nonpayable",
      "type": "function"
    },
    {
      "inputs": [
        {
          "internalType": "address",
          "name": "user",
          "type": "address"
        },
        {
          "internalType": "uint256",
          "name": "minRepaid",
          "type": "uint256"
        }
      ],
      "name": "repayInBase",
      "outputs": [
        {
          "internalType": "uint256",
          "name": "repaid",
          "type": "uint256"
        }
      ],
      "stateMutability": "payable",
      "type": "function"
    },
    {
      "inputs": [
        {
          "internalType": "address",
          "name": "user",
          "type": "address"
        },
        {
          "internalType": "uint256",
          "name": "amount",
          "type": "uint256"
        }
      ],
      "name": "repayInToken",
      "outputs": [],
      "stateMutability": "nonpayable",
      "type": "function"
    },
    {
      "inputs": [
        {
          "internalType": "address",
          "name": "user",
          "type": "address"
        },
        {
          "internalType": "uint256",
          "name": "minRepaidDebt",
          "type": "uint256"
        }
      ],
      "name": "repayPendingDebt",
      "outputs": [
        {
          "internalType": "uint256",
          "name": "repaidDebtAmount",
          "type": "uint256"
        }
      ],
      "stateMutability": "payable",
      "type": "function"
    },
    {
      "inputs": [],
      "name": "saveUtilizationRateBps",
      "outputs": [],
      "stateMutability": "nonpayable",
      "type": "function"
    },
    {
      "inputs": [
        {
          "internalType": "uint256",
          "name": "share",
          "type": "uint256"
        }
      ],
      "name": "shareToAmount",
      "outputs": [
        {
          "internalType": "uint256",
          "name": "",
          "type": "uint256"
        }
      ],
      "stateMutability": "view",
      "type": "function"
    },
    {
      "inputs": [],
      "name": "stayking",
      "outputs": [
        {
          "internalType": "address",
          "name": "",
          "type": "address"
        }
      ],
      "stateMutability": "view",
      "type": "function"
    },
    {
      "inputs": [],
      "name": "swapHelper",
      "outputs": [
        {
          "internalType": "contract ISwapHelper",
          "name": "",
          "type": "address"
        }
      ],
      "stateMutability": "view",
      "type": "function"
    },
    {
      "inputs": [],
      "name": "symbol",
      "outputs": [
        {
          "internalType": "string",
          "name": "",
          "type": "string"
        }
      ],
      "stateMutability": "view",
      "type": "function"
    },
    {
      "inputs": [
        {
          "internalType": "address",
          "name": "from",
          "type": "address"
        },
        {
          "internalType": "uint256",
          "name": "amount",
          "type": "uint256"
        }
      ],
      "name": "takeDebtOwnership",
      "outputs": [],
      "stateMutability": "nonpayable",
      "type": "function"
    },
    {
      "inputs": [],
      "name": "token",
      "outputs": [
        {
          "internalType": "address",
          "name": "",
          "type": "address"
        }
      ],
      "stateMutability": "view",
      "type": "function"
    },
    {
      "inputs": [],
      "name": "totalAmount",
      "outputs": [
        {
          "internalType": "uint256",
          "name": "",
          "type": "uint256"
        }
      ],
      "stateMutability": "view",
      "type": "function"
    },
    {
      "inputs": [],
      "name": "totalDebtAmount",
      "outputs": [
        {
          "internalType": "uint256",
          "name": "",
          "type": "uint256"
        }
      ],
      "stateMutability": "view",
      "type": "function"
    },
    {
      "inputs": [],
      "name": "totalSupply",
      "outputs": [
        {
          "internalType": "uint256",
          "name": "",
          "type": "uint256"
        }
      ],
      "stateMutability": "view",
      "type": "function"
    },
    {
      "inputs": [
        {
          "internalType": "address",
          "name": "to",
          "type": "address"
        },
        {
          "internalType": "uint256",
          "name": "amount",
          "type": "uint256"
        }
      ],
      "name": "transfer",
      "outputs": [
        {
          "internalType": "bool",
          "name": "",
          "type": "bool"
        }
      ],
      "stateMutability": "nonpayable",
      "type": "function"
    },
    {
      "inputs": [
        {
          "internalType": "address",
          "name": "from",
          "type": "address"
        },
        {
          "internalType": "address",
          "name": "to",
          "type": "address"
        },
        {
          "internalType": "uint256",
          "name": "amount",
          "type": "uint256"
        }
      ],
      "name": "transferFrom",
      "outputs": [
        {
          "internalType": "bool",
          "name": "",
          "type": "bool"
        }
      ],
      "stateMutability": "nonpayable",
      "type": "function"
    },
    {
      "inputs": [
        {
          "internalType": "address",
          "name": "newOwner",
          "type": "address"
        }
      ],
      "name": "transferOwnership",
      "outputs": [],
      "stateMutability": "nonpayable",
      "type": "function"
    },
    {
      "inputs": [
        {
          "internalType": "address",
          "name": "_interestModel",
          "type": "address"
        }
      ],
      "name": "updateInterestModel",
      "outputs": [],
      "stateMutability": "nonpayable",
      "type": "function"
    },
    {
      "inputs": [
        {
          "internalType": "uint256",
          "name": "_minReservedBps",
          "type": "uint256"
        }
      ],
      "name": "updateMinReservedBps",
      "outputs": [],
      "stateMutability": "nonpayable",
      "type": "function"
    },
    {
      "inputs": [
        {
          "internalType": "address",
          "name": "_swapHelper",
          "type": "address"
        }
      ],
      "name": "updateSwapHelper",
      "outputs": [],
      "stateMutability": "nonpayable",
      "type": "function"
    },
    {
      "inputs": [],
      "name": "utilizationRateBps",
      "outputs": [
        {
          "internalType": "uint256",
          "name": "",
          "type": "uint256"
        }
      ],
      "stateMutability": "view",
      "type": "function"
    },
    {
      "inputs": [
        {
          "internalType": "uint256",
          "name": "share",
          "type": "uint256"
        }
      ],
      "name": "withdraw",
      "outputs": [
        {
          "internalType": "uint256",
          "name": "amount",
          "type": "uint256"
        }
      ],
      "stateMutability": "nonpayable",
      "type": "function"
    },
    {
      "stateMutability": "payable",
      "type": "receive"
    }
  ],
  "transactionHash": "0x3a5760a51be2b16e2ea2c5131e7fe987cdff49fe3758bb846d92cf3e720564a6",
  "args": [],
  "numDeployments": 1,
  "solcInputHash": "e8518f5736e7ffd7436d112b0bd03d57",
  "bytecode": "0x608060405234801561001057600080fd5b50615383806100206000396000f3fe6080604052600436106102b25760003560e01c8063715018a611610175578063b16828b7116100dc578063d9ecd8d311610095578063e6d7059a1161006f578063e6d7059a14610baf578063eab3298114610bec578063f2fde38b14610c17578063fc0c546a14610c40576102b9565b8063d9ecd8d314610b0c578063dd62ed3e14610b35578063e18c513114610b72576102b9565b8063b16828b7146109ea578063b6b55f2514610a01578063b9529e9f14610a3e578063b95d4ae114610a67578063c480979814610aa4578063c8dffa9514610ae1576102b9565b806395d89b411161012e57806395d89b41146108ce5780639d2e6fcb146108f9578063a457c2d714610929578063a9059cbb14610966578063ac165d7a146109a3578063ad452d75146109ce576102b9565b8063715018a6146107b9578063724e5910146107d05780638122af77146107f95780638a81d6b0146108365780638da5cb5b1461086657806395d6abf814610891576102b9565b806323b872dd116102195780633f2b9723116101d25780633f2b972314610685578063494e42f4146106ae5780635257b566146106d75780635eeff101146107025780636592183b1461073f57806370a082311461077c576102b9565b806323b872dd146105295780632d4047e5146105665780632d6f8013146105a35780632e1a7d4d146105e0578063313ce5671461061d5780633950935114610648576102b9565b806315d6dae91161026b57806315d6dae9146103df57806318160ddd1461041c578063185cc751146104475780631a39d8ef146104845780631a4e1aef146104af5780631ce9ba36146104ec576102b9565b806303d98c1f146102bb57806306fdde03146102e6578063095ea7b3146103115780630efc51a71461034e5780630fc6a11c1461038b57806313182915146103b6576102b9565b366102b957005b005b3480156102c757600080fd5b506102d0610c6b565b6040516102dd91906148c7565b60405180910390f35b3480156102f257600080fd5b506102fb610c94565b6040516103089190614525565b60405180910390f35b34801561031d57600080fd5b5061033860048036038101906103339190613da1565b610d26565b60405161034591906144d4565b60405180910390f35b34801561035a57600080fd5b5061037560048036038101906103709190613edc565b610d49565b60405161038291906148c7565b60405180910390f35b34801561039757600080fd5b506103a0610e24565b6040516103ad91906144ef565b60405180910390f35b3480156103c257600080fd5b506103dd60048036038101906103d89190613ced565b610e4a565b005b3480156103eb57600080fd5b5061040660048036038101906104019190613edc565b610e96565b60405161041391906148c7565b60405180910390f35b34801561042857600080fd5b50610431610f71565b60405161043e91906148c7565b60405180910390f35b34801561045357600080fd5b5061046e60048036038101906104699190613da1565b610f7b565b60405161047b91906148c7565b60405180910390f35b34801561049057600080fd5b506104996111a6565b6040516104a691906148c7565b60405180910390f35b3480156104bb57600080fd5b506104d660048036038101906104d19190613da1565b611265565b6040516104e391906148c7565b60405180910390f35b3480156104f857600080fd5b50610513600480360381019061050e9190613edc565b611420565b60405161052091906148c7565b60405180910390f35b34801561053557600080fd5b50610550600480360381019061054b9190613d52565b611454565b60405161055d91906144d4565b60405180910390f35b34801561057257600080fd5b5061058d60048036038101906105889190613edc565b611483565b60405161059a91906148c7565b60405180910390f35b3480156105af57600080fd5b506105ca60048036038101906105c59190613edc565b6114c5565b6040516105d791906148c7565b60405180910390f35b3480156105ec57600080fd5b5061060760048036038101906106029190613edc565b611507565b60405161061491906148c7565b60405180910390f35b34801561062957600080fd5b5061063261158b565b60405161063f919061490b565b60405180910390f35b34801561065457600080fd5b5061066f600480360381019061066a9190613da1565b611594565b60405161067c91906144d4565b60405180910390f35b34801561069157600080fd5b506106ac60048036038101906106a79190613ced565b6115cb565b005b3480156106ba57600080fd5b506106d560048036038101906106d09190613edc565b611617565b005b3480156106e357600080fd5b506106ec611629565b6040516106f991906148c7565b60405180910390f35b34801561070e57600080fd5b5061072960048036038101906107249190613ced565b611789565b60405161073691906148c7565b60405180910390f35b34801561074b57600080fd5b5061076660048036038101906107619190613ced565b6117a3565b60405161077391906148c7565b60405180910390f35b34801561078857600080fd5b506107a3600480360381019061079e9190613ced565b6117bb565b6040516107b091906148c7565b60405180910390f35b3480156107c557600080fd5b506107ce611804565b005b3480156107dc57600080fd5b506107f760048036038101906107f29190613da1565b611818565b005b34801561080557600080fd5b50610820600480360381019061081b9190613ced565b6118e4565b60405161082d91906148c7565b60405180910390f35b610850600480360381019061084b9190613da1565b6118fc565b60405161085d91906148c7565b60405180910390f35b34801561087257600080fd5b5061087b611a7d565b60405161088891906143dd565b60405180910390f35b34801561089d57600080fd5b506108b860048036038101906108b39190613edc565b611aa7565b6040516108c591906148c7565b60405180910390f35b3480156108da57600080fd5b506108e3611b82565b6040516108f09190614525565b60405180910390f35b610913600480360381019061090e9190613da1565b611c14565b60405161092091906148c7565b60405180910390f35b34801561093557600080fd5b50610950600480360381019061094b9190613da1565b611cc2565b60405161095d91906144d4565b60405180910390f35b34801561097257600080fd5b5061098d60048036038101906109889190613da1565b611d39565b60405161099a91906144d4565b60405180910390f35b3480156109af57600080fd5b506109b8611d5c565b6040516109c591906143dd565b60405180910390f35b6109e860048036038101906109e39190613edc565b611d82565b005b3480156109f657600080fd5b506109ff611eb4565b005b348015610a0d57600080fd5b50610a286004803603810190610a239190613edc565b611f71565b604051610a3591906148c7565b60405180910390f35b348015610a4a57600080fd5b50610a656004803603810190610a609190613da1565b611ff6565b005b348015610a7357600080fd5b50610a8e6004803603810190610a899190613ced565b6121ea565b604051610a9b91906148c7565b60405180910390f35b348015610ab057600080fd5b50610acb6004803603810190610ac69190613edc565b61223b565b604051610ad891906148c7565b60405180910390f35b348015610aed57600080fd5b50610af661226f565b604051610b0391906148c7565b60405180910390f35b348015610b1857600080fd5b50610b336004803603810190610b2e9190613e06565b612275565b005b348015610b4157600080fd5b50610b5c6004803603810190610b579190613d16565b6125fa565b604051610b6991906148c7565b60405180910390f35b348015610b7e57600080fd5b50610b996004803603810190610b949190613ced565b612681565b604051610ba691906148c7565b60405180910390f35b348015610bbb57600080fd5b50610bd66004803603810190610bd19190613edc565b6126d2565b604051610be391906148c7565b60405180910390f35b348015610bf857600080fd5b50610c016127ad565b604051610c0e91906143dd565b60405180910390f35b348015610c2357600080fd5b50610c3e6004803603810190610c399190613ced565b6127d3565b005b348015610c4c57600080fd5b50610c55612857565b604051610c6291906143dd565b60405180910390f35b6000610c756111a6565b609c54612710610c8591906149df565b610c8f91906149ae565b905090565b606060368054610ca390614b2b565b80601f0160208091040260200160405190810160405280929190818152602001828054610ccf90614b2b565b8015610d1c5780601f10610cf157610100808354040283529160200191610d1c565b820191906000526020600020905b815481529060010190602001808311610cff57829003601f168201915b5050505050905090565b600080610d3161287d565b9050610d3e818585612885565b600191505092915050565b6000609760009054906101000a900473ffffffffffffffffffffffffffffffffffffffff1673ffffffffffffffffffffffffffffffffffffffff16637dceefee609860009054906101000a900473ffffffffffffffffffffffffffffffffffffffff166000856040518463ffffffff1660e01b8152600401610dcd939291906143f8565b60206040518083038186803b158015610de557600080fd5b505afa158015610df9573d6000803e3d6000fd5b505050506040513d601f19601f82011682018060405250810190610e1d9190613f05565b9050919050565b609760009054906101000a900473ffffffffffffffffffffffffffffffffffffffff1681565b610e52612a50565b80609a60006101000a81548173ffffffffffffffffffffffffffffffffffffffff021916908373ffffffffffffffffffffffffffffffffffffffff16021790555050565b6000609760009054906101000a900473ffffffffffffffffffffffffffffffffffffffff1673ffffffffffffffffffffffffffffffffffffffff16634f119bbd609860009054906101000a900473ffffffffffffffffffffffffffffffffffffffff166000856040518463ffffffff1660e01b8152600401610f1a939291906143f8565b60206040518083038186803b158015610f3257600080fd5b505afa158015610f46573d6000803e3d6000fd5b505050506040513d601f19601f82011682018060405250810190610f6a9190613f05565b9050919050565b6000603554905090565b6000609960009054906101000a900473ffffffffffffffffffffffffffffffffffffffff1673ffffffffffffffffffffffffffffffffffffffff163373ffffffffffffffffffffffffffffffffffffffff161461100d576040517f08c379a000000000000000000000000000000000000000000000000000000000815260040161100490614747565b60405180910390fd5b600073ffffffffffffffffffffffffffffffffffffffff168373ffffffffffffffffffffffffffffffffffffffff16141561107d576040517f08c379a000000000000000000000000000000000000000000000000000000000815260040161107490614867565b60405180910390fd5b61108682612ace565b905080609b60008573ffffffffffffffffffffffffffffffffffffffff1673ffffffffffffffffffffffffffffffffffffffff16815260200190815260200160002060008282546110d79190614958565b9250508190555080609c60008282546110f09190614958565b9250508190555060a0546111026111a6565b61110c91906149df565b612710609c5461111c91906149df565b111561115d576040517f08c379a0000000000000000000000000000000000000000000000000000000008152600401611154906146a7565b60405180910390fd5b6111673383612c06565b7f1db23cf53464267c45324569941e81e23d29c48ff9be2b35af2cc0a2681159d68382604051611198929190614474565b60405180910390a192915050565b6000609c54609860009054906101000a900473ffffffffffffffffffffffffffffffffffffffff1673ffffffffffffffffffffffffffffffffffffffff166370a08231306040518263ffffffff1660e01b815260040161120691906143dd565b60206040518083038186803b15801561121e57600080fd5b505afa158015611232573d6000803e3d6000fd5b505050506040513d601f19601f820116820180604052508101906112569190613f05565b6112609190614958565b905090565b6000609960009054906101000a900473ffffffffffffffffffffffffffffffffffffffff1673ffffffffffffffffffffffffffffffffffffffff163373ffffffffffffffffffffffffffffffffffffffff16146112f7576040517f08c379a00000000000000000000000000000000000000000000000000000000081526004016112ee90614747565b60405180910390fd5b600061130283610e96565b9050609b60008573ffffffffffffffffffffffffffffffffffffffff1673ffffffffffffffffffffffffffffffffffffffff16815260200190815260200160002054811115611386576040517f08c379a000000000000000000000000000000000000000000000000000000000815260040161137d90614647565b60405180910390fd5b61138f8161223b565b915081609d60008673ffffffffffffffffffffffffffffffffffffffff1673ffffffffffffffffffffffffffffffffffffffff16815260200190815260200160002060008282546113e09190614958565b9250508190555081609e60008282546113f99190614958565b9250508190555080609f60008282546114129190614958565b925050819055505092915050565b600080609e541461144b57609e5482609f5461143c91906149df565b61144691906149ae565b61144d565b815b9050919050565b60008061145f61287d565b905061146c858285612d2c565b611477858585612db8565b60019150509392505050565b60008061148e6111a6565b9050600081146114bb5780836114a2610f71565b6114ac91906149df565b6114b691906149ae565b6114bd565b825b915050919050565b6000806114d0610f71565b9050600081146114fd5780836114e46111a6565b6114ee91906149df565b6114f891906149ae565b6114ff565b825b915050919050565b6000611512826114c5565b905061151e338361303c565b61154b609860009054906101000a900473ffffffffffffffffffffffffffffffffffffffff163383613215565b7ff279e6a1f5e320cca91135676d9cb6e44ca8a08c0b88342bcdb1144f6511b56833828460405161157e9392919061449d565b60405180910390a1919050565b60006012905090565b60008061159f61287d565b90506115c08185856115b185896125fa565b6115bb9190614958565b612885565b600191505092915050565b6115d3612a50565b80609760006101000a81548173ffffffffffffffffffffffffffffffffffffffff021916908373ffffffffffffffffffffffffffffffffffffffff16021790555050565b61161f612a50565b8060a08190555050565b6000609a60009054906101000a900473ffffffffffffffffffffffffffffffffffffffff1673ffffffffffffffffffffffffffffffffffffffff1663d4a99bbb609c54609860009054906101000a900473ffffffffffffffffffffffffffffffffffffffff1673ffffffffffffffffffffffffffffffffffffffff166370a08231306040518263ffffffff1660e01b81526004016116c791906143dd565b60206040518083038186803b1580156116df57600080fd5b505afa1580156116f3573d6000803e3d6000fd5b505050506040513d601f19601f820116820180604052508101906117179190613f05565b6040518363ffffffff1660e01b81526004016117349291906148e2565b60206040518083038186803b15801561174c57600080fd5b505afa158015611760573d6000803e3d6000fd5b505050506040513d601f19601f820116820180604052508101906117849190613f05565b905090565b600061179c61179783612681565b611aa7565b9050919050565b609b6020528060005260406000206000915090505481565b6000603360008373ffffffffffffffffffffffffffffffffffffffff1673ffffffffffffffffffffffffffffffffffffffff168152602001908152602001600020549050919050565b61180c612a50565b611816600061334b565b565b609960009054906101000a900473ffffffffffffffffffffffffffffffffffffffff1673ffffffffffffffffffffffffffffffffffffffff163373ffffffffffffffffffffffffffffffffffffffff16146118a8576040517f08c379a000000000000000000000000000000000000000000000000000000000815260040161189f90614747565b60405180910390fd5b6118d6609860009054906101000a900473ffffffffffffffffffffffffffffffffffffffff16833084613411565b6118e0828261354a565b5050565b609d6020528060005260406000206000915090505481565b6000609960009054906101000a900473ffffffffffffffffffffffffffffffffffffffff1673ffffffffffffffffffffffffffffffffffffffff163373ffffffffffffffffffffffffffffffffffffffff161461198e576040517f08c379a000000000000000000000000000000000000000000000000000000000815260040161198590614747565b60405180910390fd5b611998348361366f565b905060006119a58261223b565b9050609d60008573ffffffffffffffffffffffffffffffffffffffff1673ffffffffffffffffffffffffffffffffffffffff16815260200190815260200160002054811115611a29576040517f08c379a0000000000000000000000000000000000000000000000000000000008152600401611a20906146c7565b60405180910390fd5b80609d60008673ffffffffffffffffffffffffffffffffffffffff1673ffffffffffffffffffffffffffffffffffffffff168152602001908152602001600020600082825403925050819055505092915050565b6000606560009054906101000a900473ffffffffffffffffffffffffffffffffffffffff16905090565b6000609760009054906101000a900473ffffffffffffffffffffffffffffffffffffffff1673ffffffffffffffffffffffffffffffffffffffff16637dceefee6000609860009054906101000a900473ffffffffffffffffffffffffffffffffffffffff16856040518463ffffffff1660e01b8152600401611b2b939291906143f8565b60206040518083038186803b158015611b4357600080fd5b505afa158015611b57573d6000803e3d6000fd5b505050506040513d601f19601f82011682018060405250810190611b7b9190613f05565b9050919050565b606060378054611b9190614b2b565b80601f0160208091040260200160405190810160405280929190818152602001828054611bbd90614b2b565b8015611c0a5780601f10611bdf57610100808354040283529160200191611c0a565b820191906000526020600020905b815481529060010190602001808311611bed57829003601f168201915b5050505050905090565b6000609960009054906101000a900473ffffffffffffffffffffffffffffffffffffffff1673ffffffffffffffffffffffffffffffffffffffff163373ffffffffffffffffffffffffffffffffffffffff1614611ca6576040517f08c379a0000000000000000000000000000000000000000000000000000000008152600401611c9d90614747565b60405180910390fd5b611cb0348361366f565b9050611cbc838261354a565b92915050565b600080611ccd61287d565b90506000611cdb82866125fa565b905083811015611d20576040517f08c379a0000000000000000000000000000000000000000000000000000000008152600401611d1790614887565b60405180910390fd5b611d2d8286868403612885565b60019250505092915050565b600080611d4461287d565b9050611d51818585612db8565b600191505092915050565b609a60009054906101000a900473ffffffffffffffffffffffffffffffffffffffff1681565b609960009054906101000a900473ffffffffffffffffffffffffffffffffffffffff1673ffffffffffffffffffffffffffffffffffffffff163373ffffffffffffffffffffffffffffffffffffffff1614611e12576040517f08c379a0000000000000000000000000000000000000000000000000000000008152600401611e0990614747565b60405180910390fd5b6000611e1e348361366f565b90508060a2541015611e65576040517f08c379a0000000000000000000000000000000000000000000000000000000008152600401611e5c90614627565b60405180910390fd5b8060a2600082825403925050819055507f57546d41506d4d7643c2ea350647fa3d6ada23d1de3afa7a32496df9b7686bc08160a254604051611ea89291906148e2565b60405180910390a15050565b6201518060a354611ec59190614958565b4210611f6f57611ed3610c6b565b60a1819055506201518060a36000828254611eee9190614958565b92505081905550670de0b6b3a7640000611f06611629565b609c54611f1391906149df565b611f1d91906149ae565b60a26000828254611f2e9190614958565b925050819055507f163eacd81cbfca2d1ec176759e7107e34229c5cbc5ec0b3fde68ffdef1157e0260a154604051611f6691906148c7565b60405180910390a15b565b6000611f7c82611483565b9050611fac609860009054906101000a900473ffffffffffffffffffffffffffffffffffffffff16333085613411565b611fb63382613750565b7f90890809c654f11d6e72a28fa60149770a0d11ec6c92319d6ceb2bb0a4ea1a15338383604051611fe99392919061449d565b60405180910390a1919050565b609960009054906101000a900473ffffffffffffffffffffffffffffffffffffffff1673ffffffffffffffffffffffffffffffffffffffff163373ffffffffffffffffffffffffffffffffffffffff1614612086576040517f08c379a000000000000000000000000000000000000000000000000000000000815260040161207d90614747565b60405180910390fd5b80609b60008473ffffffffffffffffffffffffffffffffffffffff1673ffffffffffffffffffffffffffffffffffffffff168152602001908152602001600020541015612108576040517f08c379a00000000000000000000000000000000000000000000000000000000081526004016120ff906146e7565b60405180910390fd5b80609b60008473ffffffffffffffffffffffffffffffffffffffff1673ffffffffffffffffffffffffffffffffffffffff1681526020019081526020016000206000828254039250508190555080609b60003373ffffffffffffffffffffffffffffffffffffffff1673ffffffffffffffffffffffffffffffffffffffff16815260200190815260200160002060008282546121a49190614958565b925050819055507f80caff6c1c70cc823c773c968ebdab44b7dc12da8117b4634b5f3eb78b07011e8233836040516121de939291906143f8565b60405180910390a15050565b6000612234609b60008473ffffffffffffffffffffffffffffffffffffffff1673ffffffffffffffffffffffffffffffffffffffff16815260200190815260200160002054611aa7565b9050919050565b600080609f541461226657609f5482609e5461225791906149df565b61226191906149ae565b612268565b815b9050919050565b609c5481565b60008060019054906101000a900460ff161590508080156122a65750600160008054906101000a900460ff1660ff16105b806122d357506122b5306138b1565b1580156122d25750600160008054906101000a900460ff1660ff16145b5b612312576040517f08c379a000000000000000000000000000000000000000000000000000000000815260040161230990614727565b60405180910390fd5b60016000806101000a81548160ff021916908360ff160217905550801561234f576001600060016101000a81548160ff0219169083151502179055505b600073ffffffffffffffffffffffffffffffffffffffff168573ffffffffffffffffffffffffffffffffffffffff1614156123bf576040517f08c379a00000000000000000000000000000000000000000000000000000000081526004016123b690614607565b60405180910390fd5b600073ffffffffffffffffffffffffffffffffffffffff168473ffffffffffffffffffffffffffffffffffffffff16141561242f576040517f08c379a000000000000000000000000000000000000000000000000000000000815260040161242690614707565b60405180910390fd5b6124c18a8a8080601f016020809104026020016040519081016040528093929190818152602001838380828437600081840152601f19601f8201169050808301925050505050505089898080601f016020809104026020016040519081016040528093929190818152602001838380828437600081840152601f19601f820116905080830192505050505050506138d4565b6124c9613931565b83609860006101000a81548173ffffffffffffffffffffffffffffffffffffffff021916908373ffffffffffffffffffffffffffffffffffffffff16021790555084609960006101000a81548173ffffffffffffffffffffffffffffffffffffffff021916908373ffffffffffffffffffffffffffffffffffffffff16021790555061255482611617565b61255d83610e4a565b612566866115cb565b620151806361b2a6904261257a9190614a39565b6125849190614b5d565b4261258f9190614a39565b60a38190555080156125ee5760008060016101000a81548160ff0219169083151502179055507f7f26b83ff96e1f2b6a682f133852f6798a09c465da95921460cefb384740249860016040516125e5919061450a565b60405180910390a15b50505050505050505050565b6000603460008473ffffffffffffffffffffffffffffffffffffffff1673ffffffffffffffffffffffffffffffffffffffff16815260200190815260200160002060008373ffffffffffffffffffffffffffffffffffffffff1673ffffffffffffffffffffffffffffffffffffffff16815260200190815260200160002054905092915050565b60006126cb609d60008473ffffffffffffffffffffffffffffffffffffffff1673ffffffffffffffffffffffffffffffffffffffff16815260200190815260200160002054611420565b9050919050565b6000609760009054906101000a900473ffffffffffffffffffffffffffffffffffffffff1673ffffffffffffffffffffffffffffffffffffffff16634f119bbd6000609860009054906101000a900473ffffffffffffffffffffffffffffffffffffffff16856040518463ffffffff1660e01b8152600401612756939291906143f8565b60206040518083038186803b15801561276e57600080fd5b505afa158015612782573d6000803e3d6000fd5b505050506040513d601f19601f820116820180604052508101906127a69190613f05565b9050919050565b609960009054906101000a900473ffffffffffffffffffffffffffffffffffffffff1681565b6127db612a50565b600073ffffffffffffffffffffffffffffffffffffffff168173ffffffffffffffffffffffffffffffffffffffff16141561284b576040517f08c379a0000000000000000000000000000000000000000000000000000000008152600401612842906145a7565b60405180910390fd5b6128548161334b565b50565b609860009054906101000a900473ffffffffffffffffffffffffffffffffffffffff1681565b600033905090565b600073ffffffffffffffffffffffffffffffffffffffff168373ffffffffffffffffffffffffffffffffffffffff1614156128f5576040517f08c379a00000000000000000000000000000000000000000000000000000000081526004016128ec90614807565b60405180910390fd5b600073ffffffffffffffffffffffffffffffffffffffff168273ffffffffffffffffffffffffffffffffffffffff161415612965576040517f08c379a000000000000000000000000000000000000000000000000000000000815260040161295c906145c7565b60405180910390fd5b80603460008573ffffffffffffffffffffffffffffffffffffffff1673ffffffffffffffffffffffffffffffffffffffff16815260200190815260200160002060008473ffffffffffffffffffffffffffffffffffffffff1673ffffffffffffffffffffffffffffffffffffffff168152602001908152602001600020819055508173ffffffffffffffffffffffffffffffffffffffff168373ffffffffffffffffffffffffffffffffffffffff167f8c5be1e5ebec7d5bd14f71427d1e84f3dd0314c0f7b2291e5b200ac8c7c3b92583604051612a4391906148c7565b60405180910390a3505050565b612a5861287d565b73ffffffffffffffffffffffffffffffffffffffff16612a76611a7d565b73ffffffffffffffffffffffffffffffffffffffff1614612acc576040517f08c379a0000000000000000000000000000000000000000000000000000000008152600401612ac3906147a7565b60405180910390fd5b565b6000612ad982610d49565b9050612b2a609860009054906101000a900473ffffffffffffffffffffffffffffffffffffffff16609760009054906101000a900473ffffffffffffffffffffffffffffffffffffffff168361398a565b609760009054906101000a900473ffffffffffffffffffffffffffffffffffffffff1673ffffffffffffffffffffffffffffffffffffffff16630ed2fc95609860009054906101000a900473ffffffffffffffffffffffffffffffffffffffff16600084866040518563ffffffff1660e01b8152600401612bae949392919061442f565b602060405180830381600087803b158015612bc857600080fd5b505af1158015612bdc573d6000803e3d6000fd5b505050506040513d601f19601f82011682018060405250810190612c009190613f05565b50919050565b60008273ffffffffffffffffffffffffffffffffffffffff1682600067ffffffffffffffff811115612c61577f4e487b7100000000000000000000000000000000000000000000000000000000600052604160045260246000fd5b6040519080825280601f01601f191660200182016040528015612c935781602001600182028036833780820191505090505b50604051612ca191906143c6565b60006040518083038185875af1925050503d8060008114612cde576040519150601f19603f3d011682016040523d82523d6000602084013e612ce3565b606091505b5050905080612d27576040517f08c379a0000000000000000000000000000000000000000000000000000000008152600401612d1e90614767565b60405180910390fd5b505050565b6000612d3884846125fa565b90507fffffffffffffffffffffffffffffffffffffffffffffffffffffffffffffffff8114612db25781811015612da4576040517f08c379a0000000000000000000000000000000000000000000000000000000008152600401612d9b90614667565b60405180910390fd5b612db18484848403612885565b5b50505050565b600073ffffffffffffffffffffffffffffffffffffffff168373ffffffffffffffffffffffffffffffffffffffff161415612e28576040517f08c379a0000000000000000000000000000000000000000000000000000000008152600401612e1f906147e7565b60405180910390fd5b600073ffffffffffffffffffffffffffffffffffffffff168273ffffffffffffffffffffffffffffffffffffffff161415612e98576040517f08c379a0000000000000000000000000000000000000000000000000000000008152600401612e8f90614567565b60405180910390fd5b612ea3838383613ac0565b6000603360008573ffffffffffffffffffffffffffffffffffffffff1673ffffffffffffffffffffffffffffffffffffffff16815260200190815260200160002054905081811015612f2a576040517f08c379a0000000000000000000000000000000000000000000000000000000008152600401612f2190614687565b60405180910390fd5b818103603360008673ffffffffffffffffffffffffffffffffffffffff1673ffffffffffffffffffffffffffffffffffffffff1681526020019081526020016000208190555081603360008573ffffffffffffffffffffffffffffffffffffffff1673ffffffffffffffffffffffffffffffffffffffff1681526020019081526020016000206000828254612fbf9190614958565b925050819055508273ffffffffffffffffffffffffffffffffffffffff168473ffffffffffffffffffffffffffffffffffffffff167fddf252ad1be2c89b69c2b068fc378daa952ba7f163c4a11628f55a4df523b3ef8460405161302391906148c7565b60405180910390a3613036848484613ac5565b50505050565b600073ffffffffffffffffffffffffffffffffffffffff168273ffffffffffffffffffffffffffffffffffffffff1614156130ac576040517f08c379a00000000000000000000000000000000000000000000000000000000081526004016130a3906147c7565b60405180910390fd5b6130b882600083613ac0565b6000603360008473ffffffffffffffffffffffffffffffffffffffff1673ffffffffffffffffffffffffffffffffffffffff1681526020019081526020016000205490508181101561313f576040517f08c379a000000000000000000000000000000000000000000000000000000000815260040161313690614587565b60405180910390fd5b818103603360008573ffffffffffffffffffffffffffffffffffffffff1673ffffffffffffffffffffffffffffffffffffffff1681526020019081526020016000208190555081603560008282546131979190614a39565b92505081905550600073ffffffffffffffffffffffffffffffffffffffff168373ffffffffffffffffffffffffffffffffffffffff167fddf252ad1be2c89b69c2b068fc378daa952ba7f163c4a11628f55a4df523b3ef846040516131fc91906148c7565b60405180910390a361321083600084613ac5565b505050565b6000808473ffffffffffffffffffffffffffffffffffffffff1663a9059cbb8585604051602401613247929190614474565b6040516020818303038152906040529060e01b6020820180517bffffffffffffffffffffffffffffffffffffffffffffffffffffffff838183161783525050505060405161329591906143c6565b6000604051808303816000865af19150503d80600081146132d2576040519150601f19603f3d011682016040523d82523d6000602084013e6132d7565b606091505b509150915081801561330557506000815114806133045750808060200190518101906133039190613ddd565b5b5b613344576040517f08c379a000000000000000000000000000000000000000000000000000000000815260040161333b90614787565b60405180910390fd5b5050505050565b6000606560009054906101000a900473ffffffffffffffffffffffffffffffffffffffff16905081606560006101000a81548173ffffffffffffffffffffffffffffffffffffffff021916908373ffffffffffffffffffffffffffffffffffffffff1602179055508173ffffffffffffffffffffffffffffffffffffffff168173ffffffffffffffffffffffffffffffffffffffff167f8be0079c531659141344cd1fd0a4f28419497f9722a3daafe3b4186f6b6457e060405160405180910390a35050565b6000808573ffffffffffffffffffffffffffffffffffffffff166323b872dd868686604051602401613445939291906143f8565b6040516020818303038152906040529060e01b6020820180517bffffffffffffffffffffffffffffffffffffffffffffffffffffffff838183161783525050505060405161349391906143c6565b6000604051808303816000865af19150503d80600081146134d0576040519150601f19603f3d011682016040523d82523d6000602084013e6134d5565b606091505b509150915081801561350357506000815114806135025750808060200190518101906135019190613ddd565b5b5b613542576040517f08c379a000000000000000000000000000000000000000000000000000000000815260040161353990614847565b60405180910390fd5b505050505050565b80609b60008473ffffffffffffffffffffffffffffffffffffffff1673ffffffffffffffffffffffffffffffffffffffff1681526020019081526020016000205410156135cc576040517f08c379a00000000000000000000000000000000000000000000000000000000081526004016135c390614547565b60405180910390fd5b80609b60008473ffffffffffffffffffffffffffffffffffffffff1673ffffffffffffffffffffffffffffffffffffffff1681526020019081526020016000206000828254039250508190555080609c600082825461362b9190614a39565b925050819055507f5c16de4f8b59bd9caf0f49a545f25819a895ed223294290b408242e72a5942318282604051613663929190614474565b60405180910390a15050565b6000609760009054906101000a900473ffffffffffffffffffffffffffffffffffffffff1673ffffffffffffffffffffffffffffffffffffffff16630ed2fc95846000609860009054906101000a900473ffffffffffffffffffffffffffffffffffffffff1687876040518663ffffffff1660e01b81526004016136f6949392919061442f565b6020604051808303818588803b15801561370f57600080fd5b505af1158015613723573d6000803e3d6000fd5b50505050506040513d601f19601f820116820180604052508101906137489190613f05565b905092915050565b600073ffffffffffffffffffffffffffffffffffffffff168273ffffffffffffffffffffffffffffffffffffffff1614156137c0576040517f08c379a00000000000000000000000000000000000000000000000000000000081526004016137b7906148a7565b60405180910390fd5b6137cc60008383613ac0565b80603560008282546137de9190614958565b9250508190555080603360008473ffffffffffffffffffffffffffffffffffffffff1673ffffffffffffffffffffffffffffffffffffffff16815260200190815260200160002060008282546138349190614958565b925050819055508173ffffffffffffffffffffffffffffffffffffffff16600073ffffffffffffffffffffffffffffffffffffffff167fddf252ad1be2c89b69c2b068fc378daa952ba7f163c4a11628f55a4df523b3ef8360405161389991906148c7565b60405180910390a36138ad60008383613ac5565b5050565b6000808273ffffffffffffffffffffffffffffffffffffffff163b119050919050565b600060019054906101000a900460ff16613923576040517f08c379a000000000000000000000000000000000000000000000000000000000815260040161391a90614827565b60405180910390fd5b61392d8282613aca565b5050565b600060019054906101000a900460ff16613980576040517f08c379a000000000000000000000000000000000000000000000000000000000815260040161397790614827565b60405180910390fd5b613988613b4b565b565b6000808473ffffffffffffffffffffffffffffffffffffffff1663095ea7b385856040516024016139bc929190614474565b6040516020818303038152906040529060e01b6020820180517bffffffffffffffffffffffffffffffffffffffffffffffffffffffff8381831617835250505050604051613a0a91906143c6565b6000604051808303816000865af19150503d8060008114613a47576040519150601f19603f3d011682016040523d82523d6000602084013e613a4c565b606091505b5091509150818015613a7a5750600081511480613a79575080806020019051810190613a789190613ddd565b5b5b613ab9576040517f08c379a0000000000000000000000000000000000000000000000000000000008152600401613ab0906145e7565b60405180910390fd5b5050505050565b505050565b505050565b600060019054906101000a900460ff16613b19576040517f08c379a0000000000000000000000000000000000000000000000000000000008152600401613b1090614827565b60405180910390fd5b8160369080519060200190613b2f929190613bac565b508060379080519060200190613b46929190613bac565b505050565b600060019054906101000a900460ff16613b9a576040517f08c379a0000000000000000000000000000000000000000000000000000000008152600401613b9190614827565b60405180910390fd5b613baa613ba561287d565b61334b565b565b828054613bb890614b2b565b90600052602060002090601f016020900481019282613bda5760008555613c21565b82601f10613bf357805160ff1916838001178555613c21565b82800160010185558215613c21579182015b82811115613c20578251825591602001919060010190613c05565b5b509050613c2e9190613c32565b5090565b5b80821115613c4b576000816000905550600101613c33565b5090565b600081359050613c5e81615308565b92915050565b600081519050613c738161531f565b92915050565b60008083601f840112613c8b57600080fd5b8235905067ffffffffffffffff811115613ca457600080fd5b602083019150836001820283011115613cbc57600080fd5b9250929050565b600081359050613cd281615336565b92915050565b600081519050613ce781615336565b92915050565b600060208284031215613cff57600080fd5b6000613d0d84828501613c4f565b91505092915050565b60008060408385031215613d2957600080fd5b6000613d3785828601613c4f565b9250506020613d4885828601613c4f565b9150509250929050565b600080600060608486031215613d6757600080fd5b6000613d7586828701613c4f565b9350506020613d8686828701613c4f565b9250506040613d9786828701613cc3565b9150509250925092565b60008060408385031215613db457600080fd5b6000613dc285828601613c4f565b9250506020613dd385828601613cc3565b9150509250929050565b600060208284031215613def57600080fd5b6000613dfd84828501613c64565b91505092915050565b600080600080600080600080600060e08a8c031215613e2457600080fd5b60008a013567ffffffffffffffff811115613e3e57600080fd5b613e4a8c828d01613c79565b995099505060208a013567ffffffffffffffff811115613e6957600080fd5b613e758c828d01613c79565b97509750506040613e888c828d01613c4f565b9550506060613e998c828d01613c4f565b9450506080613eaa8c828d01613c4f565b93505060a0613ebb8c828d01613c4f565b92505060c0613ecc8c828d01613cc3565b9150509295985092959850929598565b600060208284031215613eee57600080fd5b6000613efc84828501613cc3565b91505092915050565b600060208284031215613f1757600080fd5b6000613f2584828501613cd8565b91505092915050565b613f3781614a6d565b82525050565b613f4681614a7f565b82525050565b6000613f5782614926565b613f61818561493c565b9350613f71818560208601614af8565b80840191505092915050565b613f8681614ac2565b82525050565b613f9581614ae6565b82525050565b6000613fa682614931565b613fb08185614947565b9350613fc0818560208601614af8565b613fc981614c1b565b840191505092915050565b6000613fe1602083614947565b9150613fec82614c2c565b602082019050919050565b6000614004602383614947565b915061400f82614c55565b604082019050919050565b6000614027602283614947565b915061403282614ca4565b604082019050919050565b600061404a602683614947565b915061405582614cf3565b604082019050919050565b600061406d602283614947565b915061407882614d42565b604082019050919050565b6000614090600c83614947565b915061409b82614d91565b602082019050919050565b60006140b3601f83614947565b91506140be82614dba565b602082019050919050565b60006140d6602f83614947565b91506140e182614de3565b604082019050919050565b60006140f9602483614947565b915061410482614e32565b604082019050919050565b600061411c601d83614947565b915061412782614e81565b602082019050919050565b600061413f602683614947565b915061414a82614eaa565b604082019050919050565b6000614162601e83614947565b915061416d82614ef9565b602082019050919050565b6000614185603283614947565b915061419082614f22565b604082019050919050565b60006141a8602b83614947565b91506141b382614f71565b604082019050919050565b60006141cb602183614947565b91506141d682614fc0565b604082019050919050565b60006141ee602e83614947565b91506141f98261500f565b604082019050919050565b6000614211601d83614947565b915061421c8261505e565b602082019050919050565b6000614234601283614947565b915061423f82615087565b602082019050919050565b6000614257600d83614947565b9150614262826150b0565b602082019050919050565b600061427a602083614947565b9150614285826150d9565b602082019050919050565b600061429d602183614947565b91506142a882615102565b604082019050919050565b60006142c0602583614947565b91506142cb82615151565b604082019050919050565b60006142e3602483614947565b91506142ee826151a0565b604082019050919050565b6000614306602b83614947565b9150614311826151ef565b604082019050919050565b6000614329601183614947565b91506143348261523e565b602082019050919050565b600061434c601f83614947565b915061435782615267565b602082019050919050565b600061436f602583614947565b915061437a82615290565b604082019050919050565b6000614392601f83614947565b915061439d826152df565b602082019050919050565b6143b181614aab565b82525050565b6143c081614ab5565b82525050565b60006143d28284613f4c565b915081905092915050565b60006020820190506143f26000830184613f2e565b92915050565b600060608201905061440d6000830186613f2e565b61441a6020830185613f2e565b61442760408301846143a8565b949350505050565b60006080820190506144446000830187613f2e565b6144516020830186613f2e565b61445e60408301856143a8565b61446b60608301846143a8565b95945050505050565b60006040820190506144896000830185613f2e565b61449660208301846143a8565b9392505050565b60006060820190506144b26000830186613f2e565b6144bf60208301856143a8565b6144cc60408301846143a8565b949350505050565b60006020820190506144e96000830184613f3d565b92915050565b60006020820190506145046000830184613f7d565b92915050565b600060208201905061451f6000830184613f8c565b92915050565b6000602082019050818103600083015261453f8184613f9b565b905092915050565b6000602082019050818103600083015261456081613fd4565b9050919050565b6000602082019050818103600083015261458081613ff7565b9050919050565b600060208201905081810360008301526145a08161401a565b9050919050565b600060208201905081810360008301526145c08161403d565b9050919050565b600060208201905081810360008301526145e081614060565b9050919050565b6000602082019050818103600083015261460081614083565b9050919050565b60006020820190508181036000830152614620816140a6565b9050919050565b60006020820190508181036000830152614640816140c9565b9050919050565b60006020820190508181036000830152614660816140ec565b9050919050565b600060208201905081810360008301526146808161410f565b9050919050565b600060208201905081810360008301526146a081614132565b9050919050565b600060208201905081810360008301526146c081614155565b9050919050565b600060208201905081810360008301526146e081614178565b9050919050565b600060208201905081810360008301526147008161419b565b9050919050565b60006020820190508181036000830152614720816141be565b9050919050565b60006020820190508181036000830152614740816141e1565b9050919050565b6000602082019050818103600083015261476081614204565b9050919050565b6000602082019050818103600083015261478081614227565b9050919050565b600060208201905081810360008301526147a08161424a565b9050919050565b600060208201905081810360008301526147c08161426d565b9050919050565b600060208201905081810360008301526147e081614290565b9050919050565b60006020820190508181036000830152614800816142b3565b9050919050565b60006020820190508181036000830152614820816142d6565b9050919050565b60006020820190508181036000830152614840816142f9565b9050919050565b600060208201905081810360008301526148608161431c565b9050919050565b600060208201905081810360008301526148808161433f565b9050919050565b600060208201905081810360008301526148a081614362565b9050919050565b600060208201905081810360008301526148c081614385565b9050919050565b60006020820190506148dc60008301846143a8565b92915050565b60006040820190506148f760008301856143a8565b61490460208301846143a8565b9392505050565b600060208201905061492060008301846143b7565b92915050565b600081519050919050565b600081519050919050565b600081905092915050565b600082825260208201905092915050565b600061496382614aab565b915061496e83614aab565b9250827fffffffffffffffffffffffffffffffffffffffffffffffffffffffffffffffff038211156149a3576149a2614b8e565b5b828201905092915050565b60006149b982614aab565b91506149c483614aab565b9250826149d4576149d3614bbd565b5b828204905092915050565b60006149ea82614aab565b91506149f583614aab565b9250817fffffffffffffffffffffffffffffffffffffffffffffffffffffffffffffffff0483118215151615614a2e57614a2d614b8e565b5b828202905092915050565b6000614a4482614aab565b9150614a4f83614aab565b925082821015614a6257614a61614b8e565b5b828203905092915050565b6000614a7882614a8b565b9050919050565b60008115159050919050565b600073ffffffffffffffffffffffffffffffffffffffff82169050919050565b6000819050919050565b600060ff82169050919050565b6000614acd82614ad4565b9050919050565b6000614adf82614a8b565b9050919050565b6000614af182614ab5565b9050919050565b60005b83811015614b16578082015181840152602081019050614afb565b83811115614b25576000848401525b50505050565b60006002820490506001821680614b4357607f821691505b60208210811415614b5757614b56614bec565b5b50919050565b6000614b6882614aab565b9150614b7383614aab565b925082614b8357614b82614bbd565b5b828206905092915050565b7f4e487b7100000000000000000000000000000000000000000000000000000000600052601160045260246000fd5b7f4e487b7100000000000000000000000000000000000000000000000000000000600052601260045260246000fd5b7f4e487b7100000000000000000000000000000000000000000000000000000000600052602260045260246000fd5b6000601f19601f8301169050919050565b7f72657061793a20746f6f206d75636820616d6f756e7420746f2072657061792e600082015250565b7f45524332303a207472616e7366657220746f20746865207a65726f206164647260008201527f6573730000000000000000000000000000000000000000000000000000000000602082015250565b7f45524332303a206275726e20616d6f756e7420657863656564732062616c616e60008201527f6365000000000000000000000000000000000000000000000000000000000000602082015250565b7f4f776e61626c653a206e6577206f776e657220697320746865207a65726f206160008201527f6464726573730000000000000000000000000000000000000000000000000000602082015250565b7f45524332303a20617070726f766520746f20746865207a65726f20616464726560008201527f7373000000000000000000000000000000000000000000000000000000000000602082015250565b7f2173616665417070726f76650000000000000000000000000000000000000000600082015250565b7f5661756c743a20537461796b696e672061646472657373206973207a65726f00600082015250565b7f6d73672e76616c75652069732067726561746572207468616e20616363756d7560008201527f6c6174656420696e7465726573742e0000000000000000000000000000000000602082015250565b7f70656e6452657061793a20746f6f206d75636820616d6f756e7420746f20726560008201527f7061792e00000000000000000000000000000000000000000000000000000000602082015250565b7f45524332303a20696e73756666696369656e7420616c6c6f77616e6365000000600082015250565b7f45524332303a207472616e7366657220616d6f756e742065786365656473206260008201527f616c616e63650000000000000000000000000000000000000000000000000000602082015250565b7f4c6f616e3a2043616e7427206c6f616e206465627420616e796d6f72652e0000600082015250565b7f726570617950656e64696e67446562743a20746f6f206d756368206d73672e7660008201527f616c756520746f20726570617920646562740000000000000000000000000000602082015250565b7f74616b65446562744f776e6572736869703a20746f6f206d75636820616d6f7560008201527f6e7420746f2074616b652e000000000000000000000000000000000000000000602082015250565b7f5661756c743a204261736520546f6b656e206973207a65726f2061646472657360008201527f7300000000000000000000000000000000000000000000000000000000000000602082015250565b7f496e697469616c697a61626c653a20636f6e747261637420697320616c72656160008201527f647920696e697469616c697a6564000000000000000000000000000000000000602082015250565b7f5661756c743a204e6f7420537461796b696e6720636f6e74726163742e000000600082015250565b7f21736166655472616e7366657245564d4f530000000000000000000000000000600082015250565b7f21736166655472616e7366657200000000000000000000000000000000000000600082015250565b7f4f776e61626c653a2063616c6c6572206973206e6f7420746865206f776e6572600082015250565b7f45524332303a206275726e2066726f6d20746865207a65726f2061646472657360008201527f7300000000000000000000000000000000000000000000000000000000000000602082015250565b7f45524332303a207472616e736665722066726f6d20746865207a65726f20616460008201527f6472657373000000000000000000000000000000000000000000000000000000602082015250565b7f45524332303a20617070726f76652066726f6d20746865207a65726f2061646460008201527f7265737300000000000000000000000000000000000000000000000000000000602082015250565b7f496e697469616c697a61626c653a20636f6e7472616374206973206e6f74206960008201527f6e697469616c697a696e67000000000000000000000000000000000000000000602082015250565b7f21736166655472616e7366657246726f6d000000000000000000000000000000600082015250565b7f6c6f616e3a207a65726f20616464726573732063616e6e6f74206c6f616e2e00600082015250565b7f45524332303a2064656372656173656420616c6c6f77616e63652062656c6f7760008201527f207a65726f000000000000000000000000000000000000000000000000000000602082015250565b7f45524332303a206d696e7420746f20746865207a65726f206164647265737300600082015250565b61531181614a6d565b811461531c57600080fd5b50565b61532881614a7f565b811461533357600080fd5b50565b61533f81614aab565b811461534a57600080fd5b5056fea2646970667358221220c02b6ee52d33b233f0f852c804131281156a56fce97a413433940aa048199bba64736f6c63430008040033",
  "devdoc": {
    "kind": "dev",
    "methods": {
      "allowance(address,address)": {
        "details": "See {IERC20-allowance}."
      },
      "approve(address,uint256)": {
        "details": "See {IERC20-approve}. NOTE: If `amount` is the maximum `uint256`, the allowance is not updated on `transferFrom`. This is semantically equivalent to an infinite approval. Requirements: - `spender` cannot be the zero address."
      },
      "balanceOf(address)": {
        "details": "See {IERC20-balanceOf}."
      },
      "decimals()": {
        "details": "Returns the number of decimals used to get its user representation. For example, if `decimals` equals `2`, a balance of `505` tokens should be displayed to a user as `5.05` (`505 / 10 ** 2`). Tokens usually opt for a value of 18, imitating the relationship between Ether and Wei. This is the value {ERC20} uses, unless this function is overridden; NOTE: This information is only used for _display_ purposes: it in no way affects any of the arithmetic of the contract, including {IERC20-balanceOf} and {IERC20-transfer}."
      },
      "decreaseAllowance(address,uint256)": {
        "details": "Atomically decreases the allowance granted to `spender` by the caller. This is an alternative to {approve} that can be used as a mitigation for problems described in {IERC20-approve}. Emits an {Approval} event indicating the updated allowance. Requirements: - `spender` cannot be the zero address. - `spender` must have allowance for the caller of at least `subtractedValue`."
      },
      "getBaseIn(uint256)": {
        "details": "calc (?)EVMOS = $ token"
      },
      "getBaseOut(uint256)": {
        "details": "calc $ EVMOS = (?)token"
      },
      "getInterestRate()": {
        "details": "denominator = 1E18 "
      },
      "getTokenIn(uint256)": {
        "details": "calc (?)token = $ EVMOS"
      },
      "getTokenOut(uint256)": {
        "details": "calc $ token = (?)EVMOS"
      },
      "increaseAllowance(address,uint256)": {
        "details": "Atomically increases the allowance granted to `spender` by the caller. This is an alternative to {approve} that can be used as a mitigation for problems described in {IERC20-approve}. Emits an {Approval} event indicating the updated allowance. Requirements: - `spender` cannot be the zero address."
      },
      "name()": {
        "details": "Returns the name of the token."
      },
      "owner()": {
        "details": "Returns the address of the current owner."
      },
      "pendRepay(address,uint256)": {
        "details": "pending repay debt because of EVMOS Unstaking's 14 days lock. Stayking should approve token first."
      },
      "renounceOwnership()": {
        "details": "Leaves the contract without owner. It will not be possible to call `onlyOwner` functions anymore. Can only be called by the current owner. NOTE: Renouncing ownership will leave the contract without an owner, thereby removing any functionality that is only available to the owner."
      },
      "repayInBase(address,uint256)": {
        "details": "repay debt for Base token(EVMOS).",
        "params": {
          "minRepaid": "minimum repaid debtToken amonut",
          "user": "debt owner"
        }
      },
      "repayPendingDebt(address,uint256)": {
        "details": "stayking should send with msg.value(= repayingDebt)"
      },
      "symbol()": {
        "details": "Returns the symbol of the token, usually a shorter version of the name."
      },
      "totalSupply()": {
        "details": "See {IERC20-totalSupply}."
      },
      "transfer(address,uint256)": {
        "details": "See {IERC20-transfer}. Requirements: - `to` cannot be the zero address. - the caller must have a balance of at least `amount`."
      },
      "transferFrom(address,address,uint256)": {
        "details": "See {IERC20-transferFrom}. Emits an {Approval} event indicating the updated allowance. This is not required by the EIP. See the note at the beginning of {ERC20}. NOTE: Does not update the allowance if the current allowance is the maximum `uint256`. Requirements: - `from` and `to` cannot be the zero address. - `from` must have a balance of at least `amount`. - the caller must have allowance for ``from``'s tokens of at least `amount`."
      },
      "transferOwnership(address)": {
        "details": "Transfers ownership of the contract to a new account (`newOwner`). Can only be called by the current owner."
      }
    },
    "stateVariables": {
      "debtAmountOf": {
        "details": "totalAmount == Token.balanceOf(this) + totalDebtAmount totalShare == totalSupply()"
      }
    },
    "version": 1
  },
  "userdoc": {
    "kind": "user",
    "methods": {
      "deposit(uint256)": {
        "notice": "user approve should be preceded"
      },
      "loan(address,uint256)": {
        "notice": "loan is only for Stayking contract."
      }
    },
    "version": 1
  },
  "storageLayout": {
    "storage": [
      {
        "astId": 1346,
        "contract": "contracts/token/Vault.sol:Vault",
        "label": "_initialized",
        "offset": 0,
        "slot": "0",
        "type": "t_uint8"
      },
      {
        "astId": 1349,
        "contract": "contracts/token/Vault.sol:Vault",
        "label": "_initializing",
        "offset": 1,
        "slot": "0",
        "type": "t_bool"
      },
      {
        "astId": 730,
        "contract": "contracts/token/Vault.sol:Vault",
        "label": "__gap",
        "offset": 0,
        "slot": "1",
        "type": "t_array(t_uint256)50_storage"
      },
      {
        "astId": 747,
        "contract": "contracts/token/Vault.sol:Vault",
        "label": "_balances",
        "offset": 0,
        "slot": "51",
        "type": "t_mapping(t_address,t_uint256)"
      },
      {
        "astId": 753,
        "contract": "contracts/token/Vault.sol:Vault",
        "label": "_allowances",
        "offset": 0,
        "slot": "52",
        "type": "t_mapping(t_address,t_mapping(t_address,t_uint256))"
      },
      {
        "astId": 755,
        "contract": "contracts/token/Vault.sol:Vault",
        "label": "_totalSupply",
        "offset": 0,
        "slot": "53",
        "type": "t_uint256"
      },
      {
        "astId": 757,
        "contract": "contracts/token/Vault.sol:Vault",
        "label": "_name",
        "offset": 0,
        "slot": "54",
        "type": "t_string_storage"
      },
      {
        "astId": 759,
        "contract": "contracts/token/Vault.sol:Vault",
        "label": "_symbol",
        "offset": 0,
        "slot": "55",
        "type": "t_string_storage"
      },
      {
        "astId": 1338,
        "contract": "contracts/token/Vault.sol:Vault",
        "label": "__gap",
        "offset": 0,
        "slot": "56",
        "type": "t_array(t_uint256)45_storage"
      },
      {
        "astId": 1501,
        "contract": "contracts/token/Vault.sol:Vault",
        "label": "_owner",
        "offset": 0,
        "slot": "101",
        "type": "t_address"
      },
      {
        "astId": 1621,
        "contract": "contracts/token/Vault.sol:Vault",
        "label": "__gap",
        "offset": 0,
        "slot": "102",
        "type": "t_array(t_uint256)49_storage"
      },
      {
        "astId": 4397,
        "contract": "contracts/token/Vault.sol:Vault",
        "label": "swapHelper",
        "offset": 0,
        "slot": "151",
        "type": "t_contract(ISwapHelper)170"
      },
      {
        "astId": 4400,
        "contract": "contracts/token/Vault.sol:Vault",
        "label": "token",
        "offset": 0,
        "slot": "152",
        "type": "t_address"
      },
      {
        "astId": 4403,
        "contract": "contracts/token/Vault.sol:Vault",
        "label": "stayking",
        "offset": 0,
        "slot": "153",
        "type": "t_address"
      },
      {
        "astId": 4406,
        "contract": "contracts/token/Vault.sol:Vault",
        "label": "interestModel",
        "offset": 0,
        "slot": "154",
        "type": "t_address"
      },
      {
        "astId": 4412,
        "contract": "contracts/token/Vault.sol:Vault",
        "label": "debtAmountOf",
        "offset": 0,
        "slot": "155",
        "type": "t_mapping(t_address,t_uint256)"
      },
      {
        "astId": 4415,
        "contract": "contracts/token/Vault.sol:Vault",
        "label": "totalDebtAmount",
        "offset": 0,
        "slot": "156",
        "type": "t_uint256"
      },
      {
        "astId": 4419,
        "contract": "contracts/token/Vault.sol:Vault",
        "label": "pendingDebtShareOf",
        "offset": 0,
        "slot": "157",
        "type": "t_mapping(t_address,t_uint256)"
      },
      {
        "astId": 4421,
        "contract": "contracts/token/Vault.sol:Vault",
        "label": "totalPendingDebtShare",
        "offset": 0,
        "slot": "158",
        "type": "t_uint256"
      },
      {
        "astId": 4423,
        "contract": "contracts/token/Vault.sol:Vault",
        "label": "totalPendingDebtAmount",
        "offset": 0,
        "slot": "159",
        "type": "t_uint256"
      },
      {
        "astId": 4425,
        "contract": "contracts/token/Vault.sol:Vault",
        "label": "minReservedBps",
        "offset": 0,
        "slot": "160",
        "type": "t_uint256"
      },
      {
        "astId": 4427,
        "contract": "contracts/token/Vault.sol:Vault",
        "label": "yesterdayUtilRate",
        "offset": 0,
        "slot": "161",
        "type": "t_uint256"
      },
      {
        "astId": 4429,
        "contract": "contracts/token/Vault.sol:Vault",
        "label": "accInterest",
        "offset": 0,
        "slot": "162",
        "type": "t_uint256"
      },
      {
        "astId": 4431,
        "contract": "contracts/token/Vault.sol:Vault",
        "label": "lastSavedUtilizationRateTime",
        "offset": 0,
        "slot": "163",
        "type": "t_uint256"
      }
    ],
    "types": {
      "t_address": {
        "encoding": "inplace",
        "label": "address",
        "numberOfBytes": "20"
      },
      "t_array(t_uint256)45_storage": {
        "base": "t_uint256",
        "encoding": "inplace",
        "label": "uint256[45]",
        "numberOfBytes": "1440"
      },
      "t_array(t_uint256)49_storage": {
        "base": "t_uint256",
        "encoding": "inplace",
        "label": "uint256[49]",
        "numberOfBytes": "1568"
      },
      "t_array(t_uint256)50_storage": {
        "base": "t_uint256",
        "encoding": "inplace",
        "label": "uint256[50]",
        "numberOfBytes": "1600"
      },
      "t_bool": {
        "encoding": "inplace",
        "label": "bool",
        "numberOfBytes": "1"
      },
      "t_contract(ISwapHelper)170": {
        "encoding": "inplace",
        "label": "contract ISwapHelper",
        "numberOfBytes": "20"
      },
      "t_mapping(t_address,t_mapping(t_address,t_uint256))": {
        "encoding": "mapping",
        "key": "t_address",
        "label": "mapping(address => mapping(address => uint256))",
        "numberOfBytes": "32",
        "value": "t_mapping(t_address,t_uint256)"
      },
      "t_mapping(t_address,t_uint256)": {
        "encoding": "mapping",
        "key": "t_address",
        "label": "mapping(address => uint256)",
        "numberOfBytes": "32",
        "value": "t_uint256"
      },
      "t_string_storage": {
        "encoding": "bytes",
        "label": "string",
        "numberOfBytes": "32"
      },
      "t_uint256": {
        "encoding": "inplace",
        "label": "uint256",
        "numberOfBytes": "32"
      },
      "t_uint8": {
        "encoding": "inplace",
        "label": "uint8",
        "numberOfBytes": "1"
      }
    }
  }
}