{
  "address": "0x3C2BafebbB0c8c58f39A976e725cD20D611d01e9",
  "abi": [
    {
      "anonymous": false,
      "inputs": [
        {
          "indexed": true,
          "internalType": "address",
          "name": "owner",
          "type": "address"
        },
        {
          "indexed": true,
          "internalType": "address",
          "name": "spender",
          "type": "address"
        },
        {
          "indexed": false,
          "internalType": "uint256",
          "name": "value",
          "type": "uint256"
        }
      ],
      "name": "Approval",
      "type": "event"
    },
    {
      "anonymous": false,
      "inputs": [
        {
          "indexed": false,
          "internalType": "address",
          "name": "user",
          "type": "address"
        },
        {
          "indexed": false,
          "internalType": "uint256",
          "name": "amount",
          "type": "uint256"
        },
        {
          "indexed": false,
          "internalType": "uint256",
          "name": "share",
          "type": "uint256"
        }
      ],
      "name": "Deposit",
      "type": "event"
    },
    {
      "anonymous": false,
      "inputs": [
        {
          "indexed": false,
          "internalType": "uint8",
          "name": "version",
          "type": "uint8"
        }
      ],
      "name": "Initialized",
      "type": "event"
    },
    {
      "anonymous": false,
      "inputs": [
        {
          "indexed": false,
          "internalType": "address",
          "name": "user",
          "type": "address"
        },
        {
          "indexed": false,
          "internalType": "uint256",
          "name": "debtAmount",
          "type": "uint256"
        }
      ],
      "name": "Loan",
      "type": "event"
    },
    {
      "anonymous": false,
      "inputs": [
        {
          "indexed": true,
          "internalType": "address",
          "name": "previousOwner",
          "type": "address"
        },
        {
          "indexed": true,
          "internalType": "address",
          "name": "newOwner",
          "type": "address"
        }
      ],
      "name": "OwnershipTransferred",
      "type": "event"
    },
    {
      "anonymous": false,
      "inputs": [
        {
          "indexed": false,
          "internalType": "uint256",
          "name": "paidInterest",
          "type": "uint256"
        },
        {
          "indexed": false,
          "internalType": "uint256",
          "name": "leftInterest",
          "type": "uint256"
        }
      ],
      "name": "PayInterest",
      "type": "event"
    },
    {
      "anonymous": false,
      "inputs": [
        {
          "indexed": false,
          "internalType": "address",
          "name": "user",
          "type": "address"
        },
        {
          "indexed": false,
          "internalType": "uint256",
          "name": "debtAmount",
          "type": "uint256"
        }
      ],
      "name": "Repay",
      "type": "event"
    },
    {
      "anonymous": false,
      "inputs": [
        {
          "indexed": true,
          "internalType": "address",
          "name": "from",
          "type": "address"
        },
        {
          "indexed": true,
          "internalType": "address",
          "name": "to",
          "type": "address"
        },
        {
          "indexed": false,
          "internalType": "uint256",
          "name": "value",
          "type": "uint256"
        }
      ],
      "name": "Transfer",
      "type": "event"
    },
    {
      "anonymous": false,
      "inputs": [
        {
          "indexed": false,
          "internalType": "address",
          "name": "from",
          "type": "address"
        },
        {
          "indexed": false,
          "internalType": "address",
          "name": "to",
          "type": "address"
        },
        {
          "indexed": false,
          "internalType": "uint256",
          "name": "amount",
          "type": "uint256"
        }
      ],
      "name": "TransferDebtOwnership",
      "type": "event"
    },
    {
      "anonymous": false,
      "inputs": [
        {
          "indexed": false,
          "internalType": "uint256",
          "name": "rateBps",
          "type": "uint256"
        }
      ],
      "name": "UtilizationRate",
      "type": "event"
    },
    {
      "anonymous": false,
      "inputs": [
        {
          "indexed": false,
          "internalType": "address",
          "name": "user",
          "type": "address"
        },
        {
          "indexed": false,
          "internalType": "uint256",
          "name": "amount",
          "type": "uint256"
        },
        {
          "indexed": false,
          "internalType": "uint256",
          "name": "share",
          "type": "uint256"
        }
      ],
      "name": "Withdraw",
      "type": "event"
    },
    {
      "stateMutability": "payable",
      "type": "fallback"
    },
    {
      "inputs": [
        {
          "internalType": "string",
          "name": "_name",
          "type": "string"
        },
        {
          "internalType": "string",
          "name": "_symbol",
          "type": "string"
        },
        {
          "internalType": "address",
          "name": "_swapHelper",
          "type": "address"
        },
        {
          "internalType": "address",
          "name": "_stayking",
          "type": "address"
        },
        {
          "internalType": "address",
          "name": "_token",
          "type": "address"
        },
        {
          "internalType": "address",
          "name": "_interestModel",
          "type": "address"
        },
        {
          "internalType": "uint256",
          "name": "_minReservedBps",
          "type": "uint256"
        }
      ],
      "name": "__Vault_init",
      "outputs": [],
      "stateMutability": "nonpayable",
      "type": "function"
    },
    {
      "inputs": [],
      "name": "accInterest",
      "outputs": [
        {
          "internalType": "uint256",
          "name": "",
          "type": "uint256"
        }
      ],
      "stateMutability": "view",
      "type": "function"
    },
    {
      "inputs": [
        {
          "internalType": "address",
          "name": "owner",
          "type": "address"
        },
        {
          "internalType": "address",
          "name": "spender",
          "type": "address"
        }
      ],
      "name": "allowance",
      "outputs": [
        {
          "internalType": "uint256",
          "name": "",
          "type": "uint256"
        }
      ],
      "stateMutability": "view",
      "type": "function"
    },
    {
      "inputs": [
        {
          "internalType": "uint256",
          "name": "amount",
          "type": "uint256"
        }
      ],
      "name": "amountToShare",
      "outputs": [
        {
          "internalType": "uint256",
          "name": "",
          "type": "uint256"
        }
      ],
      "stateMutability": "view",
      "type": "function"
    },
    {
      "inputs": [
        {
          "internalType": "address",
          "name": "spender",
          "type": "address"
        },
        {
          "internalType": "uint256",
          "name": "amount",
          "type": "uint256"
        }
      ],
      "name": "approve",
      "outputs": [
        {
          "internalType": "bool",
          "name": "",
          "type": "bool"
        }
      ],
      "stateMutability": "nonpayable",
      "type": "function"
    },
    {
      "inputs": [
        {
          "internalType": "address",
          "name": "account",
          "type": "address"
        }
      ],
      "name": "balanceOf",
      "outputs": [
        {
          "internalType": "uint256",
          "name": "",
          "type": "uint256"
        }
      ],
      "stateMutability": "view",
      "type": "function"
    },
    {
      "inputs": [
        {
          "internalType": "address",
          "name": "user",
          "type": "address"
        }
      ],
      "name": "debtAmountInBase",
      "outputs": [
        {
          "internalType": "uint256",
          "name": "",
          "type": "uint256"
        }
      ],
      "stateMutability": "view",
      "type": "function"
    },
    {
      "inputs": [
        {
          "internalType": "address",
          "name": "",
          "type": "address"
        }
      ],
      "name": "debtAmountOf",
      "outputs": [
        {
          "internalType": "uint256",
          "name": "",
          "type": "uint256"
        }
      ],
      "stateMutability": "view",
      "type": "function"
    },
    {
      "inputs": [],
      "name": "decimals",
      "outputs": [
        {
          "internalType": "uint8",
          "name": "",
          "type": "uint8"
        }
      ],
      "stateMutability": "view",
      "type": "function"
    },
    {
      "inputs": [
        {
          "internalType": "address",
          "name": "spender",
          "type": "address"
        },
        {
          "internalType": "uint256",
          "name": "subtractedValue",
          "type": "uint256"
        }
      ],
      "name": "decreaseAllowance",
      "outputs": [
        {
          "internalType": "bool",
          "name": "",
          "type": "bool"
        }
      ],
      "stateMutability": "nonpayable",
      "type": "function"
    },
    {
      "inputs": [
        {
          "internalType": "uint256",
          "name": "amount",
          "type": "uint256"
        }
      ],
      "name": "deposit",
      "outputs": [
        {
          "internalType": "uint256",
          "name": "share",
          "type": "uint256"
        }
      ],
      "stateMutability": "nonpayable",
      "type": "function"
    },
    {
      "inputs": [
        {
          "internalType": "uint256",
          "name": "tokenOut",
          "type": "uint256"
        }
      ],
      "name": "getBaseIn",
      "outputs": [
        {
          "internalType": "uint256",
          "name": "baseIn",
          "type": "uint256"
        }
      ],
      "stateMutability": "view",
      "type": "function"
    },
    {
      "inputs": [
        {
          "internalType": "uint256",
          "name": "tokenIn",
          "type": "uint256"
        }
      ],
      "name": "getBaseOut",
      "outputs": [
        {
          "internalType": "uint256",
          "name": "baseOut",
          "type": "uint256"
        }
      ],
      "stateMutability": "view",
      "type": "function"
    },
    {
      "inputs": [],
      "name": "getInterestInBase",
      "outputs": [
        {
          "internalType": "uint256",
          "name": "",
          "type": "uint256"
        }
      ],
      "stateMutability": "view",
      "type": "function"
    },
    {
      "inputs": [],
      "name": "getInterestRate",
      "outputs": [
        {
          "internalType": "uint256",
          "name": "interestRate",
          "type": "uint256"
        }
      ],
      "stateMutability": "view",
      "type": "function"
    },
    {
      "inputs": [
        {
          "internalType": "address",
          "name": "user",
          "type": "address"
        }
      ],
      "name": "getPendingDebt",
      "outputs": [
        {
          "internalType": "uint256",
          "name": "",
          "type": "uint256"
        }
      ],
      "stateMutability": "view",
      "type": "function"
    },
    {
      "inputs": [
        {
          "internalType": "address",
          "name": "user",
          "type": "address"
        }
      ],
      "name": "getPendingDebtInBase",
      "outputs": [
        {
          "internalType": "uint256",
          "name": "",
          "type": "uint256"
        }
      ],
      "stateMutability": "view",
      "type": "function"
    },
    {
      "inputs": [
        {
          "internalType": "uint256",
          "name": "baseOut",
          "type": "uint256"
        }
      ],
      "name": "getTokenIn",
      "outputs": [
        {
          "internalType": "uint256",
          "name": "tokenIn",
          "type": "uint256"
        }
      ],
      "stateMutability": "view",
      "type": "function"
    },
    {
      "inputs": [
        {
          "internalType": "uint256",
          "name": "baseIn",
          "type": "uint256"
        }
      ],
      "name": "getTokenOut",
      "outputs": [
        {
          "internalType": "uint256",
          "name": "tokenOut",
          "type": "uint256"
        }
      ],
      "stateMutability": "view",
      "type": "function"
    },
    {
      "inputs": [
        {
          "internalType": "address",
          "name": "spender",
          "type": "address"
        },
        {
          "internalType": "uint256",
          "name": "addedValue",
          "type": "uint256"
        }
      ],
      "name": "increaseAllowance",
      "outputs": [
        {
          "internalType": "bool",
          "name": "",
          "type": "bool"
        }
      ],
      "stateMutability": "nonpayable",
      "type": "function"
    },
    {
      "inputs": [],
      "name": "interestModel",
      "outputs": [
        {
          "internalType": "address",
          "name": "",
          "type": "address"
        }
      ],
      "stateMutability": "view",
      "type": "function"
    },
    {
      "inputs": [],
      "name": "lastAccruedAt",
      "outputs": [
        {
          "internalType": "uint256",
          "name": "",
          "type": "uint256"
        }
      ],
      "stateMutability": "view",
      "type": "function"
    },
    {
      "inputs": [],
      "name": "lastSavedUtilizationRateTime",
      "outputs": [
        {
          "internalType": "uint256",
          "name": "",
          "type": "uint256"
        }
      ],
      "stateMutability": "view",
      "type": "function"
    },
    {
      "inputs": [
        {
          "internalType": "address",
          "name": "user",
          "type": "address"
        },
        {
          "internalType": "uint256",
          "name": "debtInBase",
          "type": "uint256"
        }
      ],
      "name": "loan",
      "outputs": [
        {
          "internalType": "uint256",
          "name": "debt",
          "type": "uint256"
        }
      ],
      "stateMutability": "nonpayable",
      "type": "function"
    },
    {
      "inputs": [],
      "name": "minReservedBps",
      "outputs": [
        {
          "internalType": "uint256",
          "name": "",
          "type": "uint256"
        }
      ],
      "stateMutability": "view",
      "type": "function"
    },
    {
      "inputs": [],
      "name": "name",
      "outputs": [
        {
          "internalType": "string",
          "name": "",
          "type": "string"
        }
      ],
      "stateMutability": "view",
      "type": "function"
    },
    {
      "inputs": [],
      "name": "owner",
      "outputs": [
        {
          "internalType": "address",
          "name": "",
          "type": "address"
        }
      ],
      "stateMutability": "view",
      "type": "function"
    },
    {
      "inputs": [
        {
          "internalType": "uint256",
          "name": "minPaidInterest",
          "type": "uint256"
        }
      ],
      "name": "payInterest",
      "outputs": [],
      "stateMutability": "payable",
      "type": "function"
    },
    {
      "inputs": [
        {
          "internalType": "address",
          "name": "user",
          "type": "address"
        },
        {
          "internalType": "uint256",
          "name": "amountInBase",
          "type": "uint256"
        }
      ],
      "name": "pendRepay",
      "outputs": [
        {
          "internalType": "uint256",
          "name": "pendingDebtShare",
          "type": "uint256"
        }
      ],
      "stateMutability": "nonpayable",
      "type": "function"
    },
    {
      "inputs": [
        {
          "internalType": "uint256",
          "name": "amount",
          "type": "uint256"
        }
      ],
      "name": "pendingDebtAmountToShare",
      "outputs": [
        {
          "internalType": "uint256",
          "name": "",
          "type": "uint256"
        }
      ],
      "stateMutability": "view",
      "type": "function"
    },
    {
      "inputs": [
        {
          "internalType": "address",
          "name": "",
          "type": "address"
        }
      ],
      "name": "pendingDebtShareOf",
      "outputs": [
        {
          "internalType": "uint256",
          "name": "",
          "type": "uint256"
        }
      ],
      "stateMutability": "view",
      "type": "function"
    },
    {
      "inputs": [
        {
          "internalType": "uint256",
          "name": "share",
          "type": "uint256"
        }
      ],
      "name": "pendingDebtShareToAmount",
      "outputs": [
        {
          "internalType": "uint256",
          "name": "",
          "type": "uint256"
        }
      ],
      "stateMutability": "view",
      "type": "function"
    },
    {
      "inputs": [],
      "name": "renounceOwnership",
      "outputs": [],
      "stateMutability": "nonpayable",
      "type": "function"
    },
    {
      "inputs": [
        {
          "internalType": "address",
          "name": "user",
          "type": "address"
        },
        {
          "internalType": "uint256",
          "name": "minRepaid",
          "type": "uint256"
        }
      ],
      "name": "repayInBase",
      "outputs": [
        {
          "internalType": "uint256",
          "name": "repaid",
          "type": "uint256"
        }
      ],
      "stateMutability": "payable",
      "type": "function"
    },
    {
      "inputs": [
        {
          "internalType": "address",
          "name": "user",
          "type": "address"
        },
        {
          "internalType": "uint256",
          "name": "amount",
          "type": "uint256"
        }
      ],
      "name": "repayInToken",
      "outputs": [],
      "stateMutability": "nonpayable",
      "type": "function"
    },
    {
      "inputs": [
        {
          "internalType": "address",
          "name": "user",
          "type": "address"
        },
        {
          "internalType": "uint256",
          "name": "minRepaidDebt",
          "type": "uint256"
        }
      ],
      "name": "repayPendingDebt",
      "outputs": [
        {
          "internalType": "uint256",
          "name": "repaidDebtAmount",
          "type": "uint256"
        }
      ],
      "stateMutability": "payable",
      "type": "function"
    },
    {
      "inputs": [],
      "name": "saveUtilizationRateBps",
      "outputs": [],
      "stateMutability": "nonpayable",
      "type": "function"
    },
    {
      "inputs": [
        {
          "internalType": "uint256",
          "name": "share",
          "type": "uint256"
        }
      ],
      "name": "shareToAmount",
      "outputs": [
        {
          "internalType": "uint256",
          "name": "",
          "type": "uint256"
        }
      ],
      "stateMutability": "view",
      "type": "function"
    },
    {
      "inputs": [],
      "name": "stayking",
      "outputs": [
        {
          "internalType": "address",
          "name": "",
          "type": "address"
        }
      ],
      "stateMutability": "view",
      "type": "function"
    },
    {
      "inputs": [],
      "name": "swapHelper",
      "outputs": [
        {
          "internalType": "contract ISwapHelper",
          "name": "",
          "type": "address"
        }
      ],
      "stateMutability": "view",
      "type": "function"
    },
    {
      "inputs": [],
      "name": "symbol",
      "outputs": [
        {
          "internalType": "string",
          "name": "",
          "type": "string"
        }
      ],
      "stateMutability": "view",
      "type": "function"
    },
    {
      "inputs": [
        {
          "internalType": "address",
          "name": "from",
          "type": "address"
        },
        {
          "internalType": "uint256",
          "name": "amount",
          "type": "uint256"
        }
      ],
      "name": "takeDebtOwnership",
      "outputs": [],
      "stateMutability": "nonpayable",
      "type": "function"
    },
    {
      "inputs": [],
      "name": "token",
      "outputs": [
        {
          "internalType": "address",
          "name": "",
          "type": "address"
        }
      ],
      "stateMutability": "view",
      "type": "function"
    },
    {
      "inputs": [],
      "name": "totalAmount",
      "outputs": [
        {
          "internalType": "uint256",
          "name": "",
          "type": "uint256"
        }
      ],
      "stateMutability": "view",
      "type": "function"
    },
    {
      "inputs": [],
      "name": "totalDebtAmount",
      "outputs": [
        {
          "internalType": "uint256",
          "name": "",
          "type": "uint256"
        }
      ],
      "stateMutability": "view",
      "type": "function"
    },
    {
      "inputs": [],
      "name": "totalPendingDebtAmount",
      "outputs": [
        {
          "internalType": "uint256",
          "name": "",
          "type": "uint256"
        }
      ],
      "stateMutability": "view",
      "type": "function"
    },
    {
      "inputs": [],
      "name": "totalPendingDebtShare",
      "outputs": [
        {
          "internalType": "uint256",
          "name": "",
          "type": "uint256"
        }
      ],
      "stateMutability": "view",
      "type": "function"
    },
    {
      "inputs": [],
      "name": "totalSupply",
      "outputs": [
        {
          "internalType": "uint256",
          "name": "",
          "type": "uint256"
        }
      ],
      "stateMutability": "view",
      "type": "function"
    },
    {
      "inputs": [
        {
          "internalType": "address",
          "name": "to",
          "type": "address"
        },
        {
          "internalType": "uint256",
          "name": "amount",
          "type": "uint256"
        }
      ],
      "name": "transfer",
      "outputs": [
        {
          "internalType": "bool",
          "name": "",
          "type": "bool"
        }
      ],
      "stateMutability": "nonpayable",
      "type": "function"
    },
    {
      "inputs": [
        {
          "internalType": "address",
          "name": "from",
          "type": "address"
        },
        {
          "internalType": "address",
          "name": "to",
          "type": "address"
        },
        {
          "internalType": "uint256",
          "name": "amount",
          "type": "uint256"
        }
      ],
      "name": "transferFrom",
      "outputs": [
        {
          "internalType": "bool",
          "name": "",
          "type": "bool"
        }
      ],
      "stateMutability": "nonpayable",
      "type": "function"
    },
    {
      "inputs": [
        {
          "internalType": "address",
          "name": "newOwner",
          "type": "address"
        }
      ],
      "name": "transferOwnership",
      "outputs": [],
      "stateMutability": "nonpayable",
      "type": "function"
    },
    {
      "inputs": [
        {
          "internalType": "address",
          "name": "_interestModel",
          "type": "address"
        }
      ],
      "name": "updateInterestModel",
      "outputs": [],
      "stateMutability": "nonpayable",
      "type": "function"
    },
    {
      "inputs": [
        {
          "internalType": "uint256",
          "name": "_minReservedBps",
          "type": "uint256"
        }
      ],
      "name": "updateMinReservedBps",
      "outputs": [],
      "stateMutability": "nonpayable",
      "type": "function"
    },
    {
      "inputs": [
        {
          "internalType": "address",
          "name": "_swapHelper",
          "type": "address"
        }
      ],
      "name": "updateSwapHelper",
      "outputs": [],
      "stateMutability": "nonpayable",
      "type": "function"
    },
    {
      "inputs": [],
      "name": "utilizationRateBps",
      "outputs": [
        {
          "internalType": "uint256",
          "name": "",
          "type": "uint256"
        }
      ],
      "stateMutability": "view",
      "type": "function"
    },
    {
      "inputs": [
        {
          "internalType": "uint256",
          "name": "share",
          "type": "uint256"
        }
      ],
      "name": "withdraw",
      "outputs": [
        {
          "internalType": "uint256",
          "name": "amount",
          "type": "uint256"
        }
      ],
      "stateMutability": "nonpayable",
      "type": "function"
    },
    {
      "inputs": [],
      "name": "yesterdayUtilRate",
      "outputs": [
        {
          "internalType": "uint256",
          "name": "",
          "type": "uint256"
        }
      ],
      "stateMutability": "view",
      "type": "function"
    },
    {
      "stateMutability": "payable",
      "type": "receive"
    }
  ],
  "transactionHash": "0x581c59f1995982583a3cd9597526d7db99249bcde0cd37c478e3bd7fabe845bd",
  "args": [],
  "numDeployments": 1,
  "solcInputHash": "d986b86957f665cc8046c8158b9e6879",
  "bytecode": "0x608060405234801561001057600080fd5b50612ee5806100206000396000f3fe60806040526004361061034a5760003560e01c8063715018a6116101b9578063b16828b7116100f6578063da45ec7e1161009a578063e6d7059a1161006c578063e6d7059a1461098b578063eab32981146109ab578063f2fde38b146109cb578063fc0c546a146109eb57005b8063da45ec7e1461091f578063dafbdba814610935578063dd62ed3e1461094b578063e18c51311461096b57005b8063b95d4ae1116100d3578063b95d4ae1146108a9578063c4809798146108c9578063c8dffa95146108e9578063d9ecd8d3146108ff57005b8063b16828b714610854578063b6b55f2514610869578063b9529e9f1461088957005b806395d89b411161015d578063a457c2d71161013a578063a457c2d7146107e1578063a9059cbb14610801578063ac165d7a14610821578063ad452d751461084157005b806395d89b41146107a35780639d2e6fcb146107b8578063a35a76bc146107cb57005b80638122af77116101965780638122af77146107255780638a81d6b0146107525780638da5cb5b1461076557806395d6abf81461078357005b8063715018a6146106da578063724e5910146106ef5780637d0a2a8e1461070f57005b806323b872dd116102875780633f2b97231161022b5780635483067d116102085780635483067d146106415780635eeff101146106575780636592183b1461067757806370a08231146106a457005b80633f2b9723146105ec578063494e42f41461060c5780635257b5661461062c57005b80632e1a7d4d116102645780632e1a7d4d1461057b578063313ce5671461059b57806339509351146105b75780633d7d31fc146105d757005b806323b872dd1461051b5780632d4047e51461053b5780632d6f80131461055b57005b806315d6dae9116102ee578063185cc751116102cb578063185cc751146104a65780631a39d8ef146104c65780631a4e1aef146104db5780631ce9ba36146104fb57005b806315d6dae91461045b57806316f2c0051461047b57806318160ddd1461049157005b8063095ea7b311610327578063095ea7b3146103b35780630efc51a7146103e35780630fc6a11c14610403578063131829151461043b57005b806303d98c1f1461035357806306fdde031461037b578063072481e31461039d57005b3661035157005b005b34801561035f57600080fd5b50610368610a0b565b6040519081526020015b60405180910390f35b34801561038757600080fd5b50610390610a33565b6040516103729190612cf7565b3480156103a957600080fd5b50610368609f5481565b3480156103bf57600080fd5b506103d36103ce366004612b86565b610ac5565b6040519015158152602001610372565b3480156103ef57600080fd5b506103686103fe366004612c87565b610adf565b34801561040f57600080fd5b50609754610423906001600160a01b031681565b6040516001600160a01b039091168152602001610372565b34801561044757600080fd5b50610351610456366004612aff565b610b6b565b34801561046757600080fd5b50610368610476366004612c87565b610b95565b34801561048757600080fd5b5061036860a05481565b34801561049d57600080fd5b50603554610368565b3480156104b257600080fd5b506103686104c1366004612b86565b610bd1565b3480156104d257600080fd5b50610368610d8b565b3480156104e757600080fd5b506103686104f6366004612b86565b610e15565b34801561050757600080fd5b50610368610516366004612c87565b610f39565b34801561052757600080fd5b506103d3610536366004612b4b565b610f69565b34801561054757600080fd5b50610368610556366004612c87565b610f8d565b34801561056757600080fd5b50610368610576366004612c87565b610fcd565b34801561058757600080fd5b50610368610596366004612c87565b610feb565b3480156105a757600080fd5b5060405160128152602001610372565b3480156105c357600080fd5b506103d36105d2366004612b86565b611070565b3480156105e357600080fd5b50610368611092565b3480156105f857600080fd5b50610351610607366004612aff565b6110ae565b34801561061857600080fd5b50610351610627366004612c87565b6110d8565b34801561063857600080fd5b506103686110e5565b34801561064d57600080fd5b5061036860a35481565b34801561066357600080fd5b50610368610672366004612aff565b6111e8565b34801561068357600080fd5b50610368610692366004612aff565b609b6020526000908152604090205481565b3480156106b057600080fd5b506103686106bf366004612aff565b6001600160a01b031660009081526033602052604090205490565b3480156106e657600080fd5b506103516111f6565b3480156106fb57600080fd5b5061035161070a366004612b86565b61120a565b34801561071b57600080fd5b5061036860a25481565b34801561073157600080fd5b50610368610740366004612aff565b609d6020526000908152604090205481565b610368610760366004612b86565b61125a565b34801561077157600080fd5b506065546001600160a01b0316610423565b34801561078f57600080fd5b5061036861079e366004612c87565b61134a565b3480156107af57600080fd5b50610390611384565b6103686107c6366004612b86565b611393565b3480156107d757600080fd5b5061036860a15481565b3480156107ed57600080fd5b506103d36107fc366004612b86565b6113d6565b34801561080d57600080fd5b506103d361081c366004612b86565b611451565b34801561082d57600080fd5b50609a54610423906001600160a01b031681565b61035161084f366004612c87565b61145f565b34801561086057600080fd5b50610351611553565b34801561087557600080fd5b50610368610884366004612c87565b6115c9565b34801561089557600080fd5b506103516108a4366004612b86565b61163f565b3480156108b557600080fd5b506103686108c4366004612aff565b61175f565b3480156108d557600080fd5b506103686108e4366004612c87565b611781565b3480156108f557600080fd5b50610368609c5481565b34801561090b57600080fd5b5061035161091a366004612bcf565b61179e565b34801561092b57600080fd5b5061036860a45481565b34801561094157600080fd5b50610368609e5481565b34801561095757600080fd5b50610368610966366004612b19565b611a59565b34801561097757600080fd5b50610368610986366004612aff565b611a84565b34801561099757600080fd5b506103686109a6366004612c87565b611aa6565b3480156109b757600080fd5b50609954610423906001600160a01b031681565b3480156109d757600080fd5b506103516109e6366004612aff565b611ae0565b3480156109f757600080fd5b50609854610423906001600160a01b031681565b6000610a15610d8b565b609c54610a2490612710612dd8565b610a2e9190612dc4565b905090565b606060368054610a4290612e3a565b80601f0160208091040260200160405190810160405280929190818152602001828054610a6e90612e3a565b8015610abb5780601f10610a9057610100808354040283529160200191610abb565b820191906000526020600020905b815481529060010190602001808311610a9e57829003601f168201915b5050505050905090565b600033610ad3818585611b56565b60019150505b92915050565b609754609854604051633ee777f760e11b81526000926001600160a01b0390811692637dceefee92610b1b929091169085908790600401612cd3565b60206040518083038186803b158015610b3357600080fd5b505afa158015610b47573d6000803e3d6000fd5b505050506040513d601f19601f82011682018060405250810190610ad99190612c9f565b610b73611c7a565b609a80546001600160a01b0319166001600160a01b0392909216919091179055565b609754609854604051634f119bbd60e01b81526000926001600160a01b0390811692634f119bbd92610b1b929091169085908790600401612cd3565b6099546000906001600160a01b03163314610c075760405162461bcd60e51b8152600401610bfe90612d2a565b60405180910390fd5b610c0f611cd4565b6001600160a01b038316610c655760405162461bcd60e51b815260206004820152601f60248201527f6c6f616e3a207a65726f20616464726573732063616e6e6f74206c6f616e2e006044820152606401610bfe565b610c6e82611e3f565b6001600160a01b0384166000908152609b6020526040812080549293508392909190610c9b908490612dac565b9250508190555080609c6000828254610cb49190612dac565b909155505060a054610cc890612710612df7565b610cd0610d8b565b610cda9190612dd8565b609c54610ce990612710612dd8565b1115610d375760405162461bcd60e51b815260206004820152601e60248201527f4c6f616e3a2043616e7427206c6f616e206465627420616e796d6f72652e00006044820152606401610bfe565b610d413383611f06565b604080516001600160a01b0385168152602081018390527f1db23cf53464267c45324569941e81e23d29c48ff9be2b35af2cc0a2681159d6910160405180910390a1610ad9611553565b609c546098546040516370a0823160e01b8152306004820152600092916001600160a01b0316906370a082319060240160206040518083038186803b158015610dd357600080fd5b505afa158015610de7573d6000803e3d6000fd5b505050506040513d601f19601f82011682018060405250810190610e0b9190612c9f565b610a2e9190612dac565b6099546000906001600160a01b03163314610e425760405162461bcd60e51b8152600401610bfe90612d2a565b6000610e4d83610b95565b6001600160a01b0385166000908152609b6020526040902054909150811115610ec45760405162461bcd60e51b8152602060048201526024808201527f70656e6452657061793a20746f6f206d75636820616d6f756e7420746f2072656044820152633830bc9760e11b6064820152608401610bfe565b610ecd81611781565b6001600160a01b0385166000908152609d6020526040812080549294508492909190610efa908490612dac565b9250508190555081609e6000828254610f139190612dac565b9250508190555080609f6000828254610f2c9190612dac565b9091555091949350505050565b6000609e54600014610f6557609e5482609f54610f569190612dd8565b610f609190612dc4565b610ad9565b5090565b600033610f77858285611fbd565b610f82858585612037565b506001949350505050565b600080610f98610d8b565b90508015610fc4578083610fab60355490565b610fb59190612dd8565b610fbf9190612dc4565b610fc6565b825b9392505050565b600080610fd960355490565b90508015610fc4578083610fab610d8b565b6000610ff5611cd4565b610ffe82610fcd565b905061100a3383612205565b609854611021906001600160a01b03163383612353565b60408051338152602081018390529081018390527ff279e6a1f5e320cca91135676d9cb6e44ca8a08c0b88342bcdb1144f6511b568906060015b60405180910390a161106b611553565b919050565b600033610ad38185856110838383611a59565b61108d9190612dac565b611b56565b60008060a454116110a35750600090565b610a2e60a45461134a565b6110b6611c7a565b609780546001600160a01b0319166001600160a01b0392909216919091179055565b6110e0611c7a565b60a055565b609a54609c546098546040516370a0823160e01b81523060048201526000936001600160a01b039081169363d4a99bbb9390929116906370a082319060240160206040518083038186803b15801561113c57600080fd5b505afa158015611150573d6000803e3d6000fd5b505050506040513d601f19601f820116820180604052508101906111749190612c9f565b6040516001600160e01b031960e085901b1681526004810192909252602482015260440160206040518083038186803b1580156111b057600080fd5b505afa1580156111c4573d6000803e3d6000fd5b505050506040513d601f19601f82011682018060405250810190610a2e9190612c9f565b6000610ad961079e83611a84565b6111fe611c7a565b611208600061245e565b565b6099546001600160a01b031633146112345760405162461bcd60e51b8152600401610bfe90612d2a565b60985461124c906001600160a01b03168330846124b0565b61125682826125c4565b5050565b6099546000906001600160a01b031633146112875760405162461bcd60e51b8152600401610bfe90612d2a565b61129134836126b4565b9050600061129e82611781565b6001600160a01b0385166000908152609d60205260409020549091508111156113245760405162461bcd60e51b815260206004820152603260248201527f726570617950656e64696e67446562743a20746f6f206d756368206d73672e76604482015271185b1d59481d1bc81c995c185e481919589d60721b6064820152608401610bfe565b6001600160a01b039093166000908152609d602052604090208054939093039092555090565b609754609854604051633ee777f760e11b81526000926001600160a01b0390811692637dceefee92610b1b92869216908790600401612cd3565b606060378054610a4290612e3a565b6099546000906001600160a01b031633146113c05760405162461bcd60e51b8152600401610bfe90612d2a565b6113ca34836126b4565b9050610ad983826125c4565b600033816113e48286611a59565b9050838110156114445760405162461bcd60e51b815260206004820152602560248201527f45524332303a2064656372656173656420616c6c6f77616e63652062656c6f77604482015264207a65726f60d81b6064820152608401610bfe565b610f828286868403611b56565b600033610ad3818585612037565b6099546001600160a01b031633146114895760405162461bcd60e51b8152600401610bfe90612d2a565b611491611cd4565b600061149b611092565b90506000813411156114e5576114b38260a4546126b4565b90506114c8336114c38434612df7565b611f06565b8060a460008282546114da9190612df7565b909155506115099050565b6114ef34846126b4565b90508060a460008282546115039190612df7565b90915550505b60a4546040805183815260208101929092527f57546d41506d4d7643c2ea350647fa3d6ada23d1de3afa7a32496df9b7686bc0910160405180910390a15050611550611553565b50565b60a2546115639062015180612dac565b421061120857611571610a0b565b60a1819055506201518060a2600082825461158c9190612dac565b909155505060a1546040519081527f163eacd81cbfca2d1ec176759e7107e34229c5cbc5ec0b3fde68ffdef1157e029060200160405180910390a1565b60006115d3611cd4565b6115dc82610f8d565b6098549091506115f7906001600160a01b03163330856124b0565b6116013382612751565b60408051338152602081018490529081018290527f90890809c654f11d6e72a28fa60149770a0d11ec6c92319d6ceb2bb0a4ea1a159060600161105b565b6099546001600160a01b031633146116695760405162461bcd60e51b8152600401610bfe90612d2a565b6001600160a01b0382166000908152609b60205260409020548111156116e55760405162461bcd60e51b815260206004820152602b60248201527f74616b65446562744f776e6572736869703a20746f6f206d75636820616d6f7560448201526a373a103a37903a30b5b29760a91b6064820152608401610bfe565b6001600160a01b0382166000908152609b6020526040808220805484900390553382528120805483929061171a908490612dac565b90915550506040517f80caff6c1c70cc823c773c968ebdab44b7dc12da8117b4634b5f3eb78b07011e9061175390849033908590612cd3565b60405180910390a15050565b6001600160a01b0381166000908152609b6020526040812054610ad99061134a565b6000609f54600014610f6557609f5482609e54610f569190612dd8565b600054610100900460ff16158080156117be5750600054600160ff909116105b806117d85750303b1580156117d8575060005460ff166001145b61183b5760405162461bcd60e51b815260206004820152602e60248201527f496e697469616c697a61626c653a20636f6e747261637420697320616c72656160448201526d191e481a5b9a5d1a585b1a5e995960921b6064820152608401610bfe565b6000805460ff19166001179055801561185e576000805461ff0019166101001790555b6001600160a01b0385166118b45760405162461bcd60e51b815260206004820152601f60248201527f5661756c743a20537461796b696e672061646472657373206973207a65726f006044820152606401610bfe565b6001600160a01b0384166119145760405162461bcd60e51b815260206004820152602160248201527f5661756c743a204261736520546f6b656e206973207a65726f206164647265736044820152607360f81b6064820152608401610bfe565b6119878a8a8080601f01602080910402602001604051908101604052809392919081815260200183838082843760009201919091525050604080516020601f8e018190048102820181019092528c815292508c91508b908190840183828082843760009201919091525061283092505050565b61198f612861565b609880546001600160a01b038087166001600160a01b03199283161790925560998054928816929091169190911790554260a3556119cc826110d8565b6119d583610b6b565b6119de866110ae565b620151806119f06361b2a69042612df7565b6119fa9190612e6f565b611a049042612df7565b60a2558015611a4d576000805461ff0019169055604051600181527f7f26b83ff96e1f2b6a682f133852f6798a09c465da95921460cefb38474024989060200160405180910390a15b50505050505050505050565b6001600160a01b03918216600090815260346020908152604080832093909416825291909152205490565b6001600160a01b0381166000908152609d6020526040812054610ad990610f39565b609754609854604051634f119bbd60e01b81526000926001600160a01b0390811692634f119bbd92610b1b92869216908790600401612cd3565b611ae8611c7a565b6001600160a01b038116611b4d5760405162461bcd60e51b815260206004820152602660248201527f4f776e61626c653a206e6577206f776e657220697320746865207a65726f206160448201526564647265737360d01b6064820152608401610bfe565b6115508161245e565b6001600160a01b038316611bb85760405162461bcd60e51b8152602060048201526024808201527f45524332303a20617070726f76652066726f6d20746865207a65726f206164646044820152637265737360e01b6064820152608401610bfe565b6001600160a01b038216611c195760405162461bcd60e51b815260206004820152602260248201527f45524332303a20617070726f766520746f20746865207a65726f206164647265604482015261737360f01b6064820152608401610bfe565b6001600160a01b0383811660008181526034602090815260408083209487168084529482529182902085905590518481527f8c5be1e5ebec7d5bd14f71427d1e84f3dd0314c0f7b2291e5b200ac8c7c3b925910160405180910390a3505050565b6065546001600160a01b031633146112085760405162461bcd60e51b815260206004820181905260248201527f4f776e61626c653a2063616c6c6572206973206e6f7420746865206f776e65726044820152606401610bfe565b60a3544211611cdf57565b600060a35442611cef9190612df7565b609a54609c546098546040516370a0823160e01b81523060048201529394506000936001600160a01b039384169363d4a99bbb939216906370a082319060240160206040518083038186803b158015611d4757600080fd5b505afa158015611d5b573d6000803e3d6000fd5b505050506040513d601f19601f82011682018060405250810190611d7f9190612c9f565b6040516001600160e01b031960e085901b1681526004810192909252602482015260440160206040518083038186803b158015611dbb57600080fd5b505afa158015611dcf573d6000803e3d6000fd5b505050506040513d601f19601f82011682018060405250810190611df39190612c9f565b90506000670de0b6b3a764000083609c5484611e0f9190612dd8565b611e199190612dd8565b611e239190612dc4565b905080609c54611e339190612dac565b609c5550504260a35550565b6000611e4a82610adf565b609854609754919250611e6a916001600160a01b03918216911683612890565b609754609854604051630ed2fc9560e01b81526001600160a01b039182166004820152600060248201526044810184905260648101859052911690630ed2fc9590608401602060405180830381600087803b158015611ec857600080fd5b505af1158015611edc573d6000803e3d6000fd5b505050506040513d601f19601f82011682018060405250810190611f009190612c9f565b50919050565b604080516000808252602082019092526001600160a01b038416908390604051611f309190612cb7565b60006040518083038185875af1925050503d8060008114611f6d576040519150601f19603f3d011682016040523d82523d6000602084013e611f72565b606091505b5050905080611fb85760405162461bcd60e51b815260206004820152601260248201527121736166655472616e7366657245564d4f5360701b6044820152606401610bfe565b505050565b6000611fc98484611a59565b9050600019811461203157818110156120245760405162461bcd60e51b815260206004820152601d60248201527f45524332303a20696e73756666696369656e7420616c6c6f77616e63650000006044820152606401610bfe565b6120318484848403611b56565b50505050565b6001600160a01b03831661209b5760405162461bcd60e51b815260206004820152602560248201527f45524332303a207472616e736665722066726f6d20746865207a65726f206164604482015264647265737360d81b6064820152608401610bfe565b6001600160a01b0382166120fd5760405162461bcd60e51b815260206004820152602360248201527f45524332303a207472616e7366657220746f20746865207a65726f206164647260448201526265737360e81b6064820152608401610bfe565b6001600160a01b038316600090815260336020526040902054818110156121755760405162461bcd60e51b815260206004820152602660248201527f45524332303a207472616e7366657220616d6f756e7420657863656564732062604482015265616c616e636560d01b6064820152608401610bfe565b6001600160a01b038085166000908152603360205260408082208585039055918516815290812080548492906121ac908490612dac565b92505081905550826001600160a01b0316846001600160a01b03167fddf252ad1be2c89b69c2b068fc378daa952ba7f163c4a11628f55a4df523b3ef846040516121f891815260200190565b60405180910390a3612031565b6001600160a01b0382166122655760405162461bcd60e51b815260206004820152602160248201527f45524332303a206275726e2066726f6d20746865207a65726f206164647265736044820152607360f81b6064820152608401610bfe565b6001600160a01b038216600090815260336020526040902054818110156122d95760405162461bcd60e51b815260206004820152602260248201527f45524332303a206275726e20616d6f756e7420657863656564732062616c616e604482015261636560f01b6064820152608401610bfe565b6001600160a01b0383166000908152603360205260408120838303905560358054849290612308908490612df7565b90915550506040518281526000906001600160a01b038516907fddf252ad1be2c89b69c2b068fc378daa952ba7f163c4a11628f55a4df523b3ef9060200160405180910390a3505050565b604080516001600160a01b038481166024830152604480830185905283518084039091018152606490920183526020820180516001600160e01b031663a9059cbb60e01b17905291516000928392908716916123af9190612cb7565b6000604051808303816000865af19150503d80600081146123ec576040519150601f19603f3d011682016040523d82523d6000602084013e6123f1565b606091505b509150915081801561241b57508051158061241b57508080602001905181019061241b9190612baf565b6124575760405162461bcd60e51b815260206004820152600d60248201526c10b9b0b332aa3930b739b332b960991b6044820152606401610bfe565b5050505050565b606580546001600160a01b038381166001600160a01b0319831681179093556040519116919082907f8be0079c531659141344cd1fd0a4f28419497f9722a3daafe3b4186f6b6457e090600090a35050565b600080856001600160a01b03166323b872dd8686866040516024016124d793929190612cd3565b6040516020818303038152906040529060e01b6020820180516001600160e01b0383818316178352505050506040516125109190612cb7565b6000604051808303816000865af19150503d806000811461254d576040519150601f19603f3d011682016040523d82523d6000602084013e612552565b606091505b509150915081801561257c57508051158061257c57508080602001905181019061257c9190612baf565b6125bc5760405162461bcd60e51b815260206004820152601160248201527021736166655472616e7366657246726f6d60781b6044820152606401610bfe565b505050505050565b6125cc611cd4565b6001600160a01b0382166000908152609b60205260409020548111156126345760405162461bcd60e51b815260206004820181905260248201527f72657061793a20746f6f206d75636820616d6f756e7420746f2072657061792e6044820152606401610bfe565b6001600160a01b0382166000908152609b6020526040812080548390039055609c8054839290612665908490612df7565b9091555050604080516001600160a01b0384168152602081018390527f5c16de4f8b59bd9caf0f49a545f25819a895ed223294290b408242e72a594231910160405180910390a1611256611553565b609754609854604051630ed2fc9560e01b81526000600482018190526001600160a01b0392831660248301526044820186905260648201859052929190911690630ed2fc959085906084016020604051808303818588803b15801561271857600080fd5b505af115801561272c573d6000803e3d6000fd5b50505050506040513d601f19601f82011682018060405250810190610fc69190612c9f565b6001600160a01b0382166127a75760405162461bcd60e51b815260206004820152601f60248201527f45524332303a206d696e7420746f20746865207a65726f2061646472657373006044820152606401610bfe565b80603560008282546127b99190612dac565b90915550506001600160a01b038216600090815260336020526040812080548392906127e6908490612dac565b90915550506040518181526001600160a01b038316906000907fddf252ad1be2c89b69c2b068fc378daa952ba7f163c4a11628f55a4df523b3ef9060200160405180910390a35050565b600054610100900460ff166128575760405162461bcd60e51b8152600401610bfe90612d61565b6112568282612993565b600054610100900460ff166128885760405162461bcd60e51b8152600401610bfe90612d61565b6112086129e1565b604080516001600160a01b038481166024830152604480830185905283518084039091018152606490920183526020820180516001600160e01b031663095ea7b360e01b17905291516000928392908716916128ec9190612cb7565b6000604051808303816000865af19150503d8060008114612929576040519150601f19603f3d011682016040523d82523d6000602084013e61292e565b606091505b50915091508180156129585750805115806129585750808060200190518101906129589190612baf565b6124575760405162461bcd60e51b815260206004820152600c60248201526b2173616665417070726f766560a01b6044820152606401610bfe565b600054610100900460ff166129ba5760405162461bcd60e51b8152600401610bfe90612d61565b81516129cd906036906020850190612a11565b508051611fb8906037906020840190612a11565b600054610100900460ff16612a085760405162461bcd60e51b8152600401610bfe90612d61565b6112083361245e565b828054612a1d90612e3a565b90600052602060002090601f016020900481019282612a3f5760008555612a85565b82601f10612a5857805160ff1916838001178555612a85565b82800160010185558215612a85579182015b82811115612a85578251825591602001919060010190612a6a565b50610f659291505b80821115610f655760008155600101612a8d565b80356001600160a01b038116811461106b57600080fd5b60008083601f840112612ac9578182fd5b50813567ffffffffffffffff811115612ae0578182fd5b602083019150836020828501011115612af857600080fd5b9250929050565b600060208284031215612b10578081fd5b610fc682612aa1565b60008060408385031215612b2b578081fd5b612b3483612aa1565b9150612b4260208401612aa1565b90509250929050565b600080600060608486031215612b5f578081fd5b612b6884612aa1565b9250612b7660208501612aa1565b9150604084013590509250925092565b60008060408385031215612b98578182fd5b612ba183612aa1565b946020939093013593505050565b600060208284031215612bc0578081fd5b81518015158114610fc6578182fd5b600080600080600080600080600060e08a8c031215612bec578485fd5b893567ffffffffffffffff80821115612c03578687fd5b612c0f8d838e01612ab8565b909b50995060208c0135915080821115612c27578687fd5b50612c348c828d01612ab8565b9098509650612c47905060408b01612aa1565b9450612c5560608b01612aa1565b9350612c6360808b01612aa1565b9250612c7160a08b01612aa1565b915060c08a013590509295985092959850929598565b600060208284031215612c98578081fd5b5035919050565b600060208284031215612cb0578081fd5b5051919050565b60008251612cc9818460208701612e0e565b9190910192915050565b6001600160a01b039384168152919092166020820152604081019190915260600190565b6020815260008251806020840152612d16816040850160208701612e0e565b601f01601f19169190910160400192915050565b6020808252601d908201527f5661756c743a204e6f7420537461796b696e6720636f6e74726163742e000000604082015260600190565b6020808252602b908201527f496e697469616c697a61626c653a20636f6e7472616374206973206e6f74206960408201526a6e697469616c697a696e6760a81b606082015260800190565b60008219821115612dbf57612dbf612e83565b500190565b600082612dd357612dd3612e99565b500490565b6000816000190483118215151615612df257612df2612e83565b500290565b600082821015612e0957612e09612e83565b500390565b60005b83811015612e29578181015183820152602001612e11565b838111156120315750506000910152565b600181811c90821680612e4e57607f821691505b60208210811415611f0057634e487b7160e01b600052602260045260246000fd5b600082612e7e57612e7e612e99565b500690565b634e487b7160e01b600052601160045260246000fd5b634e487b7160e01b600052601260045260246000fdfea26469706673582212204c4d6ae187f357904ee205a79ed4eb34dbeeb395eb3898f300cabe041e707e6364736f6c63430008040033",
  "devdoc": {
    "kind": "dev",
    "methods": {
      "allowance(address,address)": {
        "details": "See {IERC20-allowance}."
      },
      "approve(address,uint256)": {
        "details": "See {IERC20-approve}. NOTE: If `amount` is the maximum `uint256`, the allowance is not updated on `transferFrom`. This is semantically equivalent to an infinite approval. Requirements: - `spender` cannot be the zero address."
      },
      "balanceOf(address)": {
        "details": "See {IERC20-balanceOf}."
      },
      "decimals()": {
        "details": "Returns the number of decimals used to get its user representation. For example, if `decimals` equals `2`, a balance of `505` tokens should be displayed to a user as `5.05` (`505 / 10 ** 2`). Tokens usually opt for a value of 18, imitating the relationship between Ether and Wei. This is the value {ERC20} uses, unless this function is overridden; NOTE: This information is only used for _display_ purposes: it in no way affects any of the arithmetic of the contract, including {IERC20-balanceOf} and {IERC20-transfer}."
      },
      "decreaseAllowance(address,uint256)": {
        "details": "Atomically decreases the allowance granted to `spender` by the caller. This is an alternative to {approve} that can be used as a mitigation for problems described in {IERC20-approve}. Emits an {Approval} event indicating the updated allowance. Requirements: - `spender` cannot be the zero address. - `spender` must have allowance for the caller of at least `subtractedValue`."
      },
      "getBaseIn(uint256)": {
        "details": "calc (?)EVMOS = $ token"
      },
      "getBaseOut(uint256)": {
        "details": "calc $ EVMOS = (?)token"
      },
      "getInterestInBase()": {
        "details": "calculate interest (1 day) in base (EVMOS)"
      },
      "getInterestRate()": {
        "details": "denominator = 1E18 "
      },
      "getTokenIn(uint256)": {
        "details": "calc (?)token = $ EVMOS"
      },
      "getTokenOut(uint256)": {
        "details": "calc $ token = (?)EVMOS"
      },
      "increaseAllowance(address,uint256)": {
        "details": "Atomically increases the allowance granted to `spender` by the caller. This is an alternative to {approve} that can be used as a mitigation for problems described in {IERC20-approve}. Emits an {Approval} event indicating the updated allowance. Requirements: - `spender` cannot be the zero address."
      },
      "name()": {
        "details": "Returns the name of the token."
      },
      "owner()": {
        "details": "Returns the address of the current owner."
      },
      "pendRepay(address,uint256)": {
        "details": "pending repay debt because of EVMOS Unstaking's 14 days lock. Stayking should approve token first."
      },
      "renounceOwnership()": {
        "details": "Leaves the contract without owner. It will not be possible to call `onlyOwner` functions anymore. Can only be called by the current owner. NOTE: Renouncing ownership will leave the contract without an owner, thereby removing any functionality that is only available to the owner."
      },
      "repayInBase(address,uint256)": {
        "details": "repay debt for Base token(EVMOS).",
        "params": {
          "minRepaid": "minimum repaid debtToken amonut",
          "user": "debt owner"
        }
      },
      "repayPendingDebt(address,uint256)": {
        "details": "stayking should send with msg.value(= repayingDebt)"
      },
      "symbol()": {
        "details": "Returns the symbol of the token, usually a shorter version of the name."
      },
      "totalSupply()": {
        "details": "See {IERC20-totalSupply}."
      },
      "transfer(address,uint256)": {
        "details": "See {IERC20-transfer}. Requirements: - `to` cannot be the zero address. - the caller must have a balance of at least `amount`."
      },
      "transferFrom(address,address,uint256)": {
        "details": "See {IERC20-transferFrom}. Emits an {Approval} event indicating the updated allowance. This is not required by the EIP. See the note at the beginning of {ERC20}. NOTE: Does not update the allowance if the current allowance is the maximum `uint256`. Requirements: - `from` and `to` cannot be the zero address. - `from` must have a balance of at least `amount`. - the caller must have allowance for ``from``'s tokens of at least `amount`."
      },
      "transferOwnership(address)": {
        "details": "Transfers ownership of the contract to a new account (`newOwner`). Can only be called by the current owner."
      }
    },
    "stateVariables": {
      "debtAmountOf": {
        "details": "totalAmount == Token.balanceOf(this) + totalDebtAmount totalShare == totalSupply()"
      }
    },
    "version": 1
  },
  "userdoc": {
    "kind": "user",
    "methods": {
      "deposit(uint256)": {
        "notice": "user approve should be preceded"
      },
      "loan(address,uint256)": {
        "notice": "loan is only for Stayking contract."
      }
    },
    "version": 1
  },
  "storageLayout": {
    "storage": [
      {
        "astId": 2413,
        "contract": "contracts/token/Vault.sol:Vault",
        "label": "_initialized",
        "offset": 0,
        "slot": "0",
        "type": "t_uint8"
      },
      {
        "astId": 2416,
        "contract": "contracts/token/Vault.sol:Vault",
        "label": "_initializing",
        "offset": 1,
        "slot": "0",
        "type": "t_bool"
      },
      {
        "astId": 1178,
        "contract": "contracts/token/Vault.sol:Vault",
        "label": "__gap",
        "offset": 0,
        "slot": "1",
        "type": "t_array(t_uint256)50_storage"
      },
      {
        "astId": 1814,
        "contract": "contracts/token/Vault.sol:Vault",
        "label": "_balances",
        "offset": 0,
        "slot": "51",
        "type": "t_mapping(t_address,t_uint256)"
      },
      {
        "astId": 1820,
        "contract": "contracts/token/Vault.sol:Vault",
        "label": "_allowances",
        "offset": 0,
        "slot": "52",
        "type": "t_mapping(t_address,t_mapping(t_address,t_uint256))"
      },
      {
        "astId": 1822,
        "contract": "contracts/token/Vault.sol:Vault",
        "label": "_totalSupply",
        "offset": 0,
        "slot": "53",
        "type": "t_uint256"
      },
      {
        "astId": 1824,
        "contract": "contracts/token/Vault.sol:Vault",
        "label": "_name",
        "offset": 0,
        "slot": "54",
        "type": "t_string_storage"
      },
      {
        "astId": 1826,
        "contract": "contracts/token/Vault.sol:Vault",
        "label": "_symbol",
        "offset": 0,
        "slot": "55",
        "type": "t_string_storage"
      },
      {
        "astId": 2405,
        "contract": "contracts/token/Vault.sol:Vault",
        "label": "__gap",
        "offset": 0,
        "slot": "56",
        "type": "t_array(t_uint256)45_storage"
      },
      {
        "astId": 2681,
        "contract": "contracts/token/Vault.sol:Vault",
        "label": "_owner",
        "offset": 0,
        "slot": "101",
        "type": "t_address"
      },
      {
        "astId": 2801,
        "contract": "contracts/token/Vault.sol:Vault",
        "label": "__gap",
        "offset": 0,
        "slot": "102",
        "type": "t_array(t_uint256)49_storage"
      },
      {
        "astId": 6965,
        "contract": "contracts/token/Vault.sol:Vault",
        "label": "swapHelper",
        "offset": 0,
        "slot": "151",
        "type": "t_contract(ISwapHelper)581"
      },
      {
        "astId": 6968,
        "contract": "contracts/token/Vault.sol:Vault",
        "label": "token",
        "offset": 0,
        "slot": "152",
        "type": "t_address"
      },
      {
        "astId": 6971,
        "contract": "contracts/token/Vault.sol:Vault",
        "label": "stayking",
        "offset": 0,
        "slot": "153",
        "type": "t_address"
      },
      {
        "astId": 6974,
        "contract": "contracts/token/Vault.sol:Vault",
        "label": "interestModel",
        "offset": 0,
        "slot": "154",
        "type": "t_address"
      },
      {
        "astId": 6980,
        "contract": "contracts/token/Vault.sol:Vault",
        "label": "debtAmountOf",
        "offset": 0,
        "slot": "155",
        "type": "t_mapping(t_address,t_uint256)"
      },
      {
        "astId": 6983,
        "contract": "contracts/token/Vault.sol:Vault",
        "label": "totalDebtAmount",
        "offset": 0,
        "slot": "156",
        "type": "t_uint256"
      },
      {
        "astId": 6987,
        "contract": "contracts/token/Vault.sol:Vault",
        "label": "pendingDebtShareOf",
        "offset": 0,
        "slot": "157",
        "type": "t_mapping(t_address,t_uint256)"
      },
      {
        "astId": 6989,
        "contract": "contracts/token/Vault.sol:Vault",
        "label": "totalPendingDebtShare",
        "offset": 0,
        "slot": "158",
        "type": "t_uint256"
      },
      {
        "astId": 6991,
        "contract": "contracts/token/Vault.sol:Vault",
        "label": "totalPendingDebtAmount",
        "offset": 0,
        "slot": "159",
        "type": "t_uint256"
      },
      {
        "astId": 6993,
        "contract": "contracts/token/Vault.sol:Vault",
        "label": "minReservedBps",
        "offset": 0,
        "slot": "160",
        "type": "t_uint256"
      },
      {
        "astId": 6995,
        "contract": "contracts/token/Vault.sol:Vault",
        "label": "yesterdayUtilRate",
        "offset": 0,
        "slot": "161",
        "type": "t_uint256"
      },
      {
        "astId": 6997,
        "contract": "contracts/token/Vault.sol:Vault",
        "label": "lastSavedUtilizationRateTime",
        "offset": 0,
        "slot": "162",
        "type": "t_uint256"
      },
      {
        "astId": 6999,
        "contract": "contracts/token/Vault.sol:Vault",
        "label": "lastAccruedAt",
        "offset": 0,
        "slot": "163",
        "type": "t_uint256"
      },
      {
        "astId": 7002,
        "contract": "contracts/token/Vault.sol:Vault",
        "label": "accInterest",
        "offset": 0,
        "slot": "164",
        "type": "t_uint256"
      }
    ],
    "types": {
      "t_address": {
        "encoding": "inplace",
        "label": "address",
        "numberOfBytes": "20"
      },
      "t_array(t_uint256)45_storage": {
        "base": "t_uint256",
        "encoding": "inplace",
        "label": "uint256[45]",
        "numberOfBytes": "1440"
      },
      "t_array(t_uint256)49_storage": {
        "base": "t_uint256",
        "encoding": "inplace",
        "label": "uint256[49]",
        "numberOfBytes": "1568"
      },
      "t_array(t_uint256)50_storage": {
        "base": "t_uint256",
        "encoding": "inplace",
        "label": "uint256[50]",
        "numberOfBytes": "1600"
      },
      "t_bool": {
        "encoding": "inplace",
        "label": "bool",
        "numberOfBytes": "1"
      },
      "t_contract(ISwapHelper)581": {
        "encoding": "inplace",
        "label": "contract ISwapHelper",
        "numberOfBytes": "20"
      },
      "t_mapping(t_address,t_mapping(t_address,t_uint256))": {
        "encoding": "mapping",
        "key": "t_address",
        "label": "mapping(address => mapping(address => uint256))",
        "numberOfBytes": "32",
        "value": "t_mapping(t_address,t_uint256)"
      },
      "t_mapping(t_address,t_uint256)": {
        "encoding": "mapping",
        "key": "t_address",
        "label": "mapping(address => uint256)",
        "numberOfBytes": "32",
        "value": "t_uint256"
      },
      "t_string_storage": {
        "encoding": "bytes",
        "label": "string",
        "numberOfBytes": "32"
      },
      "t_uint256": {
        "encoding": "inplace",
        "label": "uint256",
        "numberOfBytes": "32"
      },
      "t_uint8": {
        "encoding": "inplace",
        "label": "uint8",
        "numberOfBytes": "1"
      }
    }
  }
}