{
  "address": "0x52456adf45e7F08ba7181698F9e3A8871a4Cd51B",
  "abi": [
    {
      "anonymous": false,
      "inputs": [
        {
          "indexed": true,
          "internalType": "address",
          "name": "owner",
          "type": "address"
        },
        {
          "indexed": true,
          "internalType": "address",
          "name": "spender",
          "type": "address"
        },
        {
          "indexed": false,
          "internalType": "uint256",
          "name": "value",
          "type": "uint256"
        }
      ],
      "name": "Approval",
      "type": "event"
    },
    {
      "anonymous": false,
      "inputs": [
        {
          "indexed": false,
          "internalType": "address",
          "name": "user",
          "type": "address"
        },
        {
          "indexed": false,
          "internalType": "uint256",
          "name": "amount",
          "type": "uint256"
        },
        {
          "indexed": false,
          "internalType": "uint256",
          "name": "share",
          "type": "uint256"
        }
      ],
      "name": "Deposit",
      "type": "event"
    },
    {
      "anonymous": false,
      "inputs": [
        {
          "indexed": false,
          "internalType": "uint8",
          "name": "version",
          "type": "uint8"
        }
      ],
      "name": "Initialized",
      "type": "event"
    },
    {
      "anonymous": false,
      "inputs": [
        {
          "indexed": false,
          "internalType": "address",
          "name": "user",
          "type": "address"
        },
        {
          "indexed": false,
          "internalType": "uint256",
          "name": "debtAmount",
          "type": "uint256"
        }
      ],
      "name": "Loan",
      "type": "event"
    },
    {
      "anonymous": false,
      "inputs": [
        {
          "indexed": true,
          "internalType": "address",
          "name": "previousOwner",
          "type": "address"
        },
        {
          "indexed": true,
          "internalType": "address",
          "name": "newOwner",
          "type": "address"
        }
      ],
      "name": "OwnershipTransferred",
      "type": "event"
    },
    {
      "anonymous": false,
      "inputs": [
        {
          "indexed": false,
          "internalType": "uint256",
          "name": "paidInterest",
          "type": "uint256"
        },
        {
          "indexed": false,
          "internalType": "uint256",
          "name": "reward",
          "type": "uint256"
        }
      ],
      "name": "PayInterest",
      "type": "event"
    },
    {
      "anonymous": false,
      "inputs": [
        {
          "indexed": false,
          "internalType": "address",
          "name": "user",
          "type": "address"
        },
        {
          "indexed": false,
          "internalType": "uint256",
          "name": "debtAmount",
          "type": "uint256"
        }
      ],
      "name": "Repay",
      "type": "event"
    },
    {
      "anonymous": false,
      "inputs": [
        {
          "indexed": true,
          "internalType": "address",
          "name": "from",
          "type": "address"
        },
        {
          "indexed": true,
          "internalType": "address",
          "name": "to",
          "type": "address"
        },
        {
          "indexed": false,
          "internalType": "uint256",
          "name": "value",
          "type": "uint256"
        }
      ],
      "name": "Transfer",
      "type": "event"
    },
    {
      "anonymous": false,
      "inputs": [
        {
          "indexed": false,
          "internalType": "address",
          "name": "from",
          "type": "address"
        },
        {
          "indexed": false,
          "internalType": "address",
          "name": "to",
          "type": "address"
        },
        {
          "indexed": false,
          "internalType": "uint256",
          "name": "amount",
          "type": "uint256"
        }
      ],
      "name": "TransferDebtOwnership",
      "type": "event"
    },
    {
      "anonymous": false,
      "inputs": [
        {
          "indexed": false,
          "internalType": "uint256",
          "name": "rateBps",
          "type": "uint256"
        }
      ],
      "name": "UtilizationRate",
      "type": "event"
    },
    {
      "anonymous": false,
      "inputs": [
        {
          "indexed": false,
          "internalType": "address",
          "name": "user",
          "type": "address"
        },
        {
          "indexed": false,
          "internalType": "uint256",
          "name": "amount",
          "type": "uint256"
        },
        {
          "indexed": false,
          "internalType": "uint256",
          "name": "share",
          "type": "uint256"
        }
      ],
      "name": "Withdraw",
      "type": "event"
    },
    {
      "stateMutability": "payable",
      "type": "fallback"
    },
    {
      "inputs": [
        {
          "internalType": "string",
          "name": "_name",
          "type": "string"
        },
        {
          "internalType": "string",
          "name": "_symbol",
          "type": "string"
        },
        {
          "internalType": "address",
          "name": "_swapHelper",
          "type": "address"
        },
        {
          "internalType": "address",
          "name": "_stayking",
          "type": "address"
        },
        {
          "internalType": "address",
          "name": "_token",
          "type": "address"
        },
        {
          "internalType": "address",
          "name": "_interestModel",
          "type": "address"
        },
        {
          "internalType": "uint256",
          "name": "_minReservedBps",
          "type": "uint256"
        }
      ],
      "name": "__Vault_init",
      "outputs": [],
      "stateMutability": "nonpayable",
      "type": "function"
    },
    {
      "inputs": [],
      "name": "accInterest",
      "outputs": [
        {
          "internalType": "uint256",
          "name": "",
          "type": "uint256"
        }
      ],
      "stateMutability": "view",
      "type": "function"
    },
    {
      "inputs": [],
      "name": "accrue",
      "outputs": [],
      "stateMutability": "nonpayable",
      "type": "function"
    },
    {
      "inputs": [
        {
          "internalType": "address",
          "name": "owner",
          "type": "address"
        },
        {
          "internalType": "address",
          "name": "spender",
          "type": "address"
        }
      ],
      "name": "allowance",
      "outputs": [
        {
          "internalType": "uint256",
          "name": "",
          "type": "uint256"
        }
      ],
      "stateMutability": "view",
      "type": "function"
    },
    {
      "inputs": [
        {
          "internalType": "uint256",
          "name": "amount",
          "type": "uint256"
        }
      ],
      "name": "amountToShare",
      "outputs": [
        {
          "internalType": "uint256",
          "name": "",
          "type": "uint256"
        }
      ],
      "stateMutability": "view",
      "type": "function"
    },
    {
      "inputs": [
        {
          "internalType": "address",
          "name": "spender",
          "type": "address"
        },
        {
          "internalType": "uint256",
          "name": "amount",
          "type": "uint256"
        }
      ],
      "name": "approve",
      "outputs": [
        {
          "internalType": "bool",
          "name": "",
          "type": "bool"
        }
      ],
      "stateMutability": "nonpayable",
      "type": "function"
    },
    {
      "inputs": [
        {
          "internalType": "address",
          "name": "account",
          "type": "address"
        }
      ],
      "name": "balanceOf",
      "outputs": [
        {
          "internalType": "uint256",
          "name": "",
          "type": "uint256"
        }
      ],
      "stateMutability": "view",
      "type": "function"
    },
    {
      "inputs": [
        {
          "internalType": "address",
          "name": "user",
          "type": "address"
        }
      ],
      "name": "debtAmountInBase",
      "outputs": [
        {
          "internalType": "uint256",
          "name": "",
          "type": "uint256"
        }
      ],
      "stateMutability": "view",
      "type": "function"
    },
    {
      "inputs": [
        {
          "internalType": "address",
          "name": "",
          "type": "address"
        }
      ],
      "name": "debtAmountOf",
      "outputs": [
        {
          "internalType": "uint256",
          "name": "",
          "type": "uint256"
        }
      ],
      "stateMutability": "view",
      "type": "function"
    },
    {
      "inputs": [],
      "name": "decimals",
      "outputs": [
        {
          "internalType": "uint8",
          "name": "",
          "type": "uint8"
        }
      ],
      "stateMutability": "view",
      "type": "function"
    },
    {
      "inputs": [
        {
          "internalType": "address",
          "name": "spender",
          "type": "address"
        },
        {
          "internalType": "uint256",
          "name": "subtractedValue",
          "type": "uint256"
        }
      ],
      "name": "decreaseAllowance",
      "outputs": [
        {
          "internalType": "bool",
          "name": "",
          "type": "bool"
        }
      ],
      "stateMutability": "nonpayable",
      "type": "function"
    },
    {
      "inputs": [
        {
          "internalType": "uint256",
          "name": "amount",
          "type": "uint256"
        }
      ],
      "name": "deposit",
      "outputs": [
        {
          "internalType": "uint256",
          "name": "share",
          "type": "uint256"
        }
      ],
      "stateMutability": "nonpayable",
      "type": "function"
    },
    {
      "inputs": [
        {
          "internalType": "uint256",
          "name": "tokenOut",
          "type": "uint256"
        }
      ],
      "name": "getBaseIn",
      "outputs": [
        {
          "internalType": "uint256",
          "name": "baseIn",
          "type": "uint256"
        }
      ],
      "stateMutability": "view",
      "type": "function"
    },
    {
      "inputs": [
        {
          "internalType": "uint256",
          "name": "baseIn",
          "type": "uint256"
        }
      ],
      "name": "getBaseOut",
      "outputs": [
        {
          "internalType": "uint256",
          "name": "tokenOut",
          "type": "uint256"
        }
      ],
      "stateMutability": "view",
      "type": "function"
    },
    {
      "inputs": [],
      "name": "getInterestInBase",
      "outputs": [
        {
          "internalType": "uint256",
          "name": "",
          "type": "uint256"
        }
      ],
      "stateMutability": "view",
      "type": "function"
    },
    {
      "inputs": [],
      "name": "getInterestRate",
      "outputs": [
        {
          "internalType": "uint256",
          "name": "interestRate",
          "type": "uint256"
        }
      ],
      "stateMutability": "view",
      "type": "function"
    },
    {
      "inputs": [
        {
          "internalType": "address",
          "name": "user",
          "type": "address"
        }
      ],
      "name": "getPendingDebt",
      "outputs": [
        {
          "internalType": "uint256",
          "name": "",
          "type": "uint256"
        }
      ],
      "stateMutability": "view",
      "type": "function"
    },
    {
      "inputs": [
        {
          "internalType": "address",
          "name": "user",
          "type": "address"
        }
      ],
      "name": "getPendingDebtInBase",
      "outputs": [
        {
          "internalType": "uint256",
          "name": "",
          "type": "uint256"
        }
      ],
      "stateMutability": "view",
      "type": "function"
    },
    {
      "inputs": [
        {
          "internalType": "uint256",
          "name": "baseOut",
          "type": "uint256"
        }
      ],
      "name": "getTokenIn",
      "outputs": [
        {
          "internalType": "uint256",
          "name": "tokenIn",
          "type": "uint256"
        }
      ],
      "stateMutability": "view",
      "type": "function"
    },
    {
      "inputs": [
        {
          "internalType": "uint256",
          "name": "tokenIn",
          "type": "uint256"
        }
      ],
      "name": "getTokenOut",
      "outputs": [
        {
          "internalType": "uint256",
          "name": "baseOut",
          "type": "uint256"
        }
      ],
      "stateMutability": "view",
      "type": "function"
    },
    {
      "inputs": [
        {
          "internalType": "address",
          "name": "spender",
          "type": "address"
        },
        {
          "internalType": "uint256",
          "name": "addedValue",
          "type": "uint256"
        }
      ],
      "name": "increaseAllowance",
      "outputs": [
        {
          "internalType": "bool",
          "name": "",
          "type": "bool"
        }
      ],
      "stateMutability": "nonpayable",
      "type": "function"
    },
    {
      "inputs": [],
      "name": "interestModel",
      "outputs": [
        {
          "internalType": "address",
          "name": "",
          "type": "address"
        }
      ],
      "stateMutability": "view",
      "type": "function"
    },
    {
      "inputs": [],
      "name": "lastAccruedAt",
      "outputs": [
        {
          "internalType": "uint256",
          "name": "",
          "type": "uint256"
        }
      ],
      "stateMutability": "view",
      "type": "function"
    },
    {
      "inputs": [],
      "name": "lastAnnualRateBps",
      "outputs": [
        {
          "internalType": "uint256",
          "name": "",
          "type": "uint256"
        }
      ],
      "stateMutability": "view",
      "type": "function"
    },
    {
      "inputs": [],
      "name": "lastPaid",
      "outputs": [
        {
          "internalType": "uint256",
          "name": "totalDebtAmount",
          "type": "uint256"
        },
        {
          "internalType": "uint256",
          "name": "totalAmount",
          "type": "uint256"
        },
        {
          "internalType": "uint256",
          "name": "reward",
          "type": "uint256"
        },
        {
          "internalType": "uint128",
          "name": "timestamp",
          "type": "uint128"
        },
        {
          "internalType": "uint128",
          "name": "interval",
          "type": "uint128"
        }
      ],
      "stateMutability": "view",
      "type": "function"
    },
    {
      "inputs": [
        {
          "internalType": "address",
          "name": "user",
          "type": "address"
        },
        {
          "internalType": "uint256",
          "name": "debtInBase",
          "type": "uint256"
        }
      ],
      "name": "loan",
      "outputs": [
        {
          "internalType": "uint256",
          "name": "debt",
          "type": "uint256"
        }
      ],
      "stateMutability": "nonpayable",
      "type": "function"
    },
    {
      "inputs": [],
      "name": "minReservedBps",
      "outputs": [
        {
          "internalType": "uint256",
          "name": "",
          "type": "uint256"
        }
      ],
      "stateMutability": "view",
      "type": "function"
    },
    {
      "inputs": [],
      "name": "name",
      "outputs": [
        {
          "internalType": "string",
          "name": "",
          "type": "string"
        }
      ],
      "stateMutability": "view",
      "type": "function"
    },
    {
      "inputs": [],
      "name": "owner",
      "outputs": [
        {
          "internalType": "address",
          "name": "",
          "type": "address"
        }
      ],
      "stateMutability": "view",
      "type": "function"
    },
    {
      "inputs": [
        {
          "internalType": "uint256",
          "name": "minPaidInterest",
          "type": "uint256"
        }
      ],
      "name": "payInterest",
      "outputs": [],
      "stateMutability": "payable",
      "type": "function"
    },
    {
      "inputs": [
        {
          "internalType": "address",
          "name": "user",
          "type": "address"
        },
        {
          "internalType": "uint256",
          "name": "amount",
          "type": "uint256"
        }
      ],
      "name": "pendRepay",
      "outputs": [
        {
          "internalType": "uint256",
          "name": "pendingDebtShare",
          "type": "uint256"
        }
      ],
      "stateMutability": "nonpayable",
      "type": "function"
    },
    {
      "inputs": [
        {
          "internalType": "uint256",
          "name": "amount",
          "type": "uint256"
        }
      ],
      "name": "pendingDebtAmountToShare",
      "outputs": [
        {
          "internalType": "uint256",
          "name": "",
          "type": "uint256"
        }
      ],
      "stateMutability": "view",
      "type": "function"
    },
    {
      "inputs": [
        {
          "internalType": "address",
          "name": "",
          "type": "address"
        }
      ],
      "name": "pendingDebtShareOf",
      "outputs": [
        {
          "internalType": "uint256",
          "name": "",
          "type": "uint256"
        }
      ],
      "stateMutability": "view",
      "type": "function"
    },
    {
      "inputs": [
        {
          "internalType": "uint256",
          "name": "share",
          "type": "uint256"
        }
      ],
      "name": "pendingDebtShareToAmount",
      "outputs": [
        {
          "internalType": "uint256",
          "name": "",
          "type": "uint256"
        }
      ],
      "stateMutability": "view",
      "type": "function"
    },
    {
      "inputs": [],
      "name": "renounceOwnership",
      "outputs": [],
      "stateMutability": "nonpayable",
      "type": "function"
    },
    {
      "inputs": [
        {
          "internalType": "address",
          "name": "user",
          "type": "address"
        },
        {
          "internalType": "uint256",
          "name": "minRepaid",
          "type": "uint256"
        }
      ],
      "name": "repayInBase",
      "outputs": [
        {
          "internalType": "uint256",
          "name": "repaid",
          "type": "uint256"
        }
      ],
      "stateMutability": "payable",
      "type": "function"
    },
    {
      "inputs": [
        {
          "internalType": "address",
          "name": "user",
          "type": "address"
        },
        {
          "internalType": "uint256",
          "name": "amount",
          "type": "uint256"
        }
      ],
      "name": "repayInToken",
      "outputs": [],
      "stateMutability": "nonpayable",
      "type": "function"
    },
    {
      "inputs": [
        {
          "internalType": "address",
          "name": "user",
          "type": "address"
        }
      ],
      "name": "repayPendingDebt",
      "outputs": [
        {
          "internalType": "uint256",
          "name": "remained",
          "type": "uint256"
        }
      ],
      "stateMutability": "payable",
      "type": "function"
    },
    {
      "inputs": [
        {
          "internalType": "uint256",
          "name": "share",
          "type": "uint256"
        }
      ],
      "name": "shareToAmount",
      "outputs": [
        {
          "internalType": "uint256",
          "name": "",
          "type": "uint256"
        }
      ],
      "stateMutability": "view",
      "type": "function"
    },
    {
      "inputs": [],
      "name": "stayking",
      "outputs": [
        {
          "internalType": "address",
          "name": "",
          "type": "address"
        }
      ],
      "stateMutability": "view",
      "type": "function"
    },
    {
      "inputs": [],
      "name": "swapHelper",
      "outputs": [
        {
          "internalType": "contract ISwapHelper",
          "name": "",
          "type": "address"
        }
      ],
      "stateMutability": "view",
      "type": "function"
    },
    {
      "inputs": [],
      "name": "symbol",
      "outputs": [
        {
          "internalType": "string",
          "name": "",
          "type": "string"
        }
      ],
      "stateMutability": "view",
      "type": "function"
    },
    {
      "inputs": [
        {
          "internalType": "address",
          "name": "from",
          "type": "address"
        },
        {
          "internalType": "uint256",
          "name": "amount",
          "type": "uint256"
        }
      ],
      "name": "takeDebtOwnership",
      "outputs": [],
      "stateMutability": "nonpayable",
      "type": "function"
    },
    {
      "inputs": [],
      "name": "token",
      "outputs": [
        {
          "internalType": "address",
          "name": "",
          "type": "address"
        }
      ],
      "stateMutability": "view",
      "type": "function"
    },
    {
      "inputs": [],
      "name": "totalAmount",
      "outputs": [
        {
          "internalType": "uint256",
          "name": "",
          "type": "uint256"
        }
      ],
      "stateMutability": "view",
      "type": "function"
    },
    {
      "inputs": [],
      "name": "totalDebtAmount",
      "outputs": [
        {
          "internalType": "uint256",
          "name": "",
          "type": "uint256"
        }
      ],
      "stateMutability": "view",
      "type": "function"
    },
    {
      "inputs": [],
      "name": "totalPendingDebtAmount",
      "outputs": [
        {
          "internalType": "uint256",
          "name": "",
          "type": "uint256"
        }
      ],
      "stateMutability": "view",
      "type": "function"
    },
    {
      "inputs": [],
      "name": "totalPendingDebtShare",
      "outputs": [
        {
          "internalType": "uint256",
          "name": "",
          "type": "uint256"
        }
      ],
      "stateMutability": "view",
      "type": "function"
    },
    {
      "inputs": [],
      "name": "totalStakedDebtAmount",
      "outputs": [
        {
          "internalType": "uint256",
          "name": "",
          "type": "uint256"
        }
      ],
      "stateMutability": "view",
      "type": "function"
    },
    {
      "inputs": [],
      "name": "totalSupply",
      "outputs": [
        {
          "internalType": "uint256",
          "name": "",
          "type": "uint256"
        }
      ],
      "stateMutability": "view",
      "type": "function"
    },
    {
      "inputs": [
        {
          "internalType": "address",
          "name": "to",
          "type": "address"
        },
        {
          "internalType": "uint256",
          "name": "amount",
          "type": "uint256"
        }
      ],
      "name": "transfer",
      "outputs": [
        {
          "internalType": "bool",
          "name": "",
          "type": "bool"
        }
      ],
      "stateMutability": "nonpayable",
      "type": "function"
    },
    {
      "inputs": [
        {
          "internalType": "address",
          "name": "from",
          "type": "address"
        },
        {
          "internalType": "address",
          "name": "to",
          "type": "address"
        },
        {
          "internalType": "uint256",
          "name": "amount",
          "type": "uint256"
        }
      ],
      "name": "transferFrom",
      "outputs": [
        {
          "internalType": "bool",
          "name": "",
          "type": "bool"
        }
      ],
      "stateMutability": "nonpayable",
      "type": "function"
    },
    {
      "inputs": [
        {
          "internalType": "address",
          "name": "newOwner",
          "type": "address"
        }
      ],
      "name": "transferOwnership",
      "outputs": [],
      "stateMutability": "nonpayable",
      "type": "function"
    },
    {
      "inputs": [
        {
          "internalType": "address",
          "name": "_interestModel",
          "type": "address"
        }
      ],
      "name": "updateInterestModel",
      "outputs": [],
      "stateMutability": "nonpayable",
      "type": "function"
    },
    {
      "inputs": [
        {
          "internalType": "uint256",
          "name": "_minReservedBps",
          "type": "uint256"
        }
      ],
      "name": "updateMinReservedBps",
      "outputs": [],
      "stateMutability": "nonpayable",
      "type": "function"
    },
    {
      "inputs": [
        {
          "internalType": "address",
          "name": "_swapHelper",
          "type": "address"
        }
      ],
      "name": "updateSwapHelper",
      "outputs": [],
      "stateMutability": "nonpayable",
      "type": "function"
    },
    {
      "inputs": [],
      "name": "utilizationRateBps",
      "outputs": [
        {
          "internalType": "uint256",
          "name": "",
          "type": "uint256"
        }
      ],
      "stateMutability": "view",
      "type": "function"
    },
    {
      "inputs": [
        {
          "internalType": "uint256",
          "name": "share",
          "type": "uint256"
        }
      ],
      "name": "withdraw",
      "outputs": [
        {
          "internalType": "uint256",
          "name": "amount",
          "type": "uint256"
        }
      ],
      "stateMutability": "nonpayable",
      "type": "function"
    },
    {
      "stateMutability": "payable",
      "type": "receive"
    }
  ],
  "transactionHash": "0x34b0b18f5de80f308ab2a99ff3a7acf64f3f3b6e26a1e2a1744e941c39c6dce7",
  "args": [],
  "numDeployments": 1,
  "solcInputHash": "9917b00fd9f4299e276b4c4ce0240f75",
  "bytecode": "0x608060405234801561001057600080fd5b50612f8b806100206000396000f3fe6080604052600436106103555760003560e01c806370a08231116101b9578063b9529e9f116100f6578063dafbdba81161009a578063eab329811161006c578063eab3298114610a0a578063f2fde38b14610a2a578063f8ba4cff14610a4a578063fc0c546a14610a5f57005b8063dafbdba814610994578063dd62ed3e146109aa578063e18c5131146109ca578063e6d7059a146109ea57005b8063c4b8db46116100d3578063c4b8db46146108de578063c8dffa9514610949578063d9ecd8d31461095e578063da45ec7e1461097e57005b8063b9529e9f1461087e578063b95d4ae11461089e578063c4809798146108be57005b8063963a4d961161015d578063a9059cbb1161013a578063a9059cbb1461080b578063ac165d7a1461082b578063ad452d751461084b578063b6b55f251461085e57005b8063963a4d96146107c25780639d2e6fcb146107d8578063a457c2d7146107eb57005b80638122af77116101965780638122af77146107425780638da5cb5b1461076f57806395d6abf81461078d57806395d89b41146107ad57005b806370a08231146106d7578063715018a61461070d578063724e59101461072257005b806323b872dd116102925780633f2b9723116102365780635e181ec6116102085780635e181ec6146106625780635eeff101146106775780636592183b146106975780636819862f146106c457005b80633f2b9723146105f7578063494e42f4146106175780635257b566146106375780635483067d1461064c57005b80632e1a7d4d1161026f5780632e1a7d4d14610586578063313ce567146105a657806339509351146105c25780633d7d31fc146105e257005b806323b872dd146105265780632d4047e5146105465780632d6f80131461056657005b806315d6dae9116102f9578063185cc751116102d6578063185cc751146104b15780631a39d8ef146104d15780631a4e1aef146104e65780631ce9ba361461050657005b806315d6dae91461046657806316f2c0051461048657806318160ddd1461049c57005b8063095ea7b311610332578063095ea7b3146103be5780630efc51a7146103ee5780630fc6a11c1461040e578063131829151461044657005b806303d98c1f1461035e57806306fdde0314610386578063072481e3146103a857005b3661035c57005b005b34801561036a57600080fd5b50610373610a7f565b6040519081526020015b60405180910390f35b34801561039257600080fd5b5061039b610aac565b60405161037d9190612d93565b3480156103b457600080fd5b50610373609f5481565b3480156103ca57600080fd5b506103de6103d9366004612c22565b610b3e565b604051901515815260200161037d565b3480156103fa57600080fd5b50610373610409366004612d23565b610b58565b34801561041a57600080fd5b5060975461042e906001600160a01b031681565b6040516001600160a01b03909116815260200161037d565b34801561045257600080fd5b5061035c610461366004612b9b565b610be4565b34801561047257600080fd5b50610373610481366004612d23565b610c0e565b34801561049257600080fd5b5061037360a05481565b3480156104a857600080fd5b50603554610373565b3480156104bd57600080fd5b506103736104cc366004612c22565b610c48565b3480156104dd57600080fd5b50610373610e0d565b3480156104f257600080fd5b50610373610501366004612c22565b610e9c565b34801561051257600080fd5b50610373610521366004612d23565b610fe8565b34801561053257600080fd5b506103de610541366004612be7565b611018565b34801561055257600080fd5b50610373610561366004612d23565b61103c565b34801561057257600080fd5b50610373610581366004612d23565b61107c565b34801561059257600080fd5b506103736105a1366004612d23565b61109a565b3480156105b257600080fd5b506040516012815260200161037d565b3480156105ce57600080fd5b506103de6105dd366004612c22565b611117565b3480156105ee57600080fd5b50610373611139565b34801561060357600080fd5b5061035c610612366004612b9b565b611155565b34801561062357600080fd5b5061035c610632366004612d23565b61117f565b34801561064357600080fd5b5061037361118c565b34801561065857600080fd5b5061037360a15481565b34801561066e57600080fd5b50610373611297565b34801561068357600080fd5b50610373610692366004612b9b565b6112f8565b3480156106a357600080fd5b506103736106b2366004612b9b565b609b6020526000908152604090205481565b6103736106d2366004612b9b565b611306565b3480156106e357600080fd5b506103736106f2366004612b9b565b6001600160a01b031660009081526033602052604090205490565b34801561071957600080fd5b5061035c6113c2565b34801561072e57600080fd5b5061035c61073d366004612c22565b6113d6565b34801561074e57600080fd5b5061037361075d366004612b9b565b609d6020526000908152604090205481565b34801561077b57600080fd5b506065546001600160a01b031661042e565b34801561079957600080fd5b506103736107a8366004612d23565b611426565b3480156107b957600080fd5b5061039b611460565b3480156107ce57600080fd5b50610373609c5481565b6103736107e6366004612c22565b61146f565b3480156107f757600080fd5b506103de610806366004612c22565b6114b2565b34801561081757600080fd5b506103de610826366004612c22565b61152d565b34801561083757600080fd5b50609a5461042e906001600160a01b031681565b61035c610859366004612d23565b61153b565b34801561086a57600080fd5b50610373610879366004612d23565b6116e0565b34801561088a57600080fd5b5061035c610899366004612c22565b611756565b3480156108aa57600080fd5b506103736108b9366004612b9b565b61186a565b3480156108ca57600080fd5b506103736108d9366004612d23565b61188c565b3480156108ea57600080fd5b5060a35460a45460a55460a654610915939291906001600160801b0380821691600160801b90041685565b604080519586526020860194909452928401919091526001600160801b03908116606084015216608082015260a00161037d565b34801561095557600080fd5b506103736118a9565b34801561096a57600080fd5b5061035c610979366004612c6b565b6118bb565b34801561098a57600080fd5b5061037360a25481565b3480156109a057600080fd5b50610373609e5481565b3480156109b657600080fd5b506103736109c5366004612bb5565b611b95565b3480156109d657600080fd5b506103736109e5366004612b9b565b611bc0565b3480156109f657600080fd5b50610373610a05366004612d23565b611be2565b348015610a1657600080fd5b5060995461042e906001600160a01b031681565b348015610a3657600080fd5b5061035c610a45366004612b9b565b611c1e565b348015610a5657600080fd5b5061035c611c97565b348015610a6b57600080fd5b5060985461042e906001600160a01b031681565b6000610a89610e0d565b610a916118a9565b610a9d90612710612e80565b610aa79190612e60565b905090565b606060368054610abb90612f0a565b80601f0160208091040260200160405190810160405280929190818152602001828054610ae790612f0a565b8015610b345780601f10610b0957610100808354040283529160200191610b34565b820191906000526020600020905b815481529060010190602001808311610b1757829003601f168201915b5050505050905090565b600033610b4c818585611c9f565b60019150505b92915050565b609754609854604051633ee777f760e11b81526000926001600160a01b0390811692637dceefee92610b94929091169085908790600401612d6f565b60206040518083038186803b158015610bac57600080fd5b505afa158015610bc0573d6000803e3d6000fd5b505050506040513d601f19601f82011682018060405250810190610b529190612d3b565b610bec611dc3565b609a80546001600160a01b0319166001600160a01b0392909216919091179055565b609754609854604051634f119bbd60e01b81526000926001600160a01b0390811692634f119bbd92610b9492869216908790600401612d6f565b6099546000906001600160a01b03163314610c7e5760405162461bcd60e51b8152600401610c7590612dc6565b60405180910390fd5b610c86611e1d565b6001600160a01b038316610cdc5760405162461bcd60e51b815260206004820152601f60248201527f6c6f616e3a207a65726f20616464726573732063616e6e6f74206c6f616e2e006044820152606401610c75565b610ce582611ee1565b6001600160a01b0384166000908152609b6020526040812080549293508392909190610d12908490612e48565b9250508190555080609c6000828254610d2b9190612e48565b909155505060a054610d3f90612710612ec7565b610d47610e0d565b610d519190612e80565b609f54609c54610d619190612e48565b610d6d90612710612e80565b1115610dbb5760405162461bcd60e51b815260206004820152601e60248201527f4c6f616e3a2043616e7427206c6f616e206465627420616e796d6f72652e00006044820152606401610c75565b610dc53383611fa8565b604080516001600160a01b0385168152602081018390527f1db23cf53464267c45324569941e81e23d29c48ff9be2b35af2cc0a2681159d6910160405180910390a192915050565b6000610e176118a9565b6098546040516370a0823160e01b81523060048201526001600160a01b03909116906370a082319060240160206040518083038186803b158015610e5a57600080fd5b505afa158015610e6e573d6000803e3d6000fd5b505050506040513d601f19601f82011682018060405250810190610e929190612d3b565b610aa79190612e48565b6099546000906001600160a01b03163314610ec95760405162461bcd60e51b8152600401610c7590612dc6565b6001600160a01b0383166000908152609b6020526040902054821115610f3d5760405162461bcd60e51b8152602060048201526024808201527f70656e6452657061793a20746f6f206d75636820616d6f756e7420746f2072656044820152633830bc9760e11b6064820152608401610c75565b6001600160a01b0383166000908152609b6020526040812080548490039055609c8054849290610f6e908490612ec7565b90915550610f7d90508261188c565b6001600160a01b0384166000908152609d6020526040812080549293508392909190610faa908490612e48565b9250508190555080609e6000828254610fc39190612e48565b9250508190555081609f6000828254610fdc9190612e48565b90915550909392505050565b6000609e5460001461101457609e5482609f546110059190612e80565b61100f9190612e60565b610b52565b5090565b60003361102685828561205f565b6110318585856120d9565b506001949350505050565b600080611047610e0d565b9050801561107357808361105a60355490565b6110649190612e80565b61106e9190612e60565b611075565b825b9392505050565b60008061108860355490565b9050801561107357808361105a610e0d565b60006110a4611e1d565b6110ad8261107c565b90506110b933836122a7565b6098546110d0906001600160a01b031633836123f5565b60408051338152602081018390529081018390527ff279e6a1f5e320cca91135676d9cb6e44ca8a08c0b88342bcdb1144f6511b568906060015b60405180910390a1919050565b600033610b4c81858561112a8383611b95565b6111349190612e48565b611c9f565b60008060a2541161114a5750600090565b610aa760a254611426565b61115d611dc3565b609780546001600160a01b0319166001600160a01b0392909216919091179055565b611187611dc3565b60a055565b609a546000906001600160a01b031663d4a99bbb6111a86118a9565b6098546040516370a0823160e01b81523060048201526001600160a01b03909116906370a082319060240160206040518083038186803b1580156111eb57600080fd5b505afa1580156111ff573d6000803e3d6000fd5b505050506040513d601f19601f820116820180604052508101906112239190612d3b565b6040516001600160e01b031960e085901b1681526004810192909252602482015260440160206040518083038186803b15801561125f57600080fd5b505afa158015611273573d6000803e3d6000fd5b505050506040513d601f19601f82011682018060405250810190610aa79190612d3b565b60a45460009015806112b9575060a654600160801b90046001600160801b0316155b156112c45750600090565b60a65460a45460a554600160801b9092046001600160801b0316916112ee9064496cebb800612e80565b610a9d9190612e60565b6000610b526107a883611bc0565b60008061131283611bc0565b9050600061131f82611426565b905080341115611368576113338183612500565b506001600160a01b0384166000908152609d60205260408120556113578134612ec7565b92506113633384611fa8565b6113bb565b6000611375346001612500565b905060006113828261188c565b6001600160a01b0387166000908152609d60205260408120805492935083929091906113af908490612ec7565b90915550600095505050505b5050919050565b6113ca611dc3565b6113d4600061259d565b565b6099546001600160a01b031633146114005760405162461bcd60e51b8152600401610c7590612dc6565b609854611418906001600160a01b03168330846125ef565b6114228282612703565b5050565b609754609854604051633ee777f760e11b81526000926001600160a01b0390811692637dceefee92610b9492869216908790600401612d6f565b606060378054610abb90612f0a565b6099546000906001600160a01b0316331461149c5760405162461bcd60e51b8152600401610c7590612dc6565b6114a63483612500565b9050610b528382612703565b600033816114c08286611b95565b9050838110156115205760405162461bcd60e51b815260206004820152602560248201527f45524332303a2064656372656173656420616c6c6f77616e63652062656c6f77604482015264207a65726f60d81b6064820152608401610c75565b6110318286868403611c9f565b600033610b4c8185856120d9565b6099546001600160a01b031633146115655760405162461bcd60e51b8152600401610c7590612dc6565b61156d611e1d565b60a6546001600160801b031642116115c75760405162461bcd60e51b815260206004820152601a60248201527f706179496e7465726573743a20616c726561647920706169642e0000000000006044820152606401610c75565b60006115d33483612500565b90506115dd6118a9565b60a3556115e8610e0d565b60a45560a654611601906001600160801b031642612e9f565b426001600160801b039081169116600160801b026fffffffffffffffffffffffffffffffff19161760a65560a581905560a25481111561168b5760a2547f57546d41506d4d7643c2ea350647fa3d6ada23d1de3afa7a32496df9b7686bc09061166a8184612ec7565b6040805192835260208301919091520160405180910390a1600060a2555050565b8060a2600082825461169d9190612ec7565b909155505060408051828152600060208201527f57546d41506d4d7643c2ea350647fa3d6ada23d1de3afa7a32496df9b7686bc091015b60405180910390a15050565b60006116ea611e1d565b6116f38261103c565b60985490915061170e906001600160a01b03163330856125ef565b61171833826127e8565b60408051338152602081018490529081018290527f90890809c654f11d6e72a28fa60149770a0d11ec6c92319d6ceb2bb0a4ea1a159060600161110a565b6099546001600160a01b031633146117805760405162461bcd60e51b8152600401610c7590612dc6565b6001600160a01b0382166000908152609b60205260409020548111156117fc5760405162461bcd60e51b815260206004820152602b60248201527f74616b65446562744f776e6572736869703a20746f6f206d75636820616d6f7560448201526a373a103a37903a30b5b29760a91b6064820152608401610c75565b6001600160a01b0382166000908152609b60205260408082208054849003905533825281208054839290611831908490612e48565b90915550506040517f80caff6c1c70cc823c773c968ebdab44b7dc12da8117b4634b5f3eb78b07011e906116d490849033908590612d6f565b6001600160a01b0381166000908152609b6020526040812054610b5290611426565b6000609f5460001461101457609f5482609e546110059190612e80565b6000609f54609c54610aa79190612e48565b600054610100900460ff16158080156118db5750600054600160ff909116105b806118f55750303b1580156118f5575060005460ff166001145b6119585760405162461bcd60e51b815260206004820152602e60248201527f496e697469616c697a61626c653a20636f6e747261637420697320616c72656160448201526d191e481a5b9a5d1a585b1a5e995960921b6064820152608401610c75565b6000805460ff19166001179055801561197b576000805461ff0019166101001790555b6001600160a01b0385166119d15760405162461bcd60e51b815260206004820152601f60248201527f5661756c743a20537461796b696e672061646472657373206973207a65726f006044820152606401610c75565b6001600160a01b038416611a315760405162461bcd60e51b815260206004820152602160248201527f5661756c743a204261736520546f6b656e206973207a65726f206164647265736044820152607360f81b6064820152608401610c75565b611aa48a8a8080601f01602080910402602001604051908101604052809392919081815260200183838082843760009201919091525050604080516020601f8e018190048102820181019092528c815292508c91508b90819084018382808284376000920191909152506128c792505050565b611aac6128f8565b609880546001600160a01b038087166001600160a01b03199283161790925560998054928816929091169190911790554260a155611ae98261117f565b611af283610be4565b611afb86611155565b6040805160a0810182526000808252602082018190529181018290526001600160801b03421660608201819052608090910182905260a382905560a482905560a59190915560a6558015611b89576000805461ff0019169055604051600181527f7f26b83ff96e1f2b6a682f133852f6798a09c465da95921460cefb38474024989060200160405180910390a15b50505050505050505050565b6001600160a01b03918216600090815260346020908152604080832093909416825291909152205490565b6001600160a01b0381166000908152609d6020526040812054610b5290610fe8565b609754609854604051634f119bbd60e01b81526000926001600160a01b0390811692634f119bbd92610b94929091169085908790600401612d6f565b611c26611dc3565b6001600160a01b038116611c8b5760405162461bcd60e51b815260206004820152602660248201527f4f776e61626c653a206e6577206f776e657220697320746865207a65726f206160448201526564647265737360d01b6064820152608401610c75565b611c948161259d565b50565b6113d4611e1d565b6001600160a01b038316611d015760405162461bcd60e51b8152602060048201526024808201527f45524332303a20617070726f76652066726f6d20746865207a65726f206164646044820152637265737360e01b6064820152608401610c75565b6001600160a01b038216611d625760405162461bcd60e51b815260206004820152602260248201527f45524332303a20617070726f766520746f20746865207a65726f206164647265604482015261737360f01b6064820152608401610c75565b6001600160a01b0383811660008181526034602090815260408083209487168084529482529182902085905590518481527f8c5be1e5ebec7d5bd14f71427d1e84f3dd0314c0f7b2291e5b200ac8c7c3b925910160405180910390a3505050565b6065546001600160a01b031633146113d45760405162461bcd60e51b815260206004820181905260248201527f4f776e61626c653a2063616c6c6572206973206e6f7420746865206f776e65726044820152606401610c75565b60a1544211611e2857565b600060a15442611e389190612ec7565b90506000670de0b6b3a764000082609c54611e5161118c565b611e5b9190612e80565b611e659190612e80565b611e6f9190612e60565b90508060a26000828254611e839190612e48565b925050819055506000670de0b6b3a764000083609f54611ea161118c565b611eab9190612e80565b611eb59190612e80565b611ebf9190612e60565b905080609f6000828254611ed39190612e48565b90915550504260a155505050565b6000611eec82610b58565b609854609754919250611f0c916001600160a01b03918216911683612927565b609754609854604051630ed2fc9560e01b81526001600160a01b039182166004820152600060248201526044810184905260648101859052911690630ed2fc9590608401602060405180830381600087803b158015611f6a57600080fd5b505af1158015611f7e573d6000803e3d6000fd5b505050506040513d601f19601f82011682018060405250810190611fa29190612d3b565b50919050565b604080516000808252602082019092526001600160a01b038416908390604051611fd29190612d53565b60006040518083038185875af1925050503d806000811461200f576040519150601f19603f3d011682016040523d82523d6000602084013e612014565b606091505b505090508061205a5760405162461bcd60e51b815260206004820152601260248201527121736166655472616e7366657245564d4f5360701b6044820152606401610c75565b505050565b600061206b8484611b95565b905060001981146120d357818110156120c65760405162461bcd60e51b815260206004820152601d60248201527f45524332303a20696e73756666696369656e7420616c6c6f77616e63650000006044820152606401610c75565b6120d38484848403611c9f565b50505050565b6001600160a01b03831661213d5760405162461bcd60e51b815260206004820152602560248201527f45524332303a207472616e736665722066726f6d20746865207a65726f206164604482015264647265737360d81b6064820152608401610c75565b6001600160a01b03821661219f5760405162461bcd60e51b815260206004820152602360248201527f45524332303a207472616e7366657220746f20746865207a65726f206164647260448201526265737360e81b6064820152608401610c75565b6001600160a01b038316600090815260336020526040902054818110156122175760405162461bcd60e51b815260206004820152602660248201527f45524332303a207472616e7366657220616d6f756e7420657863656564732062604482015265616c616e636560d01b6064820152608401610c75565b6001600160a01b0380851660009081526033602052604080822085850390559185168152908120805484929061224e908490612e48565b92505081905550826001600160a01b0316846001600160a01b03167fddf252ad1be2c89b69c2b068fc378daa952ba7f163c4a11628f55a4df523b3ef8460405161229a91815260200190565b60405180910390a36120d3565b6001600160a01b0382166123075760405162461bcd60e51b815260206004820152602160248201527f45524332303a206275726e2066726f6d20746865207a65726f206164647265736044820152607360f81b6064820152608401610c75565b6001600160a01b0382166000908152603360205260409020548181101561237b5760405162461bcd60e51b815260206004820152602260248201527f45524332303a206275726e20616d6f756e7420657863656564732062616c616e604482015261636560f01b6064820152608401610c75565b6001600160a01b03831660009081526033602052604081208383039055603580548492906123aa908490612ec7565b90915550506040518281526000906001600160a01b038516907fddf252ad1be2c89b69c2b068fc378daa952ba7f163c4a11628f55a4df523b3ef9060200160405180910390a3505050565b604080516001600160a01b038481166024830152604480830185905283518084039091018152606490920183526020820180516001600160e01b031663a9059cbb60e01b17905291516000928392908716916124519190612d53565b6000604051808303816000865af19150503d806000811461248e576040519150601f19603f3d011682016040523d82523d6000602084013e612493565b606091505b50915091508180156124bd5750805115806124bd5750808060200190518101906124bd9190612c4b565b6124f95760405162461bcd60e51b815260206004820152600d60248201526c10b9b0b332aa3930b739b332b960991b6044820152606401610c75565b5050505050565b609754609854604051630ed2fc9560e01b81526000600482018190526001600160a01b0392831660248301526044820186905260648201859052929190911690630ed2fc959085906084016020604051808303818588803b15801561256457600080fd5b505af1158015612578573d6000803e3d6000fd5b50505050506040513d601f19601f820116820180604052508101906110759190612d3b565b606580546001600160a01b038381166001600160a01b0319831681179093556040519116919082907f8be0079c531659141344cd1fd0a4f28419497f9722a3daafe3b4186f6b6457e090600090a35050565b600080856001600160a01b03166323b872dd86868660405160240161261693929190612d6f565b6040516020818303038152906040529060e01b6020820180516001600160e01b03838183161783525050505060405161264f9190612d53565b6000604051808303816000865af19150503d806000811461268c576040519150601f19603f3d011682016040523d82523d6000602084013e612691565b606091505b50915091508180156126bb5750805115806126bb5750808060200190518101906126bb9190612c4b565b6126fb5760405162461bcd60e51b815260206004820152601160248201527021736166655472616e7366657246726f6d60781b6044820152606401610c75565b505050505050565b61270b611e1d565b6001600160a01b0382166000908152609b60205260409020548111156127735760405162461bcd60e51b815260206004820181905260248201527f72657061793a20746f6f206d75636820616d6f756e7420746f2072657061792e6044820152606401610c75565b6001600160a01b0382166000908152609b6020526040812080548390039055609c80548392906127a4908490612ec7565b9091555050604080516001600160a01b0384168152602081018390527f5c16de4f8b59bd9caf0f49a545f25819a895ed223294290b408242e72a59423191016116d4565b6001600160a01b03821661283e5760405162461bcd60e51b815260206004820152601f60248201527f45524332303a206d696e7420746f20746865207a65726f2061646472657373006044820152606401610c75565b80603560008282546128509190612e48565b90915550506001600160a01b0382166000908152603360205260408120805483929061287d908490612e48565b90915550506040518181526001600160a01b038316906000907fddf252ad1be2c89b69c2b068fc378daa952ba7f163c4a11628f55a4df523b3ef9060200160405180910390a35050565b600054610100900460ff166128ee5760405162461bcd60e51b8152600401610c7590612dfd565b6114228282612a2a565b600054610100900460ff1661291f5760405162461bcd60e51b8152600401610c7590612dfd565b6113d4612a78565b604080516001600160a01b038481166024830152604480830185905283518084039091018152606490920183526020820180516001600160e01b031663095ea7b360e01b17905291516000928392908716916129839190612d53565b6000604051808303816000865af19150503d80600081146129c0576040519150601f19603f3d011682016040523d82523d6000602084013e6129c5565b606091505b50915091508180156129ef5750805115806129ef5750808060200190518101906129ef9190612c4b565b6124f95760405162461bcd60e51b815260206004820152600c60248201526b2173616665417070726f766560a01b6044820152606401610c75565b600054610100900460ff16612a515760405162461bcd60e51b8152600401610c7590612dfd565b8151612a64906036906020850190612aa8565b50805161205a906037906020840190612aa8565b600054610100900460ff16612a9f5760405162461bcd60e51b8152600401610c7590612dfd565b6113d43361259d565b828054612ab490612f0a565b90600052602060002090601f016020900481019282612ad65760008555612b1c565b82601f10612aef57805160ff1916838001178555612b1c565b82800160010185558215612b1c579182015b82811115612b1c578251825591602001919060010190612b01565b506110149291505b808211156110145760008155600101612b24565b80356001600160a01b0381168114612b4f57600080fd5b919050565b60008083601f840112612b65578182fd5b50813567ffffffffffffffff811115612b7c578182fd5b602083019150836020828501011115612b9457600080fd5b9250929050565b600060208284031215612bac578081fd5b61107582612b38565b60008060408385031215612bc7578081fd5b612bd083612b38565b9150612bde60208401612b38565b90509250929050565b600080600060608486031215612bfb578081fd5b612c0484612b38565b9250612c1260208501612b38565b9150604084013590509250925092565b60008060408385031215612c34578182fd5b612c3d83612b38565b946020939093013593505050565b600060208284031215612c5c578081fd5b81518015158114611075578182fd5b600080600080600080600080600060e08a8c031215612c88578485fd5b893567ffffffffffffffff80821115612c9f578687fd5b612cab8d838e01612b54565b909b50995060208c0135915080821115612cc3578687fd5b50612cd08c828d01612b54565b9098509650612ce3905060408b01612b38565b9450612cf160608b01612b38565b9350612cff60808b01612b38565b9250612d0d60a08b01612b38565b915060c08a013590509295985092959850929598565b600060208284031215612d34578081fd5b5035919050565b600060208284031215612d4c578081fd5b5051919050565b60008251612d65818460208701612ede565b9190910192915050565b6001600160a01b039384168152919092166020820152604081019190915260600190565b6020815260008251806020840152612db2816040850160208701612ede565b601f01601f19169190910160400192915050565b6020808252601d908201527f5661756c743a204e6f7420537461796b696e6720636f6e74726163742e000000604082015260600190565b6020808252602b908201527f496e697469616c697a61626c653a20636f6e7472616374206973206e6f74206960408201526a6e697469616c697a696e6760a81b606082015260800190565b60008219821115612e5b57612e5b612f3f565b500190565b600082612e7b57634e487b7160e01b81526012600452602481fd5b500490565b6000816000190483118215151615612e9a57612e9a612f3f565b500290565b60006001600160801b0383811690831681811015612ebf57612ebf612f3f565b039392505050565b600082821015612ed957612ed9612f3f565b500390565b60005b83811015612ef9578181015183820152602001612ee1565b838111156120d35750506000910152565b600181811c90821680612f1e57607f821691505b60208210811415611fa257634e487b7160e01b600052602260045260246000fd5b634e487b7160e01b600052601160045260246000fdfea264697066735822122035d0d4beb762f56d409da92354a9e2e6fdf7fccb302365c3c38b7b843dd01a5564736f6c63430008040033",
  "devdoc": {
    "kind": "dev",
    "methods": {
      "accrue()": {
        "details": "for test -> should be REMOVED"
      },
      "allowance(address,address)": {
        "details": "See {IERC20-allowance}."
      },
      "approve(address,uint256)": {
        "details": "See {IERC20-approve}. NOTE: If `amount` is the maximum `uint256`, the allowance is not updated on `transferFrom`. This is semantically equivalent to an infinite approval. Requirements: - `spender` cannot be the zero address."
      },
      "balanceOf(address)": {
        "details": "See {IERC20-balanceOf}."
      },
      "decimals()": {
        "details": "Returns the number of decimals used to get its user representation. For example, if `decimals` equals `2`, a balance of `505` tokens should be displayed to a user as `5.05` (`505 / 10 ** 2`). Tokens usually opt for a value of 18, imitating the relationship between Ether and Wei. This is the value {ERC20} uses, unless this function is overridden; NOTE: This information is only used for _display_ purposes: it in no way affects any of the arithmetic of the contract, including {IERC20-balanceOf} and {IERC20-transfer}."
      },
      "decreaseAllowance(address,uint256)": {
        "details": "Atomically decreases the allowance granted to `spender` by the caller. This is an alternative to {approve} that can be used as a mitigation for problems described in {IERC20-approve}. Emits an {Approval} event indicating the updated allowance. Requirements: - `spender` cannot be the zero address. - `spender` must have allowance for the caller of at least `subtractedValue`."
      },
      "getBaseIn(uint256)": {
        "details": "calc (?)EVMOS = $ token"
      },
      "getBaseOut(uint256)": {
        "details": "calc $ token = (?)EVMOS"
      },
      "getInterestInBase()": {
        "details": "calculate interest (1 day) in base (EVMOS)"
      },
      "getInterestRate()": {
        "details": "denominator = 1E18 "
      },
      "getTokenIn(uint256)": {
        "details": "calc (?)token = $ EVMOS"
      },
      "getTokenOut(uint256)": {
        "details": "calc $ EVMOS = (?)token"
      },
      "increaseAllowance(address,uint256)": {
        "details": "Atomically increases the allowance granted to `spender` by the caller. This is an alternative to {approve} that can be used as a mitigation for problems described in {IERC20-approve}. Emits an {Approval} event indicating the updated allowance. Requirements: - `spender` cannot be the zero address."
      },
      "name()": {
        "details": "Returns the name of the token."
      },
      "owner()": {
        "details": "Returns the address of the current owner."
      },
      "pendRepay(address,uint256)": {
        "details": "pending repay debt because of EVMOS Unstaking's 14 days lock. Stayking should approve token first."
      },
      "renounceOwnership()": {
        "details": "Leaves the contract without owner. It will not be possible to call `onlyOwner` functions anymore. Can only be called by the current owner. NOTE: Renouncing ownership will leave the contract without an owner, thereby removing any functionality that is only available to the owner."
      },
      "repayInBase(address,uint256)": {
        "details": "repay debt for Base token(EVMOS).",
        "params": {
          "minRepaid": "minimum repaid debtToken amonut",
          "user": "debt owner"
        }
      },
      "repayPendingDebt(address)": {
        "details": "stayking should send with msg.value(=repayingDebtInBase)"
      },
      "symbol()": {
        "details": "Returns the symbol of the token, usually a shorter version of the name."
      },
      "totalSupply()": {
        "details": "See {IERC20-totalSupply}."
      },
      "transfer(address,uint256)": {
        "details": "See {IERC20-transfer}. Requirements: - `to` cannot be the zero address. - the caller must have a balance of at least `amount`."
      },
      "transferFrom(address,address,uint256)": {
        "details": "See {IERC20-transferFrom}. Emits an {Approval} event indicating the updated allowance. This is not required by the EIP. See the note at the beginning of {ERC20}. NOTE: Does not update the allowance if the current allowance is the maximum `uint256`. Requirements: - `from` and `to` cannot be the zero address. - `from` must have a balance of at least `amount`. - the caller must have allowance for ``from``'s tokens of at least `amount`."
      },
      "transferOwnership(address)": {
        "details": "Transfers ownership of the contract to a new account (`newOwner`). Can only be called by the current owner."
      }
    },
    "stateVariables": {
      "debtAmountOf": {
        "details": "totalAmount == Token.balanceOf(this) + totalStakedDebtAmount + totalPendingDebtAmount totalShare == totalSupply()"
      }
    },
    "version": 1
  },
  "userdoc": {
    "kind": "user",
    "methods": {
      "deposit(uint256)": {
        "notice": "user approve should be preceded"
      },
      "getInterestRate()": {
        "notice": "Amount of interest paid per second"
      },
      "loan(address,uint256)": {
        "notice": "loan is only for Stayking contract."
      }
    },
    "version": 1
  },
  "storageLayout": {
    "storage": [
      {
        "astId": 2400,
        "contract": "contracts/token/Vault.sol:Vault",
        "label": "_initialized",
        "offset": 0,
        "slot": "0",
        "type": "t_uint8"
      },
      {
        "astId": 2403,
        "contract": "contracts/token/Vault.sol:Vault",
        "label": "_initializing",
        "offset": 1,
        "slot": "0",
        "type": "t_bool"
      },
      {
        "astId": 1165,
        "contract": "contracts/token/Vault.sol:Vault",
        "label": "__gap",
        "offset": 0,
        "slot": "1",
        "type": "t_array(t_uint256)50_storage"
      },
      {
        "astId": 1801,
        "contract": "contracts/token/Vault.sol:Vault",
        "label": "_balances",
        "offset": 0,
        "slot": "51",
        "type": "t_mapping(t_address,t_uint256)"
      },
      {
        "astId": 1807,
        "contract": "contracts/token/Vault.sol:Vault",
        "label": "_allowances",
        "offset": 0,
        "slot": "52",
        "type": "t_mapping(t_address,t_mapping(t_address,t_uint256))"
      },
      {
        "astId": 1809,
        "contract": "contracts/token/Vault.sol:Vault",
        "label": "_totalSupply",
        "offset": 0,
        "slot": "53",
        "type": "t_uint256"
      },
      {
        "astId": 1811,
        "contract": "contracts/token/Vault.sol:Vault",
        "label": "_name",
        "offset": 0,
        "slot": "54",
        "type": "t_string_storage"
      },
      {
        "astId": 1813,
        "contract": "contracts/token/Vault.sol:Vault",
        "label": "_symbol",
        "offset": 0,
        "slot": "55",
        "type": "t_string_storage"
      },
      {
        "astId": 2392,
        "contract": "contracts/token/Vault.sol:Vault",
        "label": "__gap",
        "offset": 0,
        "slot": "56",
        "type": "t_array(t_uint256)45_storage"
      },
      {
        "astId": 2668,
        "contract": "contracts/token/Vault.sol:Vault",
        "label": "_owner",
        "offset": 0,
        "slot": "101",
        "type": "t_address"
      },
      {
        "astId": 2788,
        "contract": "contracts/token/Vault.sol:Vault",
        "label": "__gap",
        "offset": 0,
        "slot": "102",
        "type": "t_array(t_uint256)49_storage"
      },
      {
        "astId": 6849,
        "contract": "contracts/token/Vault.sol:Vault",
        "label": "swapHelper",
        "offset": 0,
        "slot": "151",
        "type": "t_contract(ISwapHelper)567"
      },
      {
        "astId": 6852,
        "contract": "contracts/token/Vault.sol:Vault",
        "label": "token",
        "offset": 0,
        "slot": "152",
        "type": "t_address"
      },
      {
        "astId": 6855,
        "contract": "contracts/token/Vault.sol:Vault",
        "label": "stayking",
        "offset": 0,
        "slot": "153",
        "type": "t_address"
      },
      {
        "astId": 6858,
        "contract": "contracts/token/Vault.sol:Vault",
        "label": "interestModel",
        "offset": 0,
        "slot": "154",
        "type": "t_address"
      },
      {
        "astId": 6864,
        "contract": "contracts/token/Vault.sol:Vault",
        "label": "debtAmountOf",
        "offset": 0,
        "slot": "155",
        "type": "t_mapping(t_address,t_uint256)"
      },
      {
        "astId": 6867,
        "contract": "contracts/token/Vault.sol:Vault",
        "label": "totalStakedDebtAmount",
        "offset": 0,
        "slot": "156",
        "type": "t_uint256"
      },
      {
        "astId": 6871,
        "contract": "contracts/token/Vault.sol:Vault",
        "label": "pendingDebtShareOf",
        "offset": 0,
        "slot": "157",
        "type": "t_mapping(t_address,t_uint256)"
      },
      {
        "astId": 6874,
        "contract": "contracts/token/Vault.sol:Vault",
        "label": "totalPendingDebtShare",
        "offset": 0,
        "slot": "158",
        "type": "t_uint256"
      },
      {
        "astId": 6877,
        "contract": "contracts/token/Vault.sol:Vault",
        "label": "totalPendingDebtAmount",
        "offset": 0,
        "slot": "159",
        "type": "t_uint256"
      },
      {
        "astId": 6880,
        "contract": "contracts/token/Vault.sol:Vault",
        "label": "minReservedBps",
        "offset": 0,
        "slot": "160",
        "type": "t_uint256"
      },
      {
        "astId": 6883,
        "contract": "contracts/token/Vault.sol:Vault",
        "label": "lastAccruedAt",
        "offset": 0,
        "slot": "161",
        "type": "t_uint256"
      },
      {
        "astId": 6886,
        "contract": "contracts/token/Vault.sol:Vault",
        "label": "accInterest",
        "offset": 0,
        "slot": "162",
        "type": "t_uint256"
      },
      {
        "astId": 6900,
        "contract": "contracts/token/Vault.sol:Vault",
        "label": "lastPaid",
        "offset": 0,
        "slot": "163",
        "type": "t_struct(LastPaid)6897_storage"
      }
    ],
    "types": {
      "t_address": {
        "encoding": "inplace",
        "label": "address",
        "numberOfBytes": "20"
      },
      "t_array(t_uint256)45_storage": {
        "base": "t_uint256",
        "encoding": "inplace",
        "label": "uint256[45]",
        "numberOfBytes": "1440"
      },
      "t_array(t_uint256)49_storage": {
        "base": "t_uint256",
        "encoding": "inplace",
        "label": "uint256[49]",
        "numberOfBytes": "1568"
      },
      "t_array(t_uint256)50_storage": {
        "base": "t_uint256",
        "encoding": "inplace",
        "label": "uint256[50]",
        "numberOfBytes": "1600"
      },
      "t_bool": {
        "encoding": "inplace",
        "label": "bool",
        "numberOfBytes": "1"
      },
      "t_contract(ISwapHelper)567": {
        "encoding": "inplace",
        "label": "contract ISwapHelper",
        "numberOfBytes": "20"
      },
      "t_mapping(t_address,t_mapping(t_address,t_uint256))": {
        "encoding": "mapping",
        "key": "t_address",
        "label": "mapping(address => mapping(address => uint256))",
        "numberOfBytes": "32",
        "value": "t_mapping(t_address,t_uint256)"
      },
      "t_mapping(t_address,t_uint256)": {
        "encoding": "mapping",
        "key": "t_address",
        "label": "mapping(address => uint256)",
        "numberOfBytes": "32",
        "value": "t_uint256"
      },
      "t_string_storage": {
        "encoding": "bytes",
        "label": "string",
        "numberOfBytes": "32"
      },
      "t_struct(LastPaid)6897_storage": {
        "encoding": "inplace",
        "label": "struct Vault.LastPaid",
        "members": [
          {
            "astId": 6888,
            "contract": "contracts/token/Vault.sol:Vault",
            "label": "totalDebtAmount",
            "offset": 0,
            "slot": "0",
            "type": "t_uint256"
          },
          {
            "astId": 6890,
            "contract": "contracts/token/Vault.sol:Vault",
            "label": "totalAmount",
            "offset": 0,
            "slot": "1",
            "type": "t_uint256"
          },
          {
            "astId": 6892,
            "contract": "contracts/token/Vault.sol:Vault",
            "label": "reward",
            "offset": 0,
            "slot": "2",
            "type": "t_uint256"
          },
          {
            "astId": 6894,
            "contract": "contracts/token/Vault.sol:Vault",
            "label": "timestamp",
            "offset": 0,
            "slot": "3",
            "type": "t_uint128"
          },
          {
            "astId": 6896,
            "contract": "contracts/token/Vault.sol:Vault",
            "label": "interval",
            "offset": 16,
            "slot": "3",
            "type": "t_uint128"
          }
        ],
        "numberOfBytes": "128"
      },
      "t_uint128": {
        "encoding": "inplace",
        "label": "uint128",
        "numberOfBytes": "16"
      },
      "t_uint256": {
        "encoding": "inplace",
        "label": "uint256",
        "numberOfBytes": "32"
      },
      "t_uint8": {
        "encoding": "inplace",
        "label": "uint8",
        "numberOfBytes": "1"
      }
    }
  }
}