{
    "address": "0x794E5a8C438bDE59caf97F098F1573dCFB973376",
    "abi": [
        {
            "inputs": [
                {
                    "internalType": "address payable",
                    "name": "swap_",
                    "type": "address"
                }
            ],
            "stateMutability": "nonpayable",
            "type": "constructor"
        },
        {
            "stateMutability": "payable",
            "type": "fallback"
        },
        {
            "inputs": [
                {
                    "internalType": "address",
                    "name": "tokenX",
                    "type": "address"
                },
                {
                    "internalType": "address",
                    "name": "tokenY",
                    "type": "address"
                },
                {
                    "internalType": "uint256",
                    "name": "dx",
                    "type": "uint256"
                },
                {
                    "internalType": "uint256",
                    "name": "minDy",
                    "type": "uint256"
                }
            ],
            "name": "exchange",
            "outputs": [
                {
                    "internalType": "uint256",
                    "name": "dy",
                    "type": "uint256"
                }
            ],
            "stateMutability": "payable",
            "type": "function"
        },
        {
            "inputs": [
                {
                    "internalType": "address",
                    "name": "tokenX",
                    "type": "address"
                },
                {
                    "internalType": "address",
                    "name": "tokenY",
                    "type": "address"
                },
                {
                    "internalType": "uint256",
                    "name": "dy",
                    "type": "uint256"
                }
            ],
            "name": "getDx",
            "outputs": [
                {
                    "internalType": "uint256",
                    "name": "dx",
                    "type": "uint256"
                }
            ],
            "stateMutability": "view",
            "type": "function"
        },
        {
            "inputs": [
                {
                    "internalType": "address",
                    "name": "tokenX",
                    "type": "address"
                },
                {
                    "internalType": "address",
                    "name": "tokenY",
                    "type": "address"
                },
                {
                    "internalType": "uint256",
                    "name": "dx",
                    "type": "uint256"
                }
            ],
            "name": "getDy",
            "outputs": [
                {
                    "internalType": "uint256",
                    "name": "dy",
                    "type": "uint256"
                }
            ],
            "stateMutability": "view",
            "type": "function"
        },
        {
            "inputs": [],
            "name": "swap",
            "outputs": [
                {
                    "internalType": "contract MockSwap",
                    "name": "",
                    "type": "address"
                }
            ],
            "stateMutability": "view",
            "type": "function"
        },
        {
            "stateMutability": "payable",
            "type": "receive"
        }
    ],
    "transactionHash": "0x616f03f0dfad96e93a971a6ea10d5186d3bb8ed1424a3e5c00026201ba20edd9",
    "args": [
        "0x08Be1FDf4A512fc6caA7aE1Be029b922d05EA5B3"
    ],
    "numDeployments": 1,
    "solcInputHash": "9917b00fd9f4299e276b4c4ce0240f75",
    "bytecode": "0x608060405234801561001057600080fd5b5060405161095938038061095983398101604081905261002f91610054565b600080546001600160a01b0319166001600160a01b0392909216919091179055610082565b600060208284031215610065578081fd5b81516001600160a01b038116811461007b578182fd5b9392505050565b6108c8806100916000396000f3fe6080604052600436106100405760003560e01c80630ed2fc95146100495780634f119bbd1461006f5780637dceefee1461008f5780638119c065146100af57005b3661004757005b005b61005c6100573660046107d9565b6100e7565b6040519081526020015b60405180910390f35b34801561007b57600080fd5b5061005c61008a36600461079e565b6102d5565b34801561009b57600080fd5b5061005c6100aa36600461079e565b610363565b3480156100bb57600080fd5b506000546100cf906001600160a01b031681565b6040516001600160a01b039091168152602001610066565b60006001600160a01b0385166101e95782341461014b5760405162461bcd60e51b815260206004820152601960248201527f4d6f636b537761703a206d73672e76616c756520213d2064780000000000000060448201526064015b60405180910390fd5b600054604051630ed2fc9560e01b81526001600160a01b0387811660048301528681166024830152604482018690526064820185905290911690630ed2fc959085906084016020604051808303818588803b1580156101a957600080fd5b505af11580156101bd573d6000803e3d6000fd5b50505050506040513d601f19601f820116820180604052508101906101e29190610841565b90506102a5565b6101f5853330866103a5565b60005461020d9086906001600160a01b0316856104bd565b600054604051630ed2fc9560e01b81526001600160a01b0387811660048301528681166024830152604482018690526064820185905290911690630ed2fc9590608401602060405180830381600087803b15801561026a57600080fd5b505af115801561027e573d6000803e3d6000fd5b505050506040513d601f19601f820116820180604052508101906102a29190610841565b90505b6001600160a01b0384166102c2576102bd33826105c7565b6102cd565b6102cd84338361067e565b949350505050565b60008054604051634f119bbd60e01b81526001600160a01b03868116600483015285811660248301526044820185905290911690634f119bbd906064015b60206040518083038186803b15801561032b57600080fd5b505afa15801561033f573d6000803e3d6000fd5b505050506040513d601f19601f820116820180604052508101906102cd9190610841565b60008054604051633ee777f760e11b81526001600160a01b03868116600483015285811660248301526044820185905290911690637dceefee90606401610313565b604080516001600160a01b0385811660248301528481166044830152606480830185905283518084039091018152608490920183526020820180516001600160e01b03166323b872dd60e01b17905291516000928392908816916104099190610859565b6000604051808303816000865af19150503d8060008114610446576040519150601f19603f3d011682016040523d82523d6000602084013e61044b565b606091505b5091509150818015610475575080511580610475575080806020019051810190610475919061081a565b6104b55760405162461bcd60e51b815260206004820152601160248201527021736166655472616e7366657246726f6d60781b6044820152606401610142565b505050505050565b604080516001600160a01b038481166024830152604480830185905283518084039091018152606490920183526020820180516001600160e01b031663095ea7b360e01b17905291516000928392908716916105199190610859565b6000604051808303816000865af19150503d8060008114610556576040519150601f19603f3d011682016040523d82523d6000602084013e61055b565b606091505b5091509150818015610585575080511580610585575080806020019051810190610585919061081a565b6105c05760405162461bcd60e51b815260206004820152600c60248201526b2173616665417070726f766560a01b6044820152606401610142565b5050505050565b604080516000808252602082019092526001600160a01b0384169083906040516105f19190610859565b60006040518083038185875af1925050503d806000811461062e576040519150601f19603f3d011682016040523d82523d6000602084013e610633565b606091505b50509050806106795760405162461bcd60e51b815260206004820152601260248201527121736166655472616e7366657245564d4f5360701b6044820152606401610142565b505050565b604080516001600160a01b038481166024830152604480830185905283518084039091018152606490920183526020820180516001600160e01b031663a9059cbb60e01b17905291516000928392908716916106da9190610859565b6000604051808303816000865af19150503d8060008114610717576040519150601f19603f3d011682016040523d82523d6000602084013e61071c565b606091505b5091509150818015610746575080511580610746575080806020019051810190610746919061081a565b6105c05760405162461bcd60e51b815260206004820152600d60248201526c10b9b0b332aa3930b739b332b960991b6044820152606401610142565b80356001600160a01b038116811461079957600080fd5b919050565b6000806000606084860312156107b2578283fd5b6107bb84610782565b92506107c960208501610782565b9150604084013590509250925092565b600080600080608085870312156107ee578081fd5b6107f785610782565b935061080560208601610782565b93969395505050506040820135916060013590565b60006020828403121561082b578081fd5b8151801515811461083a578182fd5b9392505050565b600060208284031215610852578081fd5b5051919050565b60008251815b81811015610879576020818601810151858301520161085f565b818111156108875782828501525b50919091019291505056fea264697066735822122063dc6ef2ee2186312fbfd959be7100aecb54c3ede312b2d138056f280a03405964736f6c63430008040033",
    "devdoc": {
        "kind": "dev",
        "methods": {},
        "version": 1
    },
    "userdoc": {
        "kind": "user",
        "methods": {},
        "version": 1
    },
    "storageLayout": {
        "storage": [
            {
                "astId": 3365,
                "contract": "contracts/mock/MockSwapHelper.sol:MockSwapHelper",
                "label": "swap",
                "offset": 0,
                "slot": "0",
                "type": "t_contract(MockSwap)3355"
            }
        ],
        "types": {
            "t_contract(MockSwap)3355": {
                "encoding": "inplace",
                "label": "contract MockSwap",
                "numberOfBytes": "20"
            }
        }
    }
}