{
  "address": "0x08Be1FDf4A512fc6caA7aE1Be029b922d05EA5B3",
  "abi": [
    {
      "inputs": [
        {
          "internalType": "address[]",
          "name": "tokens",
          "type": "address[]"
        }
      ],
      "stateMutability": "nonpayable",
      "type": "constructor"
    },
    {
      "anonymous": false,
      "inputs": [
        {
          "indexed": true,
          "internalType": "address",
          "name": "previousOwner",
          "type": "address"
        },
        {
          "indexed": true,
          "internalType": "address",
          "name": "newOwner",
          "type": "address"
        }
      ],
      "name": "OwnershipTransferred",
      "type": "event"
    },
    {
      "stateMutability": "payable",
      "type": "fallback"
    },
    {
      "inputs": [],
      "name": "EVMOSpriceBps",
      "outputs": [
        {
          "internalType": "uint256",
          "name": "",
          "type": "uint256"
        }
      ],
      "stateMutability": "view",
      "type": "function"
    },
    {
      "inputs": [
        {
          "internalType": "uint256",
          "name": "newRatio",
          "type": "uint256"
        }
      ],
      "name": "changeRatio",
      "outputs": [],
      "stateMutability": "nonpayable",
      "type": "function"
    },
    {
      "inputs": [
        {
          "internalType": "address",
          "name": "tokenX",
          "type": "address"
        },
        {
          "internalType": "address",
          "name": "tokenY",
          "type": "address"
        },
        {
          "internalType": "uint256",
          "name": "dx",
          "type": "uint256"
        },
        {
          "internalType": "uint256",
          "name": "",
          "type": "uint256"
        }
      ],
      "name": "exchange",
      "outputs": [
        {
          "internalType": "uint256",
          "name": "dy",
          "type": "uint256"
        }
      ],
      "stateMutability": "payable",
      "type": "function"
    },
    {
      "inputs": [
        {
          "internalType": "address",
          "name": "tokenX",
          "type": "address"
        },
        {
          "internalType": "address",
          "name": "tokenY",
          "type": "address"
        },
        {
          "internalType": "uint256",
          "name": "dy",
          "type": "uint256"
        }
      ],
      "name": "getDx",
      "outputs": [
        {
          "internalType": "uint256",
          "name": "",
          "type": "uint256"
        }
      ],
      "stateMutability": "view",
      "type": "function"
    },
    {
      "inputs": [
        {
          "internalType": "address",
          "name": "tokenX",
          "type": "address"
        },
        {
          "internalType": "address",
          "name": "tokenY",
          "type": "address"
        },
        {
          "internalType": "uint256",
          "name": "dx",
          "type": "uint256"
        }
      ],
      "name": "getDy",
      "outputs": [
        {
          "internalType": "uint256",
          "name": "",
          "type": "uint256"
        }
      ],
      "stateMutability": "view",
      "type": "function"
    },
    {
      "inputs": [
        {
          "internalType": "address",
          "name": "",
          "type": "address"
        }
      ],
      "name": "isSupported",
      "outputs": [
        {
          "internalType": "bool",
          "name": "",
          "type": "bool"
        }
      ],
      "stateMutability": "view",
      "type": "function"
    },
    {
      "inputs": [],
      "name": "owner",
      "outputs": [
        {
          "internalType": "address",
          "name": "",
          "type": "address"
        }
      ],
      "stateMutability": "view",
      "type": "function"
    },
    {
      "inputs": [],
      "name": "renounceOwnership",
      "outputs": [],
      "stateMutability": "nonpayable",
      "type": "function"
    },
    {
      "inputs": [],
      "name": "sweep",
      "outputs": [],
      "stateMutability": "nonpayable",
      "type": "function"
    },
    {
      "inputs": [
        {
          "internalType": "address",
          "name": "newOwner",
          "type": "address"
        }
      ],
      "name": "transferOwnership",
      "outputs": [],
      "stateMutability": "nonpayable",
      "type": "function"
    },
    {
      "stateMutability": "payable",
      "type": "receive"
    }
  ],
  "transactionHash": "0x060d8ed5a81da1f4a6ab76484b40833cbc6c9db3625138ad2fd8c2025d74742f",
  "args": [
    [
      "0x0000000000000000000000000000000000000000",
      "0x9218b75D53612212137890354B1a16163Abb9DE3"
    ]
  ],
  "numDeployments": 1,
  "solcInputHash": "9917b00fd9f4299e276b4c4ce0240f75",
  "bytecode": "0x608060405234801561001057600080fd5b5060405162000b7e38038062000b7e83398101604081905261003191610128565b61003a336100bc565b60005b81518110156100af57600180600084848151811061006b57634e487b7160e01b600052603260045260246000fd5b6020908102919091018101516001600160a01b03168252810191909152604001600020805460ff1916911515919091179055806100a7816101ee565b91505061003d565b5050614e2060025561022b565b600080546001600160a01b038381166001600160a01b0319831681178455604051919092169283917f8be0079c531659141344cd1fd0a4f28419497f9722a3daafe3b4186f6b6457e09190a35050565b80516001600160a01b038116811461012357600080fd5b919050565b6000602080838503121561013a578182fd5b82516001600160401b0380821115610150578384fd5b818501915085601f830112610163578384fd5b81518181111561017557610175610215565b8060051b604051601f19603f8301168101818110858211171561019a5761019a610215565b604052828152858101935084860182860187018a10156101b8578788fd5b8795505b838610156101e1576101cd8161010c565b8552600195909501949386019386016101bc565b5098975050505050505050565b600060001982141561020e57634e487b7160e01b81526011600452602481fd5b5060010190565b634e487b7160e01b600052604160045260246000fd5b610943806200023b6000396000f3fe60806040526004361061008f5760003560e01c8063715018a611610056578063715018a6146101495780637dceefee1461015e5780638da5cb5b1461017e578063f2fde38b146101a6578063f6a33253146101c657005b80630ed2fc951461009857806335faa416146100be5780634f119bbd146100d35780634f129c53146100f3578063684cf3961461013357005b3661009657005b005b6100ab6100a6366004610810565b6101e6565b6040519081526020015b60405180910390f35b3480156100ca57600080fd5b50610096610298565b3480156100df57600080fd5b506100ab6100ee3660046107d5565b6102ac565b3480156100ff57600080fd5b5061012361010e3660046107bb565b60016020526000908152604090205460ff1681565b60405190151581526020016100b5565b34801561013f57600080fd5b506100ab60025481565b34801561015557600080fd5b50610096610305565b34801561016a57600080fd5b506100ab6101793660046107d5565b610317565b34801561018a57600080fd5b506000546040516001600160a01b0390911681526020016100b5565b3480156101b257600080fd5b506100966101c13660046107bb565b610355565b3480156101d257600080fd5b506100966101e1366004610871565b6103ce565b60006001600160a01b03851661024f5782341461024a5760405162461bcd60e51b815260206004820152601960248201527f4d6f636b537761703a206d73672e76616c756520213d2064780000000000000060448201526064015b60405180910390fd5b61025b565b61025b8533308661041b565b6102668585856102ac565b90506001600160a01b038416610285576102803382610533565b610290565b6102908433836105ea565b949350505050565b6102a06106f5565b6102aa3347610533565b565b60006001600160a01b0384166102de57612710600254836102cd91906108e2565b6102d791906108c2565b90506102fe565b6001600160a01b0383166102fb576002546102cd836127106108e2565b50805b9392505050565b61030d6106f5565b6102aa600061074f565b60006001600160a01b038416610336576002546102cd836127106108e2565b6001600160a01b0383166102fb57612710600254836102cd91906108e2565b61035d6106f5565b6001600160a01b0381166103c25760405162461bcd60e51b815260206004820152602660248201527f4f776e61626c653a206e6577206f776e657220697320746865207a65726f206160448201526564647265737360d01b6064820152608401610241565b6103cb8161074f565b50565b6103d66106f5565b600081116104165760405162461bcd60e51b815260206004820152600d60248201526c06e6577526174696f203c3d203609c1b6044820152606401610241565b600255565b604080516001600160a01b0385811660248301528481166044830152606480830185905283518084039091018152608490920183526020820180516001600160e01b03166323b872dd60e01b179052915160009283929088169161047f9190610889565b6000604051808303816000865af19150503d80600081146104bc576040519150601f19603f3d011682016040523d82523d6000602084013e6104c1565b606091505b50915091508180156104eb5750805115806104eb5750808060200190518101906104eb9190610851565b61052b5760405162461bcd60e51b815260206004820152601160248201527021736166655472616e7366657246726f6d60781b6044820152606401610241565b505050505050565b604080516000808252602082019092526001600160a01b03841690839060405161055d9190610889565b60006040518083038185875af1925050503d806000811461059a576040519150601f19603f3d011682016040523d82523d6000602084013e61059f565b606091505b50509050806105e55760405162461bcd60e51b815260206004820152601260248201527121736166655472616e7366657245564d4f5360701b6044820152606401610241565b505050565b604080516001600160a01b038481166024830152604480830185905283518084039091018152606490920183526020820180516001600160e01b031663a9059cbb60e01b17905291516000928392908716916106469190610889565b6000604051808303816000865af19150503d8060008114610683576040519150601f19603f3d011682016040523d82523d6000602084013e610688565b606091505b50915091508180156106b25750805115806106b25750808060200190518101906106b29190610851565b6106ee5760405162461bcd60e51b815260206004820152600d60248201526c10b9b0b332aa3930b739b332b960991b6044820152606401610241565b5050505050565b6000546001600160a01b031633146102aa5760405162461bcd60e51b815260206004820181905260248201527f4f776e61626c653a2063616c6c6572206973206e6f7420746865206f776e65726044820152606401610241565b600080546001600160a01b038381166001600160a01b0319831681178455604051919092169283917f8be0079c531659141344cd1fd0a4f28419497f9722a3daafe3b4186f6b6457e09190a35050565b80356001600160a01b03811681146107b657600080fd5b919050565b6000602082840312156107cc578081fd5b6102fe8261079f565b6000806000606084860312156107e9578182fd5b6107f28461079f565b92506108006020850161079f565b9150604084013590509250925092565b60008060008060808587031215610825578081fd5b61082e8561079f565b935061083c6020860161079f565b93969395505050506040820135916060013590565b600060208284031215610862578081fd5b815180151581146102fe578182fd5b600060208284031215610882578081fd5b5035919050565b60008251815b818110156108a9576020818601810151858301520161088f565b818111156108b75782828501525b509190910192915050565b6000826108dd57634e487b7160e01b81526012600452602481fd5b500490565b600081600019048311821515161561090857634e487b7160e01b81526011600452602481fd5b50029056fea26469706673582212206ff2aa05cb16b2b9d0f956250b41d4f5f59df09e6e80c548356f86831bbf021a64736f6c63430008040033",
  "devdoc": {
    "kind": "dev",
    "methods": {
      "owner()": {
        "details": "Returns the address of the current owner."
      },
      "renounceOwnership()": {
        "details": "Leaves the contract without owner. It will not be possible to call `onlyOwner` functions anymore. Can only be called by the current owner. NOTE: Renouncing ownership will leave the contract without an owner, thereby removing any functionality that is only available to the owner."
      },
      "transferOwnership(address)": {
        "details": "Transfers ownership of the contract to a new account (`newOwner`). Can only be called by the current owner."
      }
    },
    "stateVariables": {
      "isSupported": {
        "details": "본 컨트랙트는 로컬 노드 배포용 컨트랙트로, EvmoSwapRouter과 유사한 역할을 하는 DEX라고 생각하면 됩니다. native token(EVMOS)과 나머지 모든 토큰의 교환비는 임의로 1: 2라고 놓았습니다. (EVMOS의 가치 = 다른 토큰의 가치 * 2) TODO 배포 후 본 컨트랙트로 유동성 추가해 주어야 함. ex) IERC20(tokenAddress).mint(address(this), MAX_UINT / 2);"
      }
    },
    "version": 1
  },
  "userdoc": {
    "kind": "user",
    "methods": {},
    "version": 1
  },
  "storageLayout": {
    "storage": [
      {
        "astId": 2552,
        "contract": "contracts/mock/MockSwap.sol:MockSwap",
        "label": "_owner",
        "offset": 0,
        "slot": "0",
        "type": "t_address"
      },
      {
        "astId": 3116,
        "contract": "contracts/mock/MockSwap.sol:MockSwap",
        "label": "isSupported",
        "offset": 0,
        "slot": "1",
        "type": "t_mapping(t_address,t_bool)"
      },
      {
        "astId": 3118,
        "contract": "contracts/mock/MockSwap.sol:MockSwap",
        "label": "EVMOSpriceBps",
        "offset": 0,
        "slot": "2",
        "type": "t_uint256"
      }
    ],
    "types": {
      "t_address": {
        "encoding": "inplace",
        "label": "address",
        "numberOfBytes": "20"
      },
      "t_bool": {
        "encoding": "inplace",
        "label": "bool",
        "numberOfBytes": "1"
      },
      "t_mapping(t_address,t_bool)": {
        "encoding": "mapping",
        "key": "t_address",
        "label": "mapping(address => bool)",
        "numberOfBytes": "32",
        "value": "t_bool"
      },
      "t_uint256": {
        "encoding": "inplace",
        "label": "uint256",
        "numberOfBytes": "32"
      }
    }
  }
}