{
  "address": "0x721a1ecB9105f2335a8EA7505D343a5a09803A06",
  "abi": [
    {
      "inputs": [
        {
          "internalType": "address payable",
          "name": "swap_",
          "type": "address"
        }
      ],
      "stateMutability": "nonpayable",
      "type": "constructor"
    },
    {
      "stateMutability": "payable",
      "type": "fallback"
    },
    {
      "inputs": [
        {
          "internalType": "address",
          "name": "tokenX",
          "type": "address"
        },
        {
          "internalType": "address",
          "name": "tokenY",
          "type": "address"
        },
        {
          "internalType": "uint256",
          "name": "dx",
          "type": "uint256"
        },
        {
          "internalType": "uint256",
          "name": "minDy",
          "type": "uint256"
        }
      ],
      "name": "exchange",
      "outputs": [
        {
          "internalType": "uint256",
          "name": "dy",
          "type": "uint256"
        }
      ],
      "stateMutability": "payable",
      "type": "function"
    },
    {
      "inputs": [
        {
          "internalType": "address",
          "name": "tokenX",
          "type": "address"
        },
        {
          "internalType": "address",
          "name": "tokenY",
          "type": "address"
        },
        {
          "internalType": "uint256",
          "name": "dy",
          "type": "uint256"
        }
      ],
      "name": "getDx",
      "outputs": [
        {
          "internalType": "uint256",
          "name": "dx",
          "type": "uint256"
        }
      ],
      "stateMutability": "view",
      "type": "function"
    },
    {
      "inputs": [
        {
          "internalType": "address",
          "name": "tokenX",
          "type": "address"
        },
        {
          "internalType": "address",
          "name": "tokenY",
          "type": "address"
        },
        {
          "internalType": "uint256",
          "name": "dx",
          "type": "uint256"
        }
      ],
      "name": "getDy",
      "outputs": [
        {
          "internalType": "uint256",
          "name": "dy",
          "type": "uint256"
        }
      ],
      "stateMutability": "view",
      "type": "function"
    },
    {
      "inputs": [],
      "name": "swap",
      "outputs": [
        {
          "internalType": "contract MockSwap",
          "name": "",
          "type": "address"
        }
      ],
      "stateMutability": "view",
      "type": "function"
    },
    {
      "stateMutability": "payable",
      "type": "receive"
    }
  ],
  "transactionHash": "0xde7bab69f76cc5969f07a190d0a1cedb5b755d0c664a562acad8450af3fe4a91",
  "args": [
    "0x8d375dE3D5DDde8d8caAaD6a4c31bD291756180b"
  ],
  "numDeployments": 1,
  "solcInputHash": "e84571cd6b55be5cf6d2a0f823bae990",
  "bytecode": "0x608060405234801561001057600080fd5b506040516110553803806110558339818101604052810190610032919061008d565b806000806101000a81548173ffffffffffffffffffffffffffffffffffffffff021916908373ffffffffffffffffffffffffffffffffffffffff160217905550506100ff565b600081519050610087816100e8565b92915050565b60006020828403121561009f57600080fd5b60006100ad84828501610078565b91505092915050565b60006100c1826100c8565b9050919050565b600073ffffffffffffffffffffffffffffffffffffffff82169050919050565b6100f1816100b6565b81146100fc57600080fd5b50565b610f478061010e6000396000f3fe6080604052600436106100435760003560e01c80630ed2fc951461004c5780634f119bbd1461007c5780637dceefee146100b95780638119c065146100f65761004a565b3661004a57005b005b610066600480360381019061006191906109e5565b610121565b6040516100739190610d1e565b60405180910390f35b34801561008857600080fd5b506100a3600480360381019061009e9190610996565b6102e1565b6040516100b09190610d1e565b60405180910390f35b3480156100c557600080fd5b506100e060048036038101906100db9190610996565b61039a565b6040516100ed9190610d1e565b60405180910390f35b34801561010257600080fd5b5061010b610453565b6040516101189190610c63565b60405180910390f35b60008073ffffffffffffffffffffffffffffffffffffffff168573ffffffffffffffffffffffffffffffffffffffff16141561019e57823414610199576040517f08c379a000000000000000000000000000000000000000000000000000000000815260040161019090610cde565b60405180910390fd5b6101ab565b6101aa85333086610477565b5b6101d68560008054906101000a900473ffffffffffffffffffffffffffffffffffffffff16856105b0565b60008054906101000a900473ffffffffffffffffffffffffffffffffffffffff1673ffffffffffffffffffffffffffffffffffffffff16630ed2fc95868686866040518563ffffffff1660e01b81526004016102359493929190610bf5565b602060405180830381600087803b15801561024f57600080fd5b505af1158015610263573d6000803e3d6000fd5b505050506040513d601f19601f820116820180604052508101906102879190610a71565b9050600073ffffffffffffffffffffffffffffffffffffffff168473ffffffffffffffffffffffffffffffffffffffff1614156102cd576102c833826106e6565b6102d9565b6102d884338361080c565b5b949350505050565b60008060009054906101000a900473ffffffffffffffffffffffffffffffffffffffff1673ffffffffffffffffffffffffffffffffffffffff16634f119bbd8585856040518463ffffffff1660e01b815260040161034193929190610bbe565b60206040518083038186803b15801561035957600080fd5b505afa15801561036d573d6000803e3d6000fd5b505050506040513d601f19601f820116820180604052508101906103919190610a71565b90509392505050565b60008060009054906101000a900473ffffffffffffffffffffffffffffffffffffffff1673ffffffffffffffffffffffffffffffffffffffff16637dceefee8585856040518463ffffffff1660e01b81526004016103fa93929190610bbe565b60206040518083038186803b15801561041257600080fd5b505afa158015610426573d6000803e3d6000fd5b505050506040513d601f19601f8201168201806040525081019061044a9190610a71565b90509392505050565b60008054906101000a900473ffffffffffffffffffffffffffffffffffffffff1681565b6000808573ffffffffffffffffffffffffffffffffffffffff166323b872dd8686866040516024016104ab93929190610bbe565b6040516020818303038152906040529060e01b6020820180517bffffffffffffffffffffffffffffffffffffffffffffffffffffffff83818316178352505050506040516104f99190610ba7565b6000604051808303816000865af19150503d8060008114610536576040519150601f19603f3d011682016040523d82523d6000602084013e61053b565b606091505b509150915081801561056957506000815114806105685750808060200190518101906105679190610a48565b5b5b6105a8576040517f08c379a000000000000000000000000000000000000000000000000000000000815260040161059f90610cfe565b60405180910390fd5b505050505050565b6000808473ffffffffffffffffffffffffffffffffffffffff1663095ea7b385856040516024016105e2929190610c3a565b6040516020818303038152906040529060e01b6020820180517bffffffffffffffffffffffffffffffffffffffffffffffffffffffff83818316178352505050506040516106309190610ba7565b6000604051808303816000865af19150503d806000811461066d576040519150601f19603f3d011682016040523d82523d6000602084013e610672565b606091505b50915091508180156106a0575060008151148061069f57508080602001905181019061069e9190610a48565b5b5b6106df576040517f08c379a00000000000000000000000000000000000000000000000000000000081526004016106d690610c7e565b60405180910390fd5b5050505050565b60008273ffffffffffffffffffffffffffffffffffffffff1682600067ffffffffffffffff811115610741577f4e487b7100000000000000000000000000000000000000000000000000000000600052604160045260246000fd5b6040519080825280601f01601f1916602001820160405280156107735781602001600182028036833780820191505090505b506040516107819190610ba7565b60006040518083038185875af1925050503d80600081146107be576040519150601f19603f3d011682016040523d82523d6000602084013e6107c3565b606091505b5050905080610807576040517f08c379a00000000000000000000000000000000000000000000000000000000081526004016107fe90610c9e565b60405180910390fd5b505050565b6000808473ffffffffffffffffffffffffffffffffffffffff1663a9059cbb858560405160240161083e929190610c3a565b6040516020818303038152906040529060e01b6020820180517bffffffffffffffffffffffffffffffffffffffffffffffffffffffff838183161783525050505060405161088c9190610ba7565b6000604051808303816000865af19150503d80600081146108c9576040519150601f19603f3d011682016040523d82523d6000602084013e6108ce565b606091505b50915091508180156108fc57506000815114806108fb5750808060200190518101906108fa9190610a48565b5b5b61093b576040517f08c379a000000000000000000000000000000000000000000000000000000000815260040161093290610cbe565b60405180910390fd5b5050505050565b60008135905061095181610ecc565b92915050565b60008151905061096681610ee3565b92915050565b60008135905061097b81610efa565b92915050565b60008151905061099081610efa565b92915050565b6000806000606084860312156109ab57600080fd5b60006109b986828701610942565b93505060206109ca86828701610942565b92505060406109db8682870161096c565b9150509250925092565b600080600080608085870312156109fb57600080fd5b6000610a0987828801610942565b9450506020610a1a87828801610942565b9350506040610a2b8782880161096c565b9250506060610a3c8782880161096c565b91505092959194509250565b600060208284031215610a5a57600080fd5b6000610a6884828501610957565b91505092915050565b600060208284031215610a8357600080fd5b6000610a9184828501610981565b91505092915050565b610aa381610d60565b82525050565b6000610ab482610d39565b610abe8185610d44565b9350610ace818560208601610dcc565b80840191505092915050565b610ae381610da8565b82525050565b6000610af6600c83610d4f565b9150610b0182610dff565b602082019050919050565b6000610b19601283610d4f565b9150610b2482610e28565b602082019050919050565b6000610b3c600d83610d4f565b9150610b4782610e51565b602082019050919050565b6000610b5f601983610d4f565b9150610b6a82610e7a565b602082019050919050565b6000610b82601183610d4f565b9150610b8d82610ea3565b602082019050919050565b610ba181610d9e565b82525050565b6000610bb38284610aa9565b915081905092915050565b6000606082019050610bd36000830186610a9a565b610be06020830185610a9a565b610bed6040830184610b98565b949350505050565b6000608082019050610c0a6000830187610a9a565b610c176020830186610a9a565b610c246040830185610b98565b610c316060830184610b98565b95945050505050565b6000604082019050610c4f6000830185610a9a565b610c5c6020830184610b98565b9392505050565b6000602082019050610c786000830184610ada565b92915050565b60006020820190508181036000830152610c9781610ae9565b9050919050565b60006020820190508181036000830152610cb781610b0c565b9050919050565b60006020820190508181036000830152610cd781610b2f565b9050919050565b60006020820190508181036000830152610cf781610b52565b9050919050565b60006020820190508181036000830152610d1781610b75565b9050919050565b6000602082019050610d336000830184610b98565b92915050565b600081519050919050565b600081905092915050565b600082825260208201905092915050565b6000610d6b82610d7e565b9050919050565b60008115159050919050565b600073ffffffffffffffffffffffffffffffffffffffff82169050919050565b6000819050919050565b6000610db382610dba565b9050919050565b6000610dc582610d7e565b9050919050565b60005b83811015610dea578082015181840152602081019050610dcf565b83811115610df9576000848401525b50505050565b7f2173616665417070726f76650000000000000000000000000000000000000000600082015250565b7f21736166655472616e7366657245564d4f530000000000000000000000000000600082015250565b7f21736166655472616e7366657200000000000000000000000000000000000000600082015250565b7f4d6f636b537761703a206d73672e76616c756520213d20647800000000000000600082015250565b7f21736166655472616e7366657246726f6d000000000000000000000000000000600082015250565b610ed581610d60565b8114610ee057600080fd5b50565b610eec81610d72565b8114610ef757600080fd5b50565b610f0381610d9e565b8114610f0e57600080fd5b5056fea26469706673582212204a87f4550cc54872059510f817339d230154db2607eb8a78ed49716c69a0054464736f6c63430008040033",
  "devdoc": {
    "kind": "dev",
    "methods": {},
    "version": 1
  },
  "userdoc": {
    "kind": "user",
    "methods": {},
    "version": 1
  },
  "storageLayout": {
    "storage": [
      {
        "astId": 656,
        "contract": "contracts/mock/MockSwapHelper.sol:MockSwapHelper",
        "label": "swap",
        "offset": 0,
        "slot": "0",
        "type": "t_contract(MockSwap)646"
      }
    ],
    "types": {
      "t_contract(MockSwap)646": {
        "encoding": "inplace",
        "label": "contract MockSwap",
        "numberOfBytes": "20"
      }
    }
  }
}