{
  "address": "0xf2a8FDF74E37EBc533e79f550ffbBC7eE4DB8d7B",
  "abi": [
    {
      "anonymous": false,
      "inputs": [
        {
          "indexed": true,
          "internalType": "address",
          "name": "delegator",
          "type": "address"
        },
        {
          "indexed": false,
          "internalType": "uint256",
          "name": "accrued",
          "type": "uint256"
        },
        {
          "indexed": false,
          "internalType": "uint256",
          "name": "totalStaked",
          "type": "uint256"
        }
      ],
      "name": "Accrue",
      "type": "event"
    },
    {
      "anonymous": false,
      "inputs": [
        {
          "indexed": true,
          "internalType": "address",
          "name": "user",
          "type": "address"
        },
        {
          "indexed": true,
          "internalType": "address",
          "name": "vault",
          "type": "address"
        },
        {
          "indexed": false,
          "internalType": "uint256",
          "name": "equity",
          "type": "uint256"
        },
        {
          "indexed": false,
          "internalType": "uint256",
          "name": "debtInBase",
          "type": "uint256"
        },
        {
          "indexed": false,
          "internalType": "uint256",
          "name": "debt",
          "type": "uint256"
        },
        {
          "indexed": false,
          "internalType": "uint256",
          "name": "share",
          "type": "uint256"
        }
      ],
      "name": "AddPosition",
      "type": "event"
    },
    {
      "anonymous": false,
      "inputs": [
        {
          "indexed": false,
          "internalType": "address",
          "name": "token",
          "type": "address"
        },
        {
          "indexed": false,
          "internalType": "address",
          "name": "vault",
          "type": "address"
        }
      ],
      "name": "AddVault",
      "type": "event"
    },
    {
      "anonymous": false,
      "inputs": [
        {
          "indexed": false,
          "internalType": "address",
          "name": "delegator",
          "type": "address"
        }
      ],
      "name": "ChangeDelegator",
      "type": "event"
    },
    {
      "anonymous": false,
      "inputs": [
        {
          "indexed": false,
          "internalType": "address",
          "name": "uEVMOS",
          "type": "address"
        }
      ],
      "name": "ChangeUEVMOS",
      "type": "event"
    },
    {
      "anonymous": false,
      "inputs": [
        {
          "indexed": false,
          "internalType": "uint8",
          "name": "version",
          "type": "uint8"
        }
      ],
      "name": "Initialized",
      "type": "event"
    },
    {
      "anonymous": false,
      "inputs": [
        {
          "indexed": true,
          "internalType": "address",
          "name": "killer",
          "type": "address"
        },
        {
          "indexed": true,
          "internalType": "address",
          "name": "user",
          "type": "address"
        },
        {
          "indexed": false,
          "internalType": "address",
          "name": "vault",
          "type": "address"
        },
        {
          "indexed": false,
          "internalType": "uint256",
          "name": "equity",
          "type": "uint256"
        },
        {
          "indexed": false,
          "internalType": "uint256",
          "name": "debtInBase",
          "type": "uint256"
        },
        {
          "indexed": false,
          "internalType": "uint256",
          "name": "debt",
          "type": "uint256"
        },
        {
          "indexed": false,
          "internalType": "uint256",
          "name": "share",
          "type": "uint256"
        }
      ],
      "name": "Kill",
      "type": "event"
    },
    {
      "anonymous": false,
      "inputs": [
        {
          "indexed": true,
          "internalType": "address",
          "name": "previousOwner",
          "type": "address"
        },
        {
          "indexed": true,
          "internalType": "address",
          "name": "newOwner",
          "type": "address"
        }
      ],
      "name": "OwnershipTransferred",
      "type": "event"
    },
    {
      "anonymous": false,
      "inputs": [
        {
          "indexed": true,
          "internalType": "address",
          "name": "user",
          "type": "address"
        },
        {
          "indexed": true,
          "internalType": "address",
          "name": "vault",
          "type": "address"
        },
        {
          "indexed": false,
          "internalType": "uint256",
          "name": "amount",
          "type": "uint256"
        },
        {
          "indexed": false,
          "internalType": "uint256",
          "name": "share",
          "type": "uint256"
        },
        {
          "indexed": false,
          "internalType": "uint256",
          "name": "debt",
          "type": "uint256"
        }
      ],
      "name": "PositionChanged",
      "type": "event"
    },
    {
      "anonymous": false,
      "inputs": [
        {
          "indexed": true,
          "internalType": "address",
          "name": "user",
          "type": "address"
        },
        {
          "indexed": true,
          "internalType": "address",
          "name": "vault",
          "type": "address"
        },
        {
          "indexed": false,
          "internalType": "uint256",
          "name": "equity",
          "type": "uint256"
        },
        {
          "indexed": false,
          "internalType": "uint256",
          "name": "debtInBase",
          "type": "uint256"
        },
        {
          "indexed": false,
          "internalType": "uint256",
          "name": "debt",
          "type": "uint256"
        },
        {
          "indexed": false,
          "internalType": "uint256",
          "name": "share",
          "type": "uint256"
        }
      ],
      "name": "RemovePosition",
      "type": "event"
    },
    {
      "anonymous": false,
      "inputs": [
        {
          "indexed": true,
          "internalType": "address",
          "name": "delegator",
          "type": "address"
        },
        {
          "indexed": true,
          "internalType": "address",
          "name": "user",
          "type": "address"
        },
        {
          "indexed": false,
          "internalType": "uint256",
          "name": "amount",
          "type": "uint256"
        },
        {
          "indexed": false,
          "internalType": "uint256",
          "name": "share",
          "type": "uint256"
        }
      ],
      "name": "Stake",
      "type": "event"
    },
    {
      "anonymous": false,
      "inputs": [
        {
          "indexed": true,
          "internalType": "address",
          "name": "delegator",
          "type": "address"
        },
        {
          "indexed": true,
          "internalType": "address",
          "name": "user",
          "type": "address"
        },
        {
          "indexed": false,
          "internalType": "uint256",
          "name": "amount",
          "type": "uint256"
        },
        {
          "indexed": false,
          "internalType": "uint256",
          "name": "share",
          "type": "uint256"
        }
      ],
      "name": "Unstake",
      "type": "event"
    },
    {
      "anonymous": false,
      "inputs": [
        {
          "indexed": false,
          "internalType": "uint256",
          "name": "minDebtInBase",
          "type": "uint256"
        },
        {
          "indexed": false,
          "internalType": "uint256",
          "name": "reservedBps",
          "type": "uint256"
        },
        {
          "indexed": false,
          "internalType": "uint256",
          "name": "vaultRewardBps",
          "type": "uint256"
        },
        {
          "indexed": false,
          "internalType": "uint256",
          "name": "killFactorBps",
          "type": "uint256"
        },
        {
          "indexed": false,
          "internalType": "uint256",
          "name": "liquidateDebtFactorBps",
          "type": "uint256"
        },
        {
          "indexed": false,
          "internalType": "uint256",
          "name": "liquidationFeeBps",
          "type": "uint256"
        }
      ],
      "name": "UpdateConfigs",
      "type": "event"
    },
    {
      "anonymous": false,
      "inputs": [
        {
          "indexed": false,
          "internalType": "address",
          "name": "token",
          "type": "address"
        },
        {
          "indexed": false,
          "internalType": "address",
          "name": "vault",
          "type": "address"
        }
      ],
      "name": "UpdateVault",
      "type": "event"
    },
    {
      "stateMutability": "payable",
      "type": "fallback"
    },
    {
      "inputs": [
        {
          "internalType": "address",
          "name": "delegator_",
          "type": "address"
        },
        {
          "internalType": "address",
          "name": "uEVMOS_",
          "type": "address"
        }
      ],
      "name": "__Stayking_init",
      "outputs": [],
      "stateMutability": "nonpayable",
      "type": "function"
    },
    {
      "inputs": [
        {
          "internalType": "uint256",
          "name": "totalStaked",
          "type": "uint256"
        }
      ],
      "name": "accrue",
      "outputs": [],
      "stateMutability": "payable",
      "type": "function"
    },
    {
      "inputs": [
        {
          "internalType": "address",
          "name": "debtToken",
          "type": "address"
        },
        {
          "internalType": "uint256",
          "name": "equity",
          "type": "uint256"
        },
        {
          "internalType": "uint256",
          "name": "debtInBase",
          "type": "uint256"
        }
      ],
      "name": "addPosition",
      "outputs": [],
      "stateMutability": "payable",
      "type": "function"
    },
    {
      "inputs": [
        {
          "internalType": "uint256",
          "name": "amount",
          "type": "uint256"
        }
      ],
      "name": "amountToShare",
      "outputs": [
        {
          "internalType": "uint256",
          "name": "",
          "type": "uint256"
        }
      ],
      "stateMutability": "view",
      "type": "function"
    },
    {
      "inputs": [
        {
          "internalType": "address",
          "name": "_delegator",
          "type": "address"
        }
      ],
      "name": "changeDelegator",
      "outputs": [],
      "stateMutability": "nonpayable",
      "type": "function"
    },
    {
      "inputs": [
        {
          "internalType": "address",
          "name": "debtToken",
          "type": "address"
        },
        {
          "internalType": "int256",
          "name": "equityInBaseChanged",
          "type": "int256"
        },
        {
          "internalType": "int256",
          "name": "debtInBaseChanged",
          "type": "int256"
        },
        {
          "internalType": "uint256",
          "name": "repaidDebt",
          "type": "uint256"
        }
      ],
      "name": "changePosition",
      "outputs": [],
      "stateMutability": "payable",
      "type": "function"
    },
    {
      "inputs": [
        {
          "internalType": "address",
          "name": "_uevmos",
          "type": "address"
        }
      ],
      "name": "changeUnbondedEvmos",
      "outputs": [],
      "stateMutability": "nonpayable",
      "type": "function"
    },
    {
      "inputs": [
        {
          "internalType": "address",
          "name": "token",
          "type": "address"
        },
        {
          "internalType": "uint256",
          "name": "amount",
          "type": "uint256"
        }
      ],
      "name": "claimReserves",
      "outputs": [],
      "stateMutability": "nonpayable",
      "type": "function"
    },
    {
      "inputs": [
        {
          "internalType": "address",
          "name": "user",
          "type": "address"
        },
        {
          "internalType": "address",
          "name": "vault",
          "type": "address"
        }
      ],
      "name": "debtAmountOf",
      "outputs": [
        {
          "internalType": "uint256",
          "name": "",
          "type": "uint256"
        }
      ],
      "stateMutability": "view",
      "type": "function"
    },
    {
      "inputs": [],
      "name": "delegator",
      "outputs": [
        {
          "internalType": "address",
          "name": "",
          "type": "address"
        }
      ],
      "stateMutability": "view",
      "type": "function"
    },
    {
      "inputs": [
        {
          "internalType": "uint256",
          "name": "reward",
          "type": "uint256"
        }
      ],
      "name": "getAccruedValue",
      "outputs": [
        {
          "internalType": "uint256",
          "name": "",
          "type": "uint256"
        }
      ],
      "stateMutability": "view",
      "type": "function"
    },
    {
      "inputs": [
        {
          "internalType": "address",
          "name": "debtToken",
          "type": "address"
        },
        {
          "internalType": "uint256",
          "name": "positionId",
          "type": "uint256"
        }
      ],
      "name": "isKillable",
      "outputs": [
        {
          "internalType": "bool",
          "name": "",
          "type": "bool"
        }
      ],
      "stateMutability": "view",
      "type": "function"
    },
    {
      "inputs": [
        {
          "internalType": "address",
          "name": "debtToken",
          "type": "address"
        },
        {
          "internalType": "uint256",
          "name": "positionId",
          "type": "uint256"
        }
      ],
      "name": "kill",
      "outputs": [],
      "stateMutability": "nonpayable",
      "type": "function"
    },
    {
      "inputs": [],
      "name": "killFactorBps",
      "outputs": [
        {
          "internalType": "uint256",
          "name": "",
          "type": "uint256"
        }
      ],
      "stateMutability": "view",
      "type": "function"
    },
    {
      "inputs": [],
      "name": "liquidateDebtFactorBps",
      "outputs": [
        {
          "internalType": "uint256",
          "name": "",
          "type": "uint256"
        }
      ],
      "stateMutability": "view",
      "type": "function"
    },
    {
      "inputs": [],
      "name": "liquidationFeeBps",
      "outputs": [
        {
          "internalType": "uint256",
          "name": "",
          "type": "uint256"
        }
      ],
      "stateMutability": "view",
      "type": "function"
    },
    {
      "inputs": [],
      "name": "minDebtInBase",
      "outputs": [
        {
          "internalType": "uint256",
          "name": "",
          "type": "uint256"
        }
      ],
      "stateMutability": "view",
      "type": "function"
    },
    {
      "inputs": [],
      "name": "owner",
      "outputs": [
        {
          "internalType": "address",
          "name": "",
          "type": "address"
        }
      ],
      "stateMutability": "view",
      "type": "function"
    },
    {
      "inputs": [
        {
          "internalType": "address",
          "name": "",
          "type": "address"
        },
        {
          "internalType": "address",
          "name": "",
          "type": "address"
        }
      ],
      "name": "positionIdOf",
      "outputs": [
        {
          "internalType": "uint256",
          "name": "",
          "type": "uint256"
        }
      ],
      "stateMutability": "view",
      "type": "function"
    },
    {
      "inputs": [
        {
          "internalType": "address",
          "name": "user",
          "type": "address"
        },
        {
          "internalType": "address",
          "name": "debtToken",
          "type": "address"
        }
      ],
      "name": "positionInfo",
      "outputs": [
        {
          "internalType": "uint256",
          "name": "positionValueInBase",
          "type": "uint256"
        },
        {
          "internalType": "uint256",
          "name": "debtInBase",
          "type": "uint256"
        },
        {
          "internalType": "uint256",
          "name": "debt",
          "type": "uint256"
        },
        {
          "internalType": "uint256",
          "name": "positionId",
          "type": "uint256"
        }
      ],
      "stateMutability": "view",
      "type": "function"
    },
    {
      "inputs": [
        {
          "internalType": "address",
          "name": "",
          "type": "address"
        },
        {
          "internalType": "uint256",
          "name": "",
          "type": "uint256"
        }
      ],
      "name": "positions",
      "outputs": [
        {
          "internalType": "address",
          "name": "user",
          "type": "address"
        },
        {
          "internalType": "uint256",
          "name": "share",
          "type": "uint256"
        }
      ],
      "stateMutability": "view",
      "type": "function"
    },
    {
      "inputs": [
        {
          "internalType": "address",
          "name": "",
          "type": "address"
        }
      ],
      "name": "positionsLengthOf",
      "outputs": [
        {
          "internalType": "uint256",
          "name": "",
          "type": "uint256"
        }
      ],
      "stateMutability": "view",
      "type": "function"
    },
    {
      "inputs": [
        {
          "internalType": "address",
          "name": "debtToken",
          "type": "address"
        }
      ],
      "name": "removePosition",
      "outputs": [],
      "stateMutability": "nonpayable",
      "type": "function"
    },
    {
      "inputs": [],
      "name": "renounceOwnership",
      "outputs": [],
      "stateMutability": "nonpayable",
      "type": "function"
    },
    {
      "inputs": [],
      "name": "reservedBps",
      "outputs": [
        {
          "internalType": "uint256",
          "name": "",
          "type": "uint256"
        }
      ],
      "stateMutability": "view",
      "type": "function"
    },
    {
      "inputs": [],
      "name": "reservedPool",
      "outputs": [
        {
          "internalType": "uint256",
          "name": "",
          "type": "uint256"
        }
      ],
      "stateMutability": "view",
      "type": "function"
    },
    {
      "inputs": [
        {
          "internalType": "uint256",
          "name": "share",
          "type": "uint256"
        }
      ],
      "name": "shareToAmount",
      "outputs": [
        {
          "internalType": "uint256",
          "name": "",
          "type": "uint256"
        }
      ],
      "stateMutability": "view",
      "type": "function"
    },
    {
      "inputs": [
        {
          "internalType": "address",
          "name": "",
          "type": "address"
        }
      ],
      "name": "tokenToVault",
      "outputs": [
        {
          "internalType": "address",
          "name": "",
          "type": "address"
        }
      ],
      "stateMutability": "view",
      "type": "function"
    },
    {
      "inputs": [],
      "name": "totalAmount",
      "outputs": [
        {
          "internalType": "uint256",
          "name": "",
          "type": "uint256"
        }
      ],
      "stateMutability": "view",
      "type": "function"
    },
    {
      "inputs": [
        {
          "internalType": "address",
          "name": "",
          "type": "address"
        }
      ],
      "name": "totalDebtOf",
      "outputs": [
        {
          "internalType": "uint256",
          "name": "",
          "type": "uint256"
        }
      ],
      "stateMutability": "view",
      "type": "function"
    },
    {
      "inputs": [],
      "name": "totalShare",
      "outputs": [
        {
          "internalType": "uint256",
          "name": "",
          "type": "uint256"
        }
      ],
      "stateMutability": "view",
      "type": "function"
    },
    {
      "inputs": [
        {
          "internalType": "address",
          "name": "newOwner",
          "type": "address"
        }
      ],
      "name": "transferOwnership",
      "outputs": [],
      "stateMutability": "nonpayable",
      "type": "function"
    },
    {
      "inputs": [],
      "name": "uEVMOS",
      "outputs": [
        {
          "internalType": "contract IUnbondedEvmos",
          "name": "",
          "type": "address"
        }
      ],
      "stateMutability": "view",
      "type": "function"
    },
    {
      "inputs": [
        {
          "internalType": "uint256",
          "name": "_minDebtInBase",
          "type": "uint256"
        },
        {
          "internalType": "uint256",
          "name": "_reservedBps",
          "type": "uint256"
        },
        {
          "internalType": "uint256",
          "name": "_vaultRewardBps",
          "type": "uint256"
        },
        {
          "internalType": "uint256",
          "name": "_killFactorBps",
          "type": "uint256"
        },
        {
          "internalType": "uint256",
          "name": "_liquidateDebtFactorBps",
          "type": "uint256"
        },
        {
          "internalType": "uint256",
          "name": "_liquidationFeeBps",
          "type": "uint256"
        }
      ],
      "name": "updateConfigs",
      "outputs": [],
      "stateMutability": "nonpayable",
      "type": "function"
    },
    {
      "inputs": [
        {
          "internalType": "address",
          "name": "token",
          "type": "address"
        },
        {
          "internalType": "address",
          "name": "vault",
          "type": "address"
        }
      ],
      "name": "updateVault",
      "outputs": [],
      "stateMutability": "nonpayable",
      "type": "function"
    },
    {
      "inputs": [
        {
          "internalType": "address[]",
          "name": "killers",
          "type": "address[]"
        },
        {
          "internalType": "bool",
          "name": "ok",
          "type": "bool"
        }
      ],
      "name": "updateWhitelistedKillerStatus",
      "outputs": [],
      "stateMutability": "nonpayable",
      "type": "function"
    },
    {
      "inputs": [],
      "name": "vaultRewardBps",
      "outputs": [
        {
          "internalType": "uint256",
          "name": "",
          "type": "uint256"
        }
      ],
      "stateMutability": "view",
      "type": "function"
    },
    {
      "inputs": [
        {
          "internalType": "uint256",
          "name": "",
          "type": "uint256"
        }
      ],
      "name": "vaults",
      "outputs": [
        {
          "internalType": "address",
          "name": "",
          "type": "address"
        }
      ],
      "stateMutability": "view",
      "type": "function"
    },
    {
      "inputs": [
        {
          "internalType": "address",
          "name": "",
          "type": "address"
        }
      ],
      "name": "whitelistedKiller",
      "outputs": [
        {
          "internalType": "bool",
          "name": "",
          "type": "bool"
        }
      ],
      "stateMutability": "view",
      "type": "function"
    },
    {
      "stateMutability": "payable",
      "type": "receive"
    }
  ],
  "transactionHash": "0x75d03f06d38bdf1f743b3565326ccd9e0eba3f2caab8934f16a7f5a231c666e2",
  "args": [],
  "numDeployments": 8,
  "solcInputHash": "173880e0ec13e2856cf38ce259e871c0",
  "bytecode": "0x608060405234801561001057600080fd5b50613303806100206000396000f3fe60806040526004361061021c5760003560e01c80638c64ea4a11610122578063c1be6677116100a5578063e031a8241161006c578063e031a824146106c7578063e4175aee146106dd578063f0e63edf146106fd578063f2fde38b14610713578063fc8389951461073357005b8063c1be667714610615578063ce9b793014610654578063cff07fd114610674578063d87cad6714610687578063df5ca1f8146106a757005b8063afd06b34116100e9578063afd06b341461056a578063b1ae5ed31461058a578063b2a2a96b146105aa578063bb94d3db146105ca578063bed06b0b1461060257005b80638c64ea4a146104af5780638da5cb5b146104cf57806392707802146104ed5780639f2b28331461050d578063a3381d281461053a57005b806346c22429116101aa57806352e83e521161017157806352e83e52146104215780635ff0253114610437578063715018a614610467578063744f4cf61461047c5780637727d1201461048f57005b806346c224291461035e5780634b11181b1461037e5780635066f3b51461039e57806351dabb75146103de57806352728e4b1461040b57005b80631b451d28116101ee5780631b451d28146102c857806327dfaf92146102e857806328f55a6c146103085780632d4047e51461031e5780632d6f80131461033e57005b8063026c4207146102255780630c7e17251461024e578063178483a71461029c5780631a39d8ef146102b257005b3661022357005b005b34801561023157600080fd5b5061023b609c5481565b6040519081526020015b60405180910390f35b34801561025a57600080fd5b50610284610269366004612efe565b6099602052600090815260409020546001600160a01b031681565b6040516001600160a01b039091168152602001610245565b3480156102a857600080fd5b5061023b609d5481565b3480156102be57600080fd5b5061023b609b5481565b3480156102d457600080fd5b506102236102e3366004612f19565b610749565b3480156102f457600080fd5b5061023b610303366004612f19565b610a49565b34801561031457600080fd5b5061023b60a05481565b34801561032a57600080fd5b5061023b610339366004612f4c565b610ac0565b34801561034a57600080fd5b5061023b610359366004612f4c565b610af0565b34801561036a57600080fd5b50610223610379366004612f65565b610b0d565b34801561038a57600080fd5b50610223610399366004612f9d565b610b5e565b3480156103aa57600080fd5b506103be6103b9366004612f19565b610bdd565b604080519485526020850193909352918301526060820152608001610245565b3480156103ea57600080fd5b5061023b6103f9366004612efe565b60a76020526000908152604090205481565b34801561041757600080fd5b5061023b60a15481565b34801561042d57600080fd5b5061023b609e5481565b34801561044357600080fd5b50610457610452366004612f65565b610d58565b6040519015158152602001610245565b34801561047357600080fd5b50610223610e0a565b61022361048a366004612f4c565b610e1e565b34801561049b57600080fd5b506102236104aa366004612efe565b61150d565b3480156104bb57600080fd5b506102846104ca366004612f4c565b61156a565b3480156104db57600080fd5b506033546001600160a01b0316610284565b3480156104f957600080fd5b50610223610508366004612f65565b611594565b34801561051957600080fd5b5061023b610528366004612efe565b60a86020526000908152604090205481565b34801561054657600080fd5b50610457610555366004612efe565b60986020526000908152604090205460ff1681565b34801561057657600080fd5b5060a454610284906001600160a01b031681565b34801561059657600080fd5b506102236105a5366004612efe565b61180b565b3480156105b657600080fd5b506102236105c5366004612f19565b611861565b3480156105d657600080fd5b5061023b6105e5366004612f19565b60a560209081526000928352604080842090915290825290205481565b610223610610366004613023565b6119e6565b34801561062157600080fd5b50610635610630366004612f65565b611f09565b604080516001600160a01b039093168352602083019190915201610245565b34801561066057600080fd5b50609754610284906001600160a01b031681565b61022361068236600461305c565b611f4f565b34801561069357600080fd5b506102236106a236600461308f565b61226f565b3480156106b357600080fd5b506102236106c2366004612efe565b6122f0565b3480156106d357600080fd5b5061023b60a25481565b3480156106e957600080fd5b5061023b6106f8366004612f4c565b612530565b34801561070957600080fd5b5061023b60a35481565b34801561071f57600080fd5b5061022361072e366004612efe565b612662565b34801561073f57600080fd5b5061023b609f5481565b6107516126d8565b6001600160a01b03808316600090815260996020526040902054168061080157609a80546001810182556000919091527f44da158ba27f9252712a74ff6a55c5d531f69609f1f6e7f17c4443a8e2089be40180546001600160a01b0319166001600160a01b0384811691821790925560408051928616835260208301919091527f7f03ac7449144076e2d9d5a237c3ff0d0108e0a2ebdd5213c4b0de6f4d4f6953910160405180910390a16109c5565b806001600160a01b031663c8dffa956040518163ffffffff1660e01b8152600401602060405180830381865afa15801561083f573d6000803e3d6000fd5b505050506040513d601f19601f8201168201806040525081019061086391906130d2565b156108ce5760405162461bcd60e51b815260206004820152603060248201527f7570646174655661756c743a20446562742072656d61696e73206f6e2074686560448201526f1032bc34b9ba34b733903b30bab63a1760811b60648201526084015b60405180910390fd5b609a546000805b8281101561097157836001600160a01b0316609a82815481106108fa576108fa6130eb565b6000918252602090912001546001600160a01b03160361095f5784609a8281548110610928576109286130eb565b9060005260206000200160006101000a8154816001600160a01b0302191690836001600160a01b0316021790555060019150610971565b8061096981613117565b9150506108d5565b508061097f5761097f613130565b604080516001600160a01b038088168252861660208201527f4cc233b502e1e28f371b28114d4a8be87a93f330c18e3c339079fc498320fb8d910160405180910390a150505b506001600160a01b03918216600090815260996020908152604080832080546001600160a01b031990811695871695861790915584845260a68352818420825180840184528581528085018681528254600181810185559388528688209251600290910290920180549094169190981617825595519086015592825260a790522055565b604051636592183b60e01b81526001600160a01b03838116600483015260009190831690636592183b90602401602060405180830381865afa158015610a93573d6000803e3d6000fd5b505050506040513d601f19601f82011682018060405250810190610ab791906130d2565b90505b92915050565b6000609b54600014610aec57609b5482609c54610add9190613146565b610ae7919061315d565b610aba565b5090565b6000609c54600014610aec57609c5482609b54610add9190613146565b610b156126d8565b6001600160a01b038216610b4257610b3e610b386033546001600160a01b031690565b82612732565b5050565b610b3e82610b586033546001600160a01b031690565b836127e4565b610b666126d8565b60005b82811015610bd7578160986000868685818110610b8857610b886130eb565b9050602002016020810190610b9d9190612efe565b6001600160a01b031681526020810191909152604001600020805460ff191691151591909117905580610bcf81613117565b915050610b69565b50505050565b6001600160a01b03808216600090815260996020908152604080832054868516845260a5835281842094168084529382528083205460a69092528220805492938493849392849184908110610c3457610c346130eb565b60009182526020918290206040805180820190915260029092020180546001600160a01b03168252600101549181018290529150610c7190610af0565b604051636592183b60e01b81526001600160a01b038a8116600483015291975090831690636592183b90602401602060405180830381865afa158015610cbb573d6000803e3d6000fd5b505050506040513d601f19601f82011682018060405250810190610cdf91906130d2565b6040516312bad57f60e31b8152600481018290529094506001600160a01b038316906395d6abf890602401602060405180830381865afa158015610d27573d6000803e3d6000fd5b505050506040513d601f19601f82011682018060405250810190610d4b91906130d2565b9450505092959194509250565b6001600160a01b0380831660009081526099602090815260408083205490931680835260a6909152918120805491929183919085908110610d9b57610d9b6130eb565b600091825260208083206040805180820190915260029093020180546001600160a01b03168352600101549082018190529092509003610de057600092505050610aba565b6000610dfe838360200151610df9856000015187610a49565b6128ef565b50159695505050505050565b610e126126d8565b610e1c600061298c565b565b6097546001600160a01b03163314610e845760405162461bcd60e51b8152602060048201526024808201527f537461796b696e673a204e6f742077686974656c69737465642064656c6567616044820152633a37b91760e11b60648201526084016108c5565b609b54811015610ee75760405162461bcd60e51b815260206004820152602860248201527f6163637275653a20746f74616c5374616b6564203c206265666f726520746f74604482015267185b105b5bdd5b9d60c21b60648201526084016108c5565b60003411610f465760405162461bcd60e51b815260206004820152602660248201527f6163637275653a20596f752073686f756c642073656e6420636c61696d65642060448201526522ab26a7a99760d11b60648201526084016108c5565b6000612710609e5434610f599190613146565b610f63919061315d565b90508060a36000828254610f77919061317f565b9091555050609a54600090818167ffffffffffffffff811115610f9c57610f9c613192565b604051908082528060200260200182016040528015610fc5578160200160208202803683370190505b50905060005b828110156110af57609a8181548110610fe657610fe66130eb565b6000918252602091829020015460408051630f5f4c7f60e21b815290516001600160a01b0390921692633d7d31fc926004808401938290030181865afa158015611034573d6000803e3d6000fd5b505050506040513d601f19601f8201168201806040525081019061105891906130d2565b82828151811061106a5761106a6130eb565b602002602001018181525050818181518110611088576110886130eb565b60200260200101518461109b919061317f565b9350806110a781613117565b915050610fcb565b5060006110bc85346131a8565b9050836000036111295780609b60008282546110d8919061317f565b9091555050609b5460405133917f68f604dad2502091469814ccdd58acac4592d7766a922eee86e6ab9965cfe9499161111991858252602082015260400190565b60405180910390a2505050505050565b8084106112cb5760005b83811015611280576000609a8281548110611150576111506130eb565b600091825260208220015485516001600160a01b03909116925087908590879086908110611180576111806130eb565b60200260200101516111929190613146565b61119c919061315d565b6040516315d6dae960e01b8152600481018290529091506000906001600160a01b038416906315d6dae990602401602060405180830381865afa1580156111e7573d6000803e3d6000fd5b505050506040513d601f19601f8201168201806040525081019061120b91906130d2565b60405163ad452d7560e01b8152600481018290529091506001600160a01b0384169063ad452d759084906024016000604051808303818588803b15801561125157600080fd5b505af1158015611265573d6000803e3d6000fd5b5050505050505050808061127890613117565b915050611133565b50609b5460405133917f68f604dad2502091469814ccdd58acac4592d7766a922eee86e6ab9965cfe949916112be9160008252602082015260400190565b60405180910390a2611504565b609f548590600090612710906112e188866131a8565b6112eb9190613146565b6112f5919061315d565b905060005b8581101561148557600087868381518110611317576113176130eb565b60200260200101518461132a9190613146565b611334919061315d565b868381518110611346576113466130eb565b6020026020010151611358919061317f565b9050609a828154811061136d5761136d6130eb565b600091825260209091200154609a80546001600160a01b039092169163ad452d75918491869081106113a1576113a16130eb565b6000918252602091829020015460408051636d22f63f60e11b815290516001600160a01b039092169263da45ec7e926004808401938290030181865afa1580156113ef573d6000803e3d6000fd5b505050506040513d601f19601f8201168201806040525081019061141391906130d2565b6040518363ffffffff1660e01b815260040161143191815260200190565b6000604051808303818588803b15801561144a57600080fd5b505af115801561145e573d6000803e3d6000fd5b5050505050808461146f919061317f565b935050808061147d90613117565b9150506112fa565b50600061149283346131a8565b905080156114bc5780609b60008282546114ac919061317f565b909155506114bc90503382612732565b609b5460405133917f68f604dad2502091469814ccdd58acac4592d7766a922eee86e6ab9965cfe949916114f891858252602082015260400190565b60405180910390a25050505b50505050505b50565b6115156126d8565b60a480546001600160a01b0319166001600160a01b0383169081179091556040519081527f653e4ae347af17869ed05423220be95186b147bff05096b155f9b0f9648e3b3e906020015b60405180910390a150565b609a818154811061157a57600080fd5b6000918252602090912001546001600160a01b0316905081565b3360009081526098602052604090205460ff166115fd5760405162461bcd60e51b815260206004820152602160248201527f537461796b696e673a204e6f742077686974656c6973746564204b696c6c65726044820152601760f91b60648201526084016108c5565b6001600160a01b0380831660009081526099602090815260408083205490931680835260a690915291812080548490811061163a5761163a6130eb565b9060005260206000209060020201905060008160010154116116975760405162461bcd60e51b815260206004820152601660248201527535b4b6361d103932b6b7bb32b2103837b9b4ba34b7b760511b60448201526064016108c5565b80546000906116af906001600160a01b031684610a49565b90506000806116c3858560010154856128ef565b9150915081156117155760405162461bcd60e51b815260206004820152601a60248201527f6b696c6c3a207374696c6c207361666520706f736974696f6e2e00000000000060448201526064016108c5565b60006117248560010154610af0565b9050600061271060a254836117399190613146565b611743919061315d565b905061175286888488856129de565b85546001600160a01b0316337f62b067e31c5a2d2734bc19924c46c930e1b7063b5b473238f2f8bb7ab88a15b6898587116117965761179187876131a8565b611799565b60005b60018b0154604080516001600160a01b0390941684526020840192909252908201889052606082018a9052608082015260a00160405180910390a3505092546001600160a01b03908116600090815260a560209081526040808320979093168252959095528420939093555050505050565b6118136126d8565b609780546001600160a01b0319166001600160a01b0383169081179091556040519081527fc46722a14b09e7b7e59991ec89fb4bb88ffed57f1b2187a65e959f5c0053716d9060200161155f565b600054610100900460ff16158080156118815750600054600160ff909116105b8061189b5750303b15801561189b575060005460ff166001145b6118fe5760405162461bcd60e51b815260206004820152602e60248201527f496e697469616c697a61626c653a20636f6e747261637420697320616c72656160448201526d191e481a5b9a5d1a585b1a5e995960921b60648201526084016108c5565b6000805460ff191660011790558015611921576000805461ff0019166101001790555b61271060a15561192f612b16565b611937612b45565b611954662386f26fc10000610bb86107d0611d4c806101f461226f565b60a480546001600160a01b0319166001600160a01b0384161790556119788361180b565b6001600160a01b0383166000908152609860205260409020805460ff1916600117905580156119e1576000805461ff0019169055604051600181527f7f26b83ff96e1f2b6a682f133852f6798a09c465da95921460cefb38474024989060200160405180910390a15b505050565b6001600160a01b0380851660009081526099602090815260408083205433845260a5835281842094168084529390915290205480611a665760405162461bcd60e51b815260206004820152601b60248201527f6368616e6765506f736974696f6e3a206e6f20706f736974696f6e000000000060448201526064016108c5565b6001600160a01b038216600090815260a660205260408120805483908110611a9057611a906130eb565b906000526020600020906002020190506000808712611b0b5786341015611b055760405162461bcd60e51b8152602060048201526024808201527f6368616e6765506f736974696f6e3a204e6f7420656e6f756768206d73672e76604482015263616c756560e01b60648201526084016108c5565b86340390505b600080600080611b1b8b8b612b74565b935093509350935060008112611b3c57611b35818661317f565b9450611b6f565b611b45816131bb565b8510611b5e57611b54816131bb565b611b3590866131a8565b60009450611b6c85826131d7565b90505b8315611c07578115611bee5760405163185cc75160e01b8152336004820152602481018390526001600160a01b0389169063185cc751906044016020604051808303816000875af1158015611bc8573d6000803e3d6000fd5b505050506040513d601f19601f82011682018060405250810190611bec91906130d2565b505b611c0186611bfc848661317f565b612c9f565b50611d2d565b6000808212611c17576000611c20565b611c20826131bb565b611c2a848661317f565b611c34919061317f565b905060a15481611c449190613146565b611c5084612710613146565b1115611caf5760405162461bcd60e51b815260206004820152602860248201527f756e7374616b653a20746f6f206d756368206465627420696e20756e7374616b60448201526765642045564d4f5360c01b60648201526084016108c5565b611d2b878a838c6001600160a01b03166315d6dae9886040518263ffffffff1660e01b8152600401611ce391815260200190565b602060405180830381865afa158015611d00573d6000803e3d6000fd5b505050506040513d601f19601f82011682018060405250810190611d2491906130d2565b60006129de565b505b8815611da057611d3f8c33308c612d61565b604051630724e59160e41b8152336004820152602481018a90526001600160a01b0389169063724e591090604401600060405180830381600087803b158015611d8757600080fd5b505af1158015611d9b573d6000803e3d6000fd5b505050505b8415611e1b57604051639d2e6fcb60e01b8152336004820152600160248201526001600160a01b03891690639d2e6fcb90879060440160206040518083038185885af1158015611df4573d6000803e3d6000fd5b50505050506040513d601f19601f82011682018060405250810190611e1991906130d2565b505b6000611e27338a610a49565b90506000611e3a8a8960010154846128ef565b50905080611e8a5760405162461bcd60e51b815260206004820152601860248201527f6368616e6765506f736974696f6e3a206261642064656274000000000000000060448201526064016108c5565b5050876001600160a01b0316336001600160a01b03167ff35a14688e4794e8022cd9e5c7ec6475a6095ef189dea9647fad0de771465b8a611ece8960010154610af0565b8960010154611edd338e610a49565b6040805193845260208401929092529082015260600160405180910390a3505050505050505050505050565b60a66020528160005260406000208181548110611f2557600080fd5b6000918252602090912060029091020180546001909101546001600160a01b039091169250905082565b6001600160a01b0380841660009081526099602090815260408083205433845260a5835281842094168084529390915290205415611fda5760405162461bcd60e51b815260206004820152602260248201527f616464506f736974696f6e3a20616c7265616479206861766520706f7369746960448201526137b760f11b60648201526084016108c5565b3483146120295760405162461bcd60e51b815260206004820181905260248201527f616464506f736974696f6e3a206d73672e76616c756520213d2065717569747960448201526064016108c5565b6000612035838561317f565b905060a054816120459190613146565b61205184612710613146565b106120b25760405162461bcd60e51b815260206004820152602b60248201527f616464506f736974696f6e3a2062616420646562742c2063616e6e6f74206f7060448201526a32b7103837b9b4ba34b7b760a91b60648201526084016108c5565b60008084116120c2576000612133565b60405163185cc75160e01b8152336004820152602481018590526001600160a01b0384169063185cc751906044016020604051808303816000875af115801561210f573d6000803e3d6000fd5b505050506040513d601f19601f8201168201806040525081019061213391906130d2565b6001600160a01b03848116600081815260a660209081526040808320815180830183523381528084018581528254600180820185559387528587209251600290910290920180546001600160a01b03191692909816919091178755519581019590955592825260a790529081208054939450906121b0838561317f565b909155505033600090815260a5602090815260408083206001600160a01b0388168452825280832084905560a69091528120805461220d9190849081106121f9576121f96130eb565b906000526020600020906002020185612c9f565b6040805189815260208101899052908101859052606081018290529091506001600160a01b0386169033907f92b0fd5c6dbe6ec5b43a8afae4c587c1db47afcca43a21b7800bd848fcf8e4969060800160405180910390a35050505050505050565b6122776126d8565b609d869055609e859055609f84905560a083815560a183905560a282905560408051888152602081018890528082018790526060810186905260808101859052918201839052517ff158be3136d3d369b2d9c9c22945209d8f58efdcf51cf332b7c88f78bd1f171c9181900360c00190a1505050505050565b6001600160a01b0380821660009081526099602090815260408083205490931680835260a6825283832033845260a58352848420828552909252928220548154811061233e5761233e6130eb565b9060005260206000209060020201905060008160010154116123b55760405162461bcd60e51b815260206004820152602a60248201527f72656d6f7665506f736974696f6e3a204e6f20706f736974696f6e20666f72206044820152693a3434b9903a37b5b2b760b11b60648201526084016108c5565b60006123c13384610a49565b6040516312bad57f60e31b8152600481018290529091506000906001600160a01b038516906395d6abf890602401602060405180830381865afa15801561240c573d6000803e3d6000fd5b505050506040513d601f19601f8201168201806040525081019061243091906130d2565b905060006124418460010154610af0565b90506124518486838660006129de565b818110156124a15760405162461bcd60e51b815260206004820152601860248201527f72656d6f7665506f736974696f6e3a204261642064656274000000000000000060448201526064016108c5565b6001600160a01b038516337f3cb91b4d61d4fefa96da17651a09b54f7b6751cb68d11134cf0efe0a496579686124d785856131a8565b600188015460408051928352602083018890528201889052606082015260800160405180910390a3505033600090815260a5602090815260408083206001600160a01b0396909616835294905292832092909255505050565b600080612710609e54846125449190613146565b61254e919061315d565b609a549091506000805b8281101561260357609a8181548110612573576125736130eb565b6000918252602091829020015460408051630f5f4c7f60e21b815290516001600160a01b0390921692633d7d31fc926004808401938290030181865afa1580156125c1573d6000803e3d6000fd5b505050506040513d601f19601f820116820180604052508101906125e591906130d2565b6125ef908361317f565b9150806125fb81613117565b915050612558565b508461260f828561317f565b1061261d5750929392505050565b612710609f5461271061263091906131a8565b8261263b86896131a8565b61264591906131a8565b61264f9190613146565b612659919061315d565b95945050505050565b61266a6126d8565b6001600160a01b0381166126cf5760405162461bcd60e51b815260206004820152602660248201527f4f776e61626c653a206e6577206f776e657220697320746865207a65726f206160448201526564647265737360d01b60648201526084016108c5565b61150a8161298c565b6033546001600160a01b03163314610e1c5760405162461bcd60e51b815260206004820181905260248201527f4f776e61626c653a2063616c6c6572206973206e6f7420746865206f776e657260448201526064016108c5565b604080516000808252602082019092526001600160a01b03841690839060405161275c91906131ff565b60006040518083038185875af1925050503d8060008114612799576040519150601f19603f3d011682016040523d82523d6000602084013e61279e565b606091505b50509050806119e15760405162461bcd60e51b815260206004820152601260248201527121736166655472616e7366657245564d4f5360701b60448201526064016108c5565b604080516001600160a01b038481166024830152604480830185905283518084039091018152606490920183526020820180516001600160e01b031663a9059cbb60e01b179052915160009283929087169161284091906131ff565b6000604051808303816000865af19150503d806000811461287d576040519150601f19603f3d011682016040523d82523d6000602084013e612882565b606091505b50915091508180156128ac5750805115806128ac5750808060200190518101906128ac919061322e565b6128e85760405162461bcd60e51b815260206004820152600d60248201526c10b9b0b332aa3930b739b332b960991b60448201526064016108c5565b5050505050565b6040516312bad57f60e31b81526004810182905260009081906001600160a01b038616906395d6abf890602401602060405180830381865afa158015612939573d6000803e3d6000fd5b505050506040513d601f19601f8201168201806040525081019061295d91906130d2565b905060a05461296b85610af0565b6129759190613146565b61298182612710613146565b109150935093915050565b603380546001600160a01b038381166001600160a01b0319831681179093556040519116919082907f8be0079c531659141344cd1fd0a4f28419497f9722a3daafe3b4186f6b6457e090600090a35050565b60006129e984610ac0565b9050808660010160008282546129ff91906131a8565b9250508190555083609b6000828254612a1891906131a8565b9250508190555080609c6000828254612a3191906131a8565b909155506000905083612a45576000612abb565b8654604051631a4e1aef60e01b81526001600160a01b0391821660048201526024810186905290871690631a4e1aef906044016020604051808303816000875af1158015612a97573d6000803e3d6000fd5b505050506040513d601f19601f82011682018060405250810190612abb91906130d2565b875460975460408051898152602081018790529394506001600160a01b039283169392909116917f18edd09e80386cd99df397e2e0d87d2bb259423eae08645e776321a36fe680ef910160405180910390a350505050505050565b600054610100900460ff16612b3d5760405162461bcd60e51b81526004016108c590613252565b610e1c612e71565b600054610100900460ff16612b6c5760405162461bcd60e51b81526004016108c590613252565b610e1c612ea1565b600080808080612b84868861329d565b1215612be65760405162461bcd60e51b815260206004820152602b60248201527f657175697479496e426173654368616e676564202a2064656274496e4261736560448201526a04368616e676564203c20360ac1b60648201526084016108c5565b6000612bf2868861329d565b1215612c6e5760008613612c0587612ecf565b9350612c1086612ecf565b9250828411612c405780156000612c2786866131a8565b83612c3a57612c35876131bb565b612c5d565b86612c5d565b80612c4b84866131a8565b600083612c5b57612c35866131bb565b855b92975090955093509150612c969050565b612c7786612ecf565b9250612c8285612ecf565b91506000861380612c935750600085135b93505b92959194509250565b6000612caa82610ac0565b905080836001016000828254612cc0919061317f565b9250508190555081609b6000828254612cd9919061317f565b9250508190555080609c6000828254612cf2919061317f565b9091555050609754612d0d906001600160a01b031683612732565b825460975460408051858152602081018590526001600160a01b0393841693909216917f63602d0ecc7b3a0ef7ff1a116e23056662d64280355ba8031b6d0d767c4b4458910160405180910390a392915050565b604080516001600160a01b0385811660248301528481166044830152606480830185905283518084039091018152608490920183526020820180516001600160e01b03166323b872dd60e01b1790529151600092839290881691612dc591906131ff565b6000604051808303816000865af19150503d8060008114612e02576040519150601f19603f3d011682016040523d82523d6000602084013e612e07565b606091505b5091509150818015612e31575080511580612e31575080806020019051810190612e31919061322e565b6115045760405162461bcd60e51b815260206004820152601160248201527021736166655472616e7366657246726f6d60781b60448201526064016108c5565b600054610100900460ff16612e985760405162461bcd60e51b81526004016108c590613252565b610e1c3361298c565b600054610100900460ff16612ec85760405162461bcd60e51b81526004016108c590613252565b6001606555565b600080821215610aec57610ae7826131bb565b80356001600160a01b0381168114612ef957600080fd5b919050565b600060208284031215612f1057600080fd5b610ab782612ee2565b60008060408385031215612f2c57600080fd5b612f3583612ee2565b9150612f4360208401612ee2565b90509250929050565b600060208284031215612f5e57600080fd5b5035919050565b60008060408385031215612f7857600080fd5b612f8183612ee2565b946020939093013593505050565b801515811461150a57600080fd5b600080600060408486031215612fb257600080fd5b833567ffffffffffffffff80821115612fca57600080fd5b818601915086601f830112612fde57600080fd5b813581811115612fed57600080fd5b8760208260051b850101111561300257600080fd5b6020928301955093505084013561301881612f8f565b809150509250925092565b6000806000806080858703121561303957600080fd5b61304285612ee2565b966020860135965060408601359560600135945092505050565b60008060006060848603121561307157600080fd5b61307a84612ee2565b95602085013595506040909401359392505050565b60008060008060008060c087890312156130a857600080fd5b505084359660208601359650604086013595606081013595506080810135945060a0013592509050565b6000602082840312156130e457600080fd5b5051919050565b634e487b7160e01b600052603260045260246000fd5b634e487b7160e01b600052601160045260246000fd5b60006001820161312957613129613101565b5060010190565b634e487b7160e01b600052600160045260246000fd5b8082028115828204841417610aba57610aba613101565b60008261317a57634e487b7160e01b600052601260045260246000fd5b500490565b80820180821115610aba57610aba613101565b634e487b7160e01b600052604160045260246000fd5b81810381811115610aba57610aba613101565b6000600160ff1b82016131d0576131d0613101565b5060000390565b80820182811260008312801582168215821617156131f7576131f7613101565b505092915050565b6000825160005b818110156132205760208186018101518583015201613206565b506000920191825250919050565b60006020828403121561324057600080fd5b815161324b81612f8f565b9392505050565b6020808252602b908201527f496e697469616c697a61626c653a20636f6e7472616374206973206e6f74206960408201526a6e697469616c697a696e6760a81b606082015260800190565b80820260008212600160ff1b841416156132b9576132b9613101565b8181058314821517610aba57610aba61310156fea26469706673582212205fdee29057a955caf2a2c0a48059deb93aaab1759864afffb910bc358c698acf64736f6c63430008110033",
  "devdoc": {
    "kind": "dev",
    "methods": {
      "accrue(uint256)": {
        "details": "msg.value = all of staking reward",
        "params": {
          "totalStaked": "current total staked EVMOS (except staking reward)"
        }
      },
      "addPosition(address,uint256,uint256)": {
        "params": {
          "debtInBase": "debtAmount in EVMOS",
          "debtToken": "debtToken Address (not vault address)",
          "equity": "equityAmount in EVMOS"
        }
      },
      "changePosition(address,int256,int256,uint256)": {
        "details": "repayDebtInBase = msg.value - changeEquityInBaseUser should approve this firstif msg.value > 0, changeEquityInBase >= 0 since msg.value = changeEquityInBase + repayDebtInBase"
      },
      "getAccruedValue(uint256)": {
        "params": {
          "reward": "claimed staking reward"
        }
      },
      "owner()": {
        "details": "Returns the address of the current owner."
      },
      "positionInfo(address,address)": {
        "details": "returns position's value & debt value position value: positionValueInBase equity value: positionValueInBase - debtInBase debt value: debtInBase debt ratio: debtInBase / positionValueInBase * 100(%) kill factor: killFactorBps / 100 safety buffer: (kill factor) - (debt ratio)"
      },
      "removePosition(address)": {
        "details": "remove all position of debtToken vault.",
        "params": {
          "debtToken": "debtToken Address (not vault address)"
        }
      },
      "renounceOwnership()": {
        "details": "Leaves the contract without owner. It will not be possible to call `onlyOwner` functions anymore. Can only be called by the current owner. NOTE: Renouncing ownership will leave the contract without an owner, thereby removing any functionality that is only available to the owner."
      },
      "transferOwnership(address)": {
        "details": "Transfers ownership of the contract to a new account (`newOwner`). Can only be called by the current owner."
      }
    },
    "stateVariables": {
      "minDebtInBase": {
        "details": "min debtAmount in EVMOS (base token)"
      },
      "positionIdOf": {
        "details": "userAddress => vaultAddress => positionId (array Index of position)"
      },
      "positions": {
        "details": "vaultAddress => Position[]"
      },
      "reservedPool": {
        "details": "EVMOS amount reserved by Protocol"
      },
      "totalAmount": {
        "details": "kor)    + auto-compound "
      },
      "totalShare": {
        "details": "kor) auto-compound totalShare  .     ( /totalAmount) * totalShare  share ."
      }
    },
    "version": 1
  },
  "userdoc": {
    "kind": "user",
    "methods": {
      "accrue(uint256)": {
        "notice": "kor)    1. (Stayking)  ->  reward  (reservedBps / 100)%  2. Vault Interest(  calc by interestModel) (1) \" reward  N%\"   ,  reward interest    .  , ( reward - )  Vault Interest . (2)   ( ) reward Vault Interest . 3. Vault reward / Reinvested Amount 2-(2)  reward /     (vaultRewardBps / 100)% Vault  reward ,  Reinvest."
      },
      "amountToShare(uint256)": {
        "notice": "   (  / totalAmount) * totalShare  share ."
      },
      "changePosition(address,int256,int256,uint256)": {
        "notice": "change position value case 1. equityInBaseChanged > 0 - increase position value (stake more) - decrease debt ratio case 2. equityInBaseChanged < 0 - decrease position value (partial close) - increase debt ratio case 3. debtInBaseChanged > 0 (borrow more debt) - increase position value (stake more) - increase debt ratio case 4. debtInBaseChanged < 0 (repay debt by unstaking) - decrease position value (partial) - decrease debt ratio case 5. repaidDebt > 0 or repaidDebtInBase > 0 (repay debt with user's own token/EVMOS) - position value not changes (not call stake/unstake function) - decrease debt ratioIf equityInBaseChanged(=A) > 0 and debtInBaseChanged(=B) < 0, it is inefficient. e.g. A = 100 and B = -50, 50 EVMOS is Locked at uEVMOS. it produces the same result as if A = 50 and C = 50. (both increases equity by 50 EVMOS and repay debt by 50 EVMOS) Similarly, the case where equityInBaseChanged < 0 and debtInBaseChanged > 0 are also inefficient. So, we revert all cases where equityInBaseChanged * debtInBaseChanged < 0."
      },
      "removePosition(address)": {
        "notice": "kor)  100%      . ->   ."
      }
    },
    "version": 1
  },
  "storageLayout": {
    "storage": [
      {
        "astId": 2748,
        "contract": "contracts/Stayking.sol:Stayking",
        "label": "_initialized",
        "offset": 0,
        "slot": "0",
        "type": "t_uint8"
      },
      {
        "astId": 2751,
        "contract": "contracts/Stayking.sol:Stayking",
        "label": "_initializing",
        "offset": 1,
        "slot": "0",
        "type": "t_bool"
      },
      {
        "astId": 2740,
        "contract": "contracts/Stayking.sol:Stayking",
        "label": "__gap",
        "offset": 0,
        "slot": "1",
        "type": "t_array(t_uint256)50_storage"
      },
      {
        "astId": 2903,
        "contract": "contracts/Stayking.sol:Stayking",
        "label": "_owner",
        "offset": 0,
        "slot": "51",
        "type": "t_address"
      },
      {
        "astId": 3023,
        "contract": "contracts/Stayking.sol:Stayking",
        "label": "__gap",
        "offset": 0,
        "slot": "52",
        "type": "t_array(t_uint256)49_storage"
      },
      {
        "astId": 3038,
        "contract": "contracts/Stayking.sol:Stayking",
        "label": "_status",
        "offset": 0,
        "slot": "101",
        "type": "t_uint256"
      },
      {
        "astId": 3082,
        "contract": "contracts/Stayking.sol:Stayking",
        "label": "__gap",
        "offset": 0,
        "slot": "102",
        "type": "t_array(t_uint256)49_storage"
      },
      {
        "astId": 141,
        "contract": "contracts/Stayking.sol:Stayking",
        "label": "delegator",
        "offset": 0,
        "slot": "151",
        "type": "t_address"
      },
      {
        "astId": 145,
        "contract": "contracts/Stayking.sol:Stayking",
        "label": "whitelistedKiller",
        "offset": 0,
        "slot": "152",
        "type": "t_mapping(t_address,t_bool)"
      },
      {
        "astId": 150,
        "contract": "contracts/Stayking.sol:Stayking",
        "label": "tokenToVault",
        "offset": 0,
        "slot": "153",
        "type": "t_mapping(t_address,t_address)"
      },
      {
        "astId": 153,
        "contract": "contracts/Stayking.sol:Stayking",
        "label": "vaults",
        "offset": 0,
        "slot": "154",
        "type": "t_array(t_address)dyn_storage"
      },
      {
        "astId": 157,
        "contract": "contracts/Stayking.sol:Stayking",
        "label": "totalAmount",
        "offset": 0,
        "slot": "155",
        "type": "t_uint256"
      },
      {
        "astId": 161,
        "contract": "contracts/Stayking.sol:Stayking",
        "label": "totalShare",
        "offset": 0,
        "slot": "156",
        "type": "t_uint256"
      },
      {
        "astId": 165,
        "contract": "contracts/Stayking.sol:Stayking",
        "label": "minDebtInBase",
        "offset": 0,
        "slot": "157",
        "type": "t_uint256"
      },
      {
        "astId": 168,
        "contract": "contracts/Stayking.sol:Stayking",
        "label": "reservedBps",
        "offset": 0,
        "slot": "158",
        "type": "t_uint256"
      },
      {
        "astId": 171,
        "contract": "contracts/Stayking.sol:Stayking",
        "label": "vaultRewardBps",
        "offset": 0,
        "slot": "159",
        "type": "t_uint256"
      },
      {
        "astId": 174,
        "contract": "contracts/Stayking.sol:Stayking",
        "label": "killFactorBps",
        "offset": 0,
        "slot": "160",
        "type": "t_uint256"
      },
      {
        "astId": 177,
        "contract": "contracts/Stayking.sol:Stayking",
        "label": "liquidateDebtFactorBps",
        "offset": 0,
        "slot": "161",
        "type": "t_uint256"
      },
      {
        "astId": 180,
        "contract": "contracts/Stayking.sol:Stayking",
        "label": "liquidationFeeBps",
        "offset": 0,
        "slot": "162",
        "type": "t_uint256"
      },
      {
        "astId": 183,
        "contract": "contracts/Stayking.sol:Stayking",
        "label": "reservedPool",
        "offset": 0,
        "slot": "163",
        "type": "t_uint256"
      },
      {
        "astId": 186,
        "contract": "contracts/Stayking.sol:Stayking",
        "label": "uEVMOS",
        "offset": 0,
        "slot": "164",
        "type": "t_contract(IUnbondedEvmos)2230"
      },
      {
        "astId": 199,
        "contract": "contracts/Stayking.sol:Stayking",
        "label": "positionIdOf",
        "offset": 0,
        "slot": "165",
        "type": "t_mapping(t_address,t_mapping(t_address,t_uint256))"
      },
      {
        "astId": 206,
        "contract": "contracts/Stayking.sol:Stayking",
        "label": "positions",
        "offset": 0,
        "slot": "166",
        "type": "t_mapping(t_address,t_array(t_struct(Position)192_storage)dyn_storage)"
      },
      {
        "astId": 210,
        "contract": "contracts/Stayking.sol:Stayking",
        "label": "positionsLengthOf",
        "offset": 0,
        "slot": "167",
        "type": "t_mapping(t_address,t_uint256)"
      },
      {
        "astId": 214,
        "contract": "contracts/Stayking.sol:Stayking",
        "label": "totalDebtOf",
        "offset": 0,
        "slot": "168",
        "type": "t_mapping(t_address,t_uint256)"
      }
    ],
    "types": {
      "t_address": {
        "encoding": "inplace",
        "label": "address",
        "numberOfBytes": "20"
      },
      "t_array(t_address)dyn_storage": {
        "base": "t_address",
        "encoding": "dynamic_array",
        "label": "address[]",
        "numberOfBytes": "32"
      },
      "t_array(t_struct(Position)192_storage)dyn_storage": {
        "base": "t_struct(Position)192_storage",
        "encoding": "dynamic_array",
        "label": "struct Stayking.Position[]",
        "numberOfBytes": "32"
      },
      "t_array(t_uint256)49_storage": {
        "base": "t_uint256",
        "encoding": "inplace",
        "label": "uint256[49]",
        "numberOfBytes": "1568"
      },
      "t_array(t_uint256)50_storage": {
        "base": "t_uint256",
        "encoding": "inplace",
        "label": "uint256[50]",
        "numberOfBytes": "1600"
      },
      "t_bool": {
        "encoding": "inplace",
        "label": "bool",
        "numberOfBytes": "1"
      },
      "t_contract(IUnbondedEvmos)2230": {
        "encoding": "inplace",
        "label": "contract IUnbondedEvmos",
        "numberOfBytes": "20"
      },
      "t_mapping(t_address,t_address)": {
        "encoding": "mapping",
        "key": "t_address",
        "label": "mapping(address => address)",
        "numberOfBytes": "32",
        "value": "t_address"
      },
      "t_mapping(t_address,t_array(t_struct(Position)192_storage)dyn_storage)": {
        "encoding": "mapping",
        "key": "t_address",
        "label": "mapping(address => struct Stayking.Position[])",
        "numberOfBytes": "32",
        "value": "t_array(t_struct(Position)192_storage)dyn_storage"
      },
      "t_mapping(t_address,t_bool)": {
        "encoding": "mapping",
        "key": "t_address",
        "label": "mapping(address => bool)",
        "numberOfBytes": "32",
        "value": "t_bool"
      },
      "t_mapping(t_address,t_mapping(t_address,t_uint256))": {
        "encoding": "mapping",
        "key": "t_address",
        "label": "mapping(address => mapping(address => uint256))",
        "numberOfBytes": "32",
        "value": "t_mapping(t_address,t_uint256)"
      },
      "t_mapping(t_address,t_uint256)": {
        "encoding": "mapping",
        "key": "t_address",
        "label": "mapping(address => uint256)",
        "numberOfBytes": "32",
        "value": "t_uint256"
      },
      "t_struct(Position)192_storage": {
        "encoding": "inplace",
        "label": "struct Stayking.Position",
        "members": [
          {
            "astId": 188,
            "contract": "contracts/Stayking.sol:Stayking",
            "label": "user",
            "offset": 0,
            "slot": "0",
            "type": "t_address"
          },
          {
            "astId": 191,
            "contract": "contracts/Stayking.sol:Stayking",
            "label": "share",
            "offset": 0,
            "slot": "1",
            "type": "t_uint256"
          }
        ],
        "numberOfBytes": "64"
      },
      "t_uint256": {
        "encoding": "inplace",
        "label": "uint256",
        "numberOfBytes": "32"
      },
      "t_uint8": {
        "encoding": "inplace",
        "label": "uint8",
        "numberOfBytes": "1"
      }
    }
  }
}