{
  "address": "0x876939152C56362e17D508B9DEA77a3fDF9e4083",
  "abi": [
    {
      "anonymous": false,
      "inputs": [
        {
          "indexed": true,
          "internalType": "address",
          "name": "delegator",
          "type": "address"
        },
        {
          "indexed": false,
          "internalType": "uint256",
          "name": "totalStaked",
          "type": "uint256"
        },
        {
          "indexed": false,
          "internalType": "uint256",
          "name": "distributed",
          "type": "uint256"
        }
      ],
      "name": "Accrue",
      "type": "event"
    },
    {
      "anonymous": false,
      "inputs": [
        {
          "indexed": true,
          "internalType": "address",
          "name": "user",
          "type": "address"
        },
        {
          "indexed": true,
          "internalType": "address",
          "name": "vault",
          "type": "address"
        },
        {
          "indexed": false,
          "internalType": "uint256",
          "name": "equity",
          "type": "uint256"
        },
        {
          "indexed": false,
          "internalType": "uint256",
          "name": "debtInBase",
          "type": "uint256"
        },
        {
          "indexed": false,
          "internalType": "uint256",
          "name": "debt",
          "type": "uint256"
        },
        {
          "indexed": false,
          "internalType": "uint256",
          "name": "share",
          "type": "uint256"
        }
      ],
      "name": "AddPosition",
      "type": "event"
    },
    {
      "anonymous": false,
      "inputs": [
        {
          "indexed": false,
          "internalType": "address",
          "name": "token",
          "type": "address"
        },
        {
          "indexed": false,
          "internalType": "address",
          "name": "vault",
          "type": "address"
        }
      ],
      "name": "AddVault",
      "type": "event"
    },
    {
      "anonymous": false,
      "inputs": [
        {
          "indexed": false,
          "internalType": "address",
          "name": "delegator",
          "type": "address"
        }
      ],
      "name": "ChangeDelegator",
      "type": "event"
    },
    {
      "anonymous": false,
      "inputs": [
        {
          "indexed": false,
          "internalType": "uint8",
          "name": "version",
          "type": "uint8"
        }
      ],
      "name": "Initialized",
      "type": "event"
    },
    {
      "anonymous": false,
      "inputs": [
        {
          "indexed": true,
          "internalType": "address",
          "name": "killer",
          "type": "address"
        },
        {
          "indexed": true,
          "internalType": "address",
          "name": "user",
          "type": "address"
        },
        {
          "indexed": false,
          "internalType": "address",
          "name": "vault",
          "type": "address"
        },
        {
          "indexed": false,
          "internalType": "uint256",
          "name": "equity",
          "type": "uint256"
        },
        {
          "indexed": false,
          "internalType": "uint256",
          "name": "debtInBase",
          "type": "uint256"
        },
        {
          "indexed": false,
          "internalType": "uint256",
          "name": "debt",
          "type": "uint256"
        },
        {
          "indexed": false,
          "internalType": "uint256",
          "name": "share",
          "type": "uint256"
        }
      ],
      "name": "Kill",
      "type": "event"
    },
    {
      "anonymous": false,
      "inputs": [
        {
          "indexed": true,
          "internalType": "address",
          "name": "previousOwner",
          "type": "address"
        },
        {
          "indexed": true,
          "internalType": "address",
          "name": "newOwner",
          "type": "address"
        }
      ],
      "name": "OwnershipTransferred",
      "type": "event"
    },
    {
      "anonymous": false,
      "inputs": [
        {
          "indexed": true,
          "internalType": "address",
          "name": "user",
          "type": "address"
        },
        {
          "indexed": true,
          "internalType": "address",
          "name": "vault",
          "type": "address"
        },
        {
          "indexed": false,
          "internalType": "uint256",
          "name": "amount",
          "type": "uint256"
        },
        {
          "indexed": false,
          "internalType": "uint256",
          "name": "share",
          "type": "uint256"
        },
        {
          "indexed": false,
          "internalType": "uint256",
          "name": "debt",
          "type": "uint256"
        }
      ],
      "name": "PositionChanged",
      "type": "event"
    },
    {
      "anonymous": false,
      "inputs": [
        {
          "indexed": true,
          "internalType": "address",
          "name": "user",
          "type": "address"
        },
        {
          "indexed": true,
          "internalType": "address",
          "name": "vault",
          "type": "address"
        },
        {
          "indexed": false,
          "internalType": "uint256",
          "name": "equity",
          "type": "uint256"
        },
        {
          "indexed": false,
          "internalType": "uint256",
          "name": "debtInBase",
          "type": "uint256"
        },
        {
          "indexed": false,
          "internalType": "uint256",
          "name": "debt",
          "type": "uint256"
        },
        {
          "indexed": false,
          "internalType": "uint256",
          "name": "share",
          "type": "uint256"
        }
      ],
      "name": "RemovePosition",
      "type": "event"
    },
    {
      "anonymous": false,
      "inputs": [
        {
          "indexed": true,
          "internalType": "address",
          "name": "delegator",
          "type": "address"
        },
        {
          "indexed": true,
          "internalType": "address",
          "name": "user",
          "type": "address"
        },
        {
          "indexed": false,
          "internalType": "uint256",
          "name": "amount",
          "type": "uint256"
        },
        {
          "indexed": false,
          "internalType": "uint256",
          "name": "share",
          "type": "uint256"
        }
      ],
      "name": "Stake",
      "type": "event"
    },
    {
      "anonymous": false,
      "inputs": [
        {
          "indexed": true,
          "internalType": "address",
          "name": "delegator",
          "type": "address"
        },
        {
          "indexed": true,
          "internalType": "address",
          "name": "user",
          "type": "address"
        },
        {
          "indexed": false,
          "internalType": "uint256",
          "name": "amount",
          "type": "uint256"
        },
        {
          "indexed": false,
          "internalType": "uint256",
          "name": "share",
          "type": "uint256"
        }
      ],
      "name": "Unstake",
      "type": "event"
    },
    {
      "anonymous": false,
      "inputs": [
        {
          "indexed": false,
          "internalType": "uint256",
          "name": "minDebtInBase",
          "type": "uint256"
        },
        {
          "indexed": false,
          "internalType": "uint256",
          "name": "killFactorBps",
          "type": "uint256"
        },
        {
          "indexed": false,
          "internalType": "uint256",
          "name": "reservedBps",
          "type": "uint256"
        }
      ],
      "name": "UpdateConfigs",
      "type": "event"
    },
    {
      "anonymous": false,
      "inputs": [
        {
          "indexed": false,
          "internalType": "address",
          "name": "token",
          "type": "address"
        },
        {
          "indexed": false,
          "internalType": "address",
          "name": "vault",
          "type": "address"
        }
      ],
      "name": "UpdateVault",
      "type": "event"
    },
    {
      "stateMutability": "payable",
      "type": "fallback"
    },
    {
      "inputs": [
        {
          "internalType": "address",
          "name": "delegator_",
          "type": "address"
        },
        {
          "internalType": "address",
          "name": "uEVMOS_",
          "type": "address"
        }
      ],
      "name": "__Stayking_init",
      "outputs": [],
      "stateMutability": "nonpayable",
      "type": "function"
    },
    {
      "inputs": [
        {
          "internalType": "uint256",
          "name": "totalStaked",
          "type": "uint256"
        }
      ],
      "name": "accrue",
      "outputs": [],
      "stateMutability": "payable",
      "type": "function"
    },
    {
      "inputs": [
        {
          "internalType": "address",
          "name": "debtToken",
          "type": "address"
        },
        {
          "internalType": "uint256",
          "name": "extraDebtInBase",
          "type": "uint256"
        }
      ],
      "name": "addDebt",
      "outputs": [],
      "stateMutability": "nonpayable",
      "type": "function"
    },
    {
      "inputs": [
        {
          "internalType": "address",
          "name": "debtToken",
          "type": "address"
        },
        {
          "internalType": "uint256",
          "name": "extraEquity",
          "type": "uint256"
        }
      ],
      "name": "addEquity",
      "outputs": [],
      "stateMutability": "payable",
      "type": "function"
    },
    {
      "inputs": [
        {
          "internalType": "address",
          "name": "debtToken",
          "type": "address"
        },
        {
          "internalType": "uint256",
          "name": "equity",
          "type": "uint256"
        },
        {
          "internalType": "uint256",
          "name": "debtInBase",
          "type": "uint256"
        }
      ],
      "name": "addPosition",
      "outputs": [],
      "stateMutability": "payable",
      "type": "function"
    },
    {
      "inputs": [
        {
          "internalType": "uint256",
          "name": "amount",
          "type": "uint256"
        }
      ],
      "name": "amountToShare",
      "outputs": [
        {
          "internalType": "uint256",
          "name": "",
          "type": "uint256"
        }
      ],
      "stateMutability": "view",
      "type": "function"
    },
    {
      "inputs": [
        {
          "internalType": "address",
          "name": "_delegator",
          "type": "address"
        }
      ],
      "name": "changeDelegator",
      "outputs": [],
      "stateMutability": "nonpayable",
      "type": "function"
    },
    {
      "inputs": [
        {
          "internalType": "address",
          "name": "debtToken",
          "type": "address"
        },
        {
          "internalType": "int256",
          "name": "equityInBaseChanged",
          "type": "int256"
        },
        {
          "internalType": "int256",
          "name": "debtInBaseChanged",
          "type": "int256"
        },
        {
          "internalType": "uint256",
          "name": "repaidDebt",
          "type": "uint256"
        }
      ],
      "name": "changePosition",
      "outputs": [],
      "stateMutability": "payable",
      "type": "function"
    },
    {
      "inputs": [
        {
          "internalType": "address",
          "name": "user",
          "type": "address"
        },
        {
          "internalType": "address",
          "name": "vault",
          "type": "address"
        }
      ],
      "name": "debtAmountOf",
      "outputs": [
        {
          "internalType": "uint256",
          "name": "",
          "type": "uint256"
        }
      ],
      "stateMutability": "view",
      "type": "function"
    },
    {
      "inputs": [],
      "name": "delegator",
      "outputs": [
        {
          "internalType": "address",
          "name": "",
          "type": "address"
        }
      ],
      "stateMutability": "view",
      "type": "function"
    },
    {
      "inputs": [
        {
          "internalType": "uint256",
          "name": "totalStaked",
          "type": "uint256"
        }
      ],
      "name": "getAccruedValue",
      "outputs": [
        {
          "internalType": "uint256",
          "name": "",
          "type": "uint256"
        }
      ],
      "stateMutability": "view",
      "type": "function"
    },
    {
      "inputs": [
        {
          "internalType": "address",
          "name": "debtToken",
          "type": "address"
        },
        {
          "internalType": "uint256",
          "name": "positionId",
          "type": "uint256"
        }
      ],
      "name": "isKillable",
      "outputs": [
        {
          "internalType": "bool",
          "name": "healthy",
          "type": "bool"
        }
      ],
      "stateMutability": "view",
      "type": "function"
    },
    {
      "inputs": [
        {
          "internalType": "address",
          "name": "debtToken",
          "type": "address"
        },
        {
          "internalType": "uint256",
          "name": "positionId",
          "type": "uint256"
        }
      ],
      "name": "kill",
      "outputs": [],
      "stateMutability": "nonpayable",
      "type": "function"
    },
    {
      "inputs": [],
      "name": "killFactorBps",
      "outputs": [
        {
          "internalType": "uint256",
          "name": "",
          "type": "uint256"
        }
      ],
      "stateMutability": "view",
      "type": "function"
    },
    {
      "inputs": [],
      "name": "minDebtInBase",
      "outputs": [
        {
          "internalType": "uint256",
          "name": "",
          "type": "uint256"
        }
      ],
      "stateMutability": "view",
      "type": "function"
    },
    {
      "inputs": [],
      "name": "owner",
      "outputs": [
        {
          "internalType": "address",
          "name": "",
          "type": "address"
        }
      ],
      "stateMutability": "view",
      "type": "function"
    },
    {
      "inputs": [
        {
          "internalType": "address",
          "name": "",
          "type": "address"
        },
        {
          "internalType": "address",
          "name": "",
          "type": "address"
        }
      ],
      "name": "positionIdOf",
      "outputs": [
        {
          "internalType": "uint256",
          "name": "",
          "type": "uint256"
        }
      ],
      "stateMutability": "view",
      "type": "function"
    },
    {
      "inputs": [
        {
          "internalType": "address",
          "name": "user",
          "type": "address"
        },
        {
          "internalType": "address",
          "name": "debtToken",
          "type": "address"
        }
      ],
      "name": "positionInfo",
      "outputs": [
        {
          "internalType": "uint256",
          "name": "positionValueInBase",
          "type": "uint256"
        },
        {
          "internalType": "uint256",
          "name": "debtInBase",
          "type": "uint256"
        },
        {
          "internalType": "uint256",
          "name": "debt",
          "type": "uint256"
        }
      ],
      "stateMutability": "view",
      "type": "function"
    },
    {
      "inputs": [
        {
          "internalType": "address",
          "name": "",
          "type": "address"
        },
        {
          "internalType": "uint256",
          "name": "",
          "type": "uint256"
        }
      ],
      "name": "positions",
      "outputs": [
        {
          "internalType": "address",
          "name": "user",
          "type": "address"
        },
        {
          "internalType": "uint256",
          "name": "share",
          "type": "uint256"
        }
      ],
      "stateMutability": "view",
      "type": "function"
    },
    {
      "inputs": [
        {
          "internalType": "address",
          "name": "",
          "type": "address"
        }
      ],
      "name": "positionsLengthOf",
      "outputs": [
        {
          "internalType": "uint256",
          "name": "",
          "type": "uint256"
        }
      ],
      "stateMutability": "view",
      "type": "function"
    },
    {
      "inputs": [
        {
          "internalType": "address",
          "name": "debtToken",
          "type": "address"
        }
      ],
      "name": "removePosition",
      "outputs": [],
      "stateMutability": "nonpayable",
      "type": "function"
    },
    {
      "inputs": [],
      "name": "renounceOwnership",
      "outputs": [],
      "stateMutability": "nonpayable",
      "type": "function"
    },
    {
      "inputs": [
        {
          "internalType": "address",
          "name": "debtToken",
          "type": "address"
        },
        {
          "internalType": "uint256",
          "name": "repaidDebt",
          "type": "uint256"
        }
      ],
      "name": "repayDebt",
      "outputs": [],
      "stateMutability": "nonpayable",
      "type": "function"
    },
    {
      "inputs": [
        {
          "internalType": "address",
          "name": "debtToken",
          "type": "address"
        },
        {
          "internalType": "uint256",
          "name": "minRepaid",
          "type": "uint256"
        }
      ],
      "name": "repayDebtInBase",
      "outputs": [],
      "stateMutability": "payable",
      "type": "function"
    },
    {
      "inputs": [],
      "name": "reservedBps",
      "outputs": [
        {
          "internalType": "uint256",
          "name": "",
          "type": "uint256"
        }
      ],
      "stateMutability": "view",
      "type": "function"
    },
    {
      "inputs": [],
      "name": "reservedPool",
      "outputs": [
        {
          "internalType": "uint256",
          "name": "",
          "type": "uint256"
        }
      ],
      "stateMutability": "view",
      "type": "function"
    },
    {
      "inputs": [
        {
          "internalType": "uint256",
          "name": "share",
          "type": "uint256"
        }
      ],
      "name": "shareToAmount",
      "outputs": [
        {
          "internalType": "uint256",
          "name": "",
          "type": "uint256"
        }
      ],
      "stateMutability": "view",
      "type": "function"
    },
    {
      "inputs": [
        {
          "internalType": "address",
          "name": "",
          "type": "address"
        }
      ],
      "name": "tokenToVault",
      "outputs": [
        {
          "internalType": "address",
          "name": "",
          "type": "address"
        }
      ],
      "stateMutability": "view",
      "type": "function"
    },
    {
      "inputs": [],
      "name": "totalAmount",
      "outputs": [
        {
          "internalType": "uint256",
          "name": "",
          "type": "uint256"
        }
      ],
      "stateMutability": "view",
      "type": "function"
    },
    {
      "inputs": [
        {
          "internalType": "address",
          "name": "",
          "type": "address"
        }
      ],
      "name": "totalDebtOf",
      "outputs": [
        {
          "internalType": "uint256",
          "name": "",
          "type": "uint256"
        }
      ],
      "stateMutability": "view",
      "type": "function"
    },
    {
      "inputs": [],
      "name": "totalShare",
      "outputs": [
        {
          "internalType": "uint256",
          "name": "",
          "type": "uint256"
        }
      ],
      "stateMutability": "view",
      "type": "function"
    },
    {
      "inputs": [
        {
          "internalType": "address",
          "name": "newOwner",
          "type": "address"
        }
      ],
      "name": "transferOwnership",
      "outputs": [],
      "stateMutability": "nonpayable",
      "type": "function"
    },
    {
      "inputs": [],
      "name": "uEVMOS",
      "outputs": [
        {
          "internalType": "contract IUnbondedEvmos",
          "name": "",
          "type": "address"
        }
      ],
      "stateMutability": "view",
      "type": "function"
    },
    {
      "inputs": [
        {
          "internalType": "uint256",
          "name": "_minDebtInBase",
          "type": "uint256"
        },
        {
          "internalType": "uint256",
          "name": "_killFactorBps",
          "type": "uint256"
        },
        {
          "internalType": "uint256",
          "name": "_reservedBps",
          "type": "uint256"
        }
      ],
      "name": "updateConfigs",
      "outputs": [],
      "stateMutability": "nonpayable",
      "type": "function"
    },
    {
      "inputs": [
        {
          "internalType": "address",
          "name": "token",
          "type": "address"
        },
        {
          "internalType": "address",
          "name": "vault",
          "type": "address"
        }
      ],
      "name": "updateVault",
      "outputs": [],
      "stateMutability": "nonpayable",
      "type": "function"
    },
    {
      "inputs": [
        {
          "internalType": "uint256",
          "name": "",
          "type": "uint256"
        }
      ],
      "name": "vaults",
      "outputs": [
        {
          "internalType": "address",
          "name": "",
          "type": "address"
        }
      ],
      "stateMutability": "view",
      "type": "function"
    },
    {
      "inputs": [
        {
          "internalType": "address",
          "name": "",
          "type": "address"
        }
      ],
      "name": "whitelistedKiller",
      "outputs": [
        {
          "internalType": "bool",
          "name": "",
          "type": "bool"
        }
      ],
      "stateMutability": "view",
      "type": "function"
    },
    {
      "stateMutability": "payable",
      "type": "receive"
    }
  ],
  "transactionHash": "0x43c7e98106d21cef852f8972186fc9422bf9f317b5386d6429d1770e7770cba0",
  "args": [],
  "numDeployments": 2,
  "solcInputHash": "d986b86957f665cc8046c8158b9e6879",
  "bytecode": "0x608060405234801561001057600080fd5b506135c0806100206000396000f3fe6080604052600436106102065760003560e01c80638c64ea4a11610117578063bed06b0b116100a5578063df5ca1f81161006c578063df5ca1f814610658578063e4175aee14610678578063ef6b247914610698578063f0e63edf146106ab578063f2fde38b146106c157005b8063bed06b0b146105d1578063c1be6677146105e4578063c6918a6114610612578063ce9b793014610625578063cff07fd11461064557005b8063a3381d28116100e9578063a3381d2814610509578063afd06b3414610539578063b1ae5ed314610559578063b2a2a96b14610579578063bb94d3db1461059957005b80638c64ea4a1461047e5780638da5cb5b1461049e57806392707802146104bc5780639f2b2833146104dc57005b806334c389ef1161019457806352e83e521161016657806352e83e52146103f05780635ff0253114610406578063715018a614610436578063744f4cf61461044b57806379e20bdc1461045e57005b806334c389ef146103485780634f9e3805146103685780635066f3b51461038857806351dabb75146103c357005b80631b451d28116101d85780631b451d28146102b257806327dfaf92146102d257806328f55a6c146102f25780632d4047e5146103085780632d6f80131461032857005b8063026c42071461020f5780630c7e172514610238578063178483a7146102865780631a39d8ef1461029c57005b3661020d57005b005b34801561021b57600080fd5b50610225609c5481565b6040519081526020015b60405180910390f35b34801561024457600080fd5b5061026e6102533660046132b3565b6099602052600090815260409020546001600160a01b031681565b6040516001600160a01b03909116815260200161022f565b34801561029257600080fd5b50610225609d5481565b3480156102a857600080fd5b50610225609b5481565b3480156102be57600080fd5b5061020d6102cd3660046132cd565b6106e1565b3480156102de57600080fd5b506102256102ed3660046132cd565b610a1b565b3480156102fe57600080fd5b50610225609e5481565b34801561031457600080fd5b506102256103233660046133b9565b610aa1565b34801561033457600080fd5b506102256103433660046133b9565b610ad1565b34801561035457600080fd5b5061020d610363366004613337565b610aee565b34801561037457600080fd5b5061020d6103833660046133e9565b610d6f565b34801561039457600080fd5b506103a86103a33660046132cd565b610dcd565b6040805193845260208401929092529082015260600161022f565b3480156103cf57600080fd5b506102256103de3660046132b3565b60a46020526000908152604090205481565b3480156103fc57600080fd5b50610225609f5481565b34801561041257600080fd5b50610426610421366004613337565b610f74565b604051901515815260200161022f565b34801561044257600080fd5b5061020d61102e565b61020d6104593660046133b9565b611042565b34801561046a57600080fd5b5061020d610479366004613337565b611640565b34801561048a57600080fd5b5061026e6104993660046133b9565b6117ec565b3480156104aa57600080fd5b506033546001600160a01b031661026e565b3480156104c857600080fd5b5061020d6104d7366004613337565b611816565b3480156104e857600080fd5b506102256104f73660046132b3565b60a56020526000908152604090205481565b34801561051557600080fd5b506104266105243660046132b3565b60986020526000908152604090205460ff1681565b34801561054557600080fd5b5060a15461026e906001600160a01b031681565b34801561056557600080fd5b5061020d6105743660046132b3565b611a31565b34801561058557600080fd5b5061020d6105943660046132cd565b611a8d565b3480156105a557600080fd5b506102256105b43660046132cd565b60a260209081526000928352604080842090915290825290205481565b61020d6105df3660046132ff565b611bde565b3480156105f057600080fd5b506106046105ff366004613337565b612005565b60405161022f92919061344d565b61020d610620366004613337565b61204b565b34801561063157600080fd5b5060975461026e906001600160a01b031681565b61020d610653366004613360565b612200565b34801561066457600080fd5b5061020d6106733660046132b3565b612530565b34801561068457600080fd5b506102256106933660046133b9565b61277c565b61020d6106a6366004613337565b612893565b3480156106b757600080fd5b5061022560a05481565b3480156106cd57600080fd5b5061020d6106dc3660046132b3565b6129c3565b6106e9612a3c565b6001600160a01b03808316600090815260996020526040902054168061079957609a80546001810182556000919091527f44da158ba27f9252712a74ff6a55c5d531f69609f1f6e7f17c4443a8e2089be40180546001600160a01b0319166001600160a01b0384811691821790925560408051928616835260208301919091527f7f03ac7449144076e2d9d5a237c3ff0d0108e0a2ebdd5213c4b0de6f4d4f6953910160405180910390a1610997565b806001600160a01b031663c8dffa956040518163ffffffff1660e01b815260040160206040518083038186803b1580156107d257600080fd5b505afa1580156107e6573d6000803e3d6000fd5b505050506040513d601f19601f8201168201806040525081019061080a91906133d1565b156108755760405162461bcd60e51b815260206004820152603060248201527f7570646174655661756c743a20446562742072656d61696e73206f6e2074686560448201526f1032bc34b9ba34b733903b30bab63a1760811b60648201526084015b60405180910390fd5b609a546000805b8281101561093557836001600160a01b0316609a82815481106108af57634e487b7160e01b600052603260045260246000fd5b6000918252602090912001546001600160a01b031614156109235784609a82815481106108ec57634e487b7160e01b600052603260045260246000fd5b9060005260206000200160006101000a8154816001600160a01b0302191690836001600160a01b0316021790555060019150610935565b8061092d8161351f565b91505061087c565b508061095157634e487b7160e01b600052600160045260246000fd5b604080516001600160a01b038088168252861660208201527f4cc233b502e1e28f371b28114d4a8be87a93f330c18e3c339079fc498320fb8d910160405180910390a150505b506001600160a01b03918216600090815260996020908152604080832080546001600160a01b031990811695871695861790915584845260a38352818420825180840184528581528085018681528254600181810185559388528688209251600290910290920180549094169190981617825595519086015592825260a490522055565b604051636592183b60e01b81526001600160a01b03838116600483015260009190831690636592183b9060240160206040518083038186803b158015610a6057600080fd5b505afa158015610a74573d6000803e3d6000fd5b505050506040513d601f19601f82011682018060405250810190610a9891906133d1565b90505b92915050565b6000609b54600014610acd57609b5482609c54610abe91906134e9565b610ac891906134c9565b610a9b565b5090565b6000609c54600014610acd57609c5482609b54610abe91906134e9565b60008111610b3e5760405162461bcd60e51b815260206004820152601d60248201527f616464446562743a20657874726144656274496e42617365203c3d2030000000604482015260640161086c565b6001600160a01b0380831660009081526099602090815260408083205433845260a2835281842094168084529390915290205480610bb55760405162461bcd60e51b815260206004820152601460248201527330b2322232b13a1d103737903837b9b4ba34b7b760611b604482015260640161086c565b6001600160a01b038216600090815260a360205260408120805483908110610bed57634e487b7160e01b600052603260045260246000fd5b90600052602060002090600202019050826001600160a01b031663185cc75133866040518363ffffffff1660e01b8152600401610c2b92919061344d565b602060405180830381600087803b158015610c4557600080fd5b505af1158015610c59573d6000803e3d6000fd5b505050506040513d601f19601f82011682018060405250810190610c7d91906133d1565b50610c888185612a96565b506000610c953385610a1b565b90506000610ca885846001015484612b58565b50905080610d115760405162461bcd60e51b815260206004820152603060248201527f616464446562743a2062616420646562742c2063616e6e6f7420616464206d6f60448201526f3932903232b13a1030b73cb6b7b9329760811b606482015260840161086c565b846001600160a01b0316336001600160a01b031660008051602061356b833981519152610d418660010154610ad1565b600187015460408051928352602083019190915281018690526060015b60405180910390a350505050505050565b610d77612a3c565b609d839055609e829055609f81905560408051848152602081018490529081018290527fe032360dc1790b6d0ffbd119645e134124ea15d2ab7d012f101fe1df3016a52c906060015b60405180910390a1505050565b6001600160a01b03808216600090815260996020908152604080832054868516845260a2835281842094168084529382528083205460a3909252822080549293849384939192849183908110610e3357634e487b7160e01b600052603260045260246000fd5b60009182526020918290206040805180820190915260029092020180546001600160a01b03168252600101549181018290529150610e7090610ad1565b604051636592183b60e01b81526001600160a01b038a8116600483015291975090841690636592183b9060240160206040518083038186803b158015610eb557600080fd5b505afa158015610ec9573d6000803e3d6000fd5b505050506040513d601f19601f82011682018060405250810190610eed91906133d1565b6040516312bad57f60e31b8152600481018290529094506001600160a01b038416906395d6abf89060240160206040518083038186803b158015610f3057600080fd5b505afa158015610f44573d6000803e3d6000fd5b505050506040513d601f19601f82011682018060405250810190610f6891906133d1565b94505050509250925092565b6001600160a01b0380831660009081526099602090815260408083205490931680835260a3909152918120805491929183919085908110610fc557634e487b7160e01b600052603260045260246000fd5b60009182526020918290206040805180820190915260029092020180546001600160a01b0316825260010154918101829052915061100857600092505050610a9b565b61102482826020015161101f846000015186610a1b565b612b58565b5095945050505050565b611036612a3c565b6110406000612c04565b565b6097546001600160a01b031633146110a85760405162461bcd60e51b8152602060048201526024808201527f537461796b696e673a204e6f742077686974656c69737465642064656c6567616044820152633a37b91760e11b606482015260840161086c565b6000612710609f54609b54846110be9190613508565b6110c891906134e9565b6110d291906134c9565b90508060a060008282546110e691906134b1565b9091555050609a54600090818167ffffffffffffffff81111561111957634e487b7160e01b600052604160045260246000fd5b604051908082528060200260200182016040528015611142578160200160208202803683370190505b50905060005b8281101561126557609a818154811061117157634e487b7160e01b600052603260045260246000fd5b6000918252602091829020015460408051630f5f4c7f60e21b815290516001600160a01b0390921692633d7d31fc92600480840193829003018186803b1580156111ba57600080fd5b505afa1580156111ce573d6000803e3d6000fd5b505050506040513d601f19601f820116820180604052508101906111f291906133d1565b82828151811061121257634e487b7160e01b600052603260045260246000fd5b60200260200101818152505081818151811061123e57634e487b7160e01b600052603260045260246000fd5b60200260200101518461125191906134b1565b93508061125d8161351f565b915050611148565b5060006112728534613508565b90508381106114815760005b838110156113f457609a81815481106112a757634e487b7160e01b600052603260045260246000fd5b60009182526020909120015483516001600160a01b039091169063ad452d75908590849081106112e757634e487b7160e01b600052603260045260246000fd5b6020026020010151609a848154811061131057634e487b7160e01b600052603260045260246000fd5b6000918252602091829020015460408051636d22f63f60e11b815290516001600160a01b039092169263da45ec7e92600480840193829003018186803b15801561135957600080fd5b505afa15801561136d573d6000803e3d6000fd5b505050506040513d601f19601f8201168201806040525081019061139191906133d1565b6040518363ffffffff1660e01b81526004016113af91815260200190565b6000604051808303818588803b1580156113c857600080fd5b505af11580156113dc573d6000803e3d6000fd5b505050505080806113ec9061351f565b91505061127e565b50836114008688613508565b61140a9190613508565b609b5560008461141a8734613508565b6114249190613508565b90508015611436576114363382612c56565b337f68f604dad2502091469814ccdd58acac4592d7766a922eee86e6ab9965cfe94988611463888a6134b1565b6040805192835260208301919091520160405180910390a250611638565b60005b838110156115fc576000609a82815481106114af57634e487b7160e01b600052603260045260246000fd5b600091825260208220015485516001600160a01b039091169250879085908790869081106114ed57634e487b7160e01b600052603260045260246000fd5b60200260200101516114ff91906134e9565b61150991906134c9565b6040516315d6dae960e01b8152600481018290529091506000906001600160a01b038416906315d6dae99060240160206040518083038186803b15801561154f57600080fd5b505afa158015611563573d6000803e3d6000fd5b505050506040513d601f19601f8201168201806040525081019061158791906133d1565b60405163ad452d7560e01b8152600481018290529091506001600160a01b0384169063ad452d759084906024016000604051808303818588803b1580156115cd57600080fd5b505af11580156115e1573d6000803e3d6000fd5b505050505050505080806115f49061351f565b915050611484565b506040805187815234602082015233917f68f604dad2502091469814ccdd58acac4592d7766a922eee86e6ab9965cfe949910160405180910390a25b505050505050565b6001600160a01b0380831660009081526099602090815260408083205433845260a28352818420941680845293909152902054806116b95760405162461bcd60e51b81526020600482015260166024820152753932b830bca232b13a1d103737903837b9b4ba34b7b760511b604482015260640161086c565b6001600160a01b038216600090815260a3602052604081208054839081106116f157634e487b7160e01b600052603260045260246000fd5b90600052602060002090600202019050600061170d3385610a1b565b905061171b86333088612d08565b611726868587612e18565b604051630724e59160e41b81526001600160a01b0385169063724e591090611754903390899060040161344d565b600060405180830381600087803b15801561176e57600080fd5b505af1158015611782573d6000803e3d6000fd5b50505050836001600160a01b0316336001600160a01b031660008051602061356b8339815191526117b68560010154610ad1565b60018601546117c58a87613508565b604080519384526020840192909252908201526060015b60405180910390a3505050505050565b609a81815481106117fc57600080fd5b6000918252602090912001546001600160a01b0316905081565b3360009081526098602052604090205460ff1661187f5760405162461bcd60e51b815260206004820152602160248201527f537461796b696e673a204e6f742077686974656c6973746564204b696c6c65726044820152601760f91b606482015260840161086c565b6001600160a01b0380831660009081526099602090815260408083205490931680835260a39091529181208054849081106118ca57634e487b7160e01b600052603260045260246000fd5b9060005260206000209060020201905060008160010154116119275760405162461bcd60e51b815260206004820152601660248201527535b4b6361d103932b6b7bb32b2103837b9b4ba34b7b760511b604482015260640161086c565b805460009061193f906001600160a01b031684610a1b565b905060008061195385856001015485612b58565b91509150816119a45760405162461bcd60e51b815260206004820152601a60248201527f6b696c6c3a207374696c6c207361666520706f736974696f6e2e000000000000604482015260640161086c565b60006119b08587612f24565b85549091506001600160a01b0316337f62b067e31c5a2d2734bc19924c46c930e1b7063b5b473238f2f8bb7ab88a15b6886119eb8686613508565b60018a0154604080516001600160a01b039094168452602084019290925290820187905260608201899052608082015260a0015b60405180910390a35050505050505050565b611a39612a3c565b609780546001600160a01b0319166001600160a01b0383169081179091556040519081527fc46722a14b09e7b7e59991ec89fb4bb88ffed57f1b2187a65e959f5c0053716d9060200160405180910390a150565b600054610100900460ff1615808015611aad5750600054600160ff909116105b80611ac75750303b158015611ac7575060005460ff166001145b611b2a5760405162461bcd60e51b815260206004820152602e60248201527f496e697469616c697a61626c653a20636f6e747261637420697320616c72656160448201526d191e481a5b9a5d1a585b1a5e995960921b606482015260840161086c565b6000805460ff191660011790558015611b4d576000805461ff0019166101001790555b611b55612fd5565b611b5d613004565b611b73662386f26fc10000611d4c610bb8610d6f565b60a180546001600160a01b0319166001600160a01b038416179055611b9783611a31565b8015611bd9576000805461ff0019169055604051600181527f7f26b83ff96e1f2b6a682f133852f6798a09c465da95921460cefb384740249890602001610dc0565b505050565b6001600160a01b0380851660009081526099602090815260408083205433845260a2835281842094168084529390915290205480611c5e5760405162461bcd60e51b815260206004820152601b60248201527f6368616e6765506f736974696f6e3a206e6f20706f736974696f6e0000000000604482015260640161086c565b6000806000808812611cd35787341015611cc65760405162461bcd60e51b8152602060048201526024808201527f6368616e6765506f736974696f6e3a204e6f7420656e6f756768206d73672e76604482015263616c756560e01b606482015260840161086c565b8734039250879150611cdf565b611cdc8861353a565b90505b6000871315611d7a5760405163185cc75160e01b81526001600160a01b0386169063185cc75190611d169033908b9060040161344d565b602060405180830381600087803b158015611d3057600080fd5b505af1158015611d44573d6000803e3d6000fd5b505050506040513d601f19601f82011682018060405250810190611d6891906133d1565b50611d7387836134b1565b9150611d99565b6000871215611d9957611d8c8761353a565b611d9690826134b1565b90505b8515611e0c57611dab89333089612d08565b604051630724e59160e41b81526001600160a01b0386169063724e591090611dd99033908a9060040161344d565b600060405180830381600087803b158015611df357600080fd5b505af1158015611e07573d6000803e3d6000fd5b505050505b8215611e9757604051639d2e6fcb60e01b81526001600160a01b03861690639d2e6fcb908590611e4390339060019060040161344d565b6020604051808303818588803b158015611e5c57600080fd5b505af1158015611e70573d6000803e3d6000fd5b50505050506040513d601f19601f82011682018060405250810190611e9591906133d1565b505b6001600160a01b038516600090815260a360205260408120805486908110611ecf57634e487b7160e01b600052603260045260246000fd5b90600052602060002090600202019050818310611eff57611ef981611ef48486613508565b612a96565b50611f2b565b611f2b8187611f0e8686613508565b60008c12611f1d576000613033565b611f268c61353a565b613033565b6000611f373388610a1b565b90506000611f4a88846001015484612b58565b50905080611f9a5760405162461bcd60e51b815260206004820152601860248201527f6368616e6765506f736974696f6e3a2062616420646562740000000000000000604482015260640161086c565b876001600160a01b0316336001600160a01b031660008051602061356b833981519152611fca8660010154610ad1565b8660010154611fd9338e610a1b565b6040805193845260208401929092529082015260600160405180910390a3505050505050505050505050565b60a3602052816000526040600020818154811061202157600080fd5b6000918252602090912060029091020180546001909101546001600160a01b039091169250905082565b6001600160a01b0380831660009081526099602090815260408083205433845260a28352818420941680845293909152902054806120cb5760405162461bcd60e51b815260206004820152601c60248201527f726570617944656274496e426173653a206e6f20706f736974696f6e00000000604482015260640161086c565b6001600160a01b038216600090815260a36020526040812080548390811061210357634e487b7160e01b600052603260045260246000fd5b90600052602060002090600202019050600061211f3385610a1b565b90506000846001600160a01b0316639d2e6fcb3433896040518463ffffffff1660e01b815260040161215292919061344d565b6020604051808303818588803b15801561216b57600080fd5b505af115801561217f573d6000803e3d6000fd5b50505050506040513d601f19601f820116820180604052508101906121a491906133d1565b9050846001600160a01b0316336001600160a01b031660008051602061356b8339815191526121d68660010154610ad1565b60018701546121e58688613508565b60408051938452602084019290925290820152606001610d5e565b6001600160a01b0380841660009081526099602090815260408083205433845260a283528184209416808452939091529020541561228b5760405162461bcd60e51b815260206004820152602260248201527f616464506f736974696f6e3a20616c7265616479206861766520706f7369746960448201526137b760f11b606482015260840161086c565b3483146122da5760405162461bcd60e51b815260206004820181905260248201527f616464506f736974696f6e3a206d73672e76616c756520213d20657175697479604482015260640161086c565b60006122e683856134b1565b9050609e54816122f691906134e9565b612302846127106134e9565b106123635760405162461bcd60e51b815260206004820152602b60248201527f616464506f736974696f6e3a2062616420646562742c2063616e6e6f74206f7060448201526a32b7103837b9b4ba34b7b760a91b606482015260840161086c565b60008084116123735760006123f3565b60405163185cc75160e01b81526001600160a01b0384169063185cc751906123a1903390889060040161344d565b602060405180830381600087803b1580156123bb57600080fd5b505af11580156123cf573d6000803e3d6000fd5b505050506040513d601f19601f820116820180604052508101906123f391906133d1565b6001600160a01b03848116600081815260a360209081526040808320815180830183523381528084018581528254600180820185559387528587209251600290910290920180546001600160a01b03191692909816919091178755519581019590955592825260a4905290812080549394509061247083856134b1565b909155505033600090815260a2602090815260408083206001600160a01b0388168452825280832084905560a3909152812080546124db9190849081106124c757634e487b7160e01b600052603260045260246000fd5b906000526020600020906002020185612a96565b6040805189815260208101899052908101859052606081018290529091506001600160a01b0386169033907f92b0fd5c6dbe6ec5b43a8afae4c587c1db47afcca43a21b7800bd848fcf8e49690608001611a1f565b6001600160a01b0380821660009081526099602090815260408083205490931680835260a3825283832033845260a28352848420828552909252928220548154811061258c57634e487b7160e01b600052603260045260246000fd5b9060005260206000209060020201905060008160010154116126035760405162461bcd60e51b815260206004820152602a60248201527f72656d6f7665506f736974696f6e3a204e6f20706f736974696f6e20666f72206044820152693a3434b9903a37b5b2b760b11b606482015260840161086c565b600061260f3384610a1b565b6040516312bad57f60e31b8152600481018290529091506000906001600160a01b038516906395d6abf89060240160206040518083038186803b15801561265557600080fd5b505afa158015612669573d6000803e3d6000fd5b505050506040513d601f19601f8201168201806040525081019061268d91906133d1565b9050600061269b8486612f24565b9050818110156126ed5760405162461bcd60e51b815260206004820152601860248201527f72656d6f7665506f736974696f6e3a2042616420646562740000000000000000604482015260640161086c565b6001600160a01b038516337f3cb91b4d61d4fefa96da17651a09b54f7b6751cb68d11134cf0efe0a496579686127238585613508565b600188015460408051928352602083018890528201889052606082015260800160405180910390a3505033600090815260a2602090815260408083206001600160a01b0396909616835294905292832092909255505050565b600080609b548361278d9190613508565b90506000612710609f54836127a291906134e9565b6127ac91906134c9565b609a549091506000805b8281101561287e57609a81815481106127df57634e487b7160e01b600052603260045260246000fd5b6000918252602091829020015460408051630f5f4c7f60e21b815290516001600160a01b0390921692633d7d31fc92600480840193829003018186803b15801561282857600080fd5b505afa15801561283c573d6000803e3d6000fd5b505050506040513d601f19601f8201168201806040525081019061286091906133d1565b61286a90836134b1565b9150806128768161351f565b9150506127b6565b5061288981846134b1565b9695505050505050565b6001600160a01b0380831660009081526099602090815260408083205433845260a283528184209416808452939091529020548061290c5760405162461bcd60e51b815260206004820152601660248201527530b23222b8bab4ba3c9d103737903837b9b4ba34b7b760511b604482015260640161086c565b6001600160a01b038216600090815260a36020526040812080548390811061294457634e487b7160e01b600052603260045260246000fd5b9060005260206000209060020201905061295e8185612a96565b50826001600160a01b0316336001600160a01b031660008051602061356b83398151915261298f8460010154610ad1565b846001015461299e3389610a1b565b6040805193845260208401929092529082015260600160405180910390a35050505050565b6129cb612a3c565b6001600160a01b038116612a305760405162461bcd60e51b815260206004820152602660248201527f4f776e61626c653a206e6577206f776e657220697320746865207a65726f206160448201526564647265737360d01b606482015260840161086c565b612a3981612c04565b50565b6033546001600160a01b031633146110405760405162461bcd60e51b815260206004820181905260248201527f4f776e61626c653a2063616c6c6572206973206e6f7420746865206f776e6572604482015260640161086c565b6000612aa182610aa1565b905080836001016000828254612ab791906134b1565b9250508190555081609b6000828254612ad091906134b1565b9250508190555080609c6000828254612ae991906134b1565b9091555050609754612b04906001600160a01b031683612c56565b825460975460408051858152602081018590526001600160a01b0393841693909216917f63602d0ecc7b3a0ef7ff1a116e23056662d64280355ba8031b6d0d767c4b4458910160405180910390a392915050565b6040516312bad57f60e31b81526004810182905260009081906001600160a01b038616906395d6abf89060240160206040518083038186803b158015612b9d57600080fd5b505afa158015612bb1573d6000803e3d6000fd5b505050506040513d601f19601f82011682018060405250810190612bd591906133d1565b9050609e54612be385610ad1565b612bed91906134e9565b612bf9826127106134e9565b109150935093915050565b603380546001600160a01b038381166001600160a01b0319831681179093556040519116919082907f8be0079c531659141344cd1fd0a4f28419497f9722a3daafe3b4186f6b6457e090600090a35050565b604080516000808252602082019092526001600160a01b038416908390604051612c809190613414565b60006040518083038185875af1925050503d8060008114612cbd576040519150601f19603f3d011682016040523d82523d6000602084013e612cc2565b606091505b5050905080611bd95760405162461bcd60e51b815260206004820152601260248201527121736166655472616e7366657245564d4f5360701b604482015260640161086c565b604080516001600160a01b0385811660248301528481166044830152606480830185905283518084039091018152608490920183526020820180516001600160e01b03166323b872dd60e01b1790529151600092839290881691612d6c9190613414565b6000604051808303816000865af19150503d8060008114612da9576040519150601f19603f3d011682016040523d82523d6000602084013e612dae565b606091505b5091509150818015612dd8575080511580612dd8575080806020019051810190612dd89190613392565b6116385760405162461bcd60e51b815260206004820152601160248201527021736166655472616e7366657246726f6d60781b604482015260640161086c565b600080846001600160a01b031663095ea7b38585604051602401612e3d92919061344d565b6040516020818303038152906040529060e01b6020820180516001600160e01b038381831617835250505050604051612e769190613414565b6000604051808303816000865af19150503d8060008114612eb3576040519150601f19603f3d011682016040523d82523d6000602084013e612eb8565b606091505b5091509150818015612ee2575080511580612ee2575080806020019051810190612ee29190613392565b612f1d5760405162461bcd60e51b815260206004820152600c60248201526b2173616665417070726f766560a01b604482015260640161086c565b5050505050565b815460405163b95d4ae160e01b81526001600160a01b03918216600482015260009182919084169063b95d4ae19060240160206040518083038186803b158015612f6d57600080fd5b505afa158015612f81573d6000803e3d6000fd5b505050506040513d601f19601f82011682018060405250810190612fa591906133d1565b9050612fb48460010154610ad1565b9150612fce8484612fc88760010154610ad1565b84613033565b5092915050565b600054610100900460ff16612ffc5760405162461bcd60e51b815260040161086c90613466565b611040613239565b600054610100900460ff1661302b5760405162461bcd60e51b815260040161086c90613466565b611040613269565b818111156130975760405162461bcd60e51b815260206004820152602b60248201527f756e7374616b653a2072657061696444656274496e42617365203e20756e737460448201526a185ad95908185b5bdd5b9d60aa1b606482015260840161086c565b60006130a283610aa1565b9050808560010160008282546130b89190613508565b9250508190555082609b60008282546130d19190613508565b9250508190555080609c60008282546130ea9190613508565b90915550508454604051631a4e1aef60e01b81526000916001600160a01b0380881692631a4e1aef92613123921690879060040161344d565b602060405180830381600087803b15801561313d57600080fd5b505af1158015613151573d6000803e3d6000fd5b505050506040513d601f19601f8201168201806040525081019061317591906133d1565b60a1548754604051630633235d60e41b81526001600160a01b03918216600482015288821660248201526044810188905260648101849052929350169063633235d090608401600060405180830381600087803b1580156131d557600080fd5b505af11580156131e9573d6000803e3d6000fd5b5050875460975460408051898152602081018890526001600160a01b0393841695509290911692507f18edd09e80386cd99df397e2e0d87d2bb259423eae08645e776321a36fe680ef91016117dc565b600054610100900460ff166132605760405162461bcd60e51b815260040161086c90613466565b61104033612c04565b600054610100900460ff166132905760405162461bcd60e51b815260040161086c90613466565b6001606555565b80356001600160a01b03811681146132ae57600080fd5b919050565b6000602082840312156132c4578081fd5b610a9882613297565b600080604083850312156132df578081fd5b6132e883613297565b91506132f660208401613297565b90509250929050565b60008060008060808587031215613314578182fd5b61331d85613297565b966020860135965060408601359560600135945092505050565b60008060408385031215613349578182fd5b61335283613297565b946020939093013593505050565b600080600060608486031215613374578283fd5b61337d84613297565b95602085013595506040909401359392505050565b6000602082840312156133a3578081fd5b815180151581146133b2578182fd5b9392505050565b6000602082840312156133ca578081fd5b5035919050565b6000602082840312156133e2578081fd5b5051919050565b6000806000606084860312156133fd578283fd5b505081359360208301359350604090920135919050565b60008251815b81811015613434576020818601810151858301520161341a565b818111156134425782828501525b509190910192915050565b6001600160a01b03929092168252602082015260400190565b6020808252602b908201527f496e697469616c697a61626c653a20636f6e7472616374206973206e6f74206960408201526a6e697469616c697a696e6760a81b606082015260800190565b600082198211156134c4576134c4613554565b500190565b6000826134e457634e487b7160e01b81526012600452602481fd5b500490565b600081600019048311821515161561350357613503613554565b500290565b60008282101561351a5761351a613554565b500390565b600060001982141561353357613533613554565b5060010190565b6000600160ff1b82141561355057613550613554565b0390565b634e487b7160e01b600052601160045260246000fdfef35a14688e4794e8022cd9e5c7ec6475a6095ef189dea9647fad0de771465b8aa2646970667358221220a9ef3952a91ac0b6660b6376eb515c58b88260c4f7421c2580b9a5667bae5d7b64736f6c63430008040033",
  "devdoc": {
    "kind": "dev",
    "methods": {
      "accrue(uint256)": {
        "details": "msg.value = all of staking reward ",
        "params": {
          "totalStaked": "current total staked EVMOS before distributed"
        }
      },
      "addDebt(address,uint256)": {
        "details": "Borrow more debt (increase debt ratio)",
        "params": {
          "debtToken": "debtToken Address (not vault address)",
          "extraDebtInBase": "amount of additional debt in EVMOS"
        }
      },
      "addEquity(address,uint256)": {
        "details": "add additional equity (decrease debt ratio)",
        "params": {
          "debtToken": "debtToken Address (not vault address)",
          "extraEquity": "amount of additional equity"
        }
      },
      "addPosition(address,uint256,uint256)": {
        "params": {
          "debtInBase": "debtAmount in EVMOS",
          "debtToken": "debtToken Address (not vault address)",
          "equity": "equityAmount in EVMOS"
        }
      },
      "changePosition(address,int256,int256,uint256)": {
        "details": "(msg.value - changeEquityInBase) equals to repayDebtInBase - position value not changes (not call _stake/_unstake function) - decrease debt ratioUser should approve this firstif msg.value > 0, changeEquityInBase >= 0 since msg.value = changeEquityInBase + repayDebtInBase"
      },
      "getAccruedValue(uint256)": {
        "params": {
          "totalStaked": "current total staked EVMOS (= last total amount + reward)"
        }
      },
      "owner()": {
        "details": "Returns the address of the current owner."
      },
      "positionInfo(address,address)": {
        "details": "returns position's value & debt value position value: positionValueInBase equity value: positionValueInBase - debtInBase debt value: debtInBase debt ratio: debtInBase / positionValueInBase * 100(%) kill factor: killFactorBps / 100 safety buffer: (kill factor) - (debt ratio)"
      },
      "removePosition(address)": {
        "details": "remove all position of debtToken vault.",
        "params": {
          "debtToken": "debtToken Address (not vault address)"
        }
      },
      "renounceOwnership()": {
        "details": "Leaves the contract without owner. It will not be possible to call `onlyOwner` functions anymore. Can only be called by the current owner. NOTE: Renouncing ownership will leave the contract without an owner, thereby removing any functionality that is only available to the owner."
      },
      "repayDebt(address,uint256)": {
        "details": "Repay debt (decrease debt ratio, total staked amount(or share) does not change)",
        "params": {
          "debtToken": "debtToken Address (not vault address)",
          "repaidDebt": "amount of repaid debt in debtToken"
        }
      },
      "repayDebtInBase(address,uint256)": {
        "details": "Repay debt with EVMOS (decrease debt ratio, total staked amount(or share) does not change)",
        "params": {
          "debtToken": "debtToken Address (not vault address)",
          "minRepaid": "minimum value to be repaid"
        }
      },
      "transferOwnership(address)": {
        "details": "Transfers ownership of the contract to a new account (`newOwner`). Can only be called by the current owner."
      }
    },
    "stateVariables": {
      "minDebtInBase": {
        "details": "min debtAmount in EVMOS (base token)"
      },
      "positionIdOf": {
        "details": "userAddress => vaultAddress => positionId (array Index of position)"
      },
      "positions": {
        "details": "vaultAddress => Position[]"
      },
      "reservedPool": {
        "details": "EVMOS amount reserved by Protocol"
      },
      "totalAmount": {
        "details": "kor)    + auto-compound "
      },
      "totalShare": {
        "details": "kor) auto-compound totalShare  .     ( /totalAmount) * totalShare  share ."
      }
    },
    "version": 1
  },
  "userdoc": {
    "kind": "user",
    "methods": {
      "amountToShare(uint256)": {
        "notice": "   (  / totalAmount) * totalShare  share ."
      },
      "changePosition(address,int256,int256,uint256)": {
        "notice": "change position value case 1. changeEquityInBase > 0  - increase position value (call _stake function) - decrease debt ratio case 2. changeEquityInBase < 0  - decrease position value (call _unstake function) - increase debt ratio case 3. changeDebt > 0 (borrow more debt) - increase position value (call _stake function) - increase debt ratio case 4. changeEquity < 0 (repay debt by unstaking) - decrease position value (call _unstake function) - decrease debt ratio case 5. repayDebt > 0 (repay debt with user's own token)  or msg.value > 0 (repay debt with user's own EVMOS)"
      },
      "removePosition(address)": {
        "notice": "kor)  100%      . ->   ."
      },
      "repayDebt(address,uint256)": {
        "notice": "user should repay debt using debtTokenuser approve should be preceded"
      },
      "repayDebtInBase(address,uint256)": {
        "notice": "repaidDebtInBase = msg.value"
      }
    },
    "version": 1
  },
  "storageLayout": {
    "storage": [
      {
        "astId": 2413,
        "contract": "contracts/token/Stayking.sol:Stayking",
        "label": "_initialized",
        "offset": 0,
        "slot": "0",
        "type": "t_uint8"
      },
      {
        "astId": 2416,
        "contract": "contracts/token/Stayking.sol:Stayking",
        "label": "_initializing",
        "offset": 1,
        "slot": "0",
        "type": "t_bool"
      },
      {
        "astId": 1178,
        "contract": "contracts/token/Stayking.sol:Stayking",
        "label": "__gap",
        "offset": 0,
        "slot": "1",
        "type": "t_array(t_uint256)50_storage"
      },
      {
        "astId": 2681,
        "contract": "contracts/token/Stayking.sol:Stayking",
        "label": "_owner",
        "offset": 0,
        "slot": "51",
        "type": "t_address"
      },
      {
        "astId": 2801,
        "contract": "contracts/token/Stayking.sol:Stayking",
        "label": "__gap",
        "offset": 0,
        "slot": "52",
        "type": "t_array(t_uint256)49_storage"
      },
      {
        "astId": 2816,
        "contract": "contracts/token/Stayking.sol:Stayking",
        "label": "_status",
        "offset": 0,
        "slot": "101",
        "type": "t_uint256"
      },
      {
        "astId": 2860,
        "contract": "contracts/token/Stayking.sol:Stayking",
        "label": "__gap",
        "offset": 0,
        "slot": "102",
        "type": "t_array(t_uint256)49_storage"
      },
      {
        "astId": 3980,
        "contract": "contracts/token/Stayking.sol:Stayking",
        "label": "delegator",
        "offset": 0,
        "slot": "151",
        "type": "t_address"
      },
      {
        "astId": 3984,
        "contract": "contracts/token/Stayking.sol:Stayking",
        "label": "whitelistedKiller",
        "offset": 0,
        "slot": "152",
        "type": "t_mapping(t_address,t_bool)"
      },
      {
        "astId": 3989,
        "contract": "contracts/token/Stayking.sol:Stayking",
        "label": "tokenToVault",
        "offset": 0,
        "slot": "153",
        "type": "t_mapping(t_address,t_address)"
      },
      {
        "astId": 3992,
        "contract": "contracts/token/Stayking.sol:Stayking",
        "label": "vaults",
        "offset": 0,
        "slot": "154",
        "type": "t_array(t_address)dyn_storage"
      },
      {
        "astId": 3995,
        "contract": "contracts/token/Stayking.sol:Stayking",
        "label": "totalAmount",
        "offset": 0,
        "slot": "155",
        "type": "t_uint256"
      },
      {
        "astId": 3998,
        "contract": "contracts/token/Stayking.sol:Stayking",
        "label": "totalShare",
        "offset": 0,
        "slot": "156",
        "type": "t_uint256"
      },
      {
        "astId": 4002,
        "contract": "contracts/token/Stayking.sol:Stayking",
        "label": "minDebtInBase",
        "offset": 0,
        "slot": "157",
        "type": "t_uint256"
      },
      {
        "astId": 4005,
        "contract": "contracts/token/Stayking.sol:Stayking",
        "label": "killFactorBps",
        "offset": 0,
        "slot": "158",
        "type": "t_uint256"
      },
      {
        "astId": 4008,
        "contract": "contracts/token/Stayking.sol:Stayking",
        "label": "reservedBps",
        "offset": 0,
        "slot": "159",
        "type": "t_uint256"
      },
      {
        "astId": 4011,
        "contract": "contracts/token/Stayking.sol:Stayking",
        "label": "reservedPool",
        "offset": 0,
        "slot": "160",
        "type": "t_uint256"
      },
      {
        "astId": 4014,
        "contract": "contracts/token/Stayking.sol:Stayking",
        "label": "uEVMOS",
        "offset": 0,
        "slot": "161",
        "type": "t_contract(IUnbondedEvmos)665"
      },
      {
        "astId": 4027,
        "contract": "contracts/token/Stayking.sol:Stayking",
        "label": "positionIdOf",
        "offset": 0,
        "slot": "162",
        "type": "t_mapping(t_address,t_mapping(t_address,t_uint256))"
      },
      {
        "astId": 4034,
        "contract": "contracts/token/Stayking.sol:Stayking",
        "label": "positions",
        "offset": 0,
        "slot": "163",
        "type": "t_mapping(t_address,t_array(t_struct(Position)4020_storage)dyn_storage)"
      },
      {
        "astId": 4038,
        "contract": "contracts/token/Stayking.sol:Stayking",
        "label": "positionsLengthOf",
        "offset": 0,
        "slot": "164",
        "type": "t_mapping(t_address,t_uint256)"
      },
      {
        "astId": 4042,
        "contract": "contracts/token/Stayking.sol:Stayking",
        "label": "totalDebtOf",
        "offset": 0,
        "slot": "165",
        "type": "t_mapping(t_address,t_uint256)"
      }
    ],
    "types": {
      "t_address": {
        "encoding": "inplace",
        "label": "address",
        "numberOfBytes": "20"
      },
      "t_array(t_address)dyn_storage": {
        "base": "t_address",
        "encoding": "dynamic_array",
        "label": "address[]",
        "numberOfBytes": "32"
      },
      "t_array(t_struct(Position)4020_storage)dyn_storage": {
        "base": "t_struct(Position)4020_storage",
        "encoding": "dynamic_array",
        "label": "struct Stayking.Position[]",
        "numberOfBytes": "32"
      },
      "t_array(t_uint256)49_storage": {
        "base": "t_uint256",
        "encoding": "inplace",
        "label": "uint256[49]",
        "numberOfBytes": "1568"
      },
      "t_array(t_uint256)50_storage": {
        "base": "t_uint256",
        "encoding": "inplace",
        "label": "uint256[50]",
        "numberOfBytes": "1600"
      },
      "t_bool": {
        "encoding": "inplace",
        "label": "bool",
        "numberOfBytes": "1"
      },
      "t_contract(IUnbondedEvmos)665": {
        "encoding": "inplace",
        "label": "contract IUnbondedEvmos",
        "numberOfBytes": "20"
      },
      "t_mapping(t_address,t_address)": {
        "encoding": "mapping",
        "key": "t_address",
        "label": "mapping(address => address)",
        "numberOfBytes": "32",
        "value": "t_address"
      },
      "t_mapping(t_address,t_array(t_struct(Position)4020_storage)dyn_storage)": {
        "encoding": "mapping",
        "key": "t_address",
        "label": "mapping(address => struct Stayking.Position[])",
        "numberOfBytes": "32",
        "value": "t_array(t_struct(Position)4020_storage)dyn_storage"
      },
      "t_mapping(t_address,t_bool)": {
        "encoding": "mapping",
        "key": "t_address",
        "label": "mapping(address => bool)",
        "numberOfBytes": "32",
        "value": "t_bool"
      },
      "t_mapping(t_address,t_mapping(t_address,t_uint256))": {
        "encoding": "mapping",
        "key": "t_address",
        "label": "mapping(address => mapping(address => uint256))",
        "numberOfBytes": "32",
        "value": "t_mapping(t_address,t_uint256)"
      },
      "t_mapping(t_address,t_uint256)": {
        "encoding": "mapping",
        "key": "t_address",
        "label": "mapping(address => uint256)",
        "numberOfBytes": "32",
        "value": "t_uint256"
      },
      "t_struct(Position)4020_storage": {
        "encoding": "inplace",
        "label": "struct Stayking.Position",
        "members": [
          {
            "astId": 4016,
            "contract": "contracts/token/Stayking.sol:Stayking",
            "label": "user",
            "offset": 0,
            "slot": "0",
            "type": "t_address"
          },
          {
            "astId": 4019,
            "contract": "contracts/token/Stayking.sol:Stayking",
            "label": "share",
            "offset": 0,
            "slot": "1",
            "type": "t_uint256"
          }
        ],
        "numberOfBytes": "64"
      },
      "t_uint256": {
        "encoding": "inplace",
        "label": "uint256",
        "numberOfBytes": "32"
      },
      "t_uint8": {
        "encoding": "inplace",
        "label": "uint8",
        "numberOfBytes": "1"
      }
    }
  }
}