{
    "address": "0x050ff3A2805AFbc38C9823127F819BFD5E2447E9",
    "abi": [
        {
            "anonymous": false,
            "inputs": [
                {
                    "indexed": true,
                    "internalType": "address",
                    "name": "delegator",
                    "type": "address"
                },
                {
                    "indexed": false,
                    "internalType": "uint256",
                    "name": "accrued",
                    "type": "uint256"
                },
                {
                    "indexed": false,
                    "internalType": "uint256",
                    "name": "totalStaked",
                    "type": "uint256"
                }
            ],
            "name": "Accrue",
            "type": "event"
        },
        {
            "anonymous": false,
            "inputs": [
                {
                    "indexed": true,
                    "internalType": "address",
                    "name": "user",
                    "type": "address"
                },
                {
                    "indexed": true,
                    "internalType": "address",
                    "name": "vault",
                    "type": "address"
                },
                {
                    "indexed": false,
                    "internalType": "uint256",
                    "name": "equity",
                    "type": "uint256"
                },
                {
                    "indexed": false,
                    "internalType": "uint256",
                    "name": "debtInBase",
                    "type": "uint256"
                },
                {
                    "indexed": false,
                    "internalType": "uint256",
                    "name": "debt",
                    "type": "uint256"
                },
                {
                    "indexed": false,
                    "internalType": "uint256",
                    "name": "share",
                    "type": "uint256"
                }
            ],
            "name": "AddPosition",
            "type": "event"
        },
        {
            "anonymous": false,
            "inputs": [
                {
                    "indexed": false,
                    "internalType": "address",
                    "name": "token",
                    "type": "address"
                },
                {
                    "indexed": false,
                    "internalType": "address",
                    "name": "vault",
                    "type": "address"
                }
            ],
            "name": "AddVault",
            "type": "event"
        },
        {
            "anonymous": false,
            "inputs": [
                {
                    "indexed": false,
                    "internalType": "address",
                    "name": "delegator",
                    "type": "address"
                }
            ],
            "name": "ChangeDelegator",
            "type": "event"
        },
        {
            "anonymous": false,
            "inputs": [
                {
                    "indexed": false,
                    "internalType": "uint8",
                    "name": "version",
                    "type": "uint8"
                }
            ],
            "name": "Initialized",
            "type": "event"
        },
        {
            "anonymous": false,
            "inputs": [
                {
                    "indexed": true,
                    "internalType": "address",
                    "name": "killer",
                    "type": "address"
                },
                {
                    "indexed": true,
                    "internalType": "address",
                    "name": "user",
                    "type": "address"
                },
                {
                    "indexed": false,
                    "internalType": "address",
                    "name": "vault",
                    "type": "address"
                },
                {
                    "indexed": false,
                    "internalType": "uint256",
                    "name": "equity",
                    "type": "uint256"
                },
                {
                    "indexed": false,
                    "internalType": "uint256",
                    "name": "debtInBase",
                    "type": "uint256"
                },
                {
                    "indexed": false,
                    "internalType": "uint256",
                    "name": "debt",
                    "type": "uint256"
                },
                {
                    "indexed": false,
                    "internalType": "uint256",
                    "name": "share",
                    "type": "uint256"
                }
            ],
            "name": "Kill",
            "type": "event"
        },
        {
            "anonymous": false,
            "inputs": [
                {
                    "indexed": true,
                    "internalType": "address",
                    "name": "previousOwner",
                    "type": "address"
                },
                {
                    "indexed": true,
                    "internalType": "address",
                    "name": "newOwner",
                    "type": "address"
                }
            ],
            "name": "OwnershipTransferred",
            "type": "event"
        },
        {
            "anonymous": false,
            "inputs": [
                {
                    "indexed": true,
                    "internalType": "address",
                    "name": "user",
                    "type": "address"
                },
                {
                    "indexed": true,
                    "internalType": "address",
                    "name": "vault",
                    "type": "address"
                },
                {
                    "indexed": false,
                    "internalType": "uint256",
                    "name": "amount",
                    "type": "uint256"
                },
                {
                    "indexed": false,
                    "internalType": "uint256",
                    "name": "share",
                    "type": "uint256"
                },
                {
                    "indexed": false,
                    "internalType": "uint256",
                    "name": "debt",
                    "type": "uint256"
                }
            ],
            "name": "PositionChanged",
            "type": "event"
        },
        {
            "anonymous": false,
            "inputs": [
                {
                    "indexed": true,
                    "internalType": "address",
                    "name": "user",
                    "type": "address"
                },
                {
                    "indexed": true,
                    "internalType": "address",
                    "name": "vault",
                    "type": "address"
                },
                {
                    "indexed": false,
                    "internalType": "uint256",
                    "name": "equity",
                    "type": "uint256"
                },
                {
                    "indexed": false,
                    "internalType": "uint256",
                    "name": "debtInBase",
                    "type": "uint256"
                },
                {
                    "indexed": false,
                    "internalType": "uint256",
                    "name": "debt",
                    "type": "uint256"
                },
                {
                    "indexed": false,
                    "internalType": "uint256",
                    "name": "share",
                    "type": "uint256"
                }
            ],
            "name": "RemovePosition",
            "type": "event"
        },
        {
            "anonymous": false,
            "inputs": [
                {
                    "indexed": true,
                    "internalType": "address",
                    "name": "delegator",
                    "type": "address"
                },
                {
                    "indexed": true,
                    "internalType": "address",
                    "name": "user",
                    "type": "address"
                },
                {
                    "indexed": false,
                    "internalType": "uint256",
                    "name": "amount",
                    "type": "uint256"
                },
                {
                    "indexed": false,
                    "internalType": "uint256",
                    "name": "share",
                    "type": "uint256"
                }
            ],
            "name": "Stake",
            "type": "event"
        },
        {
            "anonymous": false,
            "inputs": [
                {
                    "indexed": true,
                    "internalType": "address",
                    "name": "delegator",
                    "type": "address"
                },
                {
                    "indexed": true,
                    "internalType": "address",
                    "name": "user",
                    "type": "address"
                },
                {
                    "indexed": false,
                    "internalType": "uint256",
                    "name": "amount",
                    "type": "uint256"
                },
                {
                    "indexed": false,
                    "internalType": "uint256",
                    "name": "share",
                    "type": "uint256"
                }
            ],
            "name": "Unstake",
            "type": "event"
        },
        {
            "anonymous": false,
            "inputs": [
                {
                    "indexed": false,
                    "internalType": "uint256",
                    "name": "minDebtInBase",
                    "type": "uint256"
                },
                {
                    "indexed": false,
                    "internalType": "uint256",
                    "name": "reservedBps",
                    "type": "uint256"
                },
                {
                    "indexed": false,
                    "internalType": "uint256",
                    "name": "vaultRewardBps",
                    "type": "uint256"
                },
                {
                    "indexed": false,
                    "internalType": "uint256",
                    "name": "killFactorBps",
                    "type": "uint256"
                },
                {
                    "indexed": false,
                    "internalType": "uint256",
                    "name": "liquidateDebtFactorBps",
                    "type": "uint256"
                },
                {
                    "indexed": false,
                    "internalType": "uint256",
                    "name": "liquidationFeeBps",
                    "type": "uint256"
                }
            ],
            "name": "UpdateConfigs",
            "type": "event"
        },
        {
            "anonymous": false,
            "inputs": [
                {
                    "indexed": false,
                    "internalType": "address",
                    "name": "token",
                    "type": "address"
                },
                {
                    "indexed": false,
                    "internalType": "address",
                    "name": "vault",
                    "type": "address"
                }
            ],
            "name": "UpdateVault",
            "type": "event"
        },
        {
            "stateMutability": "payable",
            "type": "fallback"
        },
        {
            "inputs": [
                {
                    "internalType": "address",
                    "name": "delegator_",
                    "type": "address"
                },
                {
                    "internalType": "address",
                    "name": "uEVMOS_",
                    "type": "address"
                }
            ],
            "name": "__Stayking_init",
            "outputs": [],
            "stateMutability": "nonpayable",
            "type": "function"
        },
        {
            "inputs": [
                {
                    "internalType": "uint256",
                    "name": "totalStaked",
                    "type": "uint256"
                }
            ],
            "name": "accrue",
            "outputs": [],
            "stateMutability": "payable",
            "type": "function"
        },
        {
            "inputs": [
                {
                    "internalType": "address",
                    "name": "debtToken",
                    "type": "address"
                },
                {
                    "internalType": "uint256",
                    "name": "equity",
                    "type": "uint256"
                },
                {
                    "internalType": "uint256",
                    "name": "debtInBase",
                    "type": "uint256"
                }
            ],
            "name": "addPosition",
            "outputs": [],
            "stateMutability": "payable",
            "type": "function"
        },
        {
            "inputs": [
                {
                    "internalType": "uint256",
                    "name": "amount",
                    "type": "uint256"
                }
            ],
            "name": "amountToShare",
            "outputs": [
                {
                    "internalType": "uint256",
                    "name": "",
                    "type": "uint256"
                }
            ],
            "stateMutability": "view",
            "type": "function"
        },
        {
            "inputs": [
                {
                    "internalType": "address",
                    "name": "_delegator",
                    "type": "address"
                }
            ],
            "name": "changeDelegator",
            "outputs": [],
            "stateMutability": "nonpayable",
            "type": "function"
        },
        {
            "inputs": [
                {
                    "internalType": "address",
                    "name": "debtToken",
                    "type": "address"
                },
                {
                    "internalType": "int256",
                    "name": "equityInBaseChanged",
                    "type": "int256"
                },
                {
                    "internalType": "int256",
                    "name": "debtInBaseChanged",
                    "type": "int256"
                },
                {
                    "internalType": "uint256",
                    "name": "repaidDebt",
                    "type": "uint256"
                }
            ],
            "name": "changePosition",
            "outputs": [],
            "stateMutability": "payable",
            "type": "function"
        },
        {
            "inputs": [
                {
                    "internalType": "address",
                    "name": "token",
                    "type": "address"
                },
                {
                    "internalType": "uint256",
                    "name": "amount",
                    "type": "uint256"
                }
            ],
            "name": "claimReserves",
            "outputs": [],
            "stateMutability": "nonpayable",
            "type": "function"
        },
        {
            "inputs": [
                {
                    "internalType": "address",
                    "name": "user",
                    "type": "address"
                },
                {
                    "internalType": "address",
                    "name": "vault",
                    "type": "address"
                }
            ],
            "name": "debtAmountOf",
            "outputs": [
                {
                    "internalType": "uint256",
                    "name": "",
                    "type": "uint256"
                }
            ],
            "stateMutability": "view",
            "type": "function"
        },
        {
            "inputs": [],
            "name": "delegator",
            "outputs": [
                {
                    "internalType": "address",
                    "name": "",
                    "type": "address"
                }
            ],
            "stateMutability": "view",
            "type": "function"
        },
        {
            "inputs": [
                {
                    "internalType": "uint256",
                    "name": "reward",
                    "type": "uint256"
                }
            ],
            "name": "getAccruedValue",
            "outputs": [
                {
                    "internalType": "uint256",
                    "name": "",
                    "type": "uint256"
                }
            ],
            "stateMutability": "view",
            "type": "function"
        },
        {
            "inputs": [
                {
                    "internalType": "address",
                    "name": "debtToken",
                    "type": "address"
                },
                {
                    "internalType": "uint256",
                    "name": "positionId",
                    "type": "uint256"
                }
            ],
            "name": "isKillable",
            "outputs": [
                {
                    "internalType": "bool",
                    "name": "",
                    "type": "bool"
                }
            ],
            "stateMutability": "view",
            "type": "function"
        },
        {
            "inputs": [
                {
                    "internalType": "address",
                    "name": "debtToken",
                    "type": "address"
                },
                {
                    "internalType": "uint256",
                    "name": "positionId",
                    "type": "uint256"
                }
            ],
            "name": "kill",
            "outputs": [],
            "stateMutability": "nonpayable",
            "type": "function"
        },
        {
            "inputs": [],
            "name": "killFactorBps",
            "outputs": [
                {
                    "internalType": "uint256",
                    "name": "",
                    "type": "uint256"
                }
            ],
            "stateMutability": "view",
            "type": "function"
        },
        {
            "inputs": [],
            "name": "liquidateDebtFactorBps",
            "outputs": [
                {
                    "internalType": "uint256",
                    "name": "",
                    "type": "uint256"
                }
            ],
            "stateMutability": "view",
            "type": "function"
        },
        {
            "inputs": [],
            "name": "liquidationFeeBps",
            "outputs": [
                {
                    "internalType": "uint256",
                    "name": "",
                    "type": "uint256"
                }
            ],
            "stateMutability": "view",
            "type": "function"
        },
        {
            "inputs": [],
            "name": "minDebtInBase",
            "outputs": [
                {
                    "internalType": "uint256",
                    "name": "",
                    "type": "uint256"
                }
            ],
            "stateMutability": "view",
            "type": "function"
        },
        {
            "inputs": [],
            "name": "owner",
            "outputs": [
                {
                    "internalType": "address",
                    "name": "",
                    "type": "address"
                }
            ],
            "stateMutability": "view",
            "type": "function"
        },
        {
            "inputs": [
                {
                    "internalType": "address",
                    "name": "",
                    "type": "address"
                },
                {
                    "internalType": "address",
                    "name": "",
                    "type": "address"
                }
            ],
            "name": "positionIdOf",
            "outputs": [
                {
                    "internalType": "uint256",
                    "name": "",
                    "type": "uint256"
                }
            ],
            "stateMutability": "view",
            "type": "function"
        },
        {
            "inputs": [
                {
                    "internalType": "address",
                    "name": "user",
                    "type": "address"
                },
                {
                    "internalType": "address",
                    "name": "debtToken",
                    "type": "address"
                }
            ],
            "name": "positionInfo",
            "outputs": [
                {
                    "internalType": "uint256",
                    "name": "positionValueInBase",
                    "type": "uint256"
                },
                {
                    "internalType": "uint256",
                    "name": "debtInBase",
                    "type": "uint256"
                },
                {
                    "internalType": "uint256",
                    "name": "debt",
                    "type": "uint256"
                },
                {
                    "internalType": "uint256",
                    "name": "positionId",
                    "type": "uint256"
                }
            ],
            "stateMutability": "view",
            "type": "function"
        },
        {
            "inputs": [
                {
                    "internalType": "address",
                    "name": "",
                    "type": "address"
                },
                {
                    "internalType": "uint256",
                    "name": "",
                    "type": "uint256"
                }
            ],
            "name": "positions",
            "outputs": [
                {
                    "internalType": "address",
                    "name": "user",
                    "type": "address"
                },
                {
                    "internalType": "uint256",
                    "name": "share",
                    "type": "uint256"
                }
            ],
            "stateMutability": "view",
            "type": "function"
        },
        {
            "inputs": [
                {
                    "internalType": "address",
                    "name": "",
                    "type": "address"
                }
            ],
            "name": "positionsLengthOf",
            "outputs": [
                {
                    "internalType": "uint256",
                    "name": "",
                    "type": "uint256"
                }
            ],
            "stateMutability": "view",
            "type": "function"
        },
        {
            "inputs": [
                {
                    "internalType": "address",
                    "name": "debtToken",
                    "type": "address"
                }
            ],
            "name": "removePosition",
            "outputs": [],
            "stateMutability": "nonpayable",
            "type": "function"
        },
        {
            "inputs": [],
            "name": "renounceOwnership",
            "outputs": [],
            "stateMutability": "nonpayable",
            "type": "function"
        },
        {
            "inputs": [],
            "name": "reservedBps",
            "outputs": [
                {
                    "internalType": "uint256",
                    "name": "",
                    "type": "uint256"
                }
            ],
            "stateMutability": "view",
            "type": "function"
        },
        {
            "inputs": [],
            "name": "reservedPool",
            "outputs": [
                {
                    "internalType": "uint256",
                    "name": "",
                    "type": "uint256"
                }
            ],
            "stateMutability": "view",
            "type": "function"
        },
        {
            "inputs": [
                {
                    "internalType": "uint256",
                    "name": "share",
                    "type": "uint256"
                }
            ],
            "name": "shareToAmount",
            "outputs": [
                {
                    "internalType": "uint256",
                    "name": "",
                    "type": "uint256"
                }
            ],
            "stateMutability": "view",
            "type": "function"
        },
        {
            "inputs": [
                {
                    "internalType": "address",
                    "name": "",
                    "type": "address"
                }
            ],
            "name": "tokenToVault",
            "outputs": [
                {
                    "internalType": "address",
                    "name": "",
                    "type": "address"
                }
            ],
            "stateMutability": "view",
            "type": "function"
        },
        {
            "inputs": [],
            "name": "totalAmount",
            "outputs": [
                {
                    "internalType": "uint256",
                    "name": "",
                    "type": "uint256"
                }
            ],
            "stateMutability": "view",
            "type": "function"
        },
        {
            "inputs": [
                {
                    "internalType": "address",
                    "name": "",
                    "type": "address"
                }
            ],
            "name": "totalDebtOf",
            "outputs": [
                {
                    "internalType": "uint256",
                    "name": "",
                    "type": "uint256"
                }
            ],
            "stateMutability": "view",
            "type": "function"
        },
        {
            "inputs": [],
            "name": "totalShare",
            "outputs": [
                {
                    "internalType": "uint256",
                    "name": "",
                    "type": "uint256"
                }
            ],
            "stateMutability": "view",
            "type": "function"
        },
        {
            "inputs": [
                {
                    "internalType": "address",
                    "name": "newOwner",
                    "type": "address"
                }
            ],
            "name": "transferOwnership",
            "outputs": [],
            "stateMutability": "nonpayable",
            "type": "function"
        },
        {
            "inputs": [],
            "name": "uEVMOS",
            "outputs": [
                {
                    "internalType": "contract IUnbondedEvmos",
                    "name": "",
                    "type": "address"
                }
            ],
            "stateMutability": "view",
            "type": "function"
        },
        {
            "inputs": [
                {
                    "internalType": "uint256",
                    "name": "_minDebtInBase",
                    "type": "uint256"
                },
                {
                    "internalType": "uint256",
                    "name": "_reservedBps",
                    "type": "uint256"
                },
                {
                    "internalType": "uint256",
                    "name": "_vaultRewardBps",
                    "type": "uint256"
                },
                {
                    "internalType": "uint256",
                    "name": "_killFactorBps",
                    "type": "uint256"
                },
                {
                    "internalType": "uint256",
                    "name": "_liquidateDebtFactorBps",
                    "type": "uint256"
                },
                {
                    "internalType": "uint256",
                    "name": "_liquidationFeeBps",
                    "type": "uint256"
                }
            ],
            "name": "updateConfigs",
            "outputs": [],
            "stateMutability": "nonpayable",
            "type": "function"
        },
        {
            "inputs": [
                {
                    "internalType": "address",
                    "name": "token",
                    "type": "address"
                },
                {
                    "internalType": "address",
                    "name": "vault",
                    "type": "address"
                }
            ],
            "name": "updateVault",
            "outputs": [],
            "stateMutability": "nonpayable",
            "type": "function"
        },
        {
            "inputs": [
                {
                    "internalType": "address[]",
                    "name": "killers",
                    "type": "address[]"
                },
                {
                    "internalType": "bool",
                    "name": "ok",
                    "type": "bool"
                }
            ],
            "name": "updateWhitelistedKillerStatus",
            "outputs": [],
            "stateMutability": "nonpayable",
            "type": "function"
        },
        {
            "inputs": [],
            "name": "vaultRewardBps",
            "outputs": [
                {
                    "internalType": "uint256",
                    "name": "",
                    "type": "uint256"
                }
            ],
            "stateMutability": "view",
            "type": "function"
        },
        {
            "inputs": [
                {
                    "internalType": "uint256",
                    "name": "",
                    "type": "uint256"
                }
            ],
            "name": "vaults",
            "outputs": [
                {
                    "internalType": "address",
                    "name": "",
                    "type": "address"
                }
            ],
            "stateMutability": "view",
            "type": "function"
        },
        {
            "inputs": [
                {
                    "internalType": "address",
                    "name": "",
                    "type": "address"
                }
            ],
            "name": "whitelistedKiller",
            "outputs": [
                {
                    "internalType": "bool",
                    "name": "",
                    "type": "bool"
                }
            ],
            "stateMutability": "view",
            "type": "function"
        },
        {
            "stateMutability": "payable",
            "type": "receive"
        }
    ],
    "transactionHash": "0xd96e51eff7f8f7526625aaff057bdbed2cf55481e33f6ecbb0ec3783a654e0e6",
    "args": [],
    "numDeployments": 1,
    "solcInputHash": "a24ecd7c87cc98307ddfcd8a3870244e",
    "bytecode": "0x608060405234801561001057600080fd5b506135b7806100206000396000f3fe6080604052600436106102115760003560e01c80638da5cb5b11610117578063c1be6677116100a5578063e031a8241161006c578063e031a8241461069c578063e4175aee146106b2578063f0e63edf146106d2578063f2fde38b146106e8578063fc8389951461070857005b8063c1be6677146105ea578063ce9b793014610629578063cff07fd114610649578063d87cad671461065c578063df5ca1f81461067c57005b8063afd06b34116100e9578063afd06b341461053f578063b1ae5ed31461055f578063b2a2a96b1461057f578063bb94d3db1461059f578063bed06b0b146105d757005b80638da5cb5b146104a457806392707802146104c25780639f2b2833146104e2578063a3381d281461050f57005b806346c224291161019f57806352e83e521161016657806352e83e52146104165780635ff025311461042c578063715018a61461045c578063744f4cf6146104715780638c64ea4a1461048457005b806346c22429146103535780634b11181b146103735780635066f3b51461039357806351dabb75146103d357806352728e4b1461040057005b80631b451d28116101e35780631b451d28146102bd57806327dfaf92146102dd57806328f55a6c146102fd5780632d4047e5146103135780632d6f80131461033357005b8063026c42071461021a5780630c7e172514610243578063178483a7146102915780631a39d8ef146102a757005b3661021857005b005b34801561022657600080fd5b50610230609c5481565b6040519081526020015b60405180910390f35b34801561024f57600080fd5b5061027961025e36600461317d565b6099602052600090815260409020546001600160a01b031681565b6040516001600160a01b03909116815260200161023a565b34801561029d57600080fd5b50610230609d5481565b3480156102b357600080fd5b50610230609b5481565b3480156102c957600080fd5b506102186102d8366004613197565b61071e565b3480156102e957600080fd5b506102306102f8366004613197565b610a58565b34801561030957600080fd5b5061023060a05481565b34801561031f57600080fd5b5061023061032e366004613300565b610ade565b34801561033f57600080fd5b5061023061034e366004613300565b610b0e565b34801561035f57600080fd5b5061021861036e366004613201565b610b2b565b34801561037f57600080fd5b5061021861038e36600461325c565b610b7c565b34801561039f57600080fd5b506103b36103ae366004613197565b610c09565b60408051948552602085019390935291830152606082015260800161023a565b3480156103df57600080fd5b506102306103ee36600461317d565b60a76020526000908152604090205481565b34801561040c57600080fd5b5061023060a15481565b34801561042257600080fd5b50610230609e5481565b34801561043857600080fd5b5061044c610447366004613201565b610db0565b604051901515815260200161023a565b34801561046857600080fd5b50610218610e6e565b61021861047f366004613300565b610e82565b34801561049057600080fd5b5061027961049f366004613300565b611627565b3480156104b057600080fd5b506033546001600160a01b0316610279565b3480156104ce57600080fd5b506102186104dd366004613201565b611651565b3480156104ee57600080fd5b506102306104fd36600461317d565b60a86020526000908152604090205481565b34801561051b57600080fd5b5061044c61052a36600461317d565b60986020526000908152604090205460ff1681565b34801561054b57600080fd5b5060a454610279906001600160a01b031681565b34801561056b57600080fd5b5061021861057a36600461317d565b6118c7565b34801561058b57600080fd5b5061021861059a366004613197565b611923565b3480156105ab57600080fd5b506102306105ba366004613197565b60a560209081526000928352604080842090915290825290205481565b6102186105e53660046131c9565b611aa8565b3480156105f657600080fd5b5061060a610605366004613201565b612006565b604080516001600160a01b03909316835260208301919091520161023a565b34801561063557600080fd5b50609754610279906001600160a01b031681565b61021861065736600461322a565b61204c565b34801561066857600080fd5b50610218610677366004613330565b612389565b34801561068857600080fd5b5061021861069736600461317d565b61240a565b3480156106a857600080fd5b5061023060a25481565b3480156106be57600080fd5b506102306106cd366004613300565b612667565b3480156106de57600080fd5b5061023060a35481565b3480156106f457600080fd5b5061021861070336600461317d565b6127b6565b34801561071457600080fd5b50610230609f5481565b61072661282c565b6001600160a01b0380831660009081526099602052604090205416806107d657609a80546001810182556000919091527f44da158ba27f9252712a74ff6a55c5d531f69609f1f6e7f17c4443a8e2089be40180546001600160a01b0319166001600160a01b0384811691821790925560408051928616835260208301919091527f7f03ac7449144076e2d9d5a237c3ff0d0108e0a2ebdd5213c4b0de6f4d4f6953910160405180910390a16109d4565b806001600160a01b031663c8dffa956040518163ffffffff1660e01b815260040160206040518083038186803b15801561080f57600080fd5b505afa158015610823573d6000803e3d6000fd5b505050506040513d601f19601f820116820180604052508101906108479190613318565b156108b25760405162461bcd60e51b815260206004820152603060248201527f7570646174655661756c743a20446562742072656d61696e73206f6e2074686560448201526f1032bc34b9ba34b733903b30bab63a1760811b60648201526084015b60405180910390fd5b609a546000805b8281101561097257836001600160a01b0316609a82815481106108ec57634e487b7160e01b600052603260045260246000fd5b6000918252602090912001546001600160a01b031614156109605784609a828154811061092957634e487b7160e01b600052603260045260246000fd5b9060005260206000200160006101000a8154816001600160a01b0302191690836001600160a01b0316021790555060019150610972565b8061096a81613528565b9150506108b9565b508061098e57634e487b7160e01b600052600160045260246000fd5b604080516001600160a01b038088168252861660208201527f4cc233b502e1e28f371b28114d4a8be87a93f330c18e3c339079fc498320fb8d910160405180910390a150505b506001600160a01b03918216600090815260996020908152604080832080546001600160a01b031990811695871695861790915584845260a68352818420825180840184528581528085018681528254600181810185559388528688209251600290910290920180549094169190981617825595519086015592825260a790522055565b604051636592183b60e01b81526001600160a01b03838116600483015260009190831690636592183b9060240160206040518083038186803b158015610a9d57600080fd5b505afa158015610ab1573d6000803e3d6000fd5b505050506040513d601f19601f82011682018060405250810190610ad59190613318565b90505b92915050565b6000609b54600014610b0a57609b5482609c54610afb91906134f2565b610b05919061344f565b610ad8565b5090565b6000609c54600014610b0a57609c5482609b54610afb91906134f2565b610b3361282c565b6001600160a01b038216610b6057610b5c610b566033546001600160a01b031690565b82612886565b5050565b610b5c82610b766033546001600160a01b031690565b83612938565b610b8461282c565b60005b82811015610c03578160986000868685818110610bb457634e487b7160e01b600052603260045260246000fd5b9050602002016020810190610bc9919061317d565b6001600160a01b031681526020810191909152604001600020805460ff191691151591909117905580610bfb81613528565b915050610b87565b50505050565b6001600160a01b03808216600090815260996020908152604080832054868516845260a5835281842094168084529382528083205460a69092528220805492938493849392849184908110610c6e57634e487b7160e01b600052603260045260246000fd5b60009182526020918290206040805180820190915260029092020180546001600160a01b03168252600101549181018290529150610cab90610b0e565b604051636592183b60e01b81526001600160a01b038a8116600483015291975090831690636592183b9060240160206040518083038186803b158015610cf057600080fd5b505afa158015610d04573d6000803e3d6000fd5b505050506040513d601f19601f82011682018060405250810190610d289190613318565b6040516312bad57f60e31b8152600481018290529094506001600160a01b038316906395d6abf89060240160206040518083038186803b158015610d6b57600080fd5b505afa158015610d7f573d6000803e3d6000fd5b505050506040513d601f19601f82011682018060405250810190610da39190613318565b9450505092959194509250565b6001600160a01b0380831660009081526099602090815260408083205490931680835260a6909152918120805491929183919085908110610e0157634e487b7160e01b600052603260045260246000fd5b60009182526020918290206040805180820190915260029092020180546001600160a01b03168252600101549181018290529150610e4457600092505050610ad8565b6000610e62838360200151610e5d856000015187610a58565b612a43565b50159695505050505050565b610e7661282c565b610e806000612aef565b565b6097546001600160a01b03163314610ee85760405162461bcd60e51b8152602060048201526024808201527f537461796b696e673a204e6f742077686974656c69737465642064656c6567616044820152633a37b91760e11b60648201526084016108a9565b609b54811015610f4b5760405162461bcd60e51b815260206004820152602860248201527f6163637275653a20746f74616c5374616b6564203c206265666f726520746f74604482015267185b105b5bdd5b9d60c21b60648201526084016108a9565b60003411610faa5760405162461bcd60e51b815260206004820152602660248201527f6163637275653a20596f752073686f756c642073656e6420636c61696d65642060448201526522ab26a7a99760d11b60648201526084016108a9565b6000612710609e5434610fbd91906134f2565b610fc7919061344f565b90508060a36000828254610fdb9190613437565b9091555050609a54600090818167ffffffffffffffff81111561100e57634e487b7160e01b600052604160045260246000fd5b604051908082528060200260200182016040528015611037578160200160208202803683370190505b50905060005b8281101561115a57609a818154811061106657634e487b7160e01b600052603260045260246000fd5b6000918252602091829020015460408051630f5f4c7f60e21b815290516001600160a01b0390921692633d7d31fc92600480840193829003018186803b1580156110af57600080fd5b505afa1580156110c3573d6000803e3d6000fd5b505050506040513d601f19601f820116820180604052508101906110e79190613318565b82828151811061110757634e487b7160e01b600052603260045260246000fd5b60200260200101818152505081818151811061113357634e487b7160e01b600052603260045260246000fd5b6020026020010151846111469190613437565b93508061115281613528565b91505061103d565b5060006111678534613511565b9050836111d15780609b60008282546111809190613437565b9091555050609b5460405133917f68f604dad2502091469814ccdd58acac4592d7766a922eee86e6ab9965cfe949916111c191858252602082015260400190565b60405180910390a2505050505050565b80841061139e5760005b83811015611353576000609a828154811061120657634e487b7160e01b600052603260045260246000fd5b600091825260208220015485516001600160a01b0390911692508790859087908690811061124457634e487b7160e01b600052603260045260246000fd5b602002602001015161125691906134f2565b611260919061344f565b6040516315d6dae960e01b8152600481018290529091506000906001600160a01b038416906315d6dae99060240160206040518083038186803b1580156112a657600080fd5b505afa1580156112ba573d6000803e3d6000fd5b505050506040513d601f19601f820116820180604052508101906112de9190613318565b60405163ad452d7560e01b8152600481018290529091506001600160a01b0384169063ad452d759084906024016000604051808303818588803b15801561132457600080fd5b505af1158015611338573d6000803e3d6000fd5b5050505050505050808061134b90613528565b9150506111db565b50609b5460405133917f68f604dad2502091469814ccdd58acac4592d7766a922eee86e6ab9965cfe949916113919160008252602082015260400190565b60405180910390a261161e565b609f548590600090612710906113b48886613511565b6113be91906134f2565b6113c8919061344f565b905060005b8581101561159f576000878683815181106113f857634e487b7160e01b600052603260045260246000fd5b60200260200101518461140b91906134f2565b611415919061344f565b86838151811061143557634e487b7160e01b600052603260045260246000fd5b60200260200101516114479190613437565b9050609a828154811061146a57634e487b7160e01b600052603260045260246000fd5b600091825260209091200154609a80546001600160a01b039092169163ad452d75918491869081106114ac57634e487b7160e01b600052603260045260246000fd5b6000918252602091829020015460408051636d22f63f60e11b815290516001600160a01b039092169263da45ec7e92600480840193829003018186803b1580156114f557600080fd5b505afa158015611509573d6000803e3d6000fd5b505050506040513d601f19601f8201168201806040525081019061152d9190613318565b6040518363ffffffff1660e01b815260040161154b91815260200190565b6000604051808303818588803b15801561156457600080fd5b505af1158015611578573d6000803e3d6000fd5b505050505080846115899190613437565b935050808061159790613528565b9150506113cd565b5060006115ac8334613511565b905080156115d65780609b60008282546115c69190613437565b909155506115d690503382612886565b609b5460405133917f68f604dad2502091469814ccdd58acac4592d7766a922eee86e6ab9965cfe9499161161291858252602082015260400190565b60405180910390a25050505b50505050505b50565b609a818154811061163757600080fd5b6000918252602090912001546001600160a01b0316905081565b3360009081526098602052604090205460ff166116ba5760405162461bcd60e51b815260206004820152602160248201527f537461796b696e673a204e6f742077686974656c6973746564204b696c6c65726044820152601760f91b60648201526084016108a9565b6001600160a01b0380831660009081526099602090815260408083205490931680835260a690915291812080548490811061170557634e487b7160e01b600052603260045260246000fd5b9060005260206000209060020201905060008160010154116117625760405162461bcd60e51b815260206004820152601660248201527535b4b6361d103932b6b7bb32b2103837b9b4ba34b7b760511b60448201526064016108a9565b805460009061177a906001600160a01b031684610a58565b905060008061178e85856001015485612a43565b9150915081156117e05760405162461bcd60e51b815260206004820152601a60248201527f6b696c6c3a207374696c6c207361666520706f736974696f6e2e00000000000060448201526064016108a9565b60006117ef8560010154610b0e565b9050600061271060a2548361180491906134f2565b61180e919061344f565b905061181d8688848885612b41565b85546001600160a01b0316337f62b067e31c5a2d2734bc19924c46c930e1b7063b5b473238f2f8bb7ab88a15b6896118558787613511565b60018b0154604080516001600160a01b0390941684526020840192909252908201889052606082018a9052608082015260a00160405180910390a3505092546001600160a01b03908116600090815260a560209081526040808320979093168252959095528420939093555050505050565b6118cf61282c565b609780546001600160a01b0319166001600160a01b0383169081179091556040519081527fc46722a14b09e7b7e59991ec89fb4bb88ffed57f1b2187a65e959f5c0053716d9060200160405180910390a150565b600054610100900460ff16158080156119435750600054600160ff909116105b8061195d5750303b15801561195d575060005460ff166001145b6119c05760405162461bcd60e51b815260206004820152602e60248201527f496e697469616c697a61626c653a20636f6e747261637420697320616c72656160448201526d191e481a5b9a5d1a585b1a5e995960921b60648201526084016108a9565b6000805460ff1916600117905580156119e3576000805461ff0019166101001790555b61271060a1556119f1612d95565b6119f9612dc4565b611a16662386f26fc10000610bb86103e8611d4c806101f4612389565b60a480546001600160a01b0319166001600160a01b038416179055611a3a836118c7565b6001600160a01b0383166000908152609860205260409020805460ff191660011790558015611aa3576000805461ff0019169055604051600181527f7f26b83ff96e1f2b6a682f133852f6798a09c465da95921460cefb38474024989060200160405180910390a15b505050565b6001600160a01b0380851660009081526099602090815260408083205433845260a5835281842094168084529390915290205480611b285760405162461bcd60e51b815260206004820152601b60248201527f6368616e6765506f736974696f6e3a206e6f20706f736974696f6e000000000060448201526064016108a9565b6001600160a01b038216600090815260a660205260408120805483908110611b6057634e487b7160e01b600052603260045260246000fd5b906000526020600020906002020190506000808712611bdb5786341015611bd55760405162461bcd60e51b8152602060048201526024808201527f6368616e6765506f736974696f6e3a204e6f7420656e6f756768206d73672e76604482015263616c756560e01b60648201526084016108a9565b86340390505b600080600080611beb8b8b612df3565b935093509350935060008112611c0c57611c058186613437565b9450611c3f565b611c1581613543565b8510611c2e57611c2481613543565b611c059086613511565b60009450611c3c85826133f6565b90505b8315611ce6578115611ccd5760405163185cc75160e01b8152336004820152602481018390526001600160a01b0389169063185cc75190604401602060405180830381600087803b158015611c9357600080fd5b505af1158015611ca7573d6000803e3d6000fd5b505050506040513d601f19601f82011682018060405250810190611ccb9190613318565b505b611ce086611cdb8486613437565b612f1e565b50611e1b565b6000808212611cf6576000611cff565b611cff82613543565b611d098486613437565b611d139190613437565b905060a15481611d2391906134f2565b611d2f846127106134f2565b1115611d8e5760405162461bcd60e51b815260206004820152602860248201527f756e7374616b653a20746f6f206d756368206465627420696e20756e7374616b60448201526765642045564d4f5360c01b60648201526084016108a9565b611e19878a838c6001600160a01b03166315d6dae9886040518263ffffffff1660e01b8152600401611dc291815260200190565b60206040518083038186803b158015611dda57600080fd5b505afa158015611dee573d6000803e3d6000fd5b505050506040513d601f19601f82011682018060405250810190611e129190613318565b6000612b41565b505b8815611e8e57611e2d8c33308c612fe0565b604051630724e59160e41b8152336004820152602481018a90526001600160a01b0389169063724e591090604401600060405180830381600087803b158015611e7557600080fd5b505af1158015611e89573d6000803e3d6000fd5b505050505b8415611f1857604051639d2e6fcb60e01b8152336004820152600160248201526001600160a01b03891690639d2e6fcb9087906044016020604051808303818588803b158015611edd57600080fd5b505af1158015611ef1573d6000803e3d6000fd5b50505050506040513d601f19601f82011682018060405250810190611f169190613318565b505b6000611f24338a610a58565b90506000611f378a896001015484612a43565b50905080611f875760405162461bcd60e51b815260206004820152601860248201527f6368616e6765506f736974696f6e3a206261642064656274000000000000000060448201526064016108a9565b5050876001600160a01b0316336001600160a01b03167ff35a14688e4794e8022cd9e5c7ec6475a6095ef189dea9647fad0de771465b8a611fcb8960010154610b0e565b8960010154611fda338e610a58565b6040805193845260208401929092529082015260600160405180910390a3505050505050505050505050565b60a6602052816000526040600020818154811061202257600080fd5b6000918252602090912060029091020180546001909101546001600160a01b039091169250905082565b6001600160a01b0380841660009081526099602090815260408083205433845260a58352818420941680845293909152902054156120d75760405162461bcd60e51b815260206004820152602260248201527f616464506f736974696f6e3a20616c7265616479206861766520706f7369746960448201526137b760f11b60648201526084016108a9565b3483146121265760405162461bcd60e51b815260206004820181905260248201527f616464506f736974696f6e3a206d73672e76616c756520213d2065717569747960448201526064016108a9565b60006121328385613437565b905060a0548161214291906134f2565b61214e846127106134f2565b106121af5760405162461bcd60e51b815260206004820152602b60248201527f616464506f736974696f6e3a2062616420646562742c2063616e6e6f74206f7060448201526a32b7103837b9b4ba34b7b760a91b60648201526084016108a9565b60008084116121bf57600061223f565b60405163185cc75160e01b8152336004820152602481018590526001600160a01b0384169063185cc75190604401602060405180830381600087803b15801561220757600080fd5b505af115801561221b573d6000803e3d6000fd5b505050506040513d601f19601f8201168201806040525081019061223f9190613318565b6001600160a01b03848116600081815260a660209081526040808320815180830183523381528084018581528254600180820185559387528587209251600290910290920180546001600160a01b03191692909816919091178755519581019590955592825260a790529081208054939450906122bc8385613437565b909155505033600090815260a5602090815260408083206001600160a01b0388168452825280832084905560a69091528120805461232791908490811061231357634e487b7160e01b600052603260045260246000fd5b906000526020600020906002020185612f1e565b6040805189815260208101899052908101859052606081018290529091506001600160a01b0386169033907f92b0fd5c6dbe6ec5b43a8afae4c587c1db47afcca43a21b7800bd848fcf8e4969060800160405180910390a35050505050505050565b61239161282c565b609d869055609e859055609f84905560a083815560a183905560a282905560408051888152602081018890528082018790526060810186905260808101859052918201839052517ff158be3136d3d369b2d9c9c22945209d8f58efdcf51cf332b7c88f78bd1f171c9181900360c00190a1505050505050565b6001600160a01b0380821660009081526099602090815260408083205490931680835260a6825283832033845260a58352848420828552909252928220548154811061246657634e487b7160e01b600052603260045260246000fd5b9060005260206000209060020201905060008160010154116124dd5760405162461bcd60e51b815260206004820152602a60248201527f72656d6f7665506f736974696f6e3a204e6f20706f736974696f6e20666f72206044820152693a3434b9903a37b5b2b760b11b60648201526084016108a9565b60006124e93384610a58565b6040516312bad57f60e31b8152600481018290529091506000906001600160a01b038516906395d6abf89060240160206040518083038186803b15801561252f57600080fd5b505afa158015612543573d6000803e3d6000fd5b505050506040513d601f19601f820116820180604052508101906125679190613318565b905060006125788460010154610b0e565b9050612588848683866000612b41565b818110156125d85760405162461bcd60e51b815260206004820152601860248201527f72656d6f7665506f736974696f6e3a204261642064656274000000000000000060448201526064016108a9565b6001600160a01b038516337f3cb91b4d61d4fefa96da17651a09b54f7b6751cb68d11134cf0efe0a4965796861260e8585613511565b600188015460408051928352602083018890528201889052606082015260800160405180910390a3505033600090815260a5602090815260408083206001600160a01b0396909616835294905292832092909255505050565b600080612710609e548461267b91906134f2565b612685919061344f565b609a549091506000805b8281101561275757609a81815481106126b857634e487b7160e01b600052603260045260246000fd5b6000918252602091829020015460408051630f5f4c7f60e21b815290516001600160a01b0390921692633d7d31fc92600480840193829003018186803b15801561270157600080fd5b505afa158015612715573d6000803e3d6000fd5b505050506040513d601f19601f820116820180604052508101906127399190613318565b6127439083613437565b91508061274f81613528565b91505061268f565b50846127638285613437565b106127715750929392505050565b612710609f546127106127849190613511565b8261278f8689613511565b6127999190613511565b6127a391906134f2565b6127ad919061344f565b95945050505050565b6127be61282c565b6001600160a01b0381166128235760405162461bcd60e51b815260206004820152602660248201527f4f776e61626c653a206e6577206f776e657220697320746865207a65726f206160448201526564647265737360d01b60648201526084016108a9565b61162481612aef565b6033546001600160a01b03163314610e805760405162461bcd60e51b815260206004820181905260248201527f4f776e61626c653a2063616c6c6572206973206e6f7420746865206f776e657260448201526064016108a9565b604080516000808252602082019092526001600160a01b0384169083906040516128b09190613372565b60006040518083038185875af1925050503d80600081146128ed576040519150601f19603f3d011682016040523d82523d6000602084013e6128f2565b606091505b5050905080611aa35760405162461bcd60e51b815260206004820152601260248201527121736166655472616e7366657245564d4f5360701b60448201526064016108a9565b604080516001600160a01b038481166024830152604480830185905283518084039091018152606490920183526020820180516001600160e01b031663a9059cbb60e01b17905291516000928392908716916129949190613372565b6000604051808303816000865af19150503d80600081146129d1576040519150601f19603f3d011682016040523d82523d6000602084013e6129d6565b606091505b5091509150818015612a00575080511580612a00575080806020019051810190612a0091906132dd565b612a3c5760405162461bcd60e51b815260206004820152600d60248201526c10b9b0b332aa3930b739b332b960991b60448201526064016108a9565b5050505050565b6040516312bad57f60e31b81526004810182905260009081906001600160a01b038616906395d6abf89060240160206040518083038186803b158015612a8857600080fd5b505afa158015612a9c573d6000803e3d6000fd5b505050506040513d601f19601f82011682018060405250810190612ac09190613318565b905060a054612ace85610b0e565b612ad891906134f2565b612ae4826127106134f2565b109150935093915050565b603380546001600160a01b038381166001600160a01b0319831681179093556040519116919082907f8be0079c531659141344cd1fd0a4f28419497f9722a3daafe3b4186f6b6457e090600090a35050565b6000612b4c84610ade565b905080866001016000828254612b629190613511565b9250508190555083609b6000828254612b7b9190613511565b9250508190555080609c6000828254612b949190613511565b909155506000905083612ba8576000612c2d565b8654604051631a4e1aef60e01b81526001600160a01b0391821660048201526024810186905290871690631a4e1aef90604401602060405180830381600087803b158015612bf557600080fd5b505af1158015612c09573d6000803e3d6000fd5b505050506040513d601f19601f82011682018060405250810190612c2d9190613318565b60a45488549192506001600160a01b039081169163633235d0911688612c53878a613511565b6040516001600160e01b031960e086901b1681526001600160a01b039384166004820152929091166024830152604482015260648101849052608401600060405180830381600087803b158015612ca957600080fd5b505af1158015612cbd573d6000803e3d6000fd5b505050506000831115612d3e5760a454604051630633235d60e41b81523060048201526001600160a01b03888116602483015260448201869052600060648301529091169063633235d090608401600060405180830381600087803b158015612d2557600080fd5b505af1158015612d39573d6000803e3d6000fd5b505050505b865460975460408051888152602081018690526001600160a01b0393841693909216917f18edd09e80386cd99df397e2e0d87d2bb259423eae08645e776321a36fe680ef910160405180910390a350505050505050565b600054610100900460ff16612dbc5760405162461bcd60e51b81526004016108a9906133ab565b610e806130f0565b600054610100900460ff16612deb5760405162461bcd60e51b81526004016108a9906133ab565b610e80613120565b600080808080612e03868861346f565b1215612e655760405162461bcd60e51b815260206004820152602b60248201527f657175697479496e426173654368616e676564202a2064656274496e4261736560448201526a04368616e676564203c20360ac1b60648201526084016108a9565b6000612e71868861346f565b1215612eed5760008613612e848761314e565b9350612e8f8661314e565b9250828411612ebf5780156000612ea68686613511565b83612eb957612eb487613543565b612edc565b86612edc565b80612eca8486613511565b600083612eda57612eb486613543565b855b92975090955093509150612f159050565b612ef68661314e565b9250612f018561314e565b91506000861380612f125750600085135b93505b92959194509250565b6000612f2982610ade565b905080836001016000828254612f3f9190613437565b9250508190555081609b6000828254612f589190613437565b9250508190555080609c6000828254612f719190613437565b9091555050609754612f8c906001600160a01b031683612886565b825460975460408051858152602081018590526001600160a01b0393841693909216917f63602d0ecc7b3a0ef7ff1a116e23056662d64280355ba8031b6d0d767c4b4458910160405180910390a392915050565b604080516001600160a01b0385811660248301528481166044830152606480830185905283518084039091018152608490920183526020820180516001600160e01b03166323b872dd60e01b17905291516000928392908816916130449190613372565b6000604051808303816000865af19150503d8060008114613081576040519150601f19603f3d011682016040523d82523d6000602084013e613086565b606091505b50915091508180156130b05750805115806130b05750808060200190518101906130b091906132dd565b61161e5760405162461bcd60e51b815260206004820152601160248201527021736166655472616e7366657246726f6d60781b60448201526064016108a9565b600054610100900460ff166131175760405162461bcd60e51b81526004016108a9906133ab565b610e8033612aef565b600054610100900460ff166131475760405162461bcd60e51b81526004016108a9906133ab565b6001606555565b600080821215610b0a57610b0582613543565b80356001600160a01b038116811461317857600080fd5b919050565b60006020828403121561318e578081fd5b610ad582613161565b600080604083850312156131a9578081fd5b6131b283613161565b91506131c060208401613161565b90509250929050565b600080600080608085870312156131de578182fd5b6131e785613161565b966020860135965060408601359560600135945092505050565b60008060408385031215613213578182fd5b61321c83613161565b946020939093013593505050565b60008060006060848603121561323e578283fd5b61324784613161565b95602085013595506040909401359392505050565b600080600060408486031215613270578283fd5b833567ffffffffffffffff80821115613287578485fd5b818601915086601f83011261329a578485fd5b8135818111156132a8578586fd5b8760208260051b85010111156132bc578586fd5b602092830195509350508401356132d281613573565b809150509250925092565b6000602082840312156132ee578081fd5b81516132f981613573565b9392505050565b600060208284031215613311578081fd5b5035919050565b600060208284031215613329578081fd5b5051919050565b60008060008060008060c08789031215613348578182fd5b505084359660208601359650604086013595606081013595506080810135945060a0013592509050565b60008251815b818110156133925760208186018101518583015201613378565b818111156133a05782828501525b509190910192915050565b6020808252602b908201527f496e697469616c697a61626c653a20636f6e7472616374206973206e6f74206960408201526a6e697469616c697a696e6760a81b606082015260800190565b600080821280156001600160ff1b03849003851316156134185761341861355d565b600160ff1b83900384128116156134315761343161355d565b50500190565b6000821982111561344a5761344a61355d565b500190565b60008261346a57634e487b7160e01b81526012600452602481fd5b500490565b60006001600160ff1b03818413828413808216868404861116156134955761349561355d565b600160ff1b848712828116878305891216156134b3576134b361355d565b8587129250878205871284841616156134ce576134ce61355d565b878505871281841616156134e4576134e461355d565b505050929093029392505050565b600081600019048311821515161561350c5761350c61355d565b500290565b6000828210156135235761352361355d565b500390565b600060001982141561353c5761353c61355d565b5060010190565b6000600160ff1b8214156135595761355961355d565b0390565b634e487b7160e01b600052601160045260246000fd5b801515811461162457600080fdfea26469706673582212206e8563dd641f1db465cf047163dd64e79259273ee6cbb00ee53a51a779d866ff64736f6c63430008040033",
    "devdoc": {
        "kind": "dev",
        "methods": {
            "accrue(uint256)": {
                "details": "msg.value = all of staking reward",
                "params": {
                    "totalStaked": "current total staked EVMOS (except staking reward)"
                }
            },
            "addPosition(address,uint256,uint256)": {
                "params": {
                    "debtInBase": "debtAmount in EVMOS",
                    "debtToken": "debtToken Address (not vault address)",
                    "equity": "equityAmount in EVMOS"
                }
            },
            "changePosition(address,int256,int256,uint256)": {
                "details": "repayDebtInBase = msg.value - changeEquityInBaseUser should approve this firstif msg.value > 0, changeEquityInBase >= 0 since msg.value = changeEquityInBase + repayDebtInBase"
            },
            "getAccruedValue(uint256)": {
                "params": {
                    "reward": "claimed staking reward"
                }
            },
            "owner()": {
                "details": "Returns the address of the current owner."
            },
            "positionInfo(address,address)": {
                "details": "returns position's value & debt value position value: positionValueInBase equity value: positionValueInBase - debtInBase debt value: debtInBase debt ratio: debtInBase / positionValueInBase * 100(%) kill factor: killFactorBps / 100 safety buffer: (kill factor) - (debt ratio)"
            },
            "removePosition(address)": {
                "details": "remove all position of debtToken vault.",
                "params": {
                    "debtToken": "debtToken Address (not vault address)"
                }
            },
            "renounceOwnership()": {
                "details": "Leaves the contract without owner. It will not be possible to call `onlyOwner` functions anymore. Can only be called by the current owner. NOTE: Renouncing ownership will leave the contract without an owner, thereby removing any functionality that is only available to the owner."
            },
            "transferOwnership(address)": {
                "details": "Transfers ownership of the contract to a new account (`newOwner`). Can only be called by the current owner."
            }
        },
        "stateVariables": {
            "minDebtInBase": {
                "details": "min debtAmount in EVMOS (base token)"
            },
            "positionIdOf": {
                "details": "userAddress => vaultAddress => positionId (array Index of position)"
            },
            "positions": {
                "details": "vaultAddress => Position[]"
            },
            "reservedPool": {
                "details": "EVMOS amount reserved by Protocol"
            },
            "totalAmount": {
                "details": "kor)    + auto-compound "
            },
            "totalShare": {
                "details": "kor) auto-compound totalShare  .     ( /totalAmount) * totalShare  share ."
            }
        },
        "version": 1
    },
    "userdoc": {
        "kind": "user",
        "methods": {
            "accrue(uint256)": {
                "notice": "kor)    1. (Stayking)  ->  reward  (reservedBps / 100)%  2. Vault Interest(  calc by interestModel) (1) \" reward  N%\"   ,  reward interest    .  , ( reward - )  Vault Interest . (2)   ( ) reward Vault Interest . 3. Vault reward / Reinvested Amount 2-(2)  reward /     (vaultRewardBps / 100)% Vault  reward ,  Reinvest."
            },
            "amountToShare(uint256)": {
                "notice": "   (  / totalAmount) * totalShare  share ."
            },
            "changePosition(address,int256,int256,uint256)": {
                "notice": "change position value case 1. equityInBaseChanged > 0 - increase position value (stake more) - decrease debt ratio case 2. equityInBaseChanged < 0 - decrease position value (partial close) - increase debt ratio case 3. debtInBaseChanged > 0 (borrow more debt) - increase position value (stake more) - increase debt ratio case 4. debtInBaseChanged < 0 (repay debt by unstaking) - decrease position value (partial) - decrease debt ratio case 5. repaidDebt > 0 or repaidDebtInBase > 0 (repay debt with user's own token/EVMOS) - position value not changes (not call stake/unstake function) - decrease debt ratioIf equityInBaseChanged(=A) > 0 and debtInBaseChanged(=B) < 0, it is inefficient. e.g. A = 100 and B = -50, 50 EVMOS is Locked at uEVMOS. it produces the same result as if A = 50 and C = 50. (both increases equity by 50 EVMOS and repay debt by 50 EVMOS) Similarly, the case where equityInBaseChanged < 0 and debtInBaseChanged > 0 are also inefficient. So, we revert all cases where equityInBaseChanged * debtInBaseChanged < 0."
            },
            "removePosition(address)": {
                "notice": "kor)  100%      . ->   ."
            }
        },
        "version": 1
    },
    "storageLayout": {
        "storage": [
            {
                "astId": 2400,
                "contract": "contracts/token/Stayking.sol:Stayking",
                "label": "_initialized",
                "offset": 0,
                "slot": "0",
                "type": "t_uint8"
            },
            {
                "astId": 2403,
                "contract": "contracts/token/Stayking.sol:Stayking",
                "label": "_initializing",
                "offset": 1,
                "slot": "0",
                "type": "t_bool"
            },
            {
                "astId": 1165,
                "contract": "contracts/token/Stayking.sol:Stayking",
                "label": "__gap",
                "offset": 0,
                "slot": "1",
                "type": "t_array(t_uint256)50_storage"
            },
            {
                "astId": 2668,
                "contract": "contracts/token/Stayking.sol:Stayking",
                "label": "_owner",
                "offset": 0,
                "slot": "51",
                "type": "t_address"
            },
            {
                "astId": 2788,
                "contract": "contracts/token/Stayking.sol:Stayking",
                "label": "__gap",
                "offset": 0,
                "slot": "52",
                "type": "t_array(t_uint256)49_storage"
            },
            {
                "astId": 2803,
                "contract": "contracts/token/Stayking.sol:Stayking",
                "label": "_status",
                "offset": 0,
                "slot": "101",
                "type": "t_uint256"
            },
            {
                "astId": 2847,
                "contract": "contracts/token/Stayking.sol:Stayking",
                "label": "__gap",
                "offset": 0,
                "slot": "102",
                "type": "t_array(t_uint256)49_storage"
            },
            {
                "astId": 4006,
                "contract": "contracts/token/Stayking.sol:Stayking",
                "label": "delegator",
                "offset": 0,
                "slot": "151",
                "type": "t_address"
            },
            {
                "astId": 4010,
                "contract": "contracts/token/Stayking.sol:Stayking",
                "label": "whitelistedKiller",
                "offset": 0,
                "slot": "152",
                "type": "t_mapping(t_address,t_bool)"
            },
            {
                "astId": 4015,
                "contract": "contracts/token/Stayking.sol:Stayking",
                "label": "tokenToVault",
                "offset": 0,
                "slot": "153",
                "type": "t_mapping(t_address,t_address)"
            },
            {
                "astId": 4018,
                "contract": "contracts/token/Stayking.sol:Stayking",
                "label": "vaults",
                "offset": 0,
                "slot": "154",
                "type": "t_array(t_address)dyn_storage"
            },
            {
                "astId": 4021,
                "contract": "contracts/token/Stayking.sol:Stayking",
                "label": "totalAmount",
                "offset": 0,
                "slot": "155",
                "type": "t_uint256"
            },
            {
                "astId": 4024,
                "contract": "contracts/token/Stayking.sol:Stayking",
                "label": "totalShare",
                "offset": 0,
                "slot": "156",
                "type": "t_uint256"
            },
            {
                "astId": 4028,
                "contract": "contracts/token/Stayking.sol:Stayking",
                "label": "minDebtInBase",
                "offset": 0,
                "slot": "157",
                "type": "t_uint256"
            },
            {
                "astId": 4031,
                "contract": "contracts/token/Stayking.sol:Stayking",
                "label": "reservedBps",
                "offset": 0,
                "slot": "158",
                "type": "t_uint256"
            },
            {
                "astId": 4034,
                "contract": "contracts/token/Stayking.sol:Stayking",
                "label": "vaultRewardBps",
                "offset": 0,
                "slot": "159",
                "type": "t_uint256"
            },
            {
                "astId": 4037,
                "contract": "contracts/token/Stayking.sol:Stayking",
                "label": "killFactorBps",
                "offset": 0,
                "slot": "160",
                "type": "t_uint256"
            },
            {
                "astId": 4040,
                "contract": "contracts/token/Stayking.sol:Stayking",
                "label": "liquidateDebtFactorBps",
                "offset": 0,
                "slot": "161",
                "type": "t_uint256"
            },
            {
                "astId": 4043,
                "contract": "contracts/token/Stayking.sol:Stayking",
                "label": "liquidationFeeBps",
                "offset": 0,
                "slot": "162",
                "type": "t_uint256"
            },
            {
                "astId": 4046,
                "contract": "contracts/token/Stayking.sol:Stayking",
                "label": "reservedPool",
                "offset": 0,
                "slot": "163",
                "type": "t_uint256"
            },
            {
                "astId": 4049,
                "contract": "contracts/token/Stayking.sol:Stayking",
                "label": "uEVMOS",
                "offset": 0,
                "slot": "164",
                "type": "t_contract(IUnbondedEvmos)632"
            },
            {
                "astId": 4062,
                "contract": "contracts/token/Stayking.sol:Stayking",
                "label": "positionIdOf",
                "offset": 0,
                "slot": "165",
                "type": "t_mapping(t_address,t_mapping(t_address,t_uint256))"
            },
            {
                "astId": 4069,
                "contract": "contracts/token/Stayking.sol:Stayking",
                "label": "positions",
                "offset": 0,
                "slot": "166",
                "type": "t_mapping(t_address,t_array(t_struct(Position)4055_storage)dyn_storage)"
            },
            {
                "astId": 4073,
                "contract": "contracts/token/Stayking.sol:Stayking",
                "label": "positionsLengthOf",
                "offset": 0,
                "slot": "167",
                "type": "t_mapping(t_address,t_uint256)"
            },
            {
                "astId": 4077,
                "contract": "contracts/token/Stayking.sol:Stayking",
                "label": "totalDebtOf",
                "offset": 0,
                "slot": "168",
                "type": "t_mapping(t_address,t_uint256)"
            }
        ],
        "types": {
            "t_address": {
                "encoding": "inplace",
                "label": "address",
                "numberOfBytes": "20"
            },
            "t_array(t_address)dyn_storage": {
                "base": "t_address",
                "encoding": "dynamic_array",
                "label": "address[]",
                "numberOfBytes": "32"
            },
            "t_array(t_struct(Position)4055_storage)dyn_storage": {
                "base": "t_struct(Position)4055_storage",
                "encoding": "dynamic_array",
                "label": "struct Stayking.Position[]",
                "numberOfBytes": "32"
            },
            "t_array(t_uint256)49_storage": {
                "base": "t_uint256",
                "encoding": "inplace",
                "label": "uint256[49]",
                "numberOfBytes": "1568"
            },
            "t_array(t_uint256)50_storage": {
                "base": "t_uint256",
                "encoding": "inplace",
                "label": "uint256[50]",
                "numberOfBytes": "1600"
            },
            "t_bool": {
                "encoding": "inplace",
                "label": "bool",
                "numberOfBytes": "1"
            },
            "t_contract(IUnbondedEvmos)632": {
                "encoding": "inplace",
                "label": "contract IUnbondedEvmos",
                "numberOfBytes": "20"
            },
            "t_mapping(t_address,t_address)": {
                "encoding": "mapping",
                "key": "t_address",
                "label": "mapping(address => address)",
                "numberOfBytes": "32",
                "value": "t_address"
            },
            "t_mapping(t_address,t_array(t_struct(Position)4055_storage)dyn_storage)": {
                "encoding": "mapping",
                "key": "t_address",
                "label": "mapping(address => struct Stayking.Position[])",
                "numberOfBytes": "32",
                "value": "t_array(t_struct(Position)4055_storage)dyn_storage"
            },
            "t_mapping(t_address,t_bool)": {
                "encoding": "mapping",
                "key": "t_address",
                "label": "mapping(address => bool)",
                "numberOfBytes": "32",
                "value": "t_bool"
            },
            "t_mapping(t_address,t_mapping(t_address,t_uint256))": {
                "encoding": "mapping",
                "key": "t_address",
                "label": "mapping(address => mapping(address => uint256))",
                "numberOfBytes": "32",
                "value": "t_mapping(t_address,t_uint256)"
            },
            "t_mapping(t_address,t_uint256)": {
                "encoding": "mapping",
                "key": "t_address",
                "label": "mapping(address => uint256)",
                "numberOfBytes": "32",
                "value": "t_uint256"
            },
            "t_struct(Position)4055_storage": {
                "encoding": "inplace",
                "label": "struct Stayking.Position",
                "members": [
                    {
                        "astId": 4051,
                        "contract": "contracts/token/Stayking.sol:Stayking",
                        "label": "user",
                        "offset": 0,
                        "slot": "0",
                        "type": "t_address"
                    },
                    {
                        "astId": 4054,
                        "contract": "contracts/token/Stayking.sol:Stayking",
                        "label": "share",
                        "offset": 0,
                        "slot": "1",
                        "type": "t_uint256"
                    }
                ],
                "numberOfBytes": "64"
            },
            "t_uint256": {
                "encoding": "inplace",
                "label": "uint256",
                "numberOfBytes": "32"
            },
            "t_uint8": {
                "encoding": "inplace",
                "label": "uint8",
                "numberOfBytes": "1"
            }
        }
    }
}