{
  "address": "0x9BcA065E19b6d630032b53A8757fB093CbEAfC1d",
  "abi": [
    {
      "anonymous": false,
      "inputs": [
        {
          "indexed": true,
          "internalType": "address",
          "name": "delegator",
          "type": "address"
        },
        {
          "indexed": false,
          "internalType": "uint256",
          "name": "amount",
          "type": "uint256"
        }
      ],
      "name": "Accrue",
      "type": "event"
    },
    {
      "anonymous": false,
      "inputs": [
        {
          "indexed": true,
          "internalType": "address",
          "name": "user",
          "type": "address"
        },
        {
          "indexed": true,
          "internalType": "address",
          "name": "vault",
          "type": "address"
        },
        {
          "indexed": false,
          "internalType": "uint256",
          "name": "equity",
          "type": "uint256"
        },
        {
          "indexed": false,
          "internalType": "uint256",
          "name": "debtInBase",
          "type": "uint256"
        },
        {
          "indexed": false,
          "internalType": "uint256",
          "name": "debt",
          "type": "uint256"
        },
        {
          "indexed": false,
          "internalType": "uint256",
          "name": "share",
          "type": "uint256"
        }
      ],
      "name": "AddPosition",
      "type": "event"
    },
    {
      "anonymous": false,
      "inputs": [
        {
          "indexed": false,
          "internalType": "address",
          "name": "token",
          "type": "address"
        },
        {
          "indexed": false,
          "internalType": "address",
          "name": "vault",
          "type": "address"
        }
      ],
      "name": "AddVault",
      "type": "event"
    },
    {
      "anonymous": false,
      "inputs": [
        {
          "indexed": false,
          "internalType": "address",
          "name": "delegator",
          "type": "address"
        }
      ],
      "name": "ChangeDelegator",
      "type": "event"
    },
    {
      "anonymous": false,
      "inputs": [
        {
          "indexed": false,
          "internalType": "uint8",
          "name": "version",
          "type": "uint8"
        }
      ],
      "name": "Initialized",
      "type": "event"
    },
    {
      "anonymous": false,
      "inputs": [
        {
          "indexed": true,
          "internalType": "address",
          "name": "killer",
          "type": "address"
        },
        {
          "indexed": true,
          "internalType": "address",
          "name": "user",
          "type": "address"
        },
        {
          "indexed": false,
          "internalType": "address",
          "name": "vault",
          "type": "address"
        },
        {
          "indexed": false,
          "internalType": "uint256",
          "name": "equity",
          "type": "uint256"
        },
        {
          "indexed": false,
          "internalType": "uint256",
          "name": "debtInBase",
          "type": "uint256"
        },
        {
          "indexed": false,
          "internalType": "uint256",
          "name": "debt",
          "type": "uint256"
        },
        {
          "indexed": false,
          "internalType": "uint256",
          "name": "share",
          "type": "uint256"
        }
      ],
      "name": "Kill",
      "type": "event"
    },
    {
      "anonymous": false,
      "inputs": [
        {
          "indexed": true,
          "internalType": "address",
          "name": "previousOwner",
          "type": "address"
        },
        {
          "indexed": true,
          "internalType": "address",
          "name": "newOwner",
          "type": "address"
        }
      ],
      "name": "OwnershipTransferred",
      "type": "event"
    },
    {
      "anonymous": false,
      "inputs": [
        {
          "indexed": true,
          "internalType": "address",
          "name": "user",
          "type": "address"
        },
        {
          "indexed": true,
          "internalType": "address",
          "name": "vault",
          "type": "address"
        },
        {
          "indexed": false,
          "internalType": "uint256",
          "name": "amount",
          "type": "uint256"
        },
        {
          "indexed": false,
          "internalType": "uint256",
          "name": "share",
          "type": "uint256"
        },
        {
          "indexed": false,
          "internalType": "uint256",
          "name": "debt",
          "type": "uint256"
        }
      ],
      "name": "PositionChanged",
      "type": "event"
    },
    {
      "anonymous": false,
      "inputs": [
        {
          "indexed": true,
          "internalType": "address",
          "name": "user",
          "type": "address"
        },
        {
          "indexed": true,
          "internalType": "address",
          "name": "vault",
          "type": "address"
        },
        {
          "indexed": false,
          "internalType": "uint256",
          "name": "equity",
          "type": "uint256"
        },
        {
          "indexed": false,
          "internalType": "uint256",
          "name": "debtInBase",
          "type": "uint256"
        },
        {
          "indexed": false,
          "internalType": "uint256",
          "name": "debt",
          "type": "uint256"
        },
        {
          "indexed": false,
          "internalType": "uint256",
          "name": "share",
          "type": "uint256"
        }
      ],
      "name": "RemovePosition",
      "type": "event"
    },
    {
      "anonymous": false,
      "inputs": [
        {
          "indexed": true,
          "internalType": "address",
          "name": "delegator",
          "type": "address"
        },
        {
          "indexed": true,
          "internalType": "address",
          "name": "user",
          "type": "address"
        },
        {
          "indexed": false,
          "internalType": "uint256",
          "name": "amount",
          "type": "uint256"
        },
        {
          "indexed": false,
          "internalType": "uint256",
          "name": "share",
          "type": "uint256"
        }
      ],
      "name": "Stake",
      "type": "event"
    },
    {
      "anonymous": false,
      "inputs": [
        {
          "indexed": true,
          "internalType": "address",
          "name": "delegator",
          "type": "address"
        },
        {
          "indexed": true,
          "internalType": "address",
          "name": "user",
          "type": "address"
        },
        {
          "indexed": false,
          "internalType": "uint256",
          "name": "amount",
          "type": "uint256"
        },
        {
          "indexed": false,
          "internalType": "uint256",
          "name": "share",
          "type": "uint256"
        }
      ],
      "name": "Unstake",
      "type": "event"
    },
    {
      "anonymous": false,
      "inputs": [
        {
          "indexed": false,
          "internalType": "uint256",
          "name": "minDebtInBase",
          "type": "uint256"
        },
        {
          "indexed": false,
          "internalType": "uint256",
          "name": "killFactorBps",
          "type": "uint256"
        }
      ],
      "name": "UpdateConfigs",
      "type": "event"
    },
    {
      "anonymous": false,
      "inputs": [
        {
          "indexed": false,
          "internalType": "address",
          "name": "token",
          "type": "address"
        },
        {
          "indexed": false,
          "internalType": "address",
          "name": "vault",
          "type": "address"
        }
      ],
      "name": "UpdateVault",
      "type": "event"
    },
    {
      "stateMutability": "payable",
      "type": "fallback"
    },
    {
      "inputs": [
        {
          "internalType": "address",
          "name": "delegator_",
          "type": "address"
        },
        {
          "internalType": "address",
          "name": "uEVMOS_",
          "type": "address"
        }
      ],
      "name": "__Stayking_init",
      "outputs": [],
      "stateMutability": "nonpayable",
      "type": "function"
    },
    {
      "inputs": [
        {
          "internalType": "uint256",
          "name": "currentTotalStaked",
          "type": "uint256"
        }
      ],
      "name": "accrue",
      "outputs": [],
      "stateMutability": "payable",
      "type": "function"
    },
    {
      "inputs": [
        {
          "internalType": "address",
          "name": "debtToken",
          "type": "address"
        },
        {
          "internalType": "uint256",
          "name": "extraDebtInBase",
          "type": "uint256"
        }
      ],
      "name": "addDebt",
      "outputs": [],
      "stateMutability": "nonpayable",
      "type": "function"
    },
    {
      "inputs": [
        {
          "internalType": "address",
          "name": "debtToken",
          "type": "address"
        },
        {
          "internalType": "uint256",
          "name": "extraEquity",
          "type": "uint256"
        }
      ],
      "name": "addEquity",
      "outputs": [],
      "stateMutability": "payable",
      "type": "function"
    },
    {
      "inputs": [
        {
          "internalType": "address",
          "name": "debtToken",
          "type": "address"
        },
        {
          "internalType": "uint256",
          "name": "equity",
          "type": "uint256"
        },
        {
          "internalType": "uint256",
          "name": "debtInBase",
          "type": "uint256"
        }
      ],
      "name": "addPosition",
      "outputs": [],
      "stateMutability": "payable",
      "type": "function"
    },
    {
      "inputs": [
        {
          "internalType": "uint256",
          "name": "amount",
          "type": "uint256"
        }
      ],
      "name": "amountToShare",
      "outputs": [
        {
          "internalType": "uint256",
          "name": "",
          "type": "uint256"
        }
      ],
      "stateMutability": "view",
      "type": "function"
    },
    {
      "inputs": [
        {
          "internalType": "address",
          "name": "_delegator",
          "type": "address"
        }
      ],
      "name": "changeDelegator",
      "outputs": [],
      "stateMutability": "nonpayable",
      "type": "function"
    },
    {
      "inputs": [
        {
          "internalType": "address",
          "name": "debtToken",
          "type": "address"
        },
        {
          "internalType": "int256",
          "name": "equityInBaseChanged",
          "type": "int256"
        },
        {
          "internalType": "int256",
          "name": "debtInBaseChanged",
          "type": "int256"
        },
        {
          "internalType": "uint256",
          "name": "repaidDebt",
          "type": "uint256"
        }
      ],
      "name": "changePosition",
      "outputs": [],
      "stateMutability": "payable",
      "type": "function"
    },
    {
      "inputs": [
        {
          "internalType": "address",
          "name": "user",
          "type": "address"
        },
        {
          "internalType": "address",
          "name": "vault",
          "type": "address"
        }
      ],
      "name": "debtAmountOf",
      "outputs": [
        {
          "internalType": "uint256",
          "name": "",
          "type": "uint256"
        }
      ],
      "stateMutability": "view",
      "type": "function"
    },
    {
      "inputs": [],
      "name": "delegator",
      "outputs": [
        {
          "internalType": "address",
          "name": "",
          "type": "address"
        }
      ],
      "stateMutability": "view",
      "type": "function"
    },
    {
      "inputs": [
        {
          "internalType": "address",
          "name": "debtToken",
          "type": "address"
        },
        {
          "internalType": "uint256",
          "name": "positionId",
          "type": "uint256"
        }
      ],
      "name": "isKillable",
      "outputs": [
        {
          "internalType": "bool",
          "name": "healthy",
          "type": "bool"
        }
      ],
      "stateMutability": "view",
      "type": "function"
    },
    {
      "inputs": [
        {
          "internalType": "address",
          "name": "debtToken",
          "type": "address"
        },
        {
          "internalType": "uint256",
          "name": "positionId",
          "type": "uint256"
        }
      ],
      "name": "kill",
      "outputs": [],
      "stateMutability": "nonpayable",
      "type": "function"
    },
    {
      "inputs": [],
      "name": "killFactorBps",
      "outputs": [
        {
          "internalType": "uint256",
          "name": "",
          "type": "uint256"
        }
      ],
      "stateMutability": "view",
      "type": "function"
    },
    {
      "inputs": [],
      "name": "minDebtInBase",
      "outputs": [
        {
          "internalType": "uint256",
          "name": "",
          "type": "uint256"
        }
      ],
      "stateMutability": "view",
      "type": "function"
    },
    {
      "inputs": [],
      "name": "owner",
      "outputs": [
        {
          "internalType": "address",
          "name": "",
          "type": "address"
        }
      ],
      "stateMutability": "view",
      "type": "function"
    },
    {
      "inputs": [
        {
          "internalType": "address",
          "name": "",
          "type": "address"
        },
        {
          "internalType": "address",
          "name": "",
          "type": "address"
        }
      ],
      "name": "positionIdOf",
      "outputs": [
        {
          "internalType": "uint256",
          "name": "",
          "type": "uint256"
        }
      ],
      "stateMutability": "view",
      "type": "function"
    },
    {
      "inputs": [
        {
          "internalType": "address",
          "name": "user",
          "type": "address"
        },
        {
          "internalType": "address",
          "name": "debtToken",
          "type": "address"
        }
      ],
      "name": "positionInfo",
      "outputs": [
        {
          "internalType": "uint256",
          "name": "positionValueInBase",
          "type": "uint256"
        },
        {
          "internalType": "uint256",
          "name": "debtInBase",
          "type": "uint256"
        },
        {
          "internalType": "uint256",
          "name": "debt",
          "type": "uint256"
        }
      ],
      "stateMutability": "view",
      "type": "function"
    },
    {
      "inputs": [
        {
          "internalType": "address",
          "name": "",
          "type": "address"
        },
        {
          "internalType": "uint256",
          "name": "",
          "type": "uint256"
        }
      ],
      "name": "positions",
      "outputs": [
        {
          "internalType": "address",
          "name": "user",
          "type": "address"
        },
        {
          "internalType": "uint256",
          "name": "share",
          "type": "uint256"
        }
      ],
      "stateMutability": "view",
      "type": "function"
    },
    {
      "inputs": [
        {
          "internalType": "address",
          "name": "",
          "type": "address"
        }
      ],
      "name": "positionsLengthOf",
      "outputs": [
        {
          "internalType": "uint256",
          "name": "",
          "type": "uint256"
        }
      ],
      "stateMutability": "view",
      "type": "function"
    },
    {
      "inputs": [
        {
          "internalType": "address",
          "name": "debtToken",
          "type": "address"
        }
      ],
      "name": "removePosition",
      "outputs": [],
      "stateMutability": "nonpayable",
      "type": "function"
    },
    {
      "inputs": [],
      "name": "renounceOwnership",
      "outputs": [],
      "stateMutability": "nonpayable",
      "type": "function"
    },
    {
      "inputs": [
        {
          "internalType": "address",
          "name": "debtToken",
          "type": "address"
        },
        {
          "internalType": "uint256",
          "name": "repaidDebt",
          "type": "uint256"
        }
      ],
      "name": "repayDebt",
      "outputs": [],
      "stateMutability": "nonpayable",
      "type": "function"
    },
    {
      "inputs": [
        {
          "internalType": "address",
          "name": "debtToken",
          "type": "address"
        },
        {
          "internalType": "uint256",
          "name": "minRepaid",
          "type": "uint256"
        }
      ],
      "name": "repayDebtInBase",
      "outputs": [],
      "stateMutability": "payable",
      "type": "function"
    },
    {
      "inputs": [
        {
          "internalType": "uint256",
          "name": "share",
          "type": "uint256"
        }
      ],
      "name": "shareToAmount",
      "outputs": [
        {
          "internalType": "uint256",
          "name": "",
          "type": "uint256"
        }
      ],
      "stateMutability": "view",
      "type": "function"
    },
    {
      "inputs": [
        {
          "internalType": "address",
          "name": "",
          "type": "address"
        }
      ],
      "name": "tokenToVault",
      "outputs": [
        {
          "internalType": "address",
          "name": "",
          "type": "address"
        }
      ],
      "stateMutability": "view",
      "type": "function"
    },
    {
      "inputs": [],
      "name": "totalAmount",
      "outputs": [
        {
          "internalType": "uint256",
          "name": "",
          "type": "uint256"
        }
      ],
      "stateMutability": "view",
      "type": "function"
    },
    {
      "inputs": [
        {
          "internalType": "address",
          "name": "",
          "type": "address"
        }
      ],
      "name": "totalDebtOf",
      "outputs": [
        {
          "internalType": "uint256",
          "name": "",
          "type": "uint256"
        }
      ],
      "stateMutability": "view",
      "type": "function"
    },
    {
      "inputs": [],
      "name": "totalShare",
      "outputs": [
        {
          "internalType": "uint256",
          "name": "",
          "type": "uint256"
        }
      ],
      "stateMutability": "view",
      "type": "function"
    },
    {
      "inputs": [
        {
          "internalType": "address",
          "name": "newOwner",
          "type": "address"
        }
      ],
      "name": "transferOwnership",
      "outputs": [],
      "stateMutability": "nonpayable",
      "type": "function"
    },
    {
      "inputs": [],
      "name": "uEVMOS",
      "outputs": [
        {
          "internalType": "contract IUnbondedEvmos",
          "name": "",
          "type": "address"
        }
      ],
      "stateMutability": "view",
      "type": "function"
    },
    {
      "inputs": [
        {
          "internalType": "uint256",
          "name": "_minDebtInBase",
          "type": "uint256"
        },
        {
          "internalType": "uint256",
          "name": "_killFactorBps",
          "type": "uint256"
        }
      ],
      "name": "updateConfigs",
      "outputs": [],
      "stateMutability": "nonpayable",
      "type": "function"
    },
    {
      "inputs": [
        {
          "internalType": "address",
          "name": "token",
          "type": "address"
        },
        {
          "internalType": "address",
          "name": "vault",
          "type": "address"
        }
      ],
      "name": "updateVault",
      "outputs": [],
      "stateMutability": "nonpayable",
      "type": "function"
    },
    {
      "inputs": [
        {
          "internalType": "address",
          "name": "",
          "type": "address"
        }
      ],
      "name": "whitelistedKiller",
      "outputs": [
        {
          "internalType": "bool",
          "name": "",
          "type": "bool"
        }
      ],
      "stateMutability": "view",
      "type": "function"
    },
    {
      "stateMutability": "payable",
      "type": "receive"
    }
  ],
  "transactionHash": "0xa7014a329c7362ff7b4cad1bb2f4cb2d19d325bfaf9e885c70342d4389232b13",
  "args": [],
  "numDeployments": 1,
  "solcInputHash": "9a86b7b2a1561586849e4183f8a88675",
  "bytecode": "0x608060405234801561001057600080fd5b506155eb80620000216000396000f3fe6080604052600436106101f15760003560e01c806379e20bdc1161010d578063bb94d3db116100a0578063ce9b79301161006f578063ce9b793014610728578063cff07fd114610753578063df5ca1f81461076f578063ef6b247914610798578063f2fde38b146107b4576101f8565b8063bb94d3db14610675578063bed06b0b146106b2578063c1be6677146106ce578063c6918a611461070c576101f8565b8063a3381d28116100dc578063a3381d28146105bb578063afd06b34146105f8578063b1ae5ed314610623578063b2a2a96b1461064c576101f8565b806379e20bdc146105015780638da5cb5b1461052a57806392707802146105555780639f2b28331461057e576101f8565b80632d4047e51161018557806351dabb751161015457806351dabb75146104545780635ff0253114610491578063715018a6146104ce578063744f4cf6146104e5576101f8565b80632d4047e5146103725780632d6f8013146103af57806334c389ef146103ec5780635066f3b514610415576101f8565b80631a39d8ef116101c15780631a39d8ef146102b65780631b451d28146102e157806327dfaf921461030a57806328f55a6c14610347576101f8565b8062dbccc6146101fa578063026c4207146102235780630c7e17251461024e578063178483a71461028b576101f8565b366101f857005b005b34801561020657600080fd5b50610221600480360381019061021c91906141f6565b6107dd565b005b34801561022f57600080fd5b50610238610830565b6040516102459190614b9b565b60405180910390f35b34801561025a57600080fd5b5061027560048036038101906102709190614028565b610836565b6040516102829190614685565b60405180910390f35b34801561029757600080fd5b506102a0610869565b6040516102ad9190614b9b565b60405180910390f35b3480156102c257600080fd5b506102cb61086f565b6040516102d89190614b9b565b60405180910390f35b3480156102ed57600080fd5b5061030860048036038101906103039190614051565b610875565b005b34801561031657600080fd5b50610331600480360381019061032c9190614051565b610c5c565b60405161033e9190614b9b565b60405180910390f35b34801561035357600080fd5b5061035c610cef565b6040516103699190614b9b565b60405180910390f35b34801561037e57600080fd5b50610399600480360381019061039491906141a4565b610cf5565b6040516103a69190614b9b565b60405180910390f35b3480156103bb57600080fd5b506103d660048036038101906103d191906141a4565b610d29565b6040516103e39190614b9b565b60405180910390f35b3480156103f857600080fd5b50610413600480360381019061040e91906140f0565b610d5d565b005b34801561042157600080fd5b5061043c60048036038101906104379190614051565b6110ce565b60405161044b93929190614bdf565b60405180910390f35b34801561046057600080fd5b5061047b60048036038101906104769190614028565b6113da565b6040516104889190614b9b565b60405180910390f35b34801561049d57600080fd5b506104b860048036038101906104b391906140f0565b6113f2565b6040516104c591906147ea565b60405180910390f35b3480156104da57600080fd5b506104e361158d565b005b6104ff60048036038101906104fa91906141a4565b6115a1565b005b34801561050d57600080fd5b50610528600480360381019061052391906140f0565b6116e1565b005b34801561053657600080fd5b5061053f6119b0565b60405161054c9190614685565b60405180910390f35b34801561056157600080fd5b5061057c600480360381019061057791906140f0565b6119da565b005b34801561058a57600080fd5b506105a560048036038101906105a09190614028565b611cda565b6040516105b29190614b9b565b60405180910390f35b3480156105c757600080fd5b506105e260048036038101906105dd9190614028565b611cf2565b6040516105ef91906147ea565b60405180910390f35b34801561060457600080fd5b5061060d611d12565b60405161061a9190614805565b60405180910390f35b34801561062f57600080fd5b5061064a60048036038101906106459190614028565b611d38565b005b34801561065857600080fd5b50610673600480360381019061066e9190614051565b611dbb565b005b34801561068157600080fd5b5061069c60048036038101906106979190614051565b611f61565b6040516106a99190614b9b565b60405180910390f35b6106cc60048036038101906106c7919061408d565b611f86565b005b3480156106da57600080fd5b506106f560048036038101906106f091906140f0565b612481565b60405161070392919061476e565b60405180910390f35b610726600480360381019061072191906140f0565b6124e2565b005b34801561073457600080fd5b5061073d6127c0565b60405161074a9190614685565b60405180910390f35b61076d6004803603810190610768919061412c565b6127e6565b005b34801561077b57600080fd5b5061079660048036038101906107919190614028565b612d52565b005b6107b260048036038101906107ad91906140f0565b6130f2565b005b3480156107c057600080fd5b506107db60048036038101906107d69190614028565b613337565b005b6107e56133bb565b81609c8190555080609d819055507ff88c4daabad4d8a3268872e6513d06a7f6924a2390f0e3d89b8451a2ac0635c58282604051610824929190614bb6565b60405180910390a15050565b609b5481565b60996020528060005260406000206000915054906101000a900473ffffffffffffffffffffffffffffffffffffffff1681565b609c5481565b609a5481565b61087d6133bb565b60008073ffffffffffffffffffffffffffffffffffffffff16609960008573ffffffffffffffffffffffffffffffffffffffff1673ffffffffffffffffffffffffffffffffffffffff16815260200190815260200160002060009054906101000a900473ffffffffffffffffffffffffffffffffffffffff1673ffffffffffffffffffffffffffffffffffffffff161490508015610953577f7f03ac7449144076e2d9d5a237c3ff0d0108e0a2ebdd5213c4b0de6f4d4f695383836040516109469291906146a0565b60405180910390a1610aac565b6000609960008573ffffffffffffffffffffffffffffffffffffffff1673ffffffffffffffffffffffffffffffffffffffff16815260200190815260200160002060009054906101000a900473ffffffffffffffffffffffffffffffffffffffff1673ffffffffffffffffffffffffffffffffffffffff1663c8dffa956040518163ffffffff1660e01b815260040160206040518083038186803b1580156109fa57600080fd5b505afa158015610a0e573d6000803e3d6000fd5b505050506040513d601f19601f82011682018060405250810190610a3291906141cd565b14610a72576040517f08c379a0000000000000000000000000000000000000000000000000000000008152600401610a69906148fb565b60405180910390fd5b7f4cc233b502e1e28f371b28114d4a8be87a93f330c18e3c339079fc498320fb8d8383604051610aa39291906146a0565b60405180910390a15b81609960008573ffffffffffffffffffffffffffffffffffffffff1673ffffffffffffffffffffffffffffffffffffffff16815260200190815260200160002060006101000a81548173ffffffffffffffffffffffffffffffffffffffff021916908373ffffffffffffffffffffffffffffffffffffffff16021790555060a060008373ffffffffffffffffffffffffffffffffffffffff1673ffffffffffffffffffffffffffffffffffffffff1681526020019081526020016000206040518060400160405280600073ffffffffffffffffffffffffffffffffffffffff1681526020016000815250908060018154018082558091505060019003906000526020600020906002020160009091909190915060008201518160000160006101000a81548173ffffffffffffffffffffffffffffffffffffffff021916908373ffffffffffffffffffffffffffffffffffffffff160217905550602082015181600101555050600160a160008473ffffffffffffffffffffffffffffffffffffffff1673ffffffffffffffffffffffffffffffffffffffff16815260200190815260200160002081905550505050565b60008173ffffffffffffffffffffffffffffffffffffffff16636592183b846040518263ffffffff1660e01b8152600401610c979190614685565b60206040518083038186803b158015610caf57600080fd5b505afa158015610cc3573d6000803e3d6000fd5b505050506040513d601f19601f82011682018060405250810190610ce791906141cd565b905092915050565b609d5481565b600080609a5414610d2057609a5482609b54610d119190614d09565b610d1b9190614cd8565b610d22565b815b9050919050565b600080609b5414610d5457609b5482609a54610d459190614d09565b610d4f9190614cd8565b610d56565b815b9050919050565b60008111610da0576040517f08c379a0000000000000000000000000000000000000000000000000000000008152600401610d9790614a3b565b60405180910390fd5b6000609960008473ffffffffffffffffffffffffffffffffffffffff1673ffffffffffffffffffffffffffffffffffffffff16815260200190815260200160002060009054906101000a900473ffffffffffffffffffffffffffffffffffffffff1690506000609f60003373ffffffffffffffffffffffffffffffffffffffff1673ffffffffffffffffffffffffffffffffffffffff16815260200190815260200160002060008373ffffffffffffffffffffffffffffffffffffffff1673ffffffffffffffffffffffffffffffffffffffff16815260200190815260200160002054905060008111610ec8576040517f08c379a0000000000000000000000000000000000000000000000000000000008152600401610ebf9061483b565b60405180910390fd5b600060a060008473ffffffffffffffffffffffffffffffffffffffff1673ffffffffffffffffffffffffffffffffffffffff1681526020019081526020016000208281548110610f41577f4e487b7100000000000000000000000000000000000000000000000000000000600052603260045260246000fd5b906000526020600020906002020190508273ffffffffffffffffffffffffffffffffffffffff1663185cc75133866040518363ffffffff1660e01b8152600401610f8c92919061476e565b602060405180830381600087803b158015610fa657600080fd5b505af1158015610fba573d6000803e3d6000fd5b505050506040513d601f19601f82011682018060405250810190610fde91906141cd565b50610fe98185613439565b506000610ff63385610c5c565b9050600061100985846001015484613572565b5090508061104c576040517f08c379a00000000000000000000000000000000000000000000000000000000081526004016110439061491b565b60405180910390fd5b8473ffffffffffffffffffffffffffffffffffffffff163373ffffffffffffffffffffffffffffffffffffffff167ff35a14688e4794e8022cd9e5c7ec6475a6095ef189dea9647fad0de771465b8a6110a88660010154610d29565b8660010154866040516110bd93929190614bdf565b60405180910390a350505050505050565b600080600080609960008673ffffffffffffffffffffffffffffffffffffffff1673ffffffffffffffffffffffffffffffffffffffff16815260200190815260200160002060009054906101000a900473ffffffffffffffffffffffffffffffffffffffff1690506000609f60008873ffffffffffffffffffffffffffffffffffffffff1673ffffffffffffffffffffffffffffffffffffffff16815260200190815260200160002060008373ffffffffffffffffffffffffffffffffffffffff1673ffffffffffffffffffffffffffffffffffffffff168152602001908152602001600020549050600060a060008473ffffffffffffffffffffffffffffffffffffffff1673ffffffffffffffffffffffffffffffffffffffff1681526020019081526020016000208281548110611230577f4e487b7100000000000000000000000000000000000000000000000000000000600052603260045260246000fd5b90600052602060002090600202016040518060400160405290816000820160009054906101000a900473ffffffffffffffffffffffffffffffffffffffff1673ffffffffffffffffffffffffffffffffffffffff1673ffffffffffffffffffffffffffffffffffffffff16815260200160018201548152505090506112b88160200151610d29565b95508273ffffffffffffffffffffffffffffffffffffffff16636592183b896040518263ffffffff1660e01b81526004016112f39190614685565b60206040518083038186803b15801561130b57600080fd5b505afa15801561131f573d6000803e3d6000fd5b505050506040513d601f19601f8201168201806040525081019061134391906141cd565b93508273ffffffffffffffffffffffffffffffffffffffff166395d6abf8856040518263ffffffff1660e01b815260040161137e9190614b9b565b60206040518083038186803b15801561139657600080fd5b505afa1580156113aa573d6000803e3d6000fd5b505050506040513d601f19601f820116820180604052508101906113ce91906141cd565b94505050509250925092565b60a16020528060005260406000206000915090505481565b600080609960008573ffffffffffffffffffffffffffffffffffffffff1673ffffffffffffffffffffffffffffffffffffffff16815260200190815260200160002060009054906101000a900473ffffffffffffffffffffffffffffffffffffffff169050600060a060008373ffffffffffffffffffffffffffffffffffffffff1673ffffffffffffffffffffffffffffffffffffffff16815260200190815260200160002084815481106114d0577f4e487b7100000000000000000000000000000000000000000000000000000000600052603260045260246000fd5b90600052602060002090600202016040518060400160405290816000820160009054906101000a900473ffffffffffffffffffffffffffffffffffffffff1673ffffffffffffffffffffffffffffffffffffffff1673ffffffffffffffffffffffffffffffffffffffff168152602001600182015481525050905060008160200151141561156357600092505050611587565b61157f82826020015161157a846000015186610c5c565b613572565b508093505050505b92915050565b6115956133bb565b61159f600061362f565b565b609760009054906101000a900473ffffffffffffffffffffffffffffffffffffffff1673ffffffffffffffffffffffffffffffffffffffff163373ffffffffffffffffffffffffffffffffffffffff1614611631576040517f08c379a000000000000000000000000000000000000000000000000000000000815260040161162890614abb565b60405180910390fd5b609a54811015611676576040517f08c379a000000000000000000000000000000000000000000000000000000000815260040161166d9061499b565b60405180910390fd5b6000609a54826116869190614d63565b905081609a819055503373ffffffffffffffffffffffffffffffffffffffff167f9a65b5c5cdb30037df3368f844350f18c08099259c8c402a4781b85770983776826040516116d59190614b9b565b60405180910390a25050565b6000609960008473ffffffffffffffffffffffffffffffffffffffff1673ffffffffffffffffffffffffffffffffffffffff16815260200190815260200160002060009054906101000a900473ffffffffffffffffffffffffffffffffffffffff1690506000609f60003373ffffffffffffffffffffffffffffffffffffffff1673ffffffffffffffffffffffffffffffffffffffff16815260200190815260200160002060008373ffffffffffffffffffffffffffffffffffffffff1673ffffffffffffffffffffffffffffffffffffffff16815260200190815260200160002054905060008111611809576040517f08c379a000000000000000000000000000000000000000000000000000000000815260040161180090614b1b565b60405180910390fd5b600060a060008473ffffffffffffffffffffffffffffffffffffffff1673ffffffffffffffffffffffffffffffffffffffff1681526020019081526020016000208281548110611882577f4e487b7100000000000000000000000000000000000000000000000000000000600052603260045260246000fd5b90600052602060002090600202019050600061189e3385610c5c565b90506118ac863330886136f5565b6118b786858761382e565b8373ffffffffffffffffffffffffffffffffffffffff1663724e591033876040518363ffffffff1660e01b81526004016118f292919061476e565b600060405180830381600087803b15801561190c57600080fd5b505af1158015611920573d6000803e3d6000fd5b505050508373ffffffffffffffffffffffffffffffffffffffff163373ffffffffffffffffffffffffffffffffffffffff167ff35a14688e4794e8022cd9e5c7ec6475a6095ef189dea9647fad0de771465b8a6119808560010154610d29565b856001015489866119919190614d63565b6040516119a093929190614bdf565b60405180910390a3505050505050565b6000603360009054906101000a900473ffffffffffffffffffffffffffffffffffffffff16905090565b609860003373ffffffffffffffffffffffffffffffffffffffff1673ffffffffffffffffffffffffffffffffffffffff16815260200190815260200160002060009054906101000a900460ff16611a66576040517f08c379a0000000000000000000000000000000000000000000000000000000008152600401611a5d90614a1b565b60405180910390fd5b6000609960008473ffffffffffffffffffffffffffffffffffffffff1673ffffffffffffffffffffffffffffffffffffffff16815260200190815260200160002060009054906101000a900473ffffffffffffffffffffffffffffffffffffffff169050600060a060008373ffffffffffffffffffffffffffffffffffffffff1673ffffffffffffffffffffffffffffffffffffffff1681526020019081526020016000208381548110611b43577f4e487b7100000000000000000000000000000000000000000000000000000000600052603260045260246000fd5b906000526020600020906002020190506000816001015411611b9a576040517f08c379a0000000000000000000000000000000000000000000000000000000008152600401611b91906149fb565b60405180910390fd5b6000611bca8260000160009054906101000a900473ffffffffffffffffffffffffffffffffffffffff1684610c5c565b9050600080611bde85856001015485613572565b9150915081611c22576040517f08c379a0000000000000000000000000000000000000000000000000000000008152600401611c1990614a9b565b60405180910390fd5b6000611c2e8587613964565b90508460000160009054906101000a900473ffffffffffffffffffffffffffffffffffffffff1673ffffffffffffffffffffffffffffffffffffffff163373ffffffffffffffffffffffffffffffffffffffff167f62b067e31c5a2d2734bc19924c46c930e1b7063b5b473238f2f8bb7ab88a15b6888585611cb09190614d63565b86898b60010154604051611cc8959493929190614797565b60405180910390a35050505050505050565b60a26020528060005260406000206000915090505481565b60986020528060005260406000206000915054906101000a900460ff1681565b609e60009054906101000a900473ffffffffffffffffffffffffffffffffffffffff1681565b611d406133bb565b80609760006101000a81548173ffffffffffffffffffffffffffffffffffffffff021916908373ffffffffffffffffffffffffffffffffffffffff1602179055507fc46722a14b09e7b7e59991ec89fb4bb88ffed57f1b2187a65e959f5c0053716d81604051611db09190614685565b60405180910390a150565b60008060019054906101000a900460ff16159050808015611dec5750600160008054906101000a900460ff1660ff16105b80611e195750611dfb30613a44565b158015611e185750600160008054906101000a900460ff1660ff16145b5b611e58576040517f08c379a0000000000000000000000000000000000000000000000000000000008152600401611e4f9061493b565b60405180910390fd5b60016000806101000a81548160ff021916908360ff1602179055508015611e95576001600060016101000a81548160ff0219169083151502179055505b611e9d613a67565b611ea5613ac0565b611eb9678ac7230489e80000611f406107dd565b81609e60006101000a81548173ffffffffffffffffffffffffffffffffffffffff021916908373ffffffffffffffffffffffffffffffffffffffff160217905550611f0383611d38565b8015611f5c5760008060016101000a81548160ff0219169083151502179055507f7f26b83ff96e1f2b6a682f133852f6798a09c465da95921460cefb38474024986001604051611f539190614820565b60405180910390a15b505050565b609f602052816000526040600020602052806000526040600020600091509150505481565b6000609960008673ffffffffffffffffffffffffffffffffffffffff1673ffffffffffffffffffffffffffffffffffffffff16815260200190815260200160002060009054906101000a900473ffffffffffffffffffffffffffffffffffffffff1690506000609f60003373ffffffffffffffffffffffffffffffffffffffff1673ffffffffffffffffffffffffffffffffffffffff16815260200190815260200160002060008373ffffffffffffffffffffffffffffffffffffffff1673ffffffffffffffffffffffffffffffffffffffff168152602001908152602001600020549050600081116120ae576040517f08c379a00000000000000000000000000000000000000000000000000000000081526004016120a5906149db565b60405180910390fd5b60008060008088131561210b57873410156120fe576040517f08c379a00000000000000000000000000000000000000000000000000000000081526004016120f590614b3b565b60405180910390fd5b8734039250879150612122565b6000881215612121578761211e90614e71565b90505b5b60008713156121cc578473ffffffffffffffffffffffffffffffffffffffff1663185cc75133896040518363ffffffff1660e01b815260040161216692919061476e565b602060405180830381600087803b15801561218057600080fd5b505af1158015612194573d6000803e3d6000fd5b505050506040513d601f19601f820116820180604052508101906121b891906141cd565b5086826121c59190614c82565b91506121ee565b60008712156121ed57866121df90614e71565b816121ea9190614c82565b90505b5b600086111561227157612203893330896136f5565b8473ffffffffffffffffffffffffffffffffffffffff1663724e591033886040518363ffffffff1660e01b815260040161223e92919061476e565b600060405180830381600087803b15801561225857600080fd5b505af115801561226c573d6000803e3d6000fd5b505050505b6000831115612317578473ffffffffffffffffffffffffffffffffffffffff16639d2e6fcb843360016040518463ffffffff1660e01b81526004016122b7929190614745565b6020604051808303818588803b1580156122d057600080fd5b505af11580156122e4573d6000803e3d6000fd5b50505050506040513d601f19601f8201168201806040525081019061230991906141cd565b866123149190614c82565b95505b600060a060008773ffffffffffffffffffffffffffffffffffffffff1673ffffffffffffffffffffffffffffffffffffffff1681526020019081526020016000208581548110612390577f4e487b7100000000000000000000000000000000000000000000000000000000600052603260045260246000fd5b906000526020600020906002020190508183106123c2576123bc8183856123b79190614d63565b613439565b506123f3565b6123f2818785856123d39190614d63565b60008c126123e25760006123ed565b8b6123ec90614e71565b5b613b19565b5b8573ffffffffffffffffffffffffffffffffffffffff163373ffffffffffffffffffffffffffffffffffffffff167ff35a14688e4794e8022cd9e5c7ec6475a6095ef189dea9647fad0de771465b8a61244f8460010154610d29565b846001015461245e338c610c5c565b60405161246d93929190614bdf565b60405180910390a350505050505050505050565b60a0602052816000526040600020818154811061249d57600080fd5b9060005260206000209060020201600091509150508060000160009054906101000a900473ffffffffffffffffffffffffffffffffffffffff16908060010154905082565b6000609960008473ffffffffffffffffffffffffffffffffffffffff1673ffffffffffffffffffffffffffffffffffffffff16815260200190815260200160002060009054906101000a900473ffffffffffffffffffffffffffffffffffffffff1690506000609f60003373ffffffffffffffffffffffffffffffffffffffff1673ffffffffffffffffffffffffffffffffffffffff16815260200190815260200160002060008373ffffffffffffffffffffffffffffffffffffffff1673ffffffffffffffffffffffffffffffffffffffff1681526020019081526020016000205490506000811161260a576040517f08c379a0000000000000000000000000000000000000000000000000000000008152600401612601906148bb565b60405180910390fd5b600060a060008473ffffffffffffffffffffffffffffffffffffffff1673ffffffffffffffffffffffffffffffffffffffff1681526020019081526020016000208281548110612683577f4e487b7100000000000000000000000000000000000000000000000000000000600052603260045260246000fd5b90600052602060002090600202019050600061269f3385610c5c565b905060008473ffffffffffffffffffffffffffffffffffffffff16639d2e6fcb3433896040518463ffffffff1660e01b81526004016126df92919061476e565b6020604051808303818588803b1580156126f857600080fd5b505af115801561270c573d6000803e3d6000fd5b50505050506040513d601f19601f8201168201806040525081019061273191906141cd565b90508473ffffffffffffffffffffffffffffffffffffffff163373ffffffffffffffffffffffffffffffffffffffff167ff35a14688e4794e8022cd9e5c7ec6475a6095ef189dea9647fad0de771465b8a61278f8660010154610d29565b866001015485876127a09190614d63565b6040516127af93929190614bdf565b60405180910390a350505050505050565b609760009054906101000a900473ffffffffffffffffffffffffffffffffffffffff1681565b6000609960008573ffffffffffffffffffffffffffffffffffffffff1673ffffffffffffffffffffffffffffffffffffffff16815260200190815260200160002060009054906101000a900473ffffffffffffffffffffffffffffffffffffffff1690506000609f60003373ffffffffffffffffffffffffffffffffffffffff1673ffffffffffffffffffffffffffffffffffffffff16815260200190815260200160002060008373ffffffffffffffffffffffffffffffffffffffff1673ffffffffffffffffffffffffffffffffffffffff1681526020019081526020016000205414612909576040517f08c379a00000000000000000000000000000000000000000000000000000000081526004016129009061487b565b60405180910390fd5b34831461294b576040517f08c379a000000000000000000000000000000000000000000000000000000000815260040161294290614a5b565b60405180910390fd5b600082846129599190614c82565b9050609d54816129699190614d09565b612710846129779190614d09565b106129b7576040517f08c379a00000000000000000000000000000000000000000000000000000000081526004016129ae906149bb565b60405180910390fd5b60008273ffffffffffffffffffffffffffffffffffffffff1663185cc75133866040518363ffffffff1660e01b81526004016129f492919061476e565b602060405180830381600087803b158015612a0e57600080fd5b505af1158015612a22573d6000803e3d6000fd5b505050506040513d601f19601f82011682018060405250810190612a4691906141cd565b905060a060008473ffffffffffffffffffffffffffffffffffffffff1673ffffffffffffffffffffffffffffffffffffffff16815260200190815260200160002060405180604001604052803373ffffffffffffffffffffffffffffffffffffffff1681526020016000815250908060018154018082558091505060019003906000526020600020906002020160009091909190915060008201518160000160006101000a81548173ffffffffffffffffffffffffffffffffffffffff021916908373ffffffffffffffffffffffffffffffffffffffff160217905550602082015181600101555050600060a160008573ffffffffffffffffffffffffffffffffffffffff1673ffffffffffffffffffffffffffffffffffffffff168152602001908152602001600020549050600160a160008673ffffffffffffffffffffffffffffffffffffffff1673ffffffffffffffffffffffffffffffffffffffff1681526020019081526020016000206000828254612bc39190614c82565b9250508190555080609f60003373ffffffffffffffffffffffffffffffffffffffff1673ffffffffffffffffffffffffffffffffffffffff16815260200190815260200160002060008673ffffffffffffffffffffffffffffffffffffffff1673ffffffffffffffffffffffffffffffffffffffff168152602001908152602001600020819055506000612cdb60a060008773ffffffffffffffffffffffffffffffffffffffff1673ffffffffffffffffffffffffffffffffffffffff1681526020019081526020016000208381548110612cc7577f4e487b7100000000000000000000000000000000000000000000000000000000600052603260045260246000fd5b906000526020600020906002020185613439565b90508473ffffffffffffffffffffffffffffffffffffffff163373ffffffffffffffffffffffffffffffffffffffff167f92b0fd5c6dbe6ec5b43a8afae4c587c1db47afcca43a21b7800bd848fcf8e49689898786604051612d409493929190614c16565b60405180910390a35050505050505050565b6000609960008373ffffffffffffffffffffffffffffffffffffffff1673ffffffffffffffffffffffffffffffffffffffff16815260200190815260200160002060009054906101000a900473ffffffffffffffffffffffffffffffffffffffff169050600060a060008373ffffffffffffffffffffffffffffffffffffffff1673ffffffffffffffffffffffffffffffffffffffff168152602001908152602001600020609f60003373ffffffffffffffffffffffffffffffffffffffff1673ffffffffffffffffffffffffffffffffffffffff16815260200190815260200160002060008473ffffffffffffffffffffffffffffffffffffffff1673ffffffffffffffffffffffffffffffffffffffff1681526020019081526020016000205481548110612eab577f4e487b7100000000000000000000000000000000000000000000000000000000600052603260045260246000fd5b906000526020600020906002020190506000816001015411612f02576040517f08c379a0000000000000000000000000000000000000000000000000000000008152600401612ef990614b7b565b60405180910390fd5b6000612f0e3384610c5c565b905060008373ffffffffffffffffffffffffffffffffffffffff166395d6abf8836040518263ffffffff1660e01b8152600401612f4b9190614b9b565b60206040518083038186803b158015612f6357600080fd5b505afa158015612f77573d6000803e3d6000fd5b505050506040513d601f19601f82011682018060405250810190612f9b91906141cd565b90506000612fa98486613964565b905081811015612fee576040517f08c379a0000000000000000000000000000000000000000000000000000000008152600401612fe5906148db565b60405180910390fd5b8473ffffffffffffffffffffffffffffffffffffffff163373ffffffffffffffffffffffffffffffffffffffff167f3cb91b4d61d4fefa96da17651a09b54f7b6751cb68d11134cf0efe0a4965796884846130499190614d63565b858789600101546040516130609493929190614c16565b60405180910390a36000609f60003373ffffffffffffffffffffffffffffffffffffffff1673ffffffffffffffffffffffffffffffffffffffff16815260200190815260200160002060008773ffffffffffffffffffffffffffffffffffffffff1673ffffffffffffffffffffffffffffffffffffffff16815260200190815260200160002081905550505050505050565b6000609960008473ffffffffffffffffffffffffffffffffffffffff1673ffffffffffffffffffffffffffffffffffffffff16815260200190815260200160002060009054906101000a900473ffffffffffffffffffffffffffffffffffffffff1690506000609f60003373ffffffffffffffffffffffffffffffffffffffff1673ffffffffffffffffffffffffffffffffffffffff16815260200190815260200160002060008373ffffffffffffffffffffffffffffffffffffffff1673ffffffffffffffffffffffffffffffffffffffff1681526020019081526020016000205490506000811161321a576040517f08c379a000000000000000000000000000000000000000000000000000000000815260040161321190614a7b565b60405180910390fd5b600060a060008473ffffffffffffffffffffffffffffffffffffffff1673ffffffffffffffffffffffffffffffffffffffff1681526020019081526020016000208281548110613293577f4e487b7100000000000000000000000000000000000000000000000000000000600052603260045260246000fd5b906000526020600020906002020190506132ad8185613439565b508273ffffffffffffffffffffffffffffffffffffffff163373ffffffffffffffffffffffffffffffffffffffff167ff35a14688e4794e8022cd9e5c7ec6475a6095ef189dea9647fad0de771465b8a61330a8460010154610d29565b84600101546133193389610c5c565b60405161332893929190614bdf565b60405180910390a35050505050565b61333f6133bb565b600073ffffffffffffffffffffffffffffffffffffffff168173ffffffffffffffffffffffffffffffffffffffff1614156133af576040517f08c379a00000000000000000000000000000000000000000000000000000000081526004016133a69061485b565b60405180910390fd5b6133b88161362f565b50565b6133c3613dd7565b73ffffffffffffffffffffffffffffffffffffffff166133e16119b0565b73ffffffffffffffffffffffffffffffffffffffff1614613437576040517f08c379a000000000000000000000000000000000000000000000000000000000815260040161342e9061497b565b60405180910390fd5b565b600061344482610cf5565b90508083600101600082825461345a9190614c82565b9250508190555081609a60008282546134739190614c82565b9250508190555080609b600082825461348c9190614c82565b925050819055506134bf609760009054906101000a900473ffffffffffffffffffffffffffffffffffffffff1683613ddf565b8260000160009054906101000a900473ffffffffffffffffffffffffffffffffffffffff1673ffffffffffffffffffffffffffffffffffffffff16609760009054906101000a900473ffffffffffffffffffffffffffffffffffffffff1673ffffffffffffffffffffffffffffffffffffffff167f63602d0ecc7b3a0ef7ff1a116e23056662d64280355ba8031b6d0d767c4b44588484604051613564929190614bb6565b60405180910390a392915050565b6000808473ffffffffffffffffffffffffffffffffffffffff166395d6abf8846040518263ffffffff1660e01b81526004016135ae9190614b9b565b60206040518083038186803b1580156135c657600080fd5b505afa1580156135da573d6000803e3d6000fd5b505050506040513d601f19601f820116820180604052508101906135fe91906141cd565b9050609d5461360c85610d29565b6136169190614d09565b612710826136249190614d09565b109150935093915050565b6000603360009054906101000a900473ffffffffffffffffffffffffffffffffffffffff16905081603360006101000a81548173ffffffffffffffffffffffffffffffffffffffff021916908373ffffffffffffffffffffffffffffffffffffffff1602179055508173ffffffffffffffffffffffffffffffffffffffff168173ffffffffffffffffffffffffffffffffffffffff167f8be0079c531659141344cd1fd0a4f28419497f9722a3daafe3b4186f6b6457e060405160405180910390a35050565b6000808573ffffffffffffffffffffffffffffffffffffffff166323b872dd868686604051602401613729939291906146c9565b6040516020818303038152906040529060e01b6020820180517bffffffffffffffffffffffffffffffffffffffffffffffffffffffff8381831617835250505050604051613777919061466e565b6000604051808303816000865af19150503d80600081146137b4576040519150601f19603f3d011682016040523d82523d6000602084013e6137b9565b606091505b50915091508180156137e757506000815114806137e65750808060200190518101906137e5919061417b565b5b5b613826576040517f08c379a000000000000000000000000000000000000000000000000000000000815260040161381d90614afb565b60405180910390fd5b505050505050565b6000808473ffffffffffffffffffffffffffffffffffffffff1663095ea7b3858560405160240161386092919061476e565b6040516020818303038152906040529060e01b6020820180517bffffffffffffffffffffffffffffffffffffffffffffffffffffffff83818316178352505050506040516138ae919061466e565b6000604051808303816000865af19150503d80600081146138eb576040519150601f19603f3d011682016040523d82523d6000602084013e6138f0565b606091505b509150915081801561391e575060008151148061391d57508080602001905181019061391c919061417b565b5b5b61395d576040517f08c379a00000000000000000000000000000000000000000000000000000000081526004016139549061489b565b60405180910390fd5b5050505050565b6000808273ffffffffffffffffffffffffffffffffffffffff1663b95d4ae18560000160009054906101000a900473ffffffffffffffffffffffffffffffffffffffff166040518263ffffffff1660e01b81526004016139c49190614685565b60206040518083038186803b1580156139dc57600080fd5b505afa1580156139f0573d6000803e3d6000fd5b505050506040513d601f19601f82011682018060405250810190613a1491906141cd565b9050613a238460010154610d29565b9150613a3d8484613a378760010154610d29565b84613b19565b5092915050565b6000808273ffffffffffffffffffffffffffffffffffffffff163b119050919050565b600060019054906101000a900460ff16613ab6576040517f08c379a0000000000000000000000000000000000000000000000000000000008152600401613aad90614adb565b60405180910390fd5b613abe613f05565b565b600060019054906101000a900460ff16613b0f576040517f08c379a0000000000000000000000000000000000000000000000000000000008152600401613b0690614adb565b60405180910390fd5b613b17613f66565b565b81811115613b5c576040517f08c379a0000000000000000000000000000000000000000000000000000000008152600401613b5390614b5b565b60405180910390fd5b6000613b6783610cf5565b905080856001016000828254613b7d9190614d63565b9250508190555082609a6000828254613b969190614d63565b9250508190555080609b6000828254613baf9190614d63565b9250508190555060008473ffffffffffffffffffffffffffffffffffffffff16631a4e1aef8760000160009054906101000a900473ffffffffffffffffffffffffffffffffffffffff16856040518363ffffffff1660e01b8152600401613c1792919061476e565b602060405180830381600087803b158015613c3157600080fd5b505af1158015613c45573d6000803e3d6000fd5b505050506040513d601f19601f82011682018060405250810190613c6991906141cd565b9050609e60009054906101000a900473ffffffffffffffffffffffffffffffffffffffff1673ffffffffffffffffffffffffffffffffffffffff1663633235d08760000160009054906101000a900473ffffffffffffffffffffffffffffffffffffffff168787856040518563ffffffff1660e01b8152600401613cf09493929190614700565b600060405180830381600087803b158015613d0a57600080fd5b505af1158015613d1e573d6000803e3d6000fd5b505050508560000160009054906101000a900473ffffffffffffffffffffffffffffffffffffffff1673ffffffffffffffffffffffffffffffffffffffff16609760009054906101000a900473ffffffffffffffffffffffffffffffffffffffff1673ffffffffffffffffffffffffffffffffffffffff167f18edd09e80386cd99df397e2e0d87d2bb259423eae08645e776321a36fe680ef8685604051613dc7929190614bb6565b60405180910390a3505050505050565b600033905090565b60008273ffffffffffffffffffffffffffffffffffffffff1682600067ffffffffffffffff811115613e3a577f4e487b7100000000000000000000000000000000000000000000000000000000600052604160045260246000fd5b6040519080825280601f01601f191660200182016040528015613e6c5781602001600182028036833780820191505090505b50604051613e7a919061466e565b60006040518083038185875af1925050503d8060008114613eb7576040519150601f19603f3d011682016040523d82523d6000602084013e613ebc565b606091505b5050905080613f00576040517f08c379a0000000000000000000000000000000000000000000000000000000008152600401613ef79061495b565b60405180910390fd5b505050565b600060019054906101000a900460ff16613f54576040517f08c379a0000000000000000000000000000000000000000000000000000000008152600401613f4b90614adb565b60405180910390fd5b613f64613f5f613dd7565b61362f565b565b600060019054906101000a900460ff16613fb5576040517f08c379a0000000000000000000000000000000000000000000000000000000008152600401613fac90614adb565b60405180910390fd5b6001606581905550565b600081359050613fce81615559565b92915050565b600081519050613fe381615570565b92915050565b600081359050613ff881615587565b92915050565b60008135905061400d8161559e565b92915050565b6000815190506140228161559e565b92915050565b60006020828403121561403a57600080fd5b600061404884828501613fbf565b91505092915050565b6000806040838503121561406457600080fd5b600061407285828601613fbf565b925050602061408385828601613fbf565b9150509250929050565b600080600080608085870312156140a357600080fd5b60006140b187828801613fbf565b94505060206140c287828801613fe9565b93505060406140d387828801613fe9565b92505060606140e487828801613ffe565b91505092959194509250565b6000806040838503121561410357600080fd5b600061411185828601613fbf565b925050602061412285828601613ffe565b9150509250929050565b60008060006060848603121561414157600080fd5b600061414f86828701613fbf565b935050602061416086828701613ffe565b925050604061417186828701613ffe565b9150509250925092565b60006020828403121561418d57600080fd5b600061419b84828501613fd4565b91505092915050565b6000602082840312156141b657600080fd5b60006141c484828501613ffe565b91505092915050565b6000602082840312156141df57600080fd5b60006141ed84828501614013565b91505092915050565b6000806040838503121561420957600080fd5b600061421785828601613ffe565b925050602061422885828601613ffe565b9150509250929050565b61423b81614d97565b82525050565b61424a81614da9565b82525050565b600061425b82614c5b565b6142658185614c66565b9350614275818560208601614e3e565b80840191505092915050565b61428a81614df6565b82525050565b61429981614e1a565b82525050565b6142a881614e2c565b82525050565b60006142bb601483614c71565b91506142c682614f18565b602082019050919050565b60006142de602683614c71565b91506142e982614f41565b604082019050919050565b6000614301602283614c71565b915061430c82614f90565b604082019050919050565b6000614324600c83614c71565b915061432f82614fdf565b602082019050919050565b6000614347601c83614c71565b915061435282615008565b602082019050919050565b600061436a601883614c71565b915061437582615031565b602082019050919050565b600061438d603083614c71565b91506143988261505a565b604082019050919050565b60006143b0603083614c71565b91506143bb826150a9565b604082019050919050565b60006143d3602e83614c71565b91506143de826150f8565b604082019050919050565b60006143f6601283614c71565b915061440182615147565b602082019050919050565b6000614419602083614c71565b915061442482615170565b602082019050919050565b600061443c602883614c71565b915061444782615199565b604082019050919050565b600061445f602b83614c71565b915061446a826151e8565b604082019050919050565b6000614482601b83614c71565b915061448d82615237565b602082019050919050565b60006144a5601683614c71565b91506144b082615260565b602082019050919050565b60006144c8602183614c71565b91506144d382615289565b604082019050919050565b60006144eb601d83614c71565b91506144f6826152d8565b602082019050919050565b600061450e602083614c71565b915061451982615301565b602082019050919050565b6000614531601683614c71565b915061453c8261532a565b602082019050919050565b6000614554601a83614c71565b915061455f82615353565b602082019050919050565b6000614577602483614c71565b91506145828261537c565b604082019050919050565b600061459a602b83614c71565b91506145a5826153cb565b604082019050919050565b60006145bd601183614c71565b91506145c88261541a565b602082019050919050565b60006145e0601683614c71565b91506145eb82615443565b602082019050919050565b6000614603602483614c71565b915061460e8261546c565b604082019050919050565b6000614626602b83614c71565b9150614631826154bb565b604082019050919050565b6000614649602a83614c71565b91506146548261550a565b604082019050919050565b61466881614ddf565b82525050565b600061467a8284614250565b915081905092915050565b600060208201905061469a6000830184614232565b92915050565b60006040820190506146b56000830185614232565b6146c26020830184614232565b9392505050565b60006060820190506146de6000830186614232565b6146eb6020830185614232565b6146f8604083018461465f565b949350505050565b60006080820190506147156000830187614232565b6147226020830186614232565b61472f604083018561465f565b61473c606083018461465f565b95945050505050565b600060408201905061475a6000830185614232565b6147676020830184614290565b9392505050565b60006040820190506147836000830185614232565b614790602083018461465f565b9392505050565b600060a0820190506147ac6000830188614232565b6147b9602083018761465f565b6147c6604083018661465f565b6147d3606083018561465f565b6147e0608083018461465f565b9695505050505050565b60006020820190506147ff6000830184614241565b92915050565b600060208201905061481a6000830184614281565b92915050565b6000602082019050614835600083018461429f565b92915050565b60006020820190508181036000830152614854816142ae565b9050919050565b60006020820190508181036000830152614874816142d1565b9050919050565b60006020820190508181036000830152614894816142f4565b9050919050565b600060208201905081810360008301526148b481614317565b9050919050565b600060208201905081810360008301526148d48161433a565b9050919050565b600060208201905081810360008301526148f48161435d565b9050919050565b6000602082019050818103600083015261491481614380565b9050919050565b60006020820190508181036000830152614934816143a3565b9050919050565b60006020820190508181036000830152614954816143c6565b9050919050565b60006020820190508181036000830152614974816143e9565b9050919050565b600060208201905081810360008301526149948161440c565b9050919050565b600060208201905081810360008301526149b48161442f565b9050919050565b600060208201905081810360008301526149d481614452565b9050919050565b600060208201905081810360008301526149f481614475565b9050919050565b60006020820190508181036000830152614a1481614498565b9050919050565b60006020820190508181036000830152614a34816144bb565b9050919050565b60006020820190508181036000830152614a54816144de565b9050919050565b60006020820190508181036000830152614a7481614501565b9050919050565b60006020820190508181036000830152614a9481614524565b9050919050565b60006020820190508181036000830152614ab481614547565b9050919050565b60006020820190508181036000830152614ad48161456a565b9050919050565b60006020820190508181036000830152614af48161458d565b9050919050565b60006020820190508181036000830152614b14816145b0565b9050919050565b60006020820190508181036000830152614b34816145d3565b9050919050565b60006020820190508181036000830152614b54816145f6565b9050919050565b60006020820190508181036000830152614b7481614619565b9050919050565b60006020820190508181036000830152614b948161463c565b9050919050565b6000602082019050614bb0600083018461465f565b92915050565b6000604082019050614bcb600083018561465f565b614bd8602083018461465f565b9392505050565b6000606082019050614bf4600083018661465f565b614c01602083018561465f565b614c0e604083018461465f565b949350505050565b6000608082019050614c2b600083018761465f565b614c38602083018661465f565b614c45604083018561465f565b614c52606083018461465f565b95945050505050565b600081519050919050565b600081905092915050565b600082825260208201905092915050565b6000614c8d82614ddf565b9150614c9883614ddf565b9250827fffffffffffffffffffffffffffffffffffffffffffffffffffffffffffffffff03821115614ccd57614ccc614eba565b5b828201905092915050565b6000614ce382614ddf565b9150614cee83614ddf565b925082614cfe57614cfd614ee9565b5b828204905092915050565b6000614d1482614ddf565b9150614d1f83614ddf565b9250817fffffffffffffffffffffffffffffffffffffffffffffffffffffffffffffffff0483118215151615614d5857614d57614eba565b5b828202905092915050565b6000614d6e82614ddf565b9150614d7983614ddf565b925082821015614d8c57614d8b614eba565b5b828203905092915050565b6000614da282614dbf565b9050919050565b60008115159050919050565b6000819050919050565b600073ffffffffffffffffffffffffffffffffffffffff82169050919050565b6000819050919050565b600060ff82169050919050565b6000614e0182614e08565b9050919050565b6000614e1382614dbf565b9050919050565b6000614e2582614ddf565b9050919050565b6000614e3782614de9565b9050919050565b60005b83811015614e5c578082015181840152602081019050614e41565b83811115614e6b576000848401525b50505050565b6000614e7c82614db5565b91507f8000000000000000000000000000000000000000000000000000000000000000821415614eaf57614eae614eba565b5b816000039050919050565b7f4e487b7100000000000000000000000000000000000000000000000000000000600052601160045260246000fd5b7f4e487b7100000000000000000000000000000000000000000000000000000000600052601260045260246000fd5b7f616464446562743a206e6f20706f736974696f6e000000000000000000000000600082015250565b7f4f776e61626c653a206e6577206f776e657220697320746865207a65726f206160008201527f6464726573730000000000000000000000000000000000000000000000000000602082015250565b7f616464506f736974696f6e3a20616c7265616479206861766520706f7369746960008201527f6f6e000000000000000000000000000000000000000000000000000000000000602082015250565b7f2173616665417070726f76650000000000000000000000000000000000000000600082015250565b7f726570617944656274496e426173653a206e6f20706f736974696f6e00000000600082015250565b7f72656d6f7665506f736974696f6e3a2042616420646562740000000000000000600082015250565b7f7570646174655661756c743a20446562742072656d61696e73206f6e2074686560008201527f206578697374696e67207661756c742e00000000000000000000000000000000602082015250565b7f616464446562743a2062616420646562742c2063616e6e6f7420616464206d6f60008201527f7265206465627420616e796d6f72652e00000000000000000000000000000000602082015250565b7f496e697469616c697a61626c653a20636f6e747261637420697320616c72656160008201527f647920696e697469616c697a6564000000000000000000000000000000000000602082015250565b7f21736166655472616e7366657245564d4f530000000000000000000000000000600082015250565b7f4f776e61626c653a2063616c6c6572206973206e6f7420746865206f776e6572600082015250565b7f6163637275653a2063757272656e74546f74616c5374616b6564203c20746f7460008201527f616c416d6f756e74000000000000000000000000000000000000000000000000602082015250565b7f616464506f736974696f6e3a2062616420646562742c2063616e6e6f74206f7060008201527f656e20706f736974696f6e000000000000000000000000000000000000000000602082015250565b7f6368616e6765506f736974696f6e3a206e6f20706f736974696f6e0000000000600082015250565b7f6b696c6c3a2072656d6f76656420706f736974696f6e00000000000000000000600082015250565b7f537461796b696e673a204e6f742077686974656c6973746564204b696c6c657260008201527f2e00000000000000000000000000000000000000000000000000000000000000602082015250565b7f616464446562743a20657874726144656274496e42617365203c3d2030000000600082015250565b7f616464506f736974696f6e3a206d73672e76616c756520213d20657175697479600082015250565b7f6164644571756974793a206e6f20706f736974696f6e00000000000000000000600082015250565b7f6b696c6c3a207374696c6c207361666520706f736974696f6e2e000000000000600082015250565b7f537461796b696e673a204e6f742077686974656c69737465642064656c65676160008201527f746f722e00000000000000000000000000000000000000000000000000000000602082015250565b7f496e697469616c697a61626c653a20636f6e7472616374206973206e6f74206960008201527f6e697469616c697a696e67000000000000000000000000000000000000000000602082015250565b7f21736166655472616e7366657246726f6d000000000000000000000000000000600082015250565b7f7265706179446562743a206e6f20706f736974696f6e00000000000000000000600082015250565b7f6368616e6765506f736974696f6e3a204e6f7420656e6f756768206d73672e7660008201527f616c756500000000000000000000000000000000000000000000000000000000602082015250565b7f756e7374616b653a2072657061696444656274496e42617365203e20756e737460008201527f616b656420616d6f756e74000000000000000000000000000000000000000000602082015250565b7f72656d6f7665506f736974696f6e3a204e6f20706f736974696f6e20666f722060008201527f7468697320746f6b656e00000000000000000000000000000000000000000000602082015250565b61556281614d97565b811461556d57600080fd5b50565b61557981614da9565b811461558457600080fd5b50565b61559081614db5565b811461559b57600080fd5b50565b6155a781614ddf565b81146155b257600080fd5b5056fea2646970667358221220bf5d172bd9ba85d82a0d63d6ab47b136fb0f6a23b00a5ad33045542d4ab20a1664736f6c63430008040033",
  "devdoc": {
    "kind": "dev",
    "methods": {
      "addDebt(address,uint256)": {
        "details": "Borrow more debt (increase debt ratio)",
        "params": {
          "debtToken": "debtToken Address (not vault address)",
          "extraDebtInBase": "amount of additional debt in EVMOS"
        }
      },
      "addEquity(address,uint256)": {
        "details": "add additional equity (decrease debt ratio)",
        "params": {
          "debtToken": "debtToken Address (not vault address)",
          "extraEquity": "amount of additional equity"
        }
      },
      "addPosition(address,uint256,uint256)": {
        "params": {
          "debtInBase": "debtAmount in EVMOS",
          "debtToken": "debtToken Address (not vault address)",
          "equity": "equityAmount in EVMOS"
        }
      },
      "changePosition(address,int256,int256,uint256)": {
        "details": "(msg.value - changeEquityInBase) equals to repayDebtInBase - position value not changes (not call _stake/_unstake function) - decrease debt ratioUser should approve this firstif msg.value > 0, changeEquityInBase >= 0 since msg.value = changeEquityInBase + repayDebtInBase"
      },
      "owner()": {
        "details": "Returns the address of the current owner."
      },
      "positionInfo(address,address)": {
        "details": "returns position's value & debt value position value: positionValueInBase equity value: positionValueInBase - debtInBase debt value: debtInBase debt ratio: debtInBase / positionValueInBase * 100(%) kill factor: killFactorBps / 100 safety buffer: (kill factor) - (debt ratio)"
      },
      "removePosition(address)": {
        "details": "remove all position of debtToken vault.",
        "params": {
          "debtToken": "debtToken Address (not vault address)"
        }
      },
      "renounceOwnership()": {
        "details": "Leaves the contract without owner. It will not be possible to call `onlyOwner` functions anymore. Can only be called by the current owner. NOTE: Renouncing ownership will leave the contract without an owner, thereby removing any functionality that is only available to the owner."
      },
      "repayDebt(address,uint256)": {
        "details": "Repay debt (decrease debt ratio, total staked amount(or share) does not change)",
        "params": {
          "debtToken": "debtToken Address (not vault address)",
          "repaidDebt": "amount of repaid debt in debtToken"
        }
      },
      "repayDebtInBase(address,uint256)": {
        "details": "Repay debt with EVMOS (decrease debt ratio, total staked amount(or share) does not change)",
        "params": {
          "debtToken": "debtToken Address (not vault address)",
          "minRepaid": "minimum value to be repaid"
        }
      },
      "transferOwnership(address)": {
        "details": "Transfers ownership of the contract to a new account (`newOwner`). Can only be called by the current owner."
      }
    },
    "stateVariables": {
      "minDebtInBase": {
        "details": "min debtAmount in EVMOS (base token)"
      },
      "positionIdOf": {
        "details": "userAddress => vaultAddress => positionId (array Index of position)"
      },
      "positions": {
        "details": "vaultAddress => Position[]"
      },
      "totalAmount": {
        "details": "kor)    + auto-compound "
      },
      "totalShare": {
        "details": "kor) auto-compound totalShare  .     ( /totalAmount) * totalShare  share ."
      }
    },
    "version": 1
  },
  "userdoc": {
    "kind": "user",
    "methods": {
      "amountToShare(uint256)": {
        "notice": "   (  / totalAmount) * totalShare  share ."
      },
      "changePosition(address,int256,int256,uint256)": {
        "notice": "change position value case 1. changeEquityInBase > 0  - increase position value (call _stake function) - decrease debt ratio case 2. changeEquityInBase < 0  - decrease position value (call _unstake function) - increase debt ratio case 3. changeDebt > 0 (borrow more debt) - increase position value (call _stake function) - increase debt ratio case 4. changeEquity < 0 (repay debt by unstaking) - decrease position value (call _unstake function) - decrease debt ratio case 5. repayDebt > 0 (repay debt with user's own token)  or msg.value > 0 (repay debt with user's own EVMOS)"
      },
      "removePosition(address)": {
        "notice": "kor)  100%      . ->   ."
      },
      "repayDebt(address,uint256)": {
        "notice": "user should repay debt using debtTokenuser approve should be preceded"
      },
      "repayDebtInBase(address,uint256)": {
        "notice": "repaidDebtInBase = msg.value"
      }
    },
    "version": 1
  },
  "storageLayout": {
    "storage": [
      {
        "astId": 733,
        "contract": "contracts/token/Stayking.sol:Stayking",
        "label": "_initialized",
        "offset": 0,
        "slot": "0",
        "type": "t_uint8"
      },
      {
        "astId": 736,
        "contract": "contracts/token/Stayking.sol:Stayking",
        "label": "_initializing",
        "offset": 1,
        "slot": "0",
        "type": "t_bool"
      },
      {
        "astId": 725,
        "contract": "contracts/token/Stayking.sol:Stayking",
        "label": "__gap",
        "offset": 0,
        "slot": "1",
        "type": "t_array(t_uint256)50_storage"
      },
      {
        "astId": 888,
        "contract": "contracts/token/Stayking.sol:Stayking",
        "label": "_owner",
        "offset": 0,
        "slot": "51",
        "type": "t_address"
      },
      {
        "astId": 1008,
        "contract": "contracts/token/Stayking.sol:Stayking",
        "label": "__gap",
        "offset": 0,
        "slot": "52",
        "type": "t_array(t_uint256)49_storage"
      },
      {
        "astId": 1023,
        "contract": "contracts/token/Stayking.sol:Stayking",
        "label": "_status",
        "offset": 0,
        "slot": "101",
        "type": "t_uint256"
      },
      {
        "astId": 1067,
        "contract": "contracts/token/Stayking.sol:Stayking",
        "label": "__gap",
        "offset": 0,
        "slot": "102",
        "type": "t_array(t_uint256)49_storage"
      },
      {
        "astId": 1355,
        "contract": "contracts/token/Stayking.sol:Stayking",
        "label": "delegator",
        "offset": 0,
        "slot": "151",
        "type": "t_address"
      },
      {
        "astId": 1359,
        "contract": "contracts/token/Stayking.sol:Stayking",
        "label": "whitelistedKiller",
        "offset": 0,
        "slot": "152",
        "type": "t_mapping(t_address,t_bool)"
      },
      {
        "astId": 1364,
        "contract": "contracts/token/Stayking.sol:Stayking",
        "label": "tokenToVault",
        "offset": 0,
        "slot": "153",
        "type": "t_mapping(t_address,t_address)"
      },
      {
        "astId": 1367,
        "contract": "contracts/token/Stayking.sol:Stayking",
        "label": "totalAmount",
        "offset": 0,
        "slot": "154",
        "type": "t_uint256"
      },
      {
        "astId": 1370,
        "contract": "contracts/token/Stayking.sol:Stayking",
        "label": "totalShare",
        "offset": 0,
        "slot": "155",
        "type": "t_uint256"
      },
      {
        "astId": 1374,
        "contract": "contracts/token/Stayking.sol:Stayking",
        "label": "minDebtInBase",
        "offset": 0,
        "slot": "156",
        "type": "t_uint256"
      },
      {
        "astId": 1377,
        "contract": "contracts/token/Stayking.sol:Stayking",
        "label": "killFactorBps",
        "offset": 0,
        "slot": "157",
        "type": "t_uint256"
      },
      {
        "astId": 1380,
        "contract": "contracts/token/Stayking.sol:Stayking",
        "label": "uEVMOS",
        "offset": 0,
        "slot": "158",
        "type": "t_contract(IUnbondedEvmos)244"
      },
      {
        "astId": 1393,
        "contract": "contracts/token/Stayking.sol:Stayking",
        "label": "positionIdOf",
        "offset": 0,
        "slot": "159",
        "type": "t_mapping(t_address,t_mapping(t_address,t_uint256))"
      },
      {
        "astId": 1400,
        "contract": "contracts/token/Stayking.sol:Stayking",
        "label": "positions",
        "offset": 0,
        "slot": "160",
        "type": "t_mapping(t_address,t_array(t_struct(Position)1386_storage)dyn_storage)"
      },
      {
        "astId": 1404,
        "contract": "contracts/token/Stayking.sol:Stayking",
        "label": "positionsLengthOf",
        "offset": 0,
        "slot": "161",
        "type": "t_mapping(t_address,t_uint256)"
      },
      {
        "astId": 1408,
        "contract": "contracts/token/Stayking.sol:Stayking",
        "label": "totalDebtOf",
        "offset": 0,
        "slot": "162",
        "type": "t_mapping(t_address,t_uint256)"
      }
    ],
    "types": {
      "t_address": {
        "encoding": "inplace",
        "label": "address",
        "numberOfBytes": "20"
      },
      "t_array(t_struct(Position)1386_storage)dyn_storage": {
        "base": "t_struct(Position)1386_storage",
        "encoding": "dynamic_array",
        "label": "struct Stayking.Position[]",
        "numberOfBytes": "32"
      },
      "t_array(t_uint256)49_storage": {
        "base": "t_uint256",
        "encoding": "inplace",
        "label": "uint256[49]",
        "numberOfBytes": "1568"
      },
      "t_array(t_uint256)50_storage": {
        "base": "t_uint256",
        "encoding": "inplace",
        "label": "uint256[50]",
        "numberOfBytes": "1600"
      },
      "t_bool": {
        "encoding": "inplace",
        "label": "bool",
        "numberOfBytes": "1"
      },
      "t_contract(IUnbondedEvmos)244": {
        "encoding": "inplace",
        "label": "contract IUnbondedEvmos",
        "numberOfBytes": "20"
      },
      "t_mapping(t_address,t_address)": {
        "encoding": "mapping",
        "key": "t_address",
        "label": "mapping(address => address)",
        "numberOfBytes": "32",
        "value": "t_address"
      },
      "t_mapping(t_address,t_array(t_struct(Position)1386_storage)dyn_storage)": {
        "encoding": "mapping",
        "key": "t_address",
        "label": "mapping(address => struct Stayking.Position[])",
        "numberOfBytes": "32",
        "value": "t_array(t_struct(Position)1386_storage)dyn_storage"
      },
      "t_mapping(t_address,t_bool)": {
        "encoding": "mapping",
        "key": "t_address",
        "label": "mapping(address => bool)",
        "numberOfBytes": "32",
        "value": "t_bool"
      },
      "t_mapping(t_address,t_mapping(t_address,t_uint256))": {
        "encoding": "mapping",
        "key": "t_address",
        "label": "mapping(address => mapping(address => uint256))",
        "numberOfBytes": "32",
        "value": "t_mapping(t_address,t_uint256)"
      },
      "t_mapping(t_address,t_uint256)": {
        "encoding": "mapping",
        "key": "t_address",
        "label": "mapping(address => uint256)",
        "numberOfBytes": "32",
        "value": "t_uint256"
      },
      "t_struct(Position)1386_storage": {
        "encoding": "inplace",
        "label": "struct Stayking.Position",
        "members": [
          {
            "astId": 1382,
            "contract": "contracts/token/Stayking.sol:Stayking",
            "label": "user",
            "offset": 0,
            "slot": "0",
            "type": "t_address"
          },
          {
            "astId": 1385,
            "contract": "contracts/token/Stayking.sol:Stayking",
            "label": "share",
            "offset": 0,
            "slot": "1",
            "type": "t_uint256"
          }
        ],
        "numberOfBytes": "64"
      },
      "t_uint256": {
        "encoding": "inplace",
        "label": "uint256",
        "numberOfBytes": "32"
      },
      "t_uint8": {
        "encoding": "inplace",
        "label": "uint8",
        "numberOfBytes": "1"
      }
    }
  }
}