{
  "address": "0x9D696899ca086D76863C17224cFCE61C5e7ae936",
  "abi": [
    {
      "anonymous": false,
      "inputs": [
        {
          "indexed": true,
          "internalType": "address",
          "name": "delegator",
          "type": "address"
        },
        {
          "indexed": false,
          "internalType": "uint256",
          "name": "accrued",
          "type": "uint256"
        },
        {
          "indexed": false,
          "internalType": "uint256",
          "name": "totalStaked",
          "type": "uint256"
        }
      ],
      "name": "Accrue",
      "type": "event"
    },
    {
      "anonymous": false,
      "inputs": [
        {
          "indexed": true,
          "internalType": "address",
          "name": "user",
          "type": "address"
        },
        {
          "indexed": true,
          "internalType": "address",
          "name": "vault",
          "type": "address"
        },
        {
          "indexed": false,
          "internalType": "uint256",
          "name": "equity",
          "type": "uint256"
        },
        {
          "indexed": false,
          "internalType": "uint256",
          "name": "debtInBase",
          "type": "uint256"
        },
        {
          "indexed": false,
          "internalType": "uint256",
          "name": "debt",
          "type": "uint256"
        },
        {
          "indexed": false,
          "internalType": "uint256",
          "name": "share",
          "type": "uint256"
        }
      ],
      "name": "AddPosition",
      "type": "event"
    },
    {
      "anonymous": false,
      "inputs": [
        {
          "indexed": false,
          "internalType": "address",
          "name": "token",
          "type": "address"
        },
        {
          "indexed": false,
          "internalType": "address",
          "name": "vault",
          "type": "address"
        }
      ],
      "name": "AddVault",
      "type": "event"
    },
    {
      "anonymous": false,
      "inputs": [
        {
          "indexed": false,
          "internalType": "address",
          "name": "delegator",
          "type": "address"
        }
      ],
      "name": "ChangeDelegator",
      "type": "event"
    },
    {
      "anonymous": false,
      "inputs": [
        {
          "indexed": false,
          "internalType": "uint8",
          "name": "version",
          "type": "uint8"
        }
      ],
      "name": "Initialized",
      "type": "event"
    },
    {
      "anonymous": false,
      "inputs": [
        {
          "indexed": true,
          "internalType": "address",
          "name": "killer",
          "type": "address"
        },
        {
          "indexed": true,
          "internalType": "address",
          "name": "user",
          "type": "address"
        },
        {
          "indexed": false,
          "internalType": "address",
          "name": "vault",
          "type": "address"
        },
        {
          "indexed": false,
          "internalType": "uint256",
          "name": "equity",
          "type": "uint256"
        },
        {
          "indexed": false,
          "internalType": "uint256",
          "name": "debtInBase",
          "type": "uint256"
        },
        {
          "indexed": false,
          "internalType": "uint256",
          "name": "debt",
          "type": "uint256"
        },
        {
          "indexed": false,
          "internalType": "uint256",
          "name": "share",
          "type": "uint256"
        }
      ],
      "name": "Kill",
      "type": "event"
    },
    {
      "anonymous": false,
      "inputs": [
        {
          "indexed": true,
          "internalType": "address",
          "name": "previousOwner",
          "type": "address"
        },
        {
          "indexed": true,
          "internalType": "address",
          "name": "newOwner",
          "type": "address"
        }
      ],
      "name": "OwnershipTransferred",
      "type": "event"
    },
    {
      "anonymous": false,
      "inputs": [
        {
          "indexed": true,
          "internalType": "address",
          "name": "user",
          "type": "address"
        },
        {
          "indexed": true,
          "internalType": "address",
          "name": "vault",
          "type": "address"
        },
        {
          "indexed": false,
          "internalType": "uint256",
          "name": "amount",
          "type": "uint256"
        },
        {
          "indexed": false,
          "internalType": "uint256",
          "name": "share",
          "type": "uint256"
        },
        {
          "indexed": false,
          "internalType": "uint256",
          "name": "debt",
          "type": "uint256"
        }
      ],
      "name": "PositionChanged",
      "type": "event"
    },
    {
      "anonymous": false,
      "inputs": [
        {
          "indexed": true,
          "internalType": "address",
          "name": "user",
          "type": "address"
        },
        {
          "indexed": true,
          "internalType": "address",
          "name": "vault",
          "type": "address"
        },
        {
          "indexed": false,
          "internalType": "uint256",
          "name": "equity",
          "type": "uint256"
        },
        {
          "indexed": false,
          "internalType": "uint256",
          "name": "debtInBase",
          "type": "uint256"
        },
        {
          "indexed": false,
          "internalType": "uint256",
          "name": "debt",
          "type": "uint256"
        },
        {
          "indexed": false,
          "internalType": "uint256",
          "name": "share",
          "type": "uint256"
        }
      ],
      "name": "RemovePosition",
      "type": "event"
    },
    {
      "anonymous": false,
      "inputs": [
        {
          "indexed": true,
          "internalType": "address",
          "name": "delegator",
          "type": "address"
        },
        {
          "indexed": true,
          "internalType": "address",
          "name": "user",
          "type": "address"
        },
        {
          "indexed": false,
          "internalType": "uint256",
          "name": "amount",
          "type": "uint256"
        },
        {
          "indexed": false,
          "internalType": "uint256",
          "name": "share",
          "type": "uint256"
        }
      ],
      "name": "Stake",
      "type": "event"
    },
    {
      "anonymous": false,
      "inputs": [
        {
          "indexed": true,
          "internalType": "address",
          "name": "delegator",
          "type": "address"
        },
        {
          "indexed": true,
          "internalType": "address",
          "name": "user",
          "type": "address"
        },
        {
          "indexed": false,
          "internalType": "uint256",
          "name": "amount",
          "type": "uint256"
        },
        {
          "indexed": false,
          "internalType": "uint256",
          "name": "share",
          "type": "uint256"
        }
      ],
      "name": "Unstake",
      "type": "event"
    },
    {
      "anonymous": false,
      "inputs": [
        {
          "indexed": false,
          "internalType": "uint256",
          "name": "minDebtInBase",
          "type": "uint256"
        },
        {
          "indexed": false,
          "internalType": "uint256",
          "name": "reservedBps",
          "type": "uint256"
        },
        {
          "indexed": false,
          "internalType": "uint256",
          "name": "vaultRewardBps",
          "type": "uint256"
        },
        {
          "indexed": false,
          "internalType": "uint256",
          "name": "killFactorBps",
          "type": "uint256"
        },
        {
          "indexed": false,
          "internalType": "uint256",
          "name": "liquidateDebtFactorBps",
          "type": "uint256"
        },
        {
          "indexed": false,
          "internalType": "uint256",
          "name": "liquidationFeeBps",
          "type": "uint256"
        }
      ],
      "name": "UpdateConfigs",
      "type": "event"
    },
    {
      "anonymous": false,
      "inputs": [
        {
          "indexed": false,
          "internalType": "address",
          "name": "token",
          "type": "address"
        },
        {
          "indexed": false,
          "internalType": "address",
          "name": "vault",
          "type": "address"
        }
      ],
      "name": "UpdateVault",
      "type": "event"
    },
    {
      "stateMutability": "payable",
      "type": "fallback"
    },
    {
      "inputs": [
        {
          "internalType": "address",
          "name": "delegator_",
          "type": "address"
        },
        {
          "internalType": "address",
          "name": "uEVMOS_",
          "type": "address"
        }
      ],
      "name": "__Stayking_init",
      "outputs": [],
      "stateMutability": "nonpayable",
      "type": "function"
    },
    {
      "inputs": [
        {
          "internalType": "uint256",
          "name": "totalStaked",
          "type": "uint256"
        }
      ],
      "name": "accrue",
      "outputs": [],
      "stateMutability": "payable",
      "type": "function"
    },
    {
      "inputs": [
        {
          "internalType": "address",
          "name": "debtToken",
          "type": "address"
        },
        {
          "internalType": "uint256",
          "name": "equity",
          "type": "uint256"
        },
        {
          "internalType": "uint256",
          "name": "debtInBase",
          "type": "uint256"
        }
      ],
      "name": "addPosition",
      "outputs": [],
      "stateMutability": "payable",
      "type": "function"
    },
    {
      "inputs": [
        {
          "internalType": "uint256",
          "name": "amount",
          "type": "uint256"
        }
      ],
      "name": "amountToShare",
      "outputs": [
        {
          "internalType": "uint256",
          "name": "",
          "type": "uint256"
        }
      ],
      "stateMutability": "view",
      "type": "function"
    },
    {
      "inputs": [
        {
          "internalType": "address",
          "name": "_delegator",
          "type": "address"
        }
      ],
      "name": "changeDelegator",
      "outputs": [],
      "stateMutability": "nonpayable",
      "type": "function"
    },
    {
      "inputs": [
        {
          "internalType": "address",
          "name": "debtToken",
          "type": "address"
        },
        {
          "internalType": "int256",
          "name": "equityInBaseChanged",
          "type": "int256"
        },
        {
          "internalType": "int256",
          "name": "debtInBaseChanged",
          "type": "int256"
        },
        {
          "internalType": "uint256",
          "name": "repaidDebt",
          "type": "uint256"
        }
      ],
      "name": "changePosition",
      "outputs": [],
      "stateMutability": "payable",
      "type": "function"
    },
    {
      "inputs": [
        {
          "internalType": "address",
          "name": "user",
          "type": "address"
        },
        {
          "internalType": "address",
          "name": "vault",
          "type": "address"
        }
      ],
      "name": "debtAmountOf",
      "outputs": [
        {
          "internalType": "uint256",
          "name": "",
          "type": "uint256"
        }
      ],
      "stateMutability": "view",
      "type": "function"
    },
    {
      "inputs": [],
      "name": "delegator",
      "outputs": [
        {
          "internalType": "address",
          "name": "",
          "type": "address"
        }
      ],
      "stateMutability": "view",
      "type": "function"
    },
    {
      "inputs": [
        {
          "internalType": "uint256",
          "name": "reward",
          "type": "uint256"
        }
      ],
      "name": "getAccruedValue",
      "outputs": [
        {
          "internalType": "uint256",
          "name": "",
          "type": "uint256"
        }
      ],
      "stateMutability": "view",
      "type": "function"
    },
    {
      "inputs": [
        {
          "internalType": "address",
          "name": "debtToken",
          "type": "address"
        },
        {
          "internalType": "uint256",
          "name": "positionId",
          "type": "uint256"
        }
      ],
      "name": "isKillable",
      "outputs": [
        {
          "internalType": "bool",
          "name": "",
          "type": "bool"
        }
      ],
      "stateMutability": "view",
      "type": "function"
    },
    {
      "inputs": [
        {
          "internalType": "address",
          "name": "debtToken",
          "type": "address"
        },
        {
          "internalType": "uint256",
          "name": "positionId",
          "type": "uint256"
        }
      ],
      "name": "kill",
      "outputs": [],
      "stateMutability": "nonpayable",
      "type": "function"
    },
    {
      "inputs": [],
      "name": "killFactorBps",
      "outputs": [
        {
          "internalType": "uint256",
          "name": "",
          "type": "uint256"
        }
      ],
      "stateMutability": "view",
      "type": "function"
    },
    {
      "inputs": [],
      "name": "liquidateDebtFactorBps",
      "outputs": [
        {
          "internalType": "uint256",
          "name": "",
          "type": "uint256"
        }
      ],
      "stateMutability": "view",
      "type": "function"
    },
    {
      "inputs": [],
      "name": "liquidationFeeBps",
      "outputs": [
        {
          "internalType": "uint256",
          "name": "",
          "type": "uint256"
        }
      ],
      "stateMutability": "view",
      "type": "function"
    },
    {
      "inputs": [],
      "name": "minDebtInBase",
      "outputs": [
        {
          "internalType": "uint256",
          "name": "",
          "type": "uint256"
        }
      ],
      "stateMutability": "view",
      "type": "function"
    },
    {
      "inputs": [],
      "name": "owner",
      "outputs": [
        {
          "internalType": "address",
          "name": "",
          "type": "address"
        }
      ],
      "stateMutability": "view",
      "type": "function"
    },
    {
      "inputs": [
        {
          "internalType": "address",
          "name": "",
          "type": "address"
        },
        {
          "internalType": "address",
          "name": "",
          "type": "address"
        }
      ],
      "name": "positionIdOf",
      "outputs": [
        {
          "internalType": "uint256",
          "name": "",
          "type": "uint256"
        }
      ],
      "stateMutability": "view",
      "type": "function"
    },
    {
      "inputs": [
        {
          "internalType": "address",
          "name": "user",
          "type": "address"
        },
        {
          "internalType": "address",
          "name": "debtToken",
          "type": "address"
        }
      ],
      "name": "positionInfo",
      "outputs": [
        {
          "internalType": "uint256",
          "name": "positionValueInBase",
          "type": "uint256"
        },
        {
          "internalType": "uint256",
          "name": "debtInBase",
          "type": "uint256"
        },
        {
          "internalType": "uint256",
          "name": "debt",
          "type": "uint256"
        },
        {
          "internalType": "uint256",
          "name": "positionId",
          "type": "uint256"
        }
      ],
      "stateMutability": "view",
      "type": "function"
    },
    {
      "inputs": [
        {
          "internalType": "address",
          "name": "",
          "type": "address"
        },
        {
          "internalType": "uint256",
          "name": "",
          "type": "uint256"
        }
      ],
      "name": "positions",
      "outputs": [
        {
          "internalType": "address",
          "name": "user",
          "type": "address"
        },
        {
          "internalType": "uint256",
          "name": "share",
          "type": "uint256"
        }
      ],
      "stateMutability": "view",
      "type": "function"
    },
    {
      "inputs": [
        {
          "internalType": "address",
          "name": "",
          "type": "address"
        }
      ],
      "name": "positionsLengthOf",
      "outputs": [
        {
          "internalType": "uint256",
          "name": "",
          "type": "uint256"
        }
      ],
      "stateMutability": "view",
      "type": "function"
    },
    {
      "inputs": [
        {
          "internalType": "address",
          "name": "debtToken",
          "type": "address"
        }
      ],
      "name": "removePosition",
      "outputs": [],
      "stateMutability": "nonpayable",
      "type": "function"
    },
    {
      "inputs": [],
      "name": "renounceOwnership",
      "outputs": [],
      "stateMutability": "nonpayable",
      "type": "function"
    },
    {
      "inputs": [],
      "name": "reservedBps",
      "outputs": [
        {
          "internalType": "uint256",
          "name": "",
          "type": "uint256"
        }
      ],
      "stateMutability": "view",
      "type": "function"
    },
    {
      "inputs": [],
      "name": "reservedPool",
      "outputs": [
        {
          "internalType": "uint256",
          "name": "",
          "type": "uint256"
        }
      ],
      "stateMutability": "view",
      "type": "function"
    },
    {
      "inputs": [
        {
          "internalType": "uint256",
          "name": "share",
          "type": "uint256"
        }
      ],
      "name": "shareToAmount",
      "outputs": [
        {
          "internalType": "uint256",
          "name": "",
          "type": "uint256"
        }
      ],
      "stateMutability": "view",
      "type": "function"
    },
    {
      "inputs": [
        {
          "internalType": "address",
          "name": "",
          "type": "address"
        }
      ],
      "name": "tokenToVault",
      "outputs": [
        {
          "internalType": "address",
          "name": "",
          "type": "address"
        }
      ],
      "stateMutability": "view",
      "type": "function"
    },
    {
      "inputs": [],
      "name": "totalAmount",
      "outputs": [
        {
          "internalType": "uint256",
          "name": "",
          "type": "uint256"
        }
      ],
      "stateMutability": "view",
      "type": "function"
    },
    {
      "inputs": [
        {
          "internalType": "address",
          "name": "",
          "type": "address"
        }
      ],
      "name": "totalDebtOf",
      "outputs": [
        {
          "internalType": "uint256",
          "name": "",
          "type": "uint256"
        }
      ],
      "stateMutability": "view",
      "type": "function"
    },
    {
      "inputs": [],
      "name": "totalShare",
      "outputs": [
        {
          "internalType": "uint256",
          "name": "",
          "type": "uint256"
        }
      ],
      "stateMutability": "view",
      "type": "function"
    },
    {
      "inputs": [
        {
          "internalType": "address",
          "name": "newOwner",
          "type": "address"
        }
      ],
      "name": "transferOwnership",
      "outputs": [],
      "stateMutability": "nonpayable",
      "type": "function"
    },
    {
      "inputs": [],
      "name": "uEVMOS",
      "outputs": [
        {
          "internalType": "contract IUnbondedEvmos",
          "name": "",
          "type": "address"
        }
      ],
      "stateMutability": "view",
      "type": "function"
    },
    {
      "inputs": [
        {
          "internalType": "uint256",
          "name": "_minDebtInBase",
          "type": "uint256"
        },
        {
          "internalType": "uint256",
          "name": "_reservedBps",
          "type": "uint256"
        },
        {
          "internalType": "uint256",
          "name": "_vaultRewardBps",
          "type": "uint256"
        },
        {
          "internalType": "uint256",
          "name": "_killFactorBps",
          "type": "uint256"
        },
        {
          "internalType": "uint256",
          "name": "_liquidateDebtFactorBps",
          "type": "uint256"
        },
        {
          "internalType": "uint256",
          "name": "_liquidationFeeBps",
          "type": "uint256"
        }
      ],
      "name": "updateConfigs",
      "outputs": [],
      "stateMutability": "nonpayable",
      "type": "function"
    },
    {
      "inputs": [
        {
          "internalType": "address",
          "name": "token",
          "type": "address"
        },
        {
          "internalType": "address",
          "name": "vault",
          "type": "address"
        }
      ],
      "name": "updateVault",
      "outputs": [],
      "stateMutability": "nonpayable",
      "type": "function"
    },
    {
      "inputs": [
        {
          "internalType": "address[]",
          "name": "killers",
          "type": "address[]"
        },
        {
          "internalType": "bool",
          "name": "ok",
          "type": "bool"
        }
      ],
      "name": "updateWhitelistedKillerStatus",
      "outputs": [],
      "stateMutability": "nonpayable",
      "type": "function"
    },
    {
      "inputs": [],
      "name": "vaultRewardBps",
      "outputs": [
        {
          "internalType": "uint256",
          "name": "",
          "type": "uint256"
        }
      ],
      "stateMutability": "view",
      "type": "function"
    },
    {
      "inputs": [
        {
          "internalType": "uint256",
          "name": "",
          "type": "uint256"
        }
      ],
      "name": "vaults",
      "outputs": [
        {
          "internalType": "address",
          "name": "",
          "type": "address"
        }
      ],
      "stateMutability": "view",
      "type": "function"
    },
    {
      "inputs": [
        {
          "internalType": "address",
          "name": "",
          "type": "address"
        }
      ],
      "name": "whitelistedKiller",
      "outputs": [
        {
          "internalType": "bool",
          "name": "",
          "type": "bool"
        }
      ],
      "stateMutability": "view",
      "type": "function"
    },
    {
      "stateMutability": "payable",
      "type": "receive"
    }
  ],
  "transactionHash": "0x532be6990ffcf48133b665889e7d2557c9588c95001e514885f7cc54a7ffa8a4",
  "args": [],
  "numDeployments": 1,
  "solcInputHash": "9917b00fd9f4299e276b4c4ce0240f75",
  "bytecode": "0x608060405234801561001057600080fd5b50613430806100206000396000f3fe6080604052600436106102065760003560e01c80638da5cb5b11610117578063c1be6677116100a5578063e031a8241161006c578063e031a82414610671578063e4175aee14610687578063f0e63edf146106a7578063f2fde38b146106bd578063fc838995146106dd57005b8063c1be6677146105bf578063ce9b7930146105fe578063cff07fd11461061e578063d87cad6714610631578063df5ca1f81461065157005b8063afd06b34116100e9578063afd06b3414610514578063b1ae5ed314610534578063b2a2a96b14610554578063bb94d3db14610574578063bed06b0b146105ac57005b80638da5cb5b1461047957806392707802146104975780639f2b2833146104b7578063a3381d28146104e457005b80634b11181b1161019457806352e83e521161016657806352e83e52146103eb5780635ff0253114610401578063715018a614610431578063744f4cf6146104465780638c64ea4a1461045957005b80634b11181b146103485780635066f3b51461036857806351dabb75146103a857806352728e4b146103d557005b80631b451d28116101d85780631b451d28146102b257806327dfaf92146102d257806328f55a6c146102f25780632d4047e5146103085780632d6f80131461032857005b8063026c42071461020f5780630c7e172514610238578063178483a7146102865780631a39d8ef1461029c57005b3661020d57005b005b34801561021b57600080fd5b50610225609c5481565b6040519081526020015b60405180910390f35b34801561024457600080fd5b5061026e610253366004612ff6565b6099602052600090815260409020546001600160a01b031681565b6040516001600160a01b03909116815260200161022f565b34801561029257600080fd5b50610225609d5481565b3480156102a857600080fd5b50610225609b5481565b3480156102be57600080fd5b5061020d6102cd366004613010565b6106f3565b3480156102de57600080fd5b506102256102ed366004613010565b610a2d565b3480156102fe57600080fd5b5061022560a05481565b34801561031457600080fd5b50610225610323366004613179565b610ab3565b34801561033457600080fd5b50610225610343366004613179565b610ae3565b34801561035457600080fd5b5061020d6103633660046130d5565b610b00565b34801561037457600080fd5b50610388610383366004613010565b610b8d565b60408051948552602085019390935291830152606082015260800161022f565b3480156103b457600080fd5b506102256103c3366004612ff6565b60a76020526000908152604090205481565b3480156103e157600080fd5b5061022560a15481565b3480156103f757600080fd5b50610225609e5481565b34801561040d57600080fd5b5061042161041c36600461307a565b610d34565b604051901515815260200161022f565b34801561043d57600080fd5b5061020d610df2565b61020d610454366004613179565b610e06565b34801561046557600080fd5b5061026e610474366004613179565b6115ab565b34801561048557600080fd5b506033546001600160a01b031661026e565b3480156104a357600080fd5b5061020d6104b236600461307a565b6115d5565b3480156104c357600080fd5b506102256104d2366004612ff6565b60a86020526000908152604090205481565b3480156104f057600080fd5b506104216104ff366004612ff6565b60986020526000908152604090205460ff1681565b34801561052057600080fd5b5060a45461026e906001600160a01b031681565b34801561054057600080fd5b5061020d61054f366004612ff6565b61184b565b34801561056057600080fd5b5061020d61056f366004613010565b6118a7565b34801561058057600080fd5b5061022561058f366004613010565b60a560209081526000928352604080842090915290825290205481565b61020d6105ba366004613042565b611a2c565b3480156105cb57600080fd5b506105df6105da36600461307a565b611f8a565b604080516001600160a01b03909316835260208301919091520161022f565b34801561060a57600080fd5b5060975461026e906001600160a01b031681565b61020d61062c3660046130a3565b611fd0565b34801561063d57600080fd5b5061020d61064c3660046131a9565b61230d565b34801561065d57600080fd5b5061020d61066c366004612ff6565b61238e565b34801561067d57600080fd5b5061022560a25481565b34801561069357600080fd5b506102256106a2366004613179565b6125eb565b3480156106b357600080fd5b5061022560a35481565b3480156106c957600080fd5b5061020d6106d8366004612ff6565b61273a565b3480156106e957600080fd5b50610225609f5481565b6106fb6127b0565b6001600160a01b0380831660009081526099602052604090205416806107ab57609a80546001810182556000919091527f44da158ba27f9252712a74ff6a55c5d531f69609f1f6e7f17c4443a8e2089be40180546001600160a01b0319166001600160a01b0384811691821790925560408051928616835260208301919091527f7f03ac7449144076e2d9d5a237c3ff0d0108e0a2ebdd5213c4b0de6f4d4f6953910160405180910390a16109a9565b806001600160a01b031663c8dffa956040518163ffffffff1660e01b815260040160206040518083038186803b1580156107e457600080fd5b505afa1580156107f8573d6000803e3d6000fd5b505050506040513d601f19601f8201168201806040525081019061081c9190613191565b156108875760405162461bcd60e51b815260206004820152603060248201527f7570646174655661756c743a20446562742072656d61696e73206f6e2074686560448201526f1032bc34b9ba34b733903b30bab63a1760811b60648201526084015b60405180910390fd5b609a546000805b8281101561094757836001600160a01b0316609a82815481106108c157634e487b7160e01b600052603260045260246000fd5b6000918252602090912001546001600160a01b031614156109355784609a82815481106108fe57634e487b7160e01b600052603260045260246000fd5b9060005260206000200160006101000a8154816001600160a01b0302191690836001600160a01b0316021790555060019150610947565b8061093f816133a1565b91505061088e565b508061096357634e487b7160e01b600052600160045260246000fd5b604080516001600160a01b038088168252861660208201527f4cc233b502e1e28f371b28114d4a8be87a93f330c18e3c339079fc498320fb8d910160405180910390a150505b506001600160a01b03918216600090815260996020908152604080832080546001600160a01b031990811695871695861790915584845260a68352818420825180840184528581528085018681528254600181810185559388528688209251600290910290920180549094169190981617825595519086015592825260a790522055565b604051636592183b60e01b81526001600160a01b03838116600483015260009190831690636592183b9060240160206040518083038186803b158015610a7257600080fd5b505afa158015610a86573d6000803e3d6000fd5b505050506040513d601f19601f82011682018060405250810190610aaa9190613191565b90505b92915050565b6000609b54600014610adf57609b5482609c54610ad0919061336b565b610ada91906132c8565b610aad565b5090565b6000609c54600014610adf57609c5482609b54610ad0919061336b565b610b086127b0565b60005b82811015610b87578160986000868685818110610b3857634e487b7160e01b600052603260045260246000fd5b9050602002016020810190610b4d9190612ff6565b6001600160a01b031681526020810191909152604001600020805460ff191691151591909117905580610b7f816133a1565b915050610b0b565b50505050565b6001600160a01b03808216600090815260996020908152604080832054868516845260a5835281842094168084529382528083205460a69092528220805492938493849392849184908110610bf257634e487b7160e01b600052603260045260246000fd5b60009182526020918290206040805180820190915260029092020180546001600160a01b03168252600101549181018290529150610c2f90610ae3565b604051636592183b60e01b81526001600160a01b038a8116600483015291975090831690636592183b9060240160206040518083038186803b158015610c7457600080fd5b505afa158015610c88573d6000803e3d6000fd5b505050506040513d601f19601f82011682018060405250810190610cac9190613191565b6040516312bad57f60e31b8152600481018290529094506001600160a01b038316906395d6abf89060240160206040518083038186803b158015610cef57600080fd5b505afa158015610d03573d6000803e3d6000fd5b505050506040513d601f19601f82011682018060405250810190610d279190613191565b9450505092959194509250565b6001600160a01b0380831660009081526099602090815260408083205490931680835260a6909152918120805491929183919085908110610d8557634e487b7160e01b600052603260045260246000fd5b60009182526020918290206040805180820190915260029092020180546001600160a01b03168252600101549181018290529150610dc857600092505050610aad565b6000610de6838360200151610de1856000015187610a2d565b61280a565b50159695505050505050565b610dfa6127b0565b610e0460006128b6565b565b6097546001600160a01b03163314610e6c5760405162461bcd60e51b8152602060048201526024808201527f537461796b696e673a204e6f742077686974656c69737465642064656c6567616044820152633a37b91760e11b606482015260840161087e565b609b54811015610ecf5760405162461bcd60e51b815260206004820152602860248201527f6163637275653a20746f74616c5374616b6564203c206265666f726520746f74604482015267185b105b5bdd5b9d60c21b606482015260840161087e565b60003411610f2e5760405162461bcd60e51b815260206004820152602660248201527f6163637275653a20596f752073686f756c642073656e6420636c61696d65642060448201526522ab26a7a99760d11b606482015260840161087e565b6000612710609e5434610f41919061336b565b610f4b91906132c8565b90508060a36000828254610f5f91906132b0565b9091555050609a54600090818167ffffffffffffffff811115610f9257634e487b7160e01b600052604160045260246000fd5b604051908082528060200260200182016040528015610fbb578160200160208202803683370190505b50905060005b828110156110de57609a8181548110610fea57634e487b7160e01b600052603260045260246000fd5b6000918252602091829020015460408051630f5f4c7f60e21b815290516001600160a01b0390921692633d7d31fc92600480840193829003018186803b15801561103357600080fd5b505afa158015611047573d6000803e3d6000fd5b505050506040513d601f19601f8201168201806040525081019061106b9190613191565b82828151811061108b57634e487b7160e01b600052603260045260246000fd5b6020026020010181815250508181815181106110b757634e487b7160e01b600052603260045260246000fd5b6020026020010151846110ca91906132b0565b9350806110d6816133a1565b915050610fc1565b5060006110eb853461338a565b9050836111555780609b600082825461110491906132b0565b9091555050609b5460405133917f68f604dad2502091469814ccdd58acac4592d7766a922eee86e6ab9965cfe9499161114591858252602082015260400190565b60405180910390a2505050505050565b8084106113225760005b838110156112d7576000609a828154811061118a57634e487b7160e01b600052603260045260246000fd5b600091825260208220015485516001600160a01b039091169250879085908790869081106111c857634e487b7160e01b600052603260045260246000fd5b60200260200101516111da919061336b565b6111e491906132c8565b6040516315d6dae960e01b8152600481018290529091506000906001600160a01b038416906315d6dae99060240160206040518083038186803b15801561122a57600080fd5b505afa15801561123e573d6000803e3d6000fd5b505050506040513d601f19601f820116820180604052508101906112629190613191565b60405163ad452d7560e01b8152600481018290529091506001600160a01b0384169063ad452d759084906024016000604051808303818588803b1580156112a857600080fd5b505af11580156112bc573d6000803e3d6000fd5b505050505050505080806112cf906133a1565b91505061115f565b50609b5460405133917f68f604dad2502091469814ccdd58acac4592d7766a922eee86e6ab9965cfe949916113159160008252602082015260400190565b60405180910390a26115a2565b609f54859060009061271090611338888661338a565b611342919061336b565b61134c91906132c8565b905060005b858110156115235760008786838151811061137c57634e487b7160e01b600052603260045260246000fd5b60200260200101518461138f919061336b565b61139991906132c8565b8683815181106113b957634e487b7160e01b600052603260045260246000fd5b60200260200101516113cb91906132b0565b9050609a82815481106113ee57634e487b7160e01b600052603260045260246000fd5b600091825260209091200154609a80546001600160a01b039092169163ad452d759184918690811061143057634e487b7160e01b600052603260045260246000fd5b6000918252602091829020015460408051636d22f63f60e11b815290516001600160a01b039092169263da45ec7e92600480840193829003018186803b15801561147957600080fd5b505afa15801561148d573d6000803e3d6000fd5b505050506040513d601f19601f820116820180604052508101906114b19190613191565b6040518363ffffffff1660e01b81526004016114cf91815260200190565b6000604051808303818588803b1580156114e857600080fd5b505af11580156114fc573d6000803e3d6000fd5b5050505050808461150d91906132b0565b935050808061151b906133a1565b915050611351565b506000611530833461338a565b9050801561155a5780609b600082825461154a91906132b0565b9091555061155a90503382612908565b609b5460405133917f68f604dad2502091469814ccdd58acac4592d7766a922eee86e6ab9965cfe9499161159691858252602082015260400190565b60405180910390a25050505b50505050505b50565b609a81815481106115bb57600080fd5b6000918252602090912001546001600160a01b0316905081565b3360009081526098602052604090205460ff1661163e5760405162461bcd60e51b815260206004820152602160248201527f537461796b696e673a204e6f742077686974656c6973746564204b696c6c65726044820152601760f91b606482015260840161087e565b6001600160a01b0380831660009081526099602090815260408083205490931680835260a690915291812080548490811061168957634e487b7160e01b600052603260045260246000fd5b9060005260206000209060020201905060008160010154116116e65760405162461bcd60e51b815260206004820152601660248201527535b4b6361d103932b6b7bb32b2103837b9b4ba34b7b760511b604482015260640161087e565b80546000906116fe906001600160a01b031684610a2d565b90506000806117128585600101548561280a565b9150915081156117645760405162461bcd60e51b815260206004820152601a60248201527f6b696c6c3a207374696c6c207361666520706f736974696f6e2e000000000000604482015260640161087e565b60006117738560010154610ae3565b9050600061271060a25483611788919061336b565b61179291906132c8565b90506117a186888488856129ba565b85546001600160a01b0316337f62b067e31c5a2d2734bc19924c46c930e1b7063b5b473238f2f8bb7ab88a15b6896117d9878761338a565b60018b0154604080516001600160a01b0390941684526020840192909252908201889052606082018a9052608082015260a00160405180910390a3505092546001600160a01b03908116600090815260a560209081526040808320979093168252959095528420939093555050505050565b6118536127b0565b609780546001600160a01b0319166001600160a01b0383169081179091556040519081527fc46722a14b09e7b7e59991ec89fb4bb88ffed57f1b2187a65e959f5c0053716d9060200160405180910390a150565b600054610100900460ff16158080156118c75750600054600160ff909116105b806118e15750303b1580156118e1575060005460ff166001145b6119445760405162461bcd60e51b815260206004820152602e60248201527f496e697469616c697a61626c653a20636f6e747261637420697320616c72656160448201526d191e481a5b9a5d1a585b1a5e995960921b606482015260840161087e565b6000805460ff191660011790558015611967576000805461ff0019166101001790555b61271060a155611975612c0e565b61197d612c3d565b61199a662386f26fc10000610bb86103e8611d4c806101f461230d565b60a480546001600160a01b0319166001600160a01b0384161790556119be8361184b565b6001600160a01b0383166000908152609860205260409020805460ff191660011790558015611a27576000805461ff0019169055604051600181527f7f26b83ff96e1f2b6a682f133852f6798a09c465da95921460cefb38474024989060200160405180910390a15b505050565b6001600160a01b0380851660009081526099602090815260408083205433845260a5835281842094168084529390915290205480611aac5760405162461bcd60e51b815260206004820152601b60248201527f6368616e6765506f736974696f6e3a206e6f20706f736974696f6e0000000000604482015260640161087e565b6001600160a01b038216600090815260a660205260408120805483908110611ae457634e487b7160e01b600052603260045260246000fd5b906000526020600020906002020190506000808712611b5f5786341015611b595760405162461bcd60e51b8152602060048201526024808201527f6368616e6765506f736974696f6e3a204e6f7420656e6f756768206d73672e76604482015263616c756560e01b606482015260840161087e565b86340390505b600080600080611b6f8b8b612c6c565b935093509350935060008112611b9057611b8981866132b0565b9450611bc3565b611b99816133bc565b8510611bb257611ba8816133bc565b611b89908661338a565b60009450611bc0858261326f565b90505b8315611c6a578115611c515760405163185cc75160e01b8152336004820152602481018390526001600160a01b0389169063185cc75190604401602060405180830381600087803b158015611c1757600080fd5b505af1158015611c2b573d6000803e3d6000fd5b505050506040513d601f19601f82011682018060405250810190611c4f9190613191565b505b611c6486611c5f84866132b0565b612d97565b50611d9f565b6000808212611c7a576000611c83565b611c83826133bc565b611c8d84866132b0565b611c9791906132b0565b905060a15481611ca7919061336b565b611cb38461271061336b565b1115611d125760405162461bcd60e51b815260206004820152602860248201527f756e7374616b653a20746f6f206d756368206465627420696e20756e7374616b60448201526765642045564d4f5360c01b606482015260840161087e565b611d9d878a838c6001600160a01b03166315d6dae9886040518263ffffffff1660e01b8152600401611d4691815260200190565b60206040518083038186803b158015611d5e57600080fd5b505afa158015611d72573d6000803e3d6000fd5b505050506040513d601f19601f82011682018060405250810190611d969190613191565b60006129ba565b505b8815611e1257611db18c33308c612e59565b604051630724e59160e41b8152336004820152602481018a90526001600160a01b0389169063724e591090604401600060405180830381600087803b158015611df957600080fd5b505af1158015611e0d573d6000803e3d6000fd5b505050505b8415611e9c57604051639d2e6fcb60e01b8152336004820152600160248201526001600160a01b03891690639d2e6fcb9087906044016020604051808303818588803b158015611e6157600080fd5b505af1158015611e75573d6000803e3d6000fd5b50505050506040513d601f19601f82011682018060405250810190611e9a9190613191565b505b6000611ea8338a610a2d565b90506000611ebb8a89600101548461280a565b50905080611f0b5760405162461bcd60e51b815260206004820152601860248201527f6368616e6765506f736974696f6e3a2062616420646562740000000000000000604482015260640161087e565b5050876001600160a01b0316336001600160a01b03167ff35a14688e4794e8022cd9e5c7ec6475a6095ef189dea9647fad0de771465b8a611f4f8960010154610ae3565b8960010154611f5e338e610a2d565b6040805193845260208401929092529082015260600160405180910390a3505050505050505050505050565b60a66020528160005260406000208181548110611fa657600080fd5b6000918252602090912060029091020180546001909101546001600160a01b039091169250905082565b6001600160a01b0380841660009081526099602090815260408083205433845260a583528184209416808452939091529020541561205b5760405162461bcd60e51b815260206004820152602260248201527f616464506f736974696f6e3a20616c7265616479206861766520706f7369746960448201526137b760f11b606482015260840161087e565b3483146120aa5760405162461bcd60e51b815260206004820181905260248201527f616464506f736974696f6e3a206d73672e76616c756520213d20657175697479604482015260640161087e565b60006120b683856132b0565b905060a054816120c6919061336b565b6120d28461271061336b565b106121335760405162461bcd60e51b815260206004820152602b60248201527f616464506f736974696f6e3a2062616420646562742c2063616e6e6f74206f7060448201526a32b7103837b9b4ba34b7b760a91b606482015260840161087e565b60008084116121435760006121c3565b60405163185cc75160e01b8152336004820152602481018590526001600160a01b0384169063185cc75190604401602060405180830381600087803b15801561218b57600080fd5b505af115801561219f573d6000803e3d6000fd5b505050506040513d601f19601f820116820180604052508101906121c39190613191565b6001600160a01b03848116600081815260a660209081526040808320815180830183523381528084018581528254600180820185559387528587209251600290910290920180546001600160a01b03191692909816919091178755519581019590955592825260a7905290812080549394509061224083856132b0565b909155505033600090815260a5602090815260408083206001600160a01b0388168452825280832084905560a6909152812080546122ab91908490811061229757634e487b7160e01b600052603260045260246000fd5b906000526020600020906002020185612d97565b6040805189815260208101899052908101859052606081018290529091506001600160a01b0386169033907f92b0fd5c6dbe6ec5b43a8afae4c587c1db47afcca43a21b7800bd848fcf8e4969060800160405180910390a35050505050505050565b6123156127b0565b609d869055609e859055609f84905560a083815560a183905560a282905560408051888152602081018890528082018790526060810186905260808101859052918201839052517ff158be3136d3d369b2d9c9c22945209d8f58efdcf51cf332b7c88f78bd1f171c9181900360c00190a1505050505050565b6001600160a01b0380821660009081526099602090815260408083205490931680835260a6825283832033845260a5835284842082855290925292822054815481106123ea57634e487b7160e01b600052603260045260246000fd5b9060005260206000209060020201905060008160010154116124615760405162461bcd60e51b815260206004820152602a60248201527f72656d6f7665506f736974696f6e3a204e6f20706f736974696f6e20666f72206044820152693a3434b9903a37b5b2b760b11b606482015260840161087e565b600061246d3384610a2d565b6040516312bad57f60e31b8152600481018290529091506000906001600160a01b038516906395d6abf89060240160206040518083038186803b1580156124b357600080fd5b505afa1580156124c7573d6000803e3d6000fd5b505050506040513d601f19601f820116820180604052508101906124eb9190613191565b905060006124fc8460010154610ae3565b905061250c8486838660006129ba565b8181101561255c5760405162461bcd60e51b815260206004820152601860248201527f72656d6f7665506f736974696f6e3a2042616420646562740000000000000000604482015260640161087e565b6001600160a01b038516337f3cb91b4d61d4fefa96da17651a09b54f7b6751cb68d11134cf0efe0a49657968612592858561338a565b600188015460408051928352602083018890528201889052606082015260800160405180910390a3505033600090815260a5602090815260408083206001600160a01b0396909616835294905292832092909255505050565b600080612710609e54846125ff919061336b565b61260991906132c8565b609a549091506000805b828110156126db57609a818154811061263c57634e487b7160e01b600052603260045260246000fd5b6000918252602091829020015460408051630f5f4c7f60e21b815290516001600160a01b0390921692633d7d31fc92600480840193829003018186803b15801561268557600080fd5b505afa158015612699573d6000803e3d6000fd5b505050506040513d601f19601f820116820180604052508101906126bd9190613191565b6126c790836132b0565b9150806126d3816133a1565b915050612613565b50846126e782856132b0565b106126f55750929392505050565b612710609f54612710612708919061338a565b82612713868961338a565b61271d919061338a565b612727919061336b565b61273191906132c8565b95945050505050565b6127426127b0565b6001600160a01b0381166127a75760405162461bcd60e51b815260206004820152602660248201527f4f776e61626c653a206e6577206f776e657220697320746865207a65726f206160448201526564647265737360d01b606482015260840161087e565b6115a8816128b6565b6033546001600160a01b03163314610e045760405162461bcd60e51b815260206004820181905260248201527f4f776e61626c653a2063616c6c6572206973206e6f7420746865206f776e6572604482015260640161087e565b6040516312bad57f60e31b81526004810182905260009081906001600160a01b038616906395d6abf89060240160206040518083038186803b15801561284f57600080fd5b505afa158015612863573d6000803e3d6000fd5b505050506040513d601f19601f820116820180604052508101906128879190613191565b905060a05461289585610ae3565b61289f919061336b565b6128ab8261271061336b565b109150935093915050565b603380546001600160a01b038381166001600160a01b0319831681179093556040519116919082907f8be0079c531659141344cd1fd0a4f28419497f9722a3daafe3b4186f6b6457e090600090a35050565b604080516000808252602082019092526001600160a01b03841690839060405161293291906131eb565b60006040518083038185875af1925050503d806000811461296f576040519150601f19603f3d011682016040523d82523d6000602084013e612974565b606091505b5050905080611a275760405162461bcd60e51b815260206004820152601260248201527121736166655472616e7366657245564d4f5360701b604482015260640161087e565b60006129c584610ab3565b9050808660010160008282546129db919061338a565b9250508190555083609b60008282546129f4919061338a565b9250508190555080609c6000828254612a0d919061338a565b909155506000905083612a21576000612aa6565b8654604051631a4e1aef60e01b81526001600160a01b0391821660048201526024810186905290871690631a4e1aef90604401602060405180830381600087803b158015612a6e57600080fd5b505af1158015612a82573d6000803e3d6000fd5b505050506040513d601f19601f82011682018060405250810190612aa69190613191565b60a45488549192506001600160a01b039081169163633235d0911688612acc878a61338a565b6040516001600160e01b031960e086901b1681526001600160a01b039384166004820152929091166024830152604482015260648101849052608401600060405180830381600087803b158015612b2257600080fd5b505af1158015612b36573d6000803e3d6000fd5b505050506000831115612bb75760a454604051630633235d60e41b81523060048201526001600160a01b03888116602483015260448201869052600060648301529091169063633235d090608401600060405180830381600087803b158015612b9e57600080fd5b505af1158015612bb2573d6000803e3d6000fd5b505050505b865460975460408051888152602081018690526001600160a01b0393841693909216917f18edd09e80386cd99df397e2e0d87d2bb259423eae08645e776321a36fe680ef910160405180910390a350505050505050565b600054610100900460ff16612c355760405162461bcd60e51b815260040161087e90613224565b610e04612f69565b600054610100900460ff16612c645760405162461bcd60e51b815260040161087e90613224565b610e04612f99565b600080808080612c7c86886132e8565b1215612cde5760405162461bcd60e51b815260206004820152602b60248201527f657175697479496e426173654368616e676564202a2064656274496e4261736560448201526a04368616e676564203c20360ac1b606482015260840161087e565b6000612cea86886132e8565b1215612d665760008613612cfd87612fc7565b9350612d0886612fc7565b9250828411612d385780156000612d1f868661338a565b83612d3257612d2d876133bc565b612d55565b86612d55565b80612d43848661338a565b600083612d5357612d2d866133bc565b855b92975090955093509150612d8e9050565b612d6f86612fc7565b9250612d7a85612fc7565b91506000861380612d8b5750600085135b93505b92959194509250565b6000612da282610ab3565b905080836001016000828254612db891906132b0565b9250508190555081609b6000828254612dd191906132b0565b9250508190555080609c6000828254612dea91906132b0565b9091555050609754612e05906001600160a01b031683612908565b825460975460408051858152602081018590526001600160a01b0393841693909216917f63602d0ecc7b3a0ef7ff1a116e23056662d64280355ba8031b6d0d767c4b4458910160405180910390a392915050565b604080516001600160a01b0385811660248301528481166044830152606480830185905283518084039091018152608490920183526020820180516001600160e01b03166323b872dd60e01b1790529151600092839290881691612ebd91906131eb565b6000604051808303816000865af19150503d8060008114612efa576040519150601f19603f3d011682016040523d82523d6000602084013e612eff565b606091505b5091509150818015612f29575080511580612f29575080806020019051810190612f299190613156565b6115a25760405162461bcd60e51b815260206004820152601160248201527021736166655472616e7366657246726f6d60781b604482015260640161087e565b600054610100900460ff16612f905760405162461bcd60e51b815260040161087e90613224565b610e04336128b6565b600054610100900460ff16612fc05760405162461bcd60e51b815260040161087e90613224565b6001606555565b600080821215610adf57610ada826133bc565b80356001600160a01b0381168114612ff157600080fd5b919050565b600060208284031215613007578081fd5b610aaa82612fda565b60008060408385031215613022578081fd5b61302b83612fda565b915061303960208401612fda565b90509250929050565b60008060008060808587031215613057578182fd5b61306085612fda565b966020860135965060408601359560600135945092505050565b6000806040838503121561308c578182fd5b61309583612fda565b946020939093013593505050565b6000806000606084860312156130b7578283fd5b6130c084612fda565b95602085013595506040909401359392505050565b6000806000604084860312156130e9578283fd5b833567ffffffffffffffff80821115613100578485fd5b818601915086601f830112613113578485fd5b813581811115613121578586fd5b8760208260051b8501011115613135578586fd5b6020928301955093505084013561314b816133ec565b809150509250925092565b600060208284031215613167578081fd5b8151613172816133ec565b9392505050565b60006020828403121561318a578081fd5b5035919050565b6000602082840312156131a2578081fd5b5051919050565b60008060008060008060c087890312156131c1578182fd5b505084359660208601359650604086013595606081013595506080810135945060a0013592509050565b60008251815b8181101561320b57602081860181015185830152016131f1565b818111156132195782828501525b509190910192915050565b6020808252602b908201527f496e697469616c697a61626c653a20636f6e7472616374206973206e6f74206960408201526a6e697469616c697a696e6760a81b606082015260800190565b600080821280156001600160ff1b0384900385131615613291576132916133d6565b600160ff1b83900384128116156132aa576132aa6133d6565b50500190565b600082198211156132c3576132c36133d6565b500190565b6000826132e357634e487b7160e01b81526012600452602481fd5b500490565b60006001600160ff1b038184138284138082168684048611161561330e5761330e6133d6565b600160ff1b8487128281168783058912161561332c5761332c6133d6565b858712925087820587128484161615613347576133476133d6565b8785058712818416161561335d5761335d6133d6565b505050929093029392505050565b6000816000190483118215151615613385576133856133d6565b500290565b60008282101561339c5761339c6133d6565b500390565b60006000198214156133b5576133b56133d6565b5060010190565b6000600160ff1b8214156133d2576133d26133d6565b0390565b634e487b7160e01b600052601160045260246000fd5b80151581146115a857600080fdfea2646970667358221220417aab6089458f21defd14d8986550c128b912d85010c35e6ff73b14228f8f3c64736f6c63430008040033",
  "devdoc": {
    "kind": "dev",
    "methods": {
      "accrue(uint256)": {
        "details": "msg.value = all of staking reward",
        "params": {
          "totalStaked": "current total staked EVMOS (except staking reward)"
        }
      },
      "addPosition(address,uint256,uint256)": {
        "params": {
          "debtInBase": "debtAmount in EVMOS",
          "debtToken": "debtToken Address (not vault address)",
          "equity": "equityAmount in EVMOS"
        }
      },
      "changePosition(address,int256,int256,uint256)": {
        "details": "repayDebtInBase = msg.value - changeEquityInBaseUser should approve this firstif msg.value > 0, changeEquityInBase >= 0 since msg.value = changeEquityInBase + repayDebtInBase"
      },
      "getAccruedValue(uint256)": {
        "params": {
          "reward": "claimed staking reward"
        }
      },
      "owner()": {
        "details": "Returns the address of the current owner."
      },
      "positionInfo(address,address)": {
        "details": "returns position's value & debt value position value: positionValueInBase equity value: positionValueInBase - debtInBase debt value: debtInBase debt ratio: debtInBase / positionValueInBase * 100(%) kill factor: killFactorBps / 100 safety buffer: (kill factor) - (debt ratio)"
      },
      "removePosition(address)": {
        "details": "remove all position of debtToken vault.",
        "params": {
          "debtToken": "debtToken Address (not vault address)"
        }
      },
      "renounceOwnership()": {
        "details": "Leaves the contract without owner. It will not be possible to call `onlyOwner` functions anymore. Can only be called by the current owner. NOTE: Renouncing ownership will leave the contract without an owner, thereby removing any functionality that is only available to the owner."
      },
      "transferOwnership(address)": {
        "details": "Transfers ownership of the contract to a new account (`newOwner`). Can only be called by the current owner."
      }
    },
    "stateVariables": {
      "minDebtInBase": {
        "details": "min debtAmount in EVMOS (base token)"
      },
      "positionIdOf": {
        "details": "userAddress => vaultAddress => positionId (array Index of position)"
      },
      "positions": {
        "details": "vaultAddress => Position[]"
      },
      "reservedPool": {
        "details": "EVMOS amount reserved by Protocol"
      },
      "totalAmount": {
        "details": "kor)    + auto-compound "
      },
      "totalShare": {
        "details": "kor) auto-compound totalShare  .     ( /totalAmount) * totalShare  share ."
      }
    },
    "version": 1
  },
  "userdoc": {
    "kind": "user",
    "methods": {
      "accrue(uint256)": {
        "notice": "kor)    1. (Stayking)  ->  reward  (reservedBps / 100)%  2. Vault Interest(  calc by interestModel) (1) \" reward  N%\"   ,  reward interest    .  , ( reward - )  Vault Interest . (2)   ( ) reward Vault Interest . 3. Vault reward / Reinvested Amount 2-(2)  reward /     (vaultRewardBps / 100)% Vault  reward ,  Reinvest."
      },
      "amountToShare(uint256)": {
        "notice": "   (  / totalAmount) * totalShare  share ."
      },
      "changePosition(address,int256,int256,uint256)": {
        "notice": "change position value case 1. equityInBaseChanged > 0 - increase position value (stake more) - decrease debt ratio case 2. equityInBaseChanged < 0 - decrease position value (partial close) - increase debt ratio case 3. debtInBaseChanged > 0 (borrow more debt) - increase position value (stake more) - increase debt ratio case 4. debtInBaseChanged < 0 (repay debt by unstaking) - decrease position value (partial) - decrease debt ratio case 5. repaidDebt > 0 or repaidDebtInBase > 0 (repay debt with user's own token/EVMOS) - position value not changes (not call stake/unstake function) - decrease debt ratioIf equityInBaseChanged(=A) > 0 and debtInBaseChanged(=B) < 0, it is inefficient. e.g. A = 100 and B = -50, 50 EVMOS is Locked at uEVMOS. it produces the same result as if A = 50 and C = 50. (both increases equity by 50 EVMOS and repay debt by 50 EVMOS) Similarly, the case where equityInBaseChanged < 0 and debtInBaseChanged > 0 are also inefficient. So, we revert all cases where equityInBaseChanged * debtInBaseChanged < 0."
      },
      "removePosition(address)": {
        "notice": "kor)  100%      . ->   ."
      }
    },
    "version": 1
  },
  "storageLayout": {
    "storage": [
      {
        "astId": 2400,
        "contract": "contracts/token/Stayking.sol:Stayking",
        "label": "_initialized",
        "offset": 0,
        "slot": "0",
        "type": "t_uint8"
      },
      {
        "astId": 2403,
        "contract": "contracts/token/Stayking.sol:Stayking",
        "label": "_initializing",
        "offset": 1,
        "slot": "0",
        "type": "t_bool"
      },
      {
        "astId": 1165,
        "contract": "contracts/token/Stayking.sol:Stayking",
        "label": "__gap",
        "offset": 0,
        "slot": "1",
        "type": "t_array(t_uint256)50_storage"
      },
      {
        "astId": 2668,
        "contract": "contracts/token/Stayking.sol:Stayking",
        "label": "_owner",
        "offset": 0,
        "slot": "51",
        "type": "t_address"
      },
      {
        "astId": 2788,
        "contract": "contracts/token/Stayking.sol:Stayking",
        "label": "__gap",
        "offset": 0,
        "slot": "52",
        "type": "t_array(t_uint256)49_storage"
      },
      {
        "astId": 2803,
        "contract": "contracts/token/Stayking.sol:Stayking",
        "label": "_status",
        "offset": 0,
        "slot": "101",
        "type": "t_uint256"
      },
      {
        "astId": 2847,
        "contract": "contracts/token/Stayking.sol:Stayking",
        "label": "__gap",
        "offset": 0,
        "slot": "102",
        "type": "t_array(t_uint256)49_storage"
      },
      {
        "astId": 4006,
        "contract": "contracts/token/Stayking.sol:Stayking",
        "label": "delegator",
        "offset": 0,
        "slot": "151",
        "type": "t_address"
      },
      {
        "astId": 4010,
        "contract": "contracts/token/Stayking.sol:Stayking",
        "label": "whitelistedKiller",
        "offset": 0,
        "slot": "152",
        "type": "t_mapping(t_address,t_bool)"
      },
      {
        "astId": 4015,
        "contract": "contracts/token/Stayking.sol:Stayking",
        "label": "tokenToVault",
        "offset": 0,
        "slot": "153",
        "type": "t_mapping(t_address,t_address)"
      },
      {
        "astId": 4018,
        "contract": "contracts/token/Stayking.sol:Stayking",
        "label": "vaults",
        "offset": 0,
        "slot": "154",
        "type": "t_array(t_address)dyn_storage"
      },
      {
        "astId": 4021,
        "contract": "contracts/token/Stayking.sol:Stayking",
        "label": "totalAmount",
        "offset": 0,
        "slot": "155",
        "type": "t_uint256"
      },
      {
        "astId": 4024,
        "contract": "contracts/token/Stayking.sol:Stayking",
        "label": "totalShare",
        "offset": 0,
        "slot": "156",
        "type": "t_uint256"
      },
      {
        "astId": 4028,
        "contract": "contracts/token/Stayking.sol:Stayking",
        "label": "minDebtInBase",
        "offset": 0,
        "slot": "157",
        "type": "t_uint256"
      },
      {
        "astId": 4031,
        "contract": "contracts/token/Stayking.sol:Stayking",
        "label": "reservedBps",
        "offset": 0,
        "slot": "158",
        "type": "t_uint256"
      },
      {
        "astId": 4034,
        "contract": "contracts/token/Stayking.sol:Stayking",
        "label": "vaultRewardBps",
        "offset": 0,
        "slot": "159",
        "type": "t_uint256"
      },
      {
        "astId": 4037,
        "contract": "contracts/token/Stayking.sol:Stayking",
        "label": "killFactorBps",
        "offset": 0,
        "slot": "160",
        "type": "t_uint256"
      },
      {
        "astId": 4040,
        "contract": "contracts/token/Stayking.sol:Stayking",
        "label": "liquidateDebtFactorBps",
        "offset": 0,
        "slot": "161",
        "type": "t_uint256"
      },
      {
        "astId": 4043,
        "contract": "contracts/token/Stayking.sol:Stayking",
        "label": "liquidationFeeBps",
        "offset": 0,
        "slot": "162",
        "type": "t_uint256"
      },
      {
        "astId": 4046,
        "contract": "contracts/token/Stayking.sol:Stayking",
        "label": "reservedPool",
        "offset": 0,
        "slot": "163",
        "type": "t_uint256"
      },
      {
        "astId": 4049,
        "contract": "contracts/token/Stayking.sol:Stayking",
        "label": "uEVMOS",
        "offset": 0,
        "slot": "164",
        "type": "t_contract(IUnbondedEvmos)632"
      },
      {
        "astId": 4062,
        "contract": "contracts/token/Stayking.sol:Stayking",
        "label": "positionIdOf",
        "offset": 0,
        "slot": "165",
        "type": "t_mapping(t_address,t_mapping(t_address,t_uint256))"
      },
      {
        "astId": 4069,
        "contract": "contracts/token/Stayking.sol:Stayking",
        "label": "positions",
        "offset": 0,
        "slot": "166",
        "type": "t_mapping(t_address,t_array(t_struct(Position)4055_storage)dyn_storage)"
      },
      {
        "astId": 4073,
        "contract": "contracts/token/Stayking.sol:Stayking",
        "label": "positionsLengthOf",
        "offset": 0,
        "slot": "167",
        "type": "t_mapping(t_address,t_uint256)"
      },
      {
        "astId": 4077,
        "contract": "contracts/token/Stayking.sol:Stayking",
        "label": "totalDebtOf",
        "offset": 0,
        "slot": "168",
        "type": "t_mapping(t_address,t_uint256)"
      }
    ],
    "types": {
      "t_address": {
        "encoding": "inplace",
        "label": "address",
        "numberOfBytes": "20"
      },
      "t_array(t_address)dyn_storage": {
        "base": "t_address",
        "encoding": "dynamic_array",
        "label": "address[]",
        "numberOfBytes": "32"
      },
      "t_array(t_struct(Position)4055_storage)dyn_storage": {
        "base": "t_struct(Position)4055_storage",
        "encoding": "dynamic_array",
        "label": "struct Stayking.Position[]",
        "numberOfBytes": "32"
      },
      "t_array(t_uint256)49_storage": {
        "base": "t_uint256",
        "encoding": "inplace",
        "label": "uint256[49]",
        "numberOfBytes": "1568"
      },
      "t_array(t_uint256)50_storage": {
        "base": "t_uint256",
        "encoding": "inplace",
        "label": "uint256[50]",
        "numberOfBytes": "1600"
      },
      "t_bool": {
        "encoding": "inplace",
        "label": "bool",
        "numberOfBytes": "1"
      },
      "t_contract(IUnbondedEvmos)632": {
        "encoding": "inplace",
        "label": "contract IUnbondedEvmos",
        "numberOfBytes": "20"
      },
      "t_mapping(t_address,t_address)": {
        "encoding": "mapping",
        "key": "t_address",
        "label": "mapping(address => address)",
        "numberOfBytes": "32",
        "value": "t_address"
      },
      "t_mapping(t_address,t_array(t_struct(Position)4055_storage)dyn_storage)": {
        "encoding": "mapping",
        "key": "t_address",
        "label": "mapping(address => struct Stayking.Position[])",
        "numberOfBytes": "32",
        "value": "t_array(t_struct(Position)4055_storage)dyn_storage"
      },
      "t_mapping(t_address,t_bool)": {
        "encoding": "mapping",
        "key": "t_address",
        "label": "mapping(address => bool)",
        "numberOfBytes": "32",
        "value": "t_bool"
      },
      "t_mapping(t_address,t_mapping(t_address,t_uint256))": {
        "encoding": "mapping",
        "key": "t_address",
        "label": "mapping(address => mapping(address => uint256))",
        "numberOfBytes": "32",
        "value": "t_mapping(t_address,t_uint256)"
      },
      "t_mapping(t_address,t_uint256)": {
        "encoding": "mapping",
        "key": "t_address",
        "label": "mapping(address => uint256)",
        "numberOfBytes": "32",
        "value": "t_uint256"
      },
      "t_struct(Position)4055_storage": {
        "encoding": "inplace",
        "label": "struct Stayking.Position",
        "members": [
          {
            "astId": 4051,
            "contract": "contracts/token/Stayking.sol:Stayking",
            "label": "user",
            "offset": 0,
            "slot": "0",
            "type": "t_address"
          },
          {
            "astId": 4054,
            "contract": "contracts/token/Stayking.sol:Stayking",
            "label": "share",
            "offset": 0,
            "slot": "1",
            "type": "t_uint256"
          }
        ],
        "numberOfBytes": "64"
      },
      "t_uint256": {
        "encoding": "inplace",
        "label": "uint256",
        "numberOfBytes": "32"
      },
      "t_uint8": {
        "encoding": "inplace",
        "label": "uint8",
        "numberOfBytes": "1"
      }
    }
  }
}