{
  "address": "0x3a7f2a0e55DA8874351693FEC66E249ac8744622",
  "abi": [
    {
      "inputs": [
        {
          "internalType": "address",
          "name": "_router",
          "type": "address"
        }
      ],
      "stateMutability": "nonpayable",
      "type": "constructor"
    },
    {
      "inputs": [
        {
          "internalType": "address",
          "name": "tokenX",
          "type": "address"
        },
        {
          "internalType": "address",
          "name": "tokenY",
          "type": "address"
        },
        {
          "internalType": "uint256",
          "name": "dx",
          "type": "uint256"
        },
        {
          "internalType": "uint256",
          "name": "minDy",
          "type": "uint256"
        }
      ],
      "name": "exchange",
      "outputs": [
        {
          "internalType": "uint256",
          "name": "",
          "type": "uint256"
        }
      ],
      "stateMutability": "payable",
      "type": "function"
    },
    {
      "inputs": [
        {
          "internalType": "address",
          "name": "tokenX",
          "type": "address"
        },
        {
          "internalType": "address",
          "name": "tokenY",
          "type": "address"
        },
        {
          "internalType": "uint256",
          "name": "dy",
          "type": "uint256"
        }
      ],
      "name": "getDx",
      "outputs": [
        {
          "internalType": "uint256",
          "name": "dx",
          "type": "uint256"
        }
      ],
      "stateMutability": "view",
      "type": "function"
    },
    {
      "inputs": [
        {
          "internalType": "address",
          "name": "tokenX",
          "type": "address"
        },
        {
          "internalType": "address",
          "name": "tokenY",
          "type": "address"
        },
        {
          "internalType": "uint256",
          "name": "dx",
          "type": "uint256"
        }
      ],
      "name": "getDy",
      "outputs": [
        {
          "internalType": "uint256",
          "name": "dy",
          "type": "uint256"
        }
      ],
      "stateMutability": "view",
      "type": "function"
    },
    {
      "inputs": [
        {
          "internalType": "address",
          "name": "_pair",
          "type": "address"
        },
        {
          "internalType": "uint256",
          "name": "_token0Amount",
          "type": "uint256"
        },
        {
          "internalType": "uint256",
          "name": "_token1Amount",
          "type": "uint256"
        }
      ],
      "name": "getPriceImpactFactorsFrom",
      "outputs": [
        {
          "internalType": "uint256",
          "name": "token0Amount",
          "type": "uint256"
        },
        {
          "internalType": "uint256",
          "name": "token1Amount",
          "type": "uint256"
        },
        {
          "internalType": "uint256",
          "name": "reserve0",
          "type": "uint256"
        },
        {
          "internalType": "uint256",
          "name": "reserve1",
          "type": "uint256"
        },
        {
          "internalType": "uint32",
          "name": "blockTimestampLast",
          "type": "uint32"
        }
      ],
      "stateMutability": "view",
      "type": "function"
    },
    {
      "inputs": [],
      "name": "router",
      "outputs": [
        {
          "internalType": "contract IUniswapV2Router",
          "name": "",
          "type": "address"
        }
      ],
      "stateMutability": "view",
      "type": "function"
    }
  ],
  "transactionHash": "0x96ad271dc4979048c86e6354967e33e2f1b2fa28e2e2d4e03ab618e19eb000f4",
  "args": [
    "0x72bd489d3cF0e9cC36af6e306Ff53E56d0f9EFb4"
  ],
  "numDeployments": 8,
  "solcInputHash": "b024849cd9cfa669b6379cdc16341d46",
  "bytecode": "0x608060405234801561001057600080fd5b506040516111c23803806111c283398101604081905261002f91610054565b600080546001600160a01b0319166001600160a01b0392909216919091179055610084565b60006020828403121561006657600080fd5b81516001600160a01b038116811461007d57600080fd5b9392505050565b61112f806100936000396000f3fe60806040526004361061004a5760003560e01c80630ed2fc951461004f5780634f119bbd146100755780637dceefee14610095578063dec503cf146100b5578063f887ea4014610103575b600080fd5b61006261005d366004610d64565b61013b565b6040519081526020015b60405180910390f35b34801561008157600080fd5b50610062610090366004610daa565b6104b9565b3480156100a157600080fd5b506100626100b0366004610daa565b6106d4565b3480156100c157600080fd5b506100d56100d0366004610deb565b6108dc565b60408051958652602086019490945292840191909152606083015263ffffffff16608082015260a00161006c565b34801561010f57600080fd5b50600054610123906001600160a01b031681565b6040516001600160a01b03909116815260200161006c565b6040805160028082526060820183526000928392919060208301908036833701905050905060606001600160a01b03871661033b573485146101c45760405162461bcd60e51b815260206004820152601b60248201527f65786368616e67653a20696e76616c6964206d73672e76616c7565000000000060448201526064015b60405180910390fd5b60008054906101000a90046001600160a01b03166001600160a01b031663ad5c46486040518163ffffffff1660e01b8152600401602060405180830381865afa158015610215573d6000803e3d6000fd5b505050506040513d601f19601f820116820180604052508101906102399190610e36565b8260008151811061024c5761024c610e5a565b60200260200101906001600160a01b031690816001600160a01b031681525050858260018151811061028057610280610e5a565b6001600160a01b03928316602091820292909201015260005416637ff36ab5868685336102af42610258610e70565b6040518663ffffffff1660e01b81526004016102ce9493929190610edb565b60006040518083038185885af11580156102ec573d6000803e3d6000fd5b50505050506040513d6000823e601f3d908101601f191682016040526103159190810190610f10565b90508060018151811061032a5761032a610e5a565b6020026020010151925050506104b1565b61034787333088610b2a565b60005461035f9088906001600160a01b031687610c42565b868260008151811061037357610373610e5a565b60200260200101906001600160a01b031690816001600160a01b03168152505060008054906101000a90046001600160a01b03166001600160a01b031663ad5c46486040518163ffffffff1660e01b8152600401602060405180830381865afa1580156103e4573d6000803e3d6000fd5b505050506040513d601f19601f820116820180604052508101906104089190610e36565b8260018151811061041b5761041b610e5a565b6001600160a01b039283166020918202929092010152600054166318cbafe58686853361044a42610258610e70565b6040518663ffffffff1660e01b815260040161046a959493929190610fce565b6000604051808303816000875af1158015610489573d6000803e3d6000fd5b505050506040513d6000823e601f3d908101601f191682016040526103159190810190610f10565b949350505050565b604080516002808252606082018352600092839291906020830190803683370190505090506001600160a01b038516156104f35784610568565b60008054906101000a90046001600160a01b03166001600160a01b031663ad5c46486040518163ffffffff1660e01b8152600401602060405180830381865afa158015610544573d6000803e3d6000fd5b505050506040513d601f19601f820116820180604052508101906105689190610e36565b8160008151811061057b5761057b610e5a565b6001600160a01b03928316602091820292909201015284161561059e5783610613565b60008054906101000a90046001600160a01b03166001600160a01b031663ad5c46486040518163ffffffff1660e01b8152600401602060405180830381865afa1580156105ef573d6000803e3d6000fd5b505050506040513d601f19601f820116820180604052508101906106139190610e36565b8160018151811061062657610626610e5a565b6001600160a01b0392831660209182029290920101526000805460405163d06ca61f60e01b81529192169063d06ca61f90610667908790869060040161100a565b600060405180830381865afa158015610684573d6000803e3d6000fd5b505050506040513d6000823e601f3d908101601f191682016040526106ac9190810190610f10565b9050806001815181106106c1576106c1610e5a565b6020026020010151925050509392505050565b604080516002808252606082018352600092839291906020830190803683370190505090506001600160a01b0385161561070e5784610783565b60008054906101000a90046001600160a01b03166001600160a01b031663ad5c46486040518163ffffffff1660e01b8152600401602060405180830381865afa15801561075f573d6000803e3d6000fd5b505050506040513d601f19601f820116820180604052508101906107839190610e36565b8160008151811061079657610796610e5a565b6001600160a01b0392831660209182029290920101528416156107b9578361082e565b60008054906101000a90046001600160a01b03166001600160a01b031663ad5c46486040518163ffffffff1660e01b8152600401602060405180830381865afa15801561080a573d6000803e3d6000fd5b505050506040513d601f19601f8201168201806040525081019061082e9190610e36565b8160018151811061084157610841610e5a565b6001600160a01b039283166020918202929092010152600080546040516307c0329d60e21b815291921690631f00ca7490610882908790869060040161100a565b600060405180830381865afa15801561089f573d6000803e3d6000fd5b505050506040513d6000823e601f3d908101601f191682016040526108c79190810190610f10565b9050806000815181106106c1576106c1610e5a565b6000806000806000876001600160a01b0316630902f1ac6040518163ffffffff1660e01b8152600401606060405180830381865afa158015610922573d6000803e3d6000fd5b505050506040513d601f19601f82011682018060405250810190610946919061103f565b6001600160701b03928316955091169250905063ffffffff811642116109a35760405162461bcd60e51b81526020600482015260126024820152713a34b6b2b9ba30b6b81034b99032b93937b960711b60448201526064016101bb565b6000831180156109b35750600082115b610a115760405162461bcd60e51b815260206004820152602960248201527f496e73756666696369656e74204c697175696469747920666f72207468652070604482015268185a5c881a5b9c1d5d60ba1b60648201526084016101bb565b85600003610a9e57600054604051632b58577b60e21b81526004810189905260248101859052604481018490528896506001600160a01b039091169063ad615dec90606401602060405180830381865afa158015610a73573d6000803e3d6000fd5b505050506040513d601f19601f82011682018060405250810190610a97919061108f565b9350610b1f565b600054604051632b58577b60e21b81526004810188905260248101849052604481018590526001600160a01b039091169063ad615dec90606401602060405180830381865afa158015610af5573d6000803e3d6000fd5b505050506040513d601f19601f82011682018060405250810190610b19919061108f565b94508593505b939792965093509350565b604080516001600160a01b0385811660248301528481166044830152606480830185905283518084039091018152608490920183526020820180516001600160e01b03166323b872dd60e01b1790529151600092839290881691610b8e91906110a8565b6000604051808303816000865af19150503d8060008114610bcb576040519150601f19603f3d011682016040523d82523d6000602084013e610bd0565b606091505b5091509150818015610bfa575080511580610bfa575080806020019051810190610bfa91906110d7565b610c3a5760405162461bcd60e51b815260206004820152601160248201527021736166655472616e7366657246726f6d60781b60448201526064016101bb565b505050505050565b604080516001600160a01b038481166024830152604480830185905283518084039091018152606490920183526020820180516001600160e01b031663095ea7b360e01b1790529151600092839290871691610c9e91906110a8565b6000604051808303816000865af19150503d8060008114610cdb576040519150601f19603f3d011682016040523d82523d6000602084013e610ce0565b606091505b5091509150818015610d0a575080511580610d0a575080806020019051810190610d0a91906110d7565b610d455760405162461bcd60e51b815260206004820152600c60248201526b2173616665417070726f766560a01b60448201526064016101bb565b5050505050565b6001600160a01b0381168114610d6157600080fd5b50565b60008060008060808587031215610d7a57600080fd5b8435610d8581610d4c565b93506020850135610d9581610d4c565b93969395505050506040820135916060013590565b600080600060608486031215610dbf57600080fd5b8335610dca81610d4c565b92506020840135610dda81610d4c565b929592945050506040919091013590565b600080600060608486031215610e0057600080fd5b8335610e0b81610d4c565b95602085013595506040909401359392505050565b634e487b7160e01b600052604160045260246000fd5b600060208284031215610e4857600080fd5b8151610e5381610d4c565b9392505050565b634e487b7160e01b600052603260045260246000fd5b80820180821115610e9157634e487b7160e01b600052601160045260246000fd5b92915050565b600081518084526020808501945080840160005b83811015610ed05781516001600160a01b031687529582019590820190600101610eab565b509495945050505050565b848152608060208201526000610ef46080830186610e97565b6001600160a01b03949094166040830152506060015292915050565b60006020808385031215610f2357600080fd5b825167ffffffffffffffff80821115610f3b57600080fd5b818501915085601f830112610f4f57600080fd5b815181811115610f6157610f61610e20565b8060051b604051601f19603f83011681018181108582111715610f8657610f86610e20565b604052918252848201925083810185019188831115610fa457600080fd5b938501935b82851015610fc257845184529385019392850192610fa9565b98975050505050505050565b85815284602082015260a060408201526000610fed60a0830186610e97565b6001600160a01b0394909416606083015250608001529392505050565b8281526040602082015260006104b16040830184610e97565b80516001600160701b038116811461103a57600080fd5b919050565b60008060006060848603121561105457600080fd5b61105d84611023565b925061106b60208501611023565b9150604084015163ffffffff8116811461108457600080fd5b809150509250925092565b6000602082840312156110a157600080fd5b5051919050565b6000825160005b818110156110c957602081860181015185830152016110af565b506000920191825250919050565b6000602082840312156110e957600080fd5b81518015158114610e5357600080fdfea2646970667358221220dd0a3ad6ffb8c06199798383b4eda4bab9f9804af6dbd79f8f944e950f445e0064736f6c63430008110033",
  "devdoc": {
    "kind": "dev",
    "methods": {},
    "version": 1
  },
  "userdoc": {
    "kind": "user",
    "methods": {},
    "version": 1
  },
  "storageLayout": {
    "storage": [
      {
        "astId": 10,
        "contract": "contracts/SwapHelper.sol:SwapHelper",
        "label": "router",
        "offset": 0,
        "slot": "0",
        "type": "t_contract(IUniswapV2Router)1057"
      }
    ],
    "types": {
      "t_contract(IUniswapV2Router)1057": {
        "encoding": "inplace",
        "label": "contract IUniswapV2Router",
        "numberOfBytes": "20"
      }
    }
  }
}