{
    "address": "0xecBfa557d42912259204F443c63e7De7819DEf09",
    "abi": [
        {
            "anonymous": false,
            "inputs": [
                {
                    "indexed": true,
                    "internalType": "address",
                    "name": "owner",
                    "type": "address"
                },
                {
                    "indexed": true,
                    "internalType": "address",
                    "name": "spender",
                    "type": "address"
                },
                {
                    "indexed": false,
                    "internalType": "uint256",
                    "name": "value",
                    "type": "uint256"
                }
            ],
            "name": "Approval",
            "type": "event"
        },
        {
            "anonymous": false,
            "inputs": [
                {
                    "indexed": false,
                    "internalType": "uint8",
                    "name": "version",
                    "type": "uint8"
                }
            ],
            "name": "Initialized",
            "type": "event"
        },
        {
            "anonymous": false,
            "inputs": [
                {
                    "indexed": false,
                    "internalType": "address",
                    "name": "account",
                    "type": "address"
                },
                {
                    "indexed": false,
                    "internalType": "address",
                    "name": "vault",
                    "type": "address"
                },
                {
                    "indexed": false,
                    "internalType": "uint256",
                    "name": "lockedIndex",
                    "type": "uint256"
                }
            ],
            "name": "Lock",
            "type": "event"
        },
        {
            "anonymous": false,
            "inputs": [
                {
                    "indexed": true,
                    "internalType": "address",
                    "name": "previousOwner",
                    "type": "address"
                },
                {
                    "indexed": true,
                    "internalType": "address",
                    "name": "newOwner",
                    "type": "address"
                }
            ],
            "name": "OwnershipTransferred",
            "type": "event"
        },
        {
            "anonymous": false,
            "inputs": [
                {
                    "indexed": false,
                    "internalType": "uint256",
                    "name": "amount",
                    "type": "uint256"
                }
            ],
            "name": "Supply",
            "type": "event"
        },
        {
            "anonymous": false,
            "inputs": [
                {
                    "indexed": true,
                    "internalType": "address",
                    "name": "from",
                    "type": "address"
                },
                {
                    "indexed": true,
                    "internalType": "address",
                    "name": "to",
                    "type": "address"
                },
                {
                    "indexed": false,
                    "internalType": "uint256",
                    "name": "value",
                    "type": "uint256"
                }
            ],
            "name": "Transfer",
            "type": "event"
        },
        {
            "anonymous": false,
            "inputs": [
                {
                    "indexed": false,
                    "internalType": "address",
                    "name": "account",
                    "type": "address"
                },
                {
                    "indexed": false,
                    "internalType": "uint256",
                    "name": "amount",
                    "type": "uint256"
                },
                {
                    "indexed": false,
                    "internalType": "uint256",
                    "name": "returned",
                    "type": "uint256"
                }
            ],
            "name": "Unlock",
            "type": "event"
        },
        {
            "anonymous": false,
            "inputs": [
                {
                    "indexed": false,
                    "internalType": "uint256",
                    "name": "unbondingInterval",
                    "type": "uint256"
                }
            ],
            "name": "UpdateConfigs",
            "type": "event"
        },
        {
            "anonymous": false,
            "inputs": [
                {
                    "indexed": false,
                    "internalType": "address",
                    "name": "account",
                    "type": "address"
                },
                {
                    "indexed": false,
                    "internalType": "bool",
                    "name": "status",
                    "type": "bool"
                }
            ],
            "name": "UpdateMinterStatus",
            "type": "event"
        },
        {
            "anonymous": false,
            "inputs": [
                {
                    "indexed": false,
                    "internalType": "address",
                    "name": "account",
                    "type": "address"
                },
                {
                    "indexed": false,
                    "internalType": "uint256",
                    "name": "amount",
                    "type": "uint256"
                }
            ],
            "name": "Withdraw",
            "type": "event"
        },
        {
            "stateMutability": "payable",
            "type": "fallback"
        },
        {
            "inputs": [
                {
                    "internalType": "uint256",
                    "name": "unbondingInterval_",
                    "type": "uint256"
                }
            ],
            "name": "__UnbondedEvmos_init",
            "outputs": [],
            "stateMutability": "nonpayable",
            "type": "function"
        },
        {
            "inputs": [
                {
                    "internalType": "address",
                    "name": "owner",
                    "type": "address"
                },
                {
                    "internalType": "address",
                    "name": "spender",
                    "type": "address"
                }
            ],
            "name": "allowance",
            "outputs": [
                {
                    "internalType": "uint256",
                    "name": "",
                    "type": "uint256"
                }
            ],
            "stateMutability": "view",
            "type": "function"
        },
        {
            "inputs": [
                {
                    "internalType": "address",
                    "name": "spender",
                    "type": "address"
                },
                {
                    "internalType": "uint256",
                    "name": "amount",
                    "type": "uint256"
                }
            ],
            "name": "approve",
            "outputs": [
                {
                    "internalType": "bool",
                    "name": "",
                    "type": "bool"
                }
            ],
            "stateMutability": "nonpayable",
            "type": "function"
        },
        {
            "inputs": [
                {
                    "internalType": "address",
                    "name": "account",
                    "type": "address"
                }
            ],
            "name": "balanceOf",
            "outputs": [
                {
                    "internalType": "uint256",
                    "name": "",
                    "type": "uint256"
                }
            ],
            "stateMutability": "view",
            "type": "function"
        },
        {
            "inputs": [],
            "name": "decimals",
            "outputs": [
                {
                    "internalType": "uint8",
                    "name": "",
                    "type": "uint8"
                }
            ],
            "stateMutability": "view",
            "type": "function"
        },
        {
            "inputs": [
                {
                    "internalType": "address",
                    "name": "spender",
                    "type": "address"
                },
                {
                    "internalType": "uint256",
                    "name": "subtractedValue",
                    "type": "uint256"
                }
            ],
            "name": "decreaseAllowance",
            "outputs": [
                {
                    "internalType": "bool",
                    "name": "",
                    "type": "bool"
                }
            ],
            "stateMutability": "nonpayable",
            "type": "function"
        },
        {
            "inputs": [
                {
                    "internalType": "address",
                    "name": "account",
                    "type": "address"
                }
            ],
            "name": "getUnlockable",
            "outputs": [
                {
                    "internalType": "uint256",
                    "name": "unlockable",
                    "type": "uint256"
                },
                {
                    "internalType": "uint256",
                    "name": "debt",
                    "type": "uint256"
                }
            ],
            "stateMutability": "view",
            "type": "function"
        },
        {
            "inputs": [
                {
                    "internalType": "address",
                    "name": "spender",
                    "type": "address"
                },
                {
                    "internalType": "uint256",
                    "name": "addedValue",
                    "type": "uint256"
                }
            ],
            "name": "increaseAllowance",
            "outputs": [
                {
                    "internalType": "bool",
                    "name": "",
                    "type": "bool"
                }
            ],
            "stateMutability": "nonpayable",
            "type": "function"
        },
        {
            "inputs": [
                {
                    "internalType": "uint256",
                    "name": "lockedId",
                    "type": "uint256"
                }
            ],
            "name": "isKillable",
            "outputs": [
                {
                    "internalType": "bool",
                    "name": "",
                    "type": "bool"
                }
            ],
            "stateMutability": "view",
            "type": "function"
        },
        {
            "inputs": [
                {
                    "internalType": "address",
                    "name": "",
                    "type": "address"
                }
            ],
            "name": "isMinter",
            "outputs": [
                {
                    "internalType": "bool",
                    "name": "",
                    "type": "bool"
                }
            ],
            "stateMutability": "view",
            "type": "function"
        },
        {
            "inputs": [
                {
                    "internalType": "uint256",
                    "name": "lockedId",
                    "type": "uint256"
                }
            ],
            "name": "kill",
            "outputs": [],
            "stateMutability": "nonpayable",
            "type": "function"
        },
        {
            "inputs": [],
            "name": "lastUnbondedAt",
            "outputs": [
                {
                    "internalType": "uint256",
                    "name": "",
                    "type": "uint256"
                }
            ],
            "stateMutability": "view",
            "type": "function"
        },
        {
            "inputs": [
                {
                    "internalType": "address",
                    "name": "account",
                    "type": "address"
                }
            ],
            "name": "lockedList",
            "outputs": [
                {
                    "components": [
                        {
                            "internalType": "bool",
                            "name": "received",
                            "type": "bool"
                        },
                        {
                            "internalType": "address",
                            "name": "account",
                            "type": "address"
                        },
                        {
                            "internalType": "address",
                            "name": "vault",
                            "type": "address"
                        },
                        {
                            "internalType": "uint256",
                            "name": "amount",
                            "type": "uint256"
                        },
                        {
                            "internalType": "uint256",
                            "name": "debtShare",
                            "type": "uint256"
                        },
                        {
                            "internalType": "uint256",
                            "name": "unlockedAt",
                            "type": "uint256"
                        }
                    ],
                    "internalType": "struct UnbondedEvmos.Locked[]",
                    "name": "accountLocks",
                    "type": "tuple[]"
                }
            ],
            "stateMutability": "view",
            "type": "function"
        },
        {
            "inputs": [
                {
                    "internalType": "address",
                    "name": "",
                    "type": "address"
                }
            ],
            "name": "lockedOf",
            "outputs": [
                {
                    "internalType": "uint256",
                    "name": "nextUnlocked",
                    "type": "uint256"
                }
            ],
            "stateMutability": "view",
            "type": "function"
        },
        {
            "inputs": [
                {
                    "internalType": "uint256",
                    "name": "",
                    "type": "uint256"
                }
            ],
            "name": "locks",
            "outputs": [
                {
                    "internalType": "bool",
                    "name": "received",
                    "type": "bool"
                },
                {
                    "internalType": "address",
                    "name": "account",
                    "type": "address"
                },
                {
                    "internalType": "address",
                    "name": "vault",
                    "type": "address"
                },
                {
                    "internalType": "uint256",
                    "name": "amount",
                    "type": "uint256"
                },
                {
                    "internalType": "uint256",
                    "name": "debtShare",
                    "type": "uint256"
                },
                {
                    "internalType": "uint256",
                    "name": "unlockedAt",
                    "type": "uint256"
                }
            ],
            "stateMutability": "view",
            "type": "function"
        },
        {
            "inputs": [],
            "name": "locksLength",
            "outputs": [
                {
                    "internalType": "uint256",
                    "name": "",
                    "type": "uint256"
                }
            ],
            "stateMutability": "view",
            "type": "function"
        },
        {
            "inputs": [
                {
                    "internalType": "address",
                    "name": "to",
                    "type": "address"
                },
                {
                    "internalType": "address",
                    "name": "vault",
                    "type": "address"
                },
                {
                    "internalType": "uint256",
                    "name": "amount",
                    "type": "uint256"
                },
                {
                    "internalType": "uint256",
                    "name": "debtShare",
                    "type": "uint256"
                }
            ],
            "name": "mintLockedToken",
            "outputs": [],
            "stateMutability": "nonpayable",
            "type": "function"
        },
        {
            "inputs": [],
            "name": "name",
            "outputs": [
                {
                    "internalType": "string",
                    "name": "",
                    "type": "string"
                }
            ],
            "stateMutability": "view",
            "type": "function"
        },
        {
            "inputs": [],
            "name": "owner",
            "outputs": [
                {
                    "internalType": "address",
                    "name": "",
                    "type": "address"
                }
            ],
            "stateMutability": "view",
            "type": "function"
        },
        {
            "inputs": [],
            "name": "renounceOwnership",
            "outputs": [],
            "stateMutability": "nonpayable",
            "type": "function"
        },
        {
            "inputs": [],
            "name": "supplyUnbondedToken",
            "outputs": [],
            "stateMutability": "payable",
            "type": "function"
        },
        {
            "inputs": [],
            "name": "symbol",
            "outputs": [
                {
                    "internalType": "string",
                    "name": "",
                    "type": "string"
                }
            ],
            "stateMutability": "view",
            "type": "function"
        },
        {
            "inputs": [],
            "name": "totalSupply",
            "outputs": [
                {
                    "internalType": "uint256",
                    "name": "",
                    "type": "uint256"
                }
            ],
            "stateMutability": "view",
            "type": "function"
        },
        {
            "inputs": [
                {
                    "internalType": "address",
                    "name": "to",
                    "type": "address"
                },
                {
                    "internalType": "uint256",
                    "name": "amount",
                    "type": "uint256"
                }
            ],
            "name": "transfer",
            "outputs": [
                {
                    "internalType": "bool",
                    "name": "",
                    "type": "bool"
                }
            ],
            "stateMutability": "nonpayable",
            "type": "function"
        },
        {
            "inputs": [
                {
                    "internalType": "address",
                    "name": "from",
                    "type": "address"
                },
                {
                    "internalType": "address",
                    "name": "to",
                    "type": "address"
                },
                {
                    "internalType": "uint256",
                    "name": "amount",
                    "type": "uint256"
                }
            ],
            "name": "transferFrom",
            "outputs": [
                {
                    "internalType": "bool",
                    "name": "",
                    "type": "bool"
                }
            ],
            "stateMutability": "nonpayable",
            "type": "function"
        },
        {
            "inputs": [
                {
                    "internalType": "address",
                    "name": "newOwner",
                    "type": "address"
                }
            ],
            "name": "transferOwnership",
            "outputs": [],
            "stateMutability": "nonpayable",
            "type": "function"
        },
        {
            "inputs": [],
            "name": "unbondingInterval",
            "outputs": [
                {
                    "internalType": "uint256",
                    "name": "",
                    "type": "uint256"
                }
            ],
            "stateMutability": "view",
            "type": "function"
        },
        {
            "inputs": [],
            "name": "unlock",
            "outputs": [],
            "stateMutability": "nonpayable",
            "type": "function"
        },
        {
            "inputs": [
                {
                    "internalType": "uint256",
                    "name": "_unbondingInterval",
                    "type": "uint256"
                }
            ],
            "name": "updateConfigs",
            "outputs": [],
            "stateMutability": "nonpayable",
            "type": "function"
        },
        {
            "inputs": [
                {
                    "internalType": "address",
                    "name": "account",
                    "type": "address"
                },
                {
                    "internalType": "bool",
                    "name": "status",
                    "type": "bool"
                }
            ],
            "name": "updateMinterStatus",
            "outputs": [],
            "stateMutability": "nonpayable",
            "type": "function"
        },
        {
            "stateMutability": "payable",
            "type": "receive"
        }
    ],
    "transactionHash": "0xb200d5f1f7aace0c115757946c7fcd61214c27572c961a878f1f4facf1ad605b",
    "args": [],
    "numDeployments": 1,
    "solcInputHash": "a24ecd7c87cc98307ddfcd8a3870244e",
    "bytecode": "0x608060405234801561001057600080fd5b506123af806100206000396000f3fe6080604052600436106101b95760003560e01c80639c6b2896116100eb578063c86301781161008f578063e158c1ac11610061578063e158c1ac14610536578063efc8f3c81461053e578063f2fde38b1461055e578063f4dadc611461057e57005b8063c8630178146104a1578063cc9bc4af146104d6578063d29a0025146104f6578063dd62ed3e1461051657005b8063a5f1e282116100c8578063a5f1e2821461040f578063a69df4b51461043c578063a9059cbb14610451578063aa271e1a1461047157005b80639c6b2896146103c3578063a4086a8f146103d9578063a457c2d7146103ef57005b80635bfc5a6e1161015d57806379564ace1161012f57806379564ace146103465780638da5cb5b1461036657806395d89b411461038e57806397e7381e146103a357005b80635bfc5a6e146102c5578063633235d0146102db57806370a08231146102fb578063715018a61461033157005b80631a921b3e116101965780631a921b3e1461023c57806323b872dd14610269578063313ce5671461028957806339509351146102a557005b806306fdde03146101c2578063095ea7b3146101ed57806318160ddd1461021d57005b366101c057005b005b3480156101ce57600080fd5b506101d76105d9565b6040516101e49190612207565b60405180910390f35b3480156101f957600080fd5b5061020d61020836600461210c565b61066b565b60405190151581526020016101e4565b34801561022957600080fd5b506067545b6040519081526020016101e4565b34801561024857600080fd5b5061025c610257366004612003565b610683565b6040516101e49190612181565b34801561027557600080fd5b5061020d610284366004612056565b6108db565b34801561029557600080fd5b50604051601281526020016101e4565b3480156102b157600080fd5b5061020d6102c036600461210c565b610935565b3480156102d157600080fd5b5061022e609b5481565b3480156102e757600080fd5b506101c06102f6366004612091565b610957565b34801561030757600080fd5b5061022e610316366004612003565b6001600160a01b031660009081526065602052604090205490565b34801561033d57600080fd5b506101c0610b6b565b34801561035257600080fd5b506101c0610361366004612135565b610b7f565b34801561037257600080fd5b506033546040516001600160a01b0390911681526020016101e4565b34801561039a57600080fd5b506101d7610bc2565b3480156103af57600080fd5b5061020d6103be366004612135565b610bd1565b3480156103cf57600080fd5b5061022e60985481565b3480156103e557600080fd5b5061022e60995481565b3480156103fb57600080fd5b5061020d61040a36600461210c565b610d0b565b34801561041b57600080fd5b5061022e61042a366004612003565b609c6020526000908152604090205481565b34801561044857600080fd5b506101c0610d86565b34801561045d57600080fd5b5061020d61046c36600461210c565b610da3565b34801561047d57600080fd5b5061020d61048c366004612003565b60976020526000908152604090205460ff1681565b3480156104ad57600080fd5b506104c16104bc366004612003565b610de6565b604080519283526020830191909152016101e4565b3480156104e257600080fd5b506101c06104f1366004612135565b610ffb565b34801561050257600080fd5b506101c0610511366004612135565b611165565b34801561052257600080fd5b5061022e610531366004612024565b61136f565b6101c061139a565b34801561054a57600080fd5b506101c06105593660046120d2565b6113d3565b34801561056a57600080fd5b506101c0610579366004612003565b611437565b34801561058a57600080fd5b5061059e610599366004612135565b6114ad565b6040805196151587526001600160a01b03958616602088015293909416928501929092526060840152608083015260a082015260c0016101e4565b6060606880546105e89061230d565b80601f01602080910402602001604051908101604052809291908181526020018280546106149061230d565b80156106615780601f1061063657610100808354040283529160200191610661565b820191906000526020600020905b81548152906001019060200180831161064457829003601f168201915b5050505050905090565b600033610679818585611505565b5060019392505050565b6001600160a01b0381166000908152609c60209081526040808320815180830183528154815260018201805484518187028101870190955280855260609695929485840193909291908301828280156106fb57602002820191906000526020600020905b8154815260200190600101908083116106e7575b50505091909252505050602081015180519192509080610750576040805160008082526020820190925290610746565b610733611f04565b81526020019060019003908161072b5790505b5095945050505050565b8251600061075e82846122ca565b90508067ffffffffffffffff81111561078757634e487b7160e01b600052604160045260246000fd5b6040519080825280602002602001820160405280156107c057816020015b6107ad611f04565b8152602001906001900390816107a55790505b50955060005b818110156108d0576000609a866107dd86856122b2565b815181106107fb57634e487b7160e01b600052603260045260246000fd5b60200260200101518154811061082157634e487b7160e01b600052603260045260246000fd5b60009182526020918290206040805160c0810182526005909302909101805460ff8116151584526001600160a01b03610100909104811694840194909452600181015490931690820152600282015460608201526003820154608082015260049091015460a0820152885190915081908990849081106108b157634e487b7160e01b600052603260045260246000fd5b60200260200101819052505080806108c890612348565b9150506107c6565b505050505050919050565b3360009081526097602052604081205460ff166109135760405162461bcd60e51b815260040161090a9061223a565b60405180910390fd5b3361091f858285611629565b61092a8585856116a3565b506001949350505050565b600033610679818585610948838361136f565b61095291906122b2565b611505565b3360009081526097602052604090205460ff166109865760405162461bcd60e51b815260040161090a9061223a565b600082116109d65760405162461bcd60e51b815260206004820152601c60248201527f6d696e744c6f636b6564546f6b656e3a20616d6f756e74203c3d203000000000604482015260640161090a565b6001600160a01b0384166000908152609c602052604090206109f88582611871565b609a6040518060c00160405280600015158152602001876001600160a01b03168152602001866001600160a01b031681526020018581526020018481526020016099544260985411610a4a5742610a4e565b6098545b610a5891906122b2565b90528154600180820184556000938452602080852084516005909402018054918501516001600160a81b0319909216931515610100600160a81b031916939093176101006001600160a01b0392831602178355604084015183830180546001600160a01b03191691909216179055606083015160028301556080830151600383015560a090920151600490910155609a54610af391906122ca565b600180840180549182018155600090815260209020018190559050610b1886856119e8565b604080516001600160a01b038089168252871660208201529081018290527fec36c0364d931187a76cf66d7eee08fad0ec2e8b7458a8d8b26b36769d4d13f39060600160405180910390a1505050505050565b610b73611ac7565b610b7d6000611b21565b565b610b87611ac7565b60998190556040518181527f78a3671679b68721aaad9eb74535be0be119bd34c0efa671eb6ab3210d1fe2579060200160405180910390a150565b6060606980546105e89061230d565b600080609a8381548110610bf557634e487b7160e01b600052603260045260246000fd5b60009182526020918290206040805160c0810182526005909302909101805460ff8116151584526001600160a01b03610100909104811694840194909452600181015490931690820152600282015460608201526003820154608082015260049091015460a08201819052909150421015610c735750600092915050565b60408082015160208301519151635eeff10160e01b81526001600160a01b03928316600482015260009290911690635eeff1019060240160206040518083038186803b158015610cc257600080fd5b505afa158015610cd6573d6000803e3d6000fd5b505050506040513d601f19601f82011682018060405250810190610cfa919061214d565b606090920151909110159392505050565b60003381610d19828661136f565b905083811015610d795760405162461bcd60e51b815260206004820152602560248201527f45524332303a2064656372656173656420616c6c6f77616e63652062656c6f77604482015264207a65726f60d81b606482015260840161090a565b61092a8286868403611505565b336000818152609c6020526040902090610da09082611871565b50565b3360009081526097602052604081205460ff16610dd25760405162461bcd60e51b815260040161090a9061223a565b610ddd3384846116a3565b50600192915050565b6001600160a01b0381166000908152609c602090815260408083208054600190910180548351818602810186019094528084528594929390928592908490830182828015610e5357602002820191906000526020600020905b815481526020019060010190808311610e3f575b5050505050905081831415610e7057506000958695509350505050565b825b82811015610ff2576000609a838381518110610e9e57634e487b7160e01b600052603260045260246000fd5b602002602001015181548110610ec457634e487b7160e01b600052603260045260246000fd5b60009182526020918290206040805160c0810182526005909302909101805460ff8116151584526001600160a01b03610100909104811694840194909452600181015490931690820152600282015460608201526003820154608082015260049091015460a082018190529091504210610fd9576060810151610f4790886122b2565b6040808301519051635eeff10160e01b81526001600160a01b038b81166004830152929950911690635eeff1019060240160206040518083038186803b158015610f9057600080fd5b505afa158015610fa4573d6000803e3d6000fd5b505050506040513d601f19601f82011682018060405250810190610fc8919061214d565b610fd290876122b2565b9550610fdf565b50610ff2565b5080610fea81612348565b915050610e72565b50505050915091565b600054610100900460ff161580801561101b5750600054600160ff909116105b806110355750303b158015611035575060005460ff166001145b6110985760405162461bcd60e51b815260206004820152602e60248201527f496e697469616c697a61626c653a20636f6e747261637420697320616c72656160448201526d191e481a5b9a5d1a585b1a5e995960921b606482015260840161090a565b6000805460ff1916600117905580156110bb576000805461ff0019166101001790555b6110c3611b73565b6111116040518060400160405280600e81526020016d556e7374616b65642045564d4f5360901b815250604051806040016040528060068152602001657545564d4f5360d01b815250611ba2565b61111a82610b7f565b8015611161576000805461ff0019169055604051600181527f7f26b83ff96e1f2b6a682f133852f6798a09c465da95921460cefb3847402498906020015b60405180910390a15b5050565b6000609a828154811061118857634e487b7160e01b600052603260045260246000fd5b9060005260206000209060050201905042816004015411156111ec5760405162461bcd60e51b815260206004820152601b60248201527f7545564d4f53204b696c6c3a2043616e6e6f7420556e6c6f636b2e0000000000604482015260640161090a565b60018101548154604051635eeff10160e01b81526101009091046001600160a01b0390811660048301526000921690635eeff1019060240160206040518083038186803b15801561123c57600080fd5b505afa158015611250573d6000803e3d6000fd5b505050506040513d601f19601f82011682018060405250810190611274919061214d565b6002830154909150808210156112cc5760405162461bcd60e51b815260206004820152601860248201527f7545564d4f53204b696c6c3a205374696c6c20736166652e0000000000000000604482015260640161090a565b6001838101548454604051639d2e6fcb60e01b81526001600160a01b036101009092048216600482015260248101939093521690639d2e6fcb9083906044016020604051808303818588803b15801561132457600080fd5b505af1158015611338573d6000803e3d6000fd5b50505050506040513d601f19601f8201168201806040525081019061135d919061214d565b5050815460ff19166001179091555050565b6001600160a01b03918216600090815260666020908152604080832093909416825291909152205490565b426098556040513481527f1862f918d5600ec0980589e8cc806b3c79b1e762fcbf44cc2947ba12499207eb9060200160405180910390a1565b6113db611ac7565b6001600160a01b038216600081815260976020908152604091829020805460ff19168515159081179091558251938452908301527ff6c10b2804d0174249f23bd4c462fb3e65ea16bf2b6896effe8a09f8f6a8e3b09101611158565b61143f611ac7565b6001600160a01b0381166114a45760405162461bcd60e51b815260206004820152602660248201527f4f776e61626c653a206e6577206f776e657220697320746865207a65726f206160448201526564647265737360d01b606482015260840161090a565b610da081611b21565b609a81815481106114bd57600080fd5b60009182526020909120600590910201805460018201546002830154600384015460049094015460ff841695506101009093046001600160a01b039081169492169290919086565b6001600160a01b0383166115675760405162461bcd60e51b8152602060048201526024808201527f45524332303a20617070726f76652066726f6d20746865207a65726f206164646044820152637265737360e01b606482015260840161090a565b6001600160a01b0382166115c85760405162461bcd60e51b815260206004820152602260248201527f45524332303a20617070726f766520746f20746865207a65726f206164647265604482015261737360f01b606482015260840161090a565b6001600160a01b0383811660008181526066602090815260408083209487168084529482529182902085905590518481527f8c5be1e5ebec7d5bd14f71427d1e84f3dd0314c0f7b2291e5b200ac8c7c3b925910160405180910390a3505050565b6000611635848461136f565b9050600019811461169d57818110156116905760405162461bcd60e51b815260206004820152601d60248201527f45524332303a20696e73756666696369656e7420616c6c6f77616e6365000000604482015260640161090a565b61169d8484848403611505565b50505050565b6001600160a01b0383166117075760405162461bcd60e51b815260206004820152602560248201527f45524332303a207472616e736665722066726f6d20746865207a65726f206164604482015264647265737360d81b606482015260840161090a565b6001600160a01b0382166117695760405162461bcd60e51b815260206004820152602360248201527f45524332303a207472616e7366657220746f20746865207a65726f206164647260448201526265737360e81b606482015260840161090a565b6001600160a01b038316600090815260656020526040902054818110156117e15760405162461bcd60e51b815260206004820152602660248201527f45524332303a207472616e7366657220616d6f756e7420657863656564732062604482015265616c616e636560d01b606482015260840161090a565b6001600160a01b038085166000908152606560205260408082208585039055918516815290812080548492906118189084906122b2565b92505081905550826001600160a01b0316846001600160a01b03167fddf252ad1be2c89b69c2b068fc378daa952ba7f163c4a11628f55a4df523b3ef8460405161186491815260200190565b60405180910390a361169d565b506001600160a01b0381166000908152609c602052604090208054600182015480821061189e5750505050565b600080835b838110156119675760008660010182815481106118d057634e487b7160e01b600052603260045260246000fd5b906000526020600020015490506000609a828154811061190057634e487b7160e01b600052603260045260246000fd5b906000526020600020906005020190504281600401541161194b57600281015461192a90866122b2565b9450600061193782611bd8565b905061194381866122b2565b945050611952565b5050611967565b5050808061195f90612348565b9150506118a3565b82156119df576119788160016122b2565b86556119848784611c86565b8115611994576119948783611dd4565b604080516001600160a01b0389168152602081018590529081018390527ff7870c5b224cbc19873599e46ccfc7103934650509b1af0c3ce90138377c20049060600160405180910390a15b50505050505050565b6001600160a01b038216611a3e5760405162461bcd60e51b815260206004820152601f60248201527f45524332303a206d696e7420746f20746865207a65726f206164647265737300604482015260640161090a565b8060676000828254611a5091906122b2565b90915550506001600160a01b03821660009081526065602052604081208054839290611a7d9084906122b2565b90915550506040518181526001600160a01b038316906000907fddf252ad1be2c89b69c2b068fc378daa952ba7f163c4a11628f55a4df523b3ef9060200160405180910390a35050565b6033546001600160a01b03163314610b7d5760405162461bcd60e51b815260206004820181905260248201527f4f776e61626c653a2063616c6c6572206973206e6f7420746865206f776e6572604482015260640161090a565b603380546001600160a01b038381166001600160a01b0319831681179093556040519116919082907f8be0079c531659141344cd1fd0a4f28419497f9722a3daafe3b4186f6b6457e090600090a35050565b600054610100900460ff16611b9a5760405162461bcd60e51b815260040161090a90612267565b610b7d611e86565b600054610100900460ff16611bc95760405162461bcd60e51b815260040161090a90612267565b6111618282611eb6565b505050565b600181015481546002830154604051636819862f60e01b81526001600160a01b03610100909304831660048201819052600094939093169291908390636819862f9083906024016020604051808303818588803b158015611c3857600080fd5b505af1158015611c4c573d6000803e3d6000fd5b50505050506040513d601f19601f82011682018060405250810190611c71919061214d565b855460ff191660011790955550929392505050565b6001600160a01b038216611ce65760405162461bcd60e51b815260206004820152602160248201527f45524332303a206275726e2066726f6d20746865207a65726f206164647265736044820152607360f81b606482015260840161090a565b6001600160a01b03821660009081526065602052604090205481811015611d5a5760405162461bcd60e51b815260206004820152602260248201527f45524332303a206275726e20616d6f756e7420657863656564732062616c616e604482015261636560f01b606482015260840161090a565b6001600160a01b0383166000908152606560205260408120838303905560678054849290611d899084906122ca565b90915550506040518281526000906001600160a01b038516907fddf252ad1be2c89b69c2b068fc378daa952ba7f163c4a11628f55a4df523b3ef9060200160405180910390a3505050565b604080516000808252602082019092526001600160a01b038416908390604051611dfe9190612165565b60006040518083038185875af1925050503d8060008114611e3b576040519150601f19603f3d011682016040523d82523d6000602084013e611e40565b606091505b5050905080611bd35760405162461bcd60e51b815260206004820152601260248201527121736166655472616e7366657245564d4f5360701b604482015260640161090a565b600054610100900460ff16611ead5760405162461bcd60e51b815260040161090a90612267565b610b7d33611b21565b600054610100900460ff16611edd5760405162461bcd60e51b815260040161090a90612267565b8151611ef0906068906020850190611f4e565b508051611bd3906069906020840190611f4e565b6040518060c0016040528060001515815260200160006001600160a01b0316815260200160006001600160a01b031681526020016000815260200160008152602001600081525090565b828054611f5a9061230d565b90600052602060002090601f016020900481019282611f7c5760008555611fc2565b82601f10611f9557805160ff1916838001178555611fc2565b82800160010185558215611fc2579182015b82811115611fc2578251825591602001919060010190611fa7565b50611fce929150611fd2565b5090565b5b80821115611fce5760008155600101611fd3565b80356001600160a01b0381168114611ffe57600080fd5b919050565b600060208284031215612014578081fd5b61201d82611fe7565b9392505050565b60008060408385031215612036578081fd5b61203f83611fe7565b915061204d60208401611fe7565b90509250929050565b60008060006060848603121561206a578081fd5b61207384611fe7565b925061208160208501611fe7565b9150604084013590509250925092565b600080600080608085870312156120a6578081fd5b6120af85611fe7565b93506120bd60208601611fe7565b93969395505050506040820135916060013590565b600080604083850312156120e4578182fd5b6120ed83611fe7565b915060208301358015158114612101578182fd5b809150509250929050565b6000806040838503121561211e578182fd5b61212783611fe7565b946020939093013593505050565b600060208284031215612146578081fd5b5035919050565b60006020828403121561215e578081fd5b5051919050565b600082516121778184602087016122e1565b9190910192915050565b602080825282518282018190526000919060409081850190868401855b828110156121fa578151805115158552868101516001600160a01b0390811688870152868201511686860152606080820151908601526080808201519086015260a0908101519085015260c0909301929085019060010161219e565b5091979650505050505050565b60208152600082518060208401526122268160408501602087016122e1565b601f01601f19169190910160400192915050565b6020808252601390820152723aa2ab26a7a99d102737ba1036b4b73a32b91760691b604082015260600190565b6020808252602b908201527f496e697469616c697a61626c653a20636f6e7472616374206973206e6f74206960408201526a6e697469616c697a696e6760a81b606082015260800190565b600082198211156122c5576122c5612363565b500190565b6000828210156122dc576122dc612363565b500390565b60005b838110156122fc5781810151838201526020016122e4565b8381111561169d5750506000910152565b600181811c9082168061232157607f821691505b6020821081141561234257634e487b7160e01b600052602260045260246000fd5b50919050565b600060001982141561235c5761235c612363565b5060010190565b634e487b7160e01b600052601160045260246000fdfea26469706673582212204db885f8050523dd451fa1cda47055fce67666ad2d4e6aae53c853a24c3a319b64736f6c63430008040033",
    "devdoc": {
        "kind": "dev",
        "methods": {
            "allowance(address,address)": {
                "details": "See {IERC20-allowance}."
            },
            "approve(address,uint256)": {
                "details": "See {IERC20-approve}. NOTE: If `amount` is the maximum `uint256`, the allowance is not updated on `transferFrom`. This is semantically equivalent to an infinite approval. Requirements: - `spender` cannot be the zero address."
            },
            "balanceOf(address)": {
                "details": "See {IERC20-balanceOf}."
            },
            "decimals()": {
                "details": "Returns the number of decimals used to get its user representation. For example, if `decimals` equals `2`, a balance of `505` tokens should be displayed to a user as `5.05` (`505 / 10 ** 2`). Tokens usually opt for a value of 18, imitating the relationship between Ether and Wei. This is the value {ERC20} uses, unless this function is overridden; NOTE: This information is only used for _display_ purposes: it in no way affects any of the arithmetic of the contract, including {IERC20-balanceOf} and {IERC20-transfer}."
            },
            "decreaseAllowance(address,uint256)": {
                "details": "Atomically decreases the allowance granted to `spender` by the caller. This is an alternative to {approve} that can be used as a mitigation for problems described in {IERC20-approve}. Emits an {Approval} event indicating the updated allowance. Requirements: - `spender` cannot be the zero address. - `spender` must have allowance for the caller of at least `subtractedValue`."
            },
            "getUnlockable(address)": {
                "details": "calc user's unlockable uEVMOS(includes debt) & debt"
            },
            "increaseAllowance(address,uint256)": {
                "details": "Atomically increases the allowance granted to `spender` by the caller. This is an alternative to {approve} that can be used as a mitigation for problems described in {IERC20-approve}. Emits an {Approval} event indicating the updated allowance. Requirements: - `spender` cannot be the zero address."
            },
            "mintLockedToken(address,address,uint256,uint256)": {
                "details": "mint & lock uEVMOS"
            },
            "name()": {
                "details": "Returns the name of the token."
            },
            "owner()": {
                "details": "Returns the address of the current owner."
            },
            "renounceOwnership()": {
                "details": "Leaves the contract without owner. It will not be possible to call `onlyOwner` functions anymore. Can only be called by the current owner. NOTE: Renouncing ownership will leave the contract without an owner, thereby removing any functionality that is only available to the owner."
            },
            "symbol()": {
                "details": "Returns the symbol of the token, usually a shorter version of the name."
            },
            "totalSupply()": {
                "details": "See {IERC20-totalSupply}."
            },
            "transfer(address,uint256)": {
                "details": "See {IERC20-transfer}. Requirements: - `to` cannot be the zero address. - the caller must have a balance of at least `amount`."
            },
            "transferFrom(address,address,uint256)": {
                "details": "See {IERC20-transferFrom}. Emits an {Approval} event indicating the updated allowance. This is not required by the EIP. See the note at the beginning of {ERC20}. NOTE: Does not update the allowance if the current allowance is the maximum `uint256`. Requirements: - `from` and `to` cannot be the zero address. - `from` must have a balance of at least `amount`. - the caller must have allowance for ``from``'s tokens of at least `amount`."
            },
            "transferOwnership(address)": {
                "details": "Transfers ownership of the contract to a new account (`newOwner`). Can only be called by the current owner."
            }
        },
        "version": 1
    },
    "userdoc": {
        "kind": "user",
        "methods": {
            "__UnbondedEvmos_init(uint256)": {
                "notice": "should set minter (maybe Stayking) after deployed"
            },
            "isKillable(uint256)": {
                "notice": "TODO kor)   unstake  ,       .   100%    unlock   ."
            }
        },
        "version": 1
    },
    "storageLayout": {
        "storage": [
            {
                "astId": 2400,
                "contract": "contracts/token/UnbondedEvmos.sol:UnbondedEvmos",
                "label": "_initialized",
                "offset": 0,
                "slot": "0",
                "type": "t_uint8"
            },
            {
                "astId": 2403,
                "contract": "contracts/token/UnbondedEvmos.sol:UnbondedEvmos",
                "label": "_initializing",
                "offset": 1,
                "slot": "0",
                "type": "t_bool"
            },
            {
                "astId": 1165,
                "contract": "contracts/token/UnbondedEvmos.sol:UnbondedEvmos",
                "label": "__gap",
                "offset": 0,
                "slot": "1",
                "type": "t_array(t_uint256)50_storage"
            },
            {
                "astId": 2668,
                "contract": "contracts/token/UnbondedEvmos.sol:UnbondedEvmos",
                "label": "_owner",
                "offset": 0,
                "slot": "51",
                "type": "t_address"
            },
            {
                "astId": 2788,
                "contract": "contracts/token/UnbondedEvmos.sol:UnbondedEvmos",
                "label": "__gap",
                "offset": 0,
                "slot": "52",
                "type": "t_array(t_uint256)49_storage"
            },
            {
                "astId": 1801,
                "contract": "contracts/token/UnbondedEvmos.sol:UnbondedEvmos",
                "label": "_balances",
                "offset": 0,
                "slot": "101",
                "type": "t_mapping(t_address,t_uint256)"
            },
            {
                "astId": 1807,
                "contract": "contracts/token/UnbondedEvmos.sol:UnbondedEvmos",
                "label": "_allowances",
                "offset": 0,
                "slot": "102",
                "type": "t_mapping(t_address,t_mapping(t_address,t_uint256))"
            },
            {
                "astId": 1809,
                "contract": "contracts/token/UnbondedEvmos.sol:UnbondedEvmos",
                "label": "_totalSupply",
                "offset": 0,
                "slot": "103",
                "type": "t_uint256"
            },
            {
                "astId": 1811,
                "contract": "contracts/token/UnbondedEvmos.sol:UnbondedEvmos",
                "label": "_name",
                "offset": 0,
                "slot": "104",
                "type": "t_string_storage"
            },
            {
                "astId": 1813,
                "contract": "contracts/token/UnbondedEvmos.sol:UnbondedEvmos",
                "label": "_symbol",
                "offset": 0,
                "slot": "105",
                "type": "t_string_storage"
            },
            {
                "astId": 2392,
                "contract": "contracts/token/UnbondedEvmos.sol:UnbondedEvmos",
                "label": "__gap",
                "offset": 0,
                "slot": "106",
                "type": "t_array(t_uint256)45_storage"
            },
            {
                "astId": 6059,
                "contract": "contracts/token/UnbondedEvmos.sol:UnbondedEvmos",
                "label": "isMinter",
                "offset": 0,
                "slot": "151",
                "type": "t_mapping(t_address,t_bool)"
            },
            {
                "astId": 6062,
                "contract": "contracts/token/UnbondedEvmos.sol:UnbondedEvmos",
                "label": "lastUnbondedAt",
                "offset": 0,
                "slot": "152",
                "type": "t_uint256"
            },
            {
                "astId": 6065,
                "contract": "contracts/token/UnbondedEvmos.sol:UnbondedEvmos",
                "label": "unbondingInterval",
                "offset": 0,
                "slot": "153",
                "type": "t_uint256"
            },
            {
                "astId": 6082,
                "contract": "contracts/token/UnbondedEvmos.sol:UnbondedEvmos",
                "label": "locks",
                "offset": 0,
                "slot": "154",
                "type": "t_array(t_struct(Locked)6078_storage)dyn_storage"
            },
            {
                "astId": 6084,
                "contract": "contracts/token/UnbondedEvmos.sol:UnbondedEvmos",
                "label": "locksLength",
                "offset": 0,
                "slot": "155",
                "type": "t_uint256"
            },
            {
                "astId": 6095,
                "contract": "contracts/token/UnbondedEvmos.sol:UnbondedEvmos",
                "label": "lockedOf",
                "offset": 0,
                "slot": "156",
                "type": "t_mapping(t_address,t_struct(LockedQueue)6090_storage)"
            },
            {
                "astId": 6099,
                "contract": "contracts/token/UnbondedEvmos.sol:UnbondedEvmos",
                "label": "_balances",
                "offset": 0,
                "slot": "157",
                "type": "t_mapping(t_address,t_uint256)"
            }
        ],
        "types": {
            "t_address": {
                "encoding": "inplace",
                "label": "address",
                "numberOfBytes": "20"
            },
            "t_array(t_struct(Locked)6078_storage)dyn_storage": {
                "base": "t_struct(Locked)6078_storage",
                "encoding": "dynamic_array",
                "label": "struct UnbondedEvmos.Locked[]",
                "numberOfBytes": "32"
            },
            "t_array(t_uint256)45_storage": {
                "base": "t_uint256",
                "encoding": "inplace",
                "label": "uint256[45]",
                "numberOfBytes": "1440"
            },
            "t_array(t_uint256)49_storage": {
                "base": "t_uint256",
                "encoding": "inplace",
                "label": "uint256[49]",
                "numberOfBytes": "1568"
            },
            "t_array(t_uint256)50_storage": {
                "base": "t_uint256",
                "encoding": "inplace",
                "label": "uint256[50]",
                "numberOfBytes": "1600"
            },
            "t_array(t_uint256)dyn_storage": {
                "base": "t_uint256",
                "encoding": "dynamic_array",
                "label": "uint256[]",
                "numberOfBytes": "32"
            },
            "t_bool": {
                "encoding": "inplace",
                "label": "bool",
                "numberOfBytes": "1"
            },
            "t_mapping(t_address,t_bool)": {
                "encoding": "mapping",
                "key": "t_address",
                "label": "mapping(address => bool)",
                "numberOfBytes": "32",
                "value": "t_bool"
            },
            "t_mapping(t_address,t_mapping(t_address,t_uint256))": {
                "encoding": "mapping",
                "key": "t_address",
                "label": "mapping(address => mapping(address => uint256))",
                "numberOfBytes": "32",
                "value": "t_mapping(t_address,t_uint256)"
            },
            "t_mapping(t_address,t_struct(LockedQueue)6090_storage)": {
                "encoding": "mapping",
                "key": "t_address",
                "label": "mapping(address => struct UnbondedEvmos.LockedQueue)",
                "numberOfBytes": "32",
                "value": "t_struct(LockedQueue)6090_storage"
            },
            "t_mapping(t_address,t_uint256)": {
                "encoding": "mapping",
                "key": "t_address",
                "label": "mapping(address => uint256)",
                "numberOfBytes": "32",
                "value": "t_uint256"
            },
            "t_string_storage": {
                "encoding": "bytes",
                "label": "string",
                "numberOfBytes": "32"
            },
            "t_struct(Locked)6078_storage": {
                "encoding": "inplace",
                "label": "struct UnbondedEvmos.Locked",
                "members": [
                    {
                        "astId": 6067,
                        "contract": "contracts/token/UnbondedEvmos.sol:UnbondedEvmos",
                        "label": "received",
                        "offset": 0,
                        "slot": "0",
                        "type": "t_bool"
                    },
                    {
                        "astId": 6069,
                        "contract": "contracts/token/UnbondedEvmos.sol:UnbondedEvmos",
                        "label": "account",
                        "offset": 1,
                        "slot": "0",
                        "type": "t_address"
                    },
                    {
                        "astId": 6071,
                        "contract": "contracts/token/UnbondedEvmos.sol:UnbondedEvmos",
                        "label": "vault",
                        "offset": 0,
                        "slot": "1",
                        "type": "t_address"
                    },
                    {
                        "astId": 6073,
                        "contract": "contracts/token/UnbondedEvmos.sol:UnbondedEvmos",
                        "label": "amount",
                        "offset": 0,
                        "slot": "2",
                        "type": "t_uint256"
                    },
                    {
                        "astId": 6075,
                        "contract": "contracts/token/UnbondedEvmos.sol:UnbondedEvmos",
                        "label": "debtShare",
                        "offset": 0,
                        "slot": "3",
                        "type": "t_uint256"
                    },
                    {
                        "astId": 6077,
                        "contract": "contracts/token/UnbondedEvmos.sol:UnbondedEvmos",
                        "label": "unlockedAt",
                        "offset": 0,
                        "slot": "4",
                        "type": "t_uint256"
                    }
                ],
                "numberOfBytes": "160"
            },
            "t_struct(LockedQueue)6090_storage": {
                "encoding": "inplace",
                "label": "struct UnbondedEvmos.LockedQueue",
                "members": [
                    {
                        "astId": 6086,
                        "contract": "contracts/token/UnbondedEvmos.sol:UnbondedEvmos",
                        "label": "nextUnlocked",
                        "offset": 0,
                        "slot": "0",
                        "type": "t_uint256"
                    },
                    {
                        "astId": 6089,
                        "contract": "contracts/token/UnbondedEvmos.sol:UnbondedEvmos",
                        "label": "lockedIds",
                        "offset": 0,
                        "slot": "1",
                        "type": "t_array(t_uint256)dyn_storage"
                    }
                ],
                "numberOfBytes": "64"
            },
            "t_uint256": {
                "encoding": "inplace",
                "label": "uint256",
                "numberOfBytes": "32"
            },
            "t_uint8": {
                "encoding": "inplace",
                "label": "uint8",
                "numberOfBytes": "1"
            }
        }
    }
}