{
  "address": "0x0D92d35D311E54aB8EEA0394d7E773Fc5144491a",
  "abi": [
    {
      "anonymous": false,
      "inputs": [
        {
          "indexed": false,
          "internalType": "uint8",
          "name": "version",
          "type": "uint8"
        }
      ],
      "name": "Initialized",
      "type": "event"
    },
    {
      "anonymous": false,
      "inputs": [
        {
          "indexed": false,
          "internalType": "address",
          "name": "account",
          "type": "address"
        },
        {
          "indexed": false,
          "internalType": "address",
          "name": "vault",
          "type": "address"
        },
        {
          "indexed": false,
          "internalType": "uint256",
          "name": "lockedIndex",
          "type": "uint256"
        }
      ],
      "name": "Lock",
      "type": "event"
    },
    {
      "anonymous": false,
      "inputs": [
        {
          "indexed": true,
          "internalType": "address",
          "name": "previousOwner",
          "type": "address"
        },
        {
          "indexed": true,
          "internalType": "address",
          "name": "newOwner",
          "type": "address"
        }
      ],
      "name": "OwnershipTransferred",
      "type": "event"
    },
    {
      "anonymous": false,
      "inputs": [
        {
          "indexed": false,
          "internalType": "uint256",
          "name": "amount",
          "type": "uint256"
        }
      ],
      "name": "Supply",
      "type": "event"
    },
    {
      "anonymous": false,
      "inputs": [
        {
          "indexed": false,
          "internalType": "address",
          "name": "account",
          "type": "address"
        },
        {
          "indexed": false,
          "internalType": "uint256",
          "name": "amount",
          "type": "uint256"
        },
        {
          "indexed": false,
          "internalType": "uint256",
          "name": "returned",
          "type": "uint256"
        }
      ],
      "name": "Unlock",
      "type": "event"
    },
    {
      "anonymous": false,
      "inputs": [
        {
          "indexed": false,
          "internalType": "uint256",
          "name": "unbondingInterval",
          "type": "uint256"
        }
      ],
      "name": "UpdateConfigs",
      "type": "event"
    },
    {
      "anonymous": false,
      "inputs": [
        {
          "indexed": false,
          "internalType": "address",
          "name": "account",
          "type": "address"
        },
        {
          "indexed": false,
          "internalType": "bool",
          "name": "status",
          "type": "bool"
        }
      ],
      "name": "UpdateMinterStatus",
      "type": "event"
    },
    {
      "anonymous": false,
      "inputs": [
        {
          "indexed": false,
          "internalType": "address",
          "name": "account",
          "type": "address"
        },
        {
          "indexed": false,
          "internalType": "uint256",
          "name": "amount",
          "type": "uint256"
        }
      ],
      "name": "Withdraw",
      "type": "event"
    },
    {
      "stateMutability": "payable",
      "type": "fallback"
    },
    {
      "inputs": [
        {
          "internalType": "uint256",
          "name": "unbondingInterval_",
          "type": "uint256"
        }
      ],
      "name": "__UnbondedEvmos_init",
      "outputs": [],
      "stateMutability": "nonpayable",
      "type": "function"
    },
    {
      "inputs": [
        {
          "internalType": "uint256",
          "name": "amount",
          "type": "uint256"
        }
      ],
      "name": "amountToShare",
      "outputs": [
        {
          "internalType": "uint256",
          "name": "",
          "type": "uint256"
        }
      ],
      "stateMutability": "view",
      "type": "function"
    },
    {
      "inputs": [
        {
          "internalType": "address",
          "name": "account",
          "type": "address"
        }
      ],
      "name": "balanceOf",
      "outputs": [
        {
          "internalType": "uint256",
          "name": "",
          "type": "uint256"
        }
      ],
      "stateMutability": "view",
      "type": "function"
    },
    {
      "inputs": [],
      "name": "decimals",
      "outputs": [
        {
          "internalType": "uint8",
          "name": "",
          "type": "uint8"
        }
      ],
      "stateMutability": "view",
      "type": "function"
    },
    {
      "inputs": [
        {
          "internalType": "address",
          "name": "account",
          "type": "address"
        }
      ],
      "name": "getUnlockable",
      "outputs": [
        {
          "internalType": "uint256",
          "name": "unlockable",
          "type": "uint256"
        },
        {
          "internalType": "uint256",
          "name": "debt",
          "type": "uint256"
        }
      ],
      "stateMutability": "view",
      "type": "function"
    },
    {
      "inputs": [
        {
          "internalType": "uint256",
          "name": "lockedId",
          "type": "uint256"
        }
      ],
      "name": "isKillable",
      "outputs": [
        {
          "internalType": "bool",
          "name": "",
          "type": "bool"
        }
      ],
      "stateMutability": "view",
      "type": "function"
    },
    {
      "inputs": [
        {
          "internalType": "address",
          "name": "",
          "type": "address"
        }
      ],
      "name": "isMinter",
      "outputs": [
        {
          "internalType": "bool",
          "name": "",
          "type": "bool"
        }
      ],
      "stateMutability": "view",
      "type": "function"
    },
    {
      "inputs": [
        {
          "internalType": "uint256",
          "name": "lockedId",
          "type": "uint256"
        }
      ],
      "name": "kill",
      "outputs": [],
      "stateMutability": "nonpayable",
      "type": "function"
    },
    {
      "inputs": [],
      "name": "lastUnbondedAt",
      "outputs": [
        {
          "internalType": "uint256",
          "name": "",
          "type": "uint256"
        }
      ],
      "stateMutability": "view",
      "type": "function"
    },
    {
      "inputs": [
        {
          "internalType": "address",
          "name": "account",
          "type": "address"
        }
      ],
      "name": "lockedList",
      "outputs": [
        {
          "components": [
            {
              "internalType": "bool",
              "name": "received",
              "type": "bool"
            },
            {
              "internalType": "address",
              "name": "account",
              "type": "address"
            },
            {
              "internalType": "address",
              "name": "vault",
              "type": "address"
            },
            {
              "internalType": "uint256",
              "name": "share",
              "type": "uint256"
            },
            {
              "internalType": "uint256",
              "name": "debtShare",
              "type": "uint256"
            },
            {
              "internalType": "uint256",
              "name": "unlockedAt",
              "type": "uint256"
            }
          ],
          "internalType": "struct UnbondedEvmos.Locked[]",
          "name": "accountLocks",
          "type": "tuple[]"
        }
      ],
      "stateMutability": "view",
      "type": "function"
    },
    {
      "inputs": [
        {
          "internalType": "address",
          "name": "",
          "type": "address"
        }
      ],
      "name": "lockedOf",
      "outputs": [
        {
          "internalType": "uint256",
          "name": "nextUnlocked",
          "type": "uint256"
        }
      ],
      "stateMutability": "view",
      "type": "function"
    },
    {
      "inputs": [
        {
          "internalType": "uint256",
          "name": "",
          "type": "uint256"
        }
      ],
      "name": "locks",
      "outputs": [
        {
          "internalType": "bool",
          "name": "received",
          "type": "bool"
        },
        {
          "internalType": "address",
          "name": "account",
          "type": "address"
        },
        {
          "internalType": "address",
          "name": "vault",
          "type": "address"
        },
        {
          "internalType": "uint256",
          "name": "share",
          "type": "uint256"
        },
        {
          "internalType": "uint256",
          "name": "debtShare",
          "type": "uint256"
        },
        {
          "internalType": "uint256",
          "name": "unlockedAt",
          "type": "uint256"
        }
      ],
      "stateMutability": "view",
      "type": "function"
    },
    {
      "inputs": [],
      "name": "locksLength",
      "outputs": [
        {
          "internalType": "uint256",
          "name": "",
          "type": "uint256"
        }
      ],
      "stateMutability": "view",
      "type": "function"
    },
    {
      "inputs": [
        {
          "internalType": "address",
          "name": "to",
          "type": "address"
        },
        {
          "internalType": "address",
          "name": "vault",
          "type": "address"
        },
        {
          "internalType": "uint256",
          "name": "amount",
          "type": "uint256"
        },
        {
          "internalType": "uint256",
          "name": "debtShare",
          "type": "uint256"
        }
      ],
      "name": "mintLockedToken",
      "outputs": [],
      "stateMutability": "nonpayable",
      "type": "function"
    },
    {
      "inputs": [],
      "name": "name",
      "outputs": [
        {
          "internalType": "string",
          "name": "",
          "type": "string"
        }
      ],
      "stateMutability": "view",
      "type": "function"
    },
    {
      "inputs": [],
      "name": "owner",
      "outputs": [
        {
          "internalType": "address",
          "name": "",
          "type": "address"
        }
      ],
      "stateMutability": "view",
      "type": "function"
    },
    {
      "inputs": [],
      "name": "renounceOwnership",
      "outputs": [],
      "stateMutability": "nonpayable",
      "type": "function"
    },
    {
      "inputs": [
        {
          "internalType": "uint256",
          "name": "share",
          "type": "uint256"
        }
      ],
      "name": "shareToAmount",
      "outputs": [
        {
          "internalType": "uint256",
          "name": "",
          "type": "uint256"
        }
      ],
      "stateMutability": "view",
      "type": "function"
    },
    {
      "inputs": [],
      "name": "supplyUnbondedToken",
      "outputs": [],
      "stateMutability": "payable",
      "type": "function"
    },
    {
      "inputs": [],
      "name": "symbol",
      "outputs": [
        {
          "internalType": "string",
          "name": "",
          "type": "string"
        }
      ],
      "stateMutability": "view",
      "type": "function"
    },
    {
      "inputs": [],
      "name": "totalAmount",
      "outputs": [
        {
          "internalType": "uint256",
          "name": "",
          "type": "uint256"
        }
      ],
      "stateMutability": "view",
      "type": "function"
    },
    {
      "inputs": [],
      "name": "totalSupply",
      "outputs": [
        {
          "internalType": "uint256",
          "name": "",
          "type": "uint256"
        }
      ],
      "stateMutability": "view",
      "type": "function"
    },
    {
      "inputs": [
        {
          "internalType": "address",
          "name": "newOwner",
          "type": "address"
        }
      ],
      "name": "transferOwnership",
      "outputs": [],
      "stateMutability": "nonpayable",
      "type": "function"
    },
    {
      "inputs": [],
      "name": "unbondingInterval",
      "outputs": [
        {
          "internalType": "uint256",
          "name": "",
          "type": "uint256"
        }
      ],
      "stateMutability": "view",
      "type": "function"
    },
    {
      "inputs": [
        {
          "internalType": "uint256",
          "name": "minRepaid",
          "type": "uint256"
        }
      ],
      "name": "unlock",
      "outputs": [],
      "stateMutability": "nonpayable",
      "type": "function"
    },
    {
      "inputs": [
        {
          "internalType": "uint256",
          "name": "_unbondingInterval",
          "type": "uint256"
        }
      ],
      "name": "updateConfigs",
      "outputs": [],
      "stateMutability": "nonpayable",
      "type": "function"
    },
    {
      "inputs": [
        {
          "internalType": "address",
          "name": "account",
          "type": "address"
        },
        {
          "internalType": "bool",
          "name": "status",
          "type": "bool"
        }
      ],
      "name": "updateMinterStatus",
      "outputs": [],
      "stateMutability": "nonpayable",
      "type": "function"
    },
    {
      "stateMutability": "payable",
      "type": "receive"
    }
  ],
  "transactionHash": "0xc9694c954b9155f9e01c0de2fb8208418fec60f367e3466961dc57e0081a1d6b",
  "args": [],
  "numDeployments": 2,
  "solcInputHash": "d986b86957f665cc8046c8158b9e6879",
  "bytecode": "0x608060405234801561001057600080fd5b50611d70806100206000396000f3fe60806040526004361061018b5760003560e01c80638da5cb5b116100e0578063c863017811610084578063e158c1ac11610061578063e158c1ac146104fb578063efc8f3c814610504578063f2fde38b14610524578063f4dadc611461054457005b8063c863017814610486578063cc9bc4af146104bb578063d29a0025146104db57005b80639c6b2896116100bd5780639c6b2896146103fd578063a4086a8f14610413578063a5f1e28214610429578063aa271e1a1461045657005b80638da5cb5b1461037357806395d89b411461039b57806397e7381e146103cd57005b8063313ce56711610147578063633235d011610124578063633235d0146102e857806370a0823114610308578063715018a61461033e57806379564ace1461035357005b8063313ce5671461028b5780635bfc5a6e146102b25780636198e339146102c857005b806306fdde031461019457806318160ddd146101e45780631a39d8ef146102085780631a921b3e1461021e5780632d4047e51461024b5780632d6f80131461026b57005b3661019257005b005b3480156101a057600080fd5b506101ce6040518060400160405280600e81526020016d556e7374616b65642045564d4f5360901b81525081565b6040516101db9190611bed565b60405180910390f35b3480156101f057600080fd5b506101fa60695481565b6040519081526020016101db565b34801561021457600080fd5b506101fa60685481565b34801561022a57600080fd5b5061023e610239366004611a7f565b61059f565b6040516101db9190611b67565b34801561025757600080fd5b506101fa610266366004611b1b565b6107f7565b34801561027757600080fd5b506101fa610286366004611b1b565b61082b565b34801561029757600080fd5b506102a0601281565b60405160ff90911681526020016101db565b3480156102be57600080fd5b506101fa606b5481565b3480156102d457600080fd5b506101926102e3366004611b1b565b610848565b3480156102f457600080fd5b50610192610303366004611aa0565b610867565b34801561031457600080fd5b506101fa610323366004611a7f565b6001600160a01b03166000908152606d602052604090205490565b34801561034a57600080fd5b50610192610ab0565b34801561035f57600080fd5b5061019261036e366004611b1b565b610ac4565b34801561037f57600080fd5b506033546040516001600160a01b0390911681526020016101db565b3480156103a757600080fd5b506101ce604051806040016040528060068152602001657545564d4f5360d01b81525081565b3480156103d957600080fd5b506103ed6103e8366004611b1b565b610b07565b60405190151581526020016101db565b34801561040957600080fd5b506101fa60665481565b34801561041f57600080fd5b506101fa60675481565b34801561043557600080fd5b506101fa610444366004611a7f565b606c6020526000908152604090205481565b34801561046257600080fd5b506103ed610471366004611a7f565b60656020526000908152604090205460ff1681565b34801561049257600080fd5b506104a66104a1366004611a7f565b610c48565b604080519283526020830191909152016101db565b3480156104c757600080fd5b506101926104d6366004611b1b565b610e68565b3480156104e757600080fd5b506101926104f6366004611b1b565b610f83565b61019242606655565b34801561051057600080fd5b5061019261051f366004611ae1565b611198565b34801561053057600080fd5b5061019261053f366004611a7f565b6111fc565b34801561055057600080fd5b5061056461055f366004611b1b565b611275565b6040805196151587526001600160a01b03958616602088015293909416928501929092526060840152608083015260a082015260c0016101db565b6001600160a01b0381166000908152606c602090815260408083208151808301835281548152600182018054845181870281018701909552808552606096959294858401939092919083018282801561061757602002820191906000526020600020905b815481526020019060010190808311610603575b5050509190925250505060208101518051919250908061066c576040805160008082526020820190925290610662565b61064f611a19565b8152602001906001900390816106475790505b5095945050505050565b8251600061067a8284611cc2565b90508067ffffffffffffffff8111156106a357634e487b7160e01b600052604160045260246000fd5b6040519080825280602002602001820160405280156106dc57816020015b6106c9611a19565b8152602001906001900390816106c15790505b50955060005b818110156107ec576000606a866106f98685611c6b565b8151811061071757634e487b7160e01b600052603260045260246000fd5b60200260200101518154811061073d57634e487b7160e01b600052603260045260246000fd5b60009182526020918290206040805160c0810182526005909302909101805460ff8116151584526001600160a01b03610100909104811694840194909452600181015490931690820152600282015460608201526003820154608082015260049091015460a0820152885190915081908990849081106107cd57634e487b7160e01b600052603260045260246000fd5b60200260200101819052505080806107e490611d09565b9150506106e2565b505050505050919050565b600060685460001461082357606854826069546108149190611ca3565b61081e9190611c83565b610825565b815b92915050565b600060695460001461082357606954826068546108149190611ca3565b336000818152606c60205260409020906108639082846112cd565b5050565b3360009081526065602052604090205460ff166108c15760405162461bcd60e51b81526020600482015260136024820152723aa2ab26a7a99d102737ba1036b4b73a32b91760691b60448201526064015b60405180910390fd5b600082116109115760405162461bcd60e51b815260206004820152601c60248201527f6d696e744c6f636b6564546f6b656e3a20616d6f756e74203c3d20300000000060448201526064016108b8565b6001600160a01b0384166000908152606c60205260409020610935858260016112cd565b606a6040518060c00160405280600015158152602001336001600160a01b03168152602001866001600160a01b03168152602001610972866107f7565b8152602001848152602001606754426066541161098f5742610993565b6066545b61099d9190611c6b565b90528154600180820184556000938452602080852084516005909402018054918501516001600160a81b0319909216931515610100600160a81b031916939093176101006001600160a01b0392831602178355604084015183830180546001600160a01b03191691909216179055606083015160028301556080830151600383015560a090920151600490910155606a54610a389190611cc2565b600180840180549182018155600090815260209020018190559050610a5d868561145b565b604080516001600160a01b038089168252871660208201529081018290527fec36c0364d931187a76cf66d7eee08fad0ec2e8b7458a8d8b26b36769d4d13f39060600160405180910390a1505050505050565b610ab8611520565b610ac2600061157a565b565b610acc611520565b60678190556040518181527f78a3671679b68721aaad9eb74535be0be119bd34c0efa671eb6ab3210d1fe2579060200160405180910390a150565b600080606a8381548110610b2b57634e487b7160e01b600052603260045260246000fd5b60009182526020918290206040805160c0810182526005909302909101805460ff8116151584526001600160a01b03610100909104811694840194909452600181015490931690820152600282015460608201526003820154608082015260049091015460a08201819052909150421015610ba95750600092915050565b60408082015160208301519151635eeff10160e01b81526001600160a01b03928316600482015260009290911690635eeff1019060240160206040518083038186803b158015610bf857600080fd5b505afa158015610c0c573d6000803e3d6000fd5b505050506040513d601f19601f82011682018060405250810190610c309190611b33565b9050610c3f826060015161082b565b11159392505050565b6001600160a01b0381166000908152606c602090815260408083208054600190910180548351818602810186019094528084528594929390928592908490830182828015610cb557602002820191906000526020600020905b815481526020019060010190808311610ca1575b5050505050905081831415610cd257506000958695509350505050565b825b82811015610e54576000606a838381518110610d0057634e487b7160e01b600052603260045260246000fd5b602002602001015181548110610d2657634e487b7160e01b600052603260045260246000fd5b60009182526020918290206040805160c0810182526005909302909101805460ff8116151584526001600160a01b03610100909104811694840194909452600181015490931690820152600282015460608201526003820154608082015260049091015460a082018190529091504210610e3b576060810151610da99088611c6b565b6040808301519051635eeff10160e01b81526001600160a01b038b81166004830152929950911690635eeff1019060240160206040518083038186803b158015610df257600080fd5b505afa158015610e06573d6000803e3d6000fd5b505050506040513d601f19601f82011682018060405250810190610e2a9190611b33565b610e349087611c6b565b9550610e41565b50610e54565b5080610e4c81611d09565b915050610cd4565b50610e5e8561082b565b9450505050915091565b600054610100900460ff1615808015610e885750600054600160ff909116105b80610ea25750303b158015610ea2575060005460ff166001145b610f055760405162461bcd60e51b815260206004820152602e60248201527f496e697469616c697a61626c653a20636f6e747261637420697320616c72656160448201526d191e481a5b9a5d1a585b1a5e995960921b60648201526084016108b8565b6000805460ff191660011790558015610f28576000805461ff0019166101001790555b610f306115cc565b610f3982610ac4565b8015610863576000805461ff0019169055604051600181527f7f26b83ff96e1f2b6a682f133852f6798a09c465da95921460cefb3847402498906020015b60405180910390a15050565b6000606a8281548110610fa657634e487b7160e01b600052603260045260246000fd5b90600052602060002090600502019050428160040154111561100a5760405162461bcd60e51b815260206004820152601b60248201527f7545564d4f53204b696c6c3a2043616e6e6f7420556e6c6f636b2e000000000060448201526064016108b8565b60018101548154604051635eeff10160e01b81526101009091046001600160a01b0390811660048301526000921690635eeff1019060240160206040518083038186803b15801561105a57600080fd5b505afa15801561106e573d6000803e3d6000fd5b505050506040513d601f19601f820116820180604052508101906110929190611b33565b905060006110a3836002015461082b565b9050808210156110f55760405162461bcd60e51b815260206004820152601860248201527f7545564d4f53204b696c6c3a205374696c6c20736166652e000000000000000060448201526064016108b8565b6001838101548454604051639d2e6fcb60e01b81526001600160a01b036101009092048216600482015260248101939093521690639d2e6fcb9083906044016020604051808303818588803b15801561114d57600080fd5b505af1158015611161573d6000803e3d6000fd5b50505050506040513d601f19601f820116820180604052508101906111869190611b33565b5050815460ff19166001179091555050565b6111a0611520565b6001600160a01b038216600081815260656020908152604091829020805460ff19168515159081179091558251938452908301527ff6c10b2804d0174249f23bd4c462fb3e65ea16bf2b6896effe8a09f8f6a8e3b09101610f77565b611204611520565b6001600160a01b0381166112695760405162461bcd60e51b815260206004820152602660248201527f4f776e61626c653a206e6577206f776e657220697320746865207a65726f206160448201526564647265737360d01b60648201526084016108b8565b6112728161157a565b50565b606a818154811061128557600080fd5b60009182526020909120600590910201805460018201546002830154600384015460049094015460ff841695506101009093046001600160a01b039081169492169290919086565b6001600160a01b0383166000908152606c6020526040902080546001820154919350908082106112fe575050505050565b600080835b838110156113d957600087600101828154811061133057634e487b7160e01b600052603260045260246000fd5b906000526020600020015490506000606a828154811061136057634e487b7160e01b600052603260045260246000fd5b90600052602060002090600502019050428160040154116113bd57600281015461138a9086611c6b565b9450600080611399838b6115fb565b90925090506113a88288611c6b565b96506113b48187611c6b565b955050506113c4565b50506113d9565b505080806113d190611d09565b915050611303565b8215611451576113ea816001611c6b565b87556113f688846117fb565b8115611406576114068883611932565b604080516001600160a01b038a168152602081018590529081018390527ff7870c5b224cbc19873599e46ccfc7103934650509b1af0c3ce90138377c20049060600160405180910390a15b5050505050505050565b6001600160a01b0382166114b15760405162461bcd60e51b815260206004820181905260248201527f7545564d4f533a206d696e7420746f20746865207a65726f206164647265737360448201526064016108b8565b60006114bc826107f7565b905081606860008282546114d09190611c6b565b9250508190555080606960008282546114e99190611c6b565b90915550506001600160a01b0383166000908152606d602052604081208054839290611516908490611c6b565b9091555050505050565b6033546001600160a01b03163314610ac25760405162461bcd60e51b815260206004820181905260248201527f4f776e61626c653a2063616c6c6572206973206e6f7420746865206f776e657260448201526064016108b8565b603380546001600160a01b038381166001600160a01b0319831681179093556040519116919082907f8be0079c531659141344cd1fd0a4f28419497f9722a3daafe3b4186f6b6457e090600090a35050565b600054610100900460ff166115f35760405162461bcd60e51b81526004016108b890611c20565b610ac26119e9565b60018201548254600284015460009283926001600160a01b039182169261010090910490911690839061162d9061082b565b90506000836001600160a01b0316631ce9ba3689600301546040518263ffffffff1660e01b815260040161166391815260200190565b60206040518083038186803b15801561167b57600080fd5b505afa15801561168f573d6000803e3d6000fd5b505050506040513d601f19601f820116820180604052508101906116b39190611b33565b885460ff19166001178955905080821061176457604051639d2e6fcb60e01b81526001600160a01b03848116600483015260248201899052851690639d2e6fcb9083906044016020604051808303818588803b15801561171257600080fd5b505af1158015611726573d6000803e3d6000fd5b50505050506040513d601f19601f8201168201806040525081019061174b9190611b33565b50816117578282611cc2565b95509550505050506117f4565b604051639d2e6fcb60e01b81526001600160a01b03848116600483015260248201899052851690639d2e6fcb9084906044016020604051808303818588803b1580156117af57600080fd5b505af11580156117c3573d6000803e3d6000fd5b50505050506040513d601f19601f820116820180604052508101906117e89190611b33565b50909450600093505050505b9250929050565b6001600160a01b03821661185c5760405162461bcd60e51b815260206004820152602260248201527f7545564d4f533a206275726e2066726f6d20746865207a65726f206164647265604482015261737360f01b60648201526084016108b8565b60006118678261082b565b6001600160a01b0384166000908152606d6020526040902054909150818110156118df5760405162461bcd60e51b815260206004820152602360248201527f7545564d4f533a206275726e20616d6f756e7420657863656564732062616c616044820152626e636560e81b60648201526084016108b8565b6001600160a01b0384166000908152606d6020526040812083830390556069805485929061190e908490611cc2565b9250508190555081606860008282546119279190611cc2565b909155505050505050565b604080516000808252602082019092526001600160a01b03841690839060405161195c9190611b4b565b60006040518083038185875af1925050503d8060008114611999576040519150601f19603f3d011682016040523d82523d6000602084013e61199e565b606091505b50509050806119e45760405162461bcd60e51b815260206004820152601260248201527121736166655472616e7366657245564d4f5360701b60448201526064016108b8565b505050565b600054610100900460ff16611a105760405162461bcd60e51b81526004016108b890611c20565b610ac23361157a565b6040518060c0016040528060001515815260200160006001600160a01b0316815260200160006001600160a01b031681526020016000815260200160008152602001600081525090565b80356001600160a01b0381168114611a7a57600080fd5b919050565b600060208284031215611a90578081fd5b611a9982611a63565b9392505050565b60008060008060808587031215611ab5578283fd5b611abe85611a63565b9350611acc60208601611a63565b93969395505050506040820135916060013590565b60008060408385031215611af3578182fd5b611afc83611a63565b915060208301358015158114611b10578182fd5b809150509250929050565b600060208284031215611b2c578081fd5b5035919050565b600060208284031215611b44578081fd5b5051919050565b60008251611b5d818460208701611cd9565b9190910192915050565b602080825282518282018190526000919060409081850190868401855b82811015611be0578151805115158552868101516001600160a01b0390811688870152868201511686860152606080820151908601526080808201519086015260a0908101519085015260c09093019290850190600101611b84565b5091979650505050505050565b6020815260008251806020840152611c0c816040850160208701611cd9565b601f01601f19169190910160400192915050565b6020808252602b908201527f496e697469616c697a61626c653a20636f6e7472616374206973206e6f74206960408201526a6e697469616c697a696e6760a81b606082015260800190565b60008219821115611c7e57611c7e611d24565b500190565b600082611c9e57634e487b7160e01b81526012600452602481fd5b500490565b6000816000190483118215151615611cbd57611cbd611d24565b500290565b600082821015611cd457611cd4611d24565b500390565b60005b83811015611cf4578181015183820152602001611cdc565b83811115611d03576000848401525b50505050565b6000600019821415611d1d57611d1d611d24565b5060010190565b634e487b7160e01b600052601160045260246000fdfea2646970667358221220656a0f850a37b7fd000f90cfd15611fc10f485fd3f9f069bc074323d5e834ce464736f6c63430008040033",
  "devdoc": {
    "kind": "dev",
    "methods": {
      "getUnlockable(address)": {
        "details": "calc user's unlockable uEVMOS(includes debt) & debt"
      },
      "mintLockedToken(address,address,uint256,uint256)": {
        "details": "mint & lock uEVMOS"
      },
      "owner()": {
        "details": "Returns the address of the current owner."
      },
      "renounceOwnership()": {
        "details": "Leaves the contract without owner. It will not be possible to call `onlyOwner` functions anymore. Can only be called by the current owner. NOTE: Renouncing ownership will leave the contract without an owner, thereby removing any functionality that is only available to the owner."
      },
      "transferOwnership(address)": {
        "details": "Transfers ownership of the contract to a new account (`newOwner`). Can only be called by the current owner."
      }
    },
    "version": 1
  },
  "userdoc": {
    "kind": "user",
    "methods": {
      "__UnbondedEvmos_init(uint256)": {
        "notice": "should set minter (maybe Stayking) after deployed"
      },
      "amountToShare(uint256)": {
        "notice": "   (  / totalAmount) * totalSupply  share ."
      },
      "isKillable(uint256)": {
        "notice": "TODO kor)   unstake  ,       .   100%    unlock   ."
      }
    },
    "version": 1
  },
  "storageLayout": {
    "storage": [
      {
        "astId": 2413,
        "contract": "contracts/token/UnbondedEvmos.sol:UnbondedEvmos",
        "label": "_initialized",
        "offset": 0,
        "slot": "0",
        "type": "t_uint8"
      },
      {
        "astId": 2416,
        "contract": "contracts/token/UnbondedEvmos.sol:UnbondedEvmos",
        "label": "_initializing",
        "offset": 1,
        "slot": "0",
        "type": "t_bool"
      },
      {
        "astId": 1178,
        "contract": "contracts/token/UnbondedEvmos.sol:UnbondedEvmos",
        "label": "__gap",
        "offset": 0,
        "slot": "1",
        "type": "t_array(t_uint256)50_storage"
      },
      {
        "astId": 2681,
        "contract": "contracts/token/UnbondedEvmos.sol:UnbondedEvmos",
        "label": "_owner",
        "offset": 0,
        "slot": "51",
        "type": "t_address"
      },
      {
        "astId": 2801,
        "contract": "contracts/token/UnbondedEvmos.sol:UnbondedEvmos",
        "label": "__gap",
        "offset": 0,
        "slot": "52",
        "type": "t_array(t_uint256)49_storage"
      },
      {
        "astId": 5979,
        "contract": "contracts/token/UnbondedEvmos.sol:UnbondedEvmos",
        "label": "isMinter",
        "offset": 0,
        "slot": "101",
        "type": "t_mapping(t_address,t_bool)"
      },
      {
        "astId": 5991,
        "contract": "contracts/token/UnbondedEvmos.sol:UnbondedEvmos",
        "label": "lastUnbondedAt",
        "offset": 0,
        "slot": "102",
        "type": "t_uint256"
      },
      {
        "astId": 5994,
        "contract": "contracts/token/UnbondedEvmos.sol:UnbondedEvmos",
        "label": "unbondingInterval",
        "offset": 0,
        "slot": "103",
        "type": "t_uint256"
      },
      {
        "astId": 5997,
        "contract": "contracts/token/UnbondedEvmos.sol:UnbondedEvmos",
        "label": "totalAmount",
        "offset": 0,
        "slot": "104",
        "type": "t_uint256"
      },
      {
        "astId": 6000,
        "contract": "contracts/token/UnbondedEvmos.sol:UnbondedEvmos",
        "label": "totalSupply",
        "offset": 0,
        "slot": "105",
        "type": "t_uint256"
      },
      {
        "astId": 6017,
        "contract": "contracts/token/UnbondedEvmos.sol:UnbondedEvmos",
        "label": "locks",
        "offset": 0,
        "slot": "106",
        "type": "t_array(t_struct(Locked)6013_storage)dyn_storage"
      },
      {
        "astId": 6019,
        "contract": "contracts/token/UnbondedEvmos.sol:UnbondedEvmos",
        "label": "locksLength",
        "offset": 0,
        "slot": "107",
        "type": "t_uint256"
      },
      {
        "astId": 6030,
        "contract": "contracts/token/UnbondedEvmos.sol:UnbondedEvmos",
        "label": "lockedOf",
        "offset": 0,
        "slot": "108",
        "type": "t_mapping(t_address,t_struct(LockedQueue)6025_storage)"
      },
      {
        "astId": 6034,
        "contract": "contracts/token/UnbondedEvmos.sol:UnbondedEvmos",
        "label": "_balances",
        "offset": 0,
        "slot": "109",
        "type": "t_mapping(t_address,t_uint256)"
      }
    ],
    "types": {
      "t_address": {
        "encoding": "inplace",
        "label": "address",
        "numberOfBytes": "20"
      },
      "t_array(t_struct(Locked)6013_storage)dyn_storage": {
        "base": "t_struct(Locked)6013_storage",
        "encoding": "dynamic_array",
        "label": "struct UnbondedEvmos.Locked[]",
        "numberOfBytes": "32"
      },
      "t_array(t_uint256)49_storage": {
        "base": "t_uint256",
        "encoding": "inplace",
        "label": "uint256[49]",
        "numberOfBytes": "1568"
      },
      "t_array(t_uint256)50_storage": {
        "base": "t_uint256",
        "encoding": "inplace",
        "label": "uint256[50]",
        "numberOfBytes": "1600"
      },
      "t_array(t_uint256)dyn_storage": {
        "base": "t_uint256",
        "encoding": "dynamic_array",
        "label": "uint256[]",
        "numberOfBytes": "32"
      },
      "t_bool": {
        "encoding": "inplace",
        "label": "bool",
        "numberOfBytes": "1"
      },
      "t_mapping(t_address,t_bool)": {
        "encoding": "mapping",
        "key": "t_address",
        "label": "mapping(address => bool)",
        "numberOfBytes": "32",
        "value": "t_bool"
      },
      "t_mapping(t_address,t_struct(LockedQueue)6025_storage)": {
        "encoding": "mapping",
        "key": "t_address",
        "label": "mapping(address => struct UnbondedEvmos.LockedQueue)",
        "numberOfBytes": "32",
        "value": "t_struct(LockedQueue)6025_storage"
      },
      "t_mapping(t_address,t_uint256)": {
        "encoding": "mapping",
        "key": "t_address",
        "label": "mapping(address => uint256)",
        "numberOfBytes": "32",
        "value": "t_uint256"
      },
      "t_struct(Locked)6013_storage": {
        "encoding": "inplace",
        "label": "struct UnbondedEvmos.Locked",
        "members": [
          {
            "astId": 6002,
            "contract": "contracts/token/UnbondedEvmos.sol:UnbondedEvmos",
            "label": "received",
            "offset": 0,
            "slot": "0",
            "type": "t_bool"
          },
          {
            "astId": 6004,
            "contract": "contracts/token/UnbondedEvmos.sol:UnbondedEvmos",
            "label": "account",
            "offset": 1,
            "slot": "0",
            "type": "t_address"
          },
          {
            "astId": 6006,
            "contract": "contracts/token/UnbondedEvmos.sol:UnbondedEvmos",
            "label": "vault",
            "offset": 0,
            "slot": "1",
            "type": "t_address"
          },
          {
            "astId": 6008,
            "contract": "contracts/token/UnbondedEvmos.sol:UnbondedEvmos",
            "label": "share",
            "offset": 0,
            "slot": "2",
            "type": "t_uint256"
          },
          {
            "astId": 6010,
            "contract": "contracts/token/UnbondedEvmos.sol:UnbondedEvmos",
            "label": "debtShare",
            "offset": 0,
            "slot": "3",
            "type": "t_uint256"
          },
          {
            "astId": 6012,
            "contract": "contracts/token/UnbondedEvmos.sol:UnbondedEvmos",
            "label": "unlockedAt",
            "offset": 0,
            "slot": "4",
            "type": "t_uint256"
          }
        ],
        "numberOfBytes": "160"
      },
      "t_struct(LockedQueue)6025_storage": {
        "encoding": "inplace",
        "label": "struct UnbondedEvmos.LockedQueue",
        "members": [
          {
            "astId": 6021,
            "contract": "contracts/token/UnbondedEvmos.sol:UnbondedEvmos",
            "label": "nextUnlocked",
            "offset": 0,
            "slot": "0",
            "type": "t_uint256"
          },
          {
            "astId": 6024,
            "contract": "contracts/token/UnbondedEvmos.sol:UnbondedEvmos",
            "label": "lockedIds",
            "offset": 0,
            "slot": "1",
            "type": "t_array(t_uint256)dyn_storage"
          }
        ],
        "numberOfBytes": "64"
      },
      "t_uint256": {
        "encoding": "inplace",
        "label": "uint256",
        "numberOfBytes": "32"
      },
      "t_uint8": {
        "encoding": "inplace",
        "label": "uint8",
        "numberOfBytes": "1"
      }
    }
  }
}