{
  "address": "0xFD296cCDB97C605bfdE514e9810eA05f421DEBc2",
  "abi": [
    {
      "anonymous": false,
      "inputs": [
        {
          "indexed": false,
          "internalType": "uint8",
          "name": "version",
          "type": "uint8"
        }
      ],
      "name": "Initialized",
      "type": "event"
    },
    {
      "anonymous": false,
      "inputs": [
        {
          "indexed": false,
          "internalType": "address",
          "name": "account",
          "type": "address"
        },
        {
          "indexed": false,
          "internalType": "address",
          "name": "vault",
          "type": "address"
        },
        {
          "indexed": false,
          "internalType": "uint256",
          "name": "lockedIndex",
          "type": "uint256"
        }
      ],
      "name": "Lock",
      "type": "event"
    },
    {
      "anonymous": false,
      "inputs": [
        {
          "indexed": true,
          "internalType": "address",
          "name": "previousOwner",
          "type": "address"
        },
        {
          "indexed": true,
          "internalType": "address",
          "name": "newOwner",
          "type": "address"
        }
      ],
      "name": "OwnershipTransferred",
      "type": "event"
    },
    {
      "anonymous": false,
      "inputs": [
        {
          "indexed": false,
          "internalType": "uint256",
          "name": "amount",
          "type": "uint256"
        }
      ],
      "name": "Supply",
      "type": "event"
    },
    {
      "anonymous": false,
      "inputs": [
        {
          "indexed": false,
          "internalType": "address",
          "name": "account",
          "type": "address"
        },
        {
          "indexed": false,
          "internalType": "uint256",
          "name": "amount",
          "type": "uint256"
        },
        {
          "indexed": false,
          "internalType": "uint256",
          "name": "returned",
          "type": "uint256"
        }
      ],
      "name": "Unlock",
      "type": "event"
    },
    {
      "anonymous": false,
      "inputs": [
        {
          "indexed": false,
          "internalType": "uint256",
          "name": "unbondingInterval",
          "type": "uint256"
        }
      ],
      "name": "UpdateConfigs",
      "type": "event"
    },
    {
      "anonymous": false,
      "inputs": [
        {
          "indexed": false,
          "internalType": "address",
          "name": "account",
          "type": "address"
        },
        {
          "indexed": false,
          "internalType": "bool",
          "name": "status",
          "type": "bool"
        }
      ],
      "name": "UpdateMinterStatus",
      "type": "event"
    },
    {
      "anonymous": false,
      "inputs": [
        {
          "indexed": false,
          "internalType": "address",
          "name": "account",
          "type": "address"
        },
        {
          "indexed": false,
          "internalType": "uint256",
          "name": "amount",
          "type": "uint256"
        }
      ],
      "name": "Withdraw",
      "type": "event"
    },
    {
      "stateMutability": "payable",
      "type": "fallback"
    },
    {
      "inputs": [
        {
          "internalType": "uint256",
          "name": "unbondingInterval_",
          "type": "uint256"
        }
      ],
      "name": "__UnbondedEvmos_init",
      "outputs": [],
      "stateMutability": "nonpayable",
      "type": "function"
    },
    {
      "inputs": [
        {
          "internalType": "uint256",
          "name": "amount",
          "type": "uint256"
        }
      ],
      "name": "amountToShare",
      "outputs": [
        {
          "internalType": "uint256",
          "name": "",
          "type": "uint256"
        }
      ],
      "stateMutability": "view",
      "type": "function"
    },
    {
      "inputs": [
        {
          "internalType": "address",
          "name": "account",
          "type": "address"
        }
      ],
      "name": "balanceOf",
      "outputs": [
        {
          "internalType": "uint256",
          "name": "",
          "type": "uint256"
        }
      ],
      "stateMutability": "view",
      "type": "function"
    },
    {
      "inputs": [],
      "name": "decimals",
      "outputs": [
        {
          "internalType": "uint8",
          "name": "",
          "type": "uint8"
        }
      ],
      "stateMutability": "view",
      "type": "function"
    },
    {
      "inputs": [
        {
          "internalType": "address",
          "name": "account",
          "type": "address"
        }
      ],
      "name": "getUnlockable",
      "outputs": [
        {
          "internalType": "uint256",
          "name": "unlockable",
          "type": "uint256"
        },
        {
          "internalType": "uint256",
          "name": "debt",
          "type": "uint256"
        }
      ],
      "stateMutability": "view",
      "type": "function"
    },
    {
      "inputs": [
        {
          "internalType": "uint256",
          "name": "lockedId",
          "type": "uint256"
        }
      ],
      "name": "isKillable",
      "outputs": [
        {
          "internalType": "bool",
          "name": "",
          "type": "bool"
        }
      ],
      "stateMutability": "view",
      "type": "function"
    },
    {
      "inputs": [
        {
          "internalType": "address",
          "name": "",
          "type": "address"
        }
      ],
      "name": "isMinter",
      "outputs": [
        {
          "internalType": "bool",
          "name": "",
          "type": "bool"
        }
      ],
      "stateMutability": "view",
      "type": "function"
    },
    {
      "inputs": [
        {
          "internalType": "uint256",
          "name": "lockedId",
          "type": "uint256"
        }
      ],
      "name": "kill",
      "outputs": [],
      "stateMutability": "nonpayable",
      "type": "function"
    },
    {
      "inputs": [],
      "name": "lastUnbondedAt",
      "outputs": [
        {
          "internalType": "uint256",
          "name": "",
          "type": "uint256"
        }
      ],
      "stateMutability": "view",
      "type": "function"
    },
    {
      "inputs": [
        {
          "internalType": "address",
          "name": "",
          "type": "address"
        }
      ],
      "name": "lockedOf",
      "outputs": [
        {
          "internalType": "uint128",
          "name": "front",
          "type": "uint128"
        },
        {
          "internalType": "uint128",
          "name": "rear",
          "type": "uint128"
        }
      ],
      "stateMutability": "view",
      "type": "function"
    },
    {
      "inputs": [
        {
          "internalType": "uint256",
          "name": "",
          "type": "uint256"
        }
      ],
      "name": "locks",
      "outputs": [
        {
          "internalType": "bool",
          "name": "received",
          "type": "bool"
        },
        {
          "internalType": "address",
          "name": "account",
          "type": "address"
        },
        {
          "internalType": "address",
          "name": "vault",
          "type": "address"
        },
        {
          "internalType": "uint256",
          "name": "share",
          "type": "uint256"
        },
        {
          "internalType": "uint256",
          "name": "debtShare",
          "type": "uint256"
        },
        {
          "internalType": "uint256",
          "name": "unlockedAt",
          "type": "uint256"
        }
      ],
      "stateMutability": "view",
      "type": "function"
    },
    {
      "inputs": [],
      "name": "locksLength",
      "outputs": [
        {
          "internalType": "uint256",
          "name": "",
          "type": "uint256"
        }
      ],
      "stateMutability": "view",
      "type": "function"
    },
    {
      "inputs": [
        {
          "internalType": "address",
          "name": "to",
          "type": "address"
        },
        {
          "internalType": "address",
          "name": "vault",
          "type": "address"
        },
        {
          "internalType": "uint256",
          "name": "amount",
          "type": "uint256"
        },
        {
          "internalType": "uint256",
          "name": "debtShare",
          "type": "uint256"
        }
      ],
      "name": "mintLockedToken",
      "outputs": [],
      "stateMutability": "nonpayable",
      "type": "function"
    },
    {
      "inputs": [],
      "name": "name",
      "outputs": [
        {
          "internalType": "string",
          "name": "",
          "type": "string"
        }
      ],
      "stateMutability": "view",
      "type": "function"
    },
    {
      "inputs": [],
      "name": "owner",
      "outputs": [
        {
          "internalType": "address",
          "name": "",
          "type": "address"
        }
      ],
      "stateMutability": "view",
      "type": "function"
    },
    {
      "inputs": [],
      "name": "renounceOwnership",
      "outputs": [],
      "stateMutability": "nonpayable",
      "type": "function"
    },
    {
      "inputs": [
        {
          "internalType": "uint256",
          "name": "share",
          "type": "uint256"
        }
      ],
      "name": "shareToAmount",
      "outputs": [
        {
          "internalType": "uint256",
          "name": "",
          "type": "uint256"
        }
      ],
      "stateMutability": "view",
      "type": "function"
    },
    {
      "inputs": [],
      "name": "supplyUnbondedToken",
      "outputs": [],
      "stateMutability": "payable",
      "type": "function"
    },
    {
      "inputs": [],
      "name": "symbol",
      "outputs": [
        {
          "internalType": "string",
          "name": "",
          "type": "string"
        }
      ],
      "stateMutability": "view",
      "type": "function"
    },
    {
      "inputs": [],
      "name": "totalAmount",
      "outputs": [
        {
          "internalType": "uint256",
          "name": "",
          "type": "uint256"
        }
      ],
      "stateMutability": "view",
      "type": "function"
    },
    {
      "inputs": [],
      "name": "totalSupply",
      "outputs": [
        {
          "internalType": "uint256",
          "name": "",
          "type": "uint256"
        }
      ],
      "stateMutability": "view",
      "type": "function"
    },
    {
      "inputs": [
        {
          "internalType": "address",
          "name": "newOwner",
          "type": "address"
        }
      ],
      "name": "transferOwnership",
      "outputs": [],
      "stateMutability": "nonpayable",
      "type": "function"
    },
    {
      "inputs": [],
      "name": "unbondingInterval",
      "outputs": [
        {
          "internalType": "uint256",
          "name": "",
          "type": "uint256"
        }
      ],
      "stateMutability": "view",
      "type": "function"
    },
    {
      "inputs": [
        {
          "internalType": "uint256",
          "name": "minRepaid",
          "type": "uint256"
        }
      ],
      "name": "unlock",
      "outputs": [],
      "stateMutability": "nonpayable",
      "type": "function"
    },
    {
      "inputs": [
        {
          "internalType": "uint256",
          "name": "_unbondingInterval",
          "type": "uint256"
        }
      ],
      "name": "updateConfigs",
      "outputs": [],
      "stateMutability": "nonpayable",
      "type": "function"
    },
    {
      "inputs": [
        {
          "internalType": "address",
          "name": "account",
          "type": "address"
        },
        {
          "internalType": "bool",
          "name": "status",
          "type": "bool"
        }
      ],
      "name": "updateMinterStatus",
      "outputs": [],
      "stateMutability": "nonpayable",
      "type": "function"
    },
    {
      "stateMutability": "payable",
      "type": "receive"
    }
  ],
  "transactionHash": "0x841bba63f46e0eff62aef235247259bdee591b42b3aba748145bd8e3ce3ed775",
  "args": [],
  "numDeployments": 1,
  "solcInputHash": "9a86b7b2a1561586849e4183f8a88675",
  "bytecode": "0x608060405234801561001057600080fd5b50613154806100206000396000f3fe6080604052600436106101855760003560e01c806395d89b41116100d1578063c86301781161008a578063e158c1ac11610064578063e158c1ac146105a2578063efc8f3c8146105ac578063f2fde38b146105d5578063f4dadc61146105fe5761018c565b8063c863017814610512578063cc9bc4af14610550578063d29a0025146105795761018c565b806395d89b41146103d957806397e7381e146104045780639c6b289614610441578063a4086a8f1461046c578063a5f1e28214610497578063aa271e1a146104d55761018c565b80635bfc5a6e1161013e57806370a082311161011857806370a0823114610331578063715018a61461036e57806379564ace146103855780638da5cb5b146103ae5761018c565b80635bfc5a6e146102b45780636198e339146102df578063633235d0146103085761018c565b806306fdde031461018e57806318160ddd146101b95780631a39d8ef146101e45780632d4047e51461020f5780632d6f80131461024c578063313ce567146102895761018c565b3661018c57005b005b34801561019a57600080fd5b506101a3610640565b6040516101b09190612908565b60405180910390f35b3480156101c557600080fd5b506101ce610679565b6040516101db9190612ad3565b60405180910390f35b3480156101f057600080fd5b506101f961067f565b6040516102069190612ad3565b60405180910390f35b34801561021b57600080fd5b506102366004803603810190610231919061248d565b610685565b6040516102439190612ad3565b60405180910390f35b34801561025857600080fd5b50610273600480360381019061026e919061248d565b6106b9565b6040516102809190612ad3565b60405180910390f35b34801561029557600080fd5b5061029e6106ed565b6040516102ab9190612b17565b60405180910390f35b3480156102c057600080fd5b506102c96106f2565b6040516102d69190612ad3565b60405180910390f35b3480156102eb57600080fd5b506103066004803603810190610301919061248d565b6106f8565b005b34801561031457600080fd5b5061032f600480360381019061032a91906123ee565b61074a565b005b34801561033d57600080fd5b50610358600480360381019061035391906123c5565b610b35565b6040516103659190612ad3565b60405180910390f35b34801561037a57600080fd5b50610383610b7e565b005b34801561039157600080fd5b506103ac60048036038101906103a7919061248d565b610b92565b005b3480156103ba57600080fd5b506103c3610bdb565b6040516103d0919061276d565b60405180910390f35b3480156103e557600080fd5b506103ee610c05565b6040516103fb9190612908565b60405180910390f35b34801561041057600080fd5b5061042b6004803603810190610426919061248d565b610c3e565b6040516104389190612871565b60405180910390f35b34801561044d57600080fd5b50610456610e40565b6040516104639190612ad3565b60405180910390f35b34801561047857600080fd5b50610481610e46565b60405161048e9190612ad3565b60405180910390f35b3480156104a357600080fd5b506104be60048036038101906104b991906123c5565b610e4c565b6040516104cc929190612aaa565b60405180910390f35b3480156104e157600080fd5b506104fc60048036038101906104f791906123c5565b610ea8565b6040516105099190612871565b60405180910390f35b34801561051e57600080fd5b50610539600480360381019061053491906123c5565b610ec8565b604051610547929190612aee565b60405180910390f35b34801561055c57600080fd5b506105776004803603810190610572919061248d565b611309565b005b34801561058557600080fd5b506105a0600480360381019061059b919061248d565b611451565b005b6105aa611708565b005b3480156105b857600080fd5b506105d360048036038101906105ce9190612451565b611711565b005b3480156105e157600080fd5b506105fc60048036038101906105f791906123c5565b6117ad565b005b34801561060a57600080fd5b506106256004803603810190610620919061248d565b611831565b6040516106379695949392919061288c565b60405180910390f35b6040518060400160405280600e81526020017f556e7374616b65642045564d4f5300000000000000000000000000000000000081525081565b606c5481565b606d5481565b600080606d54146106b057606d5482606c546106a19190612c31565b6106ab9190612c00565b6106b2565b815b9050919050565b600080606c54146106e457606c5482606d546106d59190612c31565b6106df9190612c00565b6106e6565b815b9050919050565b601281565b60695481565b6000606a60003373ffffffffffffffffffffffffffffffffffffffff1673ffffffffffffffffffffffffffffffffffffffff16815260200190815260200160002090506107463382846118ca565b5050565b606560003373ffffffffffffffffffffffffffffffffffffffff1673ffffffffffffffffffffffffffffffffffffffff16815260200190815260200160002060009054906101000a900460ff166107d6576040517f08c379a00000000000000000000000000000000000000000000000000000000081526004016107cd90612a2a565b60405180910390fd5b60008211610819576040517f08c379a000000000000000000000000000000000000000000000000000000000815260040161081090612a0a565b60405180910390fd5b6000606a60008673ffffffffffffffffffffffffffffffffffffffff1673ffffffffffffffffffffffffffffffffffffffff1681526020019081526020016000209050610868858260016118ca565b600061087384610685565b905060686040518060c001604052806000151581526020013373ffffffffffffffffffffffffffffffffffffffff1681526020018773ffffffffffffffffffffffffffffffffffffffff16815260200183815260200185815260200160675442606654116108e157426108e5565b6066545b6108ef9190612baa565b815250908060018154018082558091505060019003906000526020600020906005020160009091909190915060008201518160000160006101000a81548160ff02191690831515021790555060208201518160000160016101000a81548173ffffffffffffffffffffffffffffffffffffffff021916908373ffffffffffffffffffffffffffffffffffffffff16021790555060408201518160010160006101000a81548173ffffffffffffffffffffffffffffffffffffffff021916908373ffffffffffffffffffffffffffffffffffffffff160217905550606082015181600201556080820151816003015560a08201518160040155505060016068805490506109fb9190612c8b565b60698190555060008260000160109054906101000a90046fffffffffffffffffffffffffffffffff16905060695483600101826fffffffffffffffffffffffffffffffff1681548110610a77577f4e487b7100000000000000000000000000000000000000000000000000000000600052603260045260246000fd5b9060005260206000200181905550600181610a929190612b64565b8360000160106101000a8154816fffffffffffffffffffffffffffffffff02191690836fffffffffffffffffffffffffffffffff16021790555084606d6000828254610ade9190612baa565b92505081905550610aef8783611b7e565b7fec36c0364d931187a76cf66d7eee08fad0ec2e8b7458a8d8b26b36769d4d13f38787606954604051610b2493929190612788565b60405180910390a150505050505050565b6000606b60008373ffffffffffffffffffffffffffffffffffffffff1673ffffffffffffffffffffffffffffffffffffffff168152602001908152602001600020549050919050565b610b86611c61565b610b906000611cdf565b565b610b9a611c61565b806067819055507f78a3671679b68721aaad9eb74535be0be119bd34c0efa671eb6ab3210d1fe25781604051610bd09190612ad3565b60405180910390a150565b6000603360009054906101000a900473ffffffffffffffffffffffffffffffffffffffff16905090565b6040518060400160405280600681526020017f7545564d4f53000000000000000000000000000000000000000000000000000081525081565b60008060688381548110610c7b577f4e487b7100000000000000000000000000000000000000000000000000000000600052603260045260246000fd5b90600052602060002090600502016040518060c00160405290816000820160009054906101000a900460ff161515151581526020016000820160019054906101000a900473ffffffffffffffffffffffffffffffffffffffff1673ffffffffffffffffffffffffffffffffffffffff1673ffffffffffffffffffffffffffffffffffffffff1681526020016001820160009054906101000a900473ffffffffffffffffffffffffffffffffffffffff1673ffffffffffffffffffffffffffffffffffffffff1673ffffffffffffffffffffffffffffffffffffffff16815260200160028201548152602001600382015481526020016004820154815250509050428160a001511115610d91576000915050610e3b565b6000816040015173ffffffffffffffffffffffffffffffffffffffff16635eeff10183602001516040518263ffffffff1660e01b8152600401610dd4919061276d565b60206040518083038186803b158015610dec57600080fd5b505afa158015610e00573d6000803e3d6000fd5b505050506040513d601f19601f82011682018060405250810190610e2491906124b6565b9050610e3382606001516106b9565b811015925050505b919050565b60665481565b60675481565b606a6020528060005260406000206000915090508060000160009054906101000a90046fffffffffffffffffffffffffffffffff16908060000160109054906101000a90046fffffffffffffffffffffffffffffffff16905082565b60656020528060005260406000206000915054906101000a900460ff1681565b6000806000606a60008573ffffffffffffffffffffffffffffffffffffffff1673ffffffffffffffffffffffffffffffffffffffff16815260200190815260200160002060000160009054906101000a90046fffffffffffffffffffffffffffffffff1690506000606a60008673ffffffffffffffffffffffffffffffffffffffff1673ffffffffffffffffffffffffffffffffffffffff16815260200190815260200160002060000160109054906101000a90046fffffffffffffffffffffffffffffffff1690506000606a60008773ffffffffffffffffffffffffffffffffffffffff1673ffffffffffffffffffffffffffffffffffffffff16815260200190815260200160002060010180548060200260200160405190810160405280929190818152602001828054801561101f57602002820191906000526020600020905b81548152602001906001019080831161100b575b50505050509050816fffffffffffffffffffffffffffffffff16836fffffffffffffffffffffffffffffffff1614156110615760008094509450505050611304565b60008390505b826fffffffffffffffffffffffffffffffff16816fffffffffffffffffffffffffffffffff1610156112ff576000606883836fffffffffffffffffffffffffffffffff16815181106110e2577f4e487b7100000000000000000000000000000000000000000000000000000000600052603260045260246000fd5b602002602001015181548110611121577f4e487b7100000000000000000000000000000000000000000000000000000000600052603260045260246000fd5b90600052602060002090600502016040518060c00160405290816000820160009054906101000a900460ff161515151581526020016000820160019054906101000a900473ffffffffffffffffffffffffffffffffffffffff1673ffffffffffffffffffffffffffffffffffffffff1673ffffffffffffffffffffffffffffffffffffffff1681526020016001820160009054906101000a900473ffffffffffffffffffffffffffffffffffffffff1673ffffffffffffffffffffffffffffffffffffffff1673ffffffffffffffffffffffffffffffffffffffff16815260200160028201548152602001600382015481526020016004820154815250509050428160a00151116112e55761123981606001516106b9565b876112449190612baa565b9650806040015173ffffffffffffffffffffffffffffffffffffffff16635eeff101896040518263ffffffff1660e01b8152600401611283919061276d565b60206040518083038186803b15801561129b57600080fd5b505afa1580156112af573d6000803e3d6000fd5b505050506040513d601f19601f820116820180604052508101906112d391906124b6565b866112de9190612baa565b95506112eb565b506112ff565b5080806112f790612d87565b915050611067565b505050505b915091565b60008060019054906101000a900460ff1615905080801561133a5750600160008054906101000a900460ff1660ff16105b80611367575061134930611da5565b1580156113665750600160008054906101000a900460ff1660ff16145b5b6113a6576040517f08c379a000000000000000000000000000000000000000000000000000000000815260040161139d9061296a565b60405180910390fd5b60016000806101000a81548160ff021916908360ff16021790555080156113e3576001600060016101000a81548160ff0219169083151502179055505b6113eb611dc8565b6113f482610b92565b801561144d5760008060016101000a81548160ff0219169083151502179055507f7f26b83ff96e1f2b6a682f133852f6798a09c465da95921460cefb3847402498600160405161144491906128ed565b60405180910390a15b5050565b60006068828154811061148d577f4e487b7100000000000000000000000000000000000000000000000000000000600052603260045260246000fd5b9060005260206000209060050201905042816004015411156114e4576040517f08c379a00000000000000000000000000000000000000000000000000000000081526004016114db90612a8a565b60405180910390fd5b60008160010160009054906101000a900473ffffffffffffffffffffffffffffffffffffffff1673ffffffffffffffffffffffffffffffffffffffff16635eeff1018360000160019054906101000a900473ffffffffffffffffffffffffffffffffffffffff166040518263ffffffff1660e01b8152600401611567919061276d565b60206040518083038186803b15801561157f57600080fd5b505afa158015611593573d6000803e3d6000fd5b505050506040513d601f19601f820116820180604052508101906115b791906124b6565b905060006115c883600201546106b9565b90508082101561160d576040517f08c379a0000000000000000000000000000000000000000000000000000000008152600401611604906129aa565b60405180910390fd5b8260010160009054906101000a900473ffffffffffffffffffffffffffffffffffffffff1673ffffffffffffffffffffffffffffffffffffffff16639d2e6fcb828560000160019054906101000a900473ffffffffffffffffffffffffffffffffffffffff1660016040518463ffffffff1660e01b81526004016116929291906127e8565b6020604051808303818588803b1580156116ab57600080fd5b505af11580156116bf573d6000803e3d6000fd5b50505050506040513d601f19601f820116820180604052508101906116e491906124b6565b5060018360000160006101000a81548160ff02191690831515021790555050505050565b42606681905550565b611719611c61565b80606560008473ffffffffffffffffffffffffffffffffffffffff1673ffffffffffffffffffffffffffffffffffffffff16815260200190815260200160002060006101000a81548160ff0219169083151502179055507ff6c10b2804d0174249f23bd4c462fb3e65ea16bf2b6896effe8a09f8f6a8e3b082826040516117a19291906127bf565b60405180910390a15050565b6117b5611c61565b600073ffffffffffffffffffffffffffffffffffffffff168173ffffffffffffffffffffffffffffffffffffffff161415611825576040517f08c379a000000000000000000000000000000000000000000000000000000000815260040161181c9061292a565b60405180910390fd5b61182e81611cdf565b50565b6068818154811061184157600080fd5b90600052602060002090600502016000915090508060000160009054906101000a900460ff16908060000160019054906101000a900473ffffffffffffffffffffffffffffffffffffffff16908060010160009054906101000a900473ffffffffffffffffffffffffffffffffffffffff16908060020154908060030154908060040154905086565b606a60008473ffffffffffffffffffffffffffffffffffffffff1673ffffffffffffffffffffffffffffffffffffffff168152602001908152602001600020915060008260000160009054906101000a90046fffffffffffffffffffffffffffffffff16905060008360000160109054906101000a90046fffffffffffffffffffffffffffffffff169050806fffffffffffffffffffffffffffffffff16826fffffffffffffffffffffffffffffffff161415611988575050611b79565b60008060008490505b836fffffffffffffffffffffffffffffffff16816fffffffffffffffffffffffffffffffff161015611ac157600087600101826fffffffffffffffffffffffffffffffff1681548110611a0d577f4e487b7100000000000000000000000000000000000000000000000000000000600052603260045260246000fd5b90600052602060002001549050600060688281548110611a56577f4e487b7100000000000000000000000000000000000000000000000000000000600052603260045260246000fd5b9060005260206000209060050201905042816004015411611aa557600080611a7e838b611e21565b915091508187611a8e9190612baa565b96508086611a9c9190612baa565b95505050611aac565b5050611ac1565b50508080611ab990612d87565b915050611991565b6000831115611b7357600181611ad79190612b64565b8760000160006101000a8154816fffffffffffffffffffffffffffffffff02191690836fffffffffffffffffffffffffffffffff160217905550611b2388611b1e85610685565b612087565b6000821115611b3757611b3688836121e2565b5b7ff7870c5b224cbc19873599e46ccfc7103934650509b1af0c3ce90138377c2004888484604051611b6a9392919061283a565b60405180910390a15b50505050505b505050565b600073ffffffffffffffffffffffffffffffffffffffff168273ffffffffffffffffffffffffffffffffffffffff161415611bee576040517f08c379a0000000000000000000000000000000000000000000000000000000008152600401611be5906129ea565b60405180910390fd5b80606c6000828254611c009190612baa565b9250508190555080606b60008473ffffffffffffffffffffffffffffffffffffffff1673ffffffffffffffffffffffffffffffffffffffff1681526020019081526020016000206000828254611c569190612baa565b925050819055505050565b611c69612308565b73ffffffffffffffffffffffffffffffffffffffff16611c87610bdb565b73ffffffffffffffffffffffffffffffffffffffff1614611cdd576040517f08c379a0000000000000000000000000000000000000000000000000000000008152600401611cd4906129ca565b60405180910390fd5b565b6000603360009054906101000a900473ffffffffffffffffffffffffffffffffffffffff16905081603360006101000a81548173ffffffffffffffffffffffffffffffffffffffff021916908373ffffffffffffffffffffffffffffffffffffffff1602179055508173ffffffffffffffffffffffffffffffffffffffff168173ffffffffffffffffffffffffffffffffffffffff167f8be0079c531659141344cd1fd0a4f28419497f9722a3daafe3b4186f6b6457e060405160405180910390a35050565b6000808273ffffffffffffffffffffffffffffffffffffffff163b119050919050565b600060019054906101000a900460ff16611e17576040517f08c379a0000000000000000000000000000000000000000000000000000000008152600401611e0e90612a6a565b60405180910390fd5b611e1f612310565b565b60008060008460010160009054906101000a900473ffffffffffffffffffffffffffffffffffffffff16905060008560000160019054906101000a900473ffffffffffffffffffffffffffffffffffffffff1690506000611e8587600201546106b9565b905060008373ffffffffffffffffffffffffffffffffffffffff16631ce9ba3689600301546040518263ffffffff1660e01b8152600401611ec69190612ad3565b60206040518083038186803b158015611ede57600080fd5b505afa158015611ef2573d6000803e3d6000fd5b505050506040513d601f19601f82011682018060405250810190611f1691906124b6565b905060018860000160006101000a81548160ff021916908315150217905550808210611fe5578373ffffffffffffffffffffffffffffffffffffffff16639d2e6fcb82858a6040518463ffffffff1660e01b8152600401611f78929190612811565b6020604051808303818588803b158015611f9157600080fd5b505af1158015611fa5573d6000803e3d6000fd5b50505050506040513d601f19601f82011682018060405250810190611fca91906124b6565b50818183611fd89190612c8b565b9550955050505050612080565b8373ffffffffffffffffffffffffffffffffffffffff16639d2e6fcb83858a6040518463ffffffff1660e01b8152600401612021929190612811565b6020604051808303818588803b15801561203a57600080fd5b505af115801561204e573d6000803e3d6000fd5b50505050506040513d601f19601f8201168201806040525081019061207391906124b6565b5081600095509550505050505b9250929050565b600073ffffffffffffffffffffffffffffffffffffffff168273ffffffffffffffffffffffffffffffffffffffff1614156120f7576040517f08c379a00000000000000000000000000000000000000000000000000000000081526004016120ee90612a4a565b60405180910390fd5b6000606b60008473ffffffffffffffffffffffffffffffffffffffff1673ffffffffffffffffffffffffffffffffffffffff1681526020019081526020016000205490508181101561217e576040517f08c379a00000000000000000000000000000000000000000000000000000000081526004016121759061294a565b60405180910390fd5b818103606b60008573ffffffffffffffffffffffffffffffffffffffff1673ffffffffffffffffffffffffffffffffffffffff1681526020019081526020016000208190555081606c60008282546121d69190612c8b565b92505081905550505050565b60008273ffffffffffffffffffffffffffffffffffffffff1682600067ffffffffffffffff81111561223d577f4e487b7100000000000000000000000000000000000000000000000000000000600052604160045260246000fd5b6040519080825280601f01601f19166020018201604052801561226f5781602001600182028036833780820191505090505b5060405161227d9190612756565b60006040518083038185875af1925050503d80600081146122ba576040519150601f19603f3d011682016040523d82523d6000602084013e6122bf565b606091505b5050905080612303576040517f08c379a00000000000000000000000000000000000000000000000000000000081526004016122fa9061298a565b60405180910390fd5b505050565b600033905090565b600060019054906101000a900460ff1661235f576040517f08c379a000000000000000000000000000000000000000000000000000000000815260040161235690612a6a565b60405180910390fd5b61236f61236a612308565b611cdf565b565b600081359050612380816130d9565b92915050565b600081359050612395816130f0565b92915050565b6000813590506123aa81613107565b92915050565b6000815190506123bf81613107565b92915050565b6000602082840312156123d757600080fd5b60006123e584828501612371565b91505092915050565b6000806000806080858703121561240457600080fd5b600061241287828801612371565b945050602061242387828801612371565b93505060406124348782880161239b565b92505060606124458782880161239b565b91505092959194509250565b6000806040838503121561246457600080fd5b600061247285828601612371565b925050602061248385828601612386565b9150509250929050565b60006020828403121561249f57600080fd5b60006124ad8482850161239b565b91505092915050565b6000602082840312156124c857600080fd5b60006124d6848285016123b0565b91505092915050565b6124e881612cbf565b82525050565b6124f781612cd1565b82525050565b600061250882612b32565b6125128185612b48565b9350612522818560208601612d54565b80840191505092915050565b61253781612d30565b82525050565b61254681612d42565b82525050565b600061255782612b3d565b6125618185612b53565b9350612571818560208601612d54565b61257a81612e1e565b840191505092915050565b6000612592602683612b53565b915061259d82612e2f565b604082019050919050565b60006125b5602383612b53565b91506125c082612e7e565b604082019050919050565b60006125d8602e83612b53565b91506125e382612ecd565b604082019050919050565b60006125fb601283612b53565b915061260682612f1c565b602082019050919050565b600061261e601883612b53565b915061262982612f45565b602082019050919050565b6000612641602083612b53565b915061264c82612f6e565b602082019050919050565b6000612664602083612b53565b915061266f82612f97565b602082019050919050565b6000612687601c83612b53565b915061269282612fc0565b602082019050919050565b60006126aa601383612b53565b91506126b582612fe9565b602082019050919050565b60006126cd602283612b53565b91506126d882613012565b604082019050919050565b60006126f0602b83612b53565b91506126fb82613061565b604082019050919050565b6000612713601b83612b53565b915061271e826130b0565b602082019050919050565b61273281612cdd565b82525050565b61274181612d19565b82525050565b61275081612d23565b82525050565b600061276282846124fd565b915081905092915050565b600060208201905061278260008301846124df565b92915050565b600060608201905061279d60008301866124df565b6127aa60208301856124df565b6127b76040830184612738565b949350505050565b60006040820190506127d460008301856124df565b6127e160208301846124ee565b9392505050565b60006040820190506127fd60008301856124df565b61280a602083018461252e565b9392505050565b600060408201905061282660008301856124df565b6128336020830184612738565b9392505050565b600060608201905061284f60008301866124df565b61285c6020830185612738565b6128696040830184612738565b949350505050565b600060208201905061288660008301846124ee565b92915050565b600060c0820190506128a160008301896124ee565b6128ae60208301886124df565b6128bb60408301876124df565b6128c86060830186612738565b6128d56080830185612738565b6128e260a0830184612738565b979650505050505050565b6000602082019050612902600083018461253d565b92915050565b60006020820190508181036000830152612922818461254c565b905092915050565b6000602082019050818103600083015261294381612585565b9050919050565b60006020820190508181036000830152612963816125a8565b9050919050565b60006020820190508181036000830152612983816125cb565b9050919050565b600060208201905081810360008301526129a3816125ee565b9050919050565b600060208201905081810360008301526129c381612611565b9050919050565b600060208201905081810360008301526129e381612634565b9050919050565b60006020820190508181036000830152612a0381612657565b9050919050565b60006020820190508181036000830152612a238161267a565b9050919050565b60006020820190508181036000830152612a438161269d565b9050919050565b60006020820190508181036000830152612a63816126c0565b9050919050565b60006020820190508181036000830152612a83816126e3565b9050919050565b60006020820190508181036000830152612aa381612706565b9050919050565b6000604082019050612abf6000830185612729565b612acc6020830184612729565b9392505050565b6000602082019050612ae86000830184612738565b92915050565b6000604082019050612b036000830185612738565b612b106020830184612738565b9392505050565b6000602082019050612b2c6000830184612747565b92915050565b600081519050919050565b600081519050919050565b600081905092915050565b600082825260208201905092915050565b6000612b6f82612cdd565b9150612b7a83612cdd565b9250826fffffffffffffffffffffffffffffffff03821115612b9f57612b9e612dc0565b5b828201905092915050565b6000612bb582612d19565b9150612bc083612d19565b9250827fffffffffffffffffffffffffffffffffffffffffffffffffffffffffffffffff03821115612bf557612bf4612dc0565b5b828201905092915050565b6000612c0b82612d19565b9150612c1683612d19565b925082612c2657612c25612def565b5b828204905092915050565b6000612c3c82612d19565b9150612c4783612d19565b9250817fffffffffffffffffffffffffffffffffffffffffffffffffffffffffffffffff0483118215151615612c8057612c7f612dc0565b5b828202905092915050565b6000612c9682612d19565b9150612ca183612d19565b925082821015612cb457612cb3612dc0565b5b828203905092915050565b6000612cca82612cf9565b9050919050565b60008115159050919050565b60006fffffffffffffffffffffffffffffffff82169050919050565b600073ffffffffffffffffffffffffffffffffffffffff82169050919050565b6000819050919050565b600060ff82169050919050565b6000612d3b82612d19565b9050919050565b6000612d4d82612d23565b9050919050565b60005b83811015612d72578082015181840152602081019050612d57565b83811115612d81576000848401525b50505050565b6000612d9282612cdd565b91506fffffffffffffffffffffffffffffffff821415612db557612db4612dc0565b5b600182019050919050565b7f4e487b7100000000000000000000000000000000000000000000000000000000600052601160045260246000fd5b7f4e487b7100000000000000000000000000000000000000000000000000000000600052601260045260246000fd5b6000601f19601f8301169050919050565b7f4f776e61626c653a206e6577206f776e657220697320746865207a65726f206160008201527f6464726573730000000000000000000000000000000000000000000000000000602082015250565b7f7545564d4f533a206275726e20616d6f756e7420657863656564732062616c6160008201527f6e63650000000000000000000000000000000000000000000000000000000000602082015250565b7f496e697469616c697a61626c653a20636f6e747261637420697320616c72656160008201527f647920696e697469616c697a6564000000000000000000000000000000000000602082015250565b7f21736166655472616e7366657245564d4f530000000000000000000000000000600082015250565b7f7545564d4f53204b696c6c3a205374696c6c20736166652e0000000000000000600082015250565b7f4f776e61626c653a2063616c6c6572206973206e6f7420746865206f776e6572600082015250565b7f7545564d4f533a206d696e7420746f20746865207a65726f2061646472657373600082015250565b7f6d696e744c6f636b6564546f6b656e3a20616d6f756e74203c3d203000000000600082015250565b7f7545564d4f533a204e6f74206d696e7465722e00000000000000000000000000600082015250565b7f7545564d4f533a206275726e2066726f6d20746865207a65726f20616464726560008201527f7373000000000000000000000000000000000000000000000000000000000000602082015250565b7f496e697469616c697a61626c653a20636f6e7472616374206973206e6f74206960008201527f6e697469616c697a696e67000000000000000000000000000000000000000000602082015250565b7f7545564d4f53204b696c6c3a2043616e6e6f7420556e6c6f636b2e0000000000600082015250565b6130e281612cbf565b81146130ed57600080fd5b50565b6130f981612cd1565b811461310457600080fd5b50565b61311081612d19565b811461311b57600080fd5b5056fea2646970667358221220732da8372b9966584df3427d3e1e2ea59ef86bc3a354bc8d31d7d769f9a9381264736f6c63430008040033",
  "devdoc": {
    "kind": "dev",
    "methods": {
      "getUnlockable(address)": {
        "details": "calc user's unlockable uEVMOS(includes debt) & debt"
      },
      "mintLockedToken(address,address,uint256,uint256)": {
        "details": "mint & lock uEVMOS"
      },
      "owner()": {
        "details": "Returns the address of the current owner."
      },
      "renounceOwnership()": {
        "details": "Leaves the contract without owner. It will not be possible to call `onlyOwner` functions anymore. Can only be called by the current owner. NOTE: Renouncing ownership will leave the contract without an owner, thereby removing any functionality that is only available to the owner."
      },
      "transferOwnership(address)": {
        "details": "Transfers ownership of the contract to a new account (`newOwner`). Can only be called by the current owner."
      }
    },
    "version": 1
  },
  "userdoc": {
    "kind": "user",
    "methods": {
      "__UnbondedEvmos_init(uint256)": {
        "notice": "should set minter (maybe Stayking) after deployed"
      },
      "isKillable(uint256)": {
        "notice": "TODO kor)   unstake  ,       .   100%    unlock   ."
      }
    },
    "version": 1
  },
  "storageLayout": {
    "storage": [
      {
        "astId": 733,
        "contract": "contracts/token/UnbondedEvmos.sol:UnbondedEvmos",
        "label": "_initialized",
        "offset": 0,
        "slot": "0",
        "type": "t_uint8"
      },
      {
        "astId": 736,
        "contract": "contracts/token/UnbondedEvmos.sol:UnbondedEvmos",
        "label": "_initializing",
        "offset": 1,
        "slot": "0",
        "type": "t_bool"
      },
      {
        "astId": 725,
        "contract": "contracts/token/UnbondedEvmos.sol:UnbondedEvmos",
        "label": "__gap",
        "offset": 0,
        "slot": "1",
        "type": "t_array(t_uint256)50_storage"
      },
      {
        "astId": 888,
        "contract": "contracts/token/UnbondedEvmos.sol:UnbondedEvmos",
        "label": "_owner",
        "offset": 0,
        "slot": "51",
        "type": "t_address"
      },
      {
        "astId": 1008,
        "contract": "contracts/token/UnbondedEvmos.sol:UnbondedEvmos",
        "label": "__gap",
        "offset": 0,
        "slot": "52",
        "type": "t_array(t_uint256)49_storage"
      },
      {
        "astId": 2882,
        "contract": "contracts/token/UnbondedEvmos.sol:UnbondedEvmos",
        "label": "isMinter",
        "offset": 0,
        "slot": "101",
        "type": "t_mapping(t_address,t_bool)"
      },
      {
        "astId": 2894,
        "contract": "contracts/token/UnbondedEvmos.sol:UnbondedEvmos",
        "label": "lastUnbondedAt",
        "offset": 0,
        "slot": "102",
        "type": "t_uint256"
      },
      {
        "astId": 2897,
        "contract": "contracts/token/UnbondedEvmos.sol:UnbondedEvmos",
        "label": "unbondingInterval",
        "offset": 0,
        "slot": "103",
        "type": "t_uint256"
      },
      {
        "astId": 2914,
        "contract": "contracts/token/UnbondedEvmos.sol:UnbondedEvmos",
        "label": "locks",
        "offset": 0,
        "slot": "104",
        "type": "t_array(t_struct(Locked)2910_storage)dyn_storage"
      },
      {
        "astId": 2916,
        "contract": "contracts/token/UnbondedEvmos.sol:UnbondedEvmos",
        "label": "locksLength",
        "offset": 0,
        "slot": "105",
        "type": "t_uint256"
      },
      {
        "astId": 2929,
        "contract": "contracts/token/UnbondedEvmos.sol:UnbondedEvmos",
        "label": "lockedOf",
        "offset": 0,
        "slot": "106",
        "type": "t_mapping(t_address,t_struct(LockedQueue)2924_storage)"
      },
      {
        "astId": 2933,
        "contract": "contracts/token/UnbondedEvmos.sol:UnbondedEvmos",
        "label": "_balances",
        "offset": 0,
        "slot": "107",
        "type": "t_mapping(t_address,t_uint256)"
      },
      {
        "astId": 2936,
        "contract": "contracts/token/UnbondedEvmos.sol:UnbondedEvmos",
        "label": "totalSupply",
        "offset": 0,
        "slot": "108",
        "type": "t_uint256"
      },
      {
        "astId": 2939,
        "contract": "contracts/token/UnbondedEvmos.sol:UnbondedEvmos",
        "label": "totalAmount",
        "offset": 0,
        "slot": "109",
        "type": "t_uint256"
      }
    ],
    "types": {
      "t_address": {
        "encoding": "inplace",
        "label": "address",
        "numberOfBytes": "20"
      },
      "t_array(t_struct(Locked)2910_storage)dyn_storage": {
        "base": "t_struct(Locked)2910_storage",
        "encoding": "dynamic_array",
        "label": "struct UnbondedEvmos.Locked[]",
        "numberOfBytes": "32"
      },
      "t_array(t_uint256)49_storage": {
        "base": "t_uint256",
        "encoding": "inplace",
        "label": "uint256[49]",
        "numberOfBytes": "1568"
      },
      "t_array(t_uint256)50_storage": {
        "base": "t_uint256",
        "encoding": "inplace",
        "label": "uint256[50]",
        "numberOfBytes": "1600"
      },
      "t_array(t_uint256)dyn_storage": {
        "base": "t_uint256",
        "encoding": "dynamic_array",
        "label": "uint256[]",
        "numberOfBytes": "32"
      },
      "t_bool": {
        "encoding": "inplace",
        "label": "bool",
        "numberOfBytes": "1"
      },
      "t_mapping(t_address,t_bool)": {
        "encoding": "mapping",
        "key": "t_address",
        "label": "mapping(address => bool)",
        "numberOfBytes": "32",
        "value": "t_bool"
      },
      "t_mapping(t_address,t_struct(LockedQueue)2924_storage)": {
        "encoding": "mapping",
        "key": "t_address",
        "label": "mapping(address => struct UnbondedEvmos.LockedQueue)",
        "numberOfBytes": "32",
        "value": "t_struct(LockedQueue)2924_storage"
      },
      "t_mapping(t_address,t_uint256)": {
        "encoding": "mapping",
        "key": "t_address",
        "label": "mapping(address => uint256)",
        "numberOfBytes": "32",
        "value": "t_uint256"
      },
      "t_struct(Locked)2910_storage": {
        "encoding": "inplace",
        "label": "struct UnbondedEvmos.Locked",
        "members": [
          {
            "astId": 2899,
            "contract": "contracts/token/UnbondedEvmos.sol:UnbondedEvmos",
            "label": "received",
            "offset": 0,
            "slot": "0",
            "type": "t_bool"
          },
          {
            "astId": 2901,
            "contract": "contracts/token/UnbondedEvmos.sol:UnbondedEvmos",
            "label": "account",
            "offset": 1,
            "slot": "0",
            "type": "t_address"
          },
          {
            "astId": 2903,
            "contract": "contracts/token/UnbondedEvmos.sol:UnbondedEvmos",
            "label": "vault",
            "offset": 0,
            "slot": "1",
            "type": "t_address"
          },
          {
            "astId": 2905,
            "contract": "contracts/token/UnbondedEvmos.sol:UnbondedEvmos",
            "label": "share",
            "offset": 0,
            "slot": "2",
            "type": "t_uint256"
          },
          {
            "astId": 2907,
            "contract": "contracts/token/UnbondedEvmos.sol:UnbondedEvmos",
            "label": "debtShare",
            "offset": 0,
            "slot": "3",
            "type": "t_uint256"
          },
          {
            "astId": 2909,
            "contract": "contracts/token/UnbondedEvmos.sol:UnbondedEvmos",
            "label": "unlockedAt",
            "offset": 0,
            "slot": "4",
            "type": "t_uint256"
          }
        ],
        "numberOfBytes": "160"
      },
      "t_struct(LockedQueue)2924_storage": {
        "encoding": "inplace",
        "label": "struct UnbondedEvmos.LockedQueue",
        "members": [
          {
            "astId": 2918,
            "contract": "contracts/token/UnbondedEvmos.sol:UnbondedEvmos",
            "label": "front",
            "offset": 0,
            "slot": "0",
            "type": "t_uint128"
          },
          {
            "astId": 2920,
            "contract": "contracts/token/UnbondedEvmos.sol:UnbondedEvmos",
            "label": "rear",
            "offset": 16,
            "slot": "0",
            "type": "t_uint128"
          },
          {
            "astId": 2923,
            "contract": "contracts/token/UnbondedEvmos.sol:UnbondedEvmos",
            "label": "lockedIds",
            "offset": 0,
            "slot": "1",
            "type": "t_array(t_uint256)dyn_storage"
          }
        ],
        "numberOfBytes": "64"
      },
      "t_uint128": {
        "encoding": "inplace",
        "label": "uint128",
        "numberOfBytes": "16"
      },
      "t_uint256": {
        "encoding": "inplace",
        "label": "uint256",
        "numberOfBytes": "32"
      },
      "t_uint8": {
        "encoding": "inplace",
        "label": "uint8",
        "numberOfBytes": "1"
      }
    }
  }
}