{
  "address": "0x23212a623D794b51213E225bE72e35Aaa002ab3A",
  "abi": [
    {
      "anonymous": false,
      "inputs": [
        {
          "indexed": true,
          "internalType": "address",
          "name": "owner",
          "type": "address"
        },
        {
          "indexed": true,
          "internalType": "address",
          "name": "spender",
          "type": "address"
        },
        {
          "indexed": false,
          "internalType": "uint256",
          "name": "value",
          "type": "uint256"
        }
      ],
      "name": "Approval",
      "type": "event"
    },
    {
      "anonymous": false,
      "inputs": [
        {
          "indexed": false,
          "internalType": "uint8",
          "name": "version",
          "type": "uint8"
        }
      ],
      "name": "Initialized",
      "type": "event"
    },
    {
      "anonymous": false,
      "inputs": [
        {
          "indexed": false,
          "internalType": "address",
          "name": "account",
          "type": "address"
        },
        {
          "indexed": false,
          "internalType": "address",
          "name": "vault",
          "type": "address"
        },
        {
          "indexed": false,
          "internalType": "uint256",
          "name": "lockedIndex",
          "type": "uint256"
        }
      ],
      "name": "Lock",
      "type": "event"
    },
    {
      "anonymous": false,
      "inputs": [
        {
          "indexed": true,
          "internalType": "address",
          "name": "previousOwner",
          "type": "address"
        },
        {
          "indexed": true,
          "internalType": "address",
          "name": "newOwner",
          "type": "address"
        }
      ],
      "name": "OwnershipTransferred",
      "type": "event"
    },
    {
      "anonymous": false,
      "inputs": [
        {
          "indexed": false,
          "internalType": "uint256",
          "name": "amount",
          "type": "uint256"
        }
      ],
      "name": "Supply",
      "type": "event"
    },
    {
      "anonymous": false,
      "inputs": [
        {
          "indexed": true,
          "internalType": "address",
          "name": "from",
          "type": "address"
        },
        {
          "indexed": true,
          "internalType": "address",
          "name": "to",
          "type": "address"
        },
        {
          "indexed": false,
          "internalType": "uint256",
          "name": "value",
          "type": "uint256"
        }
      ],
      "name": "Transfer",
      "type": "event"
    },
    {
      "anonymous": false,
      "inputs": [
        {
          "indexed": false,
          "internalType": "address",
          "name": "account",
          "type": "address"
        },
        {
          "indexed": false,
          "internalType": "uint256",
          "name": "amount",
          "type": "uint256"
        },
        {
          "indexed": false,
          "internalType": "uint256",
          "name": "returned",
          "type": "uint256"
        }
      ],
      "name": "Unlock",
      "type": "event"
    },
    {
      "anonymous": false,
      "inputs": [
        {
          "indexed": false,
          "internalType": "uint256",
          "name": "unbondingInterval",
          "type": "uint256"
        }
      ],
      "name": "UpdateConfigs",
      "type": "event"
    },
    {
      "anonymous": false,
      "inputs": [
        {
          "indexed": false,
          "internalType": "address",
          "name": "account",
          "type": "address"
        },
        {
          "indexed": false,
          "internalType": "bool",
          "name": "status",
          "type": "bool"
        }
      ],
      "name": "UpdateMinterStatus",
      "type": "event"
    },
    {
      "anonymous": false,
      "inputs": [
        {
          "indexed": false,
          "internalType": "address",
          "name": "account",
          "type": "address"
        },
        {
          "indexed": false,
          "internalType": "uint256",
          "name": "amount",
          "type": "uint256"
        }
      ],
      "name": "Withdraw",
      "type": "event"
    },
    {
      "stateMutability": "payable",
      "type": "fallback"
    },
    {
      "inputs": [
        {
          "internalType": "uint256",
          "name": "unbondingInterval_",
          "type": "uint256"
        }
      ],
      "name": "__UnbondedEvmos_init",
      "outputs": [],
      "stateMutability": "nonpayable",
      "type": "function"
    },
    {
      "inputs": [
        {
          "internalType": "address",
          "name": "owner",
          "type": "address"
        },
        {
          "internalType": "address",
          "name": "spender",
          "type": "address"
        }
      ],
      "name": "allowance",
      "outputs": [
        {
          "internalType": "uint256",
          "name": "",
          "type": "uint256"
        }
      ],
      "stateMutability": "view",
      "type": "function"
    },
    {
      "inputs": [
        {
          "internalType": "address",
          "name": "spender",
          "type": "address"
        },
        {
          "internalType": "uint256",
          "name": "amount",
          "type": "uint256"
        }
      ],
      "name": "approve",
      "outputs": [
        {
          "internalType": "bool",
          "name": "",
          "type": "bool"
        }
      ],
      "stateMutability": "nonpayable",
      "type": "function"
    },
    {
      "inputs": [
        {
          "internalType": "address",
          "name": "account",
          "type": "address"
        }
      ],
      "name": "balanceOf",
      "outputs": [
        {
          "internalType": "uint256",
          "name": "",
          "type": "uint256"
        }
      ],
      "stateMutability": "view",
      "type": "function"
    },
    {
      "inputs": [],
      "name": "decimals",
      "outputs": [
        {
          "internalType": "uint8",
          "name": "",
          "type": "uint8"
        }
      ],
      "stateMutability": "view",
      "type": "function"
    },
    {
      "inputs": [
        {
          "internalType": "address",
          "name": "spender",
          "type": "address"
        },
        {
          "internalType": "uint256",
          "name": "subtractedValue",
          "type": "uint256"
        }
      ],
      "name": "decreaseAllowance",
      "outputs": [
        {
          "internalType": "bool",
          "name": "",
          "type": "bool"
        }
      ],
      "stateMutability": "nonpayable",
      "type": "function"
    },
    {
      "inputs": [
        {
          "internalType": "address",
          "name": "account",
          "type": "address"
        }
      ],
      "name": "getLockedOf",
      "outputs": [
        {
          "components": [
            {
              "internalType": "uint256",
              "name": "nextUnlocked",
              "type": "uint256"
            },
            {
              "internalType": "uint256[]",
              "name": "lockedIds",
              "type": "uint256[]"
            }
          ],
          "internalType": "struct UnbondedEvmos.LockedQueue",
          "name": "lockedQueue",
          "type": "tuple"
        }
      ],
      "stateMutability": "view",
      "type": "function"
    },
    {
      "inputs": [
        {
          "internalType": "address",
          "name": "account",
          "type": "address"
        }
      ],
      "name": "getUnlockable",
      "outputs": [
        {
          "internalType": "uint256",
          "name": "unlockable",
          "type": "uint256"
        },
        {
          "internalType": "uint256",
          "name": "debt",
          "type": "uint256"
        }
      ],
      "stateMutability": "view",
      "type": "function"
    },
    {
      "inputs": [
        {
          "internalType": "address",
          "name": "spender",
          "type": "address"
        },
        {
          "internalType": "uint256",
          "name": "addedValue",
          "type": "uint256"
        }
      ],
      "name": "increaseAllowance",
      "outputs": [
        {
          "internalType": "bool",
          "name": "",
          "type": "bool"
        }
      ],
      "stateMutability": "nonpayable",
      "type": "function"
    },
    {
      "inputs": [
        {
          "internalType": "uint256",
          "name": "lockedId",
          "type": "uint256"
        }
      ],
      "name": "isKillable",
      "outputs": [
        {
          "internalType": "bool",
          "name": "",
          "type": "bool"
        }
      ],
      "stateMutability": "view",
      "type": "function"
    },
    {
      "inputs": [
        {
          "internalType": "address",
          "name": "",
          "type": "address"
        }
      ],
      "name": "isMinter",
      "outputs": [
        {
          "internalType": "bool",
          "name": "",
          "type": "bool"
        }
      ],
      "stateMutability": "view",
      "type": "function"
    },
    {
      "inputs": [
        {
          "internalType": "uint256",
          "name": "lockedId",
          "type": "uint256"
        }
      ],
      "name": "kill",
      "outputs": [],
      "stateMutability": "nonpayable",
      "type": "function"
    },
    {
      "inputs": [],
      "name": "lastUnbondedAt",
      "outputs": [
        {
          "internalType": "uint256",
          "name": "",
          "type": "uint256"
        }
      ],
      "stateMutability": "view",
      "type": "function"
    },
    {
      "inputs": [
        {
          "internalType": "address",
          "name": "account",
          "type": "address"
        }
      ],
      "name": "lockedList",
      "outputs": [
        {
          "components": [
            {
              "internalType": "bool",
              "name": "received",
              "type": "bool"
            },
            {
              "internalType": "address",
              "name": "account",
              "type": "address"
            },
            {
              "internalType": "address",
              "name": "vault",
              "type": "address"
            },
            {
              "internalType": "uint256",
              "name": "amount",
              "type": "uint256"
            },
            {
              "internalType": "uint256",
              "name": "debtShare",
              "type": "uint256"
            },
            {
              "internalType": "uint256",
              "name": "unlockedAt",
              "type": "uint256"
            }
          ],
          "internalType": "struct UnbondedEvmos.Locked[]",
          "name": "accountLocks",
          "type": "tuple[]"
        }
      ],
      "stateMutability": "view",
      "type": "function"
    },
    {
      "inputs": [
        {
          "internalType": "address",
          "name": "",
          "type": "address"
        }
      ],
      "name": "lockedOf",
      "outputs": [
        {
          "internalType": "uint256",
          "name": "nextUnlocked",
          "type": "uint256"
        }
      ],
      "stateMutability": "view",
      "type": "function"
    },
    {
      "inputs": [
        {
          "internalType": "uint256",
          "name": "",
          "type": "uint256"
        }
      ],
      "name": "locks",
      "outputs": [
        {
          "internalType": "bool",
          "name": "received",
          "type": "bool"
        },
        {
          "internalType": "address",
          "name": "account",
          "type": "address"
        },
        {
          "internalType": "address",
          "name": "vault",
          "type": "address"
        },
        {
          "internalType": "uint256",
          "name": "amount",
          "type": "uint256"
        },
        {
          "internalType": "uint256",
          "name": "debtShare",
          "type": "uint256"
        },
        {
          "internalType": "uint256",
          "name": "unlockedAt",
          "type": "uint256"
        }
      ],
      "stateMutability": "view",
      "type": "function"
    },
    {
      "inputs": [],
      "name": "locksLength",
      "outputs": [
        {
          "internalType": "uint256",
          "name": "",
          "type": "uint256"
        }
      ],
      "stateMutability": "view",
      "type": "function"
    },
    {
      "inputs": [
        {
          "internalType": "address",
          "name": "to",
          "type": "address"
        },
        {
          "internalType": "address",
          "name": "vault",
          "type": "address"
        },
        {
          "internalType": "uint256",
          "name": "amount",
          "type": "uint256"
        },
        {
          "internalType": "uint256",
          "name": "debtShare",
          "type": "uint256"
        }
      ],
      "name": "mintLockedToken",
      "outputs": [],
      "stateMutability": "nonpayable",
      "type": "function"
    },
    {
      "inputs": [],
      "name": "name",
      "outputs": [
        {
          "internalType": "string",
          "name": "",
          "type": "string"
        }
      ],
      "stateMutability": "view",
      "type": "function"
    },
    {
      "inputs": [],
      "name": "owner",
      "outputs": [
        {
          "internalType": "address",
          "name": "",
          "type": "address"
        }
      ],
      "stateMutability": "view",
      "type": "function"
    },
    {
      "inputs": [],
      "name": "renounceOwnership",
      "outputs": [],
      "stateMutability": "nonpayable",
      "type": "function"
    },
    {
      "inputs": [
        {
          "internalType": "address",
          "name": "account",
          "type": "address"
        }
      ],
      "name": "resetAccount",
      "outputs": [
        {
          "internalType": "bool",
          "name": "",
          "type": "bool"
        }
      ],
      "stateMutability": "nonpayable",
      "type": "function"
    },
    {
      "inputs": [],
      "name": "supplyUnbondedToken",
      "outputs": [],
      "stateMutability": "payable",
      "type": "function"
    },
    {
      "inputs": [],
      "name": "sweep",
      "outputs": [],
      "stateMutability": "nonpayable",
      "type": "function"
    },
    {
      "inputs": [],
      "name": "symbol",
      "outputs": [
        {
          "internalType": "string",
          "name": "",
          "type": "string"
        }
      ],
      "stateMutability": "view",
      "type": "function"
    },
    {
      "inputs": [],
      "name": "totalSupply",
      "outputs": [
        {
          "internalType": "uint256",
          "name": "",
          "type": "uint256"
        }
      ],
      "stateMutability": "view",
      "type": "function"
    },
    {
      "inputs": [
        {
          "internalType": "address",
          "name": "to",
          "type": "address"
        },
        {
          "internalType": "uint256",
          "name": "amount",
          "type": "uint256"
        }
      ],
      "name": "transfer",
      "outputs": [
        {
          "internalType": "bool",
          "name": "",
          "type": "bool"
        }
      ],
      "stateMutability": "nonpayable",
      "type": "function"
    },
    {
      "inputs": [
        {
          "internalType": "address",
          "name": "from",
          "type": "address"
        },
        {
          "internalType": "address",
          "name": "to",
          "type": "address"
        },
        {
          "internalType": "uint256",
          "name": "amount",
          "type": "uint256"
        }
      ],
      "name": "transferFrom",
      "outputs": [
        {
          "internalType": "bool",
          "name": "",
          "type": "bool"
        }
      ],
      "stateMutability": "nonpayable",
      "type": "function"
    },
    {
      "inputs": [
        {
          "internalType": "address",
          "name": "newOwner",
          "type": "address"
        }
      ],
      "name": "transferOwnership",
      "outputs": [],
      "stateMutability": "nonpayable",
      "type": "function"
    },
    {
      "inputs": [],
      "name": "unbondingInterval",
      "outputs": [
        {
          "internalType": "uint256",
          "name": "",
          "type": "uint256"
        }
      ],
      "stateMutability": "view",
      "type": "function"
    },
    {
      "inputs": [],
      "name": "unlock",
      "outputs": [],
      "stateMutability": "nonpayable",
      "type": "function"
    },
    {
      "inputs": [
        {
          "internalType": "uint256",
          "name": "_unbondingInterval",
          "type": "uint256"
        }
      ],
      "name": "updateConfigs",
      "outputs": [],
      "stateMutability": "nonpayable",
      "type": "function"
    },
    {
      "inputs": [
        {
          "internalType": "address",
          "name": "account",
          "type": "address"
        },
        {
          "internalType": "bool",
          "name": "status",
          "type": "bool"
        }
      ],
      "name": "updateMinterStatus",
      "outputs": [],
      "stateMutability": "nonpayable",
      "type": "function"
    },
    {
      "stateMutability": "payable",
      "type": "receive"
    }
  ],
  "transactionHash": "0x79169dc000d3c58f1ccac316262f59567d3cd13fcbe506dcb1ed99f5eb88ebd0",
  "args": [],
  "numDeployments": 1,
  "solcInputHash": "805c674e41e3580ec01c071b58c8f7b6",
  "bytecode": "0x608060405234801561001057600080fd5b506126c9806100206000396000f3fe6080604052600436106101da5760003560e01c80639c6b289611610101578063ca3134f61161009a578063dd62ed3e1161006c578063dd62ed3e14610599578063e158c1ac146105b9578063efc8f3c8146105c1578063f2fde38b146105e1578063f4dadc611461060157005b8063ca3134f61461050c578063cc9bc4af1461052c578063d29a00251461054c578063db367f3c1461056c57005b8063a69df4b5116100d3578063a69df4b514610472578063a9059cbb14610487578063aa271e1a146104a7578063c8630178146104d757005b80639c6b2896146103f9578063a4086a8f1461040f578063a457c2d714610425578063a5f1e2821461044557005b80635bfc5a6e1161017357806379564ace1161014557806379564ace1461037c5780638da5cb5b1461039c57806395d89b41146103c457806397e7381e146103d957005b80635bfc5a6e146102fb578063633235d01461031157806370a0823114610331578063715018a61461036757005b806323b872dd116101ac57806323b872dd1461028a578063313ce567146102aa57806335faa416146102c657806339509351146102db57005b806306fdde03146101e3578063095ea7b31461020e57806318160ddd1461023e5780631a921b3e1461025d57005b366101e157005b005b3480156101ef57600080fd5b506101f861065c565b604051610205919061218c565b60405180910390f35b34801561021a57600080fd5b5061022e6102293660046121d6565b6106ee565b6040519015158152602001610205565b34801561024a57600080fd5b506067545b604051908152602001610205565b34801561026957600080fd5b5061027d610278366004612200565b610708565b6040516102059190612222565b34801561029657600080fd5b5061022e6102a53660046122a8565b610977565b3480156102b657600080fd5b5060405160128152602001610205565b3480156102d257600080fd5b506101e16109d1565b3480156102e757600080fd5b5061022e6102f63660046121d6565b6109e5565b34801561030757600080fd5b5061024f609b5481565b34801561031d57600080fd5b506101e161032c3660046122e4565b610a07565b34801561033d57600080fd5b5061024f61034c366004612200565b6001600160a01b031660009081526065602052604090205490565b34801561037357600080fd5b506101e1610c1b565b34801561038857600080fd5b506101e1610397366004612326565b610c2d565b3480156103a857600080fd5b506033546040516001600160a01b039091168152602001610205565b3480156103d057600080fd5b506101f8610c70565b3480156103e557600080fd5b5061022e6103f4366004612326565b610c7f565b34801561040557600080fd5b5061024f60985481565b34801561041b57600080fd5b5061024f60995481565b34801561043157600080fd5b5061022e6104403660046121d6565b610d9c565b34801561045157600080fd5b5061024f610460366004612200565b609c6020526000908152604090205481565b34801561047e57600080fd5b506101e1610e17565b34801561049357600080fd5b5061022e6104a23660046121d6565b610e34565b3480156104b357600080fd5b5061022e6104c2366004612200565b60976020526000908152604090205460ff1681565b3480156104e357600080fd5b506104f76104f2366004612200565b610e77565b60408051928352602083019190915201610205565b34801561051857600080fd5b5061022e610527366004612200565b6110a8565b34801561053857600080fd5b506101e1610547366004612326565b611141565b34801561055857600080fd5b506101e1610567366004612326565b6112ab565b34801561057857600080fd5b5061058c610587366004612200565b611489565b604051610205919061233f565b3480156105a557600080fd5b5061024f6105b4366004612397565b611523565b6101e161154e565b3480156105cd57600080fd5b506101e16105dc3660046123ca565b611587565b3480156105ed57600080fd5b506101e16105fc366004612200565b6115eb565b34801561060d57600080fd5b5061062161061c366004612326565b611661565b6040805196151587526001600160a01b03958616602088015293909416928501929092526060840152608083015260a082015260c001610205565b60606068805461066b90612406565b80601f016020809104026020016040519081016040528092919081815260200182805461069790612406565b80156106e45780601f106106b9576101008083540402835291602001916106e4565b820191906000526020600020905b8154815290600101906020018083116106c757829003601f168201915b5050505050905090565b6000336106fc8185856116b9565b60019150505b92915050565b6001600160a01b0381166000908152609c602090815260408083208151808301835281548152600182018054845181870281018701909552808552606096959294858401939092919083018282801561078057602002820191906000526020600020905b81548152602001906001019080831161076c575b50505091909252505050602081015180519192509060008190036107d95760408051600080825260208201909252906107cf565b6107bc61211e565b8152602001906001900390816107b45790505b5095945050505050565b82516000825b801561082a5782856107f260018461246c565b815181106108025761080261247f565b602002602001015110156108185780915061082a565b8061082281612495565b9150506107df565b50610835818461246c565b67ffffffffffffffff81111561084d5761084d612440565b60405190808252806020026020018201604052801561088657816020015b61087361211e565b81526020019060019003908161086b5790505b5095506000815b8481101561096b576000609a8783815181106108ab576108ab61247f565b6020026020010151815481106108c3576108c361247f565b60009182526020918290206040805160c0810182526005909302909101805460ff8116151584526001600160a01b03610100909104811694840194909452600181015490931690820152600282015460608201526003820154608082015260049091015460a0820152905080898461093a816124ac565b95508151811061094c5761094c61247f565b6020026020010181905250508080610963906124ac565b91505061088d565b50505050505050919050565b3360009081526097602052604081205460ff166109af5760405162461bcd60e51b81526004016109a6906124c5565b60405180910390fd5b336109bb8582856117dd565b6109c6858585611857565b506001949350505050565b6109d9611a25565b6109e33347611a7f565b565b6000336106fc8185856109f88383611523565b610a0291906124f2565b6116b9565b3360009081526097602052604090205460ff16610a365760405162461bcd60e51b81526004016109a6906124c5565b60008211610a865760405162461bcd60e51b815260206004820152601c60248201527f6d696e744c6f636b6564546f6b656e3a20616d6f756e74203c3d20300000000060448201526064016109a6565b6001600160a01b0384166000908152609c60205260409020610aa88582611b36565b609a6040518060c00160405280600015158152602001876001600160a01b03168152602001866001600160a01b031681526020018581526020018481526020016099544260985411610afa5742610afe565b6098545b610b0891906124f2565b90528154600180820184556000938452602080852084516005909402018054918501516001600160a81b0319909216931515610100600160a81b031916939093176101006001600160a01b0392831602178355604084015183830180546001600160a01b03191691909216179055606083015160028301556080830151600383015560a090920151600490910155609a54610ba3919061246c565b600180840180549182018155600090815260209020018190559050610bc88685611d30565b604080516001600160a01b038089168252871660208201529081018290527fec36c0364d931187a76cf66d7eee08fad0ec2e8b7458a8d8b26b36769d4d13f39060600160405180910390a1505050505050565b610c23611a25565b6109e36000611e0f565b610c35611a25565b60998190556040518181527f78a3671679b68721aaad9eb74535be0be119bd34c0efa671eb6ab3210d1fe2579060200160405180910390a150565b60606069805461066b90612406565b600080609a8381548110610c9557610c9561247f565b60009182526020918290206040805160c0810182526005909302909101805460ff8116151584526001600160a01b03610100909104811694840194909452600181015490931690820152600282015460608201526003820154608082015260049091015460a08201819052909150421015610d135750600092915050565b60408082015160208301519151635eeff10160e01b81526001600160a01b03928316600482015260009290911690635eeff10190602401602060405180830381865afa158015610d67573d6000803e3d6000fd5b505050506040513d601f19601f82011682018060405250810190610d8b9190612505565b606090920151909110159392505050565b60003381610daa8286611523565b905083811015610e0a5760405162461bcd60e51b815260206004820152602560248201527f45524332303a2064656372656173656420616c6c6f77616e63652062656c6f77604482015264207a65726f60d81b60648201526084016109a6565b6109c682868684036116b9565b336000818152609c6020526040902090610e319082611b36565b50565b3360009081526097602052604081205460ff16610e635760405162461bcd60e51b81526004016109a6906124c5565b610e6e338484611857565b50600192915050565b6001600160a01b0381166000908152609c602090815260408083208054600190910180548351818602810186019094528084528594929390928592908490830182828015610ee457602002820191906000526020600020905b815481526020019060010190808311610ed0575b5050505050905081600003610f0157506000958695509350505050565b6000825b8015610f50578483610f1860018461246c565b81518110610f2857610f2861247f565b60200260200101511015610f3e57809150610f50565b80610f4881612495565b915050610f05565b50805b8381101561109e576000609a848381518110610f7157610f7161247f565b602002602001015181548110610f8957610f8961247f565b60009182526020918290206040805160c0810182526005909302909101805460ff8116151584526001600160a01b03610100909104811694840194909452600181015490931690820152600282015460608201526003820154608082015260049091015460a08201819052909150421061108b57606081015161100c90896124f2565b6040808301519051635eeff10160e01b81526001600160a01b038c81166004830152929a50911690635eeff10190602401602060405180830381865afa15801561105a573d6000803e3d6000fd5b505050506040513d601f19601f8201168201806040525081019061107e9190612505565b61108890886124f2565b96505b5080611096816124ac565b915050610f53565b5050505050915091565b60006110b2611a25565b6001600160a01b0382166000908152609c60205260408120818155905b600182015481101561110d578160010181815481106110f0576110f061247f565b600091825260208220015580611105816124ac565b9150506110cf565b5061113683611131856001600160a01b031660009081526065602052604090205490565b611e61565b60019150505b919050565b600054610100900460ff16158080156111615750600054600160ff909116105b8061117b5750303b15801561117b575060005460ff166001145b6111de5760405162461bcd60e51b815260206004820152602e60248201527f496e697469616c697a61626c653a20636f6e747261637420697320616c72656160448201526d191e481a5b9a5d1a585b1a5e995960921b60648201526084016109a6565b6000805460ff191660011790558015611201576000805461ff0019166101001790555b611209611faf565b6112576040518060400160405280600e81526020016d556e7374616b65642045564d4f5360901b815250604051806040016040528060068152602001657545564d4f5360d01b815250611fde565b61126082610c2d565b80156112a7576000805461ff0019169055604051600181527f7f26b83ff96e1f2b6a682f133852f6798a09c465da95921460cefb3847402498906020015b60405180910390a15b5050565b6000609a82815481106112c0576112c061247f565b9060005260206000209060050201905042816004015411156113245760405162461bcd60e51b815260206004820152601b60248201527f7545564d4f53204b696c6c3a2043616e6e6f7420556e6c6f636b2e000000000060448201526064016109a6565b60018101548154604051635eeff10160e01b81526101009091046001600160a01b0390811660048301526000921690635eeff10190602401602060405180830381865afa158015611379573d6000803e3d6000fd5b505050506040513d601f19601f8201168201806040525081019061139d9190612505565b6002830154909150808210156113f55760405162461bcd60e51b815260206004820152601860248201527f7545564d4f53204b696c6c3a205374696c6c20736166652e000000000000000060448201526064016109a6565b6001838101548454604051639d2e6fcb60e01b81526001600160a01b036101009092048216600482015260248101939093521690639d2e6fcb90839060440160206040518083038185885af1158015611452573d6000803e3d6000fd5b50505050506040513d601f19601f820116820180604052508101906114779190612505565b5050815460ff19166001179091555050565b6040805180820190915260008152606060208201526001600160a01b0382166000908152609c602090815260409182902082518084018452815481526001820180548551818602810186019096528086529194929385810193929083018282801561151357602002820191906000526020600020905b8154815260200190600101908083116114ff575b5050505050815250509050919050565b6001600160a01b03918216600090815260666020908152604080832093909416825291909152205490565b426098556040513481527f1862f918d5600ec0980589e8cc806b3c79b1e762fcbf44cc2947ba12499207eb9060200160405180910390a1565b61158f611a25565b6001600160a01b038216600081815260976020908152604091829020805460ff19168515159081179091558251938452908301527ff6c10b2804d0174249f23bd4c462fb3e65ea16bf2b6896effe8a09f8f6a8e3b0910161129e565b6115f3611a25565b6001600160a01b0381166116585760405162461bcd60e51b815260206004820152602660248201527f4f776e61626c653a206e6577206f776e657220697320746865207a65726f206160448201526564647265737360d01b60648201526084016109a6565b610e3181611e0f565b609a818154811061167157600080fd5b60009182526020909120600590910201805460018201546002830154600384015460049094015460ff841695506101009093046001600160a01b039081169492169290919086565b6001600160a01b03831661171b5760405162461bcd60e51b8152602060048201526024808201527f45524332303a20617070726f76652066726f6d20746865207a65726f206164646044820152637265737360e01b60648201526084016109a6565b6001600160a01b03821661177c5760405162461bcd60e51b815260206004820152602260248201527f45524332303a20617070726f766520746f20746865207a65726f206164647265604482015261737360f01b60648201526084016109a6565b6001600160a01b0383811660008181526066602090815260408083209487168084529482529182902085905590518481527f8c5be1e5ebec7d5bd14f71427d1e84f3dd0314c0f7b2291e5b200ac8c7c3b925910160405180910390a3505050565b60006117e98484611523565b9050600019811461185157818110156118445760405162461bcd60e51b815260206004820152601d60248201527f45524332303a20696e73756666696369656e7420616c6c6f77616e636500000060448201526064016109a6565b61185184848484036116b9565b50505050565b6001600160a01b0383166118bb5760405162461bcd60e51b815260206004820152602560248201527f45524332303a207472616e736665722066726f6d20746865207a65726f206164604482015264647265737360d81b60648201526084016109a6565b6001600160a01b03821661191d5760405162461bcd60e51b815260206004820152602360248201527f45524332303a207472616e7366657220746f20746865207a65726f206164647260448201526265737360e81b60648201526084016109a6565b6001600160a01b038316600090815260656020526040902054818110156119955760405162461bcd60e51b815260206004820152602660248201527f45524332303a207472616e7366657220616d6f756e7420657863656564732062604482015265616c616e636560d01b60648201526084016109a6565b6001600160a01b038085166000908152606560205260408082208585039055918516815290812080548492906119cc9084906124f2565b92505081905550826001600160a01b0316846001600160a01b03167fddf252ad1be2c89b69c2b068fc378daa952ba7f163c4a11628f55a4df523b3ef84604051611a1891815260200190565b60405180910390a3611851565b6033546001600160a01b031633146109e35760405162461bcd60e51b815260206004820181905260248201527f4f776e61626c653a2063616c6c6572206973206e6f7420746865206f776e657260448201526064016109a6565b604080516000808252602082019092526001600160a01b038416908390604051611aa9919061251e565b60006040518083038185875af1925050503d8060008114611ae6576040519150601f19603f3d011682016040523d82523d6000602084013e611aeb565b606091505b5050905080611b315760405162461bcd60e51b815260206004820152601260248201527121736166655472616e7366657245564d4f5360701b60448201526064016109a6565b505050565b506001600160a01b0381166000908152609c60209081526040808320805460018201805484518187028101870190955280855292959194929391928490830182828015611ba257602002820191906000526020600020905b815481526020019060010190808311611b8e575b505050505090506000808390505b8015611bfb578483611bc360018461246c565b81518110611bd357611bd361247f565b60200260200101511015611be957809150611bfb565b80611bf381612495565b915050611bb0565b50600080825b85811015611c91576000609a868381518110611c1f57611c1f61247f565b602002602001015181548110611c3757611c3761247f565b9060005260206000209060050201905042816004015411611c7e576002810154611c6190856124f2565b93506000611c6e8261200f565b9050611c7a81856124f2565b9350505b5080611c89816124ac565b915050611c01565b8215611d255784611ca360018361246c565b81518110611cb357611cb361247f565b60209081029190910101518855611cca8984611e61565b8115611cda57611cda8983611a7f565b604080516001600160a01b038b168152602081018590529081018390527ff7870c5b224cbc19873599e46ccfc7103934650509b1af0c3ce90138377c20049060600160405180910390a15b505050505050505050565b6001600160a01b038216611d865760405162461bcd60e51b815260206004820152601f60248201527f45524332303a206d696e7420746f20746865207a65726f20616464726573730060448201526064016109a6565b8060676000828254611d9891906124f2565b90915550506001600160a01b03821660009081526065602052604081208054839290611dc59084906124f2565b90915550506040518181526001600160a01b038316906000907fddf252ad1be2c89b69c2b068fc378daa952ba7f163c4a11628f55a4df523b3ef9060200160405180910390a35050565b603380546001600160a01b038381166001600160a01b0319831681179093556040519116919082907f8be0079c531659141344cd1fd0a4f28419497f9722a3daafe3b4186f6b6457e090600090a35050565b6001600160a01b038216611ec15760405162461bcd60e51b815260206004820152602160248201527f45524332303a206275726e2066726f6d20746865207a65726f206164647265736044820152607360f81b60648201526084016109a6565b6001600160a01b03821660009081526065602052604090205481811015611f355760405162461bcd60e51b815260206004820152602260248201527f45524332303a206275726e20616d6f756e7420657863656564732062616c616e604482015261636560f01b60648201526084016109a6565b6001600160a01b0383166000908152606560205260408120838303905560678054849290611f6490849061246c565b90915550506040518281526000906001600160a01b038516907fddf252ad1be2c89b69c2b068fc378daa952ba7f163c4a11628f55a4df523b3ef9060200160405180910390a3505050565b600054610100900460ff16611fd65760405162461bcd60e51b81526004016109a69061253a565b6109e36120ae565b600054610100900460ff166120055760405162461bcd60e51b81526004016109a69061253a565b6112a782826120de565b600181015481546002830154604051636819862f60e01b81526001600160a01b03610100909304831660048201819052600094939093169291908390636819862f90839060240160206040518083038185885af1158015612074573d6000803e3d6000fd5b50505050506040513d601f19601f820116820180604052508101906120999190612505565b855460ff191660011790955550929392505050565b600054610100900460ff166120d55760405162461bcd60e51b81526004016109a69061253a565b6109e333611e0f565b600054610100900460ff166121055760405162461bcd60e51b81526004016109a69061253a565b606861211183826125d3565b506069611b3182826125d3565b6040518060c0016040528060001515815260200160006001600160a01b0316815260200160006001600160a01b031681526020016000815260200160008152602001600081525090565b60005b8381101561218357818101518382015260200161216b565b50506000910152565b60208152600082518060208401526121ab816040850160208701612168565b601f01601f19169190910160400192915050565b80356001600160a01b038116811461113c57600080fd5b600080604083850312156121e957600080fd5b6121f2836121bf565b946020939093013593505050565b60006020828403121561221257600080fd5b61221b826121bf565b9392505050565b602080825282518282018190526000919060409081850190868401855b8281101561229b578151805115158552868101516001600160a01b0390811688870152868201511686860152606080820151908601526080808201519086015260a0908101519085015260c0909301929085019060010161223f565b5091979650505050505050565b6000806000606084860312156122bd57600080fd5b6122c6846121bf565b92506122d4602085016121bf565b9150604084013590509250925092565b600080600080608085870312156122fa57600080fd5b612303856121bf565b9350612311602086016121bf565b93969395505050506040820135916060013590565b60006020828403121561233857600080fd5b5035919050565b60208082528251828201528281015160408084015280516060840181905260009291820190839060808601905b8083101561238c578351825292840192600192909201919084019061236c565b509695505050505050565b600080604083850312156123aa57600080fd5b6123b3836121bf565b91506123c1602084016121bf565b90509250929050565b600080604083850312156123dd57600080fd5b6123e6836121bf565b9150602083013580151581146123fb57600080fd5b809150509250929050565b600181811c9082168061241a57607f821691505b60208210810361243a57634e487b7160e01b600052602260045260246000fd5b50919050565b634e487b7160e01b600052604160045260246000fd5b634e487b7160e01b600052601160045260246000fd5b8181038181111561070257610702612456565b634e487b7160e01b600052603260045260246000fd5b6000816124a4576124a4612456565b506000190190565b6000600182016124be576124be612456565b5060010190565b6020808252601390820152723aa2ab26a7a99d102737ba1036b4b73a32b91760691b604082015260600190565b8082018082111561070257610702612456565b60006020828403121561251757600080fd5b5051919050565b60008251612530818460208701612168565b9190910192915050565b6020808252602b908201527f496e697469616c697a61626c653a20636f6e7472616374206973206e6f74206960408201526a6e697469616c697a696e6760a81b606082015260800190565b601f821115611b3157600081815260208120601f850160051c810160208610156125ac5750805b601f850160051c820191505b818110156125cb578281556001016125b8565b505050505050565b815167ffffffffffffffff8111156125ed576125ed612440565b612601816125fb8454612406565b84612585565b602080601f831160018114612636576000841561261e5750858301515b600019600386901b1c1916600185901b1785556125cb565b600085815260208120601f198616915b8281101561266557888601518255948401946001909101908401612646565b50858210156126835787850151600019600388901b60f8161c191681555b5050505050600190811b0190555056fea2646970667358221220b92f551f29b7c6d88af2d244f2035dbfd8fc1f1732108b08f94b79cf4a65544a64736f6c63430008110033",
  "devdoc": {
    "kind": "dev",
    "methods": {
      "allowance(address,address)": {
        "details": "See {IERC20-allowance}."
      },
      "approve(address,uint256)": {
        "details": "See {IERC20-approve}. NOTE: If `amount` is the maximum `uint256`, the allowance is not updated on `transferFrom`. This is semantically equivalent to an infinite approval. Requirements: - `spender` cannot be the zero address."
      },
      "balanceOf(address)": {
        "details": "See {IERC20-balanceOf}."
      },
      "decimals()": {
        "details": "Returns the number of decimals used to get its user representation. For example, if `decimals` equals `2`, a balance of `505` tokens should be displayed to a user as `5.05` (`505 / 10 ** 2`). Tokens usually opt for a value of 18, imitating the relationship between Ether and Wei. This is the value {ERC20} uses, unless this function is overridden; NOTE: This information is only used for _display_ purposes: it in no way affects any of the arithmetic of the contract, including {IERC20-balanceOf} and {IERC20-transfer}."
      },
      "decreaseAllowance(address,uint256)": {
        "details": "Atomically decreases the allowance granted to `spender` by the caller. This is an alternative to {approve} that can be used as a mitigation for problems described in {IERC20-approve}. Emits an {Approval} event indicating the updated allowance. Requirements: - `spender` cannot be the zero address. - `spender` must have allowance for the caller of at least `subtractedValue`."
      },
      "getUnlockable(address)": {
        "details": "calc user's unlockable uEVMOS(includes debt) & debt"
      },
      "increaseAllowance(address,uint256)": {
        "details": "Atomically increases the allowance granted to `spender` by the caller. This is an alternative to {approve} that can be used as a mitigation for problems described in {IERC20-approve}. Emits an {Approval} event indicating the updated allowance. Requirements: - `spender` cannot be the zero address."
      },
      "mintLockedToken(address,address,uint256,uint256)": {
        "details": "mint & lock uEVMOS"
      },
      "name()": {
        "details": "Returns the name of the token."
      },
      "owner()": {
        "details": "Returns the address of the current owner."
      },
      "renounceOwnership()": {
        "details": "Leaves the contract without owner. It will not be possible to call `onlyOwner` functions anymore. Can only be called by the current owner. NOTE: Renouncing ownership will leave the contract without an owner, thereby removing any functionality that is only available to the owner."
      },
      "symbol()": {
        "details": "Returns the symbol of the token, usually a shorter version of the name."
      },
      "totalSupply()": {
        "details": "See {IERC20-totalSupply}."
      },
      "transfer(address,uint256)": {
        "details": "See {IERC20-transfer}. Requirements: - `to` cannot be the zero address. - the caller must have a balance of at least `amount`."
      },
      "transferFrom(address,address,uint256)": {
        "details": "See {IERC20-transferFrom}. Emits an {Approval} event indicating the updated allowance. This is not required by the EIP. See the note at the beginning of {ERC20}. NOTE: Does not update the allowance if the current allowance is the maximum `uint256`. Requirements: - `from` and `to` cannot be the zero address. - `from` must have a balance of at least `amount`. - the caller must have allowance for ``from``'s tokens of at least `amount`."
      },
      "transferOwnership(address)": {
        "details": "Transfers ownership of the contract to a new account (`newOwner`). Can only be called by the current owner."
      }
    },
    "version": 1
  },
  "userdoc": {
    "kind": "user",
    "methods": {
      "__UnbondedEvmos_init(uint256)": {
        "notice": "should set minter (maybe Stayking) after deployed"
      },
      "isKillable(uint256)": {
        "notice": "TODO kor)   unstake  ,       .   100%    unlock   ."
      }
    },
    "version": 1
  },
  "storageLayout": {
    "storage": [
      {
        "astId": 2167,
        "contract": "contracts/UnbondedEvmos.sol:UnbondedEvmos",
        "label": "_initialized",
        "offset": 0,
        "slot": "0",
        "type": "t_uint8"
      },
      {
        "astId": 2170,
        "contract": "contracts/UnbondedEvmos.sol:UnbondedEvmos",
        "label": "_initializing",
        "offset": 1,
        "slot": "0",
        "type": "t_bool"
      },
      {
        "astId": 1551,
        "contract": "contracts/UnbondedEvmos.sol:UnbondedEvmos",
        "label": "__gap",
        "offset": 0,
        "slot": "1",
        "type": "t_array(t_uint256)50_storage"
      },
      {
        "astId": 2322,
        "contract": "contracts/UnbondedEvmos.sol:UnbondedEvmos",
        "label": "_owner",
        "offset": 0,
        "slot": "51",
        "type": "t_address"
      },
      {
        "astId": 2442,
        "contract": "contracts/UnbondedEvmos.sol:UnbondedEvmos",
        "label": "__gap",
        "offset": 0,
        "slot": "52",
        "type": "t_array(t_uint256)49_storage"
      },
      {
        "astId": 1568,
        "contract": "contracts/UnbondedEvmos.sol:UnbondedEvmos",
        "label": "_balances",
        "offset": 0,
        "slot": "101",
        "type": "t_mapping(t_address,t_uint256)"
      },
      {
        "astId": 1574,
        "contract": "contracts/UnbondedEvmos.sol:UnbondedEvmos",
        "label": "_allowances",
        "offset": 0,
        "slot": "102",
        "type": "t_mapping(t_address,t_mapping(t_address,t_uint256))"
      },
      {
        "astId": 1576,
        "contract": "contracts/UnbondedEvmos.sol:UnbondedEvmos",
        "label": "_totalSupply",
        "offset": 0,
        "slot": "103",
        "type": "t_uint256"
      },
      {
        "astId": 1578,
        "contract": "contracts/UnbondedEvmos.sol:UnbondedEvmos",
        "label": "_name",
        "offset": 0,
        "slot": "104",
        "type": "t_string_storage"
      },
      {
        "astId": 1580,
        "contract": "contracts/UnbondedEvmos.sol:UnbondedEvmos",
        "label": "_symbol",
        "offset": 0,
        "slot": "105",
        "type": "t_string_storage"
      },
      {
        "astId": 2159,
        "contract": "contracts/UnbondedEvmos.sol:UnbondedEvmos",
        "label": "__gap",
        "offset": 0,
        "slot": "106",
        "type": "t_array(t_uint256)45_storage"
      },
      {
        "astId": 54,
        "contract": "contracts/UnbondedEvmos.sol:UnbondedEvmos",
        "label": "isMinter",
        "offset": 0,
        "slot": "151",
        "type": "t_mapping(t_address,t_bool)"
      },
      {
        "astId": 57,
        "contract": "contracts/UnbondedEvmos.sol:UnbondedEvmos",
        "label": "lastUnbondedAt",
        "offset": 0,
        "slot": "152",
        "type": "t_uint256"
      },
      {
        "astId": 60,
        "contract": "contracts/UnbondedEvmos.sol:UnbondedEvmos",
        "label": "unbondingInterval",
        "offset": 0,
        "slot": "153",
        "type": "t_uint256"
      },
      {
        "astId": 77,
        "contract": "contracts/UnbondedEvmos.sol:UnbondedEvmos",
        "label": "locks",
        "offset": 0,
        "slot": "154",
        "type": "t_array(t_struct(Locked)73_storage)dyn_storage"
      },
      {
        "astId": 79,
        "contract": "contracts/UnbondedEvmos.sol:UnbondedEvmos",
        "label": "locksLength",
        "offset": 0,
        "slot": "155",
        "type": "t_uint256"
      },
      {
        "astId": 90,
        "contract": "contracts/UnbondedEvmos.sol:UnbondedEvmos",
        "label": "lockedOf",
        "offset": 0,
        "slot": "156",
        "type": "t_mapping(t_address,t_struct(LockedQueue)85_storage)"
      },
      {
        "astId": 94,
        "contract": "contracts/UnbondedEvmos.sol:UnbondedEvmos",
        "label": "_balances",
        "offset": 0,
        "slot": "157",
        "type": "t_mapping(t_address,t_uint256)"
      }
    ],
    "types": {
      "t_address": {
        "encoding": "inplace",
        "label": "address",
        "numberOfBytes": "20"
      },
      "t_array(t_struct(Locked)73_storage)dyn_storage": {
        "base": "t_struct(Locked)73_storage",
        "encoding": "dynamic_array",
        "label": "struct UnbondedEvmos.Locked[]",
        "numberOfBytes": "32"
      },
      "t_array(t_uint256)45_storage": {
        "base": "t_uint256",
        "encoding": "inplace",
        "label": "uint256[45]",
        "numberOfBytes": "1440"
      },
      "t_array(t_uint256)49_storage": {
        "base": "t_uint256",
        "encoding": "inplace",
        "label": "uint256[49]",
        "numberOfBytes": "1568"
      },
      "t_array(t_uint256)50_storage": {
        "base": "t_uint256",
        "encoding": "inplace",
        "label": "uint256[50]",
        "numberOfBytes": "1600"
      },
      "t_array(t_uint256)dyn_storage": {
        "base": "t_uint256",
        "encoding": "dynamic_array",
        "label": "uint256[]",
        "numberOfBytes": "32"
      },
      "t_bool": {
        "encoding": "inplace",
        "label": "bool",
        "numberOfBytes": "1"
      },
      "t_mapping(t_address,t_bool)": {
        "encoding": "mapping",
        "key": "t_address",
        "label": "mapping(address => bool)",
        "numberOfBytes": "32",
        "value": "t_bool"
      },
      "t_mapping(t_address,t_mapping(t_address,t_uint256))": {
        "encoding": "mapping",
        "key": "t_address",
        "label": "mapping(address => mapping(address => uint256))",
        "numberOfBytes": "32",
        "value": "t_mapping(t_address,t_uint256)"
      },
      "t_mapping(t_address,t_struct(LockedQueue)85_storage)": {
        "encoding": "mapping",
        "key": "t_address",
        "label": "mapping(address => struct UnbondedEvmos.LockedQueue)",
        "numberOfBytes": "32",
        "value": "t_struct(LockedQueue)85_storage"
      },
      "t_mapping(t_address,t_uint256)": {
        "encoding": "mapping",
        "key": "t_address",
        "label": "mapping(address => uint256)",
        "numberOfBytes": "32",
        "value": "t_uint256"
      },
      "t_string_storage": {
        "encoding": "bytes",
        "label": "string",
        "numberOfBytes": "32"
      },
      "t_struct(Locked)73_storage": {
        "encoding": "inplace",
        "label": "struct UnbondedEvmos.Locked",
        "members": [
          {
            "astId": 62,
            "contract": "contracts/UnbondedEvmos.sol:UnbondedEvmos",
            "label": "received",
            "offset": 0,
            "slot": "0",
            "type": "t_bool"
          },
          {
            "astId": 64,
            "contract": "contracts/UnbondedEvmos.sol:UnbondedEvmos",
            "label": "account",
            "offset": 1,
            "slot": "0",
            "type": "t_address"
          },
          {
            "astId": 66,
            "contract": "contracts/UnbondedEvmos.sol:UnbondedEvmos",
            "label": "vault",
            "offset": 0,
            "slot": "1",
            "type": "t_address"
          },
          {
            "astId": 68,
            "contract": "contracts/UnbondedEvmos.sol:UnbondedEvmos",
            "label": "amount",
            "offset": 0,
            "slot": "2",
            "type": "t_uint256"
          },
          {
            "astId": 70,
            "contract": "contracts/UnbondedEvmos.sol:UnbondedEvmos",
            "label": "debtShare",
            "offset": 0,
            "slot": "3",
            "type": "t_uint256"
          },
          {
            "astId": 72,
            "contract": "contracts/UnbondedEvmos.sol:UnbondedEvmos",
            "label": "unlockedAt",
            "offset": 0,
            "slot": "4",
            "type": "t_uint256"
          }
        ],
        "numberOfBytes": "160"
      },
      "t_struct(LockedQueue)85_storage": {
        "encoding": "inplace",
        "label": "struct UnbondedEvmos.LockedQueue",
        "members": [
          {
            "astId": 81,
            "contract": "contracts/UnbondedEvmos.sol:UnbondedEvmos",
            "label": "nextUnlocked",
            "offset": 0,
            "slot": "0",
            "type": "t_uint256"
          },
          {
            "astId": 84,
            "contract": "contracts/UnbondedEvmos.sol:UnbondedEvmos",
            "label": "lockedIds",
            "offset": 0,
            "slot": "1",
            "type": "t_array(t_uint256)dyn_storage"
          }
        ],
        "numberOfBytes": "64"
      },
      "t_uint256": {
        "encoding": "inplace",
        "label": "uint256",
        "numberOfBytes": "32"
      },
      "t_uint8": {
        "encoding": "inplace",
        "label": "uint8",
        "numberOfBytes": "1"
      }
    }
  }
}