{
  "address": "0xc091eD8Df747da99c705Fc511f8d7141d576eb13",
  "abi": [
    {
      "anonymous": false,
      "inputs": [
        {
          "indexed": true,
          "internalType": "address",
          "name": "owner",
          "type": "address"
        },
        {
          "indexed": true,
          "internalType": "address",
          "name": "spender",
          "type": "address"
        },
        {
          "indexed": false,
          "internalType": "uint256",
          "name": "value",
          "type": "uint256"
        }
      ],
      "name": "Approval",
      "type": "event"
    },
    {
      "anonymous": false,
      "inputs": [
        {
          "indexed": false,
          "internalType": "address",
          "name": "user",
          "type": "address"
        },
        {
          "indexed": false,
          "internalType": "uint256",
          "name": "amount",
          "type": "uint256"
        },
        {
          "indexed": false,
          "internalType": "uint256",
          "name": "share",
          "type": "uint256"
        }
      ],
      "name": "Deposit",
      "type": "event"
    },
    {
      "anonymous": false,
      "inputs": [
        {
          "indexed": false,
          "internalType": "uint8",
          "name": "version",
          "type": "uint8"
        }
      ],
      "name": "Initialized",
      "type": "event"
    },
    {
      "anonymous": false,
      "inputs": [
        {
          "indexed": false,
          "internalType": "address",
          "name": "user",
          "type": "address"
        },
        {
          "indexed": false,
          "internalType": "uint256",
          "name": "debtAmount",
          "type": "uint256"
        }
      ],
      "name": "Loan",
      "type": "event"
    },
    {
      "anonymous": false,
      "inputs": [
        {
          "indexed": true,
          "internalType": "address",
          "name": "previousOwner",
          "type": "address"
        },
        {
          "indexed": true,
          "internalType": "address",
          "name": "newOwner",
          "type": "address"
        }
      ],
      "name": "OwnershipTransferred",
      "type": "event"
    },
    {
      "anonymous": false,
      "inputs": [
        {
          "indexed": false,
          "internalType": "uint256",
          "name": "paidInterest",
          "type": "uint256"
        },
        {
          "indexed": false,
          "internalType": "uint256",
          "name": "reward",
          "type": "uint256"
        }
      ],
      "name": "PayInterest",
      "type": "event"
    },
    {
      "anonymous": false,
      "inputs": [
        {
          "indexed": false,
          "internalType": "address",
          "name": "user",
          "type": "address"
        },
        {
          "indexed": false,
          "internalType": "uint256",
          "name": "debtAmount",
          "type": "uint256"
        }
      ],
      "name": "Repay",
      "type": "event"
    },
    {
      "anonymous": false,
      "inputs": [
        {
          "indexed": true,
          "internalType": "address",
          "name": "from",
          "type": "address"
        },
        {
          "indexed": true,
          "internalType": "address",
          "name": "to",
          "type": "address"
        },
        {
          "indexed": false,
          "internalType": "uint256",
          "name": "value",
          "type": "uint256"
        }
      ],
      "name": "Transfer",
      "type": "event"
    },
    {
      "anonymous": false,
      "inputs": [
        {
          "indexed": false,
          "internalType": "address",
          "name": "from",
          "type": "address"
        },
        {
          "indexed": false,
          "internalType": "address",
          "name": "to",
          "type": "address"
        },
        {
          "indexed": false,
          "internalType": "uint256",
          "name": "amount",
          "type": "uint256"
        }
      ],
      "name": "TransferDebtOwnership",
      "type": "event"
    },
    {
      "anonymous": false,
      "inputs": [
        {
          "indexed": false,
          "internalType": "uint256",
          "name": "rateBps",
          "type": "uint256"
        }
      ],
      "name": "UtilizationRate",
      "type": "event"
    },
    {
      "anonymous": false,
      "inputs": [
        {
          "indexed": false,
          "internalType": "address",
          "name": "user",
          "type": "address"
        },
        {
          "indexed": false,
          "internalType": "uint256",
          "name": "amount",
          "type": "uint256"
        },
        {
          "indexed": false,
          "internalType": "uint256",
          "name": "share",
          "type": "uint256"
        }
      ],
      "name": "Withdraw",
      "type": "event"
    },
    {
      "stateMutability": "payable",
      "type": "fallback"
    },
    {
      "inputs": [
        {
          "internalType": "string",
          "name": "_name",
          "type": "string"
        },
        {
          "internalType": "string",
          "name": "_symbol",
          "type": "string"
        },
        {
          "internalType": "address",
          "name": "_swapHelper",
          "type": "address"
        },
        {
          "internalType": "address",
          "name": "_stayking",
          "type": "address"
        },
        {
          "internalType": "address",
          "name": "_token",
          "type": "address"
        },
        {
          "internalType": "address",
          "name": "_interestModel",
          "type": "address"
        },
        {
          "internalType": "uint256",
          "name": "_minReservedBps",
          "type": "uint256"
        }
      ],
      "name": "__Vault_init",
      "outputs": [],
      "stateMutability": "nonpayable",
      "type": "function"
    },
    {
      "inputs": [],
      "name": "accInterest",
      "outputs": [
        {
          "internalType": "uint256",
          "name": "",
          "type": "uint256"
        }
      ],
      "stateMutability": "view",
      "type": "function"
    },
    {
      "inputs": [],
      "name": "accrue",
      "outputs": [],
      "stateMutability": "nonpayable",
      "type": "function"
    },
    {
      "inputs": [
        {
          "internalType": "address",
          "name": "owner",
          "type": "address"
        },
        {
          "internalType": "address",
          "name": "spender",
          "type": "address"
        }
      ],
      "name": "allowance",
      "outputs": [
        {
          "internalType": "uint256",
          "name": "",
          "type": "uint256"
        }
      ],
      "stateMutability": "view",
      "type": "function"
    },
    {
      "inputs": [
        {
          "internalType": "uint256",
          "name": "amount",
          "type": "uint256"
        }
      ],
      "name": "amountToShare",
      "outputs": [
        {
          "internalType": "uint256",
          "name": "",
          "type": "uint256"
        }
      ],
      "stateMutability": "view",
      "type": "function"
    },
    {
      "inputs": [
        {
          "internalType": "address",
          "name": "spender",
          "type": "address"
        },
        {
          "internalType": "uint256",
          "name": "amount",
          "type": "uint256"
        }
      ],
      "name": "approve",
      "outputs": [
        {
          "internalType": "bool",
          "name": "",
          "type": "bool"
        }
      ],
      "stateMutability": "nonpayable",
      "type": "function"
    },
    {
      "inputs": [
        {
          "internalType": "address",
          "name": "account",
          "type": "address"
        }
      ],
      "name": "balanceOf",
      "outputs": [
        {
          "internalType": "uint256",
          "name": "",
          "type": "uint256"
        }
      ],
      "stateMutability": "view",
      "type": "function"
    },
    {
      "inputs": [
        {
          "internalType": "address",
          "name": "user",
          "type": "address"
        }
      ],
      "name": "debtAmountInBase",
      "outputs": [
        {
          "internalType": "uint256",
          "name": "",
          "type": "uint256"
        }
      ],
      "stateMutability": "view",
      "type": "function"
    },
    {
      "inputs": [
        {
          "internalType": "address",
          "name": "",
          "type": "address"
        }
      ],
      "name": "debtAmountOf",
      "outputs": [
        {
          "internalType": "uint256",
          "name": "",
          "type": "uint256"
        }
      ],
      "stateMutability": "view",
      "type": "function"
    },
    {
      "inputs": [],
      "name": "decimals",
      "outputs": [
        {
          "internalType": "uint8",
          "name": "",
          "type": "uint8"
        }
      ],
      "stateMutability": "view",
      "type": "function"
    },
    {
      "inputs": [
        {
          "internalType": "address",
          "name": "spender",
          "type": "address"
        },
        {
          "internalType": "uint256",
          "name": "subtractedValue",
          "type": "uint256"
        }
      ],
      "name": "decreaseAllowance",
      "outputs": [
        {
          "internalType": "bool",
          "name": "",
          "type": "bool"
        }
      ],
      "stateMutability": "nonpayable",
      "type": "function"
    },
    {
      "inputs": [
        {
          "internalType": "uint256",
          "name": "amount",
          "type": "uint256"
        }
      ],
      "name": "deposit",
      "outputs": [
        {
          "internalType": "uint256",
          "name": "share",
          "type": "uint256"
        }
      ],
      "stateMutability": "nonpayable",
      "type": "function"
    },
    {
      "inputs": [],
      "name": "getAccruedRateBps",
      "outputs": [
        {
          "internalType": "uint256",
          "name": "baseBps",
          "type": "uint256"
        },
        {
          "internalType": "uint256",
          "name": "bonusBps",
          "type": "uint256"
        }
      ],
      "stateMutability": "view",
      "type": "function"
    },
    {
      "inputs": [
        {
          "internalType": "uint256",
          "name": "tokenOut",
          "type": "uint256"
        }
      ],
      "name": "getBaseIn",
      "outputs": [
        {
          "internalType": "uint256",
          "name": "baseIn",
          "type": "uint256"
        }
      ],
      "stateMutability": "view",
      "type": "function"
    },
    {
      "inputs": [
        {
          "internalType": "uint256",
          "name": "baseIn",
          "type": "uint256"
        }
      ],
      "name": "getBaseOut",
      "outputs": [
        {
          "internalType": "uint256",
          "name": "tokenOut",
          "type": "uint256"
        }
      ],
      "stateMutability": "view",
      "type": "function"
    },
    {
      "inputs": [],
      "name": "getInterestInBase",
      "outputs": [
        {
          "internalType": "uint256",
          "name": "",
          "type": "uint256"
        }
      ],
      "stateMutability": "view",
      "type": "function"
    },
    {
      "inputs": [],
      "name": "getInterestRate",
      "outputs": [
        {
          "internalType": "uint256",
          "name": "interestRate",
          "type": "uint256"
        }
      ],
      "stateMutability": "view",
      "type": "function"
    },
    {
      "inputs": [
        {
          "internalType": "address",
          "name": "user",
          "type": "address"
        }
      ],
      "name": "getPendingDebt",
      "outputs": [
        {
          "internalType": "uint256",
          "name": "",
          "type": "uint256"
        }
      ],
      "stateMutability": "view",
      "type": "function"
    },
    {
      "inputs": [
        {
          "internalType": "address",
          "name": "user",
          "type": "address"
        }
      ],
      "name": "getPendingDebtInBase",
      "outputs": [
        {
          "internalType": "uint256",
          "name": "",
          "type": "uint256"
        }
      ],
      "stateMutability": "view",
      "type": "function"
    },
    {
      "inputs": [
        {
          "internalType": "uint256",
          "name": "baseOut",
          "type": "uint256"
        }
      ],
      "name": "getTokenIn",
      "outputs": [
        {
          "internalType": "uint256",
          "name": "tokenIn",
          "type": "uint256"
        }
      ],
      "stateMutability": "view",
      "type": "function"
    },
    {
      "inputs": [
        {
          "internalType": "uint256",
          "name": "tokenIn",
          "type": "uint256"
        }
      ],
      "name": "getTokenOut",
      "outputs": [
        {
          "internalType": "uint256",
          "name": "baseOut",
          "type": "uint256"
        }
      ],
      "stateMutability": "view",
      "type": "function"
    },
    {
      "inputs": [
        {
          "internalType": "address",
          "name": "spender",
          "type": "address"
        },
        {
          "internalType": "uint256",
          "name": "addedValue",
          "type": "uint256"
        }
      ],
      "name": "increaseAllowance",
      "outputs": [
        {
          "internalType": "bool",
          "name": "",
          "type": "bool"
        }
      ],
      "stateMutability": "nonpayable",
      "type": "function"
    },
    {
      "inputs": [],
      "name": "interestModel",
      "outputs": [
        {
          "internalType": "address",
          "name": "",
          "type": "address"
        }
      ],
      "stateMutability": "view",
      "type": "function"
    },
    {
      "inputs": [],
      "name": "lastAccruedAt",
      "outputs": [
        {
          "internalType": "uint256",
          "name": "",
          "type": "uint256"
        }
      ],
      "stateMutability": "view",
      "type": "function"
    },
    {
      "inputs": [],
      "name": "lastAnnualRateBps",
      "outputs": [
        {
          "internalType": "uint256",
          "name": "",
          "type": "uint256"
        }
      ],
      "stateMutability": "view",
      "type": "function"
    },
    {
      "inputs": [],
      "name": "lastPaid",
      "outputs": [
        {
          "internalType": "uint256",
          "name": "totalDebtAmount",
          "type": "uint256"
        },
        {
          "internalType": "uint256",
          "name": "totalAmount",
          "type": "uint256"
        },
        {
          "internalType": "uint256",
          "name": "reward",
          "type": "uint256"
        },
        {
          "internalType": "uint128",
          "name": "timestamp",
          "type": "uint128"
        },
        {
          "internalType": "uint128",
          "name": "interval",
          "type": "uint128"
        }
      ],
      "stateMutability": "view",
      "type": "function"
    },
    {
      "inputs": [
        {
          "internalType": "address",
          "name": "user",
          "type": "address"
        },
        {
          "internalType": "uint256",
          "name": "debtInBase",
          "type": "uint256"
        }
      ],
      "name": "loan",
      "outputs": [
        {
          "internalType": "uint256",
          "name": "debt",
          "type": "uint256"
        }
      ],
      "stateMutability": "nonpayable",
      "type": "function"
    },
    {
      "inputs": [],
      "name": "minReservedBps",
      "outputs": [
        {
          "internalType": "uint256",
          "name": "",
          "type": "uint256"
        }
      ],
      "stateMutability": "view",
      "type": "function"
    },
    {
      "inputs": [],
      "name": "name",
      "outputs": [
        {
          "internalType": "string",
          "name": "",
          "type": "string"
        }
      ],
      "stateMutability": "view",
      "type": "function"
    },
    {
      "inputs": [],
      "name": "owner",
      "outputs": [
        {
          "internalType": "address",
          "name": "",
          "type": "address"
        }
      ],
      "stateMutability": "view",
      "type": "function"
    },
    {
      "inputs": [
        {
          "internalType": "uint256",
          "name": "minPaidInterest",
          "type": "uint256"
        }
      ],
      "name": "payInterest",
      "outputs": [],
      "stateMutability": "payable",
      "type": "function"
    },
    {
      "inputs": [
        {
          "internalType": "address",
          "name": "user",
          "type": "address"
        },
        {
          "internalType": "uint256",
          "name": "amount",
          "type": "uint256"
        }
      ],
      "name": "pendRepay",
      "outputs": [
        {
          "internalType": "uint256",
          "name": "pendingDebtShare",
          "type": "uint256"
        }
      ],
      "stateMutability": "nonpayable",
      "type": "function"
    },
    {
      "inputs": [
        {
          "internalType": "uint256",
          "name": "amount",
          "type": "uint256"
        }
      ],
      "name": "pendingDebtAmountToShare",
      "outputs": [
        {
          "internalType": "uint256",
          "name": "",
          "type": "uint256"
        }
      ],
      "stateMutability": "view",
      "type": "function"
    },
    {
      "inputs": [
        {
          "internalType": "address",
          "name": "",
          "type": "address"
        }
      ],
      "name": "pendingDebtShareOf",
      "outputs": [
        {
          "internalType": "uint256",
          "name": "",
          "type": "uint256"
        }
      ],
      "stateMutability": "view",
      "type": "function"
    },
    {
      "inputs": [
        {
          "internalType": "uint256",
          "name": "share",
          "type": "uint256"
        }
      ],
      "name": "pendingDebtShareToAmount",
      "outputs": [
        {
          "internalType": "uint256",
          "name": "",
          "type": "uint256"
        }
      ],
      "stateMutability": "view",
      "type": "function"
    },
    {
      "inputs": [],
      "name": "renounceOwnership",
      "outputs": [],
      "stateMutability": "nonpayable",
      "type": "function"
    },
    {
      "inputs": [
        {
          "internalType": "address",
          "name": "user",
          "type": "address"
        },
        {
          "internalType": "uint256",
          "name": "minRepaid",
          "type": "uint256"
        }
      ],
      "name": "repayInBase",
      "outputs": [
        {
          "internalType": "uint256",
          "name": "repaid",
          "type": "uint256"
        }
      ],
      "stateMutability": "payable",
      "type": "function"
    },
    {
      "inputs": [
        {
          "internalType": "address",
          "name": "user",
          "type": "address"
        },
        {
          "internalType": "uint256",
          "name": "amount",
          "type": "uint256"
        }
      ],
      "name": "repayInToken",
      "outputs": [],
      "stateMutability": "nonpayable",
      "type": "function"
    },
    {
      "inputs": [
        {
          "internalType": "address",
          "name": "user",
          "type": "address"
        }
      ],
      "name": "repayPendingDebt",
      "outputs": [
        {
          "internalType": "uint256",
          "name": "remained",
          "type": "uint256"
        }
      ],
      "stateMutability": "payable",
      "type": "function"
    },
    {
      "inputs": [
        {
          "internalType": "uint256",
          "name": "share",
          "type": "uint256"
        }
      ],
      "name": "shareToAmount",
      "outputs": [
        {
          "internalType": "uint256",
          "name": "",
          "type": "uint256"
        }
      ],
      "stateMutability": "view",
      "type": "function"
    },
    {
      "inputs": [],
      "name": "stayking",
      "outputs": [
        {
          "internalType": "address",
          "name": "",
          "type": "address"
        }
      ],
      "stateMutability": "view",
      "type": "function"
    },
    {
      "inputs": [],
      "name": "swapHelper",
      "outputs": [
        {
          "internalType": "contract ISwapHelper",
          "name": "",
          "type": "address"
        }
      ],
      "stateMutability": "view",
      "type": "function"
    },
    {
      "inputs": [],
      "name": "symbol",
      "outputs": [
        {
          "internalType": "string",
          "name": "",
          "type": "string"
        }
      ],
      "stateMutability": "view",
      "type": "function"
    },
    {
      "inputs": [
        {
          "internalType": "address",
          "name": "from",
          "type": "address"
        },
        {
          "internalType": "uint256",
          "name": "amount",
          "type": "uint256"
        }
      ],
      "name": "takeDebtOwnership",
      "outputs": [],
      "stateMutability": "nonpayable",
      "type": "function"
    },
    {
      "inputs": [],
      "name": "token",
      "outputs": [
        {
          "internalType": "address",
          "name": "",
          "type": "address"
        }
      ],
      "stateMutability": "view",
      "type": "function"
    },
    {
      "inputs": [],
      "name": "totalAmount",
      "outputs": [
        {
          "internalType": "uint256",
          "name": "",
          "type": "uint256"
        }
      ],
      "stateMutability": "view",
      "type": "function"
    },
    {
      "inputs": [],
      "name": "totalDebtAmount",
      "outputs": [
        {
          "internalType": "uint256",
          "name": "",
          "type": "uint256"
        }
      ],
      "stateMutability": "view",
      "type": "function"
    },
    {
      "inputs": [],
      "name": "totalPendingDebtAmount",
      "outputs": [
        {
          "internalType": "uint256",
          "name": "",
          "type": "uint256"
        }
      ],
      "stateMutability": "view",
      "type": "function"
    },
    {
      "inputs": [],
      "name": "totalPendingDebtShare",
      "outputs": [
        {
          "internalType": "uint256",
          "name": "",
          "type": "uint256"
        }
      ],
      "stateMutability": "view",
      "type": "function"
    },
    {
      "inputs": [],
      "name": "totalStakedDebtAmount",
      "outputs": [
        {
          "internalType": "uint256",
          "name": "",
          "type": "uint256"
        }
      ],
      "stateMutability": "view",
      "type": "function"
    },
    {
      "inputs": [],
      "name": "totalSupply",
      "outputs": [
        {
          "internalType": "uint256",
          "name": "",
          "type": "uint256"
        }
      ],
      "stateMutability": "view",
      "type": "function"
    },
    {
      "inputs": [
        {
          "internalType": "address",
          "name": "to",
          "type": "address"
        },
        {
          "internalType": "uint256",
          "name": "amount",
          "type": "uint256"
        }
      ],
      "name": "transfer",
      "outputs": [
        {
          "internalType": "bool",
          "name": "",
          "type": "bool"
        }
      ],
      "stateMutability": "nonpayable",
      "type": "function"
    },
    {
      "inputs": [
        {
          "internalType": "address",
          "name": "from",
          "type": "address"
        },
        {
          "internalType": "address",
          "name": "to",
          "type": "address"
        },
        {
          "internalType": "uint256",
          "name": "amount",
          "type": "uint256"
        }
      ],
      "name": "transferFrom",
      "outputs": [
        {
          "internalType": "bool",
          "name": "",
          "type": "bool"
        }
      ],
      "stateMutability": "nonpayable",
      "type": "function"
    },
    {
      "inputs": [
        {
          "internalType": "address",
          "name": "newOwner",
          "type": "address"
        }
      ],
      "name": "transferOwnership",
      "outputs": [],
      "stateMutability": "nonpayable",
      "type": "function"
    },
    {
      "inputs": [
        {
          "internalType": "address",
          "name": "_interestModel",
          "type": "address"
        }
      ],
      "name": "updateInterestModel",
      "outputs": [],
      "stateMutability": "nonpayable",
      "type": "function"
    },
    {
      "inputs": [
        {
          "internalType": "uint256",
          "name": "_minReservedBps",
          "type": "uint256"
        }
      ],
      "name": "updateMinReservedBps",
      "outputs": [],
      "stateMutability": "nonpayable",
      "type": "function"
    },
    {
      "inputs": [
        {
          "internalType": "address",
          "name": "_swapHelper",
          "type": "address"
        }
      ],
      "name": "updateSwapHelper",
      "outputs": [],
      "stateMutability": "nonpayable",
      "type": "function"
    },
    {
      "inputs": [],
      "name": "utilizationRateBps",
      "outputs": [
        {
          "internalType": "uint256",
          "name": "",
          "type": "uint256"
        }
      ],
      "stateMutability": "view",
      "type": "function"
    },
    {
      "inputs": [
        {
          "internalType": "uint256",
          "name": "share",
          "type": "uint256"
        }
      ],
      "name": "withdraw",
      "outputs": [
        {
          "internalType": "uint256",
          "name": "amount",
          "type": "uint256"
        }
      ],
      "stateMutability": "nonpayable",
      "type": "function"
    },
    {
      "stateMutability": "payable",
      "type": "receive"
    }
  ],
  "transactionHash": "0x77fa1860e2b27685c481527fcbc6b83c5563de3c0d40643788a802dff073c06b",
  "args": [],
  "numDeployments": 5,
  "solcInputHash": "a9c79a6ba0d7b3fe142388cdd3d3ef22",
  "bytecode": "0x608060405234801561001057600080fd5b50613186806100206000396000f3fe6080604052600436106103605760003560e01c80636819862f116101c4578063b9529e9f116100f6578063dafbdba81161009a578063eab329811161006c578063eab3298114610a3f578063f2fde38b14610a5f578063f8ba4cff14610a7f578063fc0c546a14610a9457005b8063dafbdba8146109c9578063dd62ed3e146109df578063e18c5131146109ff578063e6d7059a14610a1f57005b8063c4b8db46116100d3578063c4b8db4614610913578063c8dffa951461097e578063d9ecd8d314610993578063da45ec7e146109b357005b8063b9529e9f146108b3578063b95d4ae1146108d3578063c4809798146108f357005b806395d89b4111610168578063a9059cbb1161013a578063a9059cbb14610840578063ac165d7a14610860578063ad452d7514610880578063b6b55f251461089357005b806395d89b41146107e2578063963a4d96146107f75780639d2e6fcb1461080d578063a457c2d71461082057005b8063724e5910116101a1578063724e5910146107575780638122af77146107775780638da5cb5b146107a457806395d6abf8146107c257005b80636819862f146106f957806370a082311461070c578063715018a61461074257005b80631ce9ba361161029d5780633d7d31fc116102415780635483067d116102135780635483067d146106815780635e181ec6146106975780635eeff101146106ac5780636592183b146106cc57005b80633d7d31fc146106175780633f2b97231461062c578063494e42f41461064c5780635257b5661461066c57005b80632d6f80131161027a5780632d6f80131461059b5780632e1a7d4d146105bb578063313ce567146105db57806339509351146105f757005b80631ce9ba361461053b57806323b872dd1461055b5780632d4047e51461057b57005b8063131829151161030457806318160ddd116102e157806318160ddd146104d1578063185cc751146104e65780631a39d8ef146105065780631a4e1aef1461051b57005b8063131829151461047b57806315d6dae91461049b57806316f2c005146104bb57005b8063095ea7b31161033d578063095ea7b3146103c95780630ed5236d146103f95780630efc51a7146104235780630fc6a11c1461044357005b806303d98c1f1461036957806306fdde0314610391578063072481e3146103b357005b3661036757005b005b34801561037557600080fd5b5061037e610ab4565b6040519081526020015b60405180910390f35b34801561039d57600080fd5b506103a6610af3565b6040516103889190612f8e565b3480156103bf57600080fd5b5061037e609f5481565b3480156103d557600080fd5b506103e96103e4366004612e1d565b610b85565b6040519015158152602001610388565b34801561040557600080fd5b5061040e610b9f565b60408051928352602083019190915201610388565b34801561042f57600080fd5b5061037e61043e366004612f1e565b610d44565b34801561044f57600080fd5b50609754610463906001600160a01b031681565b6040516001600160a01b039091168152602001610388565b34801561048757600080fd5b50610367610496366004612d96565b610dd0565b3480156104a757600080fd5b5061037e6104b6366004612f1e565b610dfa565b3480156104c757600080fd5b5061037e60a05481565b3480156104dd57600080fd5b5060355461037e565b3480156104f257600080fd5b5061037e610501366004612e1d565b610e34565b34801561051257600080fd5b5061037e610ff9565b34801561052757600080fd5b5061037e610536366004612e1d565b61108d565b34801561054757600080fd5b5061037e610556366004612f1e565b6111d9565b34801561056757600080fd5b506103e9610576366004612de2565b611209565b34801561058757600080fd5b5061037e610596366004612f1e565b61122d565b3480156105a757600080fd5b5061037e6105b6366004612f1e565b61126d565b3480156105c757600080fd5b5061037e6105d6366004612f1e565b61128b565b3480156105e757600080fd5b5060405160128152602001610388565b34801561060357600080fd5b506103e9610612366004612e1d565b611308565b34801561062357600080fd5b5061037e61132a565b34801561063857600080fd5b50610367610647366004612d96565b611346565b34801561065857600080fd5b50610367610667366004612f1e565b611370565b34801561067857600080fd5b5061037e61137d565b34801561068d57600080fd5b5061037e60a15481565b3480156106a357600080fd5b5061037e611488565b3480156106b857600080fd5b5061037e6106c7366004612d96565b6114f3565b3480156106d857600080fd5b5061037e6106e7366004612d96565b609b6020526000908152604090205481565b61037e610707366004612d96565b611501565b34801561071857600080fd5b5061037e610727366004612d96565b6001600160a01b031660009081526033602052604090205490565b34801561074e57600080fd5b506103676115bd565b34801561076357600080fd5b50610367610772366004612e1d565b6115d1565b34801561078357600080fd5b5061037e610792366004612d96565b609d6020526000908152604090205481565b3480156107b057600080fd5b506065546001600160a01b0316610463565b3480156107ce57600080fd5b5061037e6107dd366004612f1e565b611621565b3480156107ee57600080fd5b506103a661165b565b34801561080357600080fd5b5061037e609c5481565b61037e61081b366004612e1d565b61166a565b34801561082c57600080fd5b506103e961083b366004612e1d565b6116ad565b34801561084c57600080fd5b506103e961085b366004612e1d565b611728565b34801561086c57600080fd5b50609a54610463906001600160a01b031681565b61036761088e366004612f1e565b611736565b34801561089f57600080fd5b5061037e6108ae366004612f1e565b6118db565b3480156108bf57600080fd5b506103676108ce366004612e1d565b611951565b3480156108df57600080fd5b5061037e6108ee366004612d96565b611a65565b3480156108ff57600080fd5b5061037e61090e366004612f1e565b611a87565b34801561091f57600080fd5b5060a35460a45460a55460a65461094a939291906001600160801b0380821691600160801b90041685565b604080519586526020860194909452928401919091526001600160801b03908116606084015216608082015260a001610388565b34801561098a57600080fd5b5061037e611aa4565b34801561099f57600080fd5b506103676109ae366004612e66565b611ab6565b3480156109bf57600080fd5b5061037e60a25481565b3480156109d557600080fd5b5061037e609e5481565b3480156109eb57600080fd5b5061037e6109fa366004612db0565b611d90565b348015610a0b57600080fd5b5061037e610a1a366004612d96565b611dbb565b348015610a2b57600080fd5b5061037e610a3a366004612f1e565b611ddd565b348015610a4b57600080fd5b50609954610463906001600160a01b031681565b348015610a6b57600080fd5b50610367610a7a366004612d96565b611e19565b348015610a8b57600080fd5b50610367611e92565b348015610aa057600080fd5b50609854610463906001600160a01b031681565b600080610abf610ff9565b905080610ace57600091505090565b80610ad7611aa4565b610ae39061271061307b565b610aed919061305b565b91505090565b606060368054610b0290613105565b80601f0160208091040260200160405190810160405280929190818152602001828054610b2e90613105565b8015610b7b5780601f10610b5057610100808354040283529160200191610b7b565b820191906000526020600020905b815481529060010190602001808311610b5e57829003601f168201915b5050505050905090565b600033610b93818585611e9a565b60019150505b92915050565b6000806000610bac610ff9565b905080610bbe57506000928392509050565b670de0b6b3a764000081610bd0611aa4565b610bd861137d565b610be49061271061307b565b610bee919061307b565b610bfc906301e1338061307b565b610c06919061305b565b610c10919061305b565b9250609960009054906101000a90046001600160a01b03166001600160a01b0316631a39d8ef6040518163ffffffff1660e01b815260040160206040518083038186803b158015610c6057600080fd5b505afa158015610c74573d6000803e3d6000fd5b505050506040513d601f19601f82011682018060405250810190610c989190612f36565b609960009054906101000a90046001600160a01b03166001600160a01b031663fc8389956040518163ffffffff1660e01b815260040160206040518083038186803b158015610ce657600080fd5b505afa158015610cfa573d6000803e3d6000fd5b505050506040513d601f19601f82011682018060405250810190610d1e9190612f36565b610d29609c54611621565b610d33919061307b565b610d3d919061305b565b9150509091565b609754609854604051633ee777f760e11b81526000926001600160a01b0390811692637dceefee92610d80929091169085908790600401612f6a565b60206040518083038186803b158015610d9857600080fd5b505afa158015610dac573d6000803e3d6000fd5b505050506040513d601f19601f82011682018060405250810190610b999190612f36565b610dd8611fbe565b609a80546001600160a01b0319166001600160a01b0392909216919091179055565b609754609854604051634f119bbd60e01b81526000926001600160a01b0390811692634f119bbd92610d8092869216908790600401612f6a565b6099546000906001600160a01b03163314610e6a5760405162461bcd60e51b8152600401610e6190612fc1565b60405180910390fd5b610e72612018565b6001600160a01b038316610ec85760405162461bcd60e51b815260206004820152601f60248201527f6c6f616e3a207a65726f20616464726573732063616e6e6f74206c6f616e2e006044820152606401610e61565b610ed1826120dc565b6001600160a01b0384166000908152609b6020526040812080549293508392909190610efe908490613043565b9250508190555080609c6000828254610f179190613043565b909155505060a054610f2b906127106130c2565b610f33610ff9565b610f3d919061307b565b609f54609c54610f4d9190613043565b610f599061271061307b565b1115610fa75760405162461bcd60e51b815260206004820152601e60248201527f4c6f616e3a2043616e7427206c6f616e206465627420616e796d6f72652e00006044820152606401610e61565b610fb133836121a3565b604080516001600160a01b0385168152602081018390527f1db23cf53464267c45324569941e81e23d29c48ff9be2b35af2cc0a2681159d6910160405180910390a192915050565b6000611003611aa4565b6098546040516370a0823160e01b81523060048201526001600160a01b03909116906370a082319060240160206040518083038186803b15801561104657600080fd5b505afa15801561105a573d6000803e3d6000fd5b505050506040513d601f19601f8201168201806040525081019061107e9190612f36565b6110889190613043565b905090565b6099546000906001600160a01b031633146110ba5760405162461bcd60e51b8152600401610e6190612fc1565b6001600160a01b0383166000908152609b602052604090205482111561112e5760405162461bcd60e51b8152602060048201526024808201527f70656e6452657061793a20746f6f206d75636820616d6f756e7420746f2072656044820152633830bc9760e11b6064820152608401610e61565b6001600160a01b0383166000908152609b6020526040812080548490039055609c805484929061115f9084906130c2565b9091555061116e905082611a87565b6001600160a01b0384166000908152609d602052604081208054929350839290919061119b908490613043565b9250508190555080609e60008282546111b49190613043565b9250508190555081609f60008282546111cd9190613043565b90915550909392505050565b6000609e5460001461120557609e5482609f546111f6919061307b565b611200919061305b565b610b99565b5090565b60003361121785828561225a565b6112228585856122d4565b506001949350505050565b600080611238610ff9565b9050801561126457808361124b60355490565b611255919061307b565b61125f919061305b565b611266565b825b9392505050565b60008061127960355490565b9050801561126457808361124b610ff9565b6000611295612018565b61129e8261126d565b90506112aa33836124a2565b6098546112c1906001600160a01b031633836125f0565b60408051338152602081018390529081018390527ff279e6a1f5e320cca91135676d9cb6e44ca8a08c0b88342bcdb1144f6511b568906060015b60405180910390a1919050565b600033610b9381858561131b8383611d90565b6113259190613043565b611e9a565b60008060a2541161133b5750600090565b61108860a254611621565b61134e611fbe565b609780546001600160a01b0319166001600160a01b0392909216919091179055565b611378611fbe565b60a055565b609a546000906001600160a01b031663d4a99bbb611399611aa4565b6098546040516370a0823160e01b81523060048201526001600160a01b03909116906370a082319060240160206040518083038186803b1580156113dc57600080fd5b505afa1580156113f0573d6000803e3d6000fd5b505050506040513d601f19601f820116820180604052508101906114149190612f36565b6040516001600160e01b031960e085901b1681526004810192909252602482015260440160206040518083038186803b15801561145057600080fd5b505afa158015611464573d6000803e3d6000fd5b505050506040513d601f19601f820116820180604052508101906110889190612f36565b60a45460009015806114aa575060a654600160801b90046001600160801b0316155b156114b55750600090565b60a65460a45460a554600160801b9092046001600160801b0316916114df9064496cebb80061307b565b6114e9919061305b565b611088919061305b565b6000610b996107dd83611dbb565b60008061150d83611dbb565b9050600061151a82611621565b9050803411156115635761152e81836126fb565b506001600160a01b0384166000908152609d602052604081205561155281346130c2565b925061155e33846121a3565b6115b6565b60006115703460016126fb565b9050600061157d82611a87565b6001600160a01b0387166000908152609d60205260408120805492935083929091906115aa9084906130c2565b90915550600095505050505b5050919050565b6115c5611fbe565b6115cf6000612798565b565b6099546001600160a01b031633146115fb5760405162461bcd60e51b8152600401610e6190612fc1565b609854611613906001600160a01b03168330846127ea565b61161d82826128fe565b5050565b609754609854604051633ee777f760e11b81526000926001600160a01b0390811692637dceefee92610d8092869216908790600401612f6a565b606060378054610b0290613105565b6099546000906001600160a01b031633146116975760405162461bcd60e51b8152600401610e6190612fc1565b6116a134836126fb565b9050610b9983826128fe565b600033816116bb8286611d90565b90508381101561171b5760405162461bcd60e51b815260206004820152602560248201527f45524332303a2064656372656173656420616c6c6f77616e63652062656c6f77604482015264207a65726f60d81b6064820152608401610e61565b6112228286868403611e9a565b600033610b938185856122d4565b6099546001600160a01b031633146117605760405162461bcd60e51b8152600401610e6190612fc1565b611768612018565b60a6546001600160801b031642116117c25760405162461bcd60e51b815260206004820152601a60248201527f706179496e7465726573743a20616c726561647920706169642e0000000000006044820152606401610e61565b60006117ce34836126fb565b90506117d8611aa4565b60a3556117e3610ff9565b60a45560a6546117fc906001600160801b03164261309a565b426001600160801b039081169116600160801b026fffffffffffffffffffffffffffffffff19161760a65560a581905560a2548111156118865760a2547f57546d41506d4d7643c2ea350647fa3d6ada23d1de3afa7a32496df9b7686bc09061186581846130c2565b6040805192835260208301919091520160405180910390a1600060a2555050565b8060a2600082825461189891906130c2565b909155505060408051828152600060208201527f57546d41506d4d7643c2ea350647fa3d6ada23d1de3afa7a32496df9b7686bc091015b60405180910390a15050565b60006118e5612018565b6118ee8261122d565b609854909150611909906001600160a01b03163330856127ea565b61191333826129e3565b60408051338152602081018490529081018290527f90890809c654f11d6e72a28fa60149770a0d11ec6c92319d6ceb2bb0a4ea1a15906060016112fb565b6099546001600160a01b0316331461197b5760405162461bcd60e51b8152600401610e6190612fc1565b6001600160a01b0382166000908152609b60205260409020548111156119f75760405162461bcd60e51b815260206004820152602b60248201527f74616b65446562744f776e6572736869703a20746f6f206d75636820616d6f7560448201526a373a103a37903a30b5b29760a91b6064820152608401610e61565b6001600160a01b0382166000908152609b60205260408082208054849003905533825281208054839290611a2c908490613043565b90915550506040517f80caff6c1c70cc823c773c968ebdab44b7dc12da8117b4634b5f3eb78b07011e906118cf90849033908590612f6a565b6001600160a01b0381166000908152609b6020526040812054610b9990611621565b6000609f5460001461120557609f5482609e546111f6919061307b565b6000609f54609c546110889190613043565b600054610100900460ff1615808015611ad65750600054600160ff909116105b80611af05750303b158015611af0575060005460ff166001145b611b535760405162461bcd60e51b815260206004820152602e60248201527f496e697469616c697a61626c653a20636f6e747261637420697320616c72656160448201526d191e481a5b9a5d1a585b1a5e995960921b6064820152608401610e61565b6000805460ff191660011790558015611b76576000805461ff0019166101001790555b6001600160a01b038516611bcc5760405162461bcd60e51b815260206004820152601f60248201527f5661756c743a20537461796b696e672061646472657373206973207a65726f006044820152606401610e61565b6001600160a01b038416611c2c5760405162461bcd60e51b815260206004820152602160248201527f5661756c743a204261736520546f6b656e206973207a65726f206164647265736044820152607360f81b6064820152608401610e61565b611c9f8a8a8080601f01602080910402602001604051908101604052809392919081815260200183838082843760009201919091525050604080516020601f8e018190048102820181019092528c815292508c91508b9081908401838280828437600092019190915250612ac292505050565b611ca7612af3565b609880546001600160a01b038087166001600160a01b03199283161790925560998054928816929091169190911790554260a155611ce482611370565b611ced83610dd0565b611cf686611346565b6040805160a0810182526000808252602082018190529181018290526001600160801b03421660608201819052608090910182905260a382905560a482905560a59190915560a6558015611d84576000805461ff0019169055604051600181527f7f26b83ff96e1f2b6a682f133852f6798a09c465da95921460cefb38474024989060200160405180910390a15b50505050505050505050565b6001600160a01b03918216600090815260346020908152604080832093909416825291909152205490565b6001600160a01b0381166000908152609d6020526040812054610b99906111d9565b609754609854604051634f119bbd60e01b81526000926001600160a01b0390811692634f119bbd92610d80929091169085908790600401612f6a565b611e21611fbe565b6001600160a01b038116611e865760405162461bcd60e51b815260206004820152602660248201527f4f776e61626c653a206e6577206f776e657220697320746865207a65726f206160448201526564647265737360d01b6064820152608401610e61565b611e8f81612798565b50565b6115cf612018565b6001600160a01b038316611efc5760405162461bcd60e51b8152602060048201526024808201527f45524332303a20617070726f76652066726f6d20746865207a65726f206164646044820152637265737360e01b6064820152608401610e61565b6001600160a01b038216611f5d5760405162461bcd60e51b815260206004820152602260248201527f45524332303a20617070726f766520746f20746865207a65726f206164647265604482015261737360f01b6064820152608401610e61565b6001600160a01b0383811660008181526034602090815260408083209487168084529482529182902085905590518481527f8c5be1e5ebec7d5bd14f71427d1e84f3dd0314c0f7b2291e5b200ac8c7c3b925910160405180910390a3505050565b6065546001600160a01b031633146115cf5760405162461bcd60e51b815260206004820181905260248201527f4f776e61626c653a2063616c6c6572206973206e6f7420746865206f776e65726044820152606401610e61565b60a154421161202357565b600060a1544261203391906130c2565b90506000670de0b6b3a764000082609c5461204c61137d565b612056919061307b565b612060919061307b565b61206a919061305b565b90508060a2600082825461207e9190613043565b925050819055506000670de0b6b3a764000083609f5461209c61137d565b6120a6919061307b565b6120b0919061307b565b6120ba919061305b565b905080609f60008282546120ce9190613043565b90915550504260a155505050565b60006120e782610d44565b609854609754919250612107916001600160a01b03918216911683612b22565b609754609854604051630ed2fc9560e01b81526001600160a01b039182166004820152600060248201526044810184905260648101859052911690630ed2fc9590608401602060405180830381600087803b15801561216557600080fd5b505af1158015612179573d6000803e3d6000fd5b505050506040513d601f19601f8201168201806040525081019061219d9190612f36565b50919050565b604080516000808252602082019092526001600160a01b0384169083906040516121cd9190612f4e565b60006040518083038185875af1925050503d806000811461220a576040519150601f19603f3d011682016040523d82523d6000602084013e61220f565b606091505b50509050806122555760405162461bcd60e51b815260206004820152601260248201527121736166655472616e7366657245564d4f5360701b6044820152606401610e61565b505050565b60006122668484611d90565b905060001981146122ce57818110156122c15760405162461bcd60e51b815260206004820152601d60248201527f45524332303a20696e73756666696369656e7420616c6c6f77616e63650000006044820152606401610e61565b6122ce8484848403611e9a565b50505050565b6001600160a01b0383166123385760405162461bcd60e51b815260206004820152602560248201527f45524332303a207472616e736665722066726f6d20746865207a65726f206164604482015264647265737360d81b6064820152608401610e61565b6001600160a01b03821661239a5760405162461bcd60e51b815260206004820152602360248201527f45524332303a207472616e7366657220746f20746865207a65726f206164647260448201526265737360e81b6064820152608401610e61565b6001600160a01b038316600090815260336020526040902054818110156124125760405162461bcd60e51b815260206004820152602660248201527f45524332303a207472616e7366657220616d6f756e7420657863656564732062604482015265616c616e636560d01b6064820152608401610e61565b6001600160a01b03808516600090815260336020526040808220858503905591851681529081208054849290612449908490613043565b92505081905550826001600160a01b0316846001600160a01b03167fddf252ad1be2c89b69c2b068fc378daa952ba7f163c4a11628f55a4df523b3ef8460405161249591815260200190565b60405180910390a36122ce565b6001600160a01b0382166125025760405162461bcd60e51b815260206004820152602160248201527f45524332303a206275726e2066726f6d20746865207a65726f206164647265736044820152607360f81b6064820152608401610e61565b6001600160a01b038216600090815260336020526040902054818110156125765760405162461bcd60e51b815260206004820152602260248201527f45524332303a206275726e20616d6f756e7420657863656564732062616c616e604482015261636560f01b6064820152608401610e61565b6001600160a01b03831660009081526033602052604081208383039055603580548492906125a59084906130c2565b90915550506040518281526000906001600160a01b038516907fddf252ad1be2c89b69c2b068fc378daa952ba7f163c4a11628f55a4df523b3ef9060200160405180910390a3505050565b604080516001600160a01b038481166024830152604480830185905283518084039091018152606490920183526020820180516001600160e01b031663a9059cbb60e01b179052915160009283929087169161264c9190612f4e565b6000604051808303816000865af19150503d8060008114612689576040519150601f19603f3d011682016040523d82523d6000602084013e61268e565b606091505b50915091508180156126b85750805115806126b85750808060200190518101906126b89190612e46565b6126f45760405162461bcd60e51b815260206004820152600d60248201526c10b9b0b332aa3930b739b332b960991b6044820152606401610e61565b5050505050565b609754609854604051630ed2fc9560e01b81526000600482018190526001600160a01b0392831660248301526044820186905260648201859052929190911690630ed2fc959085906084016020604051808303818588803b15801561275f57600080fd5b505af1158015612773573d6000803e3d6000fd5b50505050506040513d601f19601f820116820180604052508101906112669190612f36565b606580546001600160a01b038381166001600160a01b0319831681179093556040519116919082907f8be0079c531659141344cd1fd0a4f28419497f9722a3daafe3b4186f6b6457e090600090a35050565b600080856001600160a01b03166323b872dd86868660405160240161281193929190612f6a565b6040516020818303038152906040529060e01b6020820180516001600160e01b03838183161783525050505060405161284a9190612f4e565b6000604051808303816000865af19150503d8060008114612887576040519150601f19603f3d011682016040523d82523d6000602084013e61288c565b606091505b50915091508180156128b65750805115806128b65750808060200190518101906128b69190612e46565b6128f65760405162461bcd60e51b815260206004820152601160248201527021736166655472616e7366657246726f6d60781b6044820152606401610e61565b505050505050565b612906612018565b6001600160a01b0382166000908152609b602052604090205481111561296e5760405162461bcd60e51b815260206004820181905260248201527f72657061793a20746f6f206d75636820616d6f756e7420746f2072657061792e6044820152606401610e61565b6001600160a01b0382166000908152609b6020526040812080548390039055609c805483929061299f9084906130c2565b9091555050604080516001600160a01b0384168152602081018390527f5c16de4f8b59bd9caf0f49a545f25819a895ed223294290b408242e72a59423191016118cf565b6001600160a01b038216612a395760405162461bcd60e51b815260206004820152601f60248201527f45524332303a206d696e7420746f20746865207a65726f2061646472657373006044820152606401610e61565b8060356000828254612a4b9190613043565b90915550506001600160a01b03821660009081526033602052604081208054839290612a78908490613043565b90915550506040518181526001600160a01b038316906000907fddf252ad1be2c89b69c2b068fc378daa952ba7f163c4a11628f55a4df523b3ef9060200160405180910390a35050565b600054610100900460ff16612ae95760405162461bcd60e51b8152600401610e6190612ff8565b61161d8282612c25565b600054610100900460ff16612b1a5760405162461bcd60e51b8152600401610e6190612ff8565b6115cf612c73565b604080516001600160a01b038481166024830152604480830185905283518084039091018152606490920183526020820180516001600160e01b031663095ea7b360e01b1790529151600092839290871691612b7e9190612f4e565b6000604051808303816000865af19150503d8060008114612bbb576040519150601f19603f3d011682016040523d82523d6000602084013e612bc0565b606091505b5091509150818015612bea575080511580612bea575080806020019051810190612bea9190612e46565b6126f45760405162461bcd60e51b815260206004820152600c60248201526b2173616665417070726f766560a01b6044820152606401610e61565b600054610100900460ff16612c4c5760405162461bcd60e51b8152600401610e6190612ff8565b8151612c5f906036906020850190612ca3565b508051612255906037906020840190612ca3565b600054610100900460ff16612c9a5760405162461bcd60e51b8152600401610e6190612ff8565b6115cf33612798565b828054612caf90613105565b90600052602060002090601f016020900481019282612cd15760008555612d17565b82601f10612cea57805160ff1916838001178555612d17565b82800160010185558215612d17579182015b82811115612d17578251825591602001919060010190612cfc565b506112059291505b808211156112055760008155600101612d1f565b80356001600160a01b0381168114612d4a57600080fd5b919050565b60008083601f840112612d60578182fd5b50813567ffffffffffffffff811115612d77578182fd5b602083019150836020828501011115612d8f57600080fd5b9250929050565b600060208284031215612da7578081fd5b61126682612d33565b60008060408385031215612dc2578081fd5b612dcb83612d33565b9150612dd960208401612d33565b90509250929050565b600080600060608486031215612df6578081fd5b612dff84612d33565b9250612e0d60208501612d33565b9150604084013590509250925092565b60008060408385031215612e2f578182fd5b612e3883612d33565b946020939093013593505050565b600060208284031215612e57578081fd5b81518015158114611266578182fd5b600080600080600080600080600060e08a8c031215612e83578485fd5b893567ffffffffffffffff80821115612e9a578687fd5b612ea68d838e01612d4f565b909b50995060208c0135915080821115612ebe578687fd5b50612ecb8c828d01612d4f565b9098509650612ede905060408b01612d33565b9450612eec60608b01612d33565b9350612efa60808b01612d33565b9250612f0860a08b01612d33565b915060c08a013590509295985092959850929598565b600060208284031215612f2f578081fd5b5035919050565b600060208284031215612f47578081fd5b5051919050565b60008251612f608184602087016130d9565b9190910192915050565b6001600160a01b039384168152919092166020820152604081019190915260600190565b6020815260008251806020840152612fad8160408501602087016130d9565b601f01601f19169190910160400192915050565b6020808252601d908201527f5661756c743a204e6f7420537461796b696e6720636f6e74726163742e000000604082015260600190565b6020808252602b908201527f496e697469616c697a61626c653a20636f6e7472616374206973206e6f74206960408201526a6e697469616c697a696e6760a81b606082015260800190565b600082198211156130565761305661313a565b500190565b60008261307657634e487b7160e01b81526012600452602481fd5b500490565b60008160001904831182151516156130955761309561313a565b500290565b60006001600160801b03838116908316818110156130ba576130ba61313a565b039392505050565b6000828210156130d4576130d461313a565b500390565b60005b838110156130f45781810151838201526020016130dc565b838111156122ce5750506000910152565b600181811c9082168061311957607f821691505b6020821081141561219d57634e487b7160e01b600052602260045260246000fd5b634e487b7160e01b600052601160045260246000fdfea2646970667358221220baff153bfad9fc0e726e1ac65b393faee62867869568e2073f8e770c02f0935f64736f6c63430008040033",
  "devdoc": {
    "kind": "dev",
    "methods": {
      "accrue()": {
        "details": "for test -> should be REMOVED"
      },
      "allowance(address,address)": {
        "details": "See {IERC20-allowance}."
      },
      "approve(address,uint256)": {
        "details": "See {IERC20-approve}. NOTE: If `amount` is the maximum `uint256`, the allowance is not updated on `transferFrom`. This is semantically equivalent to an infinite approval. Requirements: - `spender` cannot be the zero address."
      },
      "balanceOf(address)": {
        "details": "See {IERC20-balanceOf}."
      },
      "decimals()": {
        "details": "Returns the number of decimals used to get its user representation. For example, if `decimals` equals `2`, a balance of `505` tokens should be displayed to a user as `5.05` (`505 / 10 ** 2`). Tokens usually opt for a value of 18, imitating the relationship between Ether and Wei. This is the value {ERC20} uses, unless this function is overridden; NOTE: This information is only used for _display_ purposes: it in no way affects any of the arithmetic of the contract, including {IERC20-balanceOf} and {IERC20-transfer}."
      },
      "decreaseAllowance(address,uint256)": {
        "details": "Atomically decreases the allowance granted to `spender` by the caller. This is an alternative to {approve} that can be used as a mitigation for problems described in {IERC20-approve}. Emits an {Approval} event indicating the updated allowance. Requirements: - `spender` cannot be the zero address. - `spender` must have allowance for the caller of at least `subtractedValue`."
      },
      "getBaseIn(uint256)": {
        "details": "calc (?)EVMOS = $ token"
      },
      "getBaseOut(uint256)": {
        "details": "calc $ token = (?)EVMOS"
      },
      "getInterestInBase()": {
        "details": "calculate interest (1 day) in base (EVMOS)"
      },
      "getInterestRate()": {
        "details": "denominator = 1E18 "
      },
      "getTokenIn(uint256)": {
        "details": "calc (?)token = $ EVMOS"
      },
      "getTokenOut(uint256)": {
        "details": "calc $ EVMOS = (?)token"
      },
      "increaseAllowance(address,uint256)": {
        "details": "Atomically increases the allowance granted to `spender` by the caller. This is an alternative to {approve} that can be used as a mitigation for problems described in {IERC20-approve}. Emits an {Approval} event indicating the updated allowance. Requirements: - `spender` cannot be the zero address."
      },
      "name()": {
        "details": "Returns the name of the token."
      },
      "owner()": {
        "details": "Returns the address of the current owner."
      },
      "pendRepay(address,uint256)": {
        "details": "pending repay debt because of EVMOS Unstaking's 14 days lock. Stayking should approve token first."
      },
      "renounceOwnership()": {
        "details": "Leaves the contract without owner. It will not be possible to call `onlyOwner` functions anymore. Can only be called by the current owner. NOTE: Renouncing ownership will leave the contract without an owner, thereby removing any functionality that is only available to the owner."
      },
      "repayInBase(address,uint256)": {
        "details": "repay debt for Base token(EVMOS).",
        "params": {
          "minRepaid": "minimum repaid debtToken amonut",
          "user": "debt owner"
        }
      },
      "repayPendingDebt(address)": {
        "details": "stayking should send with msg.value(=repayingDebtInBase)"
      },
      "symbol()": {
        "details": "Returns the symbol of the token, usually a shorter version of the name."
      },
      "totalSupply()": {
        "details": "See {IERC20-totalSupply}."
      },
      "transfer(address,uint256)": {
        "details": "See {IERC20-transfer}. Requirements: - `to` cannot be the zero address. - the caller must have a balance of at least `amount`."
      },
      "transferFrom(address,address,uint256)": {
        "details": "See {IERC20-transferFrom}. Emits an {Approval} event indicating the updated allowance. This is not required by the EIP. See the note at the beginning of {ERC20}. NOTE: Does not update the allowance if the current allowance is the maximum `uint256`. Requirements: - `from` and `to` cannot be the zero address. - `from` must have a balance of at least `amount`. - the caller must have allowance for ``from``'s tokens of at least `amount`."
      },
      "transferOwnership(address)": {
        "details": "Transfers ownership of the contract to a new account (`newOwner`). Can only be called by the current owner."
      }
    },
    "stateVariables": {
      "debtAmountOf": {
        "details": "totalAmount == Token.balanceOf(this) + totalStakedDebtAmount + totalPendingDebtAmount totalShare == totalSupply()"
      }
    },
    "version": 1
  },
  "userdoc": {
    "kind": "user",
    "methods": {
      "deposit(uint256)": {
        "notice": "user approve should be preceded"
      },
      "getInterestRate()": {
        "notice": "Amount of interest paid per second"
      },
      "loan(address,uint256)": {
        "notice": "loan is only for Stayking contract."
      }
    },
    "version": 1
  },
  "storageLayout": {
    "storage": [
      {
        "astId": 2410,
        "contract": "contracts/token/Vault.sol:Vault",
        "label": "_initialized",
        "offset": 0,
        "slot": "0",
        "type": "t_uint8"
      },
      {
        "astId": 2413,
        "contract": "contracts/token/Vault.sol:Vault",
        "label": "_initializing",
        "offset": 1,
        "slot": "0",
        "type": "t_bool"
      },
      {
        "astId": 1175,
        "contract": "contracts/token/Vault.sol:Vault",
        "label": "__gap",
        "offset": 0,
        "slot": "1",
        "type": "t_array(t_uint256)50_storage"
      },
      {
        "astId": 1811,
        "contract": "contracts/token/Vault.sol:Vault",
        "label": "_balances",
        "offset": 0,
        "slot": "51",
        "type": "t_mapping(t_address,t_uint256)"
      },
      {
        "astId": 1817,
        "contract": "contracts/token/Vault.sol:Vault",
        "label": "_allowances",
        "offset": 0,
        "slot": "52",
        "type": "t_mapping(t_address,t_mapping(t_address,t_uint256))"
      },
      {
        "astId": 1819,
        "contract": "contracts/token/Vault.sol:Vault",
        "label": "_totalSupply",
        "offset": 0,
        "slot": "53",
        "type": "t_uint256"
      },
      {
        "astId": 1821,
        "contract": "contracts/token/Vault.sol:Vault",
        "label": "_name",
        "offset": 0,
        "slot": "54",
        "type": "t_string_storage"
      },
      {
        "astId": 1823,
        "contract": "contracts/token/Vault.sol:Vault",
        "label": "_symbol",
        "offset": 0,
        "slot": "55",
        "type": "t_string_storage"
      },
      {
        "astId": 2402,
        "contract": "contracts/token/Vault.sol:Vault",
        "label": "__gap",
        "offset": 0,
        "slot": "56",
        "type": "t_array(t_uint256)45_storage"
      },
      {
        "astId": 2678,
        "contract": "contracts/token/Vault.sol:Vault",
        "label": "_owner",
        "offset": 0,
        "slot": "101",
        "type": "t_address"
      },
      {
        "astId": 2798,
        "contract": "contracts/token/Vault.sol:Vault",
        "label": "__gap",
        "offset": 0,
        "slot": "102",
        "type": "t_array(t_uint256)49_storage"
      },
      {
        "astId": 6901,
        "contract": "contracts/token/Vault.sol:Vault",
        "label": "swapHelper",
        "offset": 0,
        "slot": "151",
        "type": "t_contract(ISwapHelper)577"
      },
      {
        "astId": 6904,
        "contract": "contracts/token/Vault.sol:Vault",
        "label": "token",
        "offset": 0,
        "slot": "152",
        "type": "t_address"
      },
      {
        "astId": 6907,
        "contract": "contracts/token/Vault.sol:Vault",
        "label": "stayking",
        "offset": 0,
        "slot": "153",
        "type": "t_address"
      },
      {
        "astId": 6910,
        "contract": "contracts/token/Vault.sol:Vault",
        "label": "interestModel",
        "offset": 0,
        "slot": "154",
        "type": "t_address"
      },
      {
        "astId": 6916,
        "contract": "contracts/token/Vault.sol:Vault",
        "label": "debtAmountOf",
        "offset": 0,
        "slot": "155",
        "type": "t_mapping(t_address,t_uint256)"
      },
      {
        "astId": 6919,
        "contract": "contracts/token/Vault.sol:Vault",
        "label": "totalStakedDebtAmount",
        "offset": 0,
        "slot": "156",
        "type": "t_uint256"
      },
      {
        "astId": 6923,
        "contract": "contracts/token/Vault.sol:Vault",
        "label": "pendingDebtShareOf",
        "offset": 0,
        "slot": "157",
        "type": "t_mapping(t_address,t_uint256)"
      },
      {
        "astId": 6926,
        "contract": "contracts/token/Vault.sol:Vault",
        "label": "totalPendingDebtShare",
        "offset": 0,
        "slot": "158",
        "type": "t_uint256"
      },
      {
        "astId": 6929,
        "contract": "contracts/token/Vault.sol:Vault",
        "label": "totalPendingDebtAmount",
        "offset": 0,
        "slot": "159",
        "type": "t_uint256"
      },
      {
        "astId": 6932,
        "contract": "contracts/token/Vault.sol:Vault",
        "label": "minReservedBps",
        "offset": 0,
        "slot": "160",
        "type": "t_uint256"
      },
      {
        "astId": 6935,
        "contract": "contracts/token/Vault.sol:Vault",
        "label": "lastAccruedAt",
        "offset": 0,
        "slot": "161",
        "type": "t_uint256"
      },
      {
        "astId": 6938,
        "contract": "contracts/token/Vault.sol:Vault",
        "label": "accInterest",
        "offset": 0,
        "slot": "162",
        "type": "t_uint256"
      },
      {
        "astId": 6952,
        "contract": "contracts/token/Vault.sol:Vault",
        "label": "lastPaid",
        "offset": 0,
        "slot": "163",
        "type": "t_struct(LastPaid)6949_storage"
      }
    ],
    "types": {
      "t_address": {
        "encoding": "inplace",
        "label": "address",
        "numberOfBytes": "20"
      },
      "t_array(t_uint256)45_storage": {
        "base": "t_uint256",
        "encoding": "inplace",
        "label": "uint256[45]",
        "numberOfBytes": "1440"
      },
      "t_array(t_uint256)49_storage": {
        "base": "t_uint256",
        "encoding": "inplace",
        "label": "uint256[49]",
        "numberOfBytes": "1568"
      },
      "t_array(t_uint256)50_storage": {
        "base": "t_uint256",
        "encoding": "inplace",
        "label": "uint256[50]",
        "numberOfBytes": "1600"
      },
      "t_bool": {
        "encoding": "inplace",
        "label": "bool",
        "numberOfBytes": "1"
      },
      "t_contract(ISwapHelper)577": {
        "encoding": "inplace",
        "label": "contract ISwapHelper",
        "numberOfBytes": "20"
      },
      "t_mapping(t_address,t_mapping(t_address,t_uint256))": {
        "encoding": "mapping",
        "key": "t_address",
        "label": "mapping(address => mapping(address => uint256))",
        "numberOfBytes": "32",
        "value": "t_mapping(t_address,t_uint256)"
      },
      "t_mapping(t_address,t_uint256)": {
        "encoding": "mapping",
        "key": "t_address",
        "label": "mapping(address => uint256)",
        "numberOfBytes": "32",
        "value": "t_uint256"
      },
      "t_string_storage": {
        "encoding": "bytes",
        "label": "string",
        "numberOfBytes": "32"
      },
      "t_struct(LastPaid)6949_storage": {
        "encoding": "inplace",
        "label": "struct Vault.LastPaid",
        "members": [
          {
            "astId": 6940,
            "contract": "contracts/token/Vault.sol:Vault",
            "label": "totalDebtAmount",
            "offset": 0,
            "slot": "0",
            "type": "t_uint256"
          },
          {
            "astId": 6942,
            "contract": "contracts/token/Vault.sol:Vault",
            "label": "totalAmount",
            "offset": 0,
            "slot": "1",
            "type": "t_uint256"
          },
          {
            "astId": 6944,
            "contract": "contracts/token/Vault.sol:Vault",
            "label": "reward",
            "offset": 0,
            "slot": "2",
            "type": "t_uint256"
          },
          {
            "astId": 6946,
            "contract": "contracts/token/Vault.sol:Vault",
            "label": "timestamp",
            "offset": 0,
            "slot": "3",
            "type": "t_uint128"
          },
          {
            "astId": 6948,
            "contract": "contracts/token/Vault.sol:Vault",
            "label": "interval",
            "offset": 16,
            "slot": "3",
            "type": "t_uint128"
          }
        ],
        "numberOfBytes": "128"
      },
      "t_uint128": {
        "encoding": "inplace",
        "label": "uint128",
        "numberOfBytes": "16"
      },
      "t_uint256": {
        "encoding": "inplace",
        "label": "uint256",
        "numberOfBytes": "32"
      },
      "t_uint8": {
        "encoding": "inplace",
        "label": "uint8",
        "numberOfBytes": "1"
      }
    }
  }
}