{
  "_format": "hh-sol-artifact-1",
  "contractName": "Vault",
  "sourceName": "contracts/token/Vault.sol",
  "abi": [
    {
      "anonymous": false,
      "inputs": [
        {
          "indexed": true,
          "internalType": "address",
          "name": "owner",
          "type": "address"
        },
        {
          "indexed": true,
          "internalType": "address",
          "name": "spender",
          "type": "address"
        },
        {
          "indexed": false,
          "internalType": "uint256",
          "name": "value",
          "type": "uint256"
        }
      ],
      "name": "Approval",
      "type": "event"
    },
    {
      "anonymous": false,
      "inputs": [
        {
          "indexed": false,
          "internalType": "address",
          "name": "user",
          "type": "address"
        },
        {
          "indexed": false,
          "internalType": "uint256",
          "name": "amount",
          "type": "uint256"
        },
        {
          "indexed": false,
          "internalType": "uint256",
          "name": "share",
          "type": "uint256"
        }
      ],
      "name": "Deposit",
      "type": "event"
    },
    {
      "anonymous": false,
      "inputs": [
        {
          "indexed": false,
          "internalType": "uint8",
          "name": "version",
          "type": "uint8"
        }
      ],
      "name": "Initialized",
      "type": "event"
    },
    {
      "anonymous": false,
      "inputs": [
        {
          "indexed": false,
          "internalType": "address",
          "name": "user",
          "type": "address"
        },
        {
          "indexed": false,
          "internalType": "uint256",
          "name": "amount",
          "type": "uint256"
        }
      ],
      "name": "Loan",
      "type": "event"
    },
    {
      "anonymous": false,
      "inputs": [
        {
          "indexed": true,
          "internalType": "address",
          "name": "previousOwner",
          "type": "address"
        },
        {
          "indexed": true,
          "internalType": "address",
          "name": "newOwner",
          "type": "address"
        }
      ],
      "name": "OwnershipTransferred",
      "type": "event"
    },
    {
      "anonymous": false,
      "inputs": [
        {
          "indexed": false,
          "internalType": "uint256",
          "name": "totalDebt",
          "type": "uint256"
        },
        {
          "indexed": false,
          "internalType": "uint256",
          "name": "interest",
          "type": "uint256"
        }
      ],
      "name": "PayInterest",
      "type": "event"
    },
    {
      "anonymous": false,
      "inputs": [
        {
          "indexed": false,
          "internalType": "address",
          "name": "user",
          "type": "address"
        },
        {
          "indexed": false,
          "internalType": "uint256",
          "name": "amount",
          "type": "uint256"
        }
      ],
      "name": "Repay",
      "type": "event"
    },
    {
      "anonymous": false,
      "inputs": [
        {
          "indexed": true,
          "internalType": "address",
          "name": "from",
          "type": "address"
        },
        {
          "indexed": true,
          "internalType": "address",
          "name": "to",
          "type": "address"
        },
        {
          "indexed": false,
          "internalType": "uint256",
          "name": "value",
          "type": "uint256"
        }
      ],
      "name": "Transfer",
      "type": "event"
    },
    {
      "anonymous": false,
      "inputs": [
        {
          "indexed": false,
          "internalType": "address",
          "name": "from",
          "type": "address"
        },
        {
          "indexed": false,
          "internalType": "address",
          "name": "to",
          "type": "address"
        },
        {
          "indexed": false,
          "internalType": "uint256",
          "name": "amount",
          "type": "uint256"
        }
      ],
      "name": "TransferDebtOwnership",
      "type": "event"
    },
    {
      "anonymous": false,
      "inputs": [
        {
          "indexed": false,
          "internalType": "uint256",
          "name": "rateBps",
          "type": "uint256"
        }
      ],
      "name": "UtilizationRate",
      "type": "event"
    },
    {
      "anonymous": false,
      "inputs": [
        {
          "indexed": false,
          "internalType": "address",
          "name": "user",
          "type": "address"
        },
        {
          "indexed": false,
          "internalType": "uint256",
          "name": "amount",
          "type": "uint256"
        },
        {
          "indexed": false,
          "internalType": "uint256",
          "name": "share",
          "type": "uint256"
        }
      ],
      "name": "Withdraw",
      "type": "event"
    },
    {
      "inputs": [
        {
          "internalType": "string",
          "name": "_name",
          "type": "string"
        },
        {
          "internalType": "string",
          "name": "_symbol",
          "type": "string"
        },
        {
          "internalType": "address",
          "name": "_stayking",
          "type": "address"
        },
        {
          "internalType": "address",
          "name": "_token",
          "type": "address"
        },
        {
          "internalType": "address",
          "name": "_interestModel",
          "type": "address"
        },
        {
          "internalType": "uint256",
          "name": "_minReservedBps",
          "type": "uint256"
        }
      ],
      "name": "__Vault_init",
      "outputs": [],
      "stateMutability": "nonpayable",
      "type": "function"
    },
    {
      "inputs": [
        {
          "internalType": "address",
          "name": "owner",
          "type": "address"
        },
        {
          "internalType": "address",
          "name": "spender",
          "type": "address"
        }
      ],
      "name": "allowance",
      "outputs": [
        {
          "internalType": "uint256",
          "name": "",
          "type": "uint256"
        }
      ],
      "stateMutability": "view",
      "type": "function"
    },
    {
      "inputs": [
        {
          "internalType": "address",
          "name": "spender",
          "type": "address"
        },
        {
          "internalType": "uint256",
          "name": "amount",
          "type": "uint256"
        }
      ],
      "name": "approve",
      "outputs": [
        {
          "internalType": "bool",
          "name": "",
          "type": "bool"
        }
      ],
      "stateMutability": "nonpayable",
      "type": "function"
    },
    {
      "inputs": [
        {
          "internalType": "address",
          "name": "account",
          "type": "address"
        }
      ],
      "name": "balanceOf",
      "outputs": [
        {
          "internalType": "uint256",
          "name": "",
          "type": "uint256"
        }
      ],
      "stateMutability": "view",
      "type": "function"
    },
    {
      "inputs": [
        {
          "internalType": "address",
          "name": "",
          "type": "address"
        }
      ],
      "name": "debtAmountOf",
      "outputs": [
        {
          "internalType": "uint256",
          "name": "",
          "type": "uint256"
        }
      ],
      "stateMutability": "view",
      "type": "function"
    },
    {
      "inputs": [],
      "name": "decimals",
      "outputs": [
        {
          "internalType": "uint8",
          "name": "",
          "type": "uint8"
        }
      ],
      "stateMutability": "view",
      "type": "function"
    },
    {
      "inputs": [
        {
          "internalType": "address",
          "name": "spender",
          "type": "address"
        },
        {
          "internalType": "uint256",
          "name": "subtractedValue",
          "type": "uint256"
        }
      ],
      "name": "decreaseAllowance",
      "outputs": [
        {
          "internalType": "bool",
          "name": "",
          "type": "bool"
        }
      ],
      "stateMutability": "nonpayable",
      "type": "function"
    },
    {
      "inputs": [
        {
          "internalType": "uint256",
          "name": "amount",
          "type": "uint256"
        }
      ],
      "name": "deposit",
      "outputs": [
        {
          "internalType": "uint256",
          "name": "share",
          "type": "uint256"
        }
      ],
      "stateMutability": "nonpayable",
      "type": "function"
    },
    {
      "inputs": [],
      "name": "getInterestRate",
      "outputs": [
        {
          "internalType": "uint256",
          "name": "interestRate",
          "type": "uint256"
        }
      ],
      "stateMutability": "view",
      "type": "function"
    },
    {
      "inputs": [
        {
          "internalType": "address",
          "name": "spender",
          "type": "address"
        },
        {
          "internalType": "uint256",
          "name": "addedValue",
          "type": "uint256"
        }
      ],
      "name": "increaseAllowance",
      "outputs": [
        {
          "internalType": "bool",
          "name": "",
          "type": "bool"
        }
      ],
      "stateMutability": "nonpayable",
      "type": "function"
    },
    {
      "inputs": [],
      "name": "interestModel",
      "outputs": [
        {
          "internalType": "address",
          "name": "",
          "type": "address"
        }
      ],
      "stateMutability": "view",
      "type": "function"
    },
    {
      "inputs": [
        {
          "internalType": "address",
          "name": "user",
          "type": "address"
        },
        {
          "internalType": "uint256",
          "name": "amount",
          "type": "uint256"
        }
      ],
      "name": "loan",
      "outputs": [],
      "stateMutability": "nonpayable",
      "type": "function"
    },
    {
      "inputs": [],
      "name": "name",
      "outputs": [
        {
          "internalType": "string",
          "name": "",
          "type": "string"
        }
      ],
      "stateMutability": "view",
      "type": "function"
    },
    {
      "inputs": [],
      "name": "owner",
      "outputs": [
        {
          "internalType": "address",
          "name": "",
          "type": "address"
        }
      ],
      "stateMutability": "view",
      "type": "function"
    },
    {
      "inputs": [],
      "name": "payInterest",
      "outputs": [],
      "stateMutability": "nonpayable",
      "type": "function"
    },
    {
      "inputs": [],
      "name": "renounceOwnership",
      "outputs": [],
      "stateMutability": "nonpayable",
      "type": "function"
    },
    {
      "inputs": [
        {
          "internalType": "address",
          "name": "user",
          "type": "address"
        },
        {
          "internalType": "uint256",
          "name": "amount",
          "type": "uint256"
        }
      ],
      "name": "repay",
      "outputs": [],
      "stateMutability": "nonpayable",
      "type": "function"
    },
    {
      "inputs": [],
      "name": "saveUtilizationRateBps",
      "outputs": [],
      "stateMutability": "nonpayable",
      "type": "function"
    },
    {
      "inputs": [],
      "name": "stayking",
      "outputs": [
        {
          "internalType": "address",
          "name": "",
          "type": "address"
        }
      ],
      "stateMutability": "view",
      "type": "function"
    },
    {
      "inputs": [],
      "name": "symbol",
      "outputs": [
        {
          "internalType": "string",
          "name": "",
          "type": "string"
        }
      ],
      "stateMutability": "view",
      "type": "function"
    },
    {
      "inputs": [
        {
          "internalType": "address",
          "name": "from",
          "type": "address"
        },
        {
          "internalType": "uint256",
          "name": "amount",
          "type": "uint256"
        }
      ],
      "name": "takeDebtOwnership",
      "outputs": [],
      "stateMutability": "nonpayable",
      "type": "function"
    },
    {
      "inputs": [],
      "name": "token",
      "outputs": [
        {
          "internalType": "address",
          "name": "",
          "type": "address"
        }
      ],
      "stateMutability": "view",
      "type": "function"
    },
    {
      "inputs": [],
      "name": "totalAmount",
      "outputs": [
        {
          "internalType": "uint256",
          "name": "",
          "type": "uint256"
        }
      ],
      "stateMutability": "view",
      "type": "function"
    },
    {
      "inputs": [],
      "name": "totalDebt",
      "outputs": [
        {
          "internalType": "uint256",
          "name": "",
          "type": "uint256"
        }
      ],
      "stateMutability": "view",
      "type": "function"
    },
    {
      "inputs": [],
      "name": "totalSupply",
      "outputs": [
        {
          "internalType": "uint256",
          "name": "",
          "type": "uint256"
        }
      ],
      "stateMutability": "view",
      "type": "function"
    },
    {
      "inputs": [
        {
          "internalType": "address",
          "name": "to",
          "type": "address"
        },
        {
          "internalType": "uint256",
          "name": "amount",
          "type": "uint256"
        }
      ],
      "name": "transfer",
      "outputs": [
        {
          "internalType": "bool",
          "name": "",
          "type": "bool"
        }
      ],
      "stateMutability": "nonpayable",
      "type": "function"
    },
    {
      "inputs": [
        {
          "internalType": "address",
          "name": "from",
          "type": "address"
        },
        {
          "internalType": "address",
          "name": "to",
          "type": "address"
        },
        {
          "internalType": "uint256",
          "name": "amount",
          "type": "uint256"
        }
      ],
      "name": "transferFrom",
      "outputs": [
        {
          "internalType": "bool",
          "name": "",
          "type": "bool"
        }
      ],
      "stateMutability": "nonpayable",
      "type": "function"
    },
    {
      "inputs": [
        {
          "internalType": "address",
          "name": "newOwner",
          "type": "address"
        }
      ],
      "name": "transferOwnership",
      "outputs": [],
      "stateMutability": "nonpayable",
      "type": "function"
    },
    {
      "inputs": [
        {
          "internalType": "uint256",
          "name": "newMinReservedBps",
          "type": "uint256"
        }
      ],
      "name": "updateMinReservedBps",
      "outputs": [],
      "stateMutability": "nonpayable",
      "type": "function"
    },
    {
      "inputs": [
        {
          "internalType": "address",
          "name": "newStaykingAddress",
          "type": "address"
        }
      ],
      "name": "updateStayking",
      "outputs": [],
      "stateMutability": "nonpayable",
      "type": "function"
    },
    {
      "inputs": [],
      "name": "utilizationRateBps",
      "outputs": [
        {
          "internalType": "uint256",
          "name": "",
          "type": "uint256"
        }
      ],
      "stateMutability": "view",
      "type": "function"
    },
    {
      "inputs": [
        {
          "internalType": "uint256",
          "name": "share",
          "type": "uint256"
        }
      ],
      "name": "withdraw",
      "outputs": [
        {
          "internalType": "uint256",
          "name": "amount",
          "type": "uint256"
        }
      ],
      "stateMutability": "nonpayable",
      "type": "function"
    }
  ],
  "bytecode": "0x608060405234801561001057600080fd5b506137a1806100206000396000f3fe608060405234801561001057600080fd5b50600436106101f05760003560e01c8063715018a61161010f578063b16828b7116100a2578063eab3298111610071578063eab32981146105a9578063f2fde38b146105c7578063fc0c546a146105e3578063fc7b9c1814610601576101f0565b8063b16828b714610523578063b6b55f251461052d578063b9529e9f1461055d578063dd62ed3e14610579576101f0565b8063a15a211c116100de578063a15a211c1461049b578063a457c2d7146104a5578063a9059cbb146104d5578063ac165d7a14610505576101f0565b8063715018a61461043957806378d7e54a146104435780638da5cb5b1461045f57806395d89b411461047d576101f0565b80632e1a7d4d116101875780635257b566116101565780635257b5661461039f5780636592183b146103bd57806370a08231146103ed578063714934cd1461041d576101f0565b80632e1a7d4d14610305578063313ce567146103355780633950935114610353578063494e42f414610383576101f0565b8063185cc751116101c3578063185cc7511461027f5780631a39d8ef1461029b57806322867d78146102b957806323b872dd146102d5576101f0565b806303d98c1f146101f557806306fdde0314610213578063095ea7b31461023157806318160ddd14610261575b600080fd5b6101fd61061f565b60405161020a9190612f4a565b60405180910390f35b61021b610648565b6040516102289190612cc8565b60405180910390f35b61024b6004803603810190610246919061272b565b6106da565b6040516102589190612cad565b60405180910390f35b6102696106fd565b6040516102769190612f4a565b60405180910390f35b6102996004803603810190610294919061272b565b610707565b005b6102a36108f8565b6040516102b09190612f4a565b60405180910390f35b6102d360048036038101906102ce919061272b565b6109b7565b005b6102ef60048036038101906102ea91906126dc565b610b08565b6040516102fc9190612cad565b60405180910390f35b61031f600480360381019061031a9190612853565b610b37565b60405161032c9190612f4a565b60405180910390f35b61033d610bd7565b60405161034a9190612f8e565b60405180910390f35b61036d6004803603810190610368919061272b565b610be0565b60405161037a9190612cad565b60405180910390f35b61039d60048036038101906103989190612853565b610c17565b005b6103a7610c29565b6040516103b49190612f4a565b60405180910390f35b6103d760048036038101906103d29190612677565b610d89565b6040516103e49190612f4a565b60405180910390f35b61040760048036038101906104029190612677565b610da1565b6040516104149190612f4a565b60405180910390f35b61043760048036038101906104329190612790565b610dea565b005b6104416110b6565b005b61045d60048036038101906104589190612677565b6110ca565b005b610467611116565b6040516104749190612bfb565b60405180910390f35b610485611140565b6040516104929190612cc8565b60405180910390f35b6104a36111d2565b005b6104bf60048036038101906104ba919061272b565b6112fa565b6040516104cc9190612cad565b60405180910390f35b6104ef60048036038101906104ea919061272b565b611371565b6040516104fc9190612cad565b60405180910390f35b61050d611394565b60405161051a9190612bfb565b60405180910390f35b61052b6113ba565b005b61054760048036038101906105429190612853565b611437565b6040516105549190612f4a565b60405180910390f35b6105776004803603810190610572919061272b565b6114ec565b005b610593600480360381019061058e91906126a0565b611667565b6040516105a09190612f4a565b60405180910390f35b6105b16116ee565b6040516105be9190612bfb565b60405180910390f35b6105e160048036038101906105dc9190612677565b611714565b005b6105eb611798565b6040516105f89190612bfb565b60405180910390f35b6106096117be565b6040516106169190612f4a565b60405180910390f35b60006106296106fd565b609b546127106106399190613062565b6106439190613031565b905090565b60606036805461065790613178565b80601f016020809104026020016040519081016040528092919081815260200182805461068390613178565b80156106d05780601f106106a5576101008083540402835291602001916106d0565b820191906000526020600020905b8154815290600101906020018083116106b357829003601f168201915b5050505050905090565b6000806106e56117c4565b90506106f28185856117cc565b600191505092915050565b6000603554905090565b609860009054906101000a900473ffffffffffffffffffffffffffffffffffffffff1673ffffffffffffffffffffffffffffffffffffffff163373ffffffffffffffffffffffffffffffffffffffff1614610797576040517f08c379a000000000000000000000000000000000000000000000000000000000815260040161078e90612e0a565b60405180910390fd5b80609a60008473ffffffffffffffffffffffffffffffffffffffff1673ffffffffffffffffffffffffffffffffffffffff16815260200190815260200160002060008282546107e69190612fdb565b9250508190555080609b60008282546107ff9190612fdb565b92505081905550609c546108116108f8565b61081b9190613062565b612710609b5461082b9190613062565b111561086c576040517f08c379a000000000000000000000000000000000000000000000000000000000815260040161086390612dca565b60405180910390fd5b6108bb609760009054906101000a900473ffffffffffffffffffffffffffffffffffffffff16609860009054906101000a900473ffffffffffffffffffffffffffffffffffffffff1683611997565b7f1db23cf53464267c45324569941e81e23d29c48ff9be2b35af2cc0a2681159d682826040516108ec929190612c4d565b60405180910390a15050565b6000609b54609760009054906101000a900473ffffffffffffffffffffffffffffffffffffffff1673ffffffffffffffffffffffffffffffffffffffff166370a08231306040518263ffffffff1660e01b81526004016109589190612bfb565b60206040518083038186803b15801561097057600080fd5b505afa158015610984573d6000803e3d6000fd5b505050506040513d601f19601f820116820180604052508101906109a8919061287c565b6109b29190612fdb565b905090565b609860009054906101000a900473ffffffffffffffffffffffffffffffffffffffff1673ffffffffffffffffffffffffffffffffffffffff163373ffffffffffffffffffffffffffffffffffffffff1614610a47576040517f08c379a0000000000000000000000000000000000000000000000000000000008152600401610a3e90612e0a565b60405180910390fd5b80609a60008473ffffffffffffffffffffffffffffffffffffffff1673ffffffffffffffffffffffffffffffffffffffff1681526020019081526020016000206000828254610a9691906130bc565b92505081905550610acb609760009054906101000a900473ffffffffffffffffffffffffffffffffffffffff16833084611acd565b7f5c16de4f8b59bd9caf0f49a545f25819a895ed223294290b408242e72a5942318282604051610afc929190612c4d565b60405180910390a15050565b600080610b136117c4565b9050610b20858285611c06565b610b2b858585611c92565b60019150509392505050565b6000610b416106fd565b610b496108f8565b83610b549190613062565b610b5e9190613031565b9050610b6a3383611f16565b610b97609760009054906101000a900473ffffffffffffffffffffffffffffffffffffffff163383611997565b7ff279e6a1f5e320cca91135676d9cb6e44ca8a08c0b88342bcdb1144f6511b568338284604051610bca93929190612c76565b60405180910390a1919050565b60006012905090565b600080610beb6117c4565b9050610c0c818585610bfd8589611667565b610c079190612fdb565b6117cc565b600191505092915050565b610c1f6120ef565b80609c8190555050565b6000609960009054906101000a900473ffffffffffffffffffffffffffffffffffffffff1673ffffffffffffffffffffffffffffffffffffffff1663d4a99bbb609b54609760009054906101000a900473ffffffffffffffffffffffffffffffffffffffff1673ffffffffffffffffffffffffffffffffffffffff166370a08231306040518263ffffffff1660e01b8152600401610cc79190612bfb565b60206040518083038186803b158015610cdf57600080fd5b505afa158015610cf3573d6000803e3d6000fd5b505050506040513d601f19601f82011682018060405250810190610d17919061287c565b6040518363ffffffff1660e01b8152600401610d34929190612f65565b60206040518083038186803b158015610d4c57600080fd5b505afa158015610d60573d6000803e3d6000fd5b505050506040513d601f19601f82011682018060405250810190610d84919061287c565b905090565b609a6020528060005260406000206000915090505481565b6000603360008373ffffffffffffffffffffffffffffffffffffffff1673ffffffffffffffffffffffffffffffffffffffff168152602001908152602001600020549050919050565b600060019054906101000a900460ff16610e39576040517f08c379a0000000000000000000000000000000000000000000000000000000008152600401610e3090612eca565b60405180910390fd5b600073ffffffffffffffffffffffffffffffffffffffff168473ffffffffffffffffffffffffffffffffffffffff161415610ea9576040517f08c379a0000000000000000000000000000000000000000000000000000000008152600401610ea090612d6a565b60405180910390fd5b600073ffffffffffffffffffffffffffffffffffffffff168373ffffffffffffffffffffffffffffffffffffffff161415610f19576040517f08c379a0000000000000000000000000000000000000000000000000000000008152600401610f1090612dea565b60405180910390fd5b610fab88888080601f016020809104026020016040519081016040528093929190818152602001838380828437600081840152601f19601f8201169050808301925050505050505087878080601f016020809104026020016040519081016040528093929190818152602001838380828437600081840152601f19601f8201169050808301925050505050505061216d565b610fb36121ca565b83609860006101000a81548173ffffffffffffffffffffffffffffffffffffffff021916908373ffffffffffffffffffffffffffffffffffffffff16021790555082609760006101000a81548173ffffffffffffffffffffffffffffffffffffffff021916908373ffffffffffffffffffffffffffffffffffffffff16021790555081609960006101000a81548173ffffffffffffffffffffffffffffffffffffffff021916908373ffffffffffffffffffffffffffffffffffffffff16021790555080609c81905550620151806361b2a6904261109191906130bc565b61109b91906131aa565b426110a691906130bc565b609e819055505050505050505050565b6110be6120ef565b6110c86000612223565b565b6110d26120ef565b80609860006101000a81548173ffffffffffffffffffffffffffffffffffffffff021916908373ffffffffffffffffffffffffffffffffffffffff16021790555050565b6000606560009054906101000a900473ffffffffffffffffffffffffffffffffffffffff16905090565b60606037805461114f90613178565b80601f016020809104026020016040519081016040528092919081815260200182805461117b90613178565b80156111c85780601f1061119d576101008083540402835291602001916111c8565b820191906000526020600020905b8154815290600101906020018083116111ab57829003601f168201915b5050505050905090565b609860009054906101000a900473ffffffffffffffffffffffffffffffffffffffff1673ffffffffffffffffffffffffffffffffffffffff163373ffffffffffffffffffffffffffffffffffffffff1614611262576040517f08c379a000000000000000000000000000000000000000000000000000000000815260040161125990612e0a565b60405180910390fd5b6000670de0b6b3a7640000611275610c29565b609b546112829190613062565b61128c9190613031565b90506112bc609760009054906101000a900473ffffffffffffffffffffffffffffffffffffffff16333084611acd565b7f57546d41506d4d7643c2ea350647fa3d6ada23d1de3afa7a32496df9b7686bc0609b54826040516112ef929190612f65565b60405180910390a150565b6000806113056117c4565b905060006113138286611667565b905083811015611358576040517f08c379a000000000000000000000000000000000000000000000000000000000815260040161134f90612f0a565b60405180910390fd5b61136582868684036117cc565b60019250505092915050565b60008061137c6117c4565b9050611389818585611c92565b600191505092915050565b609960009054906101000a900473ffffffffffffffffffffffffffffffffffffffff1681565b62015180609e546113cb9190612fdb565b4210611435576113d961061f565b609d8190555062015180609e60008282546113f49190612fdb565b925050819055507f163eacd81cbfca2d1ec176759e7107e34229c5cbc5ec0b3fde68ffdef1157e02609d5460405161142c9190612f4a565b60405180910390a15b565b6000806114426108f8565b90506000811461146f57806114556106fd565b846114609190613062565b61146a9190613031565b611471565b825b91506114a1609760009054906101000a900473ffffffffffffffffffffffffffffffffffffffff16333086611acd565b6114ab33836122e9565b7f90890809c654f11d6e72a28fa60149770a0d11ec6c92319d6ceb2bb0a4ea1a153384846040516114de93929190612c76565b60405180910390a150919050565b609860009054906101000a900473ffffffffffffffffffffffffffffffffffffffff1673ffffffffffffffffffffffffffffffffffffffff163373ffffffffffffffffffffffffffffffffffffffff161461157c576040517f08c379a000000000000000000000000000000000000000000000000000000000815260040161157390612e0a565b60405180910390fd5b80609a60008473ffffffffffffffffffffffffffffffffffffffff1673ffffffffffffffffffffffffffffffffffffffff16815260200190815260200160002060008282546115cb91906130bc565b9250508190555080609a60003373ffffffffffffffffffffffffffffffffffffffff1673ffffffffffffffffffffffffffffffffffffffff16815260200190815260200160002060008282546116219190612fdb565b925050819055507f80caff6c1c70cc823c773c968ebdab44b7dc12da8117b4634b5f3eb78b07011e82338360405161165b93929190612c16565b60405180910390a15050565b6000603460008473ffffffffffffffffffffffffffffffffffffffff1673ffffffffffffffffffffffffffffffffffffffff16815260200190815260200160002060008373ffffffffffffffffffffffffffffffffffffffff1673ffffffffffffffffffffffffffffffffffffffff16815260200190815260200160002054905092915050565b609860009054906101000a900473ffffffffffffffffffffffffffffffffffffffff1681565b61171c6120ef565b600073ffffffffffffffffffffffffffffffffffffffff168173ffffffffffffffffffffffffffffffffffffffff16141561178c576040517f08c379a000000000000000000000000000000000000000000000000000000000815260040161178390612d2a565b60405180910390fd5b61179581612223565b50565b609760009054906101000a900473ffffffffffffffffffffffffffffffffffffffff1681565b609b5481565b600033905090565b600073ffffffffffffffffffffffffffffffffffffffff168373ffffffffffffffffffffffffffffffffffffffff16141561183c576040517f08c379a000000000000000000000000000000000000000000000000000000000815260040161183390612eaa565b60405180910390fd5b600073ffffffffffffffffffffffffffffffffffffffff168273ffffffffffffffffffffffffffffffffffffffff1614156118ac576040517f08c379a00000000000000000000000000000000000000000000000000000000081526004016118a390612d4a565b60405180910390fd5b80603460008573ffffffffffffffffffffffffffffffffffffffff1673ffffffffffffffffffffffffffffffffffffffff16815260200190815260200160002060008473ffffffffffffffffffffffffffffffffffffffff1673ffffffffffffffffffffffffffffffffffffffff168152602001908152602001600020819055508173ffffffffffffffffffffffffffffffffffffffff168373ffffffffffffffffffffffffffffffffffffffff167f8c5be1e5ebec7d5bd14f71427d1e84f3dd0314c0f7b2291e5b200ac8c7c3b9258360405161198a9190612f4a565b60405180910390a3505050565b6000808473ffffffffffffffffffffffffffffffffffffffff1663a9059cbb85856040516024016119c9929190612c4d565b6040516020818303038152906040529060e01b6020820180517bffffffffffffffffffffffffffffffffffffffffffffffffffffffff8381831617835250505050604051611a179190612be4565b6000604051808303816000865af19150503d8060008114611a54576040519150601f19603f3d011682016040523d82523d6000602084013e611a59565b606091505b5091509150818015611a875750600081511480611a86575080806020019051810190611a859190612767565b5b5b611ac6576040517f08c379a0000000000000000000000000000000000000000000000000000000008152600401611abd90612e2a565b60405180910390fd5b5050505050565b6000808573ffffffffffffffffffffffffffffffffffffffff166323b872dd868686604051602401611b0193929190612c16565b6040516020818303038152906040529060e01b6020820180517bffffffffffffffffffffffffffffffffffffffffffffffffffffffff8381831617835250505050604051611b4f9190612be4565b6000604051808303816000865af19150503d8060008114611b8c576040519150601f19603f3d011682016040523d82523d6000602084013e611b91565b606091505b5091509150818015611bbf5750600081511480611bbe575080806020019051810190611bbd9190612767565b5b5b611bfe576040517f08c379a0000000000000000000000000000000000000000000000000000000008152600401611bf590612eea565b60405180910390fd5b505050505050565b6000611c128484611667565b90507fffffffffffffffffffffffffffffffffffffffffffffffffffffffffffffffff8114611c8c5781811015611c7e576040517f08c379a0000000000000000000000000000000000000000000000000000000008152600401611c7590612d8a565b60405180910390fd5b611c8b84848484036117cc565b5b50505050565b600073ffffffffffffffffffffffffffffffffffffffff168373ffffffffffffffffffffffffffffffffffffffff161415611d02576040517f08c379a0000000000000000000000000000000000000000000000000000000008152600401611cf990612e8a565b60405180910390fd5b600073ffffffffffffffffffffffffffffffffffffffff168273ffffffffffffffffffffffffffffffffffffffff161415611d72576040517f08c379a0000000000000000000000000000000000000000000000000000000008152600401611d6990612cea565b60405180910390fd5b611d7d83838361244a565b6000603360008573ffffffffffffffffffffffffffffffffffffffff1673ffffffffffffffffffffffffffffffffffffffff16815260200190815260200160002054905081811015611e04576040517f08c379a0000000000000000000000000000000000000000000000000000000008152600401611dfb90612daa565b60405180910390fd5b818103603360008673ffffffffffffffffffffffffffffffffffffffff1673ffffffffffffffffffffffffffffffffffffffff1681526020019081526020016000208190555081603360008573ffffffffffffffffffffffffffffffffffffffff1673ffffffffffffffffffffffffffffffffffffffff1681526020019081526020016000206000828254611e999190612fdb565b925050819055508273ffffffffffffffffffffffffffffffffffffffff168473ffffffffffffffffffffffffffffffffffffffff167fddf252ad1be2c89b69c2b068fc378daa952ba7f163c4a11628f55a4df523b3ef84604051611efd9190612f4a565b60405180910390a3611f1084848461244f565b50505050565b600073ffffffffffffffffffffffffffffffffffffffff168273ffffffffffffffffffffffffffffffffffffffff161415611f86576040517f08c379a0000000000000000000000000000000000000000000000000000000008152600401611f7d90612e6a565b60405180910390fd5b611f928260008361244a565b6000603360008473ffffffffffffffffffffffffffffffffffffffff1673ffffffffffffffffffffffffffffffffffffffff16815260200190815260200160002054905081811015612019576040517f08c379a000000000000000000000000000000000000000000000000000000000815260040161201090612d0a565b60405180910390fd5b818103603360008573ffffffffffffffffffffffffffffffffffffffff1673ffffffffffffffffffffffffffffffffffffffff16815260200190815260200160002081905550816035600082825461207191906130bc565b92505081905550600073ffffffffffffffffffffffffffffffffffffffff168373ffffffffffffffffffffffffffffffffffffffff167fddf252ad1be2c89b69c2b068fc378daa952ba7f163c4a11628f55a4df523b3ef846040516120d69190612f4a565b60405180910390a36120ea8360008461244f565b505050565b6120f76117c4565b73ffffffffffffffffffffffffffffffffffffffff16612115611116565b73ffffffffffffffffffffffffffffffffffffffff161461216b576040517f08c379a000000000000000000000000000000000000000000000000000000000815260040161216290612e4a565b60405180910390fd5b565b600060019054906101000a900460ff166121bc576040517f08c379a00000000000000000000000000000000000000000000000000000000081526004016121b390612eca565b60405180910390fd5b6121c68282612454565b5050565b600060019054906101000a900460ff16612219576040517f08c379a000000000000000000000000000000000000000000000000000000000815260040161221090612eca565b60405180910390fd5b6122216124d5565b565b6000606560009054906101000a900473ffffffffffffffffffffffffffffffffffffffff16905081606560006101000a81548173ffffffffffffffffffffffffffffffffffffffff021916908373ffffffffffffffffffffffffffffffffffffffff1602179055508173ffffffffffffffffffffffffffffffffffffffff168173ffffffffffffffffffffffffffffffffffffffff167f8be0079c531659141344cd1fd0a4f28419497f9722a3daafe3b4186f6b6457e060405160405180910390a35050565b600073ffffffffffffffffffffffffffffffffffffffff168273ffffffffffffffffffffffffffffffffffffffff161415612359576040517f08c379a000000000000000000000000000000000000000000000000000000000815260040161235090612f2a565b60405180910390fd5b6123656000838361244a565b80603560008282546123779190612fdb565b9250508190555080603360008473ffffffffffffffffffffffffffffffffffffffff1673ffffffffffffffffffffffffffffffffffffffff16815260200190815260200160002060008282546123cd9190612fdb565b925050819055508173ffffffffffffffffffffffffffffffffffffffff16600073ffffffffffffffffffffffffffffffffffffffff167fddf252ad1be2c89b69c2b068fc378daa952ba7f163c4a11628f55a4df523b3ef836040516124329190612f4a565b60405180910390a36124466000838361244f565b5050565b505050565b505050565b600060019054906101000a900460ff166124a3576040517f08c379a000000000000000000000000000000000000000000000000000000000815260040161249a90612eca565b60405180910390fd5b81603690805190602001906124b9929190612536565b5080603790805190602001906124d0929190612536565b505050565b600060019054906101000a900460ff16612524576040517f08c379a000000000000000000000000000000000000000000000000000000000815260040161251b90612eca565b60405180910390fd5b61253461252f6117c4565b612223565b565b82805461254290613178565b90600052602060002090601f01602090048101928261256457600085556125ab565b82601f1061257d57805160ff19168380011785556125ab565b828001600101855582156125ab579182015b828111156125aa57825182559160200191906001019061258f565b5b5090506125b891906125bc565b5090565b5b808211156125d55760008160009055506001016125bd565b5090565b6000813590506125e881613726565b92915050565b6000815190506125fd8161373d565b92915050565b60008083601f84011261261557600080fd5b8235905067ffffffffffffffff81111561262e57600080fd5b60208301915083600182028301111561264657600080fd5b9250929050565b60008135905061265c81613754565b92915050565b60008151905061267181613754565b92915050565b60006020828403121561268957600080fd5b6000612697848285016125d9565b91505092915050565b600080604083850312156126b357600080fd5b60006126c1858286016125d9565b92505060206126d2858286016125d9565b9150509250929050565b6000806000606084860312156126f157600080fd5b60006126ff868287016125d9565b9350506020612710868287016125d9565b92505060406127218682870161264d565b9150509250925092565b6000806040838503121561273e57600080fd5b600061274c858286016125d9565b925050602061275d8582860161264d565b9150509250929050565b60006020828403121561277957600080fd5b6000612787848285016125ee565b91505092915050565b60008060008060008060008060c0898b0312156127ac57600080fd5b600089013567ffffffffffffffff8111156127c657600080fd5b6127d28b828c01612603565b9850985050602089013567ffffffffffffffff8111156127f157600080fd5b6127fd8b828c01612603565b965096505060406128108b828c016125d9565b94505060606128218b828c016125d9565b93505060806128328b828c016125d9565b92505060a06128438b828c0161264d565b9150509295985092959890939650565b60006020828403121561286557600080fd5b60006128738482850161264d565b91505092915050565b60006020828403121561288e57600080fd5b600061289c84828501612662565b91505092915050565b6128ae816130f0565b82525050565b6128bd81613102565b82525050565b60006128ce82612fa9565b6128d88185612fbf565b93506128e8818560208601613145565b80840191505092915050565b60006128ff82612fb4565b6129098185612fca565b9350612919818560208601613145565b61292281613268565b840191505092915050565b600061293a602383612fca565b915061294582613279565b604082019050919050565b600061295d602283612fca565b9150612968826132c8565b604082019050919050565b6000612980602683612fca565b915061298b82613317565b604082019050919050565b60006129a3602283612fca565b91506129ae82613366565b604082019050919050565b60006129c6601f83612fca565b91506129d1826133b5565b602082019050919050565b60006129e9601d83612fca565b91506129f4826133de565b602082019050919050565b6000612a0c602683612fca565b9150612a1782613407565b604082019050919050565b6000612a2f601e83612fca565b9150612a3a82613456565b602082019050919050565b6000612a52602183612fca565b9150612a5d8261347f565b604082019050919050565b6000612a75601d83612fca565b9150612a80826134ce565b602082019050919050565b6000612a98600d83612fca565b9150612aa3826134f7565b602082019050919050565b6000612abb602083612fca565b9150612ac682613520565b602082019050919050565b6000612ade602183612fca565b9150612ae982613549565b604082019050919050565b6000612b01602583612fca565b9150612b0c82613598565b604082019050919050565b6000612b24602483612fca565b9150612b2f826135e7565b604082019050919050565b6000612b47602b83612fca565b9150612b5282613636565b604082019050919050565b6000612b6a601183612fca565b9150612b7582613685565b602082019050919050565b6000612b8d602583612fca565b9150612b98826136ae565b604082019050919050565b6000612bb0601f83612fca565b9150612bbb826136fd565b602082019050919050565b612bcf8161312e565b82525050565b612bde81613138565b82525050565b6000612bf082846128c3565b915081905092915050565b6000602082019050612c1060008301846128a5565b92915050565b6000606082019050612c2b60008301866128a5565b612c3860208301856128a5565b612c456040830184612bc6565b949350505050565b6000604082019050612c6260008301856128a5565b612c6f6020830184612bc6565b9392505050565b6000606082019050612c8b60008301866128a5565b612c986020830185612bc6565b612ca56040830184612bc6565b949350505050565b6000602082019050612cc260008301846128b4565b92915050565b60006020820190508181036000830152612ce281846128f4565b905092915050565b60006020820190508181036000830152612d038161292d565b9050919050565b60006020820190508181036000830152612d2381612950565b9050919050565b60006020820190508181036000830152612d4381612973565b9050919050565b60006020820190508181036000830152612d6381612996565b9050919050565b60006020820190508181036000830152612d83816129b9565b9050919050565b60006020820190508181036000830152612da3816129dc565b9050919050565b60006020820190508181036000830152612dc3816129ff565b9050919050565b60006020820190508181036000830152612de381612a22565b9050919050565b60006020820190508181036000830152612e0381612a45565b9050919050565b60006020820190508181036000830152612e2381612a68565b9050919050565b60006020820190508181036000830152612e4381612a8b565b9050919050565b60006020820190508181036000830152612e6381612aae565b9050919050565b60006020820190508181036000830152612e8381612ad1565b9050919050565b60006020820190508181036000830152612ea381612af4565b9050919050565b60006020820190508181036000830152612ec381612b17565b9050919050565b60006020820190508181036000830152612ee381612b3a565b9050919050565b60006020820190508181036000830152612f0381612b5d565b9050919050565b60006020820190508181036000830152612f2381612b80565b9050919050565b60006020820190508181036000830152612f4381612ba3565b9050919050565b6000602082019050612f5f6000830184612bc6565b92915050565b6000604082019050612f7a6000830185612bc6565b612f876020830184612bc6565b9392505050565b6000602082019050612fa36000830184612bd5565b92915050565b600081519050919050565b600081519050919050565b600081905092915050565b600082825260208201905092915050565b6000612fe68261312e565b9150612ff18361312e565b9250827fffffffffffffffffffffffffffffffffffffffffffffffffffffffffffffffff03821115613026576130256131db565b5b828201905092915050565b600061303c8261312e565b91506130478361312e565b9250826130575761305661320a565b5b828204905092915050565b600061306d8261312e565b91506130788361312e565b9250817fffffffffffffffffffffffffffffffffffffffffffffffffffffffffffffffff04831182151516156130b1576130b06131db565b5b828202905092915050565b60006130c78261312e565b91506130d28361312e565b9250828210156130e5576130e46131db565b5b828203905092915050565b60006130fb8261310e565b9050919050565b60008115159050919050565b600073ffffffffffffffffffffffffffffffffffffffff82169050919050565b6000819050919050565b600060ff82169050919050565b60005b83811015613163578082015181840152602081019050613148565b83811115613172576000848401525b50505050565b6000600282049050600182168061319057607f821691505b602082108114156131a4576131a3613239565b5b50919050565b60006131b58261312e565b91506131c08361312e565b9250826131d0576131cf61320a565b5b828206905092915050565b7f4e487b7100000000000000000000000000000000000000000000000000000000600052601160045260246000fd5b7f4e487b7100000000000000000000000000000000000000000000000000000000600052601260045260246000fd5b7f4e487b7100000000000000000000000000000000000000000000000000000000600052602260045260246000fd5b6000601f19601f8301169050919050565b7f45524332303a207472616e7366657220746f20746865207a65726f206164647260008201527f6573730000000000000000000000000000000000000000000000000000000000602082015250565b7f45524332303a206275726e20616d6f756e7420657863656564732062616c616e60008201527f6365000000000000000000000000000000000000000000000000000000000000602082015250565b7f4f776e61626c653a206e6577206f776e657220697320746865207a65726f206160008201527f6464726573730000000000000000000000000000000000000000000000000000602082015250565b7f45524332303a20617070726f766520746f20746865207a65726f20616464726560008201527f7373000000000000000000000000000000000000000000000000000000000000602082015250565b7f5661756c743a20537461796b696e672061646472657373206973207a65726f00600082015250565b7f45524332303a20696e73756666696369656e7420616c6c6f77616e6365000000600082015250565b7f45524332303a207472616e7366657220616d6f756e742065786365656473206260008201527f616c616e63650000000000000000000000000000000000000000000000000000602082015250565b7f4c6f616e3a2043616e7427206c6f616e206465627420616e796d6f72652e0000600082015250565b7f5661756c743a204261736520546f6b656e206973207a65726f2061646472657360008201527f7300000000000000000000000000000000000000000000000000000000000000602082015250565b7f5661756c743a204e6f7420537461796b696e6720636f6e74726163742e000000600082015250565b7f21736166655472616e7366657200000000000000000000000000000000000000600082015250565b7f4f776e61626c653a2063616c6c6572206973206e6f7420746865206f776e6572600082015250565b7f45524332303a206275726e2066726f6d20746865207a65726f2061646472657360008201527f7300000000000000000000000000000000000000000000000000000000000000602082015250565b7f45524332303a207472616e736665722066726f6d20746865207a65726f20616460008201527f6472657373000000000000000000000000000000000000000000000000000000602082015250565b7f45524332303a20617070726f76652066726f6d20746865207a65726f2061646460008201527f7265737300000000000000000000000000000000000000000000000000000000602082015250565b7f496e697469616c697a61626c653a20636f6e7472616374206973206e6f74206960008201527f6e697469616c697a696e67000000000000000000000000000000000000000000602082015250565b7f21736166655472616e7366657246726f6d000000000000000000000000000000600082015250565b7f45524332303a2064656372656173656420616c6c6f77616e63652062656c6f7760008201527f207a65726f000000000000000000000000000000000000000000000000000000602082015250565b7f45524332303a206d696e7420746f20746865207a65726f206164647265737300600082015250565b61372f816130f0565b811461373a57600080fd5b50565b61374681613102565b811461375157600080fd5b50565b61375d8161312e565b811461376857600080fd5b5056fea26469706673582212200d6b5279eed0f6f4f7f87d07a95f96d2903ac30c1fecea8d10c2d58fc41c403e64736f6c63430008040033",
  "linkReferences": {},
  "deployedLinkReferences": {}
}