{
  "_format": "hh-sol-artifact-1",
  "contractName": "Vault",
  "sourceName": "contracts/token/Vault.sol",
  "abi": [
    {
      "anonymous": false,
      "inputs": [
        {
          "indexed": true,
          "internalType": "address",
          "name": "owner",
          "type": "address"
        },
        {
          "indexed": true,
          "internalType": "address",
          "name": "spender",
          "type": "address"
        },
        {
          "indexed": false,
          "internalType": "uint256",
          "name": "value",
          "type": "uint256"
        }
      ],
      "name": "Approval",
      "type": "event"
    },
    {
      "anonymous": false,
      "inputs": [
        {
          "indexed": false,
          "internalType": "address",
          "name": "user",
          "type": "address"
        },
        {
          "indexed": false,
          "internalType": "uint256",
          "name": "amount",
          "type": "uint256"
        },
        {
          "indexed": false,
          "internalType": "uint256",
          "name": "share",
          "type": "uint256"
        }
      ],
      "name": "Deposit",
      "type": "event"
    },
    {
      "anonymous": false,
      "inputs": [
        {
          "indexed": false,
          "internalType": "uint8",
          "name": "version",
          "type": "uint8"
        }
      ],
      "name": "Initialized",
      "type": "event"
    },
    {
      "anonymous": false,
      "inputs": [
        {
          "indexed": false,
          "internalType": "address",
          "name": "user",
          "type": "address"
        },
        {
          "indexed": false,
          "internalType": "uint256",
          "name": "debtAmount",
          "type": "uint256"
        }
      ],
      "name": "Loan",
      "type": "event"
    },
    {
      "anonymous": false,
      "inputs": [
        {
          "indexed": true,
          "internalType": "address",
          "name": "previousOwner",
          "type": "address"
        },
        {
          "indexed": true,
          "internalType": "address",
          "name": "newOwner",
          "type": "address"
        }
      ],
      "name": "OwnershipTransferred",
      "type": "event"
    },
    {
      "anonymous": false,
      "inputs": [
        {
          "indexed": false,
          "internalType": "uint256",
          "name": "paidInterest",
          "type": "uint256"
        },
        {
          "indexed": false,
          "internalType": "uint256",
          "name": "leftInterest",
          "type": "uint256"
        }
      ],
      "name": "PayInterest",
      "type": "event"
    },
    {
      "anonymous": false,
      "inputs": [
        {
          "indexed": false,
          "internalType": "address",
          "name": "user",
          "type": "address"
        },
        {
          "indexed": false,
          "internalType": "uint256",
          "name": "debtAmount",
          "type": "uint256"
        }
      ],
      "name": "Repay",
      "type": "event"
    },
    {
      "anonymous": false,
      "inputs": [
        {
          "indexed": true,
          "internalType": "address",
          "name": "from",
          "type": "address"
        },
        {
          "indexed": true,
          "internalType": "address",
          "name": "to",
          "type": "address"
        },
        {
          "indexed": false,
          "internalType": "uint256",
          "name": "value",
          "type": "uint256"
        }
      ],
      "name": "Transfer",
      "type": "event"
    },
    {
      "anonymous": false,
      "inputs": [
        {
          "indexed": false,
          "internalType": "address",
          "name": "from",
          "type": "address"
        },
        {
          "indexed": false,
          "internalType": "address",
          "name": "to",
          "type": "address"
        },
        {
          "indexed": false,
          "internalType": "uint256",
          "name": "amount",
          "type": "uint256"
        }
      ],
      "name": "TransferDebtOwnership",
      "type": "event"
    },
    {
      "anonymous": false,
      "inputs": [
        {
          "indexed": false,
          "internalType": "uint256",
          "name": "rateBps",
          "type": "uint256"
        }
      ],
      "name": "UtilizationRate",
      "type": "event"
    },
    {
      "anonymous": false,
      "inputs": [
        {
          "indexed": false,
          "internalType": "address",
          "name": "user",
          "type": "address"
        },
        {
          "indexed": false,
          "internalType": "uint256",
          "name": "amount",
          "type": "uint256"
        },
        {
          "indexed": false,
          "internalType": "uint256",
          "name": "share",
          "type": "uint256"
        }
      ],
      "name": "Withdraw",
      "type": "event"
    },
    {
      "inputs": [
        {
          "internalType": "string",
          "name": "_name",
          "type": "string"
        },
        {
          "internalType": "string",
          "name": "_symbol",
          "type": "string"
        },
        {
          "internalType": "address",
          "name": "_swapHelper",
          "type": "address"
        },
        {
          "internalType": "address",
          "name": "_stayking",
          "type": "address"
        },
        {
          "internalType": "address",
          "name": "_token",
          "type": "address"
        },
        {
          "internalType": "address",
          "name": "_interestModel",
          "type": "address"
        },
        {
          "internalType": "uint256",
          "name": "_minReservedBps",
          "type": "uint256"
        }
      ],
      "name": "__Vault_init",
      "outputs": [],
      "stateMutability": "nonpayable",
      "type": "function"
    },
    {
      "inputs": [
        {
          "internalType": "address",
          "name": "owner",
          "type": "address"
        },
        {
          "internalType": "address",
          "name": "spender",
          "type": "address"
        }
      ],
      "name": "allowance",
      "outputs": [
        {
          "internalType": "uint256",
          "name": "",
          "type": "uint256"
        }
      ],
      "stateMutability": "view",
      "type": "function"
    },
    {
      "inputs": [
        {
          "internalType": "uint256",
          "name": "amount",
          "type": "uint256"
        }
      ],
      "name": "amountToShare",
      "outputs": [
        {
          "internalType": "uint256",
          "name": "",
          "type": "uint256"
        }
      ],
      "stateMutability": "view",
      "type": "function"
    },
    {
      "inputs": [
        {
          "internalType": "address",
          "name": "spender",
          "type": "address"
        },
        {
          "internalType": "uint256",
          "name": "amount",
          "type": "uint256"
        }
      ],
      "name": "approve",
      "outputs": [
        {
          "internalType": "bool",
          "name": "",
          "type": "bool"
        }
      ],
      "stateMutability": "nonpayable",
      "type": "function"
    },
    {
      "inputs": [
        {
          "internalType": "address",
          "name": "account",
          "type": "address"
        }
      ],
      "name": "balanceOf",
      "outputs": [
        {
          "internalType": "uint256",
          "name": "",
          "type": "uint256"
        }
      ],
      "stateMutability": "view",
      "type": "function"
    },
    {
      "inputs": [
        {
          "internalType": "address",
          "name": "",
          "type": "address"
        }
      ],
      "name": "debtAmountOf",
      "outputs": [
        {
          "internalType": "uint256",
          "name": "",
          "type": "uint256"
        }
      ],
      "stateMutability": "view",
      "type": "function"
    },
    {
      "inputs": [],
      "name": "decimals",
      "outputs": [
        {
          "internalType": "uint8",
          "name": "",
          "type": "uint8"
        }
      ],
      "stateMutability": "view",
      "type": "function"
    },
    {
      "inputs": [
        {
          "internalType": "address",
          "name": "spender",
          "type": "address"
        },
        {
          "internalType": "uint256",
          "name": "subtractedValue",
          "type": "uint256"
        }
      ],
      "name": "decreaseAllowance",
      "outputs": [
        {
          "internalType": "bool",
          "name": "",
          "type": "bool"
        }
      ],
      "stateMutability": "nonpayable",
      "type": "function"
    },
    {
      "inputs": [
        {
          "internalType": "uint256",
          "name": "amount",
          "type": "uint256"
        }
      ],
      "name": "deposit",
      "outputs": [
        {
          "internalType": "uint256",
          "name": "share",
          "type": "uint256"
        }
      ],
      "stateMutability": "nonpayable",
      "type": "function"
    },
    {
      "inputs": [
        {
          "internalType": "uint256",
          "name": "tokenOut",
          "type": "uint256"
        }
      ],
      "name": "getBaseIn",
      "outputs": [
        {
          "internalType": "uint256",
          "name": "baseIn",
          "type": "uint256"
        }
      ],
      "stateMutability": "view",
      "type": "function"
    },
    {
      "inputs": [
        {
          "internalType": "uint256",
          "name": "tokenIn",
          "type": "uint256"
        }
      ],
      "name": "getBaseOut",
      "outputs": [
        {
          "internalType": "uint256",
          "name": "baseOut",
          "type": "uint256"
        }
      ],
      "stateMutability": "view",
      "type": "function"
    },
    {
      "inputs": [],
      "name": "getInterestRate",
      "outputs": [
        {
          "internalType": "uint256",
          "name": "interestRate",
          "type": "uint256"
        }
      ],
      "stateMutability": "view",
      "type": "function"
    },
    {
      "inputs": [
        {
          "internalType": "address",
          "name": "user",
          "type": "address"
        }
      ],
      "name": "getPendingDebt",
      "outputs": [
        {
          "internalType": "uint256",
          "name": "",
          "type": "uint256"
        }
      ],
      "stateMutability": "view",
      "type": "function"
    },
    {
      "inputs": [
        {
          "internalType": "address",
          "name": "user",
          "type": "address"
        }
      ],
      "name": "getPendingDebtInBase",
      "outputs": [
        {
          "internalType": "uint256",
          "name": "",
          "type": "uint256"
        }
      ],
      "stateMutability": "view",
      "type": "function"
    },
    {
      "inputs": [
        {
          "internalType": "uint256",
          "name": "baseOut",
          "type": "uint256"
        }
      ],
      "name": "getTokenIn",
      "outputs": [
        {
          "internalType": "uint256",
          "name": "tokenIn",
          "type": "uint256"
        }
      ],
      "stateMutability": "view",
      "type": "function"
    },
    {
      "inputs": [
        {
          "internalType": "uint256",
          "name": "baseIn",
          "type": "uint256"
        }
      ],
      "name": "getTokenOut",
      "outputs": [
        {
          "internalType": "uint256",
          "name": "tokenOut",
          "type": "uint256"
        }
      ],
      "stateMutability": "view",
      "type": "function"
    },
    {
      "inputs": [
        {
          "internalType": "address",
          "name": "spender",
          "type": "address"
        },
        {
          "internalType": "uint256",
          "name": "addedValue",
          "type": "uint256"
        }
      ],
      "name": "increaseAllowance",
      "outputs": [
        {
          "internalType": "bool",
          "name": "",
          "type": "bool"
        }
      ],
      "stateMutability": "nonpayable",
      "type": "function"
    },
    {
      "inputs": [],
      "name": "interestModel",
      "outputs": [
        {
          "internalType": "address",
          "name": "",
          "type": "address"
        }
      ],
      "stateMutability": "view",
      "type": "function"
    },
    {
      "inputs": [
        {
          "internalType": "address",
          "name": "user",
          "type": "address"
        },
        {
          "internalType": "uint256",
          "name": "debtInBase",
          "type": "uint256"
        }
      ],
      "name": "loan",
      "outputs": [
        {
          "internalType": "uint256",
          "name": "debt",
          "type": "uint256"
        }
      ],
      "stateMutability": "nonpayable",
      "type": "function"
    },
    {
      "inputs": [],
      "name": "name",
      "outputs": [
        {
          "internalType": "string",
          "name": "",
          "type": "string"
        }
      ],
      "stateMutability": "view",
      "type": "function"
    },
    {
      "inputs": [],
      "name": "owner",
      "outputs": [
        {
          "internalType": "address",
          "name": "",
          "type": "address"
        }
      ],
      "stateMutability": "view",
      "type": "function"
    },
    {
      "inputs": [
        {
          "internalType": "uint256",
          "name": "minPaidInterest",
          "type": "uint256"
        }
      ],
      "name": "payInterest",
      "outputs": [],
      "stateMutability": "payable",
      "type": "function"
    },
    {
      "inputs": [
        {
          "internalType": "address",
          "name": "user",
          "type": "address"
        }
      ],
      "name": "pendRepay",
      "outputs": [],
      "stateMutability": "nonpayable",
      "type": "function"
    },
    {
      "inputs": [
        {
          "internalType": "uint256",
          "name": "amount",
          "type": "uint256"
        }
      ],
      "name": "pendingDebtAmountToShare",
      "outputs": [
        {
          "internalType": "uint256",
          "name": "",
          "type": "uint256"
        }
      ],
      "stateMutability": "view",
      "type": "function"
    },
    {
      "inputs": [
        {
          "internalType": "address",
          "name": "",
          "type": "address"
        }
      ],
      "name": "pendingDebtShareOf",
      "outputs": [
        {
          "internalType": "uint256",
          "name": "",
          "type": "uint256"
        }
      ],
      "stateMutability": "view",
      "type": "function"
    },
    {
      "inputs": [
        {
          "internalType": "uint256",
          "name": "share",
          "type": "uint256"
        }
      ],
      "name": "pendingDebtShareToAmount",
      "outputs": [
        {
          "internalType": "uint256",
          "name": "",
          "type": "uint256"
        }
      ],
      "stateMutability": "view",
      "type": "function"
    },
    {
      "inputs": [],
      "name": "renounceOwnership",
      "outputs": [],
      "stateMutability": "nonpayable",
      "type": "function"
    },
    {
      "inputs": [
        {
          "internalType": "address",
          "name": "user",
          "type": "address"
        },
        {
          "internalType": "uint256",
          "name": "minRepaid",
          "type": "uint256"
        }
      ],
      "name": "repayInBase",
      "outputs": [
        {
          "internalType": "uint256",
          "name": "repaid",
          "type": "uint256"
        }
      ],
      "stateMutability": "payable",
      "type": "function"
    },
    {
      "inputs": [
        {
          "internalType": "address",
          "name": "user",
          "type": "address"
        },
        {
          "internalType": "uint256",
          "name": "amount",
          "type": "uint256"
        }
      ],
      "name": "repayInToken",
      "outputs": [],
      "stateMutability": "nonpayable",
      "type": "function"
    },
    {
      "inputs": [
        {
          "internalType": "address",
          "name": "user",
          "type": "address"
        },
        {
          "internalType": "uint256",
          "name": "minRepaidDebt",
          "type": "uint256"
        }
      ],
      "name": "repayPendingDebt",
      "outputs": [
        {
          "internalType": "uint256",
          "name": "repaidDebtAmount",
          "type": "uint256"
        }
      ],
      "stateMutability": "payable",
      "type": "function"
    },
    {
      "inputs": [],
      "name": "saveUtilizationRateBps",
      "outputs": [],
      "stateMutability": "nonpayable",
      "type": "function"
    },
    {
      "inputs": [
        {
          "internalType": "uint256",
          "name": "share",
          "type": "uint256"
        }
      ],
      "name": "shareToAmount",
      "outputs": [
        {
          "internalType": "uint256",
          "name": "",
          "type": "uint256"
        }
      ],
      "stateMutability": "view",
      "type": "function"
    },
    {
      "inputs": [],
      "name": "stayking",
      "outputs": [
        {
          "internalType": "address",
          "name": "",
          "type": "address"
        }
      ],
      "stateMutability": "view",
      "type": "function"
    },
    {
      "inputs": [],
      "name": "swapHelper",
      "outputs": [
        {
          "internalType": "contract ISwapHelper",
          "name": "",
          "type": "address"
        }
      ],
      "stateMutability": "view",
      "type": "function"
    },
    {
      "inputs": [],
      "name": "symbol",
      "outputs": [
        {
          "internalType": "string",
          "name": "",
          "type": "string"
        }
      ],
      "stateMutability": "view",
      "type": "function"
    },
    {
      "inputs": [
        {
          "internalType": "address",
          "name": "from",
          "type": "address"
        },
        {
          "internalType": "uint256",
          "name": "amount",
          "type": "uint256"
        }
      ],
      "name": "takeDebtOwnership",
      "outputs": [],
      "stateMutability": "nonpayable",
      "type": "function"
    },
    {
      "inputs": [],
      "name": "token",
      "outputs": [
        {
          "internalType": "address",
          "name": "",
          "type": "address"
        }
      ],
      "stateMutability": "view",
      "type": "function"
    },
    {
      "inputs": [],
      "name": "totalAmount",
      "outputs": [
        {
          "internalType": "uint256",
          "name": "",
          "type": "uint256"
        }
      ],
      "stateMutability": "view",
      "type": "function"
    },
    {
      "inputs": [],
      "name": "totalDebtAmount",
      "outputs": [
        {
          "internalType": "uint256",
          "name": "",
          "type": "uint256"
        }
      ],
      "stateMutability": "view",
      "type": "function"
    },
    {
      "inputs": [],
      "name": "totalSupply",
      "outputs": [
        {
          "internalType": "uint256",
          "name": "",
          "type": "uint256"
        }
      ],
      "stateMutability": "view",
      "type": "function"
    },
    {
      "inputs": [
        {
          "internalType": "address",
          "name": "to",
          "type": "address"
        },
        {
          "internalType": "uint256",
          "name": "amount",
          "type": "uint256"
        }
      ],
      "name": "transfer",
      "outputs": [
        {
          "internalType": "bool",
          "name": "",
          "type": "bool"
        }
      ],
      "stateMutability": "nonpayable",
      "type": "function"
    },
    {
      "inputs": [
        {
          "internalType": "address",
          "name": "from",
          "type": "address"
        },
        {
          "internalType": "address",
          "name": "to",
          "type": "address"
        },
        {
          "internalType": "uint256",
          "name": "amount",
          "type": "uint256"
        }
      ],
      "name": "transferFrom",
      "outputs": [
        {
          "internalType": "bool",
          "name": "",
          "type": "bool"
        }
      ],
      "stateMutability": "nonpayable",
      "type": "function"
    },
    {
      "inputs": [
        {
          "internalType": "address",
          "name": "newOwner",
          "type": "address"
        }
      ],
      "name": "transferOwnership",
      "outputs": [],
      "stateMutability": "nonpayable",
      "type": "function"
    },
    {
      "inputs": [
        {
          "internalType": "address",
          "name": "_interestModel",
          "type": "address"
        }
      ],
      "name": "updateInterestModel",
      "outputs": [],
      "stateMutability": "nonpayable",
      "type": "function"
    },
    {
      "inputs": [
        {
          "internalType": "uint256",
          "name": "_minReservedBps",
          "type": "uint256"
        }
      ],
      "name": "updateMinReservedBps",
      "outputs": [],
      "stateMutability": "nonpayable",
      "type": "function"
    },
    {
      "inputs": [
        {
          "internalType": "address",
          "name": "_swapHelper",
          "type": "address"
        }
      ],
      "name": "updateSwapHelper",
      "outputs": [],
      "stateMutability": "nonpayable",
      "type": "function"
    },
    {
      "inputs": [],
      "name": "utilizationRateBps",
      "outputs": [
        {
          "internalType": "uint256",
          "name": "",
          "type": "uint256"
        }
      ],
      "stateMutability": "view",
      "type": "function"
    },
    {
      "inputs": [
        {
          "internalType": "uint256",
          "name": "share",
          "type": "uint256"
        }
      ],
      "name": "withdraw",
      "outputs": [
        {
          "internalType": "uint256",
          "name": "amount",
          "type": "uint256"
        }
      ],
      "stateMutability": "nonpayable",
      "type": "function"
    },
    {
      "stateMutability": "payable",
      "type": "receive"
    }
  ],
  "bytecode": "0x608060405234801561001057600080fd5b50614f1e806100206000396000f3fe6080604052600436106102975760003560e01c8063715018a61161015a578063b16828b7116100c1578063dd62ed3e1161007a578063dd62ed3e14610acc578063e18c513114610b09578063e6d7059a14610b46578063eab3298114610b83578063f2fde38b14610bae578063fc0c546a14610bd75761029e565b8063b16828b7146109be578063b6b55f25146109d5578063b9529e9f14610a12578063c480979814610a3b578063c8dffa9514610a78578063d9ecd8d314610aa35761029e565b806395d89b411161011357806395d89b41146108a25780639d2e6fcb146108cd578063a457c2d7146108fd578063a9059cbb1461093a578063ac165d7a14610977578063ad452d75146109a25761029e565b8063715018a61461078d578063724e5910146107a45780638122af77146107cd5780638a81d6b01461080a5780638da5cb5b1461083a57806395d6abf8146108655761029e565b80632d4047e5116101fe578063494e42f4116101b7578063494e42f4146106595780634b794aa1146106825780635257b566146106ab5780635eeff101146106d65780636592183b1461071357806370a08231146107505761029e565b80632d4047e5146105115780632d6f80131461054e5780632e1a7d4d1461058b578063313ce567146105c857806339509351146105f35780633f2b9723146106305761029e565b806315d6dae91161025057806315d6dae9146103c757806318160ddd14610404578063185cc7511461042f5780631a39d8ef1461046c5780631ce9ba361461049757806323b872dd146104d45761029e565b806303d98c1f146102a357806306fdde03146102ce578063095ea7b3146102f95780630efc51a7146103365780630fc6a11c14610373578063131829151461039e5761029e565b3661029e57005b600080fd5b3480156102af57600080fd5b506102b8610c02565b6040516102c59190614552565b60405180910390f35b3480156102da57600080fd5b506102e3610c2b565b6040516102f09190614230565b60405180910390f35b34801561030557600080fd5b50610320600480360381019061031b9190613b38565b610cbd565b60405161032d91906141df565b60405180910390f35b34801561034257600080fd5b5061035d60048036038101906103589190613c73565b610ce0565b60405161036a9190614552565b60405180910390f35b34801561037f57600080fd5b50610388610dbb565b60405161039591906141fa565b60405180910390f35b3480156103aa57600080fd5b506103c560048036038101906103c09190613a84565b610de1565b005b3480156103d357600080fd5b506103ee60048036038101906103e99190613c73565b610e2d565b6040516103fb9190614552565b60405180910390f35b34801561041057600080fd5b50610419610f08565b6040516104269190614552565b60405180910390f35b34801561043b57600080fd5b5061045660048036038101906104519190613b38565b610f12565b6040516104639190614552565b60405180910390f35b34801561047857600080fd5b506104816110cd565b60405161048e9190614552565b60405180910390f35b3480156104a357600080fd5b506104be60048036038101906104b99190613c73565b61118c565b6040516104cb9190614552565b60405180910390f35b3480156104e057600080fd5b506104fb60048036038101906104f69190613ae9565b6111c0565b60405161050891906141df565b60405180910390f35b34801561051d57600080fd5b5061053860048036038101906105339190613c73565b6111ef565b6040516105459190614552565b60405180910390f35b34801561055a57600080fd5b5061057560048036038101906105709190613c73565b611231565b6040516105829190614552565b60405180910390f35b34801561059757600080fd5b506105b260048036038101906105ad9190613c73565b611273565b6040516105bf9190614552565b60405180910390f35b3480156105d457600080fd5b506105dd6112f7565b6040516105ea9190614596565b60405180910390f35b3480156105ff57600080fd5b5061061a60048036038101906106159190613b38565b611300565b60405161062791906141df565b60405180910390f35b34801561063c57600080fd5b5061065760048036038101906106529190613a84565b611337565b005b34801561066557600080fd5b50610680600480360381019061067b9190613c73565b611383565b005b34801561068e57600080fd5b506106a960048036038101906106a49190613a84565b611395565b005b3480156106b757600080fd5b506106c0611503565b6040516106cd9190614552565b60405180910390f35b3480156106e257600080fd5b506106fd60048036038101906106f89190613a84565b611663565b60405161070a9190614552565b60405180910390f35b34801561071f57600080fd5b5061073a60048036038101906107359190613a84565b61167d565b6040516107479190614552565b60405180910390f35b34801561075c57600080fd5b5061077760048036038101906107729190613a84565b611695565b6040516107849190614552565b60405180910390f35b34801561079957600080fd5b506107a26116de565b005b3480156107b057600080fd5b506107cb60048036038101906107c69190613b38565b6116f2565b005b3480156107d957600080fd5b506107f460048036038101906107ef9190613a84565b6117be565b6040516108019190614552565b60405180910390f35b610824600480360381019061081f9190613b38565b6117d6565b6040516108319190614552565b60405180910390f35b34801561084657600080fd5b5061084f611957565b60405161085c91906140e8565b60405180910390f35b34801561087157600080fd5b5061088c60048036038101906108879190613c73565b611981565b6040516108999190614552565b60405180910390f35b3480156108ae57600080fd5b506108b7611a5c565b6040516108c49190614230565b60405180910390f35b6108e760048036038101906108e29190613b38565b611aee565b6040516108f49190614552565b60405180910390f35b34801561090957600080fd5b50610924600480360381019061091f9190613b38565b611b9c565b60405161093191906141df565b60405180910390f35b34801561094657600080fd5b50610961600480360381019061095c9190613b38565b611c13565b60405161096e91906141df565b60405180910390f35b34801561098357600080fd5b5061098c611c36565b60405161099991906140e8565b60405180910390f35b6109bc60048036038101906109b79190613c73565b611c5c565b005b3480156109ca57600080fd5b506109d3611d8e565b005b3480156109e157600080fd5b506109fc60048036038101906109f79190613c73565b611e4b565b604051610a099190614552565b60405180910390f35b348015610a1e57600080fd5b50610a396004803603810190610a349190613b38565b611ed0565b005b348015610a4757600080fd5b50610a626004803603810190610a5d9190613c73565b61204b565b604051610a6f9190614552565b60405180910390f35b348015610a8457600080fd5b50610a8d61207f565b604051610a9a9190614552565b60405180910390f35b348015610aaf57600080fd5b50610aca6004803603810190610ac59190613b9d565b612085565b005b348015610ad857600080fd5b50610af36004803603810190610aee9190613aad565b61240a565b604051610b009190614552565b60405180910390f35b348015610b1557600080fd5b50610b306004803603810190610b2b9190613a84565b612491565b604051610b3d9190614552565b60405180910390f35b348015610b5257600080fd5b50610b6d6004803603810190610b689190613c73565b6124e2565b604051610b7a9190614552565b60405180910390f35b348015610b8f57600080fd5b50610b986125bd565b604051610ba591906140e8565b60405180910390f35b348015610bba57600080fd5b50610bd56004803603810190610bd09190613a84565b6125e3565b005b348015610be357600080fd5b50610bec612667565b604051610bf991906140e8565b60405180910390f35b6000610c0c6110cd565b609c54612710610c1c919061466a565b610c269190614639565b905090565b606060368054610c3a906147b6565b80601f0160208091040260200160405190810160405280929190818152602001828054610c66906147b6565b8015610cb35780601f10610c8857610100808354040283529160200191610cb3565b820191906000526020600020905b815481529060010190602001808311610c9657829003601f168201915b5050505050905090565b600080610cc861268d565b9050610cd5818585612695565b600191505092915050565b6000609760009054906101000a900473ffffffffffffffffffffffffffffffffffffffff1673ffffffffffffffffffffffffffffffffffffffff16637dceefee609860009054906101000a900473ffffffffffffffffffffffffffffffffffffffff166000856040518463ffffffff1660e01b8152600401610d6493929190614103565b60206040518083038186803b158015610d7c57600080fd5b505afa158015610d90573d6000803e3d6000fd5b505050506040513d601f19601f82011682018060405250810190610db49190613c9c565b9050919050565b609760009054906101000a900473ffffffffffffffffffffffffffffffffffffffff1681565b610de9612860565b80609a60006101000a81548173ffffffffffffffffffffffffffffffffffffffff021916908373ffffffffffffffffffffffffffffffffffffffff16021790555050565b6000609760009054906101000a900473ffffffffffffffffffffffffffffffffffffffff1673ffffffffffffffffffffffffffffffffffffffff16634f119bbd609860009054906101000a900473ffffffffffffffffffffffffffffffffffffffff166000856040518463ffffffff1660e01b8152600401610eb193929190614103565b60206040518083038186803b158015610ec957600080fd5b505afa158015610edd573d6000803e3d6000fd5b505050506040513d601f19601f82011682018060405250810190610f019190613c9c565b9050919050565b6000603554905090565b6000609960009054906101000a900473ffffffffffffffffffffffffffffffffffffffff1673ffffffffffffffffffffffffffffffffffffffff163373ffffffffffffffffffffffffffffffffffffffff1614610fa4576040517f08c379a0000000000000000000000000000000000000000000000000000000008152600401610f9b906143f2565b60405180910390fd5b610fad826128de565b905080609b60008573ffffffffffffffffffffffffffffffffffffffff1673ffffffffffffffffffffffffffffffffffffffff1681526020019081526020016000206000828254610ffe91906145e3565b9250508190555080609c600082825461101791906145e3565b9250508190555060a0546110296110cd565b611033919061466a565b612710609c54611043919061466a565b1115611084576040517f08c379a000000000000000000000000000000000000000000000000000000000815260040161107b90614372565b60405180910390fd5b61108e3382612a16565b7f1db23cf53464267c45324569941e81e23d29c48ff9be2b35af2cc0a2681159d683826040516110bf92919061417f565b60405180910390a192915050565b6000609c54609860009054906101000a900473ffffffffffffffffffffffffffffffffffffffff1673ffffffffffffffffffffffffffffffffffffffff166370a08231306040518263ffffffff1660e01b815260040161112d91906140e8565b60206040518083038186803b15801561114557600080fd5b505afa158015611159573d6000803e3d6000fd5b505050506040513d601f19601f8201168201806040525081019061117d9190613c9c565b61118791906145e3565b905090565b600080609e54146111b757609e5482609f546111a8919061466a565b6111b29190614639565b6111b9565b815b9050919050565b6000806111cb61268d565b90506111d8858285612b3c565b6111e3858585612bc8565b60019150509392505050565b6000806111fa6110cd565b90506000811461122757808361120e610f08565b611218919061466a565b6112229190614639565b611229565b825b915050919050565b60008061123c610f08565b9050600081146112695780836112506110cd565b61125a919061466a565b6112649190614639565b61126b565b825b915050919050565b600061127e82611231565b905061128a3383612e4c565b6112b7609860009054906101000a900473ffffffffffffffffffffffffffffffffffffffff163383613025565b7ff279e6a1f5e320cca91135676d9cb6e44ca8a08c0b88342bcdb1144f6511b5683382846040516112ea939291906141a8565b60405180910390a1919050565b60006012905090565b60008061130b61268d565b905061132c81858561131d858961240a565b61132791906145e3565b612695565b600191505092915050565b61133f612860565b80609760006101000a81548173ffffffffffffffffffffffffffffffffffffffff021916908373ffffffffffffffffffffffffffffffffffffffff16021790555050565b61138b612860565b8060a08190555050565b609960009054906101000a900473ffffffffffffffffffffffffffffffffffffffff1673ffffffffffffffffffffffffffffffffffffffff163373ffffffffffffffffffffffffffffffffffffffff1614611425576040517f08c379a000000000000000000000000000000000000000000000000000000000815260040161141c906143f2565b60405180910390fd5b6000609b60008373ffffffffffffffffffffffffffffffffffffffff1673ffffffffffffffffffffffffffffffffffffffff16815260200190815260200160002054905060006114748261204b565b905080609d60008573ffffffffffffffffffffffffffffffffffffffff1673ffffffffffffffffffffffffffffffffffffffff16815260200190815260200160002060008282546114c591906145e3565b9250508190555080609e60008282546114de91906145e3565b9250508190555081609f60008282546114f791906145e3565b92505081905550505050565b6000609a60009054906101000a900473ffffffffffffffffffffffffffffffffffffffff1673ffffffffffffffffffffffffffffffffffffffff1663d4a99bbb609c54609860009054906101000a900473ffffffffffffffffffffffffffffffffffffffff1673ffffffffffffffffffffffffffffffffffffffff166370a08231306040518263ffffffff1660e01b81526004016115a191906140e8565b60206040518083038186803b1580156115b957600080fd5b505afa1580156115cd573d6000803e3d6000fd5b505050506040513d601f19601f820116820180604052508101906115f19190613c9c565b6040518363ffffffff1660e01b815260040161160e92919061456d565b60206040518083038186803b15801561162657600080fd5b505afa15801561163a573d6000803e3d6000fd5b505050506040513d601f19601f8201168201806040525081019061165e9190613c9c565b905090565b600061167661167183612491565b611981565b9050919050565b609b6020528060005260406000206000915090505481565b6000603360008373ffffffffffffffffffffffffffffffffffffffff1673ffffffffffffffffffffffffffffffffffffffff168152602001908152602001600020549050919050565b6116e6612860565b6116f0600061315b565b565b609960009054906101000a900473ffffffffffffffffffffffffffffffffffffffff1673ffffffffffffffffffffffffffffffffffffffff163373ffffffffffffffffffffffffffffffffffffffff1614611782576040517f08c379a0000000000000000000000000000000000000000000000000000000008152600401611779906143f2565b60405180910390fd5b6117b0609860009054906101000a900473ffffffffffffffffffffffffffffffffffffffff16833084613221565b6117ba828261335a565b5050565b609d6020528060005260406000206000915090505481565b6000609960009054906101000a900473ffffffffffffffffffffffffffffffffffffffff1673ffffffffffffffffffffffffffffffffffffffff163373ffffffffffffffffffffffffffffffffffffffff1614611868576040517f08c379a000000000000000000000000000000000000000000000000000000000815260040161185f906143f2565b60405180910390fd5b6118723483613406565b9050600061187f8261204b565b9050609d60008573ffffffffffffffffffffffffffffffffffffffff1673ffffffffffffffffffffffffffffffffffffffff16815260200190815260200160002054811115611903576040517f08c379a00000000000000000000000000000000000000000000000000000000081526004016118fa90614392565b60405180910390fd5b80609d60008673ffffffffffffffffffffffffffffffffffffffff1673ffffffffffffffffffffffffffffffffffffffff168152602001908152602001600020600082825403925050819055505092915050565b6000606560009054906101000a900473ffffffffffffffffffffffffffffffffffffffff16905090565b6000609760009054906101000a900473ffffffffffffffffffffffffffffffffffffffff1673ffffffffffffffffffffffffffffffffffffffff16637dceefee6000609860009054906101000a900473ffffffffffffffffffffffffffffffffffffffff16856040518463ffffffff1660e01b8152600401611a0593929190614103565b60206040518083038186803b158015611a1d57600080fd5b505afa158015611a31573d6000803e3d6000fd5b505050506040513d601f19601f82011682018060405250810190611a559190613c9c565b9050919050565b606060378054611a6b906147b6565b80601f0160208091040260200160405190810160405280929190818152602001828054611a97906147b6565b8015611ae45780601f10611ab957610100808354040283529160200191611ae4565b820191906000526020600020905b815481529060010190602001808311611ac757829003601f168201915b5050505050905090565b6000609960009054906101000a900473ffffffffffffffffffffffffffffffffffffffff1673ffffffffffffffffffffffffffffffffffffffff163373ffffffffffffffffffffffffffffffffffffffff1614611b80576040517f08c379a0000000000000000000000000000000000000000000000000000000008152600401611b77906143f2565b60405180910390fd5b611b8a3483613406565b9050611b96838261335a565b92915050565b600080611ba761268d565b90506000611bb5828661240a565b905083811015611bfa576040517f08c379a0000000000000000000000000000000000000000000000000000000008152600401611bf190614512565b60405180910390fd5b611c078286868403612695565b60019250505092915050565b600080611c1e61268d565b9050611c2b818585612bc8565b600191505092915050565b609a60009054906101000a900473ffffffffffffffffffffffffffffffffffffffff1681565b609960009054906101000a900473ffffffffffffffffffffffffffffffffffffffff1673ffffffffffffffffffffffffffffffffffffffff163373ffffffffffffffffffffffffffffffffffffffff1614611cec576040517f08c379a0000000000000000000000000000000000000000000000000000000008152600401611ce3906143f2565b60405180910390fd5b6000611cf83483613406565b90508060a2541015611d3f576040517f08c379a0000000000000000000000000000000000000000000000000000000008152600401611d3690614312565b60405180910390fd5b8060a2600082825403925050819055507f57546d41506d4d7643c2ea350647fa3d6ada23d1de3afa7a32496df9b7686bc08160a254604051611d8292919061456d565b60405180910390a15050565b6201518060a354611d9f91906145e3565b4210611e4957611dad610c02565b60a1819055506201518060a36000828254611dc891906145e3565b92505081905550670de0b6b3a7640000611de0611503565b609c54611ded919061466a565b611df79190614639565b60a26000828254611e0891906145e3565b925050819055507f163eacd81cbfca2d1ec176759e7107e34229c5cbc5ec0b3fde68ffdef1157e0260a154604051611e409190614552565b60405180910390a15b565b6000611e56826111ef565b9050611e86609860009054906101000a900473ffffffffffffffffffffffffffffffffffffffff16333085613221565b611e9033826134e7565b7f90890809c654f11d6e72a28fa60149770a0d11ec6c92319d6ceb2bb0a4ea1a15338383604051611ec3939291906141a8565b60405180910390a1919050565b609960009054906101000a900473ffffffffffffffffffffffffffffffffffffffff1673ffffffffffffffffffffffffffffffffffffffff163373ffffffffffffffffffffffffffffffffffffffff1614611f60576040517f08c379a0000000000000000000000000000000000000000000000000000000008152600401611f57906143f2565b60405180910390fd5b80609b60008473ffffffffffffffffffffffffffffffffffffffff1673ffffffffffffffffffffffffffffffffffffffff1681526020019081526020016000206000828254611faf91906146c4565b9250508190555080609b60003373ffffffffffffffffffffffffffffffffffffffff1673ffffffffffffffffffffffffffffffffffffffff168152602001908152602001600020600082825461200591906145e3565b925050819055507f80caff6c1c70cc823c773c968ebdab44b7dc12da8117b4634b5f3eb78b07011e82338360405161203f93929190614103565b60405180910390a15050565b600080609f541461207657609f5482609e54612067919061466a565b6120719190614639565b612078565b815b9050919050565b609c5481565b60008060019054906101000a900460ff161590508080156120b65750600160008054906101000a900460ff1660ff16105b806120e357506120c530613648565b1580156120e25750600160008054906101000a900460ff1660ff16145b5b612122576040517f08c379a0000000000000000000000000000000000000000000000000000000008152600401612119906143d2565b60405180910390fd5b60016000806101000a81548160ff021916908360ff160217905550801561215f576001600060016101000a81548160ff0219169083151502179055505b600073ffffffffffffffffffffffffffffffffffffffff168573ffffffffffffffffffffffffffffffffffffffff1614156121cf576040517f08c379a00000000000000000000000000000000000000000000000000000000081526004016121c6906142f2565b60405180910390fd5b600073ffffffffffffffffffffffffffffffffffffffff168473ffffffffffffffffffffffffffffffffffffffff16141561223f576040517f08c379a0000000000000000000000000000000000000000000000000000000008152600401612236906143b2565b60405180910390fd5b6122d18a8a8080601f016020809104026020016040519081016040528093929190818152602001838380828437600081840152601f19601f8201169050808301925050505050505089898080601f016020809104026020016040519081016040528093929190818152602001838380828437600081840152601f19601f8201169050808301925050505050505061366b565b6122d96136c8565b83609860006101000a81548173ffffffffffffffffffffffffffffffffffffffff021916908373ffffffffffffffffffffffffffffffffffffffff16021790555084609960006101000a81548173ffffffffffffffffffffffffffffffffffffffff021916908373ffffffffffffffffffffffffffffffffffffffff16021790555061236482611383565b61236d83610de1565b61237686611337565b620151806361b2a6904261238a91906146c4565b61239491906147e8565b4261239f91906146c4565b60a38190555080156123fe5760008060016101000a81548160ff0219169083151502179055507f7f26b83ff96e1f2b6a682f133852f6798a09c465da95921460cefb384740249860016040516123f59190614215565b60405180910390a15b50505050505050505050565b6000603460008473ffffffffffffffffffffffffffffffffffffffff1673ffffffffffffffffffffffffffffffffffffffff16815260200190815260200160002060008373ffffffffffffffffffffffffffffffffffffffff1673ffffffffffffffffffffffffffffffffffffffff16815260200190815260200160002054905092915050565b60006124db609d60008473ffffffffffffffffffffffffffffffffffffffff1673ffffffffffffffffffffffffffffffffffffffff1681526020019081526020016000205461118c565b9050919050565b6000609760009054906101000a900473ffffffffffffffffffffffffffffffffffffffff1673ffffffffffffffffffffffffffffffffffffffff16634f119bbd6000609860009054906101000a900473ffffffffffffffffffffffffffffffffffffffff16856040518463ffffffff1660e01b815260040161256693929190614103565b60206040518083038186803b15801561257e57600080fd5b505afa158015612592573d6000803e3d6000fd5b505050506040513d601f19601f820116820180604052508101906125b69190613c9c565b9050919050565b609960009054906101000a900473ffffffffffffffffffffffffffffffffffffffff1681565b6125eb612860565b600073ffffffffffffffffffffffffffffffffffffffff168173ffffffffffffffffffffffffffffffffffffffff16141561265b576040517f08c379a000000000000000000000000000000000000000000000000000000000815260040161265290614292565b60405180910390fd5b6126648161315b565b50565b609860009054906101000a900473ffffffffffffffffffffffffffffffffffffffff1681565b600033905090565b600073ffffffffffffffffffffffffffffffffffffffff168373ffffffffffffffffffffffffffffffffffffffff161415612705576040517f08c379a00000000000000000000000000000000000000000000000000000000081526004016126fc906144b2565b60405180910390fd5b600073ffffffffffffffffffffffffffffffffffffffff168273ffffffffffffffffffffffffffffffffffffffff161415612775576040517f08c379a000000000000000000000000000000000000000000000000000000000815260040161276c906142b2565b60405180910390fd5b80603460008573ffffffffffffffffffffffffffffffffffffffff1673ffffffffffffffffffffffffffffffffffffffff16815260200190815260200160002060008473ffffffffffffffffffffffffffffffffffffffff1673ffffffffffffffffffffffffffffffffffffffff168152602001908152602001600020819055508173ffffffffffffffffffffffffffffffffffffffff168373ffffffffffffffffffffffffffffffffffffffff167f8c5be1e5ebec7d5bd14f71427d1e84f3dd0314c0f7b2291e5b200ac8c7c3b925836040516128539190614552565b60405180910390a3505050565b61286861268d565b73ffffffffffffffffffffffffffffffffffffffff16612886611957565b73ffffffffffffffffffffffffffffffffffffffff16146128dc576040517f08c379a00000000000000000000000000000000000000000000000000000000081526004016128d390614452565b60405180910390fd5b565b60006128e982610ce0565b905061293a609860009054906101000a900473ffffffffffffffffffffffffffffffffffffffff16609760009054906101000a900473ffffffffffffffffffffffffffffffffffffffff1683613721565b609760009054906101000a900473ffffffffffffffffffffffffffffffffffffffff1673ffffffffffffffffffffffffffffffffffffffff16630ed2fc95609860009054906101000a900473ffffffffffffffffffffffffffffffffffffffff16600084866040518563ffffffff1660e01b81526004016129be949392919061413a565b602060405180830381600087803b1580156129d857600080fd5b505af11580156129ec573d6000803e3d6000fd5b505050506040513d601f19601f82011682018060405250810190612a109190613c9c565b50919050565b60008273ffffffffffffffffffffffffffffffffffffffff1682600067ffffffffffffffff811115612a71577f4e487b7100000000000000000000000000000000000000000000000000000000600052604160045260246000fd5b6040519080825280601f01601f191660200182016040528015612aa35781602001600182028036833780820191505090505b50604051612ab191906140d1565b60006040518083038185875af1925050503d8060008114612aee576040519150601f19603f3d011682016040523d82523d6000602084013e612af3565b606091505b5050905080612b37576040517f08c379a0000000000000000000000000000000000000000000000000000000008152600401612b2e90614412565b60405180910390fd5b505050565b6000612b48848461240a565b90507fffffffffffffffffffffffffffffffffffffffffffffffffffffffffffffffff8114612bc25781811015612bb4576040517f08c379a0000000000000000000000000000000000000000000000000000000008152600401612bab90614332565b60405180910390fd5b612bc18484848403612695565b5b50505050565b600073ffffffffffffffffffffffffffffffffffffffff168373ffffffffffffffffffffffffffffffffffffffff161415612c38576040517f08c379a0000000000000000000000000000000000000000000000000000000008152600401612c2f90614492565b60405180910390fd5b600073ffffffffffffffffffffffffffffffffffffffff168273ffffffffffffffffffffffffffffffffffffffff161415612ca8576040517f08c379a0000000000000000000000000000000000000000000000000000000008152600401612c9f90614252565b60405180910390fd5b612cb3838383613857565b6000603360008573ffffffffffffffffffffffffffffffffffffffff1673ffffffffffffffffffffffffffffffffffffffff16815260200190815260200160002054905081811015612d3a576040517f08c379a0000000000000000000000000000000000000000000000000000000008152600401612d3190614352565b60405180910390fd5b818103603360008673ffffffffffffffffffffffffffffffffffffffff1673ffffffffffffffffffffffffffffffffffffffff1681526020019081526020016000208190555081603360008573ffffffffffffffffffffffffffffffffffffffff1673ffffffffffffffffffffffffffffffffffffffff1681526020019081526020016000206000828254612dcf91906145e3565b925050819055508273ffffffffffffffffffffffffffffffffffffffff168473ffffffffffffffffffffffffffffffffffffffff167fddf252ad1be2c89b69c2b068fc378daa952ba7f163c4a11628f55a4df523b3ef84604051612e339190614552565b60405180910390a3612e4684848461385c565b50505050565b600073ffffffffffffffffffffffffffffffffffffffff168273ffffffffffffffffffffffffffffffffffffffff161415612ebc576040517f08c379a0000000000000000000000000000000000000000000000000000000008152600401612eb390614472565b60405180910390fd5b612ec882600083613857565b6000603360008473ffffffffffffffffffffffffffffffffffffffff1673ffffffffffffffffffffffffffffffffffffffff16815260200190815260200160002054905081811015612f4f576040517f08c379a0000000000000000000000000000000000000000000000000000000008152600401612f4690614272565b60405180910390fd5b818103603360008573ffffffffffffffffffffffffffffffffffffffff1673ffffffffffffffffffffffffffffffffffffffff168152602001908152602001600020819055508160356000828254612fa791906146c4565b92505081905550600073ffffffffffffffffffffffffffffffffffffffff168373ffffffffffffffffffffffffffffffffffffffff167fddf252ad1be2c89b69c2b068fc378daa952ba7f163c4a11628f55a4df523b3ef8460405161300c9190614552565b60405180910390a36130208360008461385c565b505050565b6000808473ffffffffffffffffffffffffffffffffffffffff1663a9059cbb858560405160240161305792919061417f565b6040516020818303038152906040529060e01b6020820180517bffffffffffffffffffffffffffffffffffffffffffffffffffffffff83818316178352505050506040516130a591906140d1565b6000604051808303816000865af19150503d80600081146130e2576040519150601f19603f3d011682016040523d82523d6000602084013e6130e7565b606091505b509150915081801561311557506000815114806131145750808060200190518101906131139190613b74565b5b5b613154576040517f08c379a000000000000000000000000000000000000000000000000000000000815260040161314b90614432565b60405180910390fd5b5050505050565b6000606560009054906101000a900473ffffffffffffffffffffffffffffffffffffffff16905081606560006101000a81548173ffffffffffffffffffffffffffffffffffffffff021916908373ffffffffffffffffffffffffffffffffffffffff1602179055508173ffffffffffffffffffffffffffffffffffffffff168173ffffffffffffffffffffffffffffffffffffffff167f8be0079c531659141344cd1fd0a4f28419497f9722a3daafe3b4186f6b6457e060405160405180910390a35050565b6000808573ffffffffffffffffffffffffffffffffffffffff166323b872dd86868660405160240161325593929190614103565b6040516020818303038152906040529060e01b6020820180517bffffffffffffffffffffffffffffffffffffffffffffffffffffffff83818316178352505050506040516132a391906140d1565b6000604051808303816000865af19150503d80600081146132e0576040519150601f19603f3d011682016040523d82523d6000602084013e6132e5565b606091505b509150915081801561331357506000815114806133125750808060200190518101906133119190613b74565b5b5b613352576040517f08c379a0000000000000000000000000000000000000000000000000000000008152600401613349906144f2565b60405180910390fd5b505050505050565b80609b60008473ffffffffffffffffffffffffffffffffffffffff1673ffffffffffffffffffffffffffffffffffffffff16815260200190815260200160002060008282546133a991906146c4565b9250508190555080609c60008282546133c291906146c4565b925050819055507f5c16de4f8b59bd9caf0f49a545f25819a895ed223294290b408242e72a59423182826040516133fa92919061417f565b60405180910390a15050565b6000609760009054906101000a900473ffffffffffffffffffffffffffffffffffffffff1673ffffffffffffffffffffffffffffffffffffffff16630ed2fc95846000609860009054906101000a900473ffffffffffffffffffffffffffffffffffffffff1687876040518663ffffffff1660e01b815260040161348d949392919061413a565b6020604051808303818588803b1580156134a657600080fd5b505af11580156134ba573d6000803e3d6000fd5b50505050506040513d601f19601f820116820180604052508101906134df9190613c9c565b905092915050565b600073ffffffffffffffffffffffffffffffffffffffff168273ffffffffffffffffffffffffffffffffffffffff161415613557576040517f08c379a000000000000000000000000000000000000000000000000000000000815260040161354e90614532565b60405180910390fd5b61356360008383613857565b806035600082825461357591906145e3565b9250508190555080603360008473ffffffffffffffffffffffffffffffffffffffff1673ffffffffffffffffffffffffffffffffffffffff16815260200190815260200160002060008282546135cb91906145e3565b925050819055508173ffffffffffffffffffffffffffffffffffffffff16600073ffffffffffffffffffffffffffffffffffffffff167fddf252ad1be2c89b69c2b068fc378daa952ba7f163c4a11628f55a4df523b3ef836040516136309190614552565b60405180910390a36136446000838361385c565b5050565b6000808273ffffffffffffffffffffffffffffffffffffffff163b119050919050565b600060019054906101000a900460ff166136ba576040517f08c379a00000000000000000000000000000000000000000000000000000000081526004016136b1906144d2565b60405180910390fd5b6136c48282613861565b5050565b600060019054906101000a900460ff16613717576040517f08c379a000000000000000000000000000000000000000000000000000000000815260040161370e906144d2565b60405180910390fd5b61371f6138e2565b565b6000808473ffffffffffffffffffffffffffffffffffffffff1663095ea7b3858560405160240161375392919061417f565b6040516020818303038152906040529060e01b6020820180517bffffffffffffffffffffffffffffffffffffffffffffffffffffffff83818316178352505050506040516137a191906140d1565b6000604051808303816000865af19150503d80600081146137de576040519150601f19603f3d011682016040523d82523d6000602084013e6137e3565b606091505b5091509150818015613811575060008151148061381057508080602001905181019061380f9190613b74565b5b5b613850576040517f08c379a0000000000000000000000000000000000000000000000000000000008152600401613847906142d2565b60405180910390fd5b5050505050565b505050565b505050565b600060019054906101000a900460ff166138b0576040517f08c379a00000000000000000000000000000000000000000000000000000000081526004016138a7906144d2565b60405180910390fd5b81603690805190602001906138c6929190613943565b5080603790805190602001906138dd929190613943565b505050565b600060019054906101000a900460ff16613931576040517f08c379a0000000000000000000000000000000000000000000000000000000008152600401613928906144d2565b60405180910390fd5b61394161393c61268d565b61315b565b565b82805461394f906147b6565b90600052602060002090601f01602090048101928261397157600085556139b8565b82601f1061398a57805160ff19168380011785556139b8565b828001600101855582156139b8579182015b828111156139b757825182559160200191906001019061399c565b5b5090506139c591906139c9565b5090565b5b808211156139e25760008160009055506001016139ca565b5090565b6000813590506139f581614ea3565b92915050565b600081519050613a0a81614eba565b92915050565b60008083601f840112613a2257600080fd5b8235905067ffffffffffffffff811115613a3b57600080fd5b602083019150836001820283011115613a5357600080fd5b9250929050565b600081359050613a6981614ed1565b92915050565b600081519050613a7e81614ed1565b92915050565b600060208284031215613a9657600080fd5b6000613aa4848285016139e6565b91505092915050565b60008060408385031215613ac057600080fd5b6000613ace858286016139e6565b9250506020613adf858286016139e6565b9150509250929050565b600080600060608486031215613afe57600080fd5b6000613b0c868287016139e6565b9350506020613b1d868287016139e6565b9250506040613b2e86828701613a5a565b9150509250925092565b60008060408385031215613b4b57600080fd5b6000613b59858286016139e6565b9250506020613b6a85828601613a5a565b9150509250929050565b600060208284031215613b8657600080fd5b6000613b94848285016139fb565b91505092915050565b600080600080600080600080600060e08a8c031215613bbb57600080fd5b60008a013567ffffffffffffffff811115613bd557600080fd5b613be18c828d01613a10565b995099505060208a013567ffffffffffffffff811115613c0057600080fd5b613c0c8c828d01613a10565b97509750506040613c1f8c828d016139e6565b9550506060613c308c828d016139e6565b9450506080613c418c828d016139e6565b93505060a0613c528c828d016139e6565b92505060c0613c638c828d01613a5a565b9150509295985092959850929598565b600060208284031215613c8557600080fd5b6000613c9384828501613a5a565b91505092915050565b600060208284031215613cae57600080fd5b6000613cbc84828501613a6f565b91505092915050565b613cce816146f8565b82525050565b613cdd8161470a565b82525050565b6000613cee826145b1565b613cf881856145c7565b9350613d08818560208601614783565b80840191505092915050565b613d1d8161474d565b82525050565b613d2c81614771565b82525050565b6000613d3d826145bc565b613d4781856145d2565b9350613d57818560208601614783565b613d60816148a6565b840191505092915050565b6000613d786023836145d2565b9150613d83826148b7565b604082019050919050565b6000613d9b6022836145d2565b9150613da682614906565b604082019050919050565b6000613dbe6026836145d2565b9150613dc982614955565b604082019050919050565b6000613de16022836145d2565b9150613dec826149a4565b604082019050919050565b6000613e04600c836145d2565b9150613e0f826149f3565b602082019050919050565b6000613e27601f836145d2565b9150613e3282614a1c565b602082019050919050565b6000613e4a602f836145d2565b9150613e5582614a45565b604082019050919050565b6000613e6d601d836145d2565b9150613e7882614a94565b602082019050919050565b6000613e906026836145d2565b9150613e9b82614abd565b604082019050919050565b6000613eb3601e836145d2565b9150613ebe82614b0c565b602082019050919050565b6000613ed66032836145d2565b9150613ee182614b35565b604082019050919050565b6000613ef96021836145d2565b9150613f0482614b84565b604082019050919050565b6000613f1c602e836145d2565b9150613f2782614bd3565b604082019050919050565b6000613f3f601d836145d2565b9150613f4a82614c22565b602082019050919050565b6000613f626012836145d2565b9150613f6d82614c4b565b602082019050919050565b6000613f85600d836145d2565b9150613f9082614c74565b602082019050919050565b6000613fa86020836145d2565b9150613fb382614c9d565b602082019050919050565b6000613fcb6021836145d2565b9150613fd682614cc6565b604082019050919050565b6000613fee6025836145d2565b9150613ff982614d15565b604082019050919050565b60006140116024836145d2565b915061401c82614d64565b604082019050919050565b6000614034602b836145d2565b915061403f82614db3565b604082019050919050565b60006140576011836145d2565b915061406282614e02565b602082019050919050565b600061407a6025836145d2565b915061408582614e2b565b604082019050919050565b600061409d601f836145d2565b91506140a882614e7a565b602082019050919050565b6140bc81614736565b82525050565b6140cb81614740565b82525050565b60006140dd8284613ce3565b915081905092915050565b60006020820190506140fd6000830184613cc5565b92915050565b60006060820190506141186000830186613cc5565b6141256020830185613cc5565b61413260408301846140b3565b949350505050565b600060808201905061414f6000830187613cc5565b61415c6020830186613cc5565b61416960408301856140b3565b61417660608301846140b3565b95945050505050565b60006040820190506141946000830185613cc5565b6141a160208301846140b3565b9392505050565b60006060820190506141bd6000830186613cc5565b6141ca60208301856140b3565b6141d760408301846140b3565b949350505050565b60006020820190506141f46000830184613cd4565b92915050565b600060208201905061420f6000830184613d14565b92915050565b600060208201905061422a6000830184613d23565b92915050565b6000602082019050818103600083015261424a8184613d32565b905092915050565b6000602082019050818103600083015261426b81613d6b565b9050919050565b6000602082019050818103600083015261428b81613d8e565b9050919050565b600060208201905081810360008301526142ab81613db1565b9050919050565b600060208201905081810360008301526142cb81613dd4565b9050919050565b600060208201905081810360008301526142eb81613df7565b9050919050565b6000602082019050818103600083015261430b81613e1a565b9050919050565b6000602082019050818103600083015261432b81613e3d565b9050919050565b6000602082019050818103600083015261434b81613e60565b9050919050565b6000602082019050818103600083015261436b81613e83565b9050919050565b6000602082019050818103600083015261438b81613ea6565b9050919050565b600060208201905081810360008301526143ab81613ec9565b9050919050565b600060208201905081810360008301526143cb81613eec565b9050919050565b600060208201905081810360008301526143eb81613f0f565b9050919050565b6000602082019050818103600083015261440b81613f32565b9050919050565b6000602082019050818103600083015261442b81613f55565b9050919050565b6000602082019050818103600083015261444b81613f78565b9050919050565b6000602082019050818103600083015261446b81613f9b565b9050919050565b6000602082019050818103600083015261448b81613fbe565b9050919050565b600060208201905081810360008301526144ab81613fe1565b9050919050565b600060208201905081810360008301526144cb81614004565b9050919050565b600060208201905081810360008301526144eb81614027565b9050919050565b6000602082019050818103600083015261450b8161404a565b9050919050565b6000602082019050818103600083015261452b8161406d565b9050919050565b6000602082019050818103600083015261454b81614090565b9050919050565b600060208201905061456760008301846140b3565b92915050565b600060408201905061458260008301856140b3565b61458f60208301846140b3565b9392505050565b60006020820190506145ab60008301846140c2565b92915050565b600081519050919050565b600081519050919050565b600081905092915050565b600082825260208201905092915050565b60006145ee82614736565b91506145f983614736565b9250827fffffffffffffffffffffffffffffffffffffffffffffffffffffffffffffffff0382111561462e5761462d614819565b5b828201905092915050565b600061464482614736565b915061464f83614736565b92508261465f5761465e614848565b5b828204905092915050565b600061467582614736565b915061468083614736565b9250817fffffffffffffffffffffffffffffffffffffffffffffffffffffffffffffffff04831182151516156146b9576146b8614819565b5b828202905092915050565b60006146cf82614736565b91506146da83614736565b9250828210156146ed576146ec614819565b5b828203905092915050565b600061470382614716565b9050919050565b60008115159050919050565b600073ffffffffffffffffffffffffffffffffffffffff82169050919050565b6000819050919050565b600060ff82169050919050565b60006147588261475f565b9050919050565b600061476a82614716565b9050919050565b600061477c82614740565b9050919050565b60005b838110156147a1578082015181840152602081019050614786565b838111156147b0576000848401525b50505050565b600060028204905060018216806147ce57607f821691505b602082108114156147e2576147e1614877565b5b50919050565b60006147f382614736565b91506147fe83614736565b92508261480e5761480d614848565b5b828206905092915050565b7f4e487b7100000000000000000000000000000000000000000000000000000000600052601160045260246000fd5b7f4e487b7100000000000000000000000000000000000000000000000000000000600052601260045260246000fd5b7f4e487b7100000000000000000000000000000000000000000000000000000000600052602260045260246000fd5b6000601f19601f8301169050919050565b7f45524332303a207472616e7366657220746f20746865207a65726f206164647260008201527f6573730000000000000000000000000000000000000000000000000000000000602082015250565b7f45524332303a206275726e20616d6f756e7420657863656564732062616c616e60008201527f6365000000000000000000000000000000000000000000000000000000000000602082015250565b7f4f776e61626c653a206e6577206f776e657220697320746865207a65726f206160008201527f6464726573730000000000000000000000000000000000000000000000000000602082015250565b7f45524332303a20617070726f766520746f20746865207a65726f20616464726560008201527f7373000000000000000000000000000000000000000000000000000000000000602082015250565b7f2173616665417070726f76650000000000000000000000000000000000000000600082015250565b7f5661756c743a20537461796b696e672061646472657373206973207a65726f00600082015250565b7f6d73672e76616c75652069732067726561746572207468616e20616363756d7560008201527f6c6174656420696e7465726573742e0000000000000000000000000000000000602082015250565b7f45524332303a20696e73756666696369656e7420616c6c6f77616e6365000000600082015250565b7f45524332303a207472616e7366657220616d6f756e742065786365656473206260008201527f616c616e63650000000000000000000000000000000000000000000000000000602082015250565b7f4c6f616e3a2043616e7427206c6f616e206465627420616e796d6f72652e0000600082015250565b7f726570617950656e64696e67446562743a20746f6f206d756368206d73672e7660008201527f616c756520746f20726570617920646562740000000000000000000000000000602082015250565b7f5661756c743a204261736520546f6b656e206973207a65726f2061646472657360008201527f7300000000000000000000000000000000000000000000000000000000000000602082015250565b7f496e697469616c697a61626c653a20636f6e747261637420697320616c72656160008201527f647920696e697469616c697a6564000000000000000000000000000000000000602082015250565b7f5661756c743a204e6f7420537461796b696e6720636f6e74726163742e000000600082015250565b7f21736166655472616e7366657245564d4f530000000000000000000000000000600082015250565b7f21736166655472616e7366657200000000000000000000000000000000000000600082015250565b7f4f776e61626c653a2063616c6c6572206973206e6f7420746865206f776e6572600082015250565b7f45524332303a206275726e2066726f6d20746865207a65726f2061646472657360008201527f7300000000000000000000000000000000000000000000000000000000000000602082015250565b7f45524332303a207472616e736665722066726f6d20746865207a65726f20616460008201527f6472657373000000000000000000000000000000000000000000000000000000602082015250565b7f45524332303a20617070726f76652066726f6d20746865207a65726f2061646460008201527f7265737300000000000000000000000000000000000000000000000000000000602082015250565b7f496e697469616c697a61626c653a20636f6e7472616374206973206e6f74206960008201527f6e697469616c697a696e67000000000000000000000000000000000000000000602082015250565b7f21736166655472616e7366657246726f6d000000000000000000000000000000600082015250565b7f45524332303a2064656372656173656420616c6c6f77616e63652062656c6f7760008201527f207a65726f000000000000000000000000000000000000000000000000000000602082015250565b7f45524332303a206d696e7420746f20746865207a65726f206164647265737300600082015250565b614eac816146f8565b8114614eb757600080fd5b50565b614ec38161470a565b8114614ece57600080fd5b50565b614eda81614736565b8114614ee557600080fd5b5056fea2646970667358221220ac83aaab06674f16c88c58314c394ca8b43f89c5c238a459b6f9d90f81c95c0d64736f6c63430008040033",
  "linkReferences": {},
  "deployedLinkReferences": {}
}