{
  "_format": "hh-sol-artifact-1",
  "contractName": "Vault",
  "sourceName": "contracts/token/Vault.sol",
  "abi": [
    {
      "anonymous": false,
      "inputs": [
        {
          "indexed": true,
          "internalType": "address",
          "name": "owner",
          "type": "address"
        },
        {
          "indexed": true,
          "internalType": "address",
          "name": "spender",
          "type": "address"
        },
        {
          "indexed": false,
          "internalType": "uint256",
          "name": "value",
          "type": "uint256"
        }
      ],
      "name": "Approval",
      "type": "event"
    },
    {
      "anonymous": false,
      "inputs": [
        {
          "indexed": false,
          "internalType": "address",
          "name": "user",
          "type": "address"
        },
        {
          "indexed": false,
          "internalType": "uint256",
          "name": "amount",
          "type": "uint256"
        },
        {
          "indexed": false,
          "internalType": "uint256",
          "name": "share",
          "type": "uint256"
        }
      ],
      "name": "Deposit",
      "type": "event"
    },
    {
      "anonymous": false,
      "inputs": [
        {
          "indexed": false,
          "internalType": "uint8",
          "name": "version",
          "type": "uint8"
        }
      ],
      "name": "Initialized",
      "type": "event"
    },
    {
      "anonymous": false,
      "inputs": [
        {
          "indexed": false,
          "internalType": "address",
          "name": "user",
          "type": "address"
        },
        {
          "indexed": false,
          "internalType": "uint256",
          "name": "debtAmount",
          "type": "uint256"
        }
      ],
      "name": "Loan",
      "type": "event"
    },
    {
      "anonymous": false,
      "inputs": [
        {
          "indexed": true,
          "internalType": "address",
          "name": "previousOwner",
          "type": "address"
        },
        {
          "indexed": true,
          "internalType": "address",
          "name": "newOwner",
          "type": "address"
        }
      ],
      "name": "OwnershipTransferred",
      "type": "event"
    },
    {
      "anonymous": false,
      "inputs": [
        {
          "indexed": false,
          "internalType": "uint256",
          "name": "paidInterest",
          "type": "uint256"
        },
        {
          "indexed": false,
          "internalType": "uint256",
          "name": "leftInterest",
          "type": "uint256"
        }
      ],
      "name": "PayInterest",
      "type": "event"
    },
    {
      "anonymous": false,
      "inputs": [
        {
          "indexed": false,
          "internalType": "address",
          "name": "user",
          "type": "address"
        },
        {
          "indexed": false,
          "internalType": "uint256",
          "name": "debtAmount",
          "type": "uint256"
        }
      ],
      "name": "Repay",
      "type": "event"
    },
    {
      "anonymous": false,
      "inputs": [
        {
          "indexed": true,
          "internalType": "address",
          "name": "from",
          "type": "address"
        },
        {
          "indexed": true,
          "internalType": "address",
          "name": "to",
          "type": "address"
        },
        {
          "indexed": false,
          "internalType": "uint256",
          "name": "value",
          "type": "uint256"
        }
      ],
      "name": "Transfer",
      "type": "event"
    },
    {
      "anonymous": false,
      "inputs": [
        {
          "indexed": false,
          "internalType": "address",
          "name": "from",
          "type": "address"
        },
        {
          "indexed": false,
          "internalType": "address",
          "name": "to",
          "type": "address"
        },
        {
          "indexed": false,
          "internalType": "uint256",
          "name": "amount",
          "type": "uint256"
        }
      ],
      "name": "TransferDebtOwnership",
      "type": "event"
    },
    {
      "anonymous": false,
      "inputs": [
        {
          "indexed": false,
          "internalType": "uint256",
          "name": "rateBps",
          "type": "uint256"
        }
      ],
      "name": "UtilizationRate",
      "type": "event"
    },
    {
      "anonymous": false,
      "inputs": [
        {
          "indexed": false,
          "internalType": "address",
          "name": "user",
          "type": "address"
        },
        {
          "indexed": false,
          "internalType": "uint256",
          "name": "amount",
          "type": "uint256"
        },
        {
          "indexed": false,
          "internalType": "uint256",
          "name": "share",
          "type": "uint256"
        }
      ],
      "name": "Withdraw",
      "type": "event"
    },
    {
      "inputs": [],
      "name": "BASE_TOKEN",
      "outputs": [
        {
          "internalType": "address",
          "name": "",
          "type": "address"
        }
      ],
      "stateMutability": "view",
      "type": "function"
    },
    {
      "inputs": [
        {
          "internalType": "string",
          "name": "_name",
          "type": "string"
        },
        {
          "internalType": "string",
          "name": "_symbol",
          "type": "string"
        },
        {
          "internalType": "address",
          "name": "_stayking",
          "type": "address"
        },
        {
          "internalType": "address",
          "name": "_token",
          "type": "address"
        },
        {
          "internalType": "address",
          "name": "_interestModel",
          "type": "address"
        },
        {
          "internalType": "uint256",
          "name": "_minReservedBps",
          "type": "uint256"
        }
      ],
      "name": "__Vault_init",
      "outputs": [],
      "stateMutability": "nonpayable",
      "type": "function"
    },
    {
      "inputs": [
        {
          "internalType": "address",
          "name": "owner",
          "type": "address"
        },
        {
          "internalType": "address",
          "name": "spender",
          "type": "address"
        }
      ],
      "name": "allowance",
      "outputs": [
        {
          "internalType": "uint256",
          "name": "",
          "type": "uint256"
        }
      ],
      "stateMutability": "view",
      "type": "function"
    },
    {
      "inputs": [
        {
          "internalType": "uint256",
          "name": "amount",
          "type": "uint256"
        }
      ],
      "name": "amountToShare",
      "outputs": [
        {
          "internalType": "uint256",
          "name": "",
          "type": "uint256"
        }
      ],
      "stateMutability": "view",
      "type": "function"
    },
    {
      "inputs": [
        {
          "internalType": "address",
          "name": "spender",
          "type": "address"
        },
        {
          "internalType": "uint256",
          "name": "amount",
          "type": "uint256"
        }
      ],
      "name": "approve",
      "outputs": [
        {
          "internalType": "bool",
          "name": "",
          "type": "bool"
        }
      ],
      "stateMutability": "nonpayable",
      "type": "function"
    },
    {
      "inputs": [
        {
          "internalType": "address",
          "name": "account",
          "type": "address"
        }
      ],
      "name": "balanceOf",
      "outputs": [
        {
          "internalType": "uint256",
          "name": "",
          "type": "uint256"
        }
      ],
      "stateMutability": "view",
      "type": "function"
    },
    {
      "inputs": [
        {
          "internalType": "address",
          "name": "user",
          "type": "address"
        }
      ],
      "name": "calcPendingDebtInBase",
      "outputs": [
        {
          "internalType": "uint256",
          "name": "",
          "type": "uint256"
        }
      ],
      "stateMutability": "view",
      "type": "function"
    },
    {
      "inputs": [
        {
          "internalType": "address",
          "name": "",
          "type": "address"
        }
      ],
      "name": "debtAmountOf",
      "outputs": [
        {
          "internalType": "uint256",
          "name": "",
          "type": "uint256"
        }
      ],
      "stateMutability": "view",
      "type": "function"
    },
    {
      "inputs": [],
      "name": "decimals",
      "outputs": [
        {
          "internalType": "uint8",
          "name": "",
          "type": "uint8"
        }
      ],
      "stateMutability": "view",
      "type": "function"
    },
    {
      "inputs": [
        {
          "internalType": "address",
          "name": "spender",
          "type": "address"
        },
        {
          "internalType": "uint256",
          "name": "subtractedValue",
          "type": "uint256"
        }
      ],
      "name": "decreaseAllowance",
      "outputs": [
        {
          "internalType": "bool",
          "name": "",
          "type": "bool"
        }
      ],
      "stateMutability": "nonpayable",
      "type": "function"
    },
    {
      "inputs": [
        {
          "internalType": "uint256",
          "name": "amount",
          "type": "uint256"
        }
      ],
      "name": "deposit",
      "outputs": [
        {
          "internalType": "uint256",
          "name": "share",
          "type": "uint256"
        }
      ],
      "stateMutability": "nonpayable",
      "type": "function"
    },
    {
      "inputs": [],
      "name": "getInterestRate",
      "outputs": [
        {
          "internalType": "uint256",
          "name": "interestRate",
          "type": "uint256"
        }
      ],
      "stateMutability": "view",
      "type": "function"
    },
    {
      "inputs": [
        {
          "internalType": "address",
          "name": "spender",
          "type": "address"
        },
        {
          "internalType": "uint256",
          "name": "addedValue",
          "type": "uint256"
        }
      ],
      "name": "increaseAllowance",
      "outputs": [
        {
          "internalType": "bool",
          "name": "",
          "type": "bool"
        }
      ],
      "stateMutability": "nonpayable",
      "type": "function"
    },
    {
      "inputs": [],
      "name": "interestModel",
      "outputs": [
        {
          "internalType": "address",
          "name": "",
          "type": "address"
        }
      ],
      "stateMutability": "view",
      "type": "function"
    },
    {
      "inputs": [
        {
          "internalType": "address",
          "name": "user",
          "type": "address"
        },
        {
          "internalType": "uint256",
          "name": "amount",
          "type": "uint256"
        }
      ],
      "name": "loan",
      "outputs": [],
      "stateMutability": "nonpayable",
      "type": "function"
    },
    {
      "inputs": [],
      "name": "name",
      "outputs": [
        {
          "internalType": "string",
          "name": "",
          "type": "string"
        }
      ],
      "stateMutability": "view",
      "type": "function"
    },
    {
      "inputs": [],
      "name": "owner",
      "outputs": [
        {
          "internalType": "address",
          "name": "",
          "type": "address"
        }
      ],
      "stateMutability": "view",
      "type": "function"
    },
    {
      "inputs": [],
      "name": "payInterest",
      "outputs": [],
      "stateMutability": "payable",
      "type": "function"
    },
    {
      "inputs": [
        {
          "internalType": "address",
          "name": "user",
          "type": "address"
        },
        {
          "internalType": "uint256",
          "name": "instantRepayment",
          "type": "uint256"
        }
      ],
      "name": "pendRepay",
      "outputs": [],
      "stateMutability": "nonpayable",
      "type": "function"
    },
    {
      "inputs": [
        {
          "internalType": "uint256",
          "name": "amount",
          "type": "uint256"
        }
      ],
      "name": "pendingDebtAmountToShare",
      "outputs": [
        {
          "internalType": "uint256",
          "name": "",
          "type": "uint256"
        }
      ],
      "stateMutability": "view",
      "type": "function"
    },
    {
      "inputs": [
        {
          "internalType": "address",
          "name": "",
          "type": "address"
        }
      ],
      "name": "pendingDebtShareOf",
      "outputs": [
        {
          "internalType": "uint256",
          "name": "",
          "type": "uint256"
        }
      ],
      "stateMutability": "view",
      "type": "function"
    },
    {
      "inputs": [
        {
          "internalType": "uint256",
          "name": "share",
          "type": "uint256"
        }
      ],
      "name": "pendingDebtShareToAmount",
      "outputs": [
        {
          "internalType": "uint256",
          "name": "",
          "type": "uint256"
        }
      ],
      "stateMutability": "view",
      "type": "function"
    },
    {
      "inputs": [],
      "name": "renounceOwnership",
      "outputs": [],
      "stateMutability": "nonpayable",
      "type": "function"
    },
    {
      "inputs": [
        {
          "internalType": "address",
          "name": "user",
          "type": "address"
        },
        {
          "internalType": "uint256",
          "name": "amount",
          "type": "uint256"
        }
      ],
      "name": "repay",
      "outputs": [],
      "stateMutability": "nonpayable",
      "type": "function"
    },
    {
      "inputs": [
        {
          "internalType": "address",
          "name": "user",
          "type": "address"
        },
        {
          "internalType": "uint256",
          "name": "minRepaidDebt",
          "type": "uint256"
        }
      ],
      "name": "repayPendingDebt",
      "outputs": [],
      "stateMutability": "payable",
      "type": "function"
    },
    {
      "inputs": [],
      "name": "saveUtilizationRateBps",
      "outputs": [],
      "stateMutability": "nonpayable",
      "type": "function"
    },
    {
      "inputs": [
        {
          "internalType": "uint256",
          "name": "share",
          "type": "uint256"
        }
      ],
      "name": "shareToAmount",
      "outputs": [
        {
          "internalType": "uint256",
          "name": "",
          "type": "uint256"
        }
      ],
      "stateMutability": "view",
      "type": "function"
    },
    {
      "inputs": [],
      "name": "stayking",
      "outputs": [
        {
          "internalType": "address",
          "name": "",
          "type": "address"
        }
      ],
      "stateMutability": "view",
      "type": "function"
    },
    {
      "inputs": [],
      "name": "swapHelper",
      "outputs": [
        {
          "internalType": "contract ISwapHelper",
          "name": "",
          "type": "address"
        }
      ],
      "stateMutability": "view",
      "type": "function"
    },
    {
      "inputs": [],
      "name": "symbol",
      "outputs": [
        {
          "internalType": "string",
          "name": "",
          "type": "string"
        }
      ],
      "stateMutability": "view",
      "type": "function"
    },
    {
      "inputs": [
        {
          "internalType": "address",
          "name": "from",
          "type": "address"
        },
        {
          "internalType": "uint256",
          "name": "amount",
          "type": "uint256"
        }
      ],
      "name": "takeDebtOwnership",
      "outputs": [],
      "stateMutability": "nonpayable",
      "type": "function"
    },
    {
      "inputs": [],
      "name": "token",
      "outputs": [
        {
          "internalType": "address",
          "name": "",
          "type": "address"
        }
      ],
      "stateMutability": "view",
      "type": "function"
    },
    {
      "inputs": [],
      "name": "totalAmount",
      "outputs": [
        {
          "internalType": "uint256",
          "name": "",
          "type": "uint256"
        }
      ],
      "stateMutability": "view",
      "type": "function"
    },
    {
      "inputs": [],
      "name": "totalDebtAmount",
      "outputs": [
        {
          "internalType": "uint256",
          "name": "",
          "type": "uint256"
        }
      ],
      "stateMutability": "view",
      "type": "function"
    },
    {
      "inputs": [],
      "name": "totalSupply",
      "outputs": [
        {
          "internalType": "uint256",
          "name": "",
          "type": "uint256"
        }
      ],
      "stateMutability": "view",
      "type": "function"
    },
    {
      "inputs": [
        {
          "internalType": "address",
          "name": "to",
          "type": "address"
        },
        {
          "internalType": "uint256",
          "name": "amount",
          "type": "uint256"
        }
      ],
      "name": "transfer",
      "outputs": [
        {
          "internalType": "bool",
          "name": "",
          "type": "bool"
        }
      ],
      "stateMutability": "nonpayable",
      "type": "function"
    },
    {
      "inputs": [
        {
          "internalType": "address",
          "name": "from",
          "type": "address"
        },
        {
          "internalType": "address",
          "name": "to",
          "type": "address"
        },
        {
          "internalType": "uint256",
          "name": "amount",
          "type": "uint256"
        }
      ],
      "name": "transferFrom",
      "outputs": [
        {
          "internalType": "bool",
          "name": "",
          "type": "bool"
        }
      ],
      "stateMutability": "nonpayable",
      "type": "function"
    },
    {
      "inputs": [
        {
          "internalType": "address",
          "name": "newOwner",
          "type": "address"
        }
      ],
      "name": "transferOwnership",
      "outputs": [],
      "stateMutability": "nonpayable",
      "type": "function"
    },
    {
      "inputs": [
        {
          "internalType": "uint256",
          "name": "newMinReservedBps",
          "type": "uint256"
        }
      ],
      "name": "updateMinReservedBps",
      "outputs": [],
      "stateMutability": "nonpayable",
      "type": "function"
    },
    {
      "inputs": [
        {
          "internalType": "address",
          "name": "newStaykingAddress",
          "type": "address"
        }
      ],
      "name": "updateStayking",
      "outputs": [],
      "stateMutability": "nonpayable",
      "type": "function"
    },
    {
      "inputs": [],
      "name": "utilizationRateBps",
      "outputs": [
        {
          "internalType": "uint256",
          "name": "",
          "type": "uint256"
        }
      ],
      "stateMutability": "view",
      "type": "function"
    },
    {
      "inputs": [
        {
          "internalType": "uint256",
          "name": "share",
          "type": "uint256"
        }
      ],
      "name": "withdraw",
      "outputs": [
        {
          "internalType": "uint256",
          "name": "amount",
          "type": "uint256"
        }
      ],
      "stateMutability": "nonpayable",
      "type": "function"
    }
  ],
  "bytecode": "0x608060405234801561001057600080fd5b5061449b806100206000396000f3fe6080604052600436106102515760003560e01c806370a0823111610139578063a9059cbb116100b6578063c48097981161007a578063c4809798146108f8578063c8dffa9514610935578063dd62ed3e14610960578063eab329811461099d578063f2fde38b146109c8578063fc0c546a146109f157610251565b8063a9059cbb14610813578063ac165d7a14610850578063b16828b71461087b578063b6b55f2514610892578063b9529e9f146108cf57610251565b80638a81d6b0116100fd5780638a81d6b01461075a5780638da5cb5b1461077657806395d89b41146107a1578063a15a211c146107cc578063a457c2d7146107d657610251565b806370a0823114610677578063714934cd146106b4578063715018a6146106dd57806378d7e54a146106f45780638122af771461071d57610251565b806322867d78116101d2578063313ce56711610196578063313ce56714610541578063395093511461056c5780633b825f51146105a9578063494e42f4146105e65780635257b5661461060f5780636592183b1461063a57610251565b806322867d781461042457806323b872dd1461044d5780632d4047e51461048a5780632d6f8013146104c75780632e1a7d4d1461050457610251565b8063185cc75111610219578063185cc7511461033f5780631a39d8ef146103685780631a4e1aef146103935780631ce9ba36146103bc578063210663e4146103f957610251565b806303d98c1f1461025657806306fdde0314610281578063095ea7b3146102ac5780630fc6a11c146102e957806318160ddd14610314575b600080fd5b34801561026257600080fd5b5061026b610a1c565b6040516102789190613b70565b60405180910390f35b34801561028d57600080fd5b50610296610a45565b6040516102a391906138ae565b60405180910390f35b3480156102b857600080fd5b506102d360048036038101906102ce9190613208565b610ad7565b6040516102e09190613878565b60405180910390f35b3480156102f557600080fd5b506102fe610afa565b60405161030b9190613893565b60405180910390f35b34801561032057600080fd5b50610329610b20565b6040516103369190613b70565b60405180910390f35b34801561034b57600080fd5b5061036660048036038101906103619190613208565b610b2a565b005b34801561037457600080fd5b5061037d610cf9565b60405161038a9190613b70565b60405180910390f35b34801561039f57600080fd5b506103ba60048036038101906103b59190613208565b610db8565b005b3480156103c857600080fd5b506103e360048036038101906103de9190613330565b610f29565b6040516103f09190613b70565b60405180910390f35b34801561040557600080fd5b5061040e610f5d565b60405161041b919061373c565b60405180910390f35b34801561043057600080fd5b5061044b60048036038101906104469190613208565b610f62565b005b34801561045957600080fd5b50610474600480360381019061046f91906131b9565b6110cc565b6040516104819190613878565b60405180910390f35b34801561049657600080fd5b506104b160048036038101906104ac9190613330565b6110fb565b6040516104be9190613b70565b60405180910390f35b3480156104d357600080fd5b506104ee60048036038101906104e99190613330565b61113d565b6040516104fb9190613b70565b60405180910390f35b34801561051057600080fd5b5061052b60048036038101906105269190613330565b61117f565b6040516105389190613b70565b60405180910390f35b34801561054d57600080fd5b50610556611203565b6040516105639190613bb4565b60405180910390f35b34801561057857600080fd5b50610593600480360381019061058e9190613208565b61120c565b6040516105a09190613878565b60405180910390f35b3480156105b557600080fd5b506105d060048036038101906105cb9190613154565b611243565b6040516105dd9190613b70565b60405180910390f35b3480156105f257600080fd5b5061060d60048036038101906106089190613330565b611365565b005b34801561061b57600080fd5b50610624611377565b6040516106319190613b70565b60405180910390f35b34801561064657600080fd5b50610661600480360381019061065c9190613154565b6114d7565b60405161066e9190613b70565b60405180910390f35b34801561068357600080fd5b5061069e60048036038101906106999190613154565b6114ef565b6040516106ab9190613b70565b60405180910390f35b3480156106c057600080fd5b506106db60048036038101906106d6919061326d565b611538565b005b3480156106e957600080fd5b506106f2611804565b005b34801561070057600080fd5b5061071b60048036038101906107169190613154565b611818565b005b34801561072957600080fd5b50610744600480360381019061073f9190613154565b611864565b6040516107519190613b70565b60405180910390f35b610774600480360381019061076f9190613208565b61187c565b005b34801561078257600080fd5b5061078b611ad9565b604051610798919061373c565b60405180910390f35b3480156107ad57600080fd5b506107b6611b03565b6040516107c391906138ae565b60405180910390f35b6107d4611b95565b005b3480156107e257600080fd5b506107fd60048036038101906107f89190613208565b611d93565b60405161080a9190613878565b60405180910390f35b34801561081f57600080fd5b5061083a60048036038101906108359190613208565b611e0a565b6040516108479190613878565b60405180910390f35b34801561085c57600080fd5b50610865611e2d565b604051610872919061373c565b60405180910390f35b34801561088757600080fd5b50610890611e53565b005b34801561089e57600080fd5b506108b960048036038101906108b49190613330565b611f10565b6040516108c69190613b70565b60405180910390f35b3480156108db57600080fd5b506108f660048036038101906108f19190613208565b611f95565b005b34801561090457600080fd5b5061091f600480360381019061091a9190613330565b612110565b60405161092c9190613b70565b60405180910390f35b34801561094157600080fd5b5061094a612144565b6040516109579190613b70565b60405180910390f35b34801561096c57600080fd5b506109876004803603810190610982919061317d565b61214a565b6040516109949190613b70565b60405180910390f35b3480156109a957600080fd5b506109b26121d1565b6040516109bf919061373c565b60405180910390f35b3480156109d457600080fd5b506109ef60048036038101906109ea9190613154565b6121f7565b005b3480156109fd57600080fd5b50610a0661227b565b604051610a13919061373c565b60405180910390f35b6000610a26610cf9565b609c54612710610a369190613c88565b610a409190613c57565b905090565b606060368054610a5490613dd4565b80601f0160208091040260200160405190810160405280929190818152602001828054610a8090613dd4565b8015610acd5780601f10610aa257610100808354040283529160200191610acd565b820191906000526020600020905b815481529060010190602001808311610ab057829003601f168201915b5050505050905090565b600080610ae26122a1565b9050610aef8185856122a9565b600191505092915050565b609760009054906101000a900473ffffffffffffffffffffffffffffffffffffffff1681565b6000603554905090565b609960009054906101000a900473ffffffffffffffffffffffffffffffffffffffff1673ffffffffffffffffffffffffffffffffffffffff163373ffffffffffffffffffffffffffffffffffffffff1614610bba576040517f08c379a0000000000000000000000000000000000000000000000000000000008152600401610bb190613a30565b60405180910390fd5b80609b60008473ffffffffffffffffffffffffffffffffffffffff1673ffffffffffffffffffffffffffffffffffffffff1681526020019081526020016000206000828254610c099190613c01565b9250508190555080609c6000828254610c229190613c01565b9250508190555060a054610c34610cf9565b610c3e9190613c88565b612710609c54610c4e9190613c88565b1115610c8f576040517f08c379a0000000000000000000000000000000000000000000000000000000008152600401610c86906139d0565b60405180910390fd5b610cbc609860009054906101000a900473ffffffffffffffffffffffffffffffffffffffff163383612474565b7f1db23cf53464267c45324569941e81e23d29c48ff9be2b35af2cc0a2681159d68282604051610ced929190613818565b60405180910390a15050565b6000609c54609860009054906101000a900473ffffffffffffffffffffffffffffffffffffffff1673ffffffffffffffffffffffffffffffffffffffff166370a08231306040518263ffffffff1660e01b8152600401610d59919061373c565b60206040518083038186803b158015610d7157600080fd5b505afa158015610d85573d6000803e3d6000fd5b505050506040513d601f19601f82011682018060405250810190610da99190613359565b610db39190613c01565b905090565b609960009054906101000a900473ffffffffffffffffffffffffffffffffffffffff1673ffffffffffffffffffffffffffffffffffffffff163373ffffffffffffffffffffffffffffffffffffffff1614610e48576040517f08c379a0000000000000000000000000000000000000000000000000000000008152600401610e3f90613a30565b60405180910390fd5b6000811115610e5c57610e5b8282610f62565b5b6000609b60008473ffffffffffffffffffffffffffffffffffffffff1673ffffffffffffffffffffffffffffffffffffffff1681526020019081526020016000205490506000610eab82612110565b905080609d60008673ffffffffffffffffffffffffffffffffffffffff1673ffffffffffffffffffffffffffffffffffffffff1681526020019081526020016000208190555080609e6000828254610f039190613c01565b9250508190555081609f6000828254610f1c9190613c01565b9250508190555050505050565b600080609e5414610f5457609e5482609f54610f459190613c88565b610f4f9190613c57565b610f56565b815b9050919050565b600081565b609960009054906101000a900473ffffffffffffffffffffffffffffffffffffffff1673ffffffffffffffffffffffffffffffffffffffff163373ffffffffffffffffffffffffffffffffffffffff1614610ff2576040517f08c379a0000000000000000000000000000000000000000000000000000000008152600401610fe990613a30565b60405180910390fd5b80609b60008473ffffffffffffffffffffffffffffffffffffffff1673ffffffffffffffffffffffffffffffffffffffff16815260200190815260200160002060008282546110419190613ce2565b9250508190555080609c600082825461105a9190613ce2565b9250508190555061108f609860009054906101000a900473ffffffffffffffffffffffffffffffffffffffff168330846125aa565b7f5c16de4f8b59bd9caf0f49a545f25819a895ed223294290b408242e72a59423182826040516110c0929190613818565b60405180910390a15050565b6000806110d76122a1565b90506110e48582856126e3565b6110ef85858561276f565b60019150509392505050565b600080611106610cf9565b90506000811461113357808361111a610b20565b6111249190613c88565b61112e9190613c57565b611135565b825b915050919050565b600080611148610b20565b90506000811461117557808361115c610cf9565b6111669190613c88565b6111709190613c57565b611177565b825b915050919050565b600061118a8261113d565b905061119633836129f3565b6111c3609860009054906101000a900473ffffffffffffffffffffffffffffffffffffffff163383612474565b7ff279e6a1f5e320cca91135676d9cb6e44ca8a08c0b88342bcdb1144f6511b5683382846040516111f693929190613841565b60405180910390a1919050565b60006012905090565b6000806112176122a1565b9050611238818585611229858961214a565b6112339190613c01565b6122a9565b600191505092915050565b6000609760009054906101000a900473ffffffffffffffffffffffffffffffffffffffff1673ffffffffffffffffffffffffffffffffffffffff16637dceefee6000609860009054906101000a900473ffffffffffffffffffffffffffffffffffffffff166112f0609d60008873ffffffffffffffffffffffffffffffffffffffff1673ffffffffffffffffffffffffffffffffffffffff16815260200190815260200160002054610f29565b6040518463ffffffff1660e01b815260040161130e93929190613757565b60206040518083038186803b15801561132657600080fd5b505afa15801561133a573d6000803e3d6000fd5b505050506040513d601f19601f8201168201806040525081019061135e9190613359565b9050919050565b61136d612bcc565b8060a08190555050565b6000609a60009054906101000a900473ffffffffffffffffffffffffffffffffffffffff1673ffffffffffffffffffffffffffffffffffffffff1663d4a99bbb609c54609860009054906101000a900473ffffffffffffffffffffffffffffffffffffffff1673ffffffffffffffffffffffffffffffffffffffff166370a08231306040518263ffffffff1660e01b8152600401611415919061373c565b60206040518083038186803b15801561142d57600080fd5b505afa158015611441573d6000803e3d6000fd5b505050506040513d601f19601f820116820180604052508101906114659190613359565b6040518363ffffffff1660e01b8152600401611482929190613b8b565b60206040518083038186803b15801561149a57600080fd5b505afa1580156114ae573d6000803e3d6000fd5b505050506040513d601f19601f820116820180604052508101906114d29190613359565b905090565b609b6020528060005260406000206000915090505481565b6000603360008373ffffffffffffffffffffffffffffffffffffffff1673ffffffffffffffffffffffffffffffffffffffff168152602001908152602001600020549050919050565b600060019054906101000a900460ff16611587576040517f08c379a000000000000000000000000000000000000000000000000000000000815260040161157e90613af0565b60405180910390fd5b600073ffffffffffffffffffffffffffffffffffffffff168473ffffffffffffffffffffffffffffffffffffffff1614156115f7576040517f08c379a00000000000000000000000000000000000000000000000000000000081526004016115ee90613950565b60405180910390fd5b600073ffffffffffffffffffffffffffffffffffffffff168373ffffffffffffffffffffffffffffffffffffffff161415611667576040517f08c379a000000000000000000000000000000000000000000000000000000000815260040161165e90613a10565b60405180910390fd5b6116f988888080601f016020809104026020016040519081016040528093929190818152602001838380828437600081840152601f19601f8201169050808301925050505050505087878080601f016020809104026020016040519081016040528093929190818152602001838380828437600081840152601f19601f82011690508083019250505050505050612c4a565b611701612ca7565b83609960006101000a81548173ffffffffffffffffffffffffffffffffffffffff021916908373ffffffffffffffffffffffffffffffffffffffff16021790555082609860006101000a81548173ffffffffffffffffffffffffffffffffffffffff021916908373ffffffffffffffffffffffffffffffffffffffff16021790555081609a60006101000a81548173ffffffffffffffffffffffffffffffffffffffff021916908373ffffffffffffffffffffffffffffffffffffffff1602179055508060a081905550620151806361b2a690426117df9190613ce2565b6117e99190613e06565b426117f49190613ce2565b60a3819055505050505050505050565b61180c612bcc565b6118166000612d00565b565b611820612bcc565b80609960006101000a81548173ffffffffffffffffffffffffffffffffffffffff021916908373ffffffffffffffffffffffffffffffffffffffff16021790555050565b609d6020528060005260406000206000915090505481565b609960009054906101000a900473ffffffffffffffffffffffffffffffffffffffff1673ffffffffffffffffffffffffffffffffffffffff163373ffffffffffffffffffffffffffffffffffffffff161461190c576040517f08c379a000000000000000000000000000000000000000000000000000000000815260040161190390613a30565b60405180910390fd5b6000609760009054906101000a900473ffffffffffffffffffffffffffffffffffffffff1673ffffffffffffffffffffffffffffffffffffffff16630ed2fc956000609860009054906101000a900473ffffffffffffffffffffffffffffffffffffffff1634866040518563ffffffff1660e01b815260040161199294939291906137d3565b602060405180830381600087803b1580156119ac57600080fd5b505af11580156119c0573d6000803e3d6000fd5b505050506040513d601f19601f820116820180604052508101906119e49190613359565b9050611a2e609d60008573ffffffffffffffffffffffffffffffffffffffff1673ffffffffffffffffffffffffffffffffffffffff16815260200190815260200160002054610f29565b811115611a70576040517f08c379a0000000000000000000000000000000000000000000000000000000008152600401611a67906139f0565b60405180910390fd5b6000611a7b82612110565b905080609d60008673ffffffffffffffffffffffffffffffffffffffff1673ffffffffffffffffffffffffffffffffffffffff1681526020019081526020016000206000828254611acc9190613ce2565b9250508190555050505050565b6000606560009054906101000a900473ffffffffffffffffffffffffffffffffffffffff16905090565b606060378054611b1290613dd4565b80601f0160208091040260200160405190810160405280929190818152602001828054611b3e90613dd4565b8015611b8b5780601f10611b6057610100808354040283529160200191611b8b565b820191906000526020600020905b815481529060010190602001808311611b6e57829003601f168201915b5050505050905090565b609960009054906101000a900473ffffffffffffffffffffffffffffffffffffffff1673ffffffffffffffffffffffffffffffffffffffff163373ffffffffffffffffffffffffffffffffffffffff1614611c25576040517f08c379a0000000000000000000000000000000000000000000000000000000008152600401611c1c90613a30565b60405180910390fd5b6000609760009054906101000a900473ffffffffffffffffffffffffffffffffffffffff1673ffffffffffffffffffffffffffffffffffffffff16630ed2fc956000609860009054906101000a900473ffffffffffffffffffffffffffffffffffffffff163460016040518563ffffffff1660e01b8152600401611cac949392919061378e565b602060405180830381600087803b158015611cc657600080fd5b505af1158015611cda573d6000803e3d6000fd5b505050506040513d601f19601f82011682018060405250810190611cfe9190613359565b90508060a2541015611d45576040517f08c379a0000000000000000000000000000000000000000000000000000000008152600401611d3c90613970565b60405180910390fd5b8060a2600082825403925050819055507f57546d41506d4d7643c2ea350647fa3d6ada23d1de3afa7a32496df9b7686bc08160a254604051611d88929190613b8b565b60405180910390a150565b600080611d9e6122a1565b90506000611dac828661214a565b905083811015611df1576040517f08c379a0000000000000000000000000000000000000000000000000000000008152600401611de890613b30565b60405180910390fd5b611dfe82868684036122a9565b60019250505092915050565b600080611e156122a1565b9050611e2281858561276f565b600191505092915050565b609a60009054906101000a900473ffffffffffffffffffffffffffffffffffffffff1681565b6201518060a354611e649190613c01565b4210611f0e57611e72610a1c565b60a1819055506201518060a36000828254611e8d9190613c01565b92505081905550670de0b6b3a7640000611ea5611377565b609c54611eb29190613c88565b611ebc9190613c57565b60a26000828254611ecd9190613c01565b925050819055507f163eacd81cbfca2d1ec176759e7107e34229c5cbc5ec0b3fde68ffdef1157e0260a154604051611f059190613b70565b60405180910390a15b565b6000611f1b826110fb565b9050611f4b609860009054906101000a900473ffffffffffffffffffffffffffffffffffffffff163330856125aa565b611f553382612dc6565b7f90890809c654f11d6e72a28fa60149770a0d11ec6c92319d6ceb2bb0a4ea1a15338383604051611f8893929190613841565b60405180910390a1919050565b609960009054906101000a900473ffffffffffffffffffffffffffffffffffffffff1673ffffffffffffffffffffffffffffffffffffffff163373ffffffffffffffffffffffffffffffffffffffff1614612025576040517f08c379a000000000000000000000000000000000000000000000000000000000815260040161201c90613a30565b60405180910390fd5b80609b60008473ffffffffffffffffffffffffffffffffffffffff1673ffffffffffffffffffffffffffffffffffffffff16815260200190815260200160002060008282546120749190613ce2565b9250508190555080609b60003373ffffffffffffffffffffffffffffffffffffffff1673ffffffffffffffffffffffffffffffffffffffff16815260200190815260200160002060008282546120ca9190613c01565b925050819055507f80caff6c1c70cc823c773c968ebdab44b7dc12da8117b4634b5f3eb78b07011e82338360405161210493929190613757565b60405180910390a15050565b600080609f541461213b57609f5482609e5461212c9190613c88565b6121369190613c57565b61213d565b815b9050919050565b609c5481565b6000603460008473ffffffffffffffffffffffffffffffffffffffff1673ffffffffffffffffffffffffffffffffffffffff16815260200190815260200160002060008373ffffffffffffffffffffffffffffffffffffffff1673ffffffffffffffffffffffffffffffffffffffff16815260200190815260200160002054905092915050565b609960009054906101000a900473ffffffffffffffffffffffffffffffffffffffff1681565b6121ff612bcc565b600073ffffffffffffffffffffffffffffffffffffffff168173ffffffffffffffffffffffffffffffffffffffff16141561226f576040517f08c379a000000000000000000000000000000000000000000000000000000000815260040161226690613910565b60405180910390fd5b61227881612d00565b50565b609860009054906101000a900473ffffffffffffffffffffffffffffffffffffffff1681565b600033905090565b600073ffffffffffffffffffffffffffffffffffffffff168373ffffffffffffffffffffffffffffffffffffffff161415612319576040517f08c379a000000000000000000000000000000000000000000000000000000000815260040161231090613ad0565b60405180910390fd5b600073ffffffffffffffffffffffffffffffffffffffff168273ffffffffffffffffffffffffffffffffffffffff161415612389576040517f08c379a000000000000000000000000000000000000000000000000000000000815260040161238090613930565b60405180910390fd5b80603460008573ffffffffffffffffffffffffffffffffffffffff1673ffffffffffffffffffffffffffffffffffffffff16815260200190815260200160002060008473ffffffffffffffffffffffffffffffffffffffff1673ffffffffffffffffffffffffffffffffffffffff168152602001908152602001600020819055508173ffffffffffffffffffffffffffffffffffffffff168373ffffffffffffffffffffffffffffffffffffffff167f8c5be1e5ebec7d5bd14f71427d1e84f3dd0314c0f7b2291e5b200ac8c7c3b925836040516124679190613b70565b60405180910390a3505050565b6000808473ffffffffffffffffffffffffffffffffffffffff1663a9059cbb85856040516024016124a6929190613818565b6040516020818303038152906040529060e01b6020820180517bffffffffffffffffffffffffffffffffffffffffffffffffffffffff83818316178352505050506040516124f49190613725565b6000604051808303816000865af19150503d8060008114612531576040519150601f19603f3d011682016040523d82523d6000602084013e612536565b606091505b509150915081801561256457506000815114806125635750808060200190518101906125629190613244565b5b5b6125a3576040517f08c379a000000000000000000000000000000000000000000000000000000000815260040161259a90613a50565b60405180910390fd5b5050505050565b6000808573ffffffffffffffffffffffffffffffffffffffff166323b872dd8686866040516024016125de93929190613757565b6040516020818303038152906040529060e01b6020820180517bffffffffffffffffffffffffffffffffffffffffffffffffffffffff838183161783525050505060405161262c9190613725565b6000604051808303816000865af19150503d8060008114612669576040519150601f19603f3d011682016040523d82523d6000602084013e61266e565b606091505b509150915081801561269c575060008151148061269b57508080602001905181019061269a9190613244565b5b5b6126db576040517f08c379a00000000000000000000000000000000000000000000000000000000081526004016126d290613b10565b60405180910390fd5b505050505050565b60006126ef848461214a565b90507fffffffffffffffffffffffffffffffffffffffffffffffffffffffffffffffff8114612769578181101561275b576040517f08c379a000000000000000000000000000000000000000000000000000000000815260040161275290613990565b60405180910390fd5b61276884848484036122a9565b5b50505050565b600073ffffffffffffffffffffffffffffffffffffffff168373ffffffffffffffffffffffffffffffffffffffff1614156127df576040517f08c379a00000000000000000000000000000000000000000000000000000000081526004016127d690613ab0565b60405180910390fd5b600073ffffffffffffffffffffffffffffffffffffffff168273ffffffffffffffffffffffffffffffffffffffff16141561284f576040517f08c379a0000000000000000000000000000000000000000000000000000000008152600401612846906138d0565b60405180910390fd5b61285a838383612f27565b6000603360008573ffffffffffffffffffffffffffffffffffffffff1673ffffffffffffffffffffffffffffffffffffffff168152602001908152602001600020549050818110156128e1576040517f08c379a00000000000000000000000000000000000000000000000000000000081526004016128d8906139b0565b60405180910390fd5b818103603360008673ffffffffffffffffffffffffffffffffffffffff1673ffffffffffffffffffffffffffffffffffffffff1681526020019081526020016000208190555081603360008573ffffffffffffffffffffffffffffffffffffffff1673ffffffffffffffffffffffffffffffffffffffff16815260200190815260200160002060008282546129769190613c01565b925050819055508273ffffffffffffffffffffffffffffffffffffffff168473ffffffffffffffffffffffffffffffffffffffff167fddf252ad1be2c89b69c2b068fc378daa952ba7f163c4a11628f55a4df523b3ef846040516129da9190613b70565b60405180910390a36129ed848484612f2c565b50505050565b600073ffffffffffffffffffffffffffffffffffffffff168273ffffffffffffffffffffffffffffffffffffffff161415612a63576040517f08c379a0000000000000000000000000000000000000000000000000000000008152600401612a5a90613a90565b60405180910390fd5b612a6f82600083612f27565b6000603360008473ffffffffffffffffffffffffffffffffffffffff1673ffffffffffffffffffffffffffffffffffffffff16815260200190815260200160002054905081811015612af6576040517f08c379a0000000000000000000000000000000000000000000000000000000008152600401612aed906138f0565b60405180910390fd5b818103603360008573ffffffffffffffffffffffffffffffffffffffff1673ffffffffffffffffffffffffffffffffffffffff168152602001908152602001600020819055508160356000828254612b4e9190613ce2565b92505081905550600073ffffffffffffffffffffffffffffffffffffffff168373ffffffffffffffffffffffffffffffffffffffff167fddf252ad1be2c89b69c2b068fc378daa952ba7f163c4a11628f55a4df523b3ef84604051612bb39190613b70565b60405180910390a3612bc783600084612f2c565b505050565b612bd46122a1565b73ffffffffffffffffffffffffffffffffffffffff16612bf2611ad9565b73ffffffffffffffffffffffffffffffffffffffff1614612c48576040517f08c379a0000000000000000000000000000000000000000000000000000000008152600401612c3f90613a70565b60405180910390fd5b565b600060019054906101000a900460ff16612c99576040517f08c379a0000000000000000000000000000000000000000000000000000000008152600401612c9090613af0565b60405180910390fd5b612ca38282612f31565b5050565b600060019054906101000a900460ff16612cf6576040517f08c379a0000000000000000000000000000000000000000000000000000000008152600401612ced90613af0565b60405180910390fd5b612cfe612fb2565b565b6000606560009054906101000a900473ffffffffffffffffffffffffffffffffffffffff16905081606560006101000a81548173ffffffffffffffffffffffffffffffffffffffff021916908373ffffffffffffffffffffffffffffffffffffffff1602179055508173ffffffffffffffffffffffffffffffffffffffff168173ffffffffffffffffffffffffffffffffffffffff167f8be0079c531659141344cd1fd0a4f28419497f9722a3daafe3b4186f6b6457e060405160405180910390a35050565b600073ffffffffffffffffffffffffffffffffffffffff168273ffffffffffffffffffffffffffffffffffffffff161415612e36576040517f08c379a0000000000000000000000000000000000000000000000000000000008152600401612e2d90613b50565b60405180910390fd5b612e4260008383612f27565b8060356000828254612e549190613c01565b9250508190555080603360008473ffffffffffffffffffffffffffffffffffffffff1673ffffffffffffffffffffffffffffffffffffffff1681526020019081526020016000206000828254612eaa9190613c01565b925050819055508173ffffffffffffffffffffffffffffffffffffffff16600073ffffffffffffffffffffffffffffffffffffffff167fddf252ad1be2c89b69c2b068fc378daa952ba7f163c4a11628f55a4df523b3ef83604051612f0f9190613b70565b60405180910390a3612f2360008383612f2c565b5050565b505050565b505050565b600060019054906101000a900460ff16612f80576040517f08c379a0000000000000000000000000000000000000000000000000000000008152600401612f7790613af0565b60405180910390fd5b8160369080519060200190612f96929190613013565b508060379080519060200190612fad929190613013565b505050565b600060019054906101000a900460ff16613001576040517f08c379a0000000000000000000000000000000000000000000000000000000008152600401612ff890613af0565b60405180910390fd5b61301161300c6122a1565b612d00565b565b82805461301f90613dd4565b90600052602060002090601f0160209004810192826130415760008555613088565b82601f1061305a57805160ff1916838001178555613088565b82800160010185558215613088579182015b8281111561308757825182559160200191906001019061306c565b5b5090506130959190613099565b5090565b5b808211156130b257600081600090555060010161309a565b5090565b6000813590506130c581614420565b92915050565b6000815190506130da81614437565b92915050565b60008083601f8401126130f257600080fd5b8235905067ffffffffffffffff81111561310b57600080fd5b60208301915083600182028301111561312357600080fd5b9250929050565b6000813590506131398161444e565b92915050565b60008151905061314e8161444e565b92915050565b60006020828403121561316657600080fd5b6000613174848285016130b6565b91505092915050565b6000806040838503121561319057600080fd5b600061319e858286016130b6565b92505060206131af858286016130b6565b9150509250929050565b6000806000606084860312156131ce57600080fd5b60006131dc868287016130b6565b93505060206131ed868287016130b6565b92505060406131fe8682870161312a565b9150509250925092565b6000806040838503121561321b57600080fd5b6000613229858286016130b6565b925050602061323a8582860161312a565b9150509250929050565b60006020828403121561325657600080fd5b6000613264848285016130cb565b91505092915050565b60008060008060008060008060c0898b03121561328957600080fd5b600089013567ffffffffffffffff8111156132a357600080fd5b6132af8b828c016130e0565b9850985050602089013567ffffffffffffffff8111156132ce57600080fd5b6132da8b828c016130e0565b965096505060406132ed8b828c016130b6565b94505060606132fe8b828c016130b6565b935050608061330f8b828c016130b6565b92505060a06133208b828c0161312a565b9150509295985092959890939650565b60006020828403121561334257600080fd5b60006133508482850161312a565b91505092915050565b60006020828403121561336b57600080fd5b60006133798482850161313f565b91505092915050565b61338b81613d16565b82525050565b61339a81613d28565b82525050565b60006133ab82613bcf565b6133b58185613be5565b93506133c5818560208601613da1565b80840191505092915050565b6133da81613d6b565b82525050565b6133e981613d8f565b82525050565b60006133fa82613bda565b6134048185613bf0565b9350613414818560208601613da1565b61341d81613ec4565b840191505092915050565b6000613435602383613bf0565b915061344082613ed5565b604082019050919050565b6000613458602283613bf0565b915061346382613f24565b604082019050919050565b600061347b602683613bf0565b915061348682613f73565b604082019050919050565b600061349e602283613bf0565b91506134a982613fc2565b604082019050919050565b60006134c1601f83613bf0565b91506134cc82614011565b602082019050919050565b60006134e4602f83613bf0565b91506134ef8261403a565b604082019050919050565b6000613507601d83613bf0565b915061351282614089565b602082019050919050565b600061352a602683613bf0565b9150613535826140b2565b604082019050919050565b600061354d601e83613bf0565b915061355882614101565b602082019050919050565b6000613570603283613bf0565b915061357b8261412a565b604082019050919050565b6000613593602183613bf0565b915061359e82614179565b604082019050919050565b60006135b6601d83613bf0565b91506135c1826141c8565b602082019050919050565b60006135d9600d83613bf0565b91506135e4826141f1565b602082019050919050565b60006135fc602083613bf0565b91506136078261421a565b602082019050919050565b600061361f602183613bf0565b915061362a82614243565b604082019050919050565b6000613642602583613bf0565b915061364d82614292565b604082019050919050565b6000613665602483613bf0565b9150613670826142e1565b604082019050919050565b6000613688602b83613bf0565b915061369382614330565b604082019050919050565b60006136ab601183613bf0565b91506136b68261437f565b602082019050919050565b60006136ce602583613bf0565b91506136d9826143a8565b604082019050919050565b60006136f1601f83613bf0565b91506136fc826143f7565b602082019050919050565b61371081613d54565b82525050565b61371f81613d5e565b82525050565b600061373182846133a0565b915081905092915050565b60006020820190506137516000830184613382565b92915050565b600060608201905061376c6000830186613382565b6137796020830185613382565b6137866040830184613707565b949350505050565b60006080820190506137a36000830187613382565b6137b06020830186613382565b6137bd6040830185613707565b6137ca60608301846133e0565b95945050505050565b60006080820190506137e86000830187613382565b6137f56020830186613382565b6138026040830185613707565b61380f6060830184613707565b95945050505050565b600060408201905061382d6000830185613382565b61383a6020830184613707565b9392505050565b60006060820190506138566000830186613382565b6138636020830185613707565b6138706040830184613707565b949350505050565b600060208201905061388d6000830184613391565b92915050565b60006020820190506138a860008301846133d1565b92915050565b600060208201905081810360008301526138c881846133ef565b905092915050565b600060208201905081810360008301526138e981613428565b9050919050565b600060208201905081810360008301526139098161344b565b9050919050565b600060208201905081810360008301526139298161346e565b9050919050565b6000602082019050818103600083015261394981613491565b9050919050565b60006020820190508181036000830152613969816134b4565b9050919050565b60006020820190508181036000830152613989816134d7565b9050919050565b600060208201905081810360008301526139a9816134fa565b9050919050565b600060208201905081810360008301526139c98161351d565b9050919050565b600060208201905081810360008301526139e981613540565b9050919050565b60006020820190508181036000830152613a0981613563565b9050919050565b60006020820190508181036000830152613a2981613586565b9050919050565b60006020820190508181036000830152613a49816135a9565b9050919050565b60006020820190508181036000830152613a69816135cc565b9050919050565b60006020820190508181036000830152613a89816135ef565b9050919050565b60006020820190508181036000830152613aa981613612565b9050919050565b60006020820190508181036000830152613ac981613635565b9050919050565b60006020820190508181036000830152613ae981613658565b9050919050565b60006020820190508181036000830152613b098161367b565b9050919050565b60006020820190508181036000830152613b298161369e565b9050919050565b60006020820190508181036000830152613b49816136c1565b9050919050565b60006020820190508181036000830152613b69816136e4565b9050919050565b6000602082019050613b856000830184613707565b92915050565b6000604082019050613ba06000830185613707565b613bad6020830184613707565b9392505050565b6000602082019050613bc96000830184613716565b92915050565b600081519050919050565b600081519050919050565b600081905092915050565b600082825260208201905092915050565b6000613c0c82613d54565b9150613c1783613d54565b9250827fffffffffffffffffffffffffffffffffffffffffffffffffffffffffffffffff03821115613c4c57613c4b613e37565b5b828201905092915050565b6000613c6282613d54565b9150613c6d83613d54565b925082613c7d57613c7c613e66565b5b828204905092915050565b6000613c9382613d54565b9150613c9e83613d54565b9250817fffffffffffffffffffffffffffffffffffffffffffffffffffffffffffffffff0483118215151615613cd757613cd6613e37565b5b828202905092915050565b6000613ced82613d54565b9150613cf883613d54565b925082821015613d0b57613d0a613e37565b5b828203905092915050565b6000613d2182613d34565b9050919050565b60008115159050919050565b600073ffffffffffffffffffffffffffffffffffffffff82169050919050565b6000819050919050565b600060ff82169050919050565b6000613d7682613d7d565b9050919050565b6000613d8882613d34565b9050919050565b6000613d9a82613d54565b9050919050565b60005b83811015613dbf578082015181840152602081019050613da4565b83811115613dce576000848401525b50505050565b60006002820490506001821680613dec57607f821691505b60208210811415613e0057613dff613e95565b5b50919050565b6000613e1182613d54565b9150613e1c83613d54565b925082613e2c57613e2b613e66565b5b828206905092915050565b7f4e487b7100000000000000000000000000000000000000000000000000000000600052601160045260246000fd5b7f4e487b7100000000000000000000000000000000000000000000000000000000600052601260045260246000fd5b7f4e487b7100000000000000000000000000000000000000000000000000000000600052602260045260246000fd5b6000601f19601f8301169050919050565b7f45524332303a207472616e7366657220746f20746865207a65726f206164647260008201527f6573730000000000000000000000000000000000000000000000000000000000602082015250565b7f45524332303a206275726e20616d6f756e7420657863656564732062616c616e60008201527f6365000000000000000000000000000000000000000000000000000000000000602082015250565b7f4f776e61626c653a206e6577206f776e657220697320746865207a65726f206160008201527f6464726573730000000000000000000000000000000000000000000000000000602082015250565b7f45524332303a20617070726f766520746f20746865207a65726f20616464726560008201527f7373000000000000000000000000000000000000000000000000000000000000602082015250565b7f5661756c743a20537461796b696e672061646472657373206973207a65726f00600082015250565b7f6d73672e76616c75652069732067726561746572207468616e20616363756d7560008201527f6c6174656420696e7465726573742e0000000000000000000000000000000000602082015250565b7f45524332303a20696e73756666696369656e7420616c6c6f77616e6365000000600082015250565b7f45524332303a207472616e7366657220616d6f756e742065786365656473206260008201527f616c616e63650000000000000000000000000000000000000000000000000000602082015250565b7f4c6f616e3a2043616e7427206c6f616e206465627420616e796d6f72652e0000600082015250565b7f726570617950656e64696e67446562743a20746f6f206d756368206d73672e7660008201527f616c756520746f20726570617920646562740000000000000000000000000000602082015250565b7f5661756c743a204261736520546f6b656e206973207a65726f2061646472657360008201527f7300000000000000000000000000000000000000000000000000000000000000602082015250565b7f5661756c743a204e6f7420537461796b696e6720636f6e74726163742e000000600082015250565b7f21736166655472616e7366657200000000000000000000000000000000000000600082015250565b7f4f776e61626c653a2063616c6c6572206973206e6f7420746865206f776e6572600082015250565b7f45524332303a206275726e2066726f6d20746865207a65726f2061646472657360008201527f7300000000000000000000000000000000000000000000000000000000000000602082015250565b7f45524332303a207472616e736665722066726f6d20746865207a65726f20616460008201527f6472657373000000000000000000000000000000000000000000000000000000602082015250565b7f45524332303a20617070726f76652066726f6d20746865207a65726f2061646460008201527f7265737300000000000000000000000000000000000000000000000000000000602082015250565b7f496e697469616c697a61626c653a20636f6e7472616374206973206e6f74206960008201527f6e697469616c697a696e67000000000000000000000000000000000000000000602082015250565b7f21736166655472616e7366657246726f6d000000000000000000000000000000600082015250565b7f45524332303a2064656372656173656420616c6c6f77616e63652062656c6f7760008201527f207a65726f000000000000000000000000000000000000000000000000000000602082015250565b7f45524332303a206d696e7420746f20746865207a65726f206164647265737300600082015250565b61442981613d16565b811461443457600080fd5b50565b61444081613d28565b811461444b57600080fd5b50565b61445781613d54565b811461446257600080fd5b5056fea264697066735822122022c910e43e76ee87d23df32470a1eea94c7cacfd7f47b325a9e005379efac88d64736f6c63430008040033",
  "linkReferences": {},
  "deployedLinkReferences": {}
}