{
  "_format": "hh-sol-artifact-1",
  "contractName": "Vault",
  "sourceName": "contracts/token/Vault.sol",
  "abi": [
    {
      "anonymous": false,
      "inputs": [
        {
          "indexed": true,
          "internalType": "address",
          "name": "owner",
          "type": "address"
        },
        {
          "indexed": true,
          "internalType": "address",
          "name": "spender",
          "type": "address"
        },
        {
          "indexed": false,
          "internalType": "uint256",
          "name": "value",
          "type": "uint256"
        }
      ],
      "name": "Approval",
      "type": "event"
    },
    {
      "anonymous": false,
      "inputs": [
        {
          "indexed": false,
          "internalType": "address",
          "name": "user",
          "type": "address"
        },
        {
          "indexed": false,
          "internalType": "uint256",
          "name": "amount",
          "type": "uint256"
        },
        {
          "indexed": false,
          "internalType": "uint256",
          "name": "share",
          "type": "uint256"
        }
      ],
      "name": "Deposit",
      "type": "event"
    },
    {
      "anonymous": false,
      "inputs": [
        {
          "indexed": false,
          "internalType": "uint8",
          "name": "version",
          "type": "uint8"
        }
      ],
      "name": "Initialized",
      "type": "event"
    },
    {
      "anonymous": false,
      "inputs": [
        {
          "indexed": false,
          "internalType": "address",
          "name": "user",
          "type": "address"
        },
        {
          "indexed": false,
          "internalType": "uint256",
          "name": "debtAmount",
          "type": "uint256"
        }
      ],
      "name": "Loan",
      "type": "event"
    },
    {
      "anonymous": false,
      "inputs": [
        {
          "indexed": true,
          "internalType": "address",
          "name": "previousOwner",
          "type": "address"
        },
        {
          "indexed": true,
          "internalType": "address",
          "name": "newOwner",
          "type": "address"
        }
      ],
      "name": "OwnershipTransferred",
      "type": "event"
    },
    {
      "anonymous": false,
      "inputs": [
        {
          "indexed": false,
          "internalType": "uint256",
          "name": "paidInterest",
          "type": "uint256"
        },
        {
          "indexed": false,
          "internalType": "uint256",
          "name": "leftInterest",
          "type": "uint256"
        }
      ],
      "name": "PayInterest",
      "type": "event"
    },
    {
      "anonymous": false,
      "inputs": [
        {
          "indexed": false,
          "internalType": "address",
          "name": "user",
          "type": "address"
        },
        {
          "indexed": false,
          "internalType": "uint256",
          "name": "debtAmount",
          "type": "uint256"
        }
      ],
      "name": "Repay",
      "type": "event"
    },
    {
      "anonymous": false,
      "inputs": [
        {
          "indexed": true,
          "internalType": "address",
          "name": "from",
          "type": "address"
        },
        {
          "indexed": true,
          "internalType": "address",
          "name": "to",
          "type": "address"
        },
        {
          "indexed": false,
          "internalType": "uint256",
          "name": "value",
          "type": "uint256"
        }
      ],
      "name": "Transfer",
      "type": "event"
    },
    {
      "anonymous": false,
      "inputs": [
        {
          "indexed": false,
          "internalType": "address",
          "name": "from",
          "type": "address"
        },
        {
          "indexed": false,
          "internalType": "address",
          "name": "to",
          "type": "address"
        },
        {
          "indexed": false,
          "internalType": "uint256",
          "name": "amount",
          "type": "uint256"
        }
      ],
      "name": "TransferDebtOwnership",
      "type": "event"
    },
    {
      "anonymous": false,
      "inputs": [
        {
          "indexed": false,
          "internalType": "uint256",
          "name": "rateBps",
          "type": "uint256"
        }
      ],
      "name": "UtilizationRate",
      "type": "event"
    },
    {
      "anonymous": false,
      "inputs": [
        {
          "indexed": false,
          "internalType": "address",
          "name": "user",
          "type": "address"
        },
        {
          "indexed": false,
          "internalType": "uint256",
          "name": "amount",
          "type": "uint256"
        },
        {
          "indexed": false,
          "internalType": "uint256",
          "name": "share",
          "type": "uint256"
        }
      ],
      "name": "Withdraw",
      "type": "event"
    },
    {
      "inputs": [],
      "name": "BASE_TOKEN",
      "outputs": [
        {
          "internalType": "address",
          "name": "",
          "type": "address"
        }
      ],
      "stateMutability": "view",
      "type": "function"
    },
    {
      "inputs": [
        {
          "internalType": "string",
          "name": "_name",
          "type": "string"
        },
        {
          "internalType": "string",
          "name": "_symbol",
          "type": "string"
        },
        {
          "internalType": "address",
          "name": "_stayking",
          "type": "address"
        },
        {
          "internalType": "address",
          "name": "_token",
          "type": "address"
        },
        {
          "internalType": "address",
          "name": "_interestModel",
          "type": "address"
        },
        {
          "internalType": "uint256",
          "name": "_minReservedBps",
          "type": "uint256"
        }
      ],
      "name": "__Vault_init",
      "outputs": [],
      "stateMutability": "nonpayable",
      "type": "function"
    },
    {
      "inputs": [
        {
          "internalType": "address",
          "name": "owner",
          "type": "address"
        },
        {
          "internalType": "address",
          "name": "spender",
          "type": "address"
        }
      ],
      "name": "allowance",
      "outputs": [
        {
          "internalType": "uint256",
          "name": "",
          "type": "uint256"
        }
      ],
      "stateMutability": "view",
      "type": "function"
    },
    {
      "inputs": [
        {
          "internalType": "uint256",
          "name": "amount",
          "type": "uint256"
        }
      ],
      "name": "amountToShare",
      "outputs": [
        {
          "internalType": "uint256",
          "name": "",
          "type": "uint256"
        }
      ],
      "stateMutability": "view",
      "type": "function"
    },
    {
      "inputs": [
        {
          "internalType": "address",
          "name": "spender",
          "type": "address"
        },
        {
          "internalType": "uint256",
          "name": "amount",
          "type": "uint256"
        }
      ],
      "name": "approve",
      "outputs": [
        {
          "internalType": "bool",
          "name": "",
          "type": "bool"
        }
      ],
      "stateMutability": "nonpayable",
      "type": "function"
    },
    {
      "inputs": [
        {
          "internalType": "address",
          "name": "account",
          "type": "address"
        }
      ],
      "name": "balanceOf",
      "outputs": [
        {
          "internalType": "uint256",
          "name": "",
          "type": "uint256"
        }
      ],
      "stateMutability": "view",
      "type": "function"
    },
    {
      "inputs": [
        {
          "internalType": "address",
          "name": "user",
          "type": "address"
        }
      ],
      "name": "calcPendingDebtInBase",
      "outputs": [
        {
          "internalType": "uint256",
          "name": "",
          "type": "uint256"
        }
      ],
      "stateMutability": "view",
      "type": "function"
    },
    {
      "inputs": [
        {
          "internalType": "address",
          "name": "",
          "type": "address"
        }
      ],
      "name": "debtAmountOf",
      "outputs": [
        {
          "internalType": "uint256",
          "name": "",
          "type": "uint256"
        }
      ],
      "stateMutability": "view",
      "type": "function"
    },
    {
      "inputs": [],
      "name": "decimals",
      "outputs": [
        {
          "internalType": "uint8",
          "name": "",
          "type": "uint8"
        }
      ],
      "stateMutability": "view",
      "type": "function"
    },
    {
      "inputs": [
        {
          "internalType": "address",
          "name": "spender",
          "type": "address"
        },
        {
          "internalType": "uint256",
          "name": "subtractedValue",
          "type": "uint256"
        }
      ],
      "name": "decreaseAllowance",
      "outputs": [
        {
          "internalType": "bool",
          "name": "",
          "type": "bool"
        }
      ],
      "stateMutability": "nonpayable",
      "type": "function"
    },
    {
      "inputs": [
        {
          "internalType": "uint256",
          "name": "amount",
          "type": "uint256"
        }
      ],
      "name": "deposit",
      "outputs": [
        {
          "internalType": "uint256",
          "name": "share",
          "type": "uint256"
        }
      ],
      "stateMutability": "nonpayable",
      "type": "function"
    },
    {
      "inputs": [],
      "name": "getInterestRate",
      "outputs": [
        {
          "internalType": "uint256",
          "name": "interestRate",
          "type": "uint256"
        }
      ],
      "stateMutability": "view",
      "type": "function"
    },
    {
      "inputs": [
        {
          "internalType": "address",
          "name": "spender",
          "type": "address"
        },
        {
          "internalType": "uint256",
          "name": "addedValue",
          "type": "uint256"
        }
      ],
      "name": "increaseAllowance",
      "outputs": [
        {
          "internalType": "bool",
          "name": "",
          "type": "bool"
        }
      ],
      "stateMutability": "nonpayable",
      "type": "function"
    },
    {
      "inputs": [],
      "name": "interestModel",
      "outputs": [
        {
          "internalType": "address",
          "name": "",
          "type": "address"
        }
      ],
      "stateMutability": "view",
      "type": "function"
    },
    {
      "inputs": [
        {
          "internalType": "address",
          "name": "user",
          "type": "address"
        },
        {
          "internalType": "uint256",
          "name": "amount",
          "type": "uint256"
        }
      ],
      "name": "loan",
      "outputs": [],
      "stateMutability": "nonpayable",
      "type": "function"
    },
    {
      "inputs": [],
      "name": "name",
      "outputs": [
        {
          "internalType": "string",
          "name": "",
          "type": "string"
        }
      ],
      "stateMutability": "view",
      "type": "function"
    },
    {
      "inputs": [],
      "name": "owner",
      "outputs": [
        {
          "internalType": "address",
          "name": "",
          "type": "address"
        }
      ],
      "stateMutability": "view",
      "type": "function"
    },
    {
      "inputs": [],
      "name": "payInterest",
      "outputs": [],
      "stateMutability": "payable",
      "type": "function"
    },
    {
      "inputs": [
        {
          "internalType": "address",
          "name": "user",
          "type": "address"
        },
        {
          "internalType": "uint256",
          "name": "instantRepayment",
          "type": "uint256"
        }
      ],
      "name": "pendRepay",
      "outputs": [],
      "stateMutability": "nonpayable",
      "type": "function"
    },
    {
      "inputs": [
        {
          "internalType": "uint256",
          "name": "amount",
          "type": "uint256"
        }
      ],
      "name": "pendingDebtAmountToShare",
      "outputs": [
        {
          "internalType": "uint256",
          "name": "",
          "type": "uint256"
        }
      ],
      "stateMutability": "view",
      "type": "function"
    },
    {
      "inputs": [
        {
          "internalType": "address",
          "name": "",
          "type": "address"
        }
      ],
      "name": "pendingDebtShareOf",
      "outputs": [
        {
          "internalType": "uint256",
          "name": "",
          "type": "uint256"
        }
      ],
      "stateMutability": "view",
      "type": "function"
    },
    {
      "inputs": [
        {
          "internalType": "uint256",
          "name": "share",
          "type": "uint256"
        }
      ],
      "name": "pendingDebtShareToAmount",
      "outputs": [
        {
          "internalType": "uint256",
          "name": "",
          "type": "uint256"
        }
      ],
      "stateMutability": "view",
      "type": "function"
    },
    {
      "inputs": [],
      "name": "renounceOwnership",
      "outputs": [],
      "stateMutability": "nonpayable",
      "type": "function"
    },
    {
      "inputs": [
        {
          "internalType": "address",
          "name": "user",
          "type": "address"
        },
        {
          "internalType": "uint256",
          "name": "amount",
          "type": "uint256"
        }
      ],
      "name": "repay",
      "outputs": [],
      "stateMutability": "nonpayable",
      "type": "function"
    },
    {
      "inputs": [
        {
          "internalType": "address",
          "name": "user",
          "type": "address"
        },
        {
          "internalType": "uint256",
          "name": "minRepaidDebt",
          "type": "uint256"
        }
      ],
      "name": "repayPendingDebt",
      "outputs": [],
      "stateMutability": "payable",
      "type": "function"
    },
    {
      "inputs": [],
      "name": "saveUtilizationRateBps",
      "outputs": [],
      "stateMutability": "nonpayable",
      "type": "function"
    },
    {
      "inputs": [
        {
          "internalType": "uint256",
          "name": "share",
          "type": "uint256"
        }
      ],
      "name": "shareToAmount",
      "outputs": [
        {
          "internalType": "uint256",
          "name": "",
          "type": "uint256"
        }
      ],
      "stateMutability": "view",
      "type": "function"
    },
    {
      "inputs": [],
      "name": "stayking",
      "outputs": [
        {
          "internalType": "address",
          "name": "",
          "type": "address"
        }
      ],
      "stateMutability": "view",
      "type": "function"
    },
    {
      "inputs": [],
      "name": "swapHelper",
      "outputs": [
        {
          "internalType": "contract ISwapHelper",
          "name": "",
          "type": "address"
        }
      ],
      "stateMutability": "view",
      "type": "function"
    },
    {
      "inputs": [],
      "name": "symbol",
      "outputs": [
        {
          "internalType": "string",
          "name": "",
          "type": "string"
        }
      ],
      "stateMutability": "view",
      "type": "function"
    },
    {
      "inputs": [
        {
          "internalType": "address",
          "name": "from",
          "type": "address"
        },
        {
          "internalType": "uint256",
          "name": "amount",
          "type": "uint256"
        }
      ],
      "name": "takeDebtOwnership",
      "outputs": [],
      "stateMutability": "nonpayable",
      "type": "function"
    },
    {
      "inputs": [],
      "name": "token",
      "outputs": [
        {
          "internalType": "address",
          "name": "",
          "type": "address"
        }
      ],
      "stateMutability": "view",
      "type": "function"
    },
    {
      "inputs": [],
      "name": "totalAmount",
      "outputs": [
        {
          "internalType": "uint256",
          "name": "",
          "type": "uint256"
        }
      ],
      "stateMutability": "view",
      "type": "function"
    },
    {
      "inputs": [],
      "name": "totalDebtAmount",
      "outputs": [
        {
          "internalType": "uint256",
          "name": "",
          "type": "uint256"
        }
      ],
      "stateMutability": "view",
      "type": "function"
    },
    {
      "inputs": [],
      "name": "totalSupply",
      "outputs": [
        {
          "internalType": "uint256",
          "name": "",
          "type": "uint256"
        }
      ],
      "stateMutability": "view",
      "type": "function"
    },
    {
      "inputs": [
        {
          "internalType": "address",
          "name": "to",
          "type": "address"
        },
        {
          "internalType": "uint256",
          "name": "amount",
          "type": "uint256"
        }
      ],
      "name": "transfer",
      "outputs": [
        {
          "internalType": "bool",
          "name": "",
          "type": "bool"
        }
      ],
      "stateMutability": "nonpayable",
      "type": "function"
    },
    {
      "inputs": [
        {
          "internalType": "address",
          "name": "from",
          "type": "address"
        },
        {
          "internalType": "address",
          "name": "to",
          "type": "address"
        },
        {
          "internalType": "uint256",
          "name": "amount",
          "type": "uint256"
        }
      ],
      "name": "transferFrom",
      "outputs": [
        {
          "internalType": "bool",
          "name": "",
          "type": "bool"
        }
      ],
      "stateMutability": "nonpayable",
      "type": "function"
    },
    {
      "inputs": [
        {
          "internalType": "address",
          "name": "newOwner",
          "type": "address"
        }
      ],
      "name": "transferOwnership",
      "outputs": [],
      "stateMutability": "nonpayable",
      "type": "function"
    },
    {
      "inputs": [
        {
          "internalType": "uint256",
          "name": "newMinReservedBps",
          "type": "uint256"
        }
      ],
      "name": "updateMinReservedBps",
      "outputs": [],
      "stateMutability": "nonpayable",
      "type": "function"
    },
    {
      "inputs": [
        {
          "internalType": "address",
          "name": "newStaykingAddress",
          "type": "address"
        }
      ],
      "name": "updateStayking",
      "outputs": [],
      "stateMutability": "nonpayable",
      "type": "function"
    },
    {
      "inputs": [],
      "name": "utilizationRateBps",
      "outputs": [
        {
          "internalType": "uint256",
          "name": "",
          "type": "uint256"
        }
      ],
      "stateMutability": "view",
      "type": "function"
    },
    {
      "inputs": [
        {
          "internalType": "uint256",
          "name": "share",
          "type": "uint256"
        }
      ],
      "name": "withdraw",
      "outputs": [
        {
          "internalType": "uint256",
          "name": "amount",
          "type": "uint256"
        }
      ],
      "stateMutability": "nonpayable",
      "type": "function"
    },
    {
      "stateMutability": "payable",
      "type": "receive"
    }
  ],
  "bytecode": "0x608060405234801561001057600080fd5b5061467c806100206000396000f3fe6080604052600436106102555760003560e01c806370a0823111610139578063a9059cbb116100b6578063c48097981161007a578063c480979814610903578063c8dffa9514610940578063dd62ed3e1461096b578063eab32981146109a8578063f2fde38b146109d3578063fc0c546a146109fc5761025c565b8063a9059cbb1461081e578063ac165d7a1461085b578063b16828b714610886578063b6b55f251461089d578063b9529e9f146108da5761025c565b80638a81d6b0116100fd5780638a81d6b0146107655780638da5cb5b1461078157806395d89b41146107ac578063a15a211c146107d7578063a457c2d7146107e15761025c565b806370a0823114610682578063714934cd146106bf578063715018a6146106e857806378d7e54a146106ff5780638122af77146107285761025c565b806322867d78116101d2578063313ce56711610196578063313ce5671461054c57806339509351146105775780633b825f51146105b4578063494e42f4146105f15780635257b5661461061a5780636592183b146106455761025c565b806322867d781461042f57806323b872dd146104585780632d4047e5146104955780632d6f8013146104d25780632e1a7d4d1461050f5761025c565b8063185cc75111610219578063185cc7511461034a5780631a39d8ef146103735780631a4e1aef1461039e5780631ce9ba36146103c7578063210663e4146104045761025c565b806303d98c1f1461026157806306fdde031461028c578063095ea7b3146102b75780630fc6a11c146102f457806318160ddd1461031f5761025c565b3661025c57005b600080fd5b34801561026d57600080fd5b50610276610a27565b6040516102839190613cf0565b60405180910390f35b34801561029857600080fd5b506102a1610a50565b6040516102ae9190613a0e565b60405180910390f35b3480156102c357600080fd5b506102de60048036038101906102d9919061331b565b610ae2565b6040516102eb91906139bd565b60405180910390f35b34801561030057600080fd5b50610309610b05565b60405161031691906139d8565b60405180910390f35b34801561032b57600080fd5b50610334610b2b565b6040516103419190613cf0565b60405180910390f35b34801561035657600080fd5b50610371600480360381019061036c919061331b565b610b35565b005b34801561037f57600080fd5b50610388610d04565b6040516103959190613cf0565b60405180910390f35b3480156103aa57600080fd5b506103c560048036038101906103c0919061331b565b610dc3565b005b3480156103d357600080fd5b506103ee60048036038101906103e99190613443565b610f34565b6040516103fb9190613cf0565b60405180910390f35b34801561041057600080fd5b50610419610f68565b6040516104269190613881565b60405180910390f35b34801561043b57600080fd5b506104566004803603810190610451919061331b565b610f6d565b005b34801561046457600080fd5b5061047f600480360381019061047a91906132cc565b6110d7565b60405161048c91906139bd565b60405180910390f35b3480156104a157600080fd5b506104bc60048036038101906104b79190613443565b611106565b6040516104c99190613cf0565b60405180910390f35b3480156104de57600080fd5b506104f960048036038101906104f49190613443565b611148565b6040516105069190613cf0565b60405180910390f35b34801561051b57600080fd5b5061053660048036038101906105319190613443565b61118a565b6040516105439190613cf0565b60405180910390f35b34801561055857600080fd5b5061056161120e565b60405161056e9190613d34565b60405180910390f35b34801561058357600080fd5b5061059e6004803603810190610599919061331b565b611217565b6040516105ab91906139bd565b60405180910390f35b3480156105c057600080fd5b506105db60048036038101906105d69190613267565b61124e565b6040516105e89190613cf0565b60405180910390f35b3480156105fd57600080fd5b5061061860048036038101906106139190613443565b611370565b005b34801561062657600080fd5b5061062f611382565b60405161063c9190613cf0565b60405180910390f35b34801561065157600080fd5b5061066c60048036038101906106679190613267565b6114e2565b6040516106799190613cf0565b60405180910390f35b34801561068e57600080fd5b506106a960048036038101906106a49190613267565b6114fa565b6040516106b69190613cf0565b60405180910390f35b3480156106cb57600080fd5b506106e660048036038101906106e19190613380565b611543565b005b3480156106f457600080fd5b506106fd6118f4565b005b34801561070b57600080fd5b5061072660048036038101906107219190613267565b611908565b005b34801561073457600080fd5b5061074f600480360381019061074a9190613267565b611954565b60405161075c9190613cf0565b60405180910390f35b61077f600480360381019061077a919061331b565b61196c565b005b34801561078d57600080fd5b50610796611bc9565b6040516107a39190613881565b60405180910390f35b3480156107b857600080fd5b506107c1611bf3565b6040516107ce9190613a0e565b60405180910390f35b6107df611c85565b005b3480156107ed57600080fd5b506108086004803603810190610803919061331b565b611e83565b60405161081591906139bd565b60405180910390f35b34801561082a57600080fd5b506108456004803603810190610840919061331b565b611efa565b60405161085291906139bd565b60405180910390f35b34801561086757600080fd5b50610870611f1d565b60405161087d9190613881565b60405180910390f35b34801561089257600080fd5b5061089b611f43565b005b3480156108a957600080fd5b506108c460048036038101906108bf9190613443565b612000565b6040516108d19190613cf0565b60405180910390f35b3480156108e657600080fd5b5061090160048036038101906108fc919061331b565b612085565b005b34801561090f57600080fd5b5061092a60048036038101906109259190613443565b612200565b6040516109379190613cf0565b60405180910390f35b34801561094c57600080fd5b50610955612234565b6040516109629190613cf0565b60405180910390f35b34801561097757600080fd5b50610992600480360381019061098d9190613290565b61223a565b60405161099f9190613cf0565b60405180910390f35b3480156109b457600080fd5b506109bd6122c1565b6040516109ca9190613881565b60405180910390f35b3480156109df57600080fd5b506109fa60048036038101906109f59190613267565b6122e7565b005b348015610a0857600080fd5b50610a1161236b565b604051610a1e9190613881565b60405180910390f35b6000610a31610d04565b609c54612710610a419190613e08565b610a4b9190613dd7565b905090565b606060368054610a5f90613f66565b80601f0160208091040260200160405190810160405280929190818152602001828054610a8b90613f66565b8015610ad85780601f10610aad57610100808354040283529160200191610ad8565b820191906000526020600020905b815481529060010190602001808311610abb57829003601f168201915b5050505050905090565b600080610aed612391565b9050610afa818585612399565b600191505092915050565b609760009054906101000a900473ffffffffffffffffffffffffffffffffffffffff1681565b6000603554905090565b609960009054906101000a900473ffffffffffffffffffffffffffffffffffffffff1673ffffffffffffffffffffffffffffffffffffffff163373ffffffffffffffffffffffffffffffffffffffff1614610bc5576040517f08c379a0000000000000000000000000000000000000000000000000000000008152600401610bbc90613bb0565b60405180910390fd5b80609b60008473ffffffffffffffffffffffffffffffffffffffff1673ffffffffffffffffffffffffffffffffffffffff1681526020019081526020016000206000828254610c149190613d81565b9250508190555080609c6000828254610c2d9190613d81565b9250508190555060a054610c3f610d04565b610c499190613e08565b612710609c54610c599190613e08565b1115610c9a576040517f08c379a0000000000000000000000000000000000000000000000000000000008152600401610c9190613b30565b60405180910390fd5b610cc7609860009054906101000a900473ffffffffffffffffffffffffffffffffffffffff163383612564565b7f1db23cf53464267c45324569941e81e23d29c48ff9be2b35af2cc0a2681159d68282604051610cf892919061395d565b60405180910390a15050565b6000609c54609860009054906101000a900473ffffffffffffffffffffffffffffffffffffffff1673ffffffffffffffffffffffffffffffffffffffff166370a08231306040518263ffffffff1660e01b8152600401610d649190613881565b60206040518083038186803b158015610d7c57600080fd5b505afa158015610d90573d6000803e3d6000fd5b505050506040513d601f19601f82011682018060405250810190610db4919061346c565b610dbe9190613d81565b905090565b609960009054906101000a900473ffffffffffffffffffffffffffffffffffffffff1673ffffffffffffffffffffffffffffffffffffffff163373ffffffffffffffffffffffffffffffffffffffff1614610e53576040517f08c379a0000000000000000000000000000000000000000000000000000000008152600401610e4a90613bb0565b60405180910390fd5b6000811115610e6757610e668282610f6d565b5b6000609b60008473ffffffffffffffffffffffffffffffffffffffff1673ffffffffffffffffffffffffffffffffffffffff1681526020019081526020016000205490506000610eb682612200565b905080609d60008673ffffffffffffffffffffffffffffffffffffffff1673ffffffffffffffffffffffffffffffffffffffff1681526020019081526020016000208190555080609e6000828254610f0e9190613d81565b9250508190555081609f6000828254610f279190613d81565b9250508190555050505050565b600080609e5414610f5f57609e5482609f54610f509190613e08565b610f5a9190613dd7565b610f61565b815b9050919050565b600081565b609960009054906101000a900473ffffffffffffffffffffffffffffffffffffffff1673ffffffffffffffffffffffffffffffffffffffff163373ffffffffffffffffffffffffffffffffffffffff1614610ffd576040517f08c379a0000000000000000000000000000000000000000000000000000000008152600401610ff490613bb0565b60405180910390fd5b80609b60008473ffffffffffffffffffffffffffffffffffffffff1673ffffffffffffffffffffffffffffffffffffffff168152602001908152602001600020600082825461104c9190613e62565b9250508190555080609c60008282546110659190613e62565b9250508190555061109a609860009054906101000a900473ffffffffffffffffffffffffffffffffffffffff1683308461269a565b7f5c16de4f8b59bd9caf0f49a545f25819a895ed223294290b408242e72a59423182826040516110cb92919061395d565b60405180910390a15050565b6000806110e2612391565b90506110ef8582856127d3565b6110fa85858561285f565b60019150509392505050565b600080611111610d04565b90506000811461113e578083611125610b2b565b61112f9190613e08565b6111399190613dd7565b611140565b825b915050919050565b600080611153610b2b565b905060008114611180578083611167610d04565b6111719190613e08565b61117b9190613dd7565b611182565b825b915050919050565b600061119582611148565b90506111a13383612ae3565b6111ce609860009054906101000a900473ffffffffffffffffffffffffffffffffffffffff163383612564565b7ff279e6a1f5e320cca91135676d9cb6e44ca8a08c0b88342bcdb1144f6511b56833828460405161120193929190613986565b60405180910390a1919050565b60006012905090565b600080611222612391565b9050611243818585611234858961223a565b61123e9190613d81565b612399565b600191505092915050565b6000609760009054906101000a900473ffffffffffffffffffffffffffffffffffffffff1673ffffffffffffffffffffffffffffffffffffffff16637dceefee6000609860009054906101000a900473ffffffffffffffffffffffffffffffffffffffff166112fb609d60008873ffffffffffffffffffffffffffffffffffffffff1673ffffffffffffffffffffffffffffffffffffffff16815260200190815260200160002054610f34565b6040518463ffffffff1660e01b81526004016113199392919061389c565b60206040518083038186803b15801561133157600080fd5b505afa158015611345573d6000803e3d6000fd5b505050506040513d601f19601f82011682018060405250810190611369919061346c565b9050919050565b611378612cbc565b8060a08190555050565b6000609a60009054906101000a900473ffffffffffffffffffffffffffffffffffffffff1673ffffffffffffffffffffffffffffffffffffffff1663d4a99bbb609c54609860009054906101000a900473ffffffffffffffffffffffffffffffffffffffff1673ffffffffffffffffffffffffffffffffffffffff166370a08231306040518263ffffffff1660e01b81526004016114209190613881565b60206040518083038186803b15801561143857600080fd5b505afa15801561144c573d6000803e3d6000fd5b505050506040513d601f19601f82011682018060405250810190611470919061346c565b6040518363ffffffff1660e01b815260040161148d929190613d0b565b60206040518083038186803b1580156114a557600080fd5b505afa1580156114b9573d6000803e3d6000fd5b505050506040513d601f19601f820116820180604052508101906114dd919061346c565b905090565b609b6020528060005260406000206000915090505481565b6000603360008373ffffffffffffffffffffffffffffffffffffffff1673ffffffffffffffffffffffffffffffffffffffff168152602001908152602001600020549050919050565b60008060019054906101000a900460ff161590508080156115745750600160008054906101000a900460ff1660ff16105b806115a1575061158330612d3a565b1580156115a05750600160008054906101000a900460ff1660ff16145b5b6115e0576040517f08c379a00000000000000000000000000000000000000000000000000000000081526004016115d790613b90565b60405180910390fd5b60016000806101000a81548160ff021916908360ff160217905550801561161d576001600060016101000a81548160ff0219169083151502179055505b600073ffffffffffffffffffffffffffffffffffffffff168573ffffffffffffffffffffffffffffffffffffffff16141561168d576040517f08c379a000000000000000000000000000000000000000000000000000000000815260040161168490613ab0565b60405180910390fd5b600073ffffffffffffffffffffffffffffffffffffffff168473ffffffffffffffffffffffffffffffffffffffff1614156116fd576040517f08c379a00000000000000000000000000000000000000000000000000000000081526004016116f490613b70565b60405180910390fd5b61178f89898080601f016020809104026020016040519081016040528093929190818152602001838380828437600081840152601f19601f8201169050808301925050505050505088888080601f016020809104026020016040519081016040528093929190818152602001838380828437600081840152601f19601f82011690508083019250505050505050612d5d565b611797612dba565b84609960006101000a81548173ffffffffffffffffffffffffffffffffffffffff021916908373ffffffffffffffffffffffffffffffffffffffff16021790555083609860006101000a81548173ffffffffffffffffffffffffffffffffffffffff021916908373ffffffffffffffffffffffffffffffffffffffff16021790555082609a60006101000a81548173ffffffffffffffffffffffffffffffffffffffff021916908373ffffffffffffffffffffffffffffffffffffffff1602179055508160a081905550620151806361b2a690426118759190613e62565b61187f9190613f98565b4261188a9190613e62565b60a38190555080156118e95760008060016101000a81548160ff0219169083151502179055507f7f26b83ff96e1f2b6a682f133852f6798a09c465da95921460cefb384740249860016040516118e091906139f3565b60405180910390a15b505050505050505050565b6118fc612cbc565b6119066000612e13565b565b611910612cbc565b80609960006101000a81548173ffffffffffffffffffffffffffffffffffffffff021916908373ffffffffffffffffffffffffffffffffffffffff16021790555050565b609d6020528060005260406000206000915090505481565b609960009054906101000a900473ffffffffffffffffffffffffffffffffffffffff1673ffffffffffffffffffffffffffffffffffffffff163373ffffffffffffffffffffffffffffffffffffffff16146119fc576040517f08c379a00000000000000000000000000000000000000000000000000000000081526004016119f390613bb0565b60405180910390fd5b6000609760009054906101000a900473ffffffffffffffffffffffffffffffffffffffff1673ffffffffffffffffffffffffffffffffffffffff16630ed2fc956000609860009054906101000a900473ffffffffffffffffffffffffffffffffffffffff1634866040518563ffffffff1660e01b8152600401611a829493929190613918565b602060405180830381600087803b158015611a9c57600080fd5b505af1158015611ab0573d6000803e3d6000fd5b505050506040513d601f19601f82011682018060405250810190611ad4919061346c565b9050611b1e609d60008573ffffffffffffffffffffffffffffffffffffffff1673ffffffffffffffffffffffffffffffffffffffff16815260200190815260200160002054610f34565b811115611b60576040517f08c379a0000000000000000000000000000000000000000000000000000000008152600401611b5790613b50565b60405180910390fd5b6000611b6b82612200565b905080609d60008673ffffffffffffffffffffffffffffffffffffffff1673ffffffffffffffffffffffffffffffffffffffff1681526020019081526020016000206000828254611bbc9190613e62565b9250508190555050505050565b6000606560009054906101000a900473ffffffffffffffffffffffffffffffffffffffff16905090565b606060378054611c0290613f66565b80601f0160208091040260200160405190810160405280929190818152602001828054611c2e90613f66565b8015611c7b5780601f10611c5057610100808354040283529160200191611c7b565b820191906000526020600020905b815481529060010190602001808311611c5e57829003601f168201915b5050505050905090565b609960009054906101000a900473ffffffffffffffffffffffffffffffffffffffff1673ffffffffffffffffffffffffffffffffffffffff163373ffffffffffffffffffffffffffffffffffffffff1614611d15576040517f08c379a0000000000000000000000000000000000000000000000000000000008152600401611d0c90613bb0565b60405180910390fd5b6000609760009054906101000a900473ffffffffffffffffffffffffffffffffffffffff1673ffffffffffffffffffffffffffffffffffffffff16630ed2fc956000609860009054906101000a900473ffffffffffffffffffffffffffffffffffffffff163460016040518563ffffffff1660e01b8152600401611d9c94939291906138d3565b602060405180830381600087803b158015611db657600080fd5b505af1158015611dca573d6000803e3d6000fd5b505050506040513d601f19601f82011682018060405250810190611dee919061346c565b90508060a2541015611e35576040517f08c379a0000000000000000000000000000000000000000000000000000000008152600401611e2c90613ad0565b60405180910390fd5b8060a2600082825403925050819055507f57546d41506d4d7643c2ea350647fa3d6ada23d1de3afa7a32496df9b7686bc08160a254604051611e78929190613d0b565b60405180910390a150565b600080611e8e612391565b90506000611e9c828661223a565b905083811015611ee1576040517f08c379a0000000000000000000000000000000000000000000000000000000008152600401611ed890613cb0565b60405180910390fd5b611eee8286868403612399565b60019250505092915050565b600080611f05612391565b9050611f1281858561285f565b600191505092915050565b609a60009054906101000a900473ffffffffffffffffffffffffffffffffffffffff1681565b6201518060a354611f549190613d81565b4210611ffe57611f62610a27565b60a1819055506201518060a36000828254611f7d9190613d81565b92505081905550670de0b6b3a7640000611f95611382565b609c54611fa29190613e08565b611fac9190613dd7565b60a26000828254611fbd9190613d81565b925050819055507f163eacd81cbfca2d1ec176759e7107e34229c5cbc5ec0b3fde68ffdef1157e0260a154604051611ff59190613cf0565b60405180910390a15b565b600061200b82611106565b905061203b609860009054906101000a900473ffffffffffffffffffffffffffffffffffffffff1633308561269a565b6120453382612ed9565b7f90890809c654f11d6e72a28fa60149770a0d11ec6c92319d6ceb2bb0a4ea1a1533838360405161207893929190613986565b60405180910390a1919050565b609960009054906101000a900473ffffffffffffffffffffffffffffffffffffffff1673ffffffffffffffffffffffffffffffffffffffff163373ffffffffffffffffffffffffffffffffffffffff1614612115576040517f08c379a000000000000000000000000000000000000000000000000000000000815260040161210c90613bb0565b60405180910390fd5b80609b60008473ffffffffffffffffffffffffffffffffffffffff1673ffffffffffffffffffffffffffffffffffffffff16815260200190815260200160002060008282546121649190613e62565b9250508190555080609b60003373ffffffffffffffffffffffffffffffffffffffff1673ffffffffffffffffffffffffffffffffffffffff16815260200190815260200160002060008282546121ba9190613d81565b925050819055507f80caff6c1c70cc823c773c968ebdab44b7dc12da8117b4634b5f3eb78b07011e8233836040516121f49392919061389c565b60405180910390a15050565b600080609f541461222b57609f5482609e5461221c9190613e08565b6122269190613dd7565b61222d565b815b9050919050565b609c5481565b6000603460008473ffffffffffffffffffffffffffffffffffffffff1673ffffffffffffffffffffffffffffffffffffffff16815260200190815260200160002060008373ffffffffffffffffffffffffffffffffffffffff1673ffffffffffffffffffffffffffffffffffffffff16815260200190815260200160002054905092915050565b609960009054906101000a900473ffffffffffffffffffffffffffffffffffffffff1681565b6122ef612cbc565b600073ffffffffffffffffffffffffffffffffffffffff168173ffffffffffffffffffffffffffffffffffffffff16141561235f576040517f08c379a000000000000000000000000000000000000000000000000000000000815260040161235690613a70565b60405180910390fd5b61236881612e13565b50565b609860009054906101000a900473ffffffffffffffffffffffffffffffffffffffff1681565b600033905090565b600073ffffffffffffffffffffffffffffffffffffffff168373ffffffffffffffffffffffffffffffffffffffff161415612409576040517f08c379a000000000000000000000000000000000000000000000000000000000815260040161240090613c50565b60405180910390fd5b600073ffffffffffffffffffffffffffffffffffffffff168273ffffffffffffffffffffffffffffffffffffffff161415612479576040517f08c379a000000000000000000000000000000000000000000000000000000000815260040161247090613a90565b60405180910390fd5b80603460008573ffffffffffffffffffffffffffffffffffffffff1673ffffffffffffffffffffffffffffffffffffffff16815260200190815260200160002060008473ffffffffffffffffffffffffffffffffffffffff1673ffffffffffffffffffffffffffffffffffffffff168152602001908152602001600020819055508173ffffffffffffffffffffffffffffffffffffffff168373ffffffffffffffffffffffffffffffffffffffff167f8c5be1e5ebec7d5bd14f71427d1e84f3dd0314c0f7b2291e5b200ac8c7c3b925836040516125579190613cf0565b60405180910390a3505050565b6000808473ffffffffffffffffffffffffffffffffffffffff1663a9059cbb858560405160240161259692919061395d565b6040516020818303038152906040529060e01b6020820180517bffffffffffffffffffffffffffffffffffffffffffffffffffffffff83818316178352505050506040516125e4919061386a565b6000604051808303816000865af19150503d8060008114612621576040519150601f19603f3d011682016040523d82523d6000602084013e612626565b606091505b509150915081801561265457506000815114806126535750808060200190518101906126529190613357565b5b5b612693576040517f08c379a000000000000000000000000000000000000000000000000000000000815260040161268a90613bd0565b60405180910390fd5b5050505050565b6000808573ffffffffffffffffffffffffffffffffffffffff166323b872dd8686866040516024016126ce9392919061389c565b6040516020818303038152906040529060e01b6020820180517bffffffffffffffffffffffffffffffffffffffffffffffffffffffff838183161783525050505060405161271c919061386a565b6000604051808303816000865af19150503d8060008114612759576040519150601f19603f3d011682016040523d82523d6000602084013e61275e565b606091505b509150915081801561278c575060008151148061278b57508080602001905181019061278a9190613357565b5b5b6127cb576040517f08c379a00000000000000000000000000000000000000000000000000000000081526004016127c290613c90565b60405180910390fd5b505050505050565b60006127df848461223a565b90507fffffffffffffffffffffffffffffffffffffffffffffffffffffffffffffffff8114612859578181101561284b576040517f08c379a000000000000000000000000000000000000000000000000000000000815260040161284290613af0565b60405180910390fd5b6128588484848403612399565b5b50505050565b600073ffffffffffffffffffffffffffffffffffffffff168373ffffffffffffffffffffffffffffffffffffffff1614156128cf576040517f08c379a00000000000000000000000000000000000000000000000000000000081526004016128c690613c30565b60405180910390fd5b600073ffffffffffffffffffffffffffffffffffffffff168273ffffffffffffffffffffffffffffffffffffffff16141561293f576040517f08c379a000000000000000000000000000000000000000000000000000000000815260040161293690613a30565b60405180910390fd5b61294a83838361303a565b6000603360008573ffffffffffffffffffffffffffffffffffffffff1673ffffffffffffffffffffffffffffffffffffffff168152602001908152602001600020549050818110156129d1576040517f08c379a00000000000000000000000000000000000000000000000000000000081526004016129c890613b10565b60405180910390fd5b818103603360008673ffffffffffffffffffffffffffffffffffffffff1673ffffffffffffffffffffffffffffffffffffffff1681526020019081526020016000208190555081603360008573ffffffffffffffffffffffffffffffffffffffff1673ffffffffffffffffffffffffffffffffffffffff1681526020019081526020016000206000828254612a669190613d81565b925050819055508273ffffffffffffffffffffffffffffffffffffffff168473ffffffffffffffffffffffffffffffffffffffff167fddf252ad1be2c89b69c2b068fc378daa952ba7f163c4a11628f55a4df523b3ef84604051612aca9190613cf0565b60405180910390a3612add84848461303f565b50505050565b600073ffffffffffffffffffffffffffffffffffffffff168273ffffffffffffffffffffffffffffffffffffffff161415612b53576040517f08c379a0000000000000000000000000000000000000000000000000000000008152600401612b4a90613c10565b60405180910390fd5b612b5f8260008361303a565b6000603360008473ffffffffffffffffffffffffffffffffffffffff1673ffffffffffffffffffffffffffffffffffffffff16815260200190815260200160002054905081811015612be6576040517f08c379a0000000000000000000000000000000000000000000000000000000008152600401612bdd90613a50565b60405180910390fd5b818103603360008573ffffffffffffffffffffffffffffffffffffffff1673ffffffffffffffffffffffffffffffffffffffff168152602001908152602001600020819055508160356000828254612c3e9190613e62565b92505081905550600073ffffffffffffffffffffffffffffffffffffffff168373ffffffffffffffffffffffffffffffffffffffff167fddf252ad1be2c89b69c2b068fc378daa952ba7f163c4a11628f55a4df523b3ef84604051612ca39190613cf0565b60405180910390a3612cb78360008461303f565b505050565b612cc4612391565b73ffffffffffffffffffffffffffffffffffffffff16612ce2611bc9565b73ffffffffffffffffffffffffffffffffffffffff1614612d38576040517f08c379a0000000000000000000000000000000000000000000000000000000008152600401612d2f90613bf0565b60405180910390fd5b565b6000808273ffffffffffffffffffffffffffffffffffffffff163b119050919050565b600060019054906101000a900460ff16612dac576040517f08c379a0000000000000000000000000000000000000000000000000000000008152600401612da390613c70565b60405180910390fd5b612db68282613044565b5050565b600060019054906101000a900460ff16612e09576040517f08c379a0000000000000000000000000000000000000000000000000000000008152600401612e0090613c70565b60405180910390fd5b612e116130c5565b565b6000606560009054906101000a900473ffffffffffffffffffffffffffffffffffffffff16905081606560006101000a81548173ffffffffffffffffffffffffffffffffffffffff021916908373ffffffffffffffffffffffffffffffffffffffff1602179055508173ffffffffffffffffffffffffffffffffffffffff168173ffffffffffffffffffffffffffffffffffffffff167f8be0079c531659141344cd1fd0a4f28419497f9722a3daafe3b4186f6b6457e060405160405180910390a35050565b600073ffffffffffffffffffffffffffffffffffffffff168273ffffffffffffffffffffffffffffffffffffffff161415612f49576040517f08c379a0000000000000000000000000000000000000000000000000000000008152600401612f4090613cd0565b60405180910390fd5b612f556000838361303a565b8060356000828254612f679190613d81565b9250508190555080603360008473ffffffffffffffffffffffffffffffffffffffff1673ffffffffffffffffffffffffffffffffffffffff1681526020019081526020016000206000828254612fbd9190613d81565b925050819055508173ffffffffffffffffffffffffffffffffffffffff16600073ffffffffffffffffffffffffffffffffffffffff167fddf252ad1be2c89b69c2b068fc378daa952ba7f163c4a11628f55a4df523b3ef836040516130229190613cf0565b60405180910390a36130366000838361303f565b5050565b505050565b505050565b600060019054906101000a900460ff16613093576040517f08c379a000000000000000000000000000000000000000000000000000000000815260040161308a90613c70565b60405180910390fd5b81603690805190602001906130a9929190613126565b5080603790805190602001906130c0929190613126565b505050565b600060019054906101000a900460ff16613114576040517f08c379a000000000000000000000000000000000000000000000000000000000815260040161310b90613c70565b60405180910390fd5b61312461311f612391565b612e13565b565b82805461313290613f66565b90600052602060002090601f016020900481019282613154576000855561319b565b82601f1061316d57805160ff191683800117855561319b565b8280016001018555821561319b579182015b8281111561319a57825182559160200191906001019061317f565b5b5090506131a891906131ac565b5090565b5b808211156131c55760008160009055506001016131ad565b5090565b6000813590506131d881614601565b92915050565b6000815190506131ed81614618565b92915050565b60008083601f84011261320557600080fd5b8235905067ffffffffffffffff81111561321e57600080fd5b60208301915083600182028301111561323657600080fd5b9250929050565b60008135905061324c8161462f565b92915050565b6000815190506132618161462f565b92915050565b60006020828403121561327957600080fd5b6000613287848285016131c9565b91505092915050565b600080604083850312156132a357600080fd5b60006132b1858286016131c9565b92505060206132c2858286016131c9565b9150509250929050565b6000806000606084860312156132e157600080fd5b60006132ef868287016131c9565b9350506020613300868287016131c9565b92505060406133118682870161323d565b9150509250925092565b6000806040838503121561332e57600080fd5b600061333c858286016131c9565b925050602061334d8582860161323d565b9150509250929050565b60006020828403121561336957600080fd5b6000613377848285016131de565b91505092915050565b60008060008060008060008060c0898b03121561339c57600080fd5b600089013567ffffffffffffffff8111156133b657600080fd5b6133c28b828c016131f3565b9850985050602089013567ffffffffffffffff8111156133e157600080fd5b6133ed8b828c016131f3565b965096505060406134008b828c016131c9565b94505060606134118b828c016131c9565b93505060806134228b828c016131c9565b92505060a06134338b828c0161323d565b9150509295985092959890939650565b60006020828403121561345557600080fd5b60006134638482850161323d565b91505092915050565b60006020828403121561347e57600080fd5b600061348c84828501613252565b91505092915050565b61349e81613e96565b82525050565b6134ad81613ea8565b82525050565b60006134be82613d4f565b6134c88185613d65565b93506134d8818560208601613f33565b80840191505092915050565b6134ed81613eeb565b82525050565b6134fc81613f0f565b82525050565b61350b81613f21565b82525050565b600061351c82613d5a565b6135268185613d70565b9350613536818560208601613f33565b61353f81614056565b840191505092915050565b6000613557602383613d70565b915061356282614067565b604082019050919050565b600061357a602283613d70565b9150613585826140b6565b604082019050919050565b600061359d602683613d70565b91506135a882614105565b604082019050919050565b60006135c0602283613d70565b91506135cb82614154565b604082019050919050565b60006135e3601f83613d70565b91506135ee826141a3565b602082019050919050565b6000613606602f83613d70565b9150613611826141cc565b604082019050919050565b6000613629601d83613d70565b91506136348261421b565b602082019050919050565b600061364c602683613d70565b915061365782614244565b604082019050919050565b600061366f601e83613d70565b915061367a82614293565b602082019050919050565b6000613692603283613d70565b915061369d826142bc565b604082019050919050565b60006136b5602183613d70565b91506136c08261430b565b604082019050919050565b60006136d8602e83613d70565b91506136e38261435a565b604082019050919050565b60006136fb601d83613d70565b9150613706826143a9565b602082019050919050565b600061371e600d83613d70565b9150613729826143d2565b602082019050919050565b6000613741602083613d70565b915061374c826143fb565b602082019050919050565b6000613764602183613d70565b915061376f82614424565b604082019050919050565b6000613787602583613d70565b915061379282614473565b604082019050919050565b60006137aa602483613d70565b91506137b5826144c2565b604082019050919050565b60006137cd602b83613d70565b91506137d882614511565b604082019050919050565b60006137f0601183613d70565b91506137fb82614560565b602082019050919050565b6000613813602583613d70565b915061381e82614589565b604082019050919050565b6000613836601f83613d70565b9150613841826145d8565b602082019050919050565b61385581613ed4565b82525050565b61386481613ede565b82525050565b600061387682846134b3565b915081905092915050565b60006020820190506138966000830184613495565b92915050565b60006060820190506138b16000830186613495565b6138be6020830185613495565b6138cb604083018461384c565b949350505050565b60006080820190506138e86000830187613495565b6138f56020830186613495565b613902604083018561384c565b61390f60608301846134f3565b95945050505050565b600060808201905061392d6000830187613495565b61393a6020830186613495565b613947604083018561384c565b613954606083018461384c565b95945050505050565b60006040820190506139726000830185613495565b61397f602083018461384c565b9392505050565b600060608201905061399b6000830186613495565b6139a8602083018561384c565b6139b5604083018461384c565b949350505050565b60006020820190506139d260008301846134a4565b92915050565b60006020820190506139ed60008301846134e4565b92915050565b6000602082019050613a086000830184613502565b92915050565b60006020820190508181036000830152613a288184613511565b905092915050565b60006020820190508181036000830152613a498161354a565b9050919050565b60006020820190508181036000830152613a698161356d565b9050919050565b60006020820190508181036000830152613a8981613590565b9050919050565b60006020820190508181036000830152613aa9816135b3565b9050919050565b60006020820190508181036000830152613ac9816135d6565b9050919050565b60006020820190508181036000830152613ae9816135f9565b9050919050565b60006020820190508181036000830152613b098161361c565b9050919050565b60006020820190508181036000830152613b298161363f565b9050919050565b60006020820190508181036000830152613b4981613662565b9050919050565b60006020820190508181036000830152613b6981613685565b9050919050565b60006020820190508181036000830152613b89816136a8565b9050919050565b60006020820190508181036000830152613ba9816136cb565b9050919050565b60006020820190508181036000830152613bc9816136ee565b9050919050565b60006020820190508181036000830152613be981613711565b9050919050565b60006020820190508181036000830152613c0981613734565b9050919050565b60006020820190508181036000830152613c2981613757565b9050919050565b60006020820190508181036000830152613c498161377a565b9050919050565b60006020820190508181036000830152613c698161379d565b9050919050565b60006020820190508181036000830152613c89816137c0565b9050919050565b60006020820190508181036000830152613ca9816137e3565b9050919050565b60006020820190508181036000830152613cc981613806565b9050919050565b60006020820190508181036000830152613ce981613829565b9050919050565b6000602082019050613d05600083018461384c565b92915050565b6000604082019050613d20600083018561384c565b613d2d602083018461384c565b9392505050565b6000602082019050613d49600083018461385b565b92915050565b600081519050919050565b600081519050919050565b600081905092915050565b600082825260208201905092915050565b6000613d8c82613ed4565b9150613d9783613ed4565b9250827fffffffffffffffffffffffffffffffffffffffffffffffffffffffffffffffff03821115613dcc57613dcb613fc9565b5b828201905092915050565b6000613de282613ed4565b9150613ded83613ed4565b925082613dfd57613dfc613ff8565b5b828204905092915050565b6000613e1382613ed4565b9150613e1e83613ed4565b9250817fffffffffffffffffffffffffffffffffffffffffffffffffffffffffffffffff0483118215151615613e5757613e56613fc9565b5b828202905092915050565b6000613e6d82613ed4565b9150613e7883613ed4565b925082821015613e8b57613e8a613fc9565b5b828203905092915050565b6000613ea182613eb4565b9050919050565b60008115159050919050565b600073ffffffffffffffffffffffffffffffffffffffff82169050919050565b6000819050919050565b600060ff82169050919050565b6000613ef682613efd565b9050919050565b6000613f0882613eb4565b9050919050565b6000613f1a82613ed4565b9050919050565b6000613f2c82613ede565b9050919050565b60005b83811015613f51578082015181840152602081019050613f36565b83811115613f60576000848401525b50505050565b60006002820490506001821680613f7e57607f821691505b60208210811415613f9257613f91614027565b5b50919050565b6000613fa382613ed4565b9150613fae83613ed4565b925082613fbe57613fbd613ff8565b5b828206905092915050565b7f4e487b7100000000000000000000000000000000000000000000000000000000600052601160045260246000fd5b7f4e487b7100000000000000000000000000000000000000000000000000000000600052601260045260246000fd5b7f4e487b7100000000000000000000000000000000000000000000000000000000600052602260045260246000fd5b6000601f19601f8301169050919050565b7f45524332303a207472616e7366657220746f20746865207a65726f206164647260008201527f6573730000000000000000000000000000000000000000000000000000000000602082015250565b7f45524332303a206275726e20616d6f756e7420657863656564732062616c616e60008201527f6365000000000000000000000000000000000000000000000000000000000000602082015250565b7f4f776e61626c653a206e6577206f776e657220697320746865207a65726f206160008201527f6464726573730000000000000000000000000000000000000000000000000000602082015250565b7f45524332303a20617070726f766520746f20746865207a65726f20616464726560008201527f7373000000000000000000000000000000000000000000000000000000000000602082015250565b7f5661756c743a20537461796b696e672061646472657373206973207a65726f00600082015250565b7f6d73672e76616c75652069732067726561746572207468616e20616363756d7560008201527f6c6174656420696e7465726573742e0000000000000000000000000000000000602082015250565b7f45524332303a20696e73756666696369656e7420616c6c6f77616e6365000000600082015250565b7f45524332303a207472616e7366657220616d6f756e742065786365656473206260008201527f616c616e63650000000000000000000000000000000000000000000000000000602082015250565b7f4c6f616e3a2043616e7427206c6f616e206465627420616e796d6f72652e0000600082015250565b7f726570617950656e64696e67446562743a20746f6f206d756368206d73672e7660008201527f616c756520746f20726570617920646562740000000000000000000000000000602082015250565b7f5661756c743a204261736520546f6b656e206973207a65726f2061646472657360008201527f7300000000000000000000000000000000000000000000000000000000000000602082015250565b7f496e697469616c697a61626c653a20636f6e747261637420697320616c72656160008201527f647920696e697469616c697a6564000000000000000000000000000000000000602082015250565b7f5661756c743a204e6f7420537461796b696e6720636f6e74726163742e000000600082015250565b7f21736166655472616e7366657200000000000000000000000000000000000000600082015250565b7f4f776e61626c653a2063616c6c6572206973206e6f7420746865206f776e6572600082015250565b7f45524332303a206275726e2066726f6d20746865207a65726f2061646472657360008201527f7300000000000000000000000000000000000000000000000000000000000000602082015250565b7f45524332303a207472616e736665722066726f6d20746865207a65726f20616460008201527f6472657373000000000000000000000000000000000000000000000000000000602082015250565b7f45524332303a20617070726f76652066726f6d20746865207a65726f2061646460008201527f7265737300000000000000000000000000000000000000000000000000000000602082015250565b7f496e697469616c697a61626c653a20636f6e7472616374206973206e6f74206960008201527f6e697469616c697a696e67000000000000000000000000000000000000000000602082015250565b7f21736166655472616e7366657246726f6d000000000000000000000000000000600082015250565b7f45524332303a2064656372656173656420616c6c6f77616e63652062656c6f7760008201527f207a65726f000000000000000000000000000000000000000000000000000000602082015250565b7f45524332303a206d696e7420746f20746865207a65726f206164647265737300600082015250565b61460a81613e96565b811461461557600080fd5b50565b61462181613ea8565b811461462c57600080fd5b50565b61463881613ed4565b811461464357600080fd5b5056fea2646970667358221220e1f30dbc24d642ffb63c851974bcaf4ff7434d1fcc1fbf222970455232be821464736f6c63430008040033",
  "linkReferences": {},
  "deployedLinkReferences": {}
}