{
  "_format": "hh-sol-artifact-1",
  "contractName": "Vault",
  "sourceName": "contracts/token/Vault.sol",
  "abi": [
    {
      "anonymous": false,
      "inputs": [
        {
          "indexed": true,
          "internalType": "address",
          "name": "owner",
          "type": "address"
        },
        {
          "indexed": true,
          "internalType": "address",
          "name": "spender",
          "type": "address"
        },
        {
          "indexed": false,
          "internalType": "uint256",
          "name": "value",
          "type": "uint256"
        }
      ],
      "name": "Approval",
      "type": "event"
    },
    {
      "anonymous": false,
      "inputs": [
        {
          "indexed": false,
          "internalType": "address",
          "name": "user",
          "type": "address"
        },
        {
          "indexed": false,
          "internalType": "uint256",
          "name": "amount",
          "type": "uint256"
        },
        {
          "indexed": false,
          "internalType": "uint256",
          "name": "share",
          "type": "uint256"
        }
      ],
      "name": "Deposit",
      "type": "event"
    },
    {
      "anonymous": false,
      "inputs": [
        {
          "indexed": false,
          "internalType": "uint8",
          "name": "version",
          "type": "uint8"
        }
      ],
      "name": "Initialized",
      "type": "event"
    },
    {
      "anonymous": false,
      "inputs": [
        {
          "indexed": false,
          "internalType": "address",
          "name": "user",
          "type": "address"
        },
        {
          "indexed": false,
          "internalType": "uint256",
          "name": "amount",
          "type": "uint256"
        }
      ],
      "name": "Loan",
      "type": "event"
    },
    {
      "anonymous": false,
      "inputs": [
        {
          "indexed": true,
          "internalType": "address",
          "name": "previousOwner",
          "type": "address"
        },
        {
          "indexed": true,
          "internalType": "address",
          "name": "newOwner",
          "type": "address"
        }
      ],
      "name": "OwnershipTransferred",
      "type": "event"
    },
    {
      "anonymous": false,
      "inputs": [
        {
          "indexed": false,
          "internalType": "uint256",
          "name": "totalDebt",
          "type": "uint256"
        },
        {
          "indexed": false,
          "internalType": "uint256",
          "name": "interest",
          "type": "uint256"
        }
      ],
      "name": "PayInterest",
      "type": "event"
    },
    {
      "anonymous": false,
      "inputs": [
        {
          "indexed": false,
          "internalType": "address",
          "name": "user",
          "type": "address"
        },
        {
          "indexed": false,
          "internalType": "uint256",
          "name": "amount",
          "type": "uint256"
        }
      ],
      "name": "Repay",
      "type": "event"
    },
    {
      "anonymous": false,
      "inputs": [
        {
          "indexed": true,
          "internalType": "address",
          "name": "from",
          "type": "address"
        },
        {
          "indexed": true,
          "internalType": "address",
          "name": "to",
          "type": "address"
        },
        {
          "indexed": false,
          "internalType": "uint256",
          "name": "value",
          "type": "uint256"
        }
      ],
      "name": "Transfer",
      "type": "event"
    },
    {
      "anonymous": false,
      "inputs": [
        {
          "indexed": false,
          "internalType": "address",
          "name": "from",
          "type": "address"
        },
        {
          "indexed": false,
          "internalType": "address",
          "name": "to",
          "type": "address"
        },
        {
          "indexed": false,
          "internalType": "uint256",
          "name": "amount",
          "type": "uint256"
        }
      ],
      "name": "TransferDebtOwnership",
      "type": "event"
    },
    {
      "anonymous": false,
      "inputs": [
        {
          "indexed": false,
          "internalType": "uint256",
          "name": "rateBps",
          "type": "uint256"
        }
      ],
      "name": "UtilizationRate",
      "type": "event"
    },
    {
      "anonymous": false,
      "inputs": [
        {
          "indexed": false,
          "internalType": "address",
          "name": "user",
          "type": "address"
        },
        {
          "indexed": false,
          "internalType": "uint256",
          "name": "amount",
          "type": "uint256"
        },
        {
          "indexed": false,
          "internalType": "uint256",
          "name": "share",
          "type": "uint256"
        }
      ],
      "name": "Withdraw",
      "type": "event"
    },
    {
      "inputs": [
        {
          "internalType": "string",
          "name": "_name",
          "type": "string"
        },
        {
          "internalType": "string",
          "name": "_symbol",
          "type": "string"
        },
        {
          "internalType": "address",
          "name": "_stayking",
          "type": "address"
        },
        {
          "internalType": "address",
          "name": "_token",
          "type": "address"
        },
        {
          "internalType": "address",
          "name": "_interestModel",
          "type": "address"
        },
        {
          "internalType": "uint256",
          "name": "_minReservedBps",
          "type": "uint256"
        }
      ],
      "name": "__Vault_init",
      "outputs": [],
      "stateMutability": "nonpayable",
      "type": "function"
    },
    {
      "inputs": [
        {
          "internalType": "address",
          "name": "owner",
          "type": "address"
        },
        {
          "internalType": "address",
          "name": "spender",
          "type": "address"
        }
      ],
      "name": "allowance",
      "outputs": [
        {
          "internalType": "uint256",
          "name": "",
          "type": "uint256"
        }
      ],
      "stateMutability": "view",
      "type": "function"
    },
    {
      "inputs": [
        {
          "internalType": "address",
          "name": "spender",
          "type": "address"
        },
        {
          "internalType": "uint256",
          "name": "amount",
          "type": "uint256"
        }
      ],
      "name": "approve",
      "outputs": [
        {
          "internalType": "bool",
          "name": "",
          "type": "bool"
        }
      ],
      "stateMutability": "nonpayable",
      "type": "function"
    },
    {
      "inputs": [
        {
          "internalType": "address",
          "name": "account",
          "type": "address"
        }
      ],
      "name": "balanceOf",
      "outputs": [
        {
          "internalType": "uint256",
          "name": "",
          "type": "uint256"
        }
      ],
      "stateMutability": "view",
      "type": "function"
    },
    {
      "inputs": [],
      "name": "decimals",
      "outputs": [
        {
          "internalType": "uint8",
          "name": "",
          "type": "uint8"
        }
      ],
      "stateMutability": "view",
      "type": "function"
    },
    {
      "inputs": [
        {
          "internalType": "address",
          "name": "spender",
          "type": "address"
        },
        {
          "internalType": "uint256",
          "name": "subtractedValue",
          "type": "uint256"
        }
      ],
      "name": "decreaseAllowance",
      "outputs": [
        {
          "internalType": "bool",
          "name": "",
          "type": "bool"
        }
      ],
      "stateMutability": "nonpayable",
      "type": "function"
    },
    {
      "inputs": [
        {
          "internalType": "uint256",
          "name": "amount",
          "type": "uint256"
        }
      ],
      "name": "deposit",
      "outputs": [
        {
          "internalType": "uint256",
          "name": "share",
          "type": "uint256"
        }
      ],
      "stateMutability": "nonpayable",
      "type": "function"
    },
    {
      "inputs": [],
      "name": "getInterestRate",
      "outputs": [
        {
          "internalType": "uint256",
          "name": "interestRate",
          "type": "uint256"
        }
      ],
      "stateMutability": "view",
      "type": "function"
    },
    {
      "inputs": [
        {
          "internalType": "address",
          "name": "spender",
          "type": "address"
        },
        {
          "internalType": "uint256",
          "name": "addedValue",
          "type": "uint256"
        }
      ],
      "name": "increaseAllowance",
      "outputs": [
        {
          "internalType": "bool",
          "name": "",
          "type": "bool"
        }
      ],
      "stateMutability": "nonpayable",
      "type": "function"
    },
    {
      "inputs": [],
      "name": "interestModel",
      "outputs": [
        {
          "internalType": "address",
          "name": "",
          "type": "address"
        }
      ],
      "stateMutability": "view",
      "type": "function"
    },
    {
      "inputs": [
        {
          "internalType": "address",
          "name": "user",
          "type": "address"
        },
        {
          "internalType": "uint256",
          "name": "amount",
          "type": "uint256"
        }
      ],
      "name": "loan",
      "outputs": [],
      "stateMutability": "nonpayable",
      "type": "function"
    },
    {
      "inputs": [],
      "name": "name",
      "outputs": [
        {
          "internalType": "string",
          "name": "",
          "type": "string"
        }
      ],
      "stateMutability": "view",
      "type": "function"
    },
    {
      "inputs": [],
      "name": "owner",
      "outputs": [
        {
          "internalType": "address",
          "name": "",
          "type": "address"
        }
      ],
      "stateMutability": "view",
      "type": "function"
    },
    {
      "inputs": [],
      "name": "payInterest",
      "outputs": [],
      "stateMutability": "nonpayable",
      "type": "function"
    },
    {
      "inputs": [],
      "name": "renounceOwnership",
      "outputs": [],
      "stateMutability": "nonpayable",
      "type": "function"
    },
    {
      "inputs": [
        {
          "internalType": "address",
          "name": "user",
          "type": "address"
        },
        {
          "internalType": "uint256",
          "name": "amount",
          "type": "uint256"
        }
      ],
      "name": "repay",
      "outputs": [],
      "stateMutability": "nonpayable",
      "type": "function"
    },
    {
      "inputs": [],
      "name": "saveUtilizationRateBps",
      "outputs": [],
      "stateMutability": "nonpayable",
      "type": "function"
    },
    {
      "inputs": [],
      "name": "stayking",
      "outputs": [
        {
          "internalType": "address",
          "name": "",
          "type": "address"
        }
      ],
      "stateMutability": "view",
      "type": "function"
    },
    {
      "inputs": [],
      "name": "symbol",
      "outputs": [
        {
          "internalType": "string",
          "name": "",
          "type": "string"
        }
      ],
      "stateMutability": "view",
      "type": "function"
    },
    {
      "inputs": [
        {
          "internalType": "address",
          "name": "from",
          "type": "address"
        },
        {
          "internalType": "uint256",
          "name": "amount",
          "type": "uint256"
        }
      ],
      "name": "takeDebtOwnership",
      "outputs": [],
      "stateMutability": "nonpayable",
      "type": "function"
    },
    {
      "inputs": [],
      "name": "token",
      "outputs": [
        {
          "internalType": "address",
          "name": "",
          "type": "address"
        }
      ],
      "stateMutability": "view",
      "type": "function"
    },
    {
      "inputs": [],
      "name": "totalAmount",
      "outputs": [
        {
          "internalType": "uint256",
          "name": "",
          "type": "uint256"
        }
      ],
      "stateMutability": "view",
      "type": "function"
    },
    {
      "inputs": [],
      "name": "totalDebt",
      "outputs": [
        {
          "internalType": "uint256",
          "name": "",
          "type": "uint256"
        }
      ],
      "stateMutability": "view",
      "type": "function"
    },
    {
      "inputs": [],
      "name": "totalSupply",
      "outputs": [
        {
          "internalType": "uint256",
          "name": "",
          "type": "uint256"
        }
      ],
      "stateMutability": "view",
      "type": "function"
    },
    {
      "inputs": [
        {
          "internalType": "address",
          "name": "to",
          "type": "address"
        },
        {
          "internalType": "uint256",
          "name": "amount",
          "type": "uint256"
        }
      ],
      "name": "transfer",
      "outputs": [
        {
          "internalType": "bool",
          "name": "",
          "type": "bool"
        }
      ],
      "stateMutability": "nonpayable",
      "type": "function"
    },
    {
      "inputs": [
        {
          "internalType": "address",
          "name": "from",
          "type": "address"
        },
        {
          "internalType": "address",
          "name": "to",
          "type": "address"
        },
        {
          "internalType": "uint256",
          "name": "amount",
          "type": "uint256"
        }
      ],
      "name": "transferFrom",
      "outputs": [
        {
          "internalType": "bool",
          "name": "",
          "type": "bool"
        }
      ],
      "stateMutability": "nonpayable",
      "type": "function"
    },
    {
      "inputs": [
        {
          "internalType": "address",
          "name": "newOwner",
          "type": "address"
        }
      ],
      "name": "transferOwnership",
      "outputs": [],
      "stateMutability": "nonpayable",
      "type": "function"
    },
    {
      "inputs": [
        {
          "internalType": "uint256",
          "name": "newMinReservedBps",
          "type": "uint256"
        }
      ],
      "name": "updateMinReservedBps",
      "outputs": [],
      "stateMutability": "nonpayable",
      "type": "function"
    },
    {
      "inputs": [
        {
          "internalType": "address",
          "name": "newStaykingAddress",
          "type": "address"
        }
      ],
      "name": "updateStayking",
      "outputs": [],
      "stateMutability": "nonpayable",
      "type": "function"
    },
    {
      "inputs": [],
      "name": "utilizationRateBps",
      "outputs": [
        {
          "internalType": "uint256",
          "name": "",
          "type": "uint256"
        }
      ],
      "stateMutability": "view",
      "type": "function"
    },
    {
      "inputs": [
        {
          "internalType": "uint256",
          "name": "share",
          "type": "uint256"
        }
      ],
      "name": "withdraw",
      "outputs": [
        {
          "internalType": "uint256",
          "name": "amount",
          "type": "uint256"
        }
      ],
      "stateMutability": "nonpayable",
      "type": "function"
    }
  ],
  "bytecode": "0x60806040526000609d5534801561001557600080fd5b506136be806100256000396000f3fe608060405234801561001057600080fd5b50600436106101e55760003560e01c8063715018a61161010f578063b16828b7116100a2578063eab3298111610071578063eab329811461056e578063f2fde38b1461058c578063fc0c546a146105a8578063fc7b9c18146105c6576101e5565b8063b16828b7146104e8578063b6b55f25146104f2578063b9529e9f14610522578063dd62ed3e1461053e576101e5565b8063a15a211c116100de578063a15a211c14610460578063a457c2d71461046a578063a9059cbb1461049a578063ac165d7a146104ca576101e5565b8063715018a6146103fe57806378d7e54a146104085780638da5cb5b1461042457806395d89b4114610442576101e5565b806323b872dd11610187578063494e42f411610156578063494e42f4146103785780635257b5661461039457806370a08231146103b2578063714934cd146103e2576101e5565b806323b872dd146102ca5780632e1a7d4d146102fa578063313ce5671461032a5780633950935114610348576101e5565b806318160ddd116101c357806318160ddd14610256578063185cc751146102745780631a39d8ef1461029057806322867d78146102ae576101e5565b806303d98c1f146101ea57806306fdde0314610208578063095ea7b314610226575b600080fd5b6101f26105e4565b6040516101ff9190612e67565b60405180910390f35b61021061060d565b60405161021d9190612be5565b60405180910390f35b610240600480360381019061023b9190612648565b61069f565b60405161024d9190612bca565b60405180910390f35b61025e6106c2565b60405161026b9190612e67565b60405180910390f35b61028e60048036038101906102899190612648565b6106cc565b005b6102986108bd565b6040516102a59190612e67565b60405180910390f35b6102c860048036038101906102c39190612648565b61097c565b005b6102e460048036038101906102df91906125f9565b610a3d565b6040516102f19190612bca565b60405180910390f35b610314600480360381019061030f9190612770565b610a6c565b6040516103219190612e67565b60405180910390f35b610332610b0c565b60405161033f9190612eab565b60405180910390f35b610362600480360381019061035d9190612648565b610b15565b60405161036f9190612bca565b60405180910390f35b610392600480360381019061038d9190612770565b610b4c565b005b61039c610b5e565b6040516103a99190612e67565b60405180910390f35b6103cc60048036038101906103c79190612594565b610cbe565b6040516103d99190612e67565b60405180910390f35b6103fc60048036038101906103f791906126ad565b610d07565b005b610406610fd3565b005b610422600480360381019061041d9190612594565b610fe7565b005b61042c611033565b6040516104399190612b18565b60405180910390f35b61044a61105d565b6040516104579190612be5565b60405180910390f35b6104686110ef565b005b610484600480360381019061047f9190612648565b611217565b6040516104919190612bca565b60405180910390f35b6104b460048036038101906104af9190612648565b61128e565b6040516104c19190612bca565b60405180910390f35b6104d26112b1565b6040516104df9190612b18565b60405180910390f35b6104f06112d7565b005b61050c60048036038101906105079190612770565b611354565b6040516105199190612e67565b60405180910390f35b61053c60048036038101906105379190612648565b611409565b005b610558600480360381019061055391906125bd565b611584565b6040516105659190612e67565b60405180910390f35b61057661160b565b6040516105839190612b18565b60405180910390f35b6105a660048036038101906105a19190612594565b611631565b005b6105b06116b5565b6040516105bd9190612b18565b60405180910390f35b6105ce6116db565b6040516105db9190612e67565b60405180910390f35b60006105ee6106c2565b609b546127106105fe9190612f7f565b6106089190612f4e565b905090565b60606036805461061c90613095565b80601f016020809104026020016040519081016040528092919081815260200182805461064890613095565b80156106955780601f1061066a57610100808354040283529160200191610695565b820191906000526020600020905b81548152906001019060200180831161067857829003601f168201915b5050505050905090565b6000806106aa6116e1565b90506106b78185856116e9565b600191505092915050565b6000603554905090565b609860009054906101000a900473ffffffffffffffffffffffffffffffffffffffff1673ffffffffffffffffffffffffffffffffffffffff163373ffffffffffffffffffffffffffffffffffffffff161461075c576040517f08c379a000000000000000000000000000000000000000000000000000000000815260040161075390612d27565b60405180910390fd5b80609a60008473ffffffffffffffffffffffffffffffffffffffff1673ffffffffffffffffffffffffffffffffffffffff16815260200190815260200160002060008282546107ab9190612ef8565b9250508190555080609b60008282546107c49190612ef8565b92505081905550609c546107d66108bd565b6107e09190612f7f565b612710609b546107f09190612f7f565b1115610831576040517f08c379a000000000000000000000000000000000000000000000000000000000815260040161082890612ce7565b60405180910390fd5b610880609760009054906101000a900473ffffffffffffffffffffffffffffffffffffffff16609860009054906101000a900473ffffffffffffffffffffffffffffffffffffffff16836118b4565b7f1db23cf53464267c45324569941e81e23d29c48ff9be2b35af2cc0a2681159d682826040516108b1929190612b6a565b60405180910390a15050565b6000609b54609760009054906101000a900473ffffffffffffffffffffffffffffffffffffffff1673ffffffffffffffffffffffffffffffffffffffff166370a08231306040518263ffffffff1660e01b815260040161091d9190612b18565b60206040518083038186803b15801561093557600080fd5b505afa158015610949573d6000803e3d6000fd5b505050506040513d601f19601f8201168201806040525081019061096d9190612799565b6109779190612ef8565b905090565b80609a60008473ffffffffffffffffffffffffffffffffffffffff1673ffffffffffffffffffffffffffffffffffffffff16815260200190815260200160002060008282546109cb9190612fd9565b92505081905550610a00609760009054906101000a900473ffffffffffffffffffffffffffffffffffffffff168330846119ea565b7f5c16de4f8b59bd9caf0f49a545f25819a895ed223294290b408242e72a5942318282604051610a31929190612b6a565b60405180910390a15050565b600080610a486116e1565b9050610a55858285611b23565b610a60858585611baf565b60019150509392505050565b6000610a766106c2565b610a7e6108bd565b83610a899190612f7f565b610a939190612f4e565b9050610a9f3383611e33565b610acc609760009054906101000a900473ffffffffffffffffffffffffffffffffffffffff1633836118b4565b7ff279e6a1f5e320cca91135676d9cb6e44ca8a08c0b88342bcdb1144f6511b568338284604051610aff93929190612b93565b60405180910390a1919050565b60006012905090565b600080610b206116e1565b9050610b41818585610b328589611584565b610b3c9190612ef8565b6116e9565b600191505092915050565b610b5461200c565b80609c8190555050565b6000609960009054906101000a900473ffffffffffffffffffffffffffffffffffffffff1673ffffffffffffffffffffffffffffffffffffffff1663d4a99bbb609b54609760009054906101000a900473ffffffffffffffffffffffffffffffffffffffff1673ffffffffffffffffffffffffffffffffffffffff166370a08231306040518263ffffffff1660e01b8152600401610bfc9190612b18565b60206040518083038186803b158015610c1457600080fd5b505afa158015610c28573d6000803e3d6000fd5b505050506040513d601f19601f82011682018060405250810190610c4c9190612799565b6040518363ffffffff1660e01b8152600401610c69929190612e82565b60206040518083038186803b158015610c8157600080fd5b505afa158015610c95573d6000803e3d6000fd5b505050506040513d601f19601f82011682018060405250810190610cb99190612799565b905090565b6000603360008373ffffffffffffffffffffffffffffffffffffffff1673ffffffffffffffffffffffffffffffffffffffff168152602001908152602001600020549050919050565b600060019054906101000a900460ff16610d56576040517f08c379a0000000000000000000000000000000000000000000000000000000008152600401610d4d90612de7565b60405180910390fd5b600073ffffffffffffffffffffffffffffffffffffffff168473ffffffffffffffffffffffffffffffffffffffff161415610dc6576040517f08c379a0000000000000000000000000000000000000000000000000000000008152600401610dbd90612c87565b60405180910390fd5b600073ffffffffffffffffffffffffffffffffffffffff168373ffffffffffffffffffffffffffffffffffffffff161415610e36576040517f08c379a0000000000000000000000000000000000000000000000000000000008152600401610e2d90612d07565b60405180910390fd5b610ec888888080601f016020809104026020016040519081016040528093929190818152602001838380828437600081840152601f19601f8201169050808301925050505050505087878080601f016020809104026020016040519081016040528093929190818152602001838380828437600081840152601f19601f8201169050808301925050505050505061208a565b610ed06120e7565b83609860006101000a81548173ffffffffffffffffffffffffffffffffffffffff021916908373ffffffffffffffffffffffffffffffffffffffff16021790555082609760006101000a81548173ffffffffffffffffffffffffffffffffffffffff021916908373ffffffffffffffffffffffffffffffffffffffff16021790555081609960006101000a81548173ffffffffffffffffffffffffffffffffffffffff021916908373ffffffffffffffffffffffffffffffffffffffff16021790555080609c81905550620151806361b2a69042610fae9190612fd9565b610fb891906130c7565b42610fc39190612fd9565b609e819055505050505050505050565b610fdb61200c565b610fe56000612140565b565b610fef61200c565b80609860006101000a81548173ffffffffffffffffffffffffffffffffffffffff021916908373ffffffffffffffffffffffffffffffffffffffff16021790555050565b6000606560009054906101000a900473ffffffffffffffffffffffffffffffffffffffff16905090565b60606037805461106c90613095565b80601f016020809104026020016040519081016040528092919081815260200182805461109890613095565b80156110e55780601f106110ba576101008083540402835291602001916110e5565b820191906000526020600020905b8154815290600101906020018083116110c857829003601f168201915b5050505050905090565b609860009054906101000a900473ffffffffffffffffffffffffffffffffffffffff1673ffffffffffffffffffffffffffffffffffffffff163373ffffffffffffffffffffffffffffffffffffffff161461117f576040517f08c379a000000000000000000000000000000000000000000000000000000000815260040161117690612d27565b60405180910390fd5b6000670de0b6b3a7640000611192610b5e565b609b5461119f9190612f7f565b6111a99190612f4e565b90506111d9609760009054906101000a900473ffffffffffffffffffffffffffffffffffffffff163330846119ea565b7f57546d41506d4d7643c2ea350647fa3d6ada23d1de3afa7a32496df9b7686bc0609b548260405161120c929190612e82565b60405180910390a150565b6000806112226116e1565b905060006112308286611584565b905083811015611275576040517f08c379a000000000000000000000000000000000000000000000000000000000815260040161126c90612e27565b60405180910390fd5b61128282868684036116e9565b60019250505092915050565b6000806112996116e1565b90506112a6818585611baf565b600191505092915050565b609960009054906101000a900473ffffffffffffffffffffffffffffffffffffffff1681565b62015180609e546112e89190612ef8565b4210611352576112f66105e4565b609d8190555062015180609e60008282546113119190612ef8565b925050819055507f163eacd81cbfca2d1ec176759e7107e34229c5cbc5ec0b3fde68ffdef1157e02609d546040516113499190612e67565b60405180910390a15b565b60008061135f6108bd565b90506000811461138c57806113726106c2565b8461137d9190612f7f565b6113879190612f4e565b61138e565b825b91506113be609760009054906101000a900473ffffffffffffffffffffffffffffffffffffffff163330866119ea565b6113c83383612206565b7f90890809c654f11d6e72a28fa60149770a0d11ec6c92319d6ceb2bb0a4ea1a153384846040516113fb93929190612b93565b60405180910390a150919050565b609860009054906101000a900473ffffffffffffffffffffffffffffffffffffffff1673ffffffffffffffffffffffffffffffffffffffff163373ffffffffffffffffffffffffffffffffffffffff1614611499576040517f08c379a000000000000000000000000000000000000000000000000000000000815260040161149090612d27565b60405180910390fd5b80609a60008473ffffffffffffffffffffffffffffffffffffffff1673ffffffffffffffffffffffffffffffffffffffff16815260200190815260200160002060008282546114e89190612fd9565b9250508190555080609a60003373ffffffffffffffffffffffffffffffffffffffff1673ffffffffffffffffffffffffffffffffffffffff168152602001908152602001600020600082825461153e9190612ef8565b925050819055507f80caff6c1c70cc823c773c968ebdab44b7dc12da8117b4634b5f3eb78b07011e82338360405161157893929190612b33565b60405180910390a15050565b6000603460008473ffffffffffffffffffffffffffffffffffffffff1673ffffffffffffffffffffffffffffffffffffffff16815260200190815260200160002060008373ffffffffffffffffffffffffffffffffffffffff1673ffffffffffffffffffffffffffffffffffffffff16815260200190815260200160002054905092915050565b609860009054906101000a900473ffffffffffffffffffffffffffffffffffffffff1681565b61163961200c565b600073ffffffffffffffffffffffffffffffffffffffff168173ffffffffffffffffffffffffffffffffffffffff1614156116a9576040517f08c379a00000000000000000000000000000000000000000000000000000000081526004016116a090612c47565b60405180910390fd5b6116b281612140565b50565b609760009054906101000a900473ffffffffffffffffffffffffffffffffffffffff1681565b609b5481565b600033905090565b600073ffffffffffffffffffffffffffffffffffffffff168373ffffffffffffffffffffffffffffffffffffffff161415611759576040517f08c379a000000000000000000000000000000000000000000000000000000000815260040161175090612dc7565b60405180910390fd5b600073ffffffffffffffffffffffffffffffffffffffff168273ffffffffffffffffffffffffffffffffffffffff1614156117c9576040517f08c379a00000000000000000000000000000000000000000000000000000000081526004016117c090612c67565b60405180910390fd5b80603460008573ffffffffffffffffffffffffffffffffffffffff1673ffffffffffffffffffffffffffffffffffffffff16815260200190815260200160002060008473ffffffffffffffffffffffffffffffffffffffff1673ffffffffffffffffffffffffffffffffffffffff168152602001908152602001600020819055508173ffffffffffffffffffffffffffffffffffffffff168373ffffffffffffffffffffffffffffffffffffffff167f8c5be1e5ebec7d5bd14f71427d1e84f3dd0314c0f7b2291e5b200ac8c7c3b925836040516118a79190612e67565b60405180910390a3505050565b6000808473ffffffffffffffffffffffffffffffffffffffff1663a9059cbb85856040516024016118e6929190612b6a565b6040516020818303038152906040529060e01b6020820180517bffffffffffffffffffffffffffffffffffffffffffffffffffffffff83818316178352505050506040516119349190612b01565b6000604051808303816000865af19150503d8060008114611971576040519150601f19603f3d011682016040523d82523d6000602084013e611976565b606091505b50915091508180156119a457506000815114806119a35750808060200190518101906119a29190612684565b5b5b6119e3576040517f08c379a00000000000000000000000000000000000000000000000000000000081526004016119da90612d47565b60405180910390fd5b5050505050565b6000808573ffffffffffffffffffffffffffffffffffffffff166323b872dd868686604051602401611a1e93929190612b33565b6040516020818303038152906040529060e01b6020820180517bffffffffffffffffffffffffffffffffffffffffffffffffffffffff8381831617835250505050604051611a6c9190612b01565b6000604051808303816000865af19150503d8060008114611aa9576040519150601f19603f3d011682016040523d82523d6000602084013e611aae565b606091505b5091509150818015611adc5750600081511480611adb575080806020019051810190611ada9190612684565b5b5b611b1b576040517f08c379a0000000000000000000000000000000000000000000000000000000008152600401611b1290612e07565b60405180910390fd5b505050505050565b6000611b2f8484611584565b90507fffffffffffffffffffffffffffffffffffffffffffffffffffffffffffffffff8114611ba95781811015611b9b576040517f08c379a0000000000000000000000000000000000000000000000000000000008152600401611b9290612ca7565b60405180910390fd5b611ba884848484036116e9565b5b50505050565b600073ffffffffffffffffffffffffffffffffffffffff168373ffffffffffffffffffffffffffffffffffffffff161415611c1f576040517f08c379a0000000000000000000000000000000000000000000000000000000008152600401611c1690612da7565b60405180910390fd5b600073ffffffffffffffffffffffffffffffffffffffff168273ffffffffffffffffffffffffffffffffffffffff161415611c8f576040517f08c379a0000000000000000000000000000000000000000000000000000000008152600401611c8690612c07565b60405180910390fd5b611c9a838383612367565b6000603360008573ffffffffffffffffffffffffffffffffffffffff1673ffffffffffffffffffffffffffffffffffffffff16815260200190815260200160002054905081811015611d21576040517f08c379a0000000000000000000000000000000000000000000000000000000008152600401611d1890612cc7565b60405180910390fd5b818103603360008673ffffffffffffffffffffffffffffffffffffffff1673ffffffffffffffffffffffffffffffffffffffff1681526020019081526020016000208190555081603360008573ffffffffffffffffffffffffffffffffffffffff1673ffffffffffffffffffffffffffffffffffffffff1681526020019081526020016000206000828254611db69190612ef8565b925050819055508273ffffffffffffffffffffffffffffffffffffffff168473ffffffffffffffffffffffffffffffffffffffff167fddf252ad1be2c89b69c2b068fc378daa952ba7f163c4a11628f55a4df523b3ef84604051611e1a9190612e67565b60405180910390a3611e2d84848461236c565b50505050565b600073ffffffffffffffffffffffffffffffffffffffff168273ffffffffffffffffffffffffffffffffffffffff161415611ea3576040517f08c379a0000000000000000000000000000000000000000000000000000000008152600401611e9a90612d87565b60405180910390fd5b611eaf82600083612367565b6000603360008473ffffffffffffffffffffffffffffffffffffffff1673ffffffffffffffffffffffffffffffffffffffff16815260200190815260200160002054905081811015611f36576040517f08c379a0000000000000000000000000000000000000000000000000000000008152600401611f2d90612c27565b60405180910390fd5b818103603360008573ffffffffffffffffffffffffffffffffffffffff1673ffffffffffffffffffffffffffffffffffffffff168152602001908152602001600020819055508160356000828254611f8e9190612fd9565b92505081905550600073ffffffffffffffffffffffffffffffffffffffff168373ffffffffffffffffffffffffffffffffffffffff167fddf252ad1be2c89b69c2b068fc378daa952ba7f163c4a11628f55a4df523b3ef84604051611ff39190612e67565b60405180910390a36120078360008461236c565b505050565b6120146116e1565b73ffffffffffffffffffffffffffffffffffffffff16612032611033565b73ffffffffffffffffffffffffffffffffffffffff1614612088576040517f08c379a000000000000000000000000000000000000000000000000000000000815260040161207f90612d67565b60405180910390fd5b565b600060019054906101000a900460ff166120d9576040517f08c379a00000000000000000000000000000000000000000000000000000000081526004016120d090612de7565b60405180910390fd5b6120e38282612371565b5050565b600060019054906101000a900460ff16612136576040517f08c379a000000000000000000000000000000000000000000000000000000000815260040161212d90612de7565b60405180910390fd5b61213e6123f2565b565b6000606560009054906101000a900473ffffffffffffffffffffffffffffffffffffffff16905081606560006101000a81548173ffffffffffffffffffffffffffffffffffffffff021916908373ffffffffffffffffffffffffffffffffffffffff1602179055508173ffffffffffffffffffffffffffffffffffffffff168173ffffffffffffffffffffffffffffffffffffffff167f8be0079c531659141344cd1fd0a4f28419497f9722a3daafe3b4186f6b6457e060405160405180910390a35050565b600073ffffffffffffffffffffffffffffffffffffffff168273ffffffffffffffffffffffffffffffffffffffff161415612276576040517f08c379a000000000000000000000000000000000000000000000000000000000815260040161226d90612e47565b60405180910390fd5b61228260008383612367565b80603560008282546122949190612ef8565b9250508190555080603360008473ffffffffffffffffffffffffffffffffffffffff1673ffffffffffffffffffffffffffffffffffffffff16815260200190815260200160002060008282546122ea9190612ef8565b925050819055508173ffffffffffffffffffffffffffffffffffffffff16600073ffffffffffffffffffffffffffffffffffffffff167fddf252ad1be2c89b69c2b068fc378daa952ba7f163c4a11628f55a4df523b3ef8360405161234f9190612e67565b60405180910390a36123636000838361236c565b5050565b505050565b505050565b600060019054906101000a900460ff166123c0576040517f08c379a00000000000000000000000000000000000000000000000000000000081526004016123b790612de7565b60405180910390fd5b81603690805190602001906123d6929190612453565b5080603790805190602001906123ed929190612453565b505050565b600060019054906101000a900460ff16612441576040517f08c379a000000000000000000000000000000000000000000000000000000000815260040161243890612de7565b60405180910390fd5b61245161244c6116e1565b612140565b565b82805461245f90613095565b90600052602060002090601f01602090048101928261248157600085556124c8565b82601f1061249a57805160ff19168380011785556124c8565b828001600101855582156124c8579182015b828111156124c75782518255916020019190600101906124ac565b5b5090506124d591906124d9565b5090565b5b808211156124f25760008160009055506001016124da565b5090565b60008135905061250581613643565b92915050565b60008151905061251a8161365a565b92915050565b60008083601f84011261253257600080fd5b8235905067ffffffffffffffff81111561254b57600080fd5b60208301915083600182028301111561256357600080fd5b9250929050565b60008135905061257981613671565b92915050565b60008151905061258e81613671565b92915050565b6000602082840312156125a657600080fd5b60006125b4848285016124f6565b91505092915050565b600080604083850312156125d057600080fd5b60006125de858286016124f6565b92505060206125ef858286016124f6565b9150509250929050565b60008060006060848603121561260e57600080fd5b600061261c868287016124f6565b935050602061262d868287016124f6565b925050604061263e8682870161256a565b9150509250925092565b6000806040838503121561265b57600080fd5b6000612669858286016124f6565b925050602061267a8582860161256a565b9150509250929050565b60006020828403121561269657600080fd5b60006126a48482850161250b565b91505092915050565b60008060008060008060008060c0898b0312156126c957600080fd5b600089013567ffffffffffffffff8111156126e357600080fd5b6126ef8b828c01612520565b9850985050602089013567ffffffffffffffff81111561270e57600080fd5b61271a8b828c01612520565b9650965050604061272d8b828c016124f6565b945050606061273e8b828c016124f6565b935050608061274f8b828c016124f6565b92505060a06127608b828c0161256a565b9150509295985092959890939650565b60006020828403121561278257600080fd5b60006127908482850161256a565b91505092915050565b6000602082840312156127ab57600080fd5b60006127b98482850161257f565b91505092915050565b6127cb8161300d565b82525050565b6127da8161301f565b82525050565b60006127eb82612ec6565b6127f58185612edc565b9350612805818560208601613062565b80840191505092915050565b600061281c82612ed1565b6128268185612ee7565b9350612836818560208601613062565b61283f81613185565b840191505092915050565b6000612857602383612ee7565b915061286282613196565b604082019050919050565b600061287a602283612ee7565b9150612885826131e5565b604082019050919050565b600061289d602683612ee7565b91506128a882613234565b604082019050919050565b60006128c0602283612ee7565b91506128cb82613283565b604082019050919050565b60006128e3601f83612ee7565b91506128ee826132d2565b602082019050919050565b6000612906601d83612ee7565b9150612911826132fb565b602082019050919050565b6000612929602683612ee7565b915061293482613324565b604082019050919050565b600061294c601e83612ee7565b915061295782613373565b602082019050919050565b600061296f602183612ee7565b915061297a8261339c565b604082019050919050565b6000612992601d83612ee7565b915061299d826133eb565b602082019050919050565b60006129b5600d83612ee7565b91506129c082613414565b602082019050919050565b60006129d8602083612ee7565b91506129e38261343d565b602082019050919050565b60006129fb602183612ee7565b9150612a0682613466565b604082019050919050565b6000612a1e602583612ee7565b9150612a29826134b5565b604082019050919050565b6000612a41602483612ee7565b9150612a4c82613504565b604082019050919050565b6000612a64602b83612ee7565b9150612a6f82613553565b604082019050919050565b6000612a87601183612ee7565b9150612a92826135a2565b602082019050919050565b6000612aaa602583612ee7565b9150612ab5826135cb565b604082019050919050565b6000612acd601f83612ee7565b9150612ad88261361a565b602082019050919050565b612aec8161304b565b82525050565b612afb81613055565b82525050565b6000612b0d82846127e0565b915081905092915050565b6000602082019050612b2d60008301846127c2565b92915050565b6000606082019050612b4860008301866127c2565b612b5560208301856127c2565b612b626040830184612ae3565b949350505050565b6000604082019050612b7f60008301856127c2565b612b8c6020830184612ae3565b9392505050565b6000606082019050612ba860008301866127c2565b612bb56020830185612ae3565b612bc26040830184612ae3565b949350505050565b6000602082019050612bdf60008301846127d1565b92915050565b60006020820190508181036000830152612bff8184612811565b905092915050565b60006020820190508181036000830152612c208161284a565b9050919050565b60006020820190508181036000830152612c408161286d565b9050919050565b60006020820190508181036000830152612c6081612890565b9050919050565b60006020820190508181036000830152612c80816128b3565b9050919050565b60006020820190508181036000830152612ca0816128d6565b9050919050565b60006020820190508181036000830152612cc0816128f9565b9050919050565b60006020820190508181036000830152612ce08161291c565b9050919050565b60006020820190508181036000830152612d008161293f565b9050919050565b60006020820190508181036000830152612d2081612962565b9050919050565b60006020820190508181036000830152612d4081612985565b9050919050565b60006020820190508181036000830152612d60816129a8565b9050919050565b60006020820190508181036000830152612d80816129cb565b9050919050565b60006020820190508181036000830152612da0816129ee565b9050919050565b60006020820190508181036000830152612dc081612a11565b9050919050565b60006020820190508181036000830152612de081612a34565b9050919050565b60006020820190508181036000830152612e0081612a57565b9050919050565b60006020820190508181036000830152612e2081612a7a565b9050919050565b60006020820190508181036000830152612e4081612a9d565b9050919050565b60006020820190508181036000830152612e6081612ac0565b9050919050565b6000602082019050612e7c6000830184612ae3565b92915050565b6000604082019050612e976000830185612ae3565b612ea46020830184612ae3565b9392505050565b6000602082019050612ec06000830184612af2565b92915050565b600081519050919050565b600081519050919050565b600081905092915050565b600082825260208201905092915050565b6000612f038261304b565b9150612f0e8361304b565b9250827fffffffffffffffffffffffffffffffffffffffffffffffffffffffffffffffff03821115612f4357612f426130f8565b5b828201905092915050565b6000612f598261304b565b9150612f648361304b565b925082612f7457612f73613127565b5b828204905092915050565b6000612f8a8261304b565b9150612f958361304b565b9250817fffffffffffffffffffffffffffffffffffffffffffffffffffffffffffffffff0483118215151615612fce57612fcd6130f8565b5b828202905092915050565b6000612fe48261304b565b9150612fef8361304b565b925082821015613002576130016130f8565b5b828203905092915050565b60006130188261302b565b9050919050565b60008115159050919050565b600073ffffffffffffffffffffffffffffffffffffffff82169050919050565b6000819050919050565b600060ff82169050919050565b60005b83811015613080578082015181840152602081019050613065565b8381111561308f576000848401525b50505050565b600060028204905060018216806130ad57607f821691505b602082108114156130c1576130c0613156565b5b50919050565b60006130d28261304b565b91506130dd8361304b565b9250826130ed576130ec613127565b5b828206905092915050565b7f4e487b7100000000000000000000000000000000000000000000000000000000600052601160045260246000fd5b7f4e487b7100000000000000000000000000000000000000000000000000000000600052601260045260246000fd5b7f4e487b7100000000000000000000000000000000000000000000000000000000600052602260045260246000fd5b6000601f19601f8301169050919050565b7f45524332303a207472616e7366657220746f20746865207a65726f206164647260008201527f6573730000000000000000000000000000000000000000000000000000000000602082015250565b7f45524332303a206275726e20616d6f756e7420657863656564732062616c616e60008201527f6365000000000000000000000000000000000000000000000000000000000000602082015250565b7f4f776e61626c653a206e6577206f776e657220697320746865207a65726f206160008201527f6464726573730000000000000000000000000000000000000000000000000000602082015250565b7f45524332303a20617070726f766520746f20746865207a65726f20616464726560008201527f7373000000000000000000000000000000000000000000000000000000000000602082015250565b7f5661756c743a20537461796b696e672061646472657373206973207a65726f00600082015250565b7f45524332303a20696e73756666696369656e7420616c6c6f77616e6365000000600082015250565b7f45524332303a207472616e7366657220616d6f756e742065786365656473206260008201527f616c616e63650000000000000000000000000000000000000000000000000000602082015250565b7f4c6f616e3a2043616e7427206c6f616e206465627420616e796d6f72652e0000600082015250565b7f5661756c743a204261736520546f6b656e206973207a65726f2061646472657360008201527f7300000000000000000000000000000000000000000000000000000000000000602082015250565b7f5661756c743a204e6f7420537461796b696e6720636f6e74726163742e000000600082015250565b7f21736166655472616e7366657200000000000000000000000000000000000000600082015250565b7f4f776e61626c653a2063616c6c6572206973206e6f7420746865206f776e6572600082015250565b7f45524332303a206275726e2066726f6d20746865207a65726f2061646472657360008201527f7300000000000000000000000000000000000000000000000000000000000000602082015250565b7f45524332303a207472616e736665722066726f6d20746865207a65726f20616460008201527f6472657373000000000000000000000000000000000000000000000000000000602082015250565b7f45524332303a20617070726f76652066726f6d20746865207a65726f2061646460008201527f7265737300000000000000000000000000000000000000000000000000000000602082015250565b7f496e697469616c697a61626c653a20636f6e7472616374206973206e6f74206960008201527f6e697469616c697a696e67000000000000000000000000000000000000000000602082015250565b7f21736166655472616e7366657246726f6d000000000000000000000000000000600082015250565b7f45524332303a2064656372656173656420616c6c6f77616e63652062656c6f7760008201527f207a65726f000000000000000000000000000000000000000000000000000000602082015250565b7f45524332303a206d696e7420746f20746865207a65726f206164647265737300600082015250565b61364c8161300d565b811461365757600080fd5b50565b6136638161301f565b811461366e57600080fd5b50565b61367a8161304b565b811461368557600080fd5b5056fea264697066735822122089c1c440d90e2b6148cdbb79a28a28d6cbba5c74bb70ed6d7ca592b2b7c331ae64736f6c63430008040033",
  "linkReferences": {},
  "deployedLinkReferences": {}
}