{
  "_format": "hh-sol-artifact-1",
  "contractName": "Vault",
  "sourceName": "contracts/token/Vault.sol",
  "abi": [
    {
      "anonymous": false,
      "inputs": [
        {
          "indexed": true,
          "internalType": "address",
          "name": "owner",
          "type": "address"
        },
        {
          "indexed": true,
          "internalType": "address",
          "name": "spender",
          "type": "address"
        },
        {
          "indexed": false,
          "internalType": "uint256",
          "name": "value",
          "type": "uint256"
        }
      ],
      "name": "Approval",
      "type": "event"
    },
    {
      "anonymous": false,
      "inputs": [
        {
          "indexed": false,
          "internalType": "address",
          "name": "user",
          "type": "address"
        },
        {
          "indexed": false,
          "internalType": "uint256",
          "name": "amount",
          "type": "uint256"
        },
        {
          "indexed": false,
          "internalType": "uint256",
          "name": "share",
          "type": "uint256"
        }
      ],
      "name": "Deposit",
      "type": "event"
    },
    {
      "anonymous": false,
      "inputs": [
        {
          "indexed": false,
          "internalType": "uint8",
          "name": "version",
          "type": "uint8"
        }
      ],
      "name": "Initialized",
      "type": "event"
    },
    {
      "anonymous": false,
      "inputs": [
        {
          "indexed": false,
          "internalType": "address",
          "name": "user",
          "type": "address"
        },
        {
          "indexed": false,
          "internalType": "uint256",
          "name": "amount",
          "type": "uint256"
        }
      ],
      "name": "Loan",
      "type": "event"
    },
    {
      "anonymous": false,
      "inputs": [
        {
          "indexed": true,
          "internalType": "address",
          "name": "previousOwner",
          "type": "address"
        },
        {
          "indexed": true,
          "internalType": "address",
          "name": "newOwner",
          "type": "address"
        }
      ],
      "name": "OwnershipTransferred",
      "type": "event"
    },
    {
      "anonymous": false,
      "inputs": [
        {
          "indexed": false,
          "internalType": "uint256",
          "name": "totalDebt",
          "type": "uint256"
        },
        {
          "indexed": false,
          "internalType": "uint256",
          "name": "interest",
          "type": "uint256"
        }
      ],
      "name": "PayInterest",
      "type": "event"
    },
    {
      "anonymous": false,
      "inputs": [
        {
          "indexed": false,
          "internalType": "address",
          "name": "user",
          "type": "address"
        },
        {
          "indexed": false,
          "internalType": "uint256",
          "name": "amount",
          "type": "uint256"
        }
      ],
      "name": "Repay",
      "type": "event"
    },
    {
      "anonymous": false,
      "inputs": [
        {
          "indexed": true,
          "internalType": "address",
          "name": "from",
          "type": "address"
        },
        {
          "indexed": true,
          "internalType": "address",
          "name": "to",
          "type": "address"
        },
        {
          "indexed": false,
          "internalType": "uint256",
          "name": "value",
          "type": "uint256"
        }
      ],
      "name": "Transfer",
      "type": "event"
    },
    {
      "anonymous": false,
      "inputs": [
        {
          "indexed": false,
          "internalType": "address",
          "name": "from",
          "type": "address"
        },
        {
          "indexed": false,
          "internalType": "address",
          "name": "to",
          "type": "address"
        },
        {
          "indexed": false,
          "internalType": "uint256",
          "name": "amount",
          "type": "uint256"
        }
      ],
      "name": "TransferDebtOwnership",
      "type": "event"
    },
    {
      "anonymous": false,
      "inputs": [
        {
          "indexed": false,
          "internalType": "uint256",
          "name": "rateBps",
          "type": "uint256"
        }
      ],
      "name": "UtilizationRate",
      "type": "event"
    },
    {
      "anonymous": false,
      "inputs": [
        {
          "indexed": false,
          "internalType": "address",
          "name": "user",
          "type": "address"
        },
        {
          "indexed": false,
          "internalType": "uint256",
          "name": "amount",
          "type": "uint256"
        },
        {
          "indexed": false,
          "internalType": "uint256",
          "name": "share",
          "type": "uint256"
        }
      ],
      "name": "Withdraw",
      "type": "event"
    },
    {
      "inputs": [
        {
          "internalType": "string",
          "name": "_name",
          "type": "string"
        },
        {
          "internalType": "string",
          "name": "_symbol",
          "type": "string"
        },
        {
          "internalType": "address",
          "name": "_stayking",
          "type": "address"
        },
        {
          "internalType": "address",
          "name": "_token",
          "type": "address"
        },
        {
          "internalType": "address",
          "name": "_interestModel",
          "type": "address"
        },
        {
          "internalType": "uint256",
          "name": "_minReservedBps",
          "type": "uint256"
        }
      ],
      "name": "__Vault_init",
      "outputs": [],
      "stateMutability": "nonpayable",
      "type": "function"
    },
    {
      "inputs": [
        {
          "internalType": "address",
          "name": "owner",
          "type": "address"
        },
        {
          "internalType": "address",
          "name": "spender",
          "type": "address"
        }
      ],
      "name": "allowance",
      "outputs": [
        {
          "internalType": "uint256",
          "name": "",
          "type": "uint256"
        }
      ],
      "stateMutability": "view",
      "type": "function"
    },
    {
      "inputs": [
        {
          "internalType": "address",
          "name": "spender",
          "type": "address"
        },
        {
          "internalType": "uint256",
          "name": "amount",
          "type": "uint256"
        }
      ],
      "name": "approve",
      "outputs": [
        {
          "internalType": "bool",
          "name": "",
          "type": "bool"
        }
      ],
      "stateMutability": "nonpayable",
      "type": "function"
    },
    {
      "inputs": [
        {
          "internalType": "address",
          "name": "account",
          "type": "address"
        }
      ],
      "name": "balanceOf",
      "outputs": [
        {
          "internalType": "uint256",
          "name": "",
          "type": "uint256"
        }
      ],
      "stateMutability": "view",
      "type": "function"
    },
    {
      "inputs": [],
      "name": "decimals",
      "outputs": [
        {
          "internalType": "uint8",
          "name": "",
          "type": "uint8"
        }
      ],
      "stateMutability": "view",
      "type": "function"
    },
    {
      "inputs": [
        {
          "internalType": "address",
          "name": "spender",
          "type": "address"
        },
        {
          "internalType": "uint256",
          "name": "subtractedValue",
          "type": "uint256"
        }
      ],
      "name": "decreaseAllowance",
      "outputs": [
        {
          "internalType": "bool",
          "name": "",
          "type": "bool"
        }
      ],
      "stateMutability": "nonpayable",
      "type": "function"
    },
    {
      "inputs": [
        {
          "internalType": "uint256",
          "name": "amount",
          "type": "uint256"
        }
      ],
      "name": "deposit",
      "outputs": [
        {
          "internalType": "uint256",
          "name": "share",
          "type": "uint256"
        }
      ],
      "stateMutability": "nonpayable",
      "type": "function"
    },
    {
      "inputs": [],
      "name": "getInterestRate",
      "outputs": [
        {
          "internalType": "uint256",
          "name": "interestRate",
          "type": "uint256"
        }
      ],
      "stateMutability": "view",
      "type": "function"
    },
    {
      "inputs": [
        {
          "internalType": "address",
          "name": "spender",
          "type": "address"
        },
        {
          "internalType": "uint256",
          "name": "addedValue",
          "type": "uint256"
        }
      ],
      "name": "increaseAllowance",
      "outputs": [
        {
          "internalType": "bool",
          "name": "",
          "type": "bool"
        }
      ],
      "stateMutability": "nonpayable",
      "type": "function"
    },
    {
      "inputs": [],
      "name": "interestModel",
      "outputs": [
        {
          "internalType": "address",
          "name": "",
          "type": "address"
        }
      ],
      "stateMutability": "view",
      "type": "function"
    },
    {
      "inputs": [
        {
          "internalType": "address",
          "name": "user",
          "type": "address"
        },
        {
          "internalType": "uint256",
          "name": "amount",
          "type": "uint256"
        }
      ],
      "name": "loan",
      "outputs": [],
      "stateMutability": "nonpayable",
      "type": "function"
    },
    {
      "inputs": [],
      "name": "name",
      "outputs": [
        {
          "internalType": "string",
          "name": "",
          "type": "string"
        }
      ],
      "stateMutability": "view",
      "type": "function"
    },
    {
      "inputs": [],
      "name": "owner",
      "outputs": [
        {
          "internalType": "address",
          "name": "",
          "type": "address"
        }
      ],
      "stateMutability": "view",
      "type": "function"
    },
    {
      "inputs": [],
      "name": "payInterest",
      "outputs": [],
      "stateMutability": "nonpayable",
      "type": "function"
    },
    {
      "inputs": [],
      "name": "renounceOwnership",
      "outputs": [],
      "stateMutability": "nonpayable",
      "type": "function"
    },
    {
      "inputs": [
        {
          "internalType": "address",
          "name": "user",
          "type": "address"
        },
        {
          "internalType": "uint256",
          "name": "amount",
          "type": "uint256"
        }
      ],
      "name": "repay",
      "outputs": [],
      "stateMutability": "nonpayable",
      "type": "function"
    },
    {
      "inputs": [],
      "name": "saveUtilizationRateBps",
      "outputs": [],
      "stateMutability": "nonpayable",
      "type": "function"
    },
    {
      "inputs": [],
      "name": "stayking",
      "outputs": [
        {
          "internalType": "address",
          "name": "",
          "type": "address"
        }
      ],
      "stateMutability": "view",
      "type": "function"
    },
    {
      "inputs": [],
      "name": "symbol",
      "outputs": [
        {
          "internalType": "string",
          "name": "",
          "type": "string"
        }
      ],
      "stateMutability": "view",
      "type": "function"
    },
    {
      "inputs": [
        {
          "internalType": "address",
          "name": "from",
          "type": "address"
        },
        {
          "internalType": "uint256",
          "name": "amount",
          "type": "uint256"
        }
      ],
      "name": "takeDebtOwnership",
      "outputs": [],
      "stateMutability": "nonpayable",
      "type": "function"
    },
    {
      "inputs": [],
      "name": "token",
      "outputs": [
        {
          "internalType": "address",
          "name": "",
          "type": "address"
        }
      ],
      "stateMutability": "view",
      "type": "function"
    },
    {
      "inputs": [],
      "name": "totalAmount",
      "outputs": [
        {
          "internalType": "uint256",
          "name": "",
          "type": "uint256"
        }
      ],
      "stateMutability": "view",
      "type": "function"
    },
    {
      "inputs": [],
      "name": "totalDebt",
      "outputs": [
        {
          "internalType": "uint256",
          "name": "",
          "type": "uint256"
        }
      ],
      "stateMutability": "view",
      "type": "function"
    },
    {
      "inputs": [],
      "name": "totalSupply",
      "outputs": [
        {
          "internalType": "uint256",
          "name": "",
          "type": "uint256"
        }
      ],
      "stateMutability": "view",
      "type": "function"
    },
    {
      "inputs": [
        {
          "internalType": "address",
          "name": "to",
          "type": "address"
        },
        {
          "internalType": "uint256",
          "name": "amount",
          "type": "uint256"
        }
      ],
      "name": "transfer",
      "outputs": [
        {
          "internalType": "bool",
          "name": "",
          "type": "bool"
        }
      ],
      "stateMutability": "nonpayable",
      "type": "function"
    },
    {
      "inputs": [
        {
          "internalType": "address",
          "name": "from",
          "type": "address"
        },
        {
          "internalType": "address",
          "name": "to",
          "type": "address"
        },
        {
          "internalType": "uint256",
          "name": "amount",
          "type": "uint256"
        }
      ],
      "name": "transferFrom",
      "outputs": [
        {
          "internalType": "bool",
          "name": "",
          "type": "bool"
        }
      ],
      "stateMutability": "nonpayable",
      "type": "function"
    },
    {
      "inputs": [
        {
          "internalType": "address",
          "name": "newOwner",
          "type": "address"
        }
      ],
      "name": "transferOwnership",
      "outputs": [],
      "stateMutability": "nonpayable",
      "type": "function"
    },
    {
      "inputs": [
        {
          "internalType": "uint256",
          "name": "newMinReservedBps",
          "type": "uint256"
        }
      ],
      "name": "updateMinReservedBps",
      "outputs": [],
      "stateMutability": "nonpayable",
      "type": "function"
    },
    {
      "inputs": [
        {
          "internalType": "address",
          "name": "newStaykingAddress",
          "type": "address"
        }
      ],
      "name": "updateStayking",
      "outputs": [],
      "stateMutability": "nonpayable",
      "type": "function"
    },
    {
      "inputs": [],
      "name": "utilizationRateBps",
      "outputs": [
        {
          "internalType": "uint256",
          "name": "",
          "type": "uint256"
        }
      ],
      "stateMutability": "view",
      "type": "function"
    },
    {
      "inputs": [
        {
          "internalType": "uint256",
          "name": "share",
          "type": "uint256"
        }
      ],
      "name": "withdraw",
      "outputs": [
        {
          "internalType": "uint256",
          "name": "amount",
          "type": "uint256"
        }
      ],
      "stateMutability": "nonpayable",
      "type": "function"
    }
  ],
  "bytecode": "0x60806040526000609d5534801561001557600080fd5b5061374e806100256000396000f3fe608060405234801561001057600080fd5b50600436106101e55760003560e01c8063715018a61161010f578063b16828b7116100a2578063eab3298111610071578063eab329811461056e578063f2fde38b1461058c578063fc0c546a146105a8578063fc7b9c18146105c6576101e5565b8063b16828b7146104e8578063b6b55f25146104f2578063b9529e9f14610522578063dd62ed3e1461053e576101e5565b8063a15a211c116100de578063a15a211c14610460578063a457c2d71461046a578063a9059cbb1461049a578063ac165d7a146104ca576101e5565b8063715018a6146103fe57806378d7e54a146104085780638da5cb5b1461042457806395d89b4114610442576101e5565b806323b872dd11610187578063494e42f411610156578063494e42f4146103785780635257b5661461039457806370a08231146103b2578063714934cd146103e2576101e5565b806323b872dd146102ca5780632e1a7d4d146102fa578063313ce5671461032a5780633950935114610348576101e5565b806318160ddd116101c357806318160ddd14610256578063185cc751146102745780631a39d8ef1461029057806322867d78146102ae576101e5565b806303d98c1f146101ea57806306fdde0314610208578063095ea7b314610226575b600080fd5b6101f26105e4565b6040516101ff9190612ef7565b60405180910390f35b61021061060d565b60405161021d9190612c75565b60405180910390f35b610240600480360381019061023b91906126d8565b61069f565b60405161024d9190612c5a565b60405180910390f35b61025e6106c2565b60405161026b9190612ef7565b60405180910390f35b61028e600480360381019061028991906126d8565b6106cc565b005b6102986108bd565b6040516102a59190612ef7565b60405180910390f35b6102c860048036038101906102c391906126d8565b61097c565b005b6102e460048036038101906102df9190612689565b610acd565b6040516102f19190612c5a565b60405180910390f35b610314600480360381019061030f9190612800565b610afc565b6040516103219190612ef7565b60405180910390f35b610332610b9c565b60405161033f9190612f3b565b60405180910390f35b610362600480360381019061035d91906126d8565b610ba5565b60405161036f9190612c5a565b60405180910390f35b610392600480360381019061038d9190612800565b610bdc565b005b61039c610bee565b6040516103a99190612ef7565b60405180910390f35b6103cc60048036038101906103c79190612624565b610d4e565b6040516103d99190612ef7565b60405180910390f35b6103fc60048036038101906103f7919061273d565b610d97565b005b610406611063565b005b610422600480360381019061041d9190612624565b611077565b005b61042c6110c3565b6040516104399190612ba8565b60405180910390f35b61044a6110ed565b6040516104579190612c75565b60405180910390f35b61046861117f565b005b610484600480360381019061047f91906126d8565b6112a7565b6040516104919190612c5a565b60405180910390f35b6104b460048036038101906104af91906126d8565b61131e565b6040516104c19190612c5a565b60405180910390f35b6104d2611341565b6040516104df9190612ba8565b60405180910390f35b6104f0611367565b005b61050c60048036038101906105079190612800565b6113e4565b6040516105199190612ef7565b60405180910390f35b61053c600480360381019061053791906126d8565b611499565b005b6105586004803603810190610553919061264d565b611614565b6040516105659190612ef7565b60405180910390f35b61057661169b565b6040516105839190612ba8565b60405180910390f35b6105a660048036038101906105a19190612624565b6116c1565b005b6105b0611745565b6040516105bd9190612ba8565b60405180910390f35b6105ce61176b565b6040516105db9190612ef7565b60405180910390f35b60006105ee6106c2565b609b546127106105fe919061300f565b6106089190612fde565b905090565b60606036805461061c90613125565b80601f016020809104026020016040519081016040528092919081815260200182805461064890613125565b80156106955780601f1061066a57610100808354040283529160200191610695565b820191906000526020600020905b81548152906001019060200180831161067857829003601f168201915b5050505050905090565b6000806106aa611771565b90506106b7818585611779565b600191505092915050565b6000603554905090565b609860009054906101000a900473ffffffffffffffffffffffffffffffffffffffff1673ffffffffffffffffffffffffffffffffffffffff163373ffffffffffffffffffffffffffffffffffffffff161461075c576040517f08c379a000000000000000000000000000000000000000000000000000000000815260040161075390612db7565b60405180910390fd5b80609a60008473ffffffffffffffffffffffffffffffffffffffff1673ffffffffffffffffffffffffffffffffffffffff16815260200190815260200160002060008282546107ab9190612f88565b9250508190555080609b60008282546107c49190612f88565b92505081905550609c546107d66108bd565b6107e0919061300f565b612710609b546107f0919061300f565b1115610831576040517f08c379a000000000000000000000000000000000000000000000000000000000815260040161082890612d77565b60405180910390fd5b610880609760009054906101000a900473ffffffffffffffffffffffffffffffffffffffff16609860009054906101000a900473ffffffffffffffffffffffffffffffffffffffff1683611944565b7f1db23cf53464267c45324569941e81e23d29c48ff9be2b35af2cc0a2681159d682826040516108b1929190612bfa565b60405180910390a15050565b6000609b54609760009054906101000a900473ffffffffffffffffffffffffffffffffffffffff1673ffffffffffffffffffffffffffffffffffffffff166370a08231306040518263ffffffff1660e01b815260040161091d9190612ba8565b60206040518083038186803b15801561093557600080fd5b505afa158015610949573d6000803e3d6000fd5b505050506040513d601f19601f8201168201806040525081019061096d9190612829565b6109779190612f88565b905090565b609860009054906101000a900473ffffffffffffffffffffffffffffffffffffffff1673ffffffffffffffffffffffffffffffffffffffff163373ffffffffffffffffffffffffffffffffffffffff1614610a0c576040517f08c379a0000000000000000000000000000000000000000000000000000000008152600401610a0390612db7565b60405180910390fd5b80609a60008473ffffffffffffffffffffffffffffffffffffffff1673ffffffffffffffffffffffffffffffffffffffff1681526020019081526020016000206000828254610a5b9190613069565b92505081905550610a90609760009054906101000a900473ffffffffffffffffffffffffffffffffffffffff16833084611a7a565b7f5c16de4f8b59bd9caf0f49a545f25819a895ed223294290b408242e72a5942318282604051610ac1929190612bfa565b60405180910390a15050565b600080610ad8611771565b9050610ae5858285611bb3565b610af0858585611c3f565b60019150509392505050565b6000610b066106c2565b610b0e6108bd565b83610b19919061300f565b610b239190612fde565b9050610b2f3383611ec3565b610b5c609760009054906101000a900473ffffffffffffffffffffffffffffffffffffffff163383611944565b7ff279e6a1f5e320cca91135676d9cb6e44ca8a08c0b88342bcdb1144f6511b568338284604051610b8f93929190612c23565b60405180910390a1919050565b60006012905090565b600080610bb0611771565b9050610bd1818585610bc28589611614565b610bcc9190612f88565b611779565b600191505092915050565b610be461209c565b80609c8190555050565b6000609960009054906101000a900473ffffffffffffffffffffffffffffffffffffffff1673ffffffffffffffffffffffffffffffffffffffff1663d4a99bbb609b54609760009054906101000a900473ffffffffffffffffffffffffffffffffffffffff1673ffffffffffffffffffffffffffffffffffffffff166370a08231306040518263ffffffff1660e01b8152600401610c8c9190612ba8565b60206040518083038186803b158015610ca457600080fd5b505afa158015610cb8573d6000803e3d6000fd5b505050506040513d601f19601f82011682018060405250810190610cdc9190612829565b6040518363ffffffff1660e01b8152600401610cf9929190612f12565b60206040518083038186803b158015610d1157600080fd5b505afa158015610d25573d6000803e3d6000fd5b505050506040513d601f19601f82011682018060405250810190610d499190612829565b905090565b6000603360008373ffffffffffffffffffffffffffffffffffffffff1673ffffffffffffffffffffffffffffffffffffffff168152602001908152602001600020549050919050565b600060019054906101000a900460ff16610de6576040517f08c379a0000000000000000000000000000000000000000000000000000000008152600401610ddd90612e77565b60405180910390fd5b600073ffffffffffffffffffffffffffffffffffffffff168473ffffffffffffffffffffffffffffffffffffffff161415610e56576040517f08c379a0000000000000000000000000000000000000000000000000000000008152600401610e4d90612d17565b60405180910390fd5b600073ffffffffffffffffffffffffffffffffffffffff168373ffffffffffffffffffffffffffffffffffffffff161415610ec6576040517f08c379a0000000000000000000000000000000000000000000000000000000008152600401610ebd90612d97565b60405180910390fd5b610f5888888080601f016020809104026020016040519081016040528093929190818152602001838380828437600081840152601f19601f8201169050808301925050505050505087878080601f016020809104026020016040519081016040528093929190818152602001838380828437600081840152601f19601f8201169050808301925050505050505061211a565b610f60612177565b83609860006101000a81548173ffffffffffffffffffffffffffffffffffffffff021916908373ffffffffffffffffffffffffffffffffffffffff16021790555082609760006101000a81548173ffffffffffffffffffffffffffffffffffffffff021916908373ffffffffffffffffffffffffffffffffffffffff16021790555081609960006101000a81548173ffffffffffffffffffffffffffffffffffffffff021916908373ffffffffffffffffffffffffffffffffffffffff16021790555080609c81905550620151806361b2a6904261103e9190613069565b6110489190613157565b426110539190613069565b609e819055505050505050505050565b61106b61209c565b61107560006121d0565b565b61107f61209c565b80609860006101000a81548173ffffffffffffffffffffffffffffffffffffffff021916908373ffffffffffffffffffffffffffffffffffffffff16021790555050565b6000606560009054906101000a900473ffffffffffffffffffffffffffffffffffffffff16905090565b6060603780546110fc90613125565b80601f016020809104026020016040519081016040528092919081815260200182805461112890613125565b80156111755780601f1061114a57610100808354040283529160200191611175565b820191906000526020600020905b81548152906001019060200180831161115857829003601f168201915b5050505050905090565b609860009054906101000a900473ffffffffffffffffffffffffffffffffffffffff1673ffffffffffffffffffffffffffffffffffffffff163373ffffffffffffffffffffffffffffffffffffffff161461120f576040517f08c379a000000000000000000000000000000000000000000000000000000000815260040161120690612db7565b60405180910390fd5b6000670de0b6b3a7640000611222610bee565b609b5461122f919061300f565b6112399190612fde565b9050611269609760009054906101000a900473ffffffffffffffffffffffffffffffffffffffff16333084611a7a565b7f57546d41506d4d7643c2ea350647fa3d6ada23d1de3afa7a32496df9b7686bc0609b548260405161129c929190612f12565b60405180910390a150565b6000806112b2611771565b905060006112c08286611614565b905083811015611305576040517f08c379a00000000000000000000000000000000000000000000000000000000081526004016112fc90612eb7565b60405180910390fd5b6113128286868403611779565b60019250505092915050565b600080611329611771565b9050611336818585611c3f565b600191505092915050565b609960009054906101000a900473ffffffffffffffffffffffffffffffffffffffff1681565b62015180609e546113789190612f88565b42106113e2576113866105e4565b609d8190555062015180609e60008282546113a19190612f88565b925050819055507f163eacd81cbfca2d1ec176759e7107e34229c5cbc5ec0b3fde68ffdef1157e02609d546040516113d99190612ef7565b60405180910390a15b565b6000806113ef6108bd565b90506000811461141c57806114026106c2565b8461140d919061300f565b6114179190612fde565b61141e565b825b915061144e609760009054906101000a900473ffffffffffffffffffffffffffffffffffffffff16333086611a7a565b6114583383612296565b7f90890809c654f11d6e72a28fa60149770a0d11ec6c92319d6ceb2bb0a4ea1a1533848460405161148b93929190612c23565b60405180910390a150919050565b609860009054906101000a900473ffffffffffffffffffffffffffffffffffffffff1673ffffffffffffffffffffffffffffffffffffffff163373ffffffffffffffffffffffffffffffffffffffff1614611529576040517f08c379a000000000000000000000000000000000000000000000000000000000815260040161152090612db7565b60405180910390fd5b80609a60008473ffffffffffffffffffffffffffffffffffffffff1673ffffffffffffffffffffffffffffffffffffffff16815260200190815260200160002060008282546115789190613069565b9250508190555080609a60003373ffffffffffffffffffffffffffffffffffffffff1673ffffffffffffffffffffffffffffffffffffffff16815260200190815260200160002060008282546115ce9190612f88565b925050819055507f80caff6c1c70cc823c773c968ebdab44b7dc12da8117b4634b5f3eb78b07011e82338360405161160893929190612bc3565b60405180910390a15050565b6000603460008473ffffffffffffffffffffffffffffffffffffffff1673ffffffffffffffffffffffffffffffffffffffff16815260200190815260200160002060008373ffffffffffffffffffffffffffffffffffffffff1673ffffffffffffffffffffffffffffffffffffffff16815260200190815260200160002054905092915050565b609860009054906101000a900473ffffffffffffffffffffffffffffffffffffffff1681565b6116c961209c565b600073ffffffffffffffffffffffffffffffffffffffff168173ffffffffffffffffffffffffffffffffffffffff161415611739576040517f08c379a000000000000000000000000000000000000000000000000000000000815260040161173090612cd7565b60405180910390fd5b611742816121d0565b50565b609760009054906101000a900473ffffffffffffffffffffffffffffffffffffffff1681565b609b5481565b600033905090565b600073ffffffffffffffffffffffffffffffffffffffff168373ffffffffffffffffffffffffffffffffffffffff1614156117e9576040517f08c379a00000000000000000000000000000000000000000000000000000000081526004016117e090612e57565b60405180910390fd5b600073ffffffffffffffffffffffffffffffffffffffff168273ffffffffffffffffffffffffffffffffffffffff161415611859576040517f08c379a000000000000000000000000000000000000000000000000000000000815260040161185090612cf7565b60405180910390fd5b80603460008573ffffffffffffffffffffffffffffffffffffffff1673ffffffffffffffffffffffffffffffffffffffff16815260200190815260200160002060008473ffffffffffffffffffffffffffffffffffffffff1673ffffffffffffffffffffffffffffffffffffffff168152602001908152602001600020819055508173ffffffffffffffffffffffffffffffffffffffff168373ffffffffffffffffffffffffffffffffffffffff167f8c5be1e5ebec7d5bd14f71427d1e84f3dd0314c0f7b2291e5b200ac8c7c3b925836040516119379190612ef7565b60405180910390a3505050565b6000808473ffffffffffffffffffffffffffffffffffffffff1663a9059cbb8585604051602401611976929190612bfa565b6040516020818303038152906040529060e01b6020820180517bffffffffffffffffffffffffffffffffffffffffffffffffffffffff83818316178352505050506040516119c49190612b91565b6000604051808303816000865af19150503d8060008114611a01576040519150601f19603f3d011682016040523d82523d6000602084013e611a06565b606091505b5091509150818015611a345750600081511480611a33575080806020019051810190611a329190612714565b5b5b611a73576040517f08c379a0000000000000000000000000000000000000000000000000000000008152600401611a6a90612dd7565b60405180910390fd5b5050505050565b6000808573ffffffffffffffffffffffffffffffffffffffff166323b872dd868686604051602401611aae93929190612bc3565b6040516020818303038152906040529060e01b6020820180517bffffffffffffffffffffffffffffffffffffffffffffffffffffffff8381831617835250505050604051611afc9190612b91565b6000604051808303816000865af19150503d8060008114611b39576040519150601f19603f3d011682016040523d82523d6000602084013e611b3e565b606091505b5091509150818015611b6c5750600081511480611b6b575080806020019051810190611b6a9190612714565b5b5b611bab576040517f08c379a0000000000000000000000000000000000000000000000000000000008152600401611ba290612e97565b60405180910390fd5b505050505050565b6000611bbf8484611614565b90507fffffffffffffffffffffffffffffffffffffffffffffffffffffffffffffffff8114611c395781811015611c2b576040517f08c379a0000000000000000000000000000000000000000000000000000000008152600401611c2290612d37565b60405180910390fd5b611c388484848403611779565b5b50505050565b600073ffffffffffffffffffffffffffffffffffffffff168373ffffffffffffffffffffffffffffffffffffffff161415611caf576040517f08c379a0000000000000000000000000000000000000000000000000000000008152600401611ca690612e37565b60405180910390fd5b600073ffffffffffffffffffffffffffffffffffffffff168273ffffffffffffffffffffffffffffffffffffffff161415611d1f576040517f08c379a0000000000000000000000000000000000000000000000000000000008152600401611d1690612c97565b60405180910390fd5b611d2a8383836123f7565b6000603360008573ffffffffffffffffffffffffffffffffffffffff1673ffffffffffffffffffffffffffffffffffffffff16815260200190815260200160002054905081811015611db1576040517f08c379a0000000000000000000000000000000000000000000000000000000008152600401611da890612d57565b60405180910390fd5b818103603360008673ffffffffffffffffffffffffffffffffffffffff1673ffffffffffffffffffffffffffffffffffffffff1681526020019081526020016000208190555081603360008573ffffffffffffffffffffffffffffffffffffffff1673ffffffffffffffffffffffffffffffffffffffff1681526020019081526020016000206000828254611e469190612f88565b925050819055508273ffffffffffffffffffffffffffffffffffffffff168473ffffffffffffffffffffffffffffffffffffffff167fddf252ad1be2c89b69c2b068fc378daa952ba7f163c4a11628f55a4df523b3ef84604051611eaa9190612ef7565b60405180910390a3611ebd8484846123fc565b50505050565b600073ffffffffffffffffffffffffffffffffffffffff168273ffffffffffffffffffffffffffffffffffffffff161415611f33576040517f08c379a0000000000000000000000000000000000000000000000000000000008152600401611f2a90612e17565b60405180910390fd5b611f3f826000836123f7565b6000603360008473ffffffffffffffffffffffffffffffffffffffff1673ffffffffffffffffffffffffffffffffffffffff16815260200190815260200160002054905081811015611fc6576040517f08c379a0000000000000000000000000000000000000000000000000000000008152600401611fbd90612cb7565b60405180910390fd5b818103603360008573ffffffffffffffffffffffffffffffffffffffff1673ffffffffffffffffffffffffffffffffffffffff16815260200190815260200160002081905550816035600082825461201e9190613069565b92505081905550600073ffffffffffffffffffffffffffffffffffffffff168373ffffffffffffffffffffffffffffffffffffffff167fddf252ad1be2c89b69c2b068fc378daa952ba7f163c4a11628f55a4df523b3ef846040516120839190612ef7565b60405180910390a3612097836000846123fc565b505050565b6120a4611771565b73ffffffffffffffffffffffffffffffffffffffff166120c26110c3565b73ffffffffffffffffffffffffffffffffffffffff1614612118576040517f08c379a000000000000000000000000000000000000000000000000000000000815260040161210f90612df7565b60405180910390fd5b565b600060019054906101000a900460ff16612169576040517f08c379a000000000000000000000000000000000000000000000000000000000815260040161216090612e77565b60405180910390fd5b6121738282612401565b5050565b600060019054906101000a900460ff166121c6576040517f08c379a00000000000000000000000000000000000000000000000000000000081526004016121bd90612e77565b60405180910390fd5b6121ce612482565b565b6000606560009054906101000a900473ffffffffffffffffffffffffffffffffffffffff16905081606560006101000a81548173ffffffffffffffffffffffffffffffffffffffff021916908373ffffffffffffffffffffffffffffffffffffffff1602179055508173ffffffffffffffffffffffffffffffffffffffff168173ffffffffffffffffffffffffffffffffffffffff167f8be0079c531659141344cd1fd0a4f28419497f9722a3daafe3b4186f6b6457e060405160405180910390a35050565b600073ffffffffffffffffffffffffffffffffffffffff168273ffffffffffffffffffffffffffffffffffffffff161415612306576040517f08c379a00000000000000000000000000000000000000000000000000000000081526004016122fd90612ed7565b60405180910390fd5b612312600083836123f7565b80603560008282546123249190612f88565b9250508190555080603360008473ffffffffffffffffffffffffffffffffffffffff1673ffffffffffffffffffffffffffffffffffffffff168152602001908152602001600020600082825461237a9190612f88565b925050819055508173ffffffffffffffffffffffffffffffffffffffff16600073ffffffffffffffffffffffffffffffffffffffff167fddf252ad1be2c89b69c2b068fc378daa952ba7f163c4a11628f55a4df523b3ef836040516123df9190612ef7565b60405180910390a36123f3600083836123fc565b5050565b505050565b505050565b600060019054906101000a900460ff16612450576040517f08c379a000000000000000000000000000000000000000000000000000000000815260040161244790612e77565b60405180910390fd5b81603690805190602001906124669291906124e3565b50806037908051906020019061247d9291906124e3565b505050565b600060019054906101000a900460ff166124d1576040517f08c379a00000000000000000000000000000000000000000000000000000000081526004016124c890612e77565b60405180910390fd5b6124e16124dc611771565b6121d0565b565b8280546124ef90613125565b90600052602060002090601f0160209004810192826125115760008555612558565b82601f1061252a57805160ff1916838001178555612558565b82800160010185558215612558579182015b8281111561255757825182559160200191906001019061253c565b5b5090506125659190612569565b5090565b5b8082111561258257600081600090555060010161256a565b5090565b600081359050612595816136d3565b92915050565b6000815190506125aa816136ea565b92915050565b60008083601f8401126125c257600080fd5b8235905067ffffffffffffffff8111156125db57600080fd5b6020830191508360018202830111156125f357600080fd5b9250929050565b60008135905061260981613701565b92915050565b60008151905061261e81613701565b92915050565b60006020828403121561263657600080fd5b600061264484828501612586565b91505092915050565b6000806040838503121561266057600080fd5b600061266e85828601612586565b925050602061267f85828601612586565b9150509250929050565b60008060006060848603121561269e57600080fd5b60006126ac86828701612586565b93505060206126bd86828701612586565b92505060406126ce868287016125fa565b9150509250925092565b600080604083850312156126eb57600080fd5b60006126f985828601612586565b925050602061270a858286016125fa565b9150509250929050565b60006020828403121561272657600080fd5b60006127348482850161259b565b91505092915050565b60008060008060008060008060c0898b03121561275957600080fd5b600089013567ffffffffffffffff81111561277357600080fd5b61277f8b828c016125b0565b9850985050602089013567ffffffffffffffff81111561279e57600080fd5b6127aa8b828c016125b0565b965096505060406127bd8b828c01612586565b94505060606127ce8b828c01612586565b93505060806127df8b828c01612586565b92505060a06127f08b828c016125fa565b9150509295985092959890939650565b60006020828403121561281257600080fd5b6000612820848285016125fa565b91505092915050565b60006020828403121561283b57600080fd5b60006128498482850161260f565b91505092915050565b61285b8161309d565b82525050565b61286a816130af565b82525050565b600061287b82612f56565b6128858185612f6c565b93506128958185602086016130f2565b80840191505092915050565b60006128ac82612f61565b6128b68185612f77565b93506128c68185602086016130f2565b6128cf81613215565b840191505092915050565b60006128e7602383612f77565b91506128f282613226565b604082019050919050565b600061290a602283612f77565b915061291582613275565b604082019050919050565b600061292d602683612f77565b9150612938826132c4565b604082019050919050565b6000612950602283612f77565b915061295b82613313565b604082019050919050565b6000612973601f83612f77565b915061297e82613362565b602082019050919050565b6000612996601d83612f77565b91506129a18261338b565b602082019050919050565b60006129b9602683612f77565b91506129c4826133b4565b604082019050919050565b60006129dc601e83612f77565b91506129e782613403565b602082019050919050565b60006129ff602183612f77565b9150612a0a8261342c565b604082019050919050565b6000612a22601d83612f77565b9150612a2d8261347b565b602082019050919050565b6000612a45600d83612f77565b9150612a50826134a4565b602082019050919050565b6000612a68602083612f77565b9150612a73826134cd565b602082019050919050565b6000612a8b602183612f77565b9150612a96826134f6565b604082019050919050565b6000612aae602583612f77565b9150612ab982613545565b604082019050919050565b6000612ad1602483612f77565b9150612adc82613594565b604082019050919050565b6000612af4602b83612f77565b9150612aff826135e3565b604082019050919050565b6000612b17601183612f77565b9150612b2282613632565b602082019050919050565b6000612b3a602583612f77565b9150612b458261365b565b604082019050919050565b6000612b5d601f83612f77565b9150612b68826136aa565b602082019050919050565b612b7c816130db565b82525050565b612b8b816130e5565b82525050565b6000612b9d8284612870565b915081905092915050565b6000602082019050612bbd6000830184612852565b92915050565b6000606082019050612bd86000830186612852565b612be56020830185612852565b612bf26040830184612b73565b949350505050565b6000604082019050612c0f6000830185612852565b612c1c6020830184612b73565b9392505050565b6000606082019050612c386000830186612852565b612c456020830185612b73565b612c526040830184612b73565b949350505050565b6000602082019050612c6f6000830184612861565b92915050565b60006020820190508181036000830152612c8f81846128a1565b905092915050565b60006020820190508181036000830152612cb0816128da565b9050919050565b60006020820190508181036000830152612cd0816128fd565b9050919050565b60006020820190508181036000830152612cf081612920565b9050919050565b60006020820190508181036000830152612d1081612943565b9050919050565b60006020820190508181036000830152612d3081612966565b9050919050565b60006020820190508181036000830152612d5081612989565b9050919050565b60006020820190508181036000830152612d70816129ac565b9050919050565b60006020820190508181036000830152612d90816129cf565b9050919050565b60006020820190508181036000830152612db0816129f2565b9050919050565b60006020820190508181036000830152612dd081612a15565b9050919050565b60006020820190508181036000830152612df081612a38565b9050919050565b60006020820190508181036000830152612e1081612a5b565b9050919050565b60006020820190508181036000830152612e3081612a7e565b9050919050565b60006020820190508181036000830152612e5081612aa1565b9050919050565b60006020820190508181036000830152612e7081612ac4565b9050919050565b60006020820190508181036000830152612e9081612ae7565b9050919050565b60006020820190508181036000830152612eb081612b0a565b9050919050565b60006020820190508181036000830152612ed081612b2d565b9050919050565b60006020820190508181036000830152612ef081612b50565b9050919050565b6000602082019050612f0c6000830184612b73565b92915050565b6000604082019050612f276000830185612b73565b612f346020830184612b73565b9392505050565b6000602082019050612f506000830184612b82565b92915050565b600081519050919050565b600081519050919050565b600081905092915050565b600082825260208201905092915050565b6000612f93826130db565b9150612f9e836130db565b9250827fffffffffffffffffffffffffffffffffffffffffffffffffffffffffffffffff03821115612fd357612fd2613188565b5b828201905092915050565b6000612fe9826130db565b9150612ff4836130db565b925082613004576130036131b7565b5b828204905092915050565b600061301a826130db565b9150613025836130db565b9250817fffffffffffffffffffffffffffffffffffffffffffffffffffffffffffffffff048311821515161561305e5761305d613188565b5b828202905092915050565b6000613074826130db565b915061307f836130db565b92508282101561309257613091613188565b5b828203905092915050565b60006130a8826130bb565b9050919050565b60008115159050919050565b600073ffffffffffffffffffffffffffffffffffffffff82169050919050565b6000819050919050565b600060ff82169050919050565b60005b838110156131105780820151818401526020810190506130f5565b8381111561311f576000848401525b50505050565b6000600282049050600182168061313d57607f821691505b60208210811415613151576131506131e6565b5b50919050565b6000613162826130db565b915061316d836130db565b92508261317d5761317c6131b7565b5b828206905092915050565b7f4e487b7100000000000000000000000000000000000000000000000000000000600052601160045260246000fd5b7f4e487b7100000000000000000000000000000000000000000000000000000000600052601260045260246000fd5b7f4e487b7100000000000000000000000000000000000000000000000000000000600052602260045260246000fd5b6000601f19601f8301169050919050565b7f45524332303a207472616e7366657220746f20746865207a65726f206164647260008201527f6573730000000000000000000000000000000000000000000000000000000000602082015250565b7f45524332303a206275726e20616d6f756e7420657863656564732062616c616e60008201527f6365000000000000000000000000000000000000000000000000000000000000602082015250565b7f4f776e61626c653a206e6577206f776e657220697320746865207a65726f206160008201527f6464726573730000000000000000000000000000000000000000000000000000602082015250565b7f45524332303a20617070726f766520746f20746865207a65726f20616464726560008201527f7373000000000000000000000000000000000000000000000000000000000000602082015250565b7f5661756c743a20537461796b696e672061646472657373206973207a65726f00600082015250565b7f45524332303a20696e73756666696369656e7420616c6c6f77616e6365000000600082015250565b7f45524332303a207472616e7366657220616d6f756e742065786365656473206260008201527f616c616e63650000000000000000000000000000000000000000000000000000602082015250565b7f4c6f616e3a2043616e7427206c6f616e206465627420616e796d6f72652e0000600082015250565b7f5661756c743a204261736520546f6b656e206973207a65726f2061646472657360008201527f7300000000000000000000000000000000000000000000000000000000000000602082015250565b7f5661756c743a204e6f7420537461796b696e6720636f6e74726163742e000000600082015250565b7f21736166655472616e7366657200000000000000000000000000000000000000600082015250565b7f4f776e61626c653a2063616c6c6572206973206e6f7420746865206f776e6572600082015250565b7f45524332303a206275726e2066726f6d20746865207a65726f2061646472657360008201527f7300000000000000000000000000000000000000000000000000000000000000602082015250565b7f45524332303a207472616e736665722066726f6d20746865207a65726f20616460008201527f6472657373000000000000000000000000000000000000000000000000000000602082015250565b7f45524332303a20617070726f76652066726f6d20746865207a65726f2061646460008201527f7265737300000000000000000000000000000000000000000000000000000000602082015250565b7f496e697469616c697a61626c653a20636f6e7472616374206973206e6f74206960008201527f6e697469616c697a696e67000000000000000000000000000000000000000000602082015250565b7f21736166655472616e7366657246726f6d000000000000000000000000000000600082015250565b7f45524332303a2064656372656173656420616c6c6f77616e63652062656c6f7760008201527f207a65726f000000000000000000000000000000000000000000000000000000602082015250565b7f45524332303a206d696e7420746f20746865207a65726f206164647265737300600082015250565b6136dc8161309d565b81146136e757600080fd5b50565b6136f3816130af565b81146136fe57600080fd5b50565b61370a816130db565b811461371557600080fd5b5056fea264697066735822122066145a217f0362cfdfc3c0269aa47c962a90c90bf87ad5546c8eab61e9ecb7a364736f6c63430008040033",
  "linkReferences": {},
  "deployedLinkReferences": {}
}