{
  "_format": "hh-sol-artifact-1",
  "contractName": "Stayking",
  "sourceName": "contracts/token/Stayking.sol",
  "abi": [
    {
      "anonymous": false,
      "inputs": [
        {
          "indexed": true,
          "internalType": "address",
          "name": "delegator",
          "type": "address"
        },
        {
          "indexed": false,
          "internalType": "uint256",
          "name": "amount",
          "type": "uint256"
        }
      ],
      "name": "Accrue",
      "type": "event"
    },
    {
      "anonymous": false,
      "inputs": [
        {
          "indexed": true,
          "internalType": "address",
          "name": "user",
          "type": "address"
        },
        {
          "indexed": true,
          "internalType": "address",
          "name": "vault",
          "type": "address"
        },
        {
          "indexed": false,
          "internalType": "uint256",
          "name": "equity",
          "type": "uint256"
        },
        {
          "indexed": false,
          "internalType": "uint256",
          "name": "debtInBase",
          "type": "uint256"
        },
        {
          "indexed": false,
          "internalType": "uint256",
          "name": "debt",
          "type": "uint256"
        },
        {
          "indexed": false,
          "internalType": "uint256",
          "name": "share",
          "type": "uint256"
        }
      ],
      "name": "AddPosition",
      "type": "event"
    },
    {
      "anonymous": false,
      "inputs": [
        {
          "indexed": false,
          "internalType": "address",
          "name": "token",
          "type": "address"
        },
        {
          "indexed": false,
          "internalType": "address",
          "name": "vault",
          "type": "address"
        }
      ],
      "name": "AddVault",
      "type": "event"
    },
    {
      "anonymous": false,
      "inputs": [
        {
          "indexed": false,
          "internalType": "address",
          "name": "delegator",
          "type": "address"
        }
      ],
      "name": "ChangeDelegator",
      "type": "event"
    },
    {
      "anonymous": false,
      "inputs": [
        {
          "indexed": false,
          "internalType": "uint8",
          "name": "version",
          "type": "uint8"
        }
      ],
      "name": "Initialized",
      "type": "event"
    },
    {
      "anonymous": false,
      "inputs": [
        {
          "indexed": true,
          "internalType": "address",
          "name": "killer",
          "type": "address"
        },
        {
          "indexed": true,
          "internalType": "address",
          "name": "user",
          "type": "address"
        },
        {
          "indexed": false,
          "internalType": "address",
          "name": "vault",
          "type": "address"
        },
        {
          "indexed": false,
          "internalType": "uint256",
          "name": "equity",
          "type": "uint256"
        },
        {
          "indexed": false,
          "internalType": "uint256",
          "name": "debtInBase",
          "type": "uint256"
        },
        {
          "indexed": false,
          "internalType": "uint256",
          "name": "debt",
          "type": "uint256"
        },
        {
          "indexed": false,
          "internalType": "uint256",
          "name": "share",
          "type": "uint256"
        }
      ],
      "name": "Kill",
      "type": "event"
    },
    {
      "anonymous": false,
      "inputs": [
        {
          "indexed": true,
          "internalType": "address",
          "name": "previousOwner",
          "type": "address"
        },
        {
          "indexed": true,
          "internalType": "address",
          "name": "newOwner",
          "type": "address"
        }
      ],
      "name": "OwnershipTransferred",
      "type": "event"
    },
    {
      "anonymous": false,
      "inputs": [
        {
          "indexed": true,
          "internalType": "address",
          "name": "user",
          "type": "address"
        },
        {
          "indexed": true,
          "internalType": "address",
          "name": "vault",
          "type": "address"
        },
        {
          "indexed": false,
          "internalType": "uint256",
          "name": "amount",
          "type": "uint256"
        },
        {
          "indexed": false,
          "internalType": "uint256",
          "name": "share",
          "type": "uint256"
        },
        {
          "indexed": false,
          "internalType": "uint256",
          "name": "debt",
          "type": "uint256"
        }
      ],
      "name": "PositionChanged",
      "type": "event"
    },
    {
      "anonymous": false,
      "inputs": [
        {
          "indexed": true,
          "internalType": "address",
          "name": "user",
          "type": "address"
        },
        {
          "indexed": true,
          "internalType": "address",
          "name": "vault",
          "type": "address"
        },
        {
          "indexed": false,
          "internalType": "uint256",
          "name": "equity",
          "type": "uint256"
        },
        {
          "indexed": false,
          "internalType": "uint256",
          "name": "debtInBase",
          "type": "uint256"
        },
        {
          "indexed": false,
          "internalType": "uint256",
          "name": "debt",
          "type": "uint256"
        },
        {
          "indexed": false,
          "internalType": "uint256",
          "name": "share",
          "type": "uint256"
        }
      ],
      "name": "RemovePosition",
      "type": "event"
    },
    {
      "anonymous": false,
      "inputs": [
        {
          "indexed": true,
          "internalType": "address",
          "name": "delegator",
          "type": "address"
        },
        {
          "indexed": true,
          "internalType": "address",
          "name": "user",
          "type": "address"
        },
        {
          "indexed": false,
          "internalType": "uint256",
          "name": "amount",
          "type": "uint256"
        },
        {
          "indexed": false,
          "internalType": "uint256",
          "name": "share",
          "type": "uint256"
        }
      ],
      "name": "Stake",
      "type": "event"
    },
    {
      "anonymous": false,
      "inputs": [
        {
          "indexed": true,
          "internalType": "address",
          "name": "delegator",
          "type": "address"
        },
        {
          "indexed": true,
          "internalType": "address",
          "name": "user",
          "type": "address"
        },
        {
          "indexed": false,
          "internalType": "uint256",
          "name": "amount",
          "type": "uint256"
        },
        {
          "indexed": false,
          "internalType": "uint256",
          "name": "share",
          "type": "uint256"
        }
      ],
      "name": "Unstake",
      "type": "event"
    },
    {
      "anonymous": false,
      "inputs": [
        {
          "indexed": false,
          "internalType": "uint256",
          "name": "minDebtInBase",
          "type": "uint256"
        },
        {
          "indexed": false,
          "internalType": "uint256",
          "name": "killFactorBps",
          "type": "uint256"
        }
      ],
      "name": "UpdateConfigs",
      "type": "event"
    },
    {
      "anonymous": false,
      "inputs": [
        {
          "indexed": false,
          "internalType": "address",
          "name": "token",
          "type": "address"
        },
        {
          "indexed": false,
          "internalType": "address",
          "name": "vault",
          "type": "address"
        }
      ],
      "name": "UpdateVault",
      "type": "event"
    },
    {
      "inputs": [
        {
          "internalType": "address",
          "name": "delegator_",
          "type": "address"
        },
        {
          "internalType": "address",
          "name": "uEVMOS_",
          "type": "address"
        }
      ],
      "name": "__Stayking_init",
      "outputs": [],
      "stateMutability": "nonpayable",
      "type": "function"
    },
    {
      "inputs": [
        {
          "internalType": "uint256",
          "name": "currentTotalStaked",
          "type": "uint256"
        }
      ],
      "name": "accrue",
      "outputs": [],
      "stateMutability": "payable",
      "type": "function"
    },
    {
      "inputs": [
        {
          "internalType": "address",
          "name": "debtToken",
          "type": "address"
        },
        {
          "internalType": "uint256",
          "name": "extraDebtInBase",
          "type": "uint256"
        }
      ],
      "name": "addDebt",
      "outputs": [],
      "stateMutability": "nonpayable",
      "type": "function"
    },
    {
      "inputs": [
        {
          "internalType": "address",
          "name": "debtToken",
          "type": "address"
        },
        {
          "internalType": "uint256",
          "name": "extraEquity",
          "type": "uint256"
        }
      ],
      "name": "addEquity",
      "outputs": [],
      "stateMutability": "payable",
      "type": "function"
    },
    {
      "inputs": [
        {
          "internalType": "address",
          "name": "debtToken",
          "type": "address"
        },
        {
          "internalType": "uint256",
          "name": "equity",
          "type": "uint256"
        },
        {
          "internalType": "uint256",
          "name": "debtInBase",
          "type": "uint256"
        }
      ],
      "name": "addPosition",
      "outputs": [],
      "stateMutability": "payable",
      "type": "function"
    },
    {
      "inputs": [
        {
          "internalType": "uint256",
          "name": "amount",
          "type": "uint256"
        }
      ],
      "name": "amountToShare",
      "outputs": [
        {
          "internalType": "uint256",
          "name": "",
          "type": "uint256"
        }
      ],
      "stateMutability": "view",
      "type": "function"
    },
    {
      "inputs": [
        {
          "internalType": "address",
          "name": "_delegator",
          "type": "address"
        }
      ],
      "name": "changeDelegator",
      "outputs": [],
      "stateMutability": "nonpayable",
      "type": "function"
    },
    {
      "inputs": [
        {
          "internalType": "address",
          "name": "user",
          "type": "address"
        },
        {
          "internalType": "address",
          "name": "vault",
          "type": "address"
        }
      ],
      "name": "debtAmountOf",
      "outputs": [
        {
          "internalType": "uint256",
          "name": "",
          "type": "uint256"
        }
      ],
      "stateMutability": "view",
      "type": "function"
    },
    {
      "inputs": [],
      "name": "delegator",
      "outputs": [
        {
          "internalType": "address",
          "name": "",
          "type": "address"
        }
      ],
      "stateMutability": "view",
      "type": "function"
    },
    {
      "inputs": [
        {
          "internalType": "address",
          "name": "debtToken",
          "type": "address"
        },
        {
          "internalType": "uint256",
          "name": "positionId",
          "type": "uint256"
        }
      ],
      "name": "isKillable",
      "outputs": [
        {
          "internalType": "bool",
          "name": "healthy",
          "type": "bool"
        }
      ],
      "stateMutability": "view",
      "type": "function"
    },
    {
      "inputs": [
        {
          "internalType": "address",
          "name": "debtToken",
          "type": "address"
        },
        {
          "internalType": "uint256",
          "name": "positionId",
          "type": "uint256"
        }
      ],
      "name": "kill",
      "outputs": [],
      "stateMutability": "nonpayable",
      "type": "function"
    },
    {
      "inputs": [],
      "name": "killFactorBps",
      "outputs": [
        {
          "internalType": "uint256",
          "name": "",
          "type": "uint256"
        }
      ],
      "stateMutability": "view",
      "type": "function"
    },
    {
      "inputs": [],
      "name": "minDebtInBase",
      "outputs": [
        {
          "internalType": "uint256",
          "name": "",
          "type": "uint256"
        }
      ],
      "stateMutability": "view",
      "type": "function"
    },
    {
      "inputs": [],
      "name": "owner",
      "outputs": [
        {
          "internalType": "address",
          "name": "",
          "type": "address"
        }
      ],
      "stateMutability": "view",
      "type": "function"
    },
    {
      "inputs": [
        {
          "internalType": "address",
          "name": "",
          "type": "address"
        },
        {
          "internalType": "address",
          "name": "",
          "type": "address"
        }
      ],
      "name": "positionIdOf",
      "outputs": [
        {
          "internalType": "uint256",
          "name": "",
          "type": "uint256"
        }
      ],
      "stateMutability": "view",
      "type": "function"
    },
    {
      "inputs": [
        {
          "internalType": "address",
          "name": "",
          "type": "address"
        },
        {
          "internalType": "uint256",
          "name": "",
          "type": "uint256"
        }
      ],
      "name": "positions",
      "outputs": [
        {
          "internalType": "address",
          "name": "user",
          "type": "address"
        },
        {
          "internalType": "uint256",
          "name": "share",
          "type": "uint256"
        }
      ],
      "stateMutability": "view",
      "type": "function"
    },
    {
      "inputs": [
        {
          "internalType": "address",
          "name": "",
          "type": "address"
        }
      ],
      "name": "positionsLengthOf",
      "outputs": [
        {
          "internalType": "uint256",
          "name": "",
          "type": "uint256"
        }
      ],
      "stateMutability": "view",
      "type": "function"
    },
    {
      "inputs": [
        {
          "internalType": "address",
          "name": "debtToken",
          "type": "address"
        }
      ],
      "name": "removePosition",
      "outputs": [],
      "stateMutability": "nonpayable",
      "type": "function"
    },
    {
      "inputs": [],
      "name": "renounceOwnership",
      "outputs": [],
      "stateMutability": "nonpayable",
      "type": "function"
    },
    {
      "inputs": [
        {
          "internalType": "address",
          "name": "debtToken",
          "type": "address"
        },
        {
          "internalType": "uint256",
          "name": "repaidDebt",
          "type": "uint256"
        }
      ],
      "name": "repayDebt",
      "outputs": [],
      "stateMutability": "nonpayable",
      "type": "function"
    },
    {
      "inputs": [
        {
          "internalType": "address",
          "name": "debtToken",
          "type": "address"
        },
        {
          "internalType": "uint256",
          "name": "minRepaid",
          "type": "uint256"
        }
      ],
      "name": "repayDebtInBase",
      "outputs": [],
      "stateMutability": "payable",
      "type": "function"
    },
    {
      "inputs": [
        {
          "internalType": "uint256",
          "name": "share",
          "type": "uint256"
        }
      ],
      "name": "shareToAmount",
      "outputs": [
        {
          "internalType": "uint256",
          "name": "",
          "type": "uint256"
        }
      ],
      "stateMutability": "view",
      "type": "function"
    },
    {
      "inputs": [
        {
          "internalType": "address",
          "name": "",
          "type": "address"
        }
      ],
      "name": "tokenToVault",
      "outputs": [
        {
          "internalType": "address",
          "name": "",
          "type": "address"
        }
      ],
      "stateMutability": "view",
      "type": "function"
    },
    {
      "inputs": [],
      "name": "totalAmount",
      "outputs": [
        {
          "internalType": "uint256",
          "name": "",
          "type": "uint256"
        }
      ],
      "stateMutability": "view",
      "type": "function"
    },
    {
      "inputs": [
        {
          "internalType": "address",
          "name": "",
          "type": "address"
        }
      ],
      "name": "totalDebtOf",
      "outputs": [
        {
          "internalType": "uint256",
          "name": "",
          "type": "uint256"
        }
      ],
      "stateMutability": "view",
      "type": "function"
    },
    {
      "inputs": [],
      "name": "totalShare",
      "outputs": [
        {
          "internalType": "uint256",
          "name": "",
          "type": "uint256"
        }
      ],
      "stateMutability": "view",
      "type": "function"
    },
    {
      "inputs": [
        {
          "internalType": "address",
          "name": "newOwner",
          "type": "address"
        }
      ],
      "name": "transferOwnership",
      "outputs": [],
      "stateMutability": "nonpayable",
      "type": "function"
    },
    {
      "inputs": [],
      "name": "uEVMOS",
      "outputs": [
        {
          "internalType": "contract IUnbondedEvmos",
          "name": "",
          "type": "address"
        }
      ],
      "stateMutability": "view",
      "type": "function"
    },
    {
      "inputs": [
        {
          "internalType": "uint256",
          "name": "_minDebtInBase",
          "type": "uint256"
        },
        {
          "internalType": "uint256",
          "name": "_killFactorBps",
          "type": "uint256"
        }
      ],
      "name": "updateConfigs",
      "outputs": [],
      "stateMutability": "nonpayable",
      "type": "function"
    },
    {
      "inputs": [
        {
          "internalType": "address",
          "name": "token",
          "type": "address"
        },
        {
          "internalType": "address",
          "name": "vault",
          "type": "address"
        }
      ],
      "name": "updateVault",
      "outputs": [],
      "stateMutability": "nonpayable",
      "type": "function"
    },
    {
      "inputs": [
        {
          "internalType": "address",
          "name": "",
          "type": "address"
        }
      ],
      "name": "whitelistedKiller",
      "outputs": [
        {
          "internalType": "bool",
          "name": "",
          "type": "bool"
        }
      ],
      "stateMutability": "view",
      "type": "function"
    },
    {
      "stateMutability": "payable",
      "type": "receive"
    }
  ],
  "bytecode": "0x608060405234801561001057600080fd5b506146b9806100206000396000f3fe6080604052600436106101db5760003560e01c806379e20bdc11610102578063bb94d3db11610095578063cff07fd111610064578063cff07fd1146106e5578063df5ca1f814610701578063ef6b24791461072a578063f2fde38b14610746576101e2565b8063bb94d3db14610623578063c1be667714610660578063c6918a611461069e578063ce9b7930146106ba576101e2565b8063a3381d28116100d1578063a3381d2814610569578063afd06b34146105a6578063b1ae5ed3146105d1578063b2a2a96b146105fa576101e2565b806379e20bdc146104af5780638da5cb5b146104d857806392707802146105035780639f2b28331461052c576101e2565b806328f55a6c1161017a57806351dabb751161014957806351dabb75146104025780635ff025311461043f578063715018a61461047c578063744f4cf614610493576101e2565b806328f55a6c146103345780632d4047e51461035f5780632d6f80131461039c57806334c389ef146103d9576101e2565b8063178483a7116101b6578063178483a7146102785780631a39d8ef146102a35780631b451d28146102ce57806327dfaf92146102f7576101e2565b8062dbccc6146101e7578063026c4207146102105780630c7e17251461023b576101e2565b366101e257005b600080fd5b3480156101f357600080fd5b5061020e60048036038101906102099190613626565b61076f565b005b34801561021c57600080fd5b506102256107c2565b6040516102329190613e01565b60405180910390f35b34801561024757600080fd5b50610262600480360381019061025d91906134bb565b6107c8565b60405161026f91906139d4565b60405180910390f35b34801561028457600080fd5b5061028d6107fb565b60405161029a9190613e01565b60405180910390f35b3480156102af57600080fd5b506102b8610801565b6040516102c59190613e01565b60405180910390f35b3480156102da57600080fd5b506102f560048036038101906102f091906134e4565b610807565b005b34801561030357600080fd5b5061031e600480360381019061031991906134e4565b610ba9565b60405161032b9190613e01565b60405180910390f35b34801561034057600080fd5b50610349610c3c565b6040516103569190613e01565b60405180910390f35b34801561036b57600080fd5b50610386600480360381019061038191906135d4565b610c42565b6040516103939190613e01565b60405180910390f35b3480156103a857600080fd5b506103c360048036038101906103be91906135d4565b610c76565b6040516103d09190613e01565b60405180910390f35b3480156103e557600080fd5b5061040060048036038101906103fb9190613520565b610caa565b005b34801561040e57600080fd5b50610429600480360381019061042491906134bb565b611019565b6040516104369190613e01565b60405180910390f35b34801561044b57600080fd5b5061046660048036038101906104619190613520565b611031565b6040516104739190613b10565b60405180910390f35b34801561048857600080fd5b506104916111cc565b005b6104ad60048036038101906104a891906135d4565b6111e0565b005b3480156104bb57600080fd5b506104d660048036038101906104d19190613520565b611320565b005b3480156104e457600080fd5b506104ed6115a6565b6040516104fa91906139d4565b60405180910390f35b34801561050f57600080fd5b5061052a60048036038101906105259190613520565b6115d0565b005b34801561053857600080fd5b50610553600480360381019061054e91906134bb565b6118d5565b6040516105609190613e01565b60405180910390f35b34801561057557600080fd5b50610590600480360381019061058b91906134bb565b6118ed565b60405161059d9190613b10565b60405180910390f35b3480156105b257600080fd5b506105bb61190d565b6040516105c89190613b2b565b60405180910390f35b3480156105dd57600080fd5b506105f860048036038101906105f391906134bb565b611933565b005b34801561060657600080fd5b50610621600480360381019061061c91906134e4565b6119b6565b005b34801561062f57600080fd5b5061064a600480360381019061064591906134e4565b611b5c565b6040516106579190613e01565b60405180910390f35b34801561066c57600080fd5b5061068760048036038101906106829190613520565b611b81565b604051610695929190613a94565b60405180910390f35b6106b860048036038101906106b39190613520565b611be2565b005b3480156106c657600080fd5b506106cf611e77565b6040516106dc91906139d4565b60405180910390f35b6106ff60048036038101906106fa919061355c565b611e9d565b005b34801561070d57600080fd5b50610728600480360381019061072391906134bb565b612409565b005b610744600480360381019061073f9190613520565b6127ae565b005b34801561075257600080fd5b5061076d600480360381019061076891906134bb565b6129aa565b005b610777612a2e565b81609c8190555080609d819055507ff88c4daabad4d8a3268872e6513d06a7f6924a2390f0e3d89b8451a2ac0635c582826040516107b6929190613e1c565b60405180910390a15050565b609b5481565b60996020528060005260406000206000915054906101000a900473ffffffffffffffffffffffffffffffffffffffff1681565b609c5481565b609a5481565b61080f612a2e565b60008073ffffffffffffffffffffffffffffffffffffffff16609960008573ffffffffffffffffffffffffffffffffffffffff1673ffffffffffffffffffffffffffffffffffffffff16815260200190815260200160002060009054906101000a900473ffffffffffffffffffffffffffffffffffffffff1673ffffffffffffffffffffffffffffffffffffffff1614905080156108e5577f7f03ac7449144076e2d9d5a237c3ff0d0108e0a2ebdd5213c4b0de6f4d4f695383836040516108d89291906139ef565b60405180910390a1610a3e565b6000609960008573ffffffffffffffffffffffffffffffffffffffff1673ffffffffffffffffffffffffffffffffffffffff16815260200190815260200160002060009054906101000a900473ffffffffffffffffffffffffffffffffffffffff1673ffffffffffffffffffffffffffffffffffffffff1663c8dffa956040518163ffffffff1660e01b815260040160206040518083038186803b15801561098c57600080fd5b505afa1580156109a0573d6000803e3d6000fd5b505050506040513d601f19601f820116820180604052508101906109c491906135fd565b14610a04576040517f08c379a00000000000000000000000000000000000000000000000000000000081526004016109fb90613be1565b60405180910390fd5b7f4cc233b502e1e28f371b28114d4a8be87a93f330c18e3c339079fc498320fb8d8383604051610a359291906139ef565b60405180910390a15b81609960008573ffffffffffffffffffffffffffffffffffffffff1673ffffffffffffffffffffffffffffffffffffffff16815260200190815260200160002060006101000a81548173ffffffffffffffffffffffffffffffffffffffff021916908373ffffffffffffffffffffffffffffffffffffffff16021790555060a060008373ffffffffffffffffffffffffffffffffffffffff1673ffffffffffffffffffffffffffffffffffffffff1681526020019081526020016000206040518060400160405280600073ffffffffffffffffffffffffffffffffffffffff1681526020016000815250908060018154018082558091505060019003906000526020600020906002020160009091909190915060008201518160000160006101000a81548173ffffffffffffffffffffffffffffffffffffffff021916908373ffffffffffffffffffffffffffffffffffffffff160217905550602082015181600101555050505050565b60008173ffffffffffffffffffffffffffffffffffffffff16636592183b846040518263ffffffff1660e01b8152600401610be491906139d4565b60206040518083038186803b158015610bfc57600080fd5b505afa158015610c10573d6000803e3d6000fd5b505050506040513d601f19601f82011682018060405250810190610c3491906135fd565b905092915050565b609d5481565b600080609a5414610c6d57609a5482609b54610c5e9190613f6f565b610c689190613f3e565b610c6f565b815b9050919050565b600080609b5414610ca157609b5482609a54610c929190613f6f565b610c9c9190613f3e565b610ca3565b815b9050919050565b6000609960008473ffffffffffffffffffffffffffffffffffffffff1673ffffffffffffffffffffffffffffffffffffffff16815260200190815260200160002060009054906101000a900473ffffffffffffffffffffffffffffffffffffffff169050600060a060008373ffffffffffffffffffffffffffffffffffffffff1673ffffffffffffffffffffffffffffffffffffffff168152602001908152602001600020609f60003373ffffffffffffffffffffffffffffffffffffffff1673ffffffffffffffffffffffffffffffffffffffff16815260200190815260200160002060008473ffffffffffffffffffffffffffffffffffffffff1673ffffffffffffffffffffffffffffffffffffffff1681526020019081526020016000205481548110610e03577f4e487b7100000000000000000000000000000000000000000000000000000000600052603260045260246000fd5b906000526020600020906002020190506000816001015411610e5a576040517f08c379a0000000000000000000000000000000000000000000000000000000008152600401610e5190613c61565b60405180910390fd5b60008311610e9d576040517f08c379a0000000000000000000000000000000000000000000000000000000008152600401610e9490613d21565b60405180910390fd5b8173ffffffffffffffffffffffffffffffffffffffff1663185cc75133856040518363ffffffff1660e01b8152600401610ed8929190613a94565b602060405180830381600087803b158015610ef257600080fd5b505af1158015610f06573d6000803e3d6000fd5b505050506040513d601f19601f82011682018060405250810190610f2a91906135fd565b50610f358184612aac565b506000610f423384610ba9565b90506000610f5584846001015484612be5565b50905080610f98576040517f08c379a0000000000000000000000000000000000000000000000000000000008152600401610f8f90613c01565b60405180910390fd5b8373ffffffffffffffffffffffffffffffffffffffff163373ffffffffffffffffffffffffffffffffffffffff167ff35a14688e4794e8022cd9e5c7ec6475a6095ef189dea9647fad0de771465b8a610ff48660010154610c76565b86600101548660405161100993929190613e45565b60405180910390a3505050505050565b60a16020528060005260406000206000915090505481565b600080609960008573ffffffffffffffffffffffffffffffffffffffff1673ffffffffffffffffffffffffffffffffffffffff16815260200190815260200160002060009054906101000a900473ffffffffffffffffffffffffffffffffffffffff169050600060a060008373ffffffffffffffffffffffffffffffffffffffff1673ffffffffffffffffffffffffffffffffffffffff168152602001908152602001600020848154811061110f577f4e487b7100000000000000000000000000000000000000000000000000000000600052603260045260246000fd5b90600052602060002090600202016040518060400160405290816000820160009054906101000a900473ffffffffffffffffffffffffffffffffffffffff1673ffffffffffffffffffffffffffffffffffffffff1673ffffffffffffffffffffffffffffffffffffffff16815260200160018201548152505090506000816020015114156111a2576000925050506111c6565b6111be8282602001516111b9846000015186610ba9565b612be5565b508093505050505b92915050565b6111d4612a2e565b6111de6000612ca2565b565b609760009054906101000a900473ffffffffffffffffffffffffffffffffffffffff1673ffffffffffffffffffffffffffffffffffffffff163373ffffffffffffffffffffffffffffffffffffffff1614611270576040517f08c379a000000000000000000000000000000000000000000000000000000000815260040161126790613d81565b60405180910390fd5b609a548110156112b5576040517f08c379a00000000000000000000000000000000000000000000000000000000081526004016112ac90613ca1565b60405180910390fd5b6000609a54826112c59190613fc9565b905081609a819055503373ffffffffffffffffffffffffffffffffffffffff167f9a65b5c5cdb30037df3368f844350f18c08099259c8c402a4781b85770983776826040516113149190613e01565b60405180910390a25050565b6000609960008473ffffffffffffffffffffffffffffffffffffffff1673ffffffffffffffffffffffffffffffffffffffff16815260200190815260200160002060009054906101000a900473ffffffffffffffffffffffffffffffffffffffff169050600060a060008373ffffffffffffffffffffffffffffffffffffffff1673ffffffffffffffffffffffffffffffffffffffff168152602001908152602001600020609f60003373ffffffffffffffffffffffffffffffffffffffff1673ffffffffffffffffffffffffffffffffffffffff16815260200190815260200160002060008473ffffffffffffffffffffffffffffffffffffffff1673ffffffffffffffffffffffffffffffffffffffff1681526020019081526020016000205481548110611479577f4e487b7100000000000000000000000000000000000000000000000000000000600052603260045260246000fd5b9060005260206000209060020201905060006114953384610ba9565b90506114a385333087612d68565b6114ae858486612ea1565b8273ffffffffffffffffffffffffffffffffffffffff1663724e591033866040518363ffffffff1660e01b81526004016114e9929190613a94565b600060405180830381600087803b15801561150357600080fd5b505af1158015611517573d6000803e3d6000fd5b505050508273ffffffffffffffffffffffffffffffffffffffff163373ffffffffffffffffffffffffffffffffffffffff167ff35a14688e4794e8022cd9e5c7ec6475a6095ef189dea9647fad0de771465b8a6115778560010154610c76565b856001015488866115889190613fc9565b60405161159793929190613e45565b60405180910390a35050505050565b6000603360009054906101000a900473ffffffffffffffffffffffffffffffffffffffff16905090565b609860003373ffffffffffffffffffffffffffffffffffffffff1673ffffffffffffffffffffffffffffffffffffffff16815260200190815260200160002060009054906101000a900460ff1661165c576040517f08c379a000000000000000000000000000000000000000000000000000000000815260040161165390613d01565b60405180910390fd5b6000609960008473ffffffffffffffffffffffffffffffffffffffff1673ffffffffffffffffffffffffffffffffffffffff16815260200190815260200160002060009054906101000a900473ffffffffffffffffffffffffffffffffffffffff169050600060a060008373ffffffffffffffffffffffffffffffffffffffff1673ffffffffffffffffffffffffffffffffffffffff1681526020019081526020016000208381548110611739577f4e487b7100000000000000000000000000000000000000000000000000000000600052603260045260246000fd5b906000526020600020906002020190506000816001015411611790576040517f08c379a000000000000000000000000000000000000000000000000000000000815260040161178790613ce1565b60405180910390fd5b60006117c08260000160009054906101000a900473ffffffffffffffffffffffffffffffffffffffff1684610ba9565b90506000806117d485856001015485612be5565b9150915081611818576040517f08c379a000000000000000000000000000000000000000000000000000000000815260040161180f90613d61565b60405180910390fd5b600061182985878760010154612fd7565b90508460000160009054906101000a900473ffffffffffffffffffffffffffffffffffffffff1673ffffffffffffffffffffffffffffffffffffffff163373ffffffffffffffffffffffffffffffffffffffff167f62b067e31c5a2d2734bc19924c46c930e1b7063b5b473238f2f8bb7ab88a15b68885856118ab9190613fc9565b86898b600101546040516118c3959493929190613abd565b60405180910390a35050505050505050565b60a26020528060005260406000206000915090505481565b60986020528060005260406000206000915054906101000a900460ff1681565b609e60009054906101000a900473ffffffffffffffffffffffffffffffffffffffff1681565b61193b612a2e565b80609760006101000a81548173ffffffffffffffffffffffffffffffffffffffff021916908373ffffffffffffffffffffffffffffffffffffffff1602179055507fc46722a14b09e7b7e59991ec89fb4bb88ffed57f1b2187a65e959f5c0053716d816040516119ab91906139d4565b60405180910390a150565b60008060019054906101000a900460ff161590508080156119e75750600160008054906101000a900460ff1660ff16105b80611a1457506119f6306131aa565b158015611a135750600160008054906101000a900460ff1660ff16145b5b611a53576040517f08c379a0000000000000000000000000000000000000000000000000000000008152600401611a4a90613c21565b60405180910390fd5b60016000806101000a81548160ff021916908360ff1602179055508015611a90576001600060016101000a81548160ff0219169083151502179055505b611a986131cd565b611aa0613226565b611ab4678ac7230489e80000611f4061076f565b81609e60006101000a81548173ffffffffffffffffffffffffffffffffffffffff021916908373ffffffffffffffffffffffffffffffffffffffff160217905550611afe83611933565b8015611b575760008060016101000a81548160ff0219169083151502179055507f7f26b83ff96e1f2b6a682f133852f6798a09c465da95921460cefb38474024986001604051611b4e9190613b46565b60405180910390a15b505050565b609f602052816000526040600020602052806000526040600020600091509150505481565b60a06020528160005260406000208181548110611b9d57600080fd5b9060005260206000209060020201600091509150508060000160009054906101000a900473ffffffffffffffffffffffffffffffffffffffff16908060010154905082565b6000609960008473ffffffffffffffffffffffffffffffffffffffff1673ffffffffffffffffffffffffffffffffffffffff16815260200190815260200160002060009054906101000a900473ffffffffffffffffffffffffffffffffffffffff169050600060a060008373ffffffffffffffffffffffffffffffffffffffff1673ffffffffffffffffffffffffffffffffffffffff168152602001908152602001600020609f60003373ffffffffffffffffffffffffffffffffffffffff1673ffffffffffffffffffffffffffffffffffffffff16815260200190815260200160002060008473ffffffffffffffffffffffffffffffffffffffff1673ffffffffffffffffffffffffffffffffffffffff1681526020019081526020016000205481548110611d3b577f4e487b7100000000000000000000000000000000000000000000000000000000600052603260045260246000fd5b906000526020600020906002020190506000611d573384610ba9565b905060008373ffffffffffffffffffffffffffffffffffffffff16639d2e6fcb3433886040518463ffffffff1660e01b8152600401611d97929190613a94565b6020604051808303818588803b158015611db057600080fd5b505af1158015611dc4573d6000803e3d6000fd5b50505050506040513d601f19601f82011682018060405250810190611de991906135fd565b90508373ffffffffffffffffffffffffffffffffffffffff163373ffffffffffffffffffffffffffffffffffffffff167ff35a14688e4794e8022cd9e5c7ec6475a6095ef189dea9647fad0de771465b8a611e478660010154610c76565b86600101548587611e589190613fc9565b604051611e6793929190613e45565b60405180910390a3505050505050565b609760009054906101000a900473ffffffffffffffffffffffffffffffffffffffff1681565b6000609960008573ffffffffffffffffffffffffffffffffffffffff1673ffffffffffffffffffffffffffffffffffffffff16815260200190815260200160002060009054906101000a900473ffffffffffffffffffffffffffffffffffffffff1690506000609f60003373ffffffffffffffffffffffffffffffffffffffff1673ffffffffffffffffffffffffffffffffffffffff16815260200190815260200160002060008373ffffffffffffffffffffffffffffffffffffffff1673ffffffffffffffffffffffffffffffffffffffff1681526020019081526020016000205411611fc0576040517f08c379a0000000000000000000000000000000000000000000000000000000008152600401611fb790613b81565b60405180910390fd5b348314612002576040517f08c379a0000000000000000000000000000000000000000000000000000000008152600401611ff990613d41565b60405180910390fd5b600082846120109190613ee8565b9050609d54816120209190613f6f565b6127108461202e9190613f6f565b1061206e576040517f08c379a000000000000000000000000000000000000000000000000000000000815260040161206590613cc1565b60405180910390fd5b60008273ffffffffffffffffffffffffffffffffffffffff1663185cc75133866040518363ffffffff1660e01b81526004016120ab929190613a94565b602060405180830381600087803b1580156120c557600080fd5b505af11580156120d9573d6000803e3d6000fd5b505050506040513d601f19601f820116820180604052508101906120fd91906135fd565b905060a060008473ffffffffffffffffffffffffffffffffffffffff1673ffffffffffffffffffffffffffffffffffffffff16815260200190815260200160002060405180604001604052803373ffffffffffffffffffffffffffffffffffffffff1681526020016000815250908060018154018082558091505060019003906000526020600020906002020160009091909190915060008201518160000160006101000a81548173ffffffffffffffffffffffffffffffffffffffff021916908373ffffffffffffffffffffffffffffffffffffffff160217905550602082015181600101555050600060a160008573ffffffffffffffffffffffffffffffffffffffff1673ffffffffffffffffffffffffffffffffffffffff168152602001908152602001600020549050600160a160008673ffffffffffffffffffffffffffffffffffffffff1673ffffffffffffffffffffffffffffffffffffffff168152602001908152602001600020600082825461227a9190613ee8565b9250508190555080609f60003373ffffffffffffffffffffffffffffffffffffffff1673ffffffffffffffffffffffffffffffffffffffff16815260200190815260200160002060008673ffffffffffffffffffffffffffffffffffffffff1673ffffffffffffffffffffffffffffffffffffffff16815260200190815260200160002081905550600061239260a060008773ffffffffffffffffffffffffffffffffffffffff1673ffffffffffffffffffffffffffffffffffffffff168152602001908152602001600020838154811061237e577f4e487b7100000000000000000000000000000000000000000000000000000000600052603260045260246000fd5b906000526020600020906002020185612aac565b90508473ffffffffffffffffffffffffffffffffffffffff163373ffffffffffffffffffffffffffffffffffffffff167f92b0fd5c6dbe6ec5b43a8afae4c587c1db47afcca43a21b7800bd848fcf8e496898987866040516123f79493929190613e7c565b60405180910390a35050505050505050565b6000609960008373ffffffffffffffffffffffffffffffffffffffff1673ffffffffffffffffffffffffffffffffffffffff16815260200190815260200160002060009054906101000a900473ffffffffffffffffffffffffffffffffffffffff169050600060a060008373ffffffffffffffffffffffffffffffffffffffff1673ffffffffffffffffffffffffffffffffffffffff168152602001908152602001600020609f60003373ffffffffffffffffffffffffffffffffffffffff1673ffffffffffffffffffffffffffffffffffffffff16815260200190815260200160002060008473ffffffffffffffffffffffffffffffffffffffff1673ffffffffffffffffffffffffffffffffffffffff1681526020019081526020016000205481548110612562577f4e487b7100000000000000000000000000000000000000000000000000000000600052603260045260246000fd5b9060005260206000209060020201905060008160010154116125b9576040517f08c379a00000000000000000000000000000000000000000000000000000000081526004016125b090613de1565b60405180910390fd5b60006125c53384610ba9565b905060008373ffffffffffffffffffffffffffffffffffffffff166395d6abf8836040518263ffffffff1660e01b81526004016126029190613e01565b60206040518083038186803b15801561261a57600080fd5b505afa15801561262e573d6000803e3d6000fd5b505050506040513d601f19601f8201168201806040525081019061265291906135fd565b9050600061266584868660010154612fd7565b9050818110156126aa576040517f08c379a00000000000000000000000000000000000000000000000000000000081526004016126a190613bc1565b60405180910390fd5b8473ffffffffffffffffffffffffffffffffffffffff163373ffffffffffffffffffffffffffffffffffffffff167f3cb91b4d61d4fefa96da17651a09b54f7b6751cb68d11134cf0efe0a4965796884846127059190613fc9565b8587896001015460405161271c9493929190613e7c565b60405180910390a36000609f60003373ffffffffffffffffffffffffffffffffffffffff1673ffffffffffffffffffffffffffffffffffffffff16815260200190815260200160002060008773ffffffffffffffffffffffffffffffffffffffff1673ffffffffffffffffffffffffffffffffffffffff16815260200190815260200160002081905550505050505050565b6000609960008473ffffffffffffffffffffffffffffffffffffffff1673ffffffffffffffffffffffffffffffffffffffff16815260200190815260200160002060009054906101000a900473ffffffffffffffffffffffffffffffffffffffff169050600060a060008373ffffffffffffffffffffffffffffffffffffffff1673ffffffffffffffffffffffffffffffffffffffff168152602001908152602001600020609f60003373ffffffffffffffffffffffffffffffffffffffff1673ffffffffffffffffffffffffffffffffffffffff16815260200190815260200160002060008473ffffffffffffffffffffffffffffffffffffffff1673ffffffffffffffffffffffffffffffffffffffff1681526020019081526020016000205481548110612907577f4e487b7100000000000000000000000000000000000000000000000000000000600052603260045260246000fd5b906000526020600020906002020190506129218184612aac565b508173ffffffffffffffffffffffffffffffffffffffff163373ffffffffffffffffffffffffffffffffffffffff167ff35a14688e4794e8022cd9e5c7ec6475a6095ef189dea9647fad0de771465b8a61297e8460010154610c76565b846001015461298d3388610ba9565b60405161299c93929190613e45565b60405180910390a350505050565b6129b2612a2e565b600073ffffffffffffffffffffffffffffffffffffffff168173ffffffffffffffffffffffffffffffffffffffff161415612a22576040517f08c379a0000000000000000000000000000000000000000000000000000000008152600401612a1990613b61565b60405180910390fd5b612a2b81612ca2565b50565b612a3661327f565b73ffffffffffffffffffffffffffffffffffffffff16612a546115a6565b73ffffffffffffffffffffffffffffffffffffffff1614612aaa576040517f08c379a0000000000000000000000000000000000000000000000000000000008152600401612aa190613c81565b60405180910390fd5b565b6000612ab782610c42565b905080836001016000828254612acd9190613ee8565b9250508190555081609a6000828254612ae69190613ee8565b9250508190555080609b6000828254612aff9190613ee8565b92505081905550612b32609760009054906101000a900473ffffffffffffffffffffffffffffffffffffffff1683613287565b8260000160009054906101000a900473ffffffffffffffffffffffffffffffffffffffff1673ffffffffffffffffffffffffffffffffffffffff16609760009054906101000a900473ffffffffffffffffffffffffffffffffffffffff1673ffffffffffffffffffffffffffffffffffffffff167f63602d0ecc7b3a0ef7ff1a116e23056662d64280355ba8031b6d0d767c4b44588484604051612bd7929190613e1c565b60405180910390a392915050565b6000808473ffffffffffffffffffffffffffffffffffffffff166395d6abf8846040518263ffffffff1660e01b8152600401612c219190613e01565b60206040518083038186803b158015612c3957600080fd5b505afa158015612c4d573d6000803e3d6000fd5b505050506040513d601f19601f82011682018060405250810190612c7191906135fd565b9050609d54612c7f85610c76565b612c899190613f6f565b61271082612c979190613f6f565b109150935093915050565b6000603360009054906101000a900473ffffffffffffffffffffffffffffffffffffffff16905081603360006101000a81548173ffffffffffffffffffffffffffffffffffffffff021916908373ffffffffffffffffffffffffffffffffffffffff1602179055508173ffffffffffffffffffffffffffffffffffffffff168173ffffffffffffffffffffffffffffffffffffffff167f8be0079c531659141344cd1fd0a4f28419497f9722a3daafe3b4186f6b6457e060405160405180910390a35050565b6000808573ffffffffffffffffffffffffffffffffffffffff166323b872dd868686604051602401612d9c93929190613a18565b6040516020818303038152906040529060e01b6020820180517bffffffffffffffffffffffffffffffffffffffffffffffffffffffff8381831617835250505050604051612dea91906139bd565b6000604051808303816000865af19150503d8060008114612e27576040519150601f19603f3d011682016040523d82523d6000602084013e612e2c565b606091505b5091509150818015612e5a5750600081511480612e59575080806020019051810190612e5891906135ab565b5b5b612e99576040517f08c379a0000000000000000000000000000000000000000000000000000000008152600401612e9090613dc1565b60405180910390fd5b505050505050565b6000808473ffffffffffffffffffffffffffffffffffffffff1663095ea7b38585604051602401612ed3929190613a94565b6040516020818303038152906040529060e01b6020820180517bffffffffffffffffffffffffffffffffffffffffffffffffffffffff8381831617835250505050604051612f2191906139bd565b6000604051808303816000865af19150503d8060008114612f5e576040519150601f19603f3d011682016040523d82523d6000602084013e612f63565b606091505b5091509150818015612f915750600081511480612f90575080806020019051810190612f8f91906135ab565b5b5b612fd0576040517f08c379a0000000000000000000000000000000000000000000000000000000008152600401612fc790613ba1565b60405180910390fd5b5050505050565b6000612fe282610c76565b905081846001016000828254612ff89190613fc9565b9250508190555080609a60008282546130119190613fc9565b9250508190555081609b600082825461302a9190613fc9565b92505081905550609e60009054906101000a900473ffffffffffffffffffffffffffffffffffffffff1673ffffffffffffffffffffffffffffffffffffffff1663633235d08560000160009054906101000a900473ffffffffffffffffffffffffffffffffffffffff1685846213c680426130a59190613ee8565b6040518563ffffffff1660e01b81526004016130c49493929190613a4f565b600060405180830381600087803b1580156130de57600080fd5b505af11580156130f2573d6000803e3d6000fd5b505050508360000160009054906101000a900473ffffffffffffffffffffffffffffffffffffffff1673ffffffffffffffffffffffffffffffffffffffff16609760009054906101000a900473ffffffffffffffffffffffffffffffffffffffff1673ffffffffffffffffffffffffffffffffffffffff167f18edd09e80386cd99df397e2e0d87d2bb259423eae08645e776321a36fe680ef838560405161319b929190613e1c565b60405180910390a39392505050565b6000808273ffffffffffffffffffffffffffffffffffffffff163b119050919050565b600060019054906101000a900460ff1661321c576040517f08c379a000000000000000000000000000000000000000000000000000000000815260040161321390613da1565b60405180910390fd5b6132246133ad565b565b600060019054906101000a900460ff16613275576040517f08c379a000000000000000000000000000000000000000000000000000000000815260040161326c90613da1565b60405180910390fd5b61327d61340e565b565b600033905090565b60008273ffffffffffffffffffffffffffffffffffffffff1682600067ffffffffffffffff8111156132e2577f4e487b7100000000000000000000000000000000000000000000000000000000600052604160045260246000fd5b6040519080825280601f01601f1916602001820160405280156133145781602001600182028036833780820191505090505b5060405161332291906139bd565b60006040518083038185875af1925050503d806000811461335f576040519150601f19603f3d011682016040523d82523d6000602084013e613364565b606091505b50509050806133a8576040517f08c379a000000000000000000000000000000000000000000000000000000000815260040161339f90613c41565b60405180910390fd5b505050565b600060019054906101000a900460ff166133fc576040517f08c379a00000000000000000000000000000000000000000000000000000000081526004016133f390613da1565b60405180910390fd5b61340c61340761327f565b612ca2565b565b600060019054906101000a900460ff1661345d576040517f08c379a000000000000000000000000000000000000000000000000000000000815260040161345490613da1565b60405180910390fd5b6001606581905550565b6000813590506134768161463e565b92915050565b60008151905061348b81614655565b92915050565b6000813590506134a08161466c565b92915050565b6000815190506134b58161466c565b92915050565b6000602082840312156134cd57600080fd5b60006134db84828501613467565b91505092915050565b600080604083850312156134f757600080fd5b600061350585828601613467565b925050602061351685828601613467565b9150509250929050565b6000806040838503121561353357600080fd5b600061354185828601613467565b925050602061355285828601613491565b9150509250929050565b60008060006060848603121561357157600080fd5b600061357f86828701613467565b935050602061359086828701613491565b92505060406135a186828701613491565b9150509250925092565b6000602082840312156135bd57600080fd5b60006135cb8482850161347c565b91505092915050565b6000602082840312156135e657600080fd5b60006135f484828501613491565b91505092915050565b60006020828403121561360f57600080fd5b600061361d848285016134a6565b91505092915050565b6000806040838503121561363957600080fd5b600061364785828601613491565b925050602061365885828601613491565b9150509250929050565b61366b81613ffd565b82525050565b61367a8161400f565b82525050565b600061368b82613ec1565b6136958185613ecc565b93506136a5818560208601614088565b80840191505092915050565b6136ba81614052565b82525050565b6136c981614076565b82525050565b60006136dc602683613ed7565b91506136e782614119565b604082019050919050565b60006136ff602283613ed7565b915061370a82614168565b604082019050919050565b6000613722600c83613ed7565b915061372d826141b7565b602082019050919050565b6000613745601883613ed7565b9150613750826141e0565b602082019050919050565b6000613768603083613ed7565b915061377382614209565b604082019050919050565b600061378b603083613ed7565b915061379682614258565b604082019050919050565b60006137ae602e83613ed7565b91506137b9826142a7565b604082019050919050565b60006137d1601283613ed7565b91506137dc826142f6565b602082019050919050565b60006137f4602783613ed7565b91506137ff8261431f565b604082019050919050565b6000613817602083613ed7565b91506138228261436e565b602082019050919050565b600061383a602883613ed7565b915061384582614397565b604082019050919050565b600061385d602b83613ed7565b9150613868826143e6565b604082019050919050565b6000613880601683613ed7565b915061388b82614435565b602082019050919050565b60006138a3602183613ed7565b91506138ae8261445e565b604082019050919050565b60006138c6601d83613ed7565b91506138d1826144ad565b602082019050919050565b60006138e9602083613ed7565b91506138f4826144d6565b602082019050919050565b600061390c601a83613ed7565b9150613917826144ff565b602082019050919050565b600061392f602483613ed7565b915061393a82614528565b604082019050919050565b6000613952602b83613ed7565b915061395d82614577565b604082019050919050565b6000613975601183613ed7565b9150613980826145c6565b602082019050919050565b6000613998602a83613ed7565b91506139a3826145ef565b604082019050919050565b6139b78161403b565b82525050565b60006139c98284613680565b915081905092915050565b60006020820190506139e96000830184613662565b92915050565b6000604082019050613a046000830185613662565b613a116020830184613662565b9392505050565b6000606082019050613a2d6000830186613662565b613a3a6020830185613662565b613a4760408301846139ae565b949350505050565b6000608082019050613a646000830187613662565b613a716020830186613662565b613a7e60408301856139ae565b613a8b60608301846139ae565b95945050505050565b6000604082019050613aa96000830185613662565b613ab660208301846139ae565b9392505050565b600060a082019050613ad26000830188613662565b613adf60208301876139ae565b613aec60408301866139ae565b613af960608301856139ae565b613b0660808301846139ae565b9695505050505050565b6000602082019050613b256000830184613671565b92915050565b6000602082019050613b4060008301846136b1565b92915050565b6000602082019050613b5b60008301846136c0565b92915050565b60006020820190508181036000830152613b7a816136cf565b9050919050565b60006020820190508181036000830152613b9a816136f2565b9050919050565b60006020820190508181036000830152613bba81613715565b9050919050565b60006020820190508181036000830152613bda81613738565b9050919050565b60006020820190508181036000830152613bfa8161375b565b9050919050565b60006020820190508181036000830152613c1a8161377e565b9050919050565b60006020820190508181036000830152613c3a816137a1565b9050919050565b60006020820190508181036000830152613c5a816137c4565b9050919050565b60006020820190508181036000830152613c7a816137e7565b9050919050565b60006020820190508181036000830152613c9a8161380a565b9050919050565b60006020820190508181036000830152613cba8161382d565b9050919050565b60006020820190508181036000830152613cda81613850565b9050919050565b60006020820190508181036000830152613cfa81613873565b9050919050565b60006020820190508181036000830152613d1a81613896565b9050919050565b60006020820190508181036000830152613d3a816138b9565b9050919050565b60006020820190508181036000830152613d5a816138dc565b9050919050565b60006020820190508181036000830152613d7a816138ff565b9050919050565b60006020820190508181036000830152613d9a81613922565b9050919050565b60006020820190508181036000830152613dba81613945565b9050919050565b60006020820190508181036000830152613dda81613968565b9050919050565b60006020820190508181036000830152613dfa8161398b565b9050919050565b6000602082019050613e1660008301846139ae565b92915050565b6000604082019050613e3160008301856139ae565b613e3e60208301846139ae565b9392505050565b6000606082019050613e5a60008301866139ae565b613e6760208301856139ae565b613e7460408301846139ae565b949350505050565b6000608082019050613e9160008301876139ae565b613e9e60208301866139ae565b613eab60408301856139ae565b613eb860608301846139ae565b95945050505050565b600081519050919050565b600081905092915050565b600082825260208201905092915050565b6000613ef38261403b565b9150613efe8361403b565b9250827fffffffffffffffffffffffffffffffffffffffffffffffffffffffffffffffff03821115613f3357613f326140bb565b5b828201905092915050565b6000613f498261403b565b9150613f548361403b565b925082613f6457613f636140ea565b5b828204905092915050565b6000613f7a8261403b565b9150613f858361403b565b9250817fffffffffffffffffffffffffffffffffffffffffffffffffffffffffffffffff0483118215151615613fbe57613fbd6140bb565b5b828202905092915050565b6000613fd48261403b565b9150613fdf8361403b565b925082821015613ff257613ff16140bb565b5b828203905092915050565b60006140088261401b565b9050919050565b60008115159050919050565b600073ffffffffffffffffffffffffffffffffffffffff82169050919050565b6000819050919050565b600060ff82169050919050565b600061405d82614064565b9050919050565b600061406f8261401b565b9050919050565b600061408182614045565b9050919050565b60005b838110156140a657808201518184015260208101905061408b565b838111156140b5576000848401525b50505050565b7f4e487b7100000000000000000000000000000000000000000000000000000000600052601160045260246000fd5b7f4e487b7100000000000000000000000000000000000000000000000000000000600052601260045260246000fd5b7f4f776e61626c653a206e6577206f776e657220697320746865207a65726f206160008201527f6464726573730000000000000000000000000000000000000000000000000000602082015250565b7f616464506f736974696f6e3a20616c7265616479206861766520706f7369746960008201527f6f6e000000000000000000000000000000000000000000000000000000000000602082015250565b7f2173616665417070726f76650000000000000000000000000000000000000000600082015250565b7f72656d6f7665506f736974696f6e3a2042616420646562740000000000000000600082015250565b7f7570646174655661756c743a20446562742072656d61696e73206f6e2074686560008201527f206578697374696e67207661756c742e00000000000000000000000000000000602082015250565b7f616464446562743a2062616420646562742c2063616e6e6f7420616464206d6f60008201527f7265206465627420616e796d6f72652e00000000000000000000000000000000602082015250565b7f496e697469616c697a61626c653a20636f6e747261637420697320616c72656160008201527f647920696e697469616c697a6564000000000000000000000000000000000000602082015250565b7f21736166655472616e7366657245564d4f530000000000000000000000000000600082015250565b7f616464446562743a206e6f20706f736974696f6e20696e20666f72207468697360008201527f20746f6b656e2e00000000000000000000000000000000000000000000000000602082015250565b7f4f776e61626c653a2063616c6c6572206973206e6f7420746865206f776e6572600082015250565b7f6163637275653a2063757272656e74546f74616c5374616b6564203c20746f7460008201527f616c416d6f756e74000000000000000000000000000000000000000000000000602082015250565b7f616464506f736974696f6e3a2062616420646562742c2063616e6e6f74206f7060008201527f656e20706f736974696f6e000000000000000000000000000000000000000000602082015250565b7f6b696c6c3a2072656d6f76656420706f736974696f6e00000000000000000000600082015250565b7f537461796b696e673a204e6f742077686974656c6973746564204b696c6c657260008201527f2e00000000000000000000000000000000000000000000000000000000000000602082015250565b7f616464446562743a20657874726144656274496e42617365203c3d2030000000600082015250565b7f616464506f736974696f6e3a206d73672e76616c756520213d20657175697479600082015250565b7f6b696c6c3a207374696c6c207361666520706f736974696f6e2e000000000000600082015250565b7f537461796b696e673a204e6f742077686974656c69737465642064656c65676160008201527f746f722e00000000000000000000000000000000000000000000000000000000602082015250565b7f496e697469616c697a61626c653a20636f6e7472616374206973206e6f74206960008201527f6e697469616c697a696e67000000000000000000000000000000000000000000602082015250565b7f21736166655472616e7366657246726f6d000000000000000000000000000000600082015250565b7f72656d6f7665506f736974696f6e3a204e6f20706f736974696f6e20666f722060008201527f7468697320746f6b656e00000000000000000000000000000000000000000000602082015250565b61464781613ffd565b811461465257600080fd5b50565b61465e8161400f565b811461466957600080fd5b50565b6146758161403b565b811461468057600080fd5b5056fea26469706673582212209765be7ac4489b74ea198f13b6b6e0da5874262ee322266c38d52aecb6f7c1fe64736f6c63430008040033",
  "linkReferences": {},
  "deployedLinkReferences": {}
}