{
  "_format": "hh-sol-artifact-1",
  "contractName": "Stayking",
  "sourceName": "contracts/token/Stayking.sol",
  "abi": [
    {
      "anonymous": false,
      "inputs": [
        {
          "indexed": false,
          "internalType": "address",
          "name": "delegator",
          "type": "address"
        },
        {
          "indexed": false,
          "internalType": "uint256",
          "name": "amount",
          "type": "uint256"
        }
      ],
      "name": "Accrue",
      "type": "event"
    },
    {
      "anonymous": false,
      "inputs": [
        {
          "indexed": false,
          "internalType": "address",
          "name": "user",
          "type": "address"
        },
        {
          "indexed": false,
          "internalType": "address",
          "name": "vault",
          "type": "address"
        },
        {
          "indexed": false,
          "internalType": "uint256",
          "name": "equity",
          "type": "uint256"
        },
        {
          "indexed": false,
          "internalType": "uint256",
          "name": "debtInBase",
          "type": "uint256"
        },
        {
          "indexed": false,
          "internalType": "uint256",
          "name": "debt",
          "type": "uint256"
        },
        {
          "indexed": false,
          "internalType": "uint256",
          "name": "share",
          "type": "uint256"
        }
      ],
      "name": "AddPosition",
      "type": "event"
    },
    {
      "anonymous": false,
      "inputs": [
        {
          "indexed": false,
          "internalType": "address",
          "name": "token",
          "type": "address"
        },
        {
          "indexed": false,
          "internalType": "address",
          "name": "vault",
          "type": "address"
        }
      ],
      "name": "AddVault",
      "type": "event"
    },
    {
      "anonymous": false,
      "inputs": [
        {
          "indexed": false,
          "internalType": "uint256",
          "name": "minDebtInBase",
          "type": "uint256"
        },
        {
          "indexed": false,
          "internalType": "uint256",
          "name": "killFactorBps",
          "type": "uint256"
        }
      ],
      "name": "ChangeConfigs",
      "type": "event"
    },
    {
      "anonymous": false,
      "inputs": [
        {
          "indexed": false,
          "internalType": "address",
          "name": "swapHelper",
          "type": "address"
        }
      ],
      "name": "ChangeSwapHelper",
      "type": "event"
    },
    {
      "anonymous": false,
      "inputs": [
        {
          "indexed": false,
          "internalType": "address",
          "name": "token",
          "type": "address"
        },
        {
          "indexed": false,
          "internalType": "address",
          "name": "vault",
          "type": "address"
        }
      ],
      "name": "ChangeVault",
      "type": "event"
    },
    {
      "anonymous": false,
      "inputs": [
        {
          "indexed": false,
          "internalType": "uint8",
          "name": "version",
          "type": "uint8"
        }
      ],
      "name": "Initialized",
      "type": "event"
    },
    {
      "anonymous": false,
      "inputs": [
        {
          "indexed": false,
          "internalType": "address",
          "name": "user",
          "type": "address"
        }
      ],
      "name": "Kill",
      "type": "event"
    },
    {
      "anonymous": false,
      "inputs": [
        {
          "indexed": true,
          "internalType": "address",
          "name": "previousOwner",
          "type": "address"
        },
        {
          "indexed": true,
          "internalType": "address",
          "name": "newOwner",
          "type": "address"
        }
      ],
      "name": "OwnershipTransferred",
      "type": "event"
    },
    {
      "anonymous": false,
      "inputs": [
        {
          "indexed": false,
          "internalType": "address",
          "name": "user",
          "type": "address"
        },
        {
          "indexed": false,
          "internalType": "address",
          "name": "vault",
          "type": "address"
        },
        {
          "indexed": false,
          "internalType": "uint256",
          "name": "amount",
          "type": "uint256"
        },
        {
          "indexed": false,
          "internalType": "uint256",
          "name": "share",
          "type": "uint256"
        },
        {
          "indexed": false,
          "internalType": "uint256",
          "name": "debt",
          "type": "uint256"
        }
      ],
      "name": "PositionChanged",
      "type": "event"
    },
    {
      "anonymous": false,
      "inputs": [
        {
          "indexed": false,
          "internalType": "address",
          "name": "user",
          "type": "address"
        },
        {
          "indexed": false,
          "internalType": "address",
          "name": "vault",
          "type": "address"
        },
        {
          "indexed": false,
          "internalType": "uint256",
          "name": "equity",
          "type": "uint256"
        },
        {
          "indexed": false,
          "internalType": "uint256",
          "name": "debtInBase",
          "type": "uint256"
        },
        {
          "indexed": false,
          "internalType": "uint256",
          "name": "debt",
          "type": "uint256"
        },
        {
          "indexed": false,
          "internalType": "uint256",
          "name": "share",
          "type": "uint256"
        }
      ],
      "name": "RemovePosition",
      "type": "event"
    },
    {
      "anonymous": false,
      "inputs": [
        {
          "indexed": false,
          "internalType": "address",
          "name": "user",
          "type": "address"
        },
        {
          "indexed": false,
          "internalType": "uint256",
          "name": "amount",
          "type": "uint256"
        },
        {
          "indexed": false,
          "internalType": "uint256",
          "name": "share",
          "type": "uint256"
        }
      ],
      "name": "Stake",
      "type": "event"
    },
    {
      "anonymous": false,
      "inputs": [
        {
          "indexed": false,
          "internalType": "address",
          "name": "user",
          "type": "address"
        },
        {
          "indexed": false,
          "internalType": "uint256",
          "name": "amount",
          "type": "uint256"
        },
        {
          "indexed": false,
          "internalType": "uint256",
          "name": "share",
          "type": "uint256"
        }
      ],
      "name": "Unstake",
      "type": "event"
    },
    {
      "inputs": [],
      "name": "BASE_TOKEN",
      "outputs": [
        {
          "internalType": "address",
          "name": "",
          "type": "address"
        }
      ],
      "stateMutability": "view",
      "type": "function"
    },
    {
      "inputs": [
        {
          "internalType": "address",
          "name": "swapHelper_",
          "type": "address"
        }
      ],
      "name": "__Stayking_init",
      "outputs": [],
      "stateMutability": "nonpayable",
      "type": "function"
    },
    {
      "inputs": [
        {
          "internalType": "uint256",
          "name": "amount",
          "type": "uint256"
        }
      ],
      "name": "accrue",
      "outputs": [],
      "stateMutability": "payable",
      "type": "function"
    },
    {
      "inputs": [
        {
          "internalType": "address",
          "name": "debtToken",
          "type": "address"
        },
        {
          "internalType": "uint256",
          "name": "extraDebtInBase",
          "type": "uint256"
        }
      ],
      "name": "addDebt",
      "outputs": [],
      "stateMutability": "nonpayable",
      "type": "function"
    },
    {
      "inputs": [
        {
          "internalType": "address",
          "name": "debtToken",
          "type": "address"
        },
        {
          "internalType": "uint256",
          "name": "extraEquity",
          "type": "uint256"
        }
      ],
      "name": "addEquity",
      "outputs": [],
      "stateMutability": "payable",
      "type": "function"
    },
    {
      "inputs": [
        {
          "internalType": "address",
          "name": "debtToken",
          "type": "address"
        },
        {
          "internalType": "uint256",
          "name": "equity",
          "type": "uint256"
        },
        {
          "internalType": "uint256",
          "name": "debtInBase",
          "type": "uint256"
        }
      ],
      "name": "addPosition",
      "outputs": [],
      "stateMutability": "payable",
      "type": "function"
    },
    {
      "inputs": [
        {
          "internalType": "uint256",
          "name": "amount",
          "type": "uint256"
        }
      ],
      "name": "amountToShare",
      "outputs": [
        {
          "internalType": "uint256",
          "name": "",
          "type": "uint256"
        }
      ],
      "stateMutability": "view",
      "type": "function"
    },
    {
      "inputs": [
        {
          "internalType": "address",
          "name": "_newSwapHelper",
          "type": "address"
        }
      ],
      "name": "changeSwapHelper",
      "outputs": [],
      "stateMutability": "nonpayable",
      "type": "function"
    },
    {
      "inputs": [
        {
          "internalType": "address",
          "name": "user",
          "type": "address"
        },
        {
          "internalType": "address",
          "name": "vault",
          "type": "address"
        }
      ],
      "name": "debtAmountOf",
      "outputs": [
        {
          "internalType": "uint256",
          "name": "",
          "type": "uint256"
        }
      ],
      "stateMutability": "view",
      "type": "function"
    },
    {
      "inputs": [
        {
          "internalType": "uint256",
          "name": "amount",
          "type": "uint256"
        }
      ],
      "name": "delegate",
      "outputs": [],
      "stateMutability": "nonpayable",
      "type": "function"
    },
    {
      "inputs": [
        {
          "internalType": "address",
          "name": "debtToken",
          "type": "address"
        },
        {
          "internalType": "uint256",
          "name": "positionId",
          "type": "uint256"
        }
      ],
      "name": "isKillable",
      "outputs": [
        {
          "internalType": "bool",
          "name": "",
          "type": "bool"
        }
      ],
      "stateMutability": "view",
      "type": "function"
    },
    {
      "inputs": [
        {
          "internalType": "address",
          "name": "debtToken",
          "type": "address"
        },
        {
          "internalType": "uint256",
          "name": "positionId",
          "type": "uint256"
        }
      ],
      "name": "kill",
      "outputs": [],
      "stateMutability": "nonpayable",
      "type": "function"
    },
    {
      "inputs": [],
      "name": "killFactorBps",
      "outputs": [
        {
          "internalType": "uint256",
          "name": "",
          "type": "uint256"
        }
      ],
      "stateMutability": "view",
      "type": "function"
    },
    {
      "inputs": [],
      "name": "minDebtInBase",
      "outputs": [
        {
          "internalType": "uint256",
          "name": "",
          "type": "uint256"
        }
      ],
      "stateMutability": "view",
      "type": "function"
    },
    {
      "inputs": [],
      "name": "owner",
      "outputs": [
        {
          "internalType": "address",
          "name": "",
          "type": "address"
        }
      ],
      "stateMutability": "view",
      "type": "function"
    },
    {
      "inputs": [
        {
          "internalType": "address",
          "name": "",
          "type": "address"
        },
        {
          "internalType": "address",
          "name": "",
          "type": "address"
        }
      ],
      "name": "positionIdOf",
      "outputs": [
        {
          "internalType": "uint256",
          "name": "",
          "type": "uint256"
        }
      ],
      "stateMutability": "view",
      "type": "function"
    },
    {
      "inputs": [
        {
          "internalType": "address",
          "name": "",
          "type": "address"
        },
        {
          "internalType": "uint256",
          "name": "",
          "type": "uint256"
        }
      ],
      "name": "positions",
      "outputs": [
        {
          "internalType": "address",
          "name": "user",
          "type": "address"
        },
        {
          "internalType": "uint256",
          "name": "share",
          "type": "uint256"
        }
      ],
      "stateMutability": "view",
      "type": "function"
    },
    {
      "inputs": [
        {
          "internalType": "address",
          "name": "",
          "type": "address"
        }
      ],
      "name": "positionsLengthOf",
      "outputs": [
        {
          "internalType": "uint256",
          "name": "",
          "type": "uint256"
        }
      ],
      "stateMutability": "view",
      "type": "function"
    },
    {
      "inputs": [
        {
          "internalType": "address",
          "name": "debtToken",
          "type": "address"
        }
      ],
      "name": "removePosition",
      "outputs": [],
      "stateMutability": "nonpayable",
      "type": "function"
    },
    {
      "inputs": [],
      "name": "renounceOwnership",
      "outputs": [],
      "stateMutability": "nonpayable",
      "type": "function"
    },
    {
      "inputs": [
        {
          "internalType": "address",
          "name": "debtToken",
          "type": "address"
        },
        {
          "internalType": "uint256",
          "name": "repaidDebt",
          "type": "uint256"
        }
      ],
      "name": "repayDebt",
      "outputs": [],
      "stateMutability": "nonpayable",
      "type": "function"
    },
    {
      "inputs": [
        {
          "internalType": "uint256",
          "name": "_minDebtInBase",
          "type": "uint256"
        },
        {
          "internalType": "uint256",
          "name": "_killFactorBps",
          "type": "uint256"
        }
      ],
      "name": "setConfigs",
      "outputs": [],
      "stateMutability": "nonpayable",
      "type": "function"
    },
    {
      "inputs": [
        {
          "internalType": "address",
          "name": "token",
          "type": "address"
        },
        {
          "internalType": "address",
          "name": "vault",
          "type": "address"
        }
      ],
      "name": "setVault",
      "outputs": [],
      "stateMutability": "nonpayable",
      "type": "function"
    },
    {
      "inputs": [
        {
          "internalType": "address",
          "name": "delegator",
          "type": "address"
        },
        {
          "internalType": "bool",
          "name": "status",
          "type": "bool"
        }
      ],
      "name": "setWhitelistDelegatorStatus",
      "outputs": [],
      "stateMutability": "nonpayable",
      "type": "function"
    },
    {
      "inputs": [
        {
          "internalType": "uint256",
          "name": "share",
          "type": "uint256"
        }
      ],
      "name": "shareToAmount",
      "outputs": [
        {
          "internalType": "uint256",
          "name": "",
          "type": "uint256"
        }
      ],
      "stateMutability": "view",
      "type": "function"
    },
    {
      "inputs": [],
      "name": "swapHelper",
      "outputs": [
        {
          "internalType": "contract ISwapHelper",
          "name": "",
          "type": "address"
        }
      ],
      "stateMutability": "view",
      "type": "function"
    },
    {
      "inputs": [
        {
          "internalType": "address",
          "name": "",
          "type": "address"
        }
      ],
      "name": "tokenToVault",
      "outputs": [
        {
          "internalType": "address",
          "name": "",
          "type": "address"
        }
      ],
      "stateMutability": "view",
      "type": "function"
    },
    {
      "inputs": [],
      "name": "totalAmount",
      "outputs": [
        {
          "internalType": "uint256",
          "name": "",
          "type": "uint256"
        }
      ],
      "stateMutability": "view",
      "type": "function"
    },
    {
      "inputs": [
        {
          "internalType": "address",
          "name": "",
          "type": "address"
        }
      ],
      "name": "totalDebtOf",
      "outputs": [
        {
          "internalType": "uint256",
          "name": "",
          "type": "uint256"
        }
      ],
      "stateMutability": "view",
      "type": "function"
    },
    {
      "inputs": [],
      "name": "totalShare",
      "outputs": [
        {
          "internalType": "uint256",
          "name": "",
          "type": "uint256"
        }
      ],
      "stateMutability": "view",
      "type": "function"
    },
    {
      "inputs": [
        {
          "internalType": "address",
          "name": "newOwner",
          "type": "address"
        }
      ],
      "name": "transferOwnership",
      "outputs": [],
      "stateMutability": "nonpayable",
      "type": "function"
    },
    {
      "inputs": [
        {
          "internalType": "address",
          "name": "",
          "type": "address"
        }
      ],
      "name": "whitelistedDelegator",
      "outputs": [
        {
          "internalType": "bool",
          "name": "",
          "type": "bool"
        }
      ],
      "stateMutability": "view",
      "type": "function"
    },
    {
      "inputs": [
        {
          "internalType": "address",
          "name": "",
          "type": "address"
        }
      ],
      "name": "whitelistedKiller",
      "outputs": [
        {
          "internalType": "bool",
          "name": "",
          "type": "bool"
        }
      ],
      "stateMutability": "view",
      "type": "function"
    }
  ],
  "bytecode": "0x608060405234801561001057600080fd5b50613f1b806100206000396000f3fe6080604052600436106101ee5760003560e01c8063715018a61161010d578063a3381d28116100a0578063c7a85b121161006f578063c7a85b121461073b578063cff07fd114610764578063df5ca1f814610780578063ef6b2479146107a9578063f2fde38b146107c5576101ee565b8063a3381d2814610646578063b9f3595814610683578063bb94d3db146106c0578063c1be6677146106fd576101ee565b806392707802116100dc578063927078021461058e57806392b3855b146105b75780639f2b2833146105e05780639fa6dd351461061d576101ee565b8063715018a614610507578063744f4cf61461051e57806379e20bdc1461053a5780638da5cb5b14610563576101ee565b80632d4047e5116101855780634520951e116101545780634520951e1461043b57806351dabb75146104645780635ff02531146104a1578063714ccf7b146104de576101ee565b80632d4047e51461036f5780632d6f8013146103ac5780632e746e7b146103e957806334c389ef14610412576101ee565b80631a39d8ef116101c15780631a39d8ef146102b1578063210663e4146102dc57806327dfaf921461030757806328f55a6c14610344576101ee565b8063026c4207146101f35780630c7e17251461021e5780630fc6a11c1461025b578063178483a714610286575b600080fd5b3480156101ff57600080fd5b506102086107ee565b60405161021591906137c5565b60405180910390f35b34801561022a57600080fd5b5061024560048036038101906102409190612e9e565b6107f4565b604051610252919061337b565b60405180910390f35b34801561026757600080fd5b50610270610827565b60405161027d919061356a565b60405180910390f35b34801561029257600080fd5b5061029b61084d565b6040516102a891906137c5565b60405180910390f35b3480156102bd57600080fd5b506102c6610853565b6040516102d391906137c5565b60405180910390f35b3480156102e857600080fd5b506102f1610859565b6040516102fe919061337b565b60405180910390f35b34801561031357600080fd5b5061032e60048036038101906103299190612ec7565b61085e565b60405161033b91906137c5565b60405180910390f35b34801561035057600080fd5b506103596108f1565b60405161036691906137c5565b60405180910390f35b34801561037b57600080fd5b5061039660048036038101906103919190612ff3565b6108f7565b6040516103a391906137c5565b60405180910390f35b3480156103b857600080fd5b506103d360048036038101906103ce9190612ff3565b61092b565b6040516103e091906137c5565b60405180910390f35b3480156103f557600080fd5b50610410600480360381019061040b9190612e9e565b61095f565b005b34801561041e57600080fd5b5061043960048036038101906104349190612f3f565b6109e2565b005b34801561044757600080fd5b50610462600480360381019061045d9190613045565b610cc8565b005b34801561047057600080fd5b5061048b60048036038101906104869190612e9e565b610d1b565b60405161049891906137c5565b60405180910390f35b3480156104ad57600080fd5b506104c860048036038101906104c39190612f3f565b610d33565b6040516104d5919061354f565b60405180910390f35b3480156104ea57600080fd5b5061050560048036038101906105009190612ec7565b610eb2565b005b34801561051357600080fd5b5061051c611254565b005b61053860048036038101906105339190612ff3565b611268565b005b34801561054657600080fd5b50610561600480360381019061055c9190612f3f565b6112f7565b005b34801561056f57600080fd5b50610578611596565b604051610585919061337b565b60405180910390f35b34801561059a57600080fd5b506105b560048036038101906105b09190612f3f565b6115c0565b005b3480156105c357600080fd5b506105de60048036038101906105d99190612e9e565b61185a565b005b3480156105ec57600080fd5b5061060760048036038101906106029190612e9e565b6118d9565b60405161061491906137c5565b60405180910390f35b34801561062957600080fd5b50610644600480360381019061063f9190612ff3565b6118f1565b005b34801561065257600080fd5b5061066d60048036038101906106689190612e9e565b611980565b60405161067a919061354f565b60405180910390f35b34801561068f57600080fd5b506106aa60048036038101906106a59190612e9e565b6119a0565b6040516106b7919061354f565b60405180910390f35b3480156106cc57600080fd5b506106e760048036038101906106e29190612ec7565b6119c0565b6040516106f491906137c5565b60405180910390f35b34801561070957600080fd5b50610724600480360381019061071f9190612f3f565b6119e5565b6040516107329291906134ef565b60405180910390f35b34801561074757600080fd5b50610762600480360381019061075d9190612f03565b611a46565b005b61077e60048036038101906107799190612f7b565b611aa9565b005b34801561078c57600080fd5b506107a760048036038101906107a29190612e9e565b611ee5565b005b6107c360048036038101906107be9190612f3f565b61229e565b005b3480156107d157600080fd5b506107ec60048036038101906107e79190612e9e565b612493565b005b609b5481565b60996020528060005260406000206000915054906101000a900473ffffffffffffffffffffffffffffffffffffffff1681565b60a260009054906101000a900473ffffffffffffffffffffffffffffffffffffffff1681565b609c5481565b609a5481565b600081565b60008173ffffffffffffffffffffffffffffffffffffffff16636592183b846040518263ffffffff1660e01b8152600401610899919061337b565b60206040518083038186803b1580156108b157600080fd5b505afa1580156108c5573d6000803e3d6000fd5b505050506040513d601f19601f820116820180604052508101906108e9919061301c565b905092915050565b609d5481565b600080609a541461092257609a5482609b5461091391906138b7565b61091d9190613886565b610924565b815b9050919050565b600080609b541461095657609b5482609a5461094791906138b7565b6109519190613886565b610958565b815b9050919050565b610967612517565b8060a260006101000a81548173ffffffffffffffffffffffffffffffffffffffff021916908373ffffffffffffffffffffffffffffffffffffffff1602179055507f85908fddd610f3a049e104d72e983f1e8f5d1cf1544b56d0be1755096350f210816040516109d7919061337b565b60405180910390a150565b6000609960008473ffffffffffffffffffffffffffffffffffffffff1673ffffffffffffffffffffffffffffffffffffffff16815260200190815260200160002060009054906101000a900473ffffffffffffffffffffffffffffffffffffffff1690506000609f60008373ffffffffffffffffffffffffffffffffffffffff1673ffffffffffffffffffffffffffffffffffffffff168152602001908152602001600020609e60003373ffffffffffffffffffffffffffffffffffffffff1673ffffffffffffffffffffffffffffffffffffffff16815260200190815260200160002060008473ffffffffffffffffffffffffffffffffffffffff1673ffffffffffffffffffffffffffffffffffffffff1681526020019081526020016000205481548110610b3b577f4e487b7100000000000000000000000000000000000000000000000000000000600052603260045260246000fd5b906000526020600020906002020190506000816001015411610b92576040517f08c379a0000000000000000000000000000000000000000000000000000000008152600401610b8990613685565b60405180910390fd5b60008311610bd5576040517f08c379a0000000000000000000000000000000000000000000000000000000008152600401610bcc90613705565b60405180910390fd5b610be133858486612595565b506000610bed846108f7565b905080826001016000828254610c039190613830565b925050819055506000610c16338561085e565b9050610c27868460010154836126ca565b610c66576040517f08c379a0000000000000000000000000000000000000000000000000000000008152600401610c5d90613665565b60405180910390fd5b610c7033866127ae565b507ff35a14688e4794e8022cd9e5c7ec6475a6095ef189dea9647fad0de771465b8a3385610ca1866001015461092b565b866001015485604051610cb895949392919061343b565b60405180910390a1505050505050565b610cd0612517565b81609c8190555080609d819055507f2ae72b200de13d2ba3a98dada5fda0bd809e45a31ed7f2a54c4abbfec231a9bd8282604051610d0f9291906137e0565b60405180910390a15050565b60a06020528060005260406000206000915090505481565b600080609960008573ffffffffffffffffffffffffffffffffffffffff1673ffffffffffffffffffffffffffffffffffffffff16815260200190815260200160002060009054906101000a900473ffffffffffffffffffffffffffffffffffffffff1690506000609f60008373ffffffffffffffffffffffffffffffffffffffff1673ffffffffffffffffffffffffffffffffffffffff1681526020019081526020016000208481548110610e11577f4e487b7100000000000000000000000000000000000000000000000000000000600052603260045260246000fd5b90600052602060002090600202016040518060400160405290816000820160009054906101000a900473ffffffffffffffffffffffffffffffffffffffff1673ffffffffffffffffffffffffffffffffffffffff1673ffffffffffffffffffffffffffffffffffffffff1681526020016001820154815250509050610ea8858260200151610ea384600001518661085e565b6126ca565b9250505092915050565b610eba612517565b60008073ffffffffffffffffffffffffffffffffffffffff16609960008573ffffffffffffffffffffffffffffffffffffffff1673ffffffffffffffffffffffffffffffffffffffff16815260200190815260200160002060009054906101000a900473ffffffffffffffffffffffffffffffffffffffff1673ffffffffffffffffffffffffffffffffffffffff161490508015610f90577f7f03ac7449144076e2d9d5a237c3ff0d0108e0a2ebdd5213c4b0de6f4d4f69538383604051610f83929190613396565b60405180910390a16110e9565b6000609960008573ffffffffffffffffffffffffffffffffffffffff1673ffffffffffffffffffffffffffffffffffffffff16815260200190815260200160002060009054906101000a900473ffffffffffffffffffffffffffffffffffffffff1673ffffffffffffffffffffffffffffffffffffffff1663c8dffa956040518163ffffffff1660e01b815260040160206040518083038186803b15801561103757600080fd5b505afa15801561104b573d6000803e3d6000fd5b505050506040513d601f19601f8201168201806040525081019061106f919061301c565b146110af576040517f08c379a00000000000000000000000000000000000000000000000000000000081526004016110a6906135c5565b60405180910390fd5b7fb3911b5760f95a64aaa8d7f1775f57a7b6ed0bcf1ebb3fbfcc045e2f04eaad1183836040516110e0929190613396565b60405180910390a15b81609960008573ffffffffffffffffffffffffffffffffffffffff1673ffffffffffffffffffffffffffffffffffffffff16815260200190815260200160002060006101000a81548173ffffffffffffffffffffffffffffffffffffffff021916908373ffffffffffffffffffffffffffffffffffffffff160217905550609f60008373ffffffffffffffffffffffffffffffffffffffff1673ffffffffffffffffffffffffffffffffffffffff1681526020019081526020016000206040518060400160405280600073ffffffffffffffffffffffffffffffffffffffff1681526020016000815250908060018154018082558091505060019003906000526020600020906002020160009091909190915060008201518160000160006101000a81548173ffffffffffffffffffffffffffffffffffffffff021916908373ffffffffffffffffffffffffffffffffffffffff160217905550602082015181600101555050505050565b61125c612517565b611266600061282e565b565b609760003373ffffffffffffffffffffffffffffffffffffffff1673ffffffffffffffffffffffffffffffffffffffff16815260200190815260200160002060009054906101000a900460ff166112f4576040517f08c379a00000000000000000000000000000000000000000000000000000000081526004016112eb90613745565b60405180910390fd5b50565b6000609960008473ffffffffffffffffffffffffffffffffffffffff1673ffffffffffffffffffffffffffffffffffffffff16815260200190815260200160002060009054906101000a900473ffffffffffffffffffffffffffffffffffffffff1690506000609f60008373ffffffffffffffffffffffffffffffffffffffff1673ffffffffffffffffffffffffffffffffffffffff168152602001908152602001600020609e60003373ffffffffffffffffffffffffffffffffffffffff1673ffffffffffffffffffffffffffffffffffffffff16815260200190815260200160002060008473ffffffffffffffffffffffffffffffffffffffff1673ffffffffffffffffffffffffffffffffffffffff1681526020019081526020016000205481548110611450577f4e487b7100000000000000000000000000000000000000000000000000000000600052603260045260246000fd5b90600052602060002090600202019050600061146c338461085e565b9050838110156114b1576040517f08c379a00000000000000000000000000000000000000000000000000000000081526004016114a890613625565b60405180910390fd5b6114bd853330876128f4565b6114c8858486612a2d565b8273ffffffffffffffffffffffffffffffffffffffff166322867d7833866040518363ffffffff1660e01b81526004016115039291906134ef565b600060405180830381600087803b15801561151d57600080fd5b505af1158015611531573d6000803e3d6000fd5b505050507ff35a14688e4794e8022cd9e5c7ec6475a6095ef189dea9647fad0de771465b8a3384611565856001015461092b565b856001015488866115769190613911565b60405161158795949392919061343b565b60405180910390a15050505050565b6000603360009054906101000a900473ffffffffffffffffffffffffffffffffffffffff16905090565b609860003373ffffffffffffffffffffffffffffffffffffffff1673ffffffffffffffffffffffffffffffffffffffff16815260200190815260200160002060009054906101000a900460ff1661164c576040517f08c379a0000000000000000000000000000000000000000000000000000000008152600401611643906136e5565b60405180910390fd5b6000609960008473ffffffffffffffffffffffffffffffffffffffff1673ffffffffffffffffffffffffffffffffffffffff16815260200190815260200160002060009054906101000a900473ffffffffffffffffffffffffffffffffffffffff1690506000609f60008373ffffffffffffffffffffffffffffffffffffffff1673ffffffffffffffffffffffffffffffffffffffff1681526020019081526020016000208381548110611729577f4e487b7100000000000000000000000000000000000000000000000000000000600052603260045260246000fd5b906000526020600020906002020190506117758482600101546117708460000160009054906101000a900473ffffffffffffffffffffffffffffffffffffffff168661085e565b6126ca565b6117b4576040517f08c379a00000000000000000000000000000000000000000000000000000000081526004016117ab90613645565b60405180910390fd5b60006117c3826001015461092b565b90506117f88260000160009054906101000a900473ffffffffffffffffffffffffffffffffffffffff16828460010154612b63565b7f4b989c8e96b2b5c3aaa80c31769c41b11af9675189b0e4f6b49b82938db9afb48260000160009054906101000a900473ffffffffffffffffffffffffffffffffffffffff1660405161184b919061337b565b60405180910390a15050505050565b600060019054906101000a900460ff166118a9576040517f08c379a00000000000000000000000000000000000000000000000000000000081526004016118a090613765565b60405180910390fd5b6118b1612bd5565b6118b9612c2e565b6118cd678ac7230489e80000611f40610cc8565b6118d68161095f565b50565b60a16020528060005260406000206000915090505481565b609760003373ffffffffffffffffffffffffffffffffffffffff1673ffffffffffffffffffffffffffffffffffffffff16815260200190815260200160002060009054906101000a900460ff1661197d576040517f08c379a000000000000000000000000000000000000000000000000000000000815260040161197490613745565b60405180910390fd5b50565b60986020528060005260406000206000915054906101000a900460ff1681565b60976020528060005260406000206000915054906101000a900460ff1681565b609e602052816000526040600020602052806000526040600020600091509150505481565b609f6020528160005260406000208181548110611a0157600080fd5b9060005260206000209060020201600091509150508060000160009054906101000a900473ffffffffffffffffffffffffffffffffffffffff16908060010154905082565b611a4e612517565b80609760008473ffffffffffffffffffffffffffffffffffffffff1673ffffffffffffffffffffffffffffffffffffffff16815260200190815260200160002060006101000a81548160ff0219169083151502179055505050565b6000609960008573ffffffffffffffffffffffffffffffffffffffff1673ffffffffffffffffffffffffffffffffffffffff16815260200190815260200160002060009054906101000a900473ffffffffffffffffffffffffffffffffffffffff1690506000609e60003373ffffffffffffffffffffffffffffffffffffffff1673ffffffffffffffffffffffffffffffffffffffff16815260200190815260200160002060008373ffffffffffffffffffffffffffffffffffffffff1673ffffffffffffffffffffffffffffffffffffffff1681526020019081526020016000205411611bcc576040517f08c379a0000000000000000000000000000000000000000000000000000000008152600401611bc3906135a5565b60405180910390fd5b348314611c0e576040517f08c379a0000000000000000000000000000000000000000000000000000000008152600401611c0590613725565b60405180910390fd5b60008284611c1c9190613830565b9050609d5481611c2c91906138b7565b61271084611c3a91906138b7565b10611c7a576040517f08c379a0000000000000000000000000000000000000000000000000000000008152600401611c71906136c5565b60405180910390fd5b6000611c8833878587612595565b90506000611c9633846127ae565b9050609f60008573ffffffffffffffffffffffffffffffffffffffff1673ffffffffffffffffffffffffffffffffffffffff16815260200190815260200160002060405180604001604052803373ffffffffffffffffffffffffffffffffffffffff16815260200183815250908060018154018082558091505060019003906000526020600020906002020160009091909190915060008201518160000160006101000a81548173ffffffffffffffffffffffffffffffffffffffff021916908373ffffffffffffffffffffffffffffffffffffffff160217905550602082015181600101555050600060a060008673ffffffffffffffffffffffffffffffffffffffff1673ffffffffffffffffffffffffffffffffffffffff168152602001908152602001600020549050600160a060008773ffffffffffffffffffffffffffffffffffffffff1673ffffffffffffffffffffffffffffffffffffffff1681526020019081526020016000206000828254611e129190613830565b9250508190555080609e60003373ffffffffffffffffffffffffffffffffffffffff1673ffffffffffffffffffffffffffffffffffffffff16815260200190815260200160002060008773ffffffffffffffffffffffffffffffffffffffff1673ffffffffffffffffffffffffffffffffffffffff168152602001908152602001600020819055507f92b0fd5c6dbe6ec5b43a8afae4c587c1db47afcca43a21b7800bd848fcf8e496338689898787604051611ed39695949392919061348e565b60405180910390a15050505050505050565b6000609960008373ffffffffffffffffffffffffffffffffffffffff1673ffffffffffffffffffffffffffffffffffffffff16815260200190815260200160002060009054906101000a900473ffffffffffffffffffffffffffffffffffffffff1690506000609f60008373ffffffffffffffffffffffffffffffffffffffff1673ffffffffffffffffffffffffffffffffffffffff168152602001908152602001600020609e60003373ffffffffffffffffffffffffffffffffffffffff1673ffffffffffffffffffffffffffffffffffffffff16815260200190815260200160002060008473ffffffffffffffffffffffffffffffffffffffff1673ffffffffffffffffffffffffffffffffffffffff168152602001908152602001600020548154811061203e577f4e487b7100000000000000000000000000000000000000000000000000000000600052603260045260246000fd5b906000526020600020906002020190506000816001015411612095576040517f08c379a000000000000000000000000000000000000000000000000000000000815260040161208c906137a5565b60405180910390fd5b60006120a1338461085e565b9050600060a260009054906101000a900473ffffffffffffffffffffffffffffffffffffffff1673ffffffffffffffffffffffffffffffffffffffff16637dceefee600087856040518463ffffffff1660e01b8152600401612105939291906133bf565b60206040518083038186803b15801561211d57600080fd5b505afa158015612131573d6000803e3d6000fd5b505050506040513d601f19601f82011682018060405250810190612155919061301c565b90506000612166846001015461092b565b9050818110156121ab576040517f08c379a00000000000000000000000000000000000000000000000000000000081526004016121a290613605565b60405180910390fd5b6121ba33828660010154612b63565b7f3cb91b4d61d4fefa96da17651a09b54f7b6751cb68d11134cf0efe0a49657968338684846121e99190613911565b858789600101546040516122029695949392919061348e565b60405180910390a1600084600101819055506000609e60003373ffffffffffffffffffffffffffffffffffffffff1673ffffffffffffffffffffffffffffffffffffffff16815260200190815260200160002060008773ffffffffffffffffffffffffffffffffffffffff1673ffffffffffffffffffffffffffffffffffffffff16815260200190815260200160002081905550505050505050565b6000609960008473ffffffffffffffffffffffffffffffffffffffff1673ffffffffffffffffffffffffffffffffffffffff16815260200190815260200160002060009054906101000a900473ffffffffffffffffffffffffffffffffffffffff1690506000609f60008373ffffffffffffffffffffffffffffffffffffffff1673ffffffffffffffffffffffffffffffffffffffff168152602001908152602001600020609e60003373ffffffffffffffffffffffffffffffffffffffff1673ffffffffffffffffffffffffffffffffffffffff16815260200190815260200160002060008473ffffffffffffffffffffffffffffffffffffffff1673ffffffffffffffffffffffffffffffffffffffff16815260200190815260200160002054815481106123f7577f4e487b7100000000000000000000000000000000000000000000000000000000600052603260045260246000fd5b9060005260206000209060020201905061241133846127ae565b5061241b836108f7565b81600101600082825461242e9190613830565b925050819055507ff35a14688e4794e8022cd9e5c7ec6475a6095ef189dea9647fad0de771465b8a3383612465846001015461092b565b8460010154612474338861085e565b60405161248595949392919061343b565b60405180910390a150505050565b61249b612517565b600073ffffffffffffffffffffffffffffffffffffffff168173ffffffffffffffffffffffffffffffffffffffff16141561250b576040517f08c379a000000000000000000000000000000000000000000000000000000000815260040161250290613585565b60405180910390fd5b6125148161282e565b50565b61251f612c87565b73ffffffffffffffffffffffffffffffffffffffff1661253d611596565b73ffffffffffffffffffffffffffffffffffffffff1614612593576040517f08c379a000000000000000000000000000000000000000000000000000000000815260040161258a906136a5565b60405180910390fd5b565b600060a260009054906101000a900473ffffffffffffffffffffffffffffffffffffffff1673ffffffffffffffffffffffffffffffffffffffff16637dceefee856000856040518463ffffffff1660e01b81526004016125f7939291906133bf565b60206040518083038186803b15801561260f57600080fd5b505afa158015612623573d6000803e3d6000fd5b505050506040513d601f19601f82011682018060405250810190612647919061301c565b90508273ffffffffffffffffffffffffffffffffffffffff1663185cc75186836040518363ffffffff1660e01b81526004016126849291906134ef565b600060405180830381600087803b15801561269e57600080fd5b505af11580156126b2573d6000803e3d6000fd5b505050506126c1848284612c8f565b50949350505050565b60008060a260009054906101000a900473ffffffffffffffffffffffffffffffffffffffff1673ffffffffffffffffffffffffffffffffffffffff16637dceefee600087866040518463ffffffff1660e01b815260040161272d939291906133bf565b60206040518083038186803b15801561274557600080fd5b505afa158015612759573d6000803e3d6000fd5b505050506040513d601f19601f8201168201806040525081019061277d919061301c565b9050609d5461278b8561092b565b61279591906138b7565b612710826127a391906138b7565b109150509392505050565b60006127b9826108f7565b905081609a60008282546127cd9190613830565b9250508190555080609b60008282546127e69190613830565b925050819055507f5af417134f72a9d41143ace85b0a26dce6f550f894f2cbc1eeee8810603d91b683838360405161282093929190613518565b60405180910390a192915050565b6000603360009054906101000a900473ffffffffffffffffffffffffffffffffffffffff16905081603360006101000a81548173ffffffffffffffffffffffffffffffffffffffff021916908373ffffffffffffffffffffffffffffffffffffffff1602179055508173ffffffffffffffffffffffffffffffffffffffff168173ffffffffffffffffffffffffffffffffffffffff167f8be0079c531659141344cd1fd0a4f28419497f9722a3daafe3b4186f6b6457e060405160405180910390a35050565b6000808573ffffffffffffffffffffffffffffffffffffffff166323b872dd868686604051602401612928939291906133bf565b6040516020818303038152906040529060e01b6020820180517bffffffffffffffffffffffffffffffffffffffffffffffffffffffff83818316178352505050506040516129769190613364565b6000604051808303816000865af19150503d80600081146129b3576040519150601f19603f3d011682016040523d82523d6000602084013e6129b8565b606091505b50915091508180156129e657506000815114806129e55750808060200190518101906129e49190612fca565b5b5b612a25576040517f08c379a0000000000000000000000000000000000000000000000000000000008152600401612a1c90613785565b60405180910390fd5b505050505050565b6000808473ffffffffffffffffffffffffffffffffffffffff1663095ea7b38585604051602401612a5f9291906134ef565b6040516020818303038152906040529060e01b6020820180517bffffffffffffffffffffffffffffffffffffffffffffffffffffffff8381831617835250505050604051612aad9190613364565b6000604051808303816000865af19150503d8060008114612aea576040519150601f19603f3d011682016040523d82523d6000602084013e612aef565b606091505b5091509150818015612b1d5750600081511480612b1c575080806020019051810190612b1b9190612fca565b5b5b612b5c576040517f08c379a0000000000000000000000000000000000000000000000000000000008152600401612b53906135e5565b60405180910390fd5b5050505050565b81609a6000828254612b759190613911565b9250508190555080609b6000828254612b8e9190613911565b925050819055507ff960dbf9e5d0682f7a298ed974e33a28b4464914b7a2bfac12ae419a9afeb280838383604051612bc893929190613518565b60405180910390a1505050565b600060019054906101000a900460ff16612c24576040517f08c379a0000000000000000000000000000000000000000000000000000000008152600401612c1b90613765565b60405180910390fd5b612c2c612d7b565b565b600060019054906101000a900460ff16612c7d576040517f08c379a0000000000000000000000000000000000000000000000000000000008152600401612c7490613765565b60405180910390fd5b612c85612ddc565b565b600033905090565b6000612cbe8460a260009054906101000a900473ffffffffffffffffffffffffffffffffffffffff1685612a2d565b60a260009054906101000a900473ffffffffffffffffffffffffffffffffffffffff1673ffffffffffffffffffffffffffffffffffffffff16630ed2fc9585600086866040518563ffffffff1660e01b8152600401612d2094939291906133f6565b602060405180830381600087803b158015612d3a57600080fd5b505af1158015612d4e573d6000803e3d6000fd5b505050506040513d601f19601f82011682018060405250810190612d72919061301c565b90509392505050565b600060019054906101000a900460ff16612dca576040517f08c379a0000000000000000000000000000000000000000000000000000000008152600401612dc190613765565b60405180910390fd5b612dda612dd5612c87565b61282e565b565b600060019054906101000a900460ff16612e2b576040517f08c379a0000000000000000000000000000000000000000000000000000000008152600401612e2290613765565b60405180910390fd5b6001606581905550565b600081359050612e4481613ea0565b92915050565b600081359050612e5981613eb7565b92915050565b600081519050612e6e81613eb7565b92915050565b600081359050612e8381613ece565b92915050565b600081519050612e9881613ece565b92915050565b600060208284031215612eb057600080fd5b6000612ebe84828501612e35565b91505092915050565b60008060408385031215612eda57600080fd5b6000612ee885828601612e35565b9250506020612ef985828601612e35565b9150509250929050565b60008060408385031215612f1657600080fd5b6000612f2485828601612e35565b9250506020612f3585828601612e4a565b9150509250929050565b60008060408385031215612f5257600080fd5b6000612f6085828601612e35565b9250506020612f7185828601612e74565b9150509250929050565b600080600060608486031215612f9057600080fd5b6000612f9e86828701612e35565b9350506020612faf86828701612e74565b9250506040612fc086828701612e74565b9150509250925092565b600060208284031215612fdc57600080fd5b6000612fea84828501612e5f565b91505092915050565b60006020828403121561300557600080fd5b600061301384828501612e74565b91505092915050565b60006020828403121561302e57600080fd5b600061303c84828501612e89565b91505092915050565b6000806040838503121561305857600080fd5b600061306685828601612e74565b925050602061307785828601612e74565b9150509250929050565b61308a81613945565b82525050565b61309981613957565b82525050565b60006130aa82613809565b6130b48185613814565b93506130c48185602086016139b1565b80840191505092915050565b6130d98161398d565b82525050565b60006130ec60268361381f565b91506130f782613a42565b604082019050919050565b600061310f60228361381f565b915061311a82613a91565b604082019050919050565b6000613132602d8361381f565b915061313d82613ae0565b604082019050919050565b6000613155600c8361381f565b915061316082613b2f565b602082019050919050565b600061317860188361381f565b915061318382613b58565b602082019050919050565b600061319b601f8361381f565b91506131a682613b81565b602082019050919050565b60006131be601a8361381f565b91506131c982613baa565b602082019050919050565b60006131e160308361381f565b91506131ec82613bd3565b604082019050919050565b600061320460278361381f565b915061320f82613c22565b604082019050919050565b600061322760208361381f565b915061323282613c71565b602082019050919050565b600061324a602b8361381f565b915061325582613c9a565b604082019050919050565b600061326d60218361381f565b915061327882613ce9565b604082019050919050565b6000613290601d8361381f565b915061329b82613d38565b602082019050919050565b60006132b360208361381f565b91506132be82613d61565b602082019050919050565b60006132d660248361381f565b91506132e182613d8a565b604082019050919050565b60006132f9602b8361381f565b915061330482613dd9565b604082019050919050565b600061331c60118361381f565b915061332782613e28565b602082019050919050565b600061333f602a8361381f565b915061334a82613e51565b604082019050919050565b61335e81613983565b82525050565b6000613370828461309f565b915081905092915050565b60006020820190506133906000830184613081565b92915050565b60006040820190506133ab6000830185613081565b6133b86020830184613081565b9392505050565b60006060820190506133d46000830186613081565b6133e16020830185613081565b6133ee6040830184613355565b949350505050565b600060808201905061340b6000830187613081565b6134186020830186613081565b6134256040830185613355565b6134326060830184613355565b95945050505050565b600060a0820190506134506000830188613081565b61345d6020830187613081565b61346a6040830186613355565b6134776060830185613355565b6134846080830184613355565b9695505050505050565b600060c0820190506134a36000830189613081565b6134b06020830188613081565b6134bd6040830187613355565b6134ca6060830186613355565b6134d76080830185613355565b6134e460a0830184613355565b979650505050505050565b60006040820190506135046000830185613081565b6135116020830184613355565b9392505050565b600060608201905061352d6000830186613081565b61353a6020830185613355565b6135476040830184613355565b949350505050565b60006020820190506135646000830184613090565b92915050565b600060208201905061357f60008301846130d0565b92915050565b6000602082019050818103600083015261359e816130df565b9050919050565b600060208201905081810360008301526135be81613102565b9050919050565b600060208201905081810360008301526135de81613125565b9050919050565b600060208201905081810360008301526135fe81613148565b9050919050565b6000602082019050818103600083015261361e8161316b565b9050919050565b6000602082019050818103600083015261363e8161318e565b9050919050565b6000602082019050818103600083015261365e816131b1565b9050919050565b6000602082019050818103600083015261367e816131d4565b9050919050565b6000602082019050818103600083015261369e816131f7565b9050919050565b600060208201905081810360008301526136be8161321a565b9050919050565b600060208201905081810360008301526136de8161323d565b9050919050565b600060208201905081810360008301526136fe81613260565b9050919050565b6000602082019050818103600083015261371e81613283565b9050919050565b6000602082019050818103600083015261373e816132a6565b9050919050565b6000602082019050818103600083015261375e816132c9565b9050919050565b6000602082019050818103600083015261377e816132ec565b9050919050565b6000602082019050818103600083015261379e8161330f565b9050919050565b600060208201905081810360008301526137be81613332565b9050919050565b60006020820190506137da6000830184613355565b92915050565b60006040820190506137f56000830185613355565b6138026020830184613355565b9392505050565b600081519050919050565b600081905092915050565b600082825260208201905092915050565b600061383b82613983565b915061384683613983565b9250827fffffffffffffffffffffffffffffffffffffffffffffffffffffffffffffffff0382111561387b5761387a6139e4565b5b828201905092915050565b600061389182613983565b915061389c83613983565b9250826138ac576138ab613a13565b5b828204905092915050565b60006138c282613983565b91506138cd83613983565b9250817fffffffffffffffffffffffffffffffffffffffffffffffffffffffffffffffff0483118215151615613906576139056139e4565b5b828202905092915050565b600061391c82613983565b915061392783613983565b92508282101561393a576139396139e4565b5b828203905092915050565b600061395082613963565b9050919050565b60008115159050919050565b600073ffffffffffffffffffffffffffffffffffffffff82169050919050565b6000819050919050565b60006139988261399f565b9050919050565b60006139aa82613963565b9050919050565b60005b838110156139cf5780820151818401526020810190506139b4565b838111156139de576000848401525b50505050565b7f4e487b7100000000000000000000000000000000000000000000000000000000600052601160045260246000fd5b7f4e487b7100000000000000000000000000000000000000000000000000000000600052601260045260246000fd5b7f4f776e61626c653a206e6577206f776e657220697320746865207a65726f206160008201527f6464726573730000000000000000000000000000000000000000000000000000602082015250565b7f616464506f736974696f6e3a20616c7265616479206861766520706f7369746960008201527f6f6e000000000000000000000000000000000000000000000000000000000000602082015250565b7f7365745661756c743a20446562742072656d61696e73206f6e2074686520657860008201527f697374696e67207661756c742e00000000000000000000000000000000000000602082015250565b7f2173616665417070726f76650000000000000000000000000000000000000000600082015250565b7f72656d6f7665506f736974696f6e3a2042616420646562740000000000000000600082015250565b7f7265706179446562743a20746f6f206d75636820726570616964206465627400600082015250565b7f4b696c6c3a207374696c6c207361666520706f736974696f6e2e000000000000600082015250565b7f616464446562743a2062616420646562742c2063616e6e6f7420616464206d6f60008201527f7265206465627420616e796d6f72652e00000000000000000000000000000000602082015250565b7f616464446562743a206e6f20706f736974696f6e20696e20666f72207468697360008201527f20746f6b656e2e00000000000000000000000000000000000000000000000000602082015250565b7f4f776e61626c653a2063616c6c6572206973206e6f7420746865206f776e6572600082015250565b7f616464506f736974696f6e3a2062616420646562742c2063616e6e6f74206f7060008201527f656e20706f736974696f6e000000000000000000000000000000000000000000602082015250565b7f537461796b696e673a204e6f742077686974656c6973746564204b696c6c657260008201527f2e00000000000000000000000000000000000000000000000000000000000000602082015250565b7f616464446562743a20657874726144656274496e42617365203c3d2030000000600082015250565b7f616464506f736974696f6e3a206d73672e76616c756520213d20657175697479600082015250565b7f537461796b696e673a204e6f742077686974656c69737465642064656c65676160008201527f746f722e00000000000000000000000000000000000000000000000000000000602082015250565b7f496e697469616c697a61626c653a20636f6e7472616374206973206e6f74206960008201527f6e697469616c697a696e67000000000000000000000000000000000000000000602082015250565b7f21736166655472616e7366657246726f6d000000000000000000000000000000600082015250565b7f72656d6f7665506f736974696f6e3a204e6f20706f736974696f6e20666f722060008201527f7468697320746f6b656e00000000000000000000000000000000000000000000602082015250565b613ea981613945565b8114613eb457600080fd5b50565b613ec081613957565b8114613ecb57600080fd5b50565b613ed781613983565b8114613ee257600080fd5b5056fea264697066735822122066d279312917174fa509e82d68d0786c90d6cde1e08d8eaca4df1a31e1e5dbed64736f6c63430008040033",
  "linkReferences": {},
  "deployedLinkReferences": {}
}