{
  "_format": "hh-sol-artifact-1",
  "contractName": "Stayking",
  "sourceName": "contracts/token/Stayking.sol",
  "abi": [
    {
      "anonymous": false,
      "inputs": [
        {
          "indexed": false,
          "internalType": "address",
          "name": "delegator",
          "type": "address"
        },
        {
          "indexed": false,
          "internalType": "uint256",
          "name": "amount",
          "type": "uint256"
        }
      ],
      "name": "Accrue",
      "type": "event"
    },
    {
      "anonymous": false,
      "inputs": [
        {
          "indexed": false,
          "internalType": "address",
          "name": "user",
          "type": "address"
        },
        {
          "indexed": false,
          "internalType": "address",
          "name": "vault",
          "type": "address"
        },
        {
          "indexed": false,
          "internalType": "uint256",
          "name": "debt",
          "type": "uint256"
        },
        {
          "indexed": false,
          "internalType": "uint256",
          "name": "debtInBase",
          "type": "uint256"
        }
      ],
      "name": "AddDebt",
      "type": "event"
    },
    {
      "anonymous": false,
      "inputs": [
        {
          "indexed": false,
          "internalType": "address",
          "name": "user",
          "type": "address"
        },
        {
          "indexed": false,
          "internalType": "uint256",
          "name": "amount",
          "type": "uint256"
        }
      ],
      "name": "AddEquity",
      "type": "event"
    },
    {
      "anonymous": false,
      "inputs": [
        {
          "indexed": false,
          "internalType": "address",
          "name": "user",
          "type": "address"
        },
        {
          "indexed": false,
          "internalType": "uint256",
          "name": "equity",
          "type": "uint256"
        },
        {
          "indexed": false,
          "internalType": "uint256",
          "name": "debtInBase",
          "type": "uint256"
        },
        {
          "indexed": false,
          "internalType": "address",
          "name": "vault",
          "type": "address"
        },
        {
          "indexed": false,
          "internalType": "uint256",
          "name": "debt",
          "type": "uint256"
        }
      ],
      "name": "AddPosition",
      "type": "event"
    },
    {
      "anonymous": false,
      "inputs": [
        {
          "indexed": false,
          "internalType": "address",
          "name": "token",
          "type": "address"
        },
        {
          "indexed": false,
          "internalType": "address",
          "name": "vault",
          "type": "address"
        }
      ],
      "name": "AddVault",
      "type": "event"
    },
    {
      "anonymous": false,
      "inputs": [
        {
          "indexed": false,
          "internalType": "uint256",
          "name": "minDebtInBase",
          "type": "uint256"
        },
        {
          "indexed": false,
          "internalType": "uint256",
          "name": "killFactorBps",
          "type": "uint256"
        }
      ],
      "name": "ChangeConfigs",
      "type": "event"
    },
    {
      "anonymous": false,
      "inputs": [
        {
          "indexed": false,
          "internalType": "address",
          "name": "swapHelper",
          "type": "address"
        }
      ],
      "name": "ChangeSwapHelper",
      "type": "event"
    },
    {
      "anonymous": false,
      "inputs": [
        {
          "indexed": false,
          "internalType": "address",
          "name": "token",
          "type": "address"
        },
        {
          "indexed": false,
          "internalType": "address",
          "name": "vault",
          "type": "address"
        }
      ],
      "name": "ChangeVault",
      "type": "event"
    },
    {
      "anonymous": false,
      "inputs": [
        {
          "indexed": false,
          "internalType": "uint8",
          "name": "version",
          "type": "uint8"
        }
      ],
      "name": "Initialized",
      "type": "event"
    },
    {
      "anonymous": false,
      "inputs": [
        {
          "indexed": true,
          "internalType": "address",
          "name": "previousOwner",
          "type": "address"
        },
        {
          "indexed": true,
          "internalType": "address",
          "name": "newOwner",
          "type": "address"
        }
      ],
      "name": "OwnershipTransferred",
      "type": "event"
    },
    {
      "anonymous": false,
      "inputs": [
        {
          "indexed": false,
          "internalType": "address",
          "name": "user",
          "type": "address"
        },
        {
          "indexed": false,
          "internalType": "uint256",
          "name": "amount",
          "type": "uint256"
        }
      ],
      "name": "RemoveEquity",
      "type": "event"
    },
    {
      "anonymous": false,
      "inputs": [
        {
          "indexed": false,
          "internalType": "address",
          "name": "user",
          "type": "address"
        },
        {
          "indexed": false,
          "internalType": "uint256",
          "name": "equity",
          "type": "uint256"
        },
        {
          "indexed": false,
          "internalType": "uint256",
          "name": "debtInBase",
          "type": "uint256"
        },
        {
          "indexed": false,
          "internalType": "address",
          "name": "vault",
          "type": "address"
        },
        {
          "indexed": false,
          "internalType": "uint256",
          "name": "debt",
          "type": "uint256"
        }
      ],
      "name": "RemovePosition",
      "type": "event"
    },
    {
      "anonymous": false,
      "inputs": [
        {
          "indexed": false,
          "internalType": "address",
          "name": "user",
          "type": "address"
        },
        {
          "indexed": false,
          "internalType": "address",
          "name": "vault",
          "type": "address"
        },
        {
          "indexed": false,
          "internalType": "uint256",
          "name": "debt",
          "type": "uint256"
        },
        {
          "indexed": false,
          "internalType": "uint256",
          "name": "debtInBase",
          "type": "uint256"
        }
      ],
      "name": "RepayDebt",
      "type": "event"
    },
    {
      "anonymous": false,
      "inputs": [
        {
          "indexed": false,
          "internalType": "address",
          "name": "user",
          "type": "address"
        },
        {
          "indexed": false,
          "internalType": "uint256",
          "name": "equity",
          "type": "uint256"
        },
        {
          "indexed": false,
          "internalType": "uint256",
          "name": "debtInBase",
          "type": "uint256"
        }
      ],
      "name": "Stake",
      "type": "event"
    },
    {
      "anonymous": false,
      "inputs": [
        {
          "indexed": false,
          "internalType": "address",
          "name": "user",
          "type": "address"
        },
        {
          "indexed": false,
          "internalType": "uint256",
          "name": "equity",
          "type": "uint256"
        },
        {
          "indexed": false,
          "internalType": "uint256",
          "name": "debtInBase",
          "type": "uint256"
        }
      ],
      "name": "Unstake",
      "type": "event"
    },
    {
      "inputs": [],
      "name": "BASE_TOKEN",
      "outputs": [
        {
          "internalType": "address",
          "name": "",
          "type": "address"
        }
      ],
      "stateMutability": "view",
      "type": "function"
    },
    {
      "inputs": [
        {
          "internalType": "address",
          "name": "swapHelper_",
          "type": "address"
        }
      ],
      "name": "__Stayking_init",
      "outputs": [],
      "stateMutability": "nonpayable",
      "type": "function"
    },
    {
      "inputs": [
        {
          "internalType": "uint256",
          "name": "amount",
          "type": "uint256"
        }
      ],
      "name": "accrue",
      "outputs": [],
      "stateMutability": "payable",
      "type": "function"
    },
    {
      "inputs": [
        {
          "internalType": "address",
          "name": "debtToken",
          "type": "address"
        },
        {
          "internalType": "uint256",
          "name": "extraDebtInBase",
          "type": "uint256"
        }
      ],
      "name": "addDebt",
      "outputs": [],
      "stateMutability": "nonpayable",
      "type": "function"
    },
    {
      "inputs": [
        {
          "internalType": "address",
          "name": "debtToken",
          "type": "address"
        },
        {
          "internalType": "uint256",
          "name": "extraEquity",
          "type": "uint256"
        }
      ],
      "name": "addEquity",
      "outputs": [],
      "stateMutability": "payable",
      "type": "function"
    },
    {
      "inputs": [
        {
          "internalType": "address",
          "name": "debtToken",
          "type": "address"
        },
        {
          "internalType": "uint256",
          "name": "equity",
          "type": "uint256"
        },
        {
          "internalType": "uint256",
          "name": "debtInBase",
          "type": "uint256"
        }
      ],
      "name": "addPosition",
      "outputs": [],
      "stateMutability": "payable",
      "type": "function"
    },
    {
      "inputs": [
        {
          "internalType": "address",
          "name": "_newSwapHelper",
          "type": "address"
        }
      ],
      "name": "changeSwapHelper",
      "outputs": [],
      "stateMutability": "nonpayable",
      "type": "function"
    },
    {
      "inputs": [
        {
          "internalType": "uint256",
          "name": "amount",
          "type": "uint256"
        }
      ],
      "name": "delegate",
      "outputs": [],
      "stateMutability": "nonpayable",
      "type": "function"
    },
    {
      "inputs": [
        {
          "internalType": "address",
          "name": "debtToken",
          "type": "address"
        }
      ],
      "name": "harvest",
      "outputs": [],
      "stateMutability": "nonpayable",
      "type": "function"
    },
    {
      "inputs": [
        {
          "internalType": "uint256",
          "name": "positionId",
          "type": "uint256"
        }
      ],
      "name": "isKillable",
      "outputs": [
        {
          "internalType": "bool",
          "name": "",
          "type": "bool"
        }
      ],
      "stateMutability": "view",
      "type": "function"
    },
    {
      "inputs": [
        {
          "internalType": "uint256",
          "name": "positionId",
          "type": "uint256"
        }
      ],
      "name": "kill",
      "outputs": [],
      "stateMutability": "nonpayable",
      "type": "function"
    },
    {
      "inputs": [],
      "name": "killFactorBps",
      "outputs": [
        {
          "internalType": "uint256",
          "name": "",
          "type": "uint256"
        }
      ],
      "stateMutability": "view",
      "type": "function"
    },
    {
      "inputs": [],
      "name": "minDebtInBase",
      "outputs": [
        {
          "internalType": "uint256",
          "name": "",
          "type": "uint256"
        }
      ],
      "stateMutability": "view",
      "type": "function"
    },
    {
      "inputs": [],
      "name": "owner",
      "outputs": [
        {
          "internalType": "address",
          "name": "",
          "type": "address"
        }
      ],
      "stateMutability": "view",
      "type": "function"
    },
    {
      "inputs": [
        {
          "internalType": "address",
          "name": "",
          "type": "address"
        },
        {
          "internalType": "address",
          "name": "",
          "type": "address"
        }
      ],
      "name": "positionIdOf",
      "outputs": [
        {
          "internalType": "uint256",
          "name": "",
          "type": "uint256"
        }
      ],
      "stateMutability": "view",
      "type": "function"
    },
    {
      "inputs": [
        {
          "internalType": "address",
          "name": "",
          "type": "address"
        },
        {
          "internalType": "uint256",
          "name": "",
          "type": "uint256"
        }
      ],
      "name": "positions",
      "outputs": [
        {
          "internalType": "address",
          "name": "user",
          "type": "address"
        },
        {
          "internalType": "uint256",
          "name": "equity",
          "type": "uint256"
        },
        {
          "internalType": "uint256",
          "name": "debtInBase",
          "type": "uint256"
        },
        {
          "internalType": "uint256",
          "name": "debt",
          "type": "uint256"
        },
        {
          "internalType": "uint256",
          "name": "lastHarvestedAt",
          "type": "uint256"
        }
      ],
      "stateMutability": "view",
      "type": "function"
    },
    {
      "inputs": [
        {
          "internalType": "address",
          "name": "",
          "type": "address"
        }
      ],
      "name": "positionsLengthOf",
      "outputs": [
        {
          "internalType": "uint256",
          "name": "",
          "type": "uint256"
        }
      ],
      "stateMutability": "view",
      "type": "function"
    },
    {
      "inputs": [
        {
          "internalType": "address",
          "name": "debtToken",
          "type": "address"
        }
      ],
      "name": "removePosition",
      "outputs": [],
      "stateMutability": "nonpayable",
      "type": "function"
    },
    {
      "inputs": [],
      "name": "renounceOwnership",
      "outputs": [],
      "stateMutability": "nonpayable",
      "type": "function"
    },
    {
      "inputs": [
        {
          "internalType": "address",
          "name": "debtToken",
          "type": "address"
        },
        {
          "internalType": "uint256",
          "name": "repaidDebt",
          "type": "uint256"
        }
      ],
      "name": "repayDebt",
      "outputs": [],
      "stateMutability": "nonpayable",
      "type": "function"
    },
    {
      "inputs": [
        {
          "internalType": "uint256",
          "name": "_minDebtInBase",
          "type": "uint256"
        },
        {
          "internalType": "uint256",
          "name": "_killFactorBps",
          "type": "uint256"
        }
      ],
      "name": "setConfigs",
      "outputs": [],
      "stateMutability": "nonpayable",
      "type": "function"
    },
    {
      "inputs": [
        {
          "internalType": "address",
          "name": "token",
          "type": "address"
        },
        {
          "internalType": "address",
          "name": "vault",
          "type": "address"
        }
      ],
      "name": "setVault",
      "outputs": [],
      "stateMutability": "nonpayable",
      "type": "function"
    },
    {
      "inputs": [
        {
          "internalType": "address",
          "name": "delegator",
          "type": "address"
        },
        {
          "internalType": "bool",
          "name": "status",
          "type": "bool"
        }
      ],
      "name": "setWhitelistDelegatorStatus",
      "outputs": [],
      "stateMutability": "nonpayable",
      "type": "function"
    },
    {
      "inputs": [],
      "name": "swapHelper",
      "outputs": [
        {
          "internalType": "contract ISwapHelper",
          "name": "",
          "type": "address"
        }
      ],
      "stateMutability": "view",
      "type": "function"
    },
    {
      "inputs": [
        {
          "internalType": "address",
          "name": "",
          "type": "address"
        }
      ],
      "name": "tokenToVault",
      "outputs": [
        {
          "internalType": "address",
          "name": "",
          "type": "address"
        }
      ],
      "stateMutability": "view",
      "type": "function"
    },
    {
      "inputs": [
        {
          "internalType": "address",
          "name": "",
          "type": "address"
        }
      ],
      "name": "totalDebtOf",
      "outputs": [
        {
          "internalType": "uint256",
          "name": "",
          "type": "uint256"
        }
      ],
      "stateMutability": "view",
      "type": "function"
    },
    {
      "inputs": [
        {
          "internalType": "address",
          "name": "newOwner",
          "type": "address"
        }
      ],
      "name": "transferOwnership",
      "outputs": [],
      "stateMutability": "nonpayable",
      "type": "function"
    },
    {
      "inputs": [
        {
          "internalType": "address",
          "name": "",
          "type": "address"
        }
      ],
      "name": "whitelistedDelegator",
      "outputs": [
        {
          "internalType": "bool",
          "name": "",
          "type": "bool"
        }
      ],
      "stateMutability": "view",
      "type": "function"
    },
    {
      "inputs": [
        {
          "internalType": "address",
          "name": "",
          "type": "address"
        }
      ],
      "name": "whitelistedKiller",
      "outputs": [
        {
          "internalType": "bool",
          "name": "",
          "type": "bool"
        }
      ],
      "stateMutability": "view",
      "type": "function"
    }
  ],
  "bytecode": "0x608060405234801561001057600080fd5b50613e2f806100206000396000f3fe6080604052600436106101c25760003560e01c80638da5cb5b116100f7578063bb94d3db11610095578063d29a002511610064578063d29a00251461064a578063df5ca1f814610673578063ef6b24791461069c578063f2fde38b146106b8576101c2565b8063bb94d3db14610587578063c1be6677146105c4578063c7a85b1214610605578063cff07fd11461062e576101c2565b80639f2b2833116100d15780639f2b2833146104a75780639fa6dd35146104e4578063a3381d281461050d578063b9f359581461054a576101c2565b80638da5cb5b1461041657806392b3855b1461044157806397e7381e1461046a576101c2565b806334c389ef11610164578063714ccf7b1161013e578063714ccf7b14610391578063715018a6146103ba578063744f4cf6146103d157806379e20bdc146103ed576101c2565b806334c389ef146103025780634520951e1461032b57806351dabb7514610354576101c2565b8063178483a7116101a0578063178483a714610258578063210663e41461028357806328f55a6c146102ae5780632e746e7b146102d9576101c2565b80630c7e1725146101c75780630e5c011e146102045780630fc6a11c1461022d575b600080fd5b3480156101d357600080fd5b506101ee60048036038101906101e99190612c76565b6106e1565b6040516101fb9190613199565b60405180910390f35b34801561021057600080fd5b5061022b60048036038101906102269190612c76565b610714565b005b34801561023957600080fd5b50610242610786565b60405161024f919061337a565b60405180910390f35b34801561026457600080fd5b5061026d6107ac565b60405161027a9190613615565b60405180910390f35b34801561028f57600080fd5b506102986107b2565b6040516102a59190613199565b60405180910390f35b3480156102ba57600080fd5b506102c36107b7565b6040516102d09190613615565b60405180910390f35b3480156102e557600080fd5b5061030060048036038101906102fb9190612c76565b6107bd565b005b34801561030e57600080fd5b5061032960048036038101906103249190612d17565b610840565b005b34801561033757600080fd5b50610352600480360381019061034d9190612e1d565b610c5c565b005b34801561036057600080fd5b5061037b60048036038101906103769190612c76565b610caf565b6040516103889190613615565b60405180910390f35b34801561039d57600080fd5b506103b860048036038101906103b39190612c9f565b610cc7565b005b3480156103c657600080fd5b506103cf61109c565b005b6103eb60048036038101906103e69190612dcb565b6110b0565b005b3480156103f957600080fd5b50610414600480360381019061040f9190612d17565b61113f565b005b34801561042257600080fd5b5061042b6114ce565b6040516104389190613199565b60405180910390f35b34801561044d57600080fd5b5061046860048036038101906104639190612c76565b6114f8565b005b34801561047657600080fd5b50610491600480360381019061048c9190612dcb565b611577565b60405161049e919061335f565b60405180910390f35b3480156104b357600080fd5b506104ce60048036038101906104c99190612c76565b61157e565b6040516104db9190613615565b60405180910390f35b3480156104f057600080fd5b5061050b60048036038101906105069190612dcb565b611596565b005b34801561051957600080fd5b50610534600480360381019061052f9190612c76565b611625565b604051610541919061335f565b60405180910390f35b34801561055657600080fd5b50610571600480360381019061056c9190612c76565b611645565b60405161057e919061335f565b60405180910390f35b34801561059357600080fd5b506105ae60048036038101906105a99190612c9f565b611665565b6040516105bb9190613615565b60405180910390f35b3480156105d057600080fd5b506105eb60048036038101906105e69190612d17565b61168a565b6040516105fc95949392919061330c565b60405180910390f35b34801561061157600080fd5b5061062c60048036038101906106279190612cdb565b6116fd565b005b61064860048036038101906106439190612d53565b611760565b005b34801561065657600080fd5b50610671600480360381019061066c9190612dcb565b611bc1565b005b34801561067f57600080fd5b5061069a60048036038101906106959190612c76565b611c98565b005b6106b660048036038101906106b19190612d17565b612092565b005b3480156106c457600080fd5b506106df60048036038101906106da9190612c76565b612285565b005b60996020528060005260406000206000915054906101000a900473ffffffffffffffffffffffffffffffffffffffff1681565b6000609960008373ffffffffffffffffffffffffffffffffffffffff1673ffffffffffffffffffffffffffffffffffffffff16815260200190815260200160002060009054906101000a900473ffffffffffffffffffffffffffffffffffffffff1690506107823382612309565b5050565b60a160009054906101000a900473ffffffffffffffffffffffffffffffffffffffff1681565b609b5481565b600081565b609c5481565b6107c561230d565b8060a160006101000a81548173ffffffffffffffffffffffffffffffffffffffff021916908373ffffffffffffffffffffffffffffffffffffffff1602179055507f85908fddd610f3a049e104d72e983f1e8f5d1cf1544b56d0be1755096350f210816040516108359190613199565b60405180910390a150565b6000609960008473ffffffffffffffffffffffffffffffffffffffff1673ffffffffffffffffffffffffffffffffffffffff16815260200190815260200160002060009054906101000a900473ffffffffffffffffffffffffffffffffffffffff1690506108ae3382612309565b6000609e60008373ffffffffffffffffffffffffffffffffffffffff1673ffffffffffffffffffffffffffffffffffffffff168152602001908152602001600020609d60003373ffffffffffffffffffffffffffffffffffffffff1673ffffffffffffffffffffffffffffffffffffffff16815260200190815260200160002060008473ffffffffffffffffffffffffffffffffffffffff1673ffffffffffffffffffffffffffffffffffffffff16815260200190815260200160002054815481106109a3577f4e487b7100000000000000000000000000000000000000000000000000000000600052603260045260246000fd5b9060005260206000209060050201905060008160010154116109fa576040517f08c379a00000000000000000000000000000000000000000000000000000000081526004016109f1906135f5565b60405180910390fd5b60008311610a3d576040517f08c379a0000000000000000000000000000000000000000000000000000000008152600401610a3490613435565b60405180910390fd5b6000610a4b3386858761238b565b905080826003016000828254610a619190613680565b9250508190555083826002016000828254610a7c9190613680565b92505081905550610a9682600101548684600201546124c0565b610ad5576040517f08c379a0000000000000000000000000000000000000000000000000000000008152600401610acc90613495565b60405180910390fd5b610ae233866000876125a7565b6000609f60008573ffffffffffffffffffffffffffffffffffffffff1673ffffffffffffffffffffffffffffffffffffffff1681526020019081526020016000205490506001609f60008673ffffffffffffffffffffffffffffffffffffffff1673ffffffffffffffffffffffffffffffffffffffff1681526020019081526020016000206000828254610b769190613680565b9250508190555080609d60003373ffffffffffffffffffffffffffffffffffffffff1673ffffffffffffffffffffffffffffffffffffffff16815260200190815260200160002060008673ffffffffffffffffffffffffffffffffffffffff1673ffffffffffffffffffffffffffffffffffffffff1681526020019081526020016000208190555084609a6000828254610c109190613680565b925050819055507faa20a5dd75ec6d1263e3c57975a019b661fd48ef001aba2377c8ea8c0d81b45f33858488604051610c4c9493929190613214565b60405180910390a1505050505050565b610c6461230d565b81609b8190555080609c819055507f2ae72b200de13d2ba3a98dada5fda0bd809e45a31ed7f2a54c4abbfec231a9bd8282604051610ca3929190613630565b60405180910390a15050565b609f6020528060005260406000206000915090505481565b610ccf61230d565b60008073ffffffffffffffffffffffffffffffffffffffff16609960008573ffffffffffffffffffffffffffffffffffffffff1673ffffffffffffffffffffffffffffffffffffffff16815260200190815260200160002060009054906101000a900473ffffffffffffffffffffffffffffffffffffffff1673ffffffffffffffffffffffffffffffffffffffff161490508015610da5577f7f03ac7449144076e2d9d5a237c3ff0d0108e0a2ebdd5213c4b0de6f4d4f69538383604051610d989291906131b4565b60405180910390a1610efe565b6000609960008573ffffffffffffffffffffffffffffffffffffffff1673ffffffffffffffffffffffffffffffffffffffff16815260200190815260200160002060009054906101000a900473ffffffffffffffffffffffffffffffffffffffff1673ffffffffffffffffffffffffffffffffffffffff1663fc7b9c186040518163ffffffff1660e01b815260040160206040518083038186803b158015610e4c57600080fd5b505afa158015610e60573d6000803e3d6000fd5b505050506040513d601f19601f82011682018060405250810190610e849190612df4565b14610ec4576040517f08c379a0000000000000000000000000000000000000000000000000000000008152600401610ebb906133d5565b60405180910390fd5b7fb3911b5760f95a64aaa8d7f1775f57a7b6ed0bcf1ebb3fbfcc045e2f04eaad118383604051610ef59291906131b4565b60405180910390a15b81609960008573ffffffffffffffffffffffffffffffffffffffff1673ffffffffffffffffffffffffffffffffffffffff16815260200190815260200160002060006101000a81548173ffffffffffffffffffffffffffffffffffffffff021916908373ffffffffffffffffffffffffffffffffffffffff160217905550609e60008373ffffffffffffffffffffffffffffffffffffffff1673ffffffffffffffffffffffffffffffffffffffff1681526020019081526020016000206040518060a00160405280600073ffffffffffffffffffffffffffffffffffffffff1681526020016000815260200160008152602001600081526020016000815250908060018154018082558091505060019003906000526020600020906005020160009091909190915060008201518160000160006101000a81548173ffffffffffffffffffffffffffffffffffffffff021916908373ffffffffffffffffffffffffffffffffffffffff160217905550602082015181600101556040820151816002015560608201518160030155608082015181600401555050505050565b6110a461230d565b6110ae600061260c565b565b609760003373ffffffffffffffffffffffffffffffffffffffff1673ffffffffffffffffffffffffffffffffffffffff16815260200190815260200160002060009054906101000a900460ff1661113c576040517f08c379a000000000000000000000000000000000000000000000000000000000815260040161113390613595565b60405180910390fd5b50565b6000609960008473ffffffffffffffffffffffffffffffffffffffff1673ffffffffffffffffffffffffffffffffffffffff16815260200190815260200160002060009054906101000a900473ffffffffffffffffffffffffffffffffffffffff1690506111ad3382612309565b6000609e60008373ffffffffffffffffffffffffffffffffffffffff1673ffffffffffffffffffffffffffffffffffffffff168152602001908152602001600020609d60003373ffffffffffffffffffffffffffffffffffffffff1673ffffffffffffffffffffffffffffffffffffffff16815260200190815260200160002060008473ffffffffffffffffffffffffffffffffffffffff1673ffffffffffffffffffffffffffffffffffffffff16815260200190815260200160002054815481106112a2577f4e487b7100000000000000000000000000000000000000000000000000000000600052603260045260246000fd5b9060005260206000209060050201905060008160010154116112f9576040517f08c379a00000000000000000000000000000000000000000000000000000000081526004016112f0906135f5565b60405180910390fd5b8281600301541015611340576040517f08c379a000000000000000000000000000000000000000000000000000000000815260040161133790613455565b60405180910390fd5b600081600301548260020154856113579190613707565b61136191906136d6565b905061136f853330876126d2565b61137a85848661280b565b8273ffffffffffffffffffffffffffffffffffffffff166322867d7833866040518363ffffffff1660e01b81526004016113b5929190613259565b600060405180830381600087803b1580156113cf57600080fd5b505af11580156113e3573d6000803e3d6000fd5b50505050838260030160008282546113fb9190613761565b92505081905550808260020160008282546114169190613761565b92505081905550808260010160008282546114319190613680565b9250508190555061144b82600101548684600201546124c0565b61148a576040517f08c379a0000000000000000000000000000000000000000000000000000000008152600401611481906134d5565b60405180910390fd5b7fc6d98eecfc9c78ab62c89a82950079b54874749f1f6f24090f7acc758bc2f309338486846040516114bf9493929190613214565b60405180910390a15050505050565b6000603360009054906101000a900473ffffffffffffffffffffffffffffffffffffffff16905090565b600060019054906101000a900460ff16611547576040517f08c379a000000000000000000000000000000000000000000000000000000000815260040161153e906135b5565b60405180910390fd5b61154f612941565b61155761299a565b61156b678ac7230489e80000611f40610c5c565b611574816107bd565b50565b6000919050565b60a06020528060005260406000206000915090505481565b609760003373ffffffffffffffffffffffffffffffffffffffff1673ffffffffffffffffffffffffffffffffffffffff16815260200190815260200160002060009054906101000a900460ff16611622576040517f08c379a000000000000000000000000000000000000000000000000000000000815260040161161990613595565b60405180910390fd5b50565b60986020528060005260406000206000915054906101000a900460ff1681565b60976020528060005260406000206000915054906101000a900460ff1681565b609d602052816000526040600020602052806000526040600020600091509150505481565b609e60205281600052604060002081815481106116a657600080fd5b9060005260206000209060050201600091509150508060000160009054906101000a900473ffffffffffffffffffffffffffffffffffffffff16908060010154908060020154908060030154908060040154905085565b61170561230d565b80609760008473ffffffffffffffffffffffffffffffffffffffff1673ffffffffffffffffffffffffffffffffffffffff16815260200190815260200160002060006101000a81548160ff0219169083151502179055505050565b6000609960008573ffffffffffffffffffffffffffffffffffffffff1673ffffffffffffffffffffffffffffffffffffffff16815260200190815260200160002060009054906101000a900473ffffffffffffffffffffffffffffffffffffffff1690506000609d60003373ffffffffffffffffffffffffffffffffffffffff1673ffffffffffffffffffffffffffffffffffffffff16815260200190815260200160002060008373ffffffffffffffffffffffffffffffffffffffff1673ffffffffffffffffffffffffffffffffffffffff1681526020019081526020016000205411611883576040517f08c379a000000000000000000000000000000000000000000000000000000000815260040161187a906133b5565b60405180910390fd5b3483146118c5576040517f08c379a00000000000000000000000000000000000000000000000000000000081526004016118bc90613575565b60405180910390fd5b609c5482846118d49190613680565b6118de9190613707565b612710836118ec9190613707565b1061192c576040517f08c379a000000000000000000000000000000000000000000000000000000000815260040161192390613535565b60405180910390fd5b600061193a3386848661238b565b9050609e60008373ffffffffffffffffffffffffffffffffffffffff1673ffffffffffffffffffffffffffffffffffffffff1681526020019081526020016000206040518060a001604052803373ffffffffffffffffffffffffffffffffffffffff16815260200186815260200185815260200183815260200142815250908060018154018082558091505060019003906000526020600020906005020160009091909190915060008201518160000160006101000a81548173ffffffffffffffffffffffffffffffffffffffff021916908373ffffffffffffffffffffffffffffffffffffffff1602179055506020820151816001015560408201518160020155606082015181600301556080820151816004015550506000609f60008473ffffffffffffffffffffffffffffffffffffffff1673ffffffffffffffffffffffffffffffffffffffff1681526020019081526020016000205490506001609f60008573ffffffffffffffffffffffffffffffffffffffff1673ffffffffffffffffffffffffffffffffffffffff1681526020019081526020016000206000828254611ae69190613680565b9250508190555080609d60003373ffffffffffffffffffffffffffffffffffffffff1673ffffffffffffffffffffffffffffffffffffffff16815260200190815260200160002060008573ffffffffffffffffffffffffffffffffffffffff1673ffffffffffffffffffffffffffffffffffffffff16815260200190815260200160002081905550611b7a338787876125a7565b7ffdcae4f475752c4e7cfede570369670d86906b5cf56871591430972694119f7e3386868686604051611bb19594939291906132b9565b60405180910390a1505050505050565b609860003373ffffffffffffffffffffffffffffffffffffffff1673ffffffffffffffffffffffffffffffffffffffff16815260200190815260200160002060009054906101000a900460ff16611c4d576040517f08c379a0000000000000000000000000000000000000000000000000000000008152600401611c4490613555565b60405180910390fd5b611c5681611577565b611c95576040517f08c379a0000000000000000000000000000000000000000000000000000000008152600401611c8c90613475565b60405180910390fd5b50565b6000609960008373ffffffffffffffffffffffffffffffffffffffff1673ffffffffffffffffffffffffffffffffffffffff16815260200190815260200160002060009054906101000a900473ffffffffffffffffffffffffffffffffffffffff1690506000609e60008373ffffffffffffffffffffffffffffffffffffffff1673ffffffffffffffffffffffffffffffffffffffff168152602001908152602001600020609d60003373ffffffffffffffffffffffffffffffffffffffff1673ffffffffffffffffffffffffffffffffffffffff16815260200190815260200160002060008473ffffffffffffffffffffffffffffffffffffffff1673ffffffffffffffffffffffffffffffffffffffff1681526020019081526020016000205481548110611df1577f4e487b7100000000000000000000000000000000000000000000000000000000600052603260045260246000fd5b906000526020600020906005020190506000816001015411611e48576040517f08c379a0000000000000000000000000000000000000000000000000000000008152600401611e3f906134b5565b60405180910390fd5b600060a160009054906101000a900473ffffffffffffffffffffffffffffffffffffffff1673ffffffffffffffffffffffffffffffffffffffff16637dceefee60008685600301546040518463ffffffff1660e01b8152600401611eae939291906131dd565b60206040518083038186803b158015611ec657600080fd5b505afa158015611eda573d6000803e3d6000fd5b505050506040513d601f19601f82011682018060405250810190611efe9190612df4565b90508082600101548360020154611f159190613680565b1015611f56576040517f08c379a0000000000000000000000000000000000000000000000000000000008152600401611f4d906133f5565b60405180910390fd5b611f603384612309565b611f743385846001015485600201546129f3565b506000826001018190555060008260030181905550600082600201819055506000609d60003373ffffffffffffffffffffffffffffffffffffffff1673ffffffffffffffffffffffffffffffffffffffff16815260200190815260200160002060008573ffffffffffffffffffffffffffffffffffffffff1673ffffffffffffffffffffffffffffffffffffffff16815260200190815260200160002081905550816001015482600201546120299190613680565b609a600082825461203a9190613761565b925050819055507f308af3b1cc1930e4950666dff1f87f0b1628d3afccfd29d25de3fcf1370fa07a33836001015484600201548686600301546040516120849594939291906132b9565b60405180910390a150505050565b6000609960008473ffffffffffffffffffffffffffffffffffffffff1673ffffffffffffffffffffffffffffffffffffffff16815260200190815260200160002060009054906101000a900473ffffffffffffffffffffffffffffffffffffffff1690506121003382612309565b6000609e60008373ffffffffffffffffffffffffffffffffffffffff1673ffffffffffffffffffffffffffffffffffffffff168152602001908152602001600020609d60003373ffffffffffffffffffffffffffffffffffffffff1673ffffffffffffffffffffffffffffffffffffffff16815260200190815260200160002060008473ffffffffffffffffffffffffffffffffffffffff1673ffffffffffffffffffffffffffffffffffffffff16815260200190815260200160002054815481106121f5577f4e487b7100000000000000000000000000000000000000000000000000000000600052603260045260246000fd5b90600052602060002090600502019050828160010160008282546122199190613680565b9250508190555061222d33858560006125a7565b61224081600101548583600201546124c0565b61227f576040517f08c379a000000000000000000000000000000000000000000000000000000000815260040161227690613515565b60405180910390fd5b50505050565b61228d61230d565b600073ffffffffffffffffffffffffffffffffffffffff168173ffffffffffffffffffffffffffffffffffffffff1614156122fd576040517f08c379a00000000000000000000000000000000000000000000000000000000081526004016122f490613395565b60405180910390fd5b6123068161260c565b50565b5050565b612315612a5f565b73ffffffffffffffffffffffffffffffffffffffff166123336114ce565b73ffffffffffffffffffffffffffffffffffffffff1614612389576040517f08c379a0000000000000000000000000000000000000000000000000000000008152600401612380906134f5565b60405180910390fd5b565b600060a160009054906101000a900473ffffffffffffffffffffffffffffffffffffffff1673ffffffffffffffffffffffffffffffffffffffff16637dceefee856000856040518463ffffffff1660e01b81526004016123ed939291906131dd565b60206040518083038186803b15801561240557600080fd5b505afa158015612419573d6000803e3d6000fd5b505050506040513d601f19601f8201168201806040525081019061243d9190612df4565b90508273ffffffffffffffffffffffffffffffffffffffff1663185cc75186836040518363ffffffff1660e01b815260040161247a929190613259565b600060405180830381600087803b15801561249457600080fd5b505af11580156124a8573d6000803e3d6000fd5b505050506124b7848284612a67565b50949350505050565b60008060a160009054906101000a900473ffffffffffffffffffffffffffffffffffffffff1673ffffffffffffffffffffffffffffffffffffffff16637dceefee600086866040518463ffffffff1660e01b8152600401612523939291906131dd565b60206040518083038186803b15801561253b57600080fd5b505afa15801561254f573d6000803e3d6000fd5b505050506040513d601f19601f820116820180604052508101906125739190612df4565b9050609c5481866125849190613680565b61258e9190613707565b6127108261259c9190613707565b109150509392505050565b80826125b39190613680565b609a60008282546125c49190613680565b925050819055507f5af417134f72a9d41143ace85b0a26dce6f550f894f2cbc1eeee8810603d91b68483836040516125fe93929190613282565b60405180910390a150505050565b6000603360009054906101000a900473ffffffffffffffffffffffffffffffffffffffff16905081603360006101000a81548173ffffffffffffffffffffffffffffffffffffffff021916908373ffffffffffffffffffffffffffffffffffffffff1602179055508173ffffffffffffffffffffffffffffffffffffffff168173ffffffffffffffffffffffffffffffffffffffff167f8be0079c531659141344cd1fd0a4f28419497f9722a3daafe3b4186f6b6457e060405160405180910390a35050565b6000808573ffffffffffffffffffffffffffffffffffffffff166323b872dd868686604051602401612706939291906131dd565b6040516020818303038152906040529060e01b6020820180517bffffffffffffffffffffffffffffffffffffffffffffffffffffffff83818316178352505050506040516127549190613182565b6000604051808303816000865af19150503d8060008114612791576040519150601f19603f3d011682016040523d82523d6000602084013e612796565b606091505b50915091508180156127c457506000815114806127c35750808060200190518101906127c29190612da2565b5b5b612803576040517f08c379a00000000000000000000000000000000000000000000000000000000081526004016127fa906135d5565b60405180910390fd5b505050505050565b6000808473ffffffffffffffffffffffffffffffffffffffff1663095ea7b3858560405160240161283d929190613259565b6040516020818303038152906040529060e01b6020820180517bffffffffffffffffffffffffffffffffffffffffffffffffffffffff838183161783525050505060405161288b9190613182565b6000604051808303816000865af19150503d80600081146128c8576040519150601f19603f3d011682016040523d82523d6000602084013e6128cd565b606091505b50915091508180156128fb57506000815114806128fa5750808060200190518101906128f99190612da2565b5b5b61293a576040517f08c379a000000000000000000000000000000000000000000000000000000000815260040161293190613415565b60405180910390fd5b5050505050565b600060019054906101000a900460ff16612990576040517f08c379a0000000000000000000000000000000000000000000000000000000008152600401612987906135b5565b60405180910390fd5b612998612b53565b565b600060019054906101000a900460ff166129e9576040517f08c379a00000000000000000000000000000000000000000000000000000000081526004016129e0906135b5565b60405180910390fd5b6129f1612bb4565b565b60008183612a019190613680565b609a6000828254612a129190613761565b925050819055507ff960dbf9e5d0682f7a298ed974e33a28b4464914b7a2bfac12ae419a9afeb280858484604051612a4c93929190613282565b60405180910390a1829050949350505050565b600033905090565b6000612a968460a160009054906101000a900473ffffffffffffffffffffffffffffffffffffffff168561280b565b60a160009054906101000a900473ffffffffffffffffffffffffffffffffffffffff1673ffffffffffffffffffffffffffffffffffffffff16630ed2fc9585600086866040518563ffffffff1660e01b8152600401612af89493929190613214565b602060405180830381600087803b158015612b1257600080fd5b505af1158015612b26573d6000803e3d6000fd5b505050506040513d601f19601f82011682018060405250810190612b4a9190612df4565b90509392505050565b600060019054906101000a900460ff16612ba2576040517f08c379a0000000000000000000000000000000000000000000000000000000008152600401612b99906135b5565b60405180910390fd5b612bb2612bad612a5f565b61260c565b565b600060019054906101000a900460ff16612c03576040517f08c379a0000000000000000000000000000000000000000000000000000000008152600401612bfa906135b5565b60405180910390fd5b6001606581905550565b600081359050612c1c81613db4565b92915050565b600081359050612c3181613dcb565b92915050565b600081519050612c4681613dcb565b92915050565b600081359050612c5b81613de2565b92915050565b600081519050612c7081613de2565b92915050565b600060208284031215612c8857600080fd5b6000612c9684828501612c0d565b91505092915050565b60008060408385031215612cb257600080fd5b6000612cc085828601612c0d565b9250506020612cd185828601612c0d565b9150509250929050565b60008060408385031215612cee57600080fd5b6000612cfc85828601612c0d565b9250506020612d0d85828601612c22565b9150509250929050565b60008060408385031215612d2a57600080fd5b6000612d3885828601612c0d565b9250506020612d4985828601612c4c565b9150509250929050565b600080600060608486031215612d6857600080fd5b6000612d7686828701612c0d565b9350506020612d8786828701612c4c565b9250506040612d9886828701612c4c565b9150509250925092565b600060208284031215612db457600080fd5b6000612dc284828501612c37565b91505092915050565b600060208284031215612ddd57600080fd5b6000612deb84828501612c4c565b91505092915050565b600060208284031215612e0657600080fd5b6000612e1484828501612c61565b91505092915050565b60008060408385031215612e3057600080fd5b6000612e3e85828601612c4c565b9250506020612e4f85828601612c4c565b9150509250929050565b612e6281613795565b82525050565b612e71816137a7565b82525050565b6000612e8282613659565b612e8c8185613664565b9350612e9c818560208601613801565b80840191505092915050565b612eb1816137dd565b82525050565b6000612ec460268361366f565b9150612ecf82613892565b604082019050919050565b6000612ee760228361366f565b9150612ef2826138e1565b604082019050919050565b6000612f0a602d8361366f565b9150612f1582613930565b604082019050919050565b6000612f2d60198361366f565b9150612f388261397f565b602082019050919050565b6000612f50600c8361366f565b9150612f5b826139a8565b602082019050919050565b6000612f73602a8361366f565b9150612f7e826139d1565b604082019050919050565b6000612f96601f8361366f565b9150612fa182613a20565b602082019050919050565b6000612fb9601a8361366f565b9150612fc482613a49565b602082019050919050565b6000612fdc60308361366f565b9150612fe782613a72565b604082019050919050565b6000612fff602b8361366f565b915061300a82613ac1565b604082019050919050565b600061302260268361366f565b915061302d82613b10565b604082019050919050565b600061304560208361366f565b915061305082613b5f565b602082019050919050565b600061306860278361366f565b915061307382613b88565b604082019050919050565b600061308b602b8361366f565b915061309682613bd7565b604082019050919050565b60006130ae60218361366f565b91506130b982613c26565b604082019050919050565b60006130d160208361366f565b91506130dc82613c75565b602082019050919050565b60006130f460248361366f565b91506130ff82613c9e565b604082019050919050565b6000613117602b8361366f565b915061312282613ced565b604082019050919050565b600061313a60118361366f565b915061314582613d3c565b602082019050919050565b600061315d60348361366f565b915061316882613d65565b604082019050919050565b61317c816137d3565b82525050565b600061318e8284612e77565b915081905092915050565b60006020820190506131ae6000830184612e59565b92915050565b60006040820190506131c96000830185612e59565b6131d66020830184612e59565b9392505050565b60006060820190506131f26000830186612e59565b6131ff6020830185612e59565b61320c6040830184613173565b949350505050565b60006080820190506132296000830187612e59565b6132366020830186612e59565b6132436040830185613173565b6132506060830184613173565b95945050505050565b600060408201905061326e6000830185612e59565b61327b6020830184613173565b9392505050565b60006060820190506132976000830186612e59565b6132a46020830185613173565b6132b16040830184613173565b949350505050565b600060a0820190506132ce6000830188612e59565b6132db6020830187613173565b6132e86040830186613173565b6132f56060830185612e59565b6133026080830184613173565b9695505050505050565b600060a0820190506133216000830188612e59565b61332e6020830187613173565b61333b6040830186613173565b6133486060830185613173565b6133556080830184613173565b9695505050505050565b60006020820190506133746000830184612e68565b92915050565b600060208201905061338f6000830184612ea8565b92915050565b600060208201905081810360008301526133ae81612eb7565b9050919050565b600060208201905081810360008301526133ce81612eda565b9050919050565b600060208201905081810360008301526133ee81612efd565b9050919050565b6000602082019050818103600083015261340e81612f20565b9050919050565b6000602082019050818103600083015261342e81612f43565b9050919050565b6000602082019050818103600083015261344e81612f66565b9050919050565b6000602082019050818103600083015261346e81612f89565b9050919050565b6000602082019050818103600083015261348e81612fac565b9050919050565b600060208201905081810360008301526134ae81612fcf565b9050919050565b600060208201905081810360008301526134ce81612ff2565b9050919050565b600060208201905081810360008301526134ee81613015565b9050919050565b6000602082019050818103600083015261350e81613038565b9050919050565b6000602082019050818103600083015261352e8161305b565b9050919050565b6000602082019050818103600083015261354e8161307e565b9050919050565b6000602082019050818103600083015261356e816130a1565b9050919050565b6000602082019050818103600083015261358e816130c4565b9050919050565b600060208201905081810360008301526135ae816130e7565b9050919050565b600060208201905081810360008301526135ce8161310a565b9050919050565b600060208201905081810360008301526135ee8161312d565b9050919050565b6000602082019050818103600083015261360e81613150565b9050919050565b600060208201905061362a6000830184613173565b92915050565b60006040820190506136456000830185613173565b6136526020830184613173565b9392505050565b600081519050919050565b600081905092915050565b600082825260208201905092915050565b600061368b826137d3565b9150613696836137d3565b9250827fffffffffffffffffffffffffffffffffffffffffffffffffffffffffffffffff038211156136cb576136ca613834565b5b828201905092915050565b60006136e1826137d3565b91506136ec836137d3565b9250826136fc576136fb613863565b5b828204905092915050565b6000613712826137d3565b915061371d836137d3565b9250817fffffffffffffffffffffffffffffffffffffffffffffffffffffffffffffffff048311821515161561375657613755613834565b5b828202905092915050565b600061376c826137d3565b9150613777836137d3565b92508282101561378a57613789613834565b5b828203905092915050565b60006137a0826137b3565b9050919050565b60008115159050919050565b600073ffffffffffffffffffffffffffffffffffffffff82169050919050565b6000819050919050565b60006137e8826137ef565b9050919050565b60006137fa826137b3565b9050919050565b60005b8381101561381f578082015181840152602081019050613804565b8381111561382e576000848401525b50505050565b7f4e487b7100000000000000000000000000000000000000000000000000000000600052601160045260246000fd5b7f4e487b7100000000000000000000000000000000000000000000000000000000600052601260045260246000fd5b7f4f776e61626c653a206e6577206f776e657220697320746865207a65726f206160008201527f6464726573730000000000000000000000000000000000000000000000000000602082015250565b7f616464506f736974696f6e3a20616c7265616479206861766520706f7369746960008201527f6f6e000000000000000000000000000000000000000000000000000000000000602082015250565b7f7365745661756c743a20446562742072656d61696e73206f6e2074686520657860008201527f697374696e67207661756c742e00000000000000000000000000000000000000602082015250565b7f72656d6f76654c69717569646974793a20426164206465627400000000000000600082015250565b7f2173616665417070726f76650000000000000000000000000000000000000000600082015250565b7f696e637265617365506f736974696f6e446562743a206578747261446562744960008201527f6e42617365203c3d203000000000000000000000000000000000000000000000602082015250565b7f7265706179446562743a20746f6f206d75636820726570616964206465627400600082015250565b7f4b696c6c3a207374696c6c207361666520706f736974696f6e2e000000000000600082015250565b7f616464446562743a2062616420646562742c2063616e6e6f7420616464206d6f60008201527f7265206465627420616e796d6f72652e00000000000000000000000000000000602082015250565b7f72656d6f76654c69717569646974793a204e6f20706f736974696f6e20666f7260008201527f207468697320746f6b656e000000000000000000000000000000000000000000602082015250565b7f7265706179446562743a2062616420646562742c2063616e6e6f74207265706160008201527f7920646562740000000000000000000000000000000000000000000000000000602082015250565b7f4f776e61626c653a2063616c6c6572206973206e6f7420746865206f776e6572600082015250565b7f6164644571756974793a2062616420646562742c2063616e6e6f74206164642060008201527f6571756974792e00000000000000000000000000000000000000000000000000602082015250565b7f616464506f736974696f6e3a2062616420646562742c2063616e6e6f74206f7060008201527f656e20706f736974696f6e000000000000000000000000000000000000000000602082015250565b7f537461796b696e673a204e6f742077686974656c6973746564204b696c6c657260008201527f2e00000000000000000000000000000000000000000000000000000000000000602082015250565b7f616464506f736974696f6e3a206d73672e76616c756520213d20657175697479600082015250565b7f537461796b696e673a204e6f742077686974656c69737465642064656c65676160008201527f746f722e00000000000000000000000000000000000000000000000000000000602082015250565b7f496e697469616c697a61626c653a20636f6e7472616374206973206e6f74206960008201527f6e697469616c697a696e67000000000000000000000000000000000000000000602082015250565b7f21736166655472616e7366657246726f6d000000000000000000000000000000600082015250565b7f696e637265617365506f736974696f6e446562743a206e6f20706f736974696f60008201527f6e20696e20666f72207468697320746f6b656e2e000000000000000000000000602082015250565b613dbd81613795565b8114613dc857600080fd5b50565b613dd4816137a7565b8114613ddf57600080fd5b50565b613deb816137d3565b8114613df657600080fd5b5056fea26469706673582212204df345b890947ceeee54fc63a85a2ab33a1bb2bbe54d38d3a7b6c6af7523a72664736f6c63430008040033",
  "linkReferences": {},
  "deployedLinkReferences": {}
}