{
  "_format": "hh-sol-artifact-1",
  "contractName": "Stayking",
  "sourceName": "contracts/token/Stayking.sol",
  "abi": [
    {
      "anonymous": false,
      "inputs": [
        {
          "indexed": true,
          "internalType": "address",
          "name": "delegator",
          "type": "address"
        },
        {
          "indexed": false,
          "internalType": "uint256",
          "name": "amount",
          "type": "uint256"
        }
      ],
      "name": "Accrue",
      "type": "event"
    },
    {
      "anonymous": false,
      "inputs": [
        {
          "indexed": true,
          "internalType": "address",
          "name": "user",
          "type": "address"
        },
        {
          "indexed": true,
          "internalType": "address",
          "name": "vault",
          "type": "address"
        },
        {
          "indexed": false,
          "internalType": "uint256",
          "name": "equity",
          "type": "uint256"
        },
        {
          "indexed": false,
          "internalType": "uint256",
          "name": "debtInBase",
          "type": "uint256"
        },
        {
          "indexed": false,
          "internalType": "uint256",
          "name": "debt",
          "type": "uint256"
        },
        {
          "indexed": false,
          "internalType": "uint256",
          "name": "share",
          "type": "uint256"
        }
      ],
      "name": "AddPosition",
      "type": "event"
    },
    {
      "anonymous": false,
      "inputs": [
        {
          "indexed": false,
          "internalType": "address",
          "name": "token",
          "type": "address"
        },
        {
          "indexed": false,
          "internalType": "address",
          "name": "vault",
          "type": "address"
        }
      ],
      "name": "AddVault",
      "type": "event"
    },
    {
      "anonymous": false,
      "inputs": [
        {
          "indexed": false,
          "internalType": "uint256",
          "name": "minDebtInBase",
          "type": "uint256"
        },
        {
          "indexed": false,
          "internalType": "uint256",
          "name": "killFactorBps",
          "type": "uint256"
        }
      ],
      "name": "ChangeConfigs",
      "type": "event"
    },
    {
      "anonymous": false,
      "inputs": [
        {
          "indexed": false,
          "internalType": "address",
          "name": "delegator",
          "type": "address"
        }
      ],
      "name": "ChangeDelegator",
      "type": "event"
    },
    {
      "anonymous": false,
      "inputs": [
        {
          "indexed": false,
          "internalType": "address",
          "name": "token",
          "type": "address"
        },
        {
          "indexed": false,
          "internalType": "address",
          "name": "vault",
          "type": "address"
        }
      ],
      "name": "ChangeVault",
      "type": "event"
    },
    {
      "anonymous": false,
      "inputs": [
        {
          "indexed": false,
          "internalType": "uint8",
          "name": "version",
          "type": "uint8"
        }
      ],
      "name": "Initialized",
      "type": "event"
    },
    {
      "anonymous": false,
      "inputs": [
        {
          "indexed": true,
          "internalType": "address",
          "name": "killer",
          "type": "address"
        },
        {
          "indexed": true,
          "internalType": "address",
          "name": "user",
          "type": "address"
        },
        {
          "indexed": false,
          "internalType": "address",
          "name": "vault",
          "type": "address"
        },
        {
          "indexed": false,
          "internalType": "uint256",
          "name": "equity",
          "type": "uint256"
        },
        {
          "indexed": false,
          "internalType": "uint256",
          "name": "debtInBase",
          "type": "uint256"
        },
        {
          "indexed": false,
          "internalType": "uint256",
          "name": "debt",
          "type": "uint256"
        },
        {
          "indexed": false,
          "internalType": "uint256",
          "name": "share",
          "type": "uint256"
        }
      ],
      "name": "Kill",
      "type": "event"
    },
    {
      "anonymous": false,
      "inputs": [
        {
          "indexed": true,
          "internalType": "address",
          "name": "previousOwner",
          "type": "address"
        },
        {
          "indexed": true,
          "internalType": "address",
          "name": "newOwner",
          "type": "address"
        }
      ],
      "name": "OwnershipTransferred",
      "type": "event"
    },
    {
      "anonymous": false,
      "inputs": [
        {
          "indexed": true,
          "internalType": "address",
          "name": "user",
          "type": "address"
        },
        {
          "indexed": true,
          "internalType": "address",
          "name": "vault",
          "type": "address"
        },
        {
          "indexed": false,
          "internalType": "uint256",
          "name": "amount",
          "type": "uint256"
        },
        {
          "indexed": false,
          "internalType": "uint256",
          "name": "share",
          "type": "uint256"
        },
        {
          "indexed": false,
          "internalType": "uint256",
          "name": "debt",
          "type": "uint256"
        }
      ],
      "name": "PositionChanged",
      "type": "event"
    },
    {
      "anonymous": false,
      "inputs": [
        {
          "indexed": true,
          "internalType": "address",
          "name": "user",
          "type": "address"
        },
        {
          "indexed": true,
          "internalType": "address",
          "name": "vault",
          "type": "address"
        },
        {
          "indexed": false,
          "internalType": "uint256",
          "name": "equity",
          "type": "uint256"
        },
        {
          "indexed": false,
          "internalType": "uint256",
          "name": "debtInBase",
          "type": "uint256"
        },
        {
          "indexed": false,
          "internalType": "uint256",
          "name": "debt",
          "type": "uint256"
        },
        {
          "indexed": false,
          "internalType": "uint256",
          "name": "share",
          "type": "uint256"
        }
      ],
      "name": "RemovePosition",
      "type": "event"
    },
    {
      "anonymous": false,
      "inputs": [
        {
          "indexed": true,
          "internalType": "address",
          "name": "delegator",
          "type": "address"
        },
        {
          "indexed": true,
          "internalType": "address",
          "name": "user",
          "type": "address"
        },
        {
          "indexed": false,
          "internalType": "uint256",
          "name": "amount",
          "type": "uint256"
        },
        {
          "indexed": false,
          "internalType": "uint256",
          "name": "share",
          "type": "uint256"
        }
      ],
      "name": "Stake",
      "type": "event"
    },
    {
      "anonymous": false,
      "inputs": [
        {
          "indexed": true,
          "internalType": "address",
          "name": "delegator",
          "type": "address"
        },
        {
          "indexed": true,
          "internalType": "address",
          "name": "user",
          "type": "address"
        },
        {
          "indexed": false,
          "internalType": "uint256",
          "name": "amount",
          "type": "uint256"
        },
        {
          "indexed": false,
          "internalType": "uint256",
          "name": "share",
          "type": "uint256"
        }
      ],
      "name": "Unstake",
      "type": "event"
    },
    {
      "inputs": [
        {
          "internalType": "address",
          "name": "delegator_",
          "type": "address"
        },
        {
          "internalType": "address",
          "name": "uEVMOS_",
          "type": "address"
        }
      ],
      "name": "__Stayking_init",
      "outputs": [],
      "stateMutability": "nonpayable",
      "type": "function"
    },
    {
      "inputs": [
        {
          "internalType": "uint256",
          "name": "currentTotalStaked",
          "type": "uint256"
        }
      ],
      "name": "accrue",
      "outputs": [],
      "stateMutability": "payable",
      "type": "function"
    },
    {
      "inputs": [
        {
          "internalType": "address",
          "name": "debtToken",
          "type": "address"
        },
        {
          "internalType": "uint256",
          "name": "extraDebtInBase",
          "type": "uint256"
        }
      ],
      "name": "addDebt",
      "outputs": [],
      "stateMutability": "nonpayable",
      "type": "function"
    },
    {
      "inputs": [
        {
          "internalType": "address",
          "name": "debtToken",
          "type": "address"
        },
        {
          "internalType": "uint256",
          "name": "extraEquity",
          "type": "uint256"
        }
      ],
      "name": "addEquity",
      "outputs": [],
      "stateMutability": "payable",
      "type": "function"
    },
    {
      "inputs": [
        {
          "internalType": "address",
          "name": "debtToken",
          "type": "address"
        },
        {
          "internalType": "uint256",
          "name": "equity",
          "type": "uint256"
        },
        {
          "internalType": "uint256",
          "name": "debtInBase",
          "type": "uint256"
        }
      ],
      "name": "addPosition",
      "outputs": [],
      "stateMutability": "payable",
      "type": "function"
    },
    {
      "inputs": [
        {
          "internalType": "uint256",
          "name": "amount",
          "type": "uint256"
        }
      ],
      "name": "amountToShare",
      "outputs": [
        {
          "internalType": "uint256",
          "name": "",
          "type": "uint256"
        }
      ],
      "stateMutability": "view",
      "type": "function"
    },
    {
      "inputs": [
        {
          "internalType": "address",
          "name": "_delegator",
          "type": "address"
        }
      ],
      "name": "changeDelegator",
      "outputs": [],
      "stateMutability": "nonpayable",
      "type": "function"
    },
    {
      "inputs": [
        {
          "internalType": "address",
          "name": "user",
          "type": "address"
        },
        {
          "internalType": "address",
          "name": "vault",
          "type": "address"
        }
      ],
      "name": "debtAmountOf",
      "outputs": [
        {
          "internalType": "uint256",
          "name": "",
          "type": "uint256"
        }
      ],
      "stateMutability": "view",
      "type": "function"
    },
    {
      "inputs": [],
      "name": "delegator",
      "outputs": [
        {
          "internalType": "address",
          "name": "",
          "type": "address"
        }
      ],
      "stateMutability": "view",
      "type": "function"
    },
    {
      "inputs": [
        {
          "internalType": "address",
          "name": "debtToken",
          "type": "address"
        },
        {
          "internalType": "uint256",
          "name": "positionId",
          "type": "uint256"
        }
      ],
      "name": "isKillable",
      "outputs": [
        {
          "internalType": "bool",
          "name": "healthy",
          "type": "bool"
        }
      ],
      "stateMutability": "view",
      "type": "function"
    },
    {
      "inputs": [
        {
          "internalType": "address",
          "name": "debtToken",
          "type": "address"
        },
        {
          "internalType": "uint256",
          "name": "positionId",
          "type": "uint256"
        }
      ],
      "name": "kill",
      "outputs": [],
      "stateMutability": "nonpayable",
      "type": "function"
    },
    {
      "inputs": [],
      "name": "killFactorBps",
      "outputs": [
        {
          "internalType": "uint256",
          "name": "",
          "type": "uint256"
        }
      ],
      "stateMutability": "view",
      "type": "function"
    },
    {
      "inputs": [],
      "name": "minDebtInBase",
      "outputs": [
        {
          "internalType": "uint256",
          "name": "",
          "type": "uint256"
        }
      ],
      "stateMutability": "view",
      "type": "function"
    },
    {
      "inputs": [],
      "name": "owner",
      "outputs": [
        {
          "internalType": "address",
          "name": "",
          "type": "address"
        }
      ],
      "stateMutability": "view",
      "type": "function"
    },
    {
      "inputs": [
        {
          "internalType": "address",
          "name": "",
          "type": "address"
        },
        {
          "internalType": "address",
          "name": "",
          "type": "address"
        }
      ],
      "name": "positionIdOf",
      "outputs": [
        {
          "internalType": "uint256",
          "name": "",
          "type": "uint256"
        }
      ],
      "stateMutability": "view",
      "type": "function"
    },
    {
      "inputs": [
        {
          "internalType": "address",
          "name": "",
          "type": "address"
        },
        {
          "internalType": "uint256",
          "name": "",
          "type": "uint256"
        }
      ],
      "name": "positions",
      "outputs": [
        {
          "internalType": "address",
          "name": "user",
          "type": "address"
        },
        {
          "internalType": "uint256",
          "name": "share",
          "type": "uint256"
        }
      ],
      "stateMutability": "view",
      "type": "function"
    },
    {
      "inputs": [
        {
          "internalType": "address",
          "name": "",
          "type": "address"
        }
      ],
      "name": "positionsLengthOf",
      "outputs": [
        {
          "internalType": "uint256",
          "name": "",
          "type": "uint256"
        }
      ],
      "stateMutability": "view",
      "type": "function"
    },
    {
      "inputs": [
        {
          "internalType": "address",
          "name": "debtToken",
          "type": "address"
        }
      ],
      "name": "removePosition",
      "outputs": [],
      "stateMutability": "nonpayable",
      "type": "function"
    },
    {
      "inputs": [],
      "name": "renounceOwnership",
      "outputs": [],
      "stateMutability": "nonpayable",
      "type": "function"
    },
    {
      "inputs": [
        {
          "internalType": "address",
          "name": "debtToken",
          "type": "address"
        },
        {
          "internalType": "uint256",
          "name": "repaidDebt",
          "type": "uint256"
        }
      ],
      "name": "repayDebt",
      "outputs": [],
      "stateMutability": "nonpayable",
      "type": "function"
    },
    {
      "inputs": [
        {
          "internalType": "address",
          "name": "debtToken",
          "type": "address"
        },
        {
          "internalType": "uint256",
          "name": "minRepaid",
          "type": "uint256"
        }
      ],
      "name": "repayDebtInBase",
      "outputs": [],
      "stateMutability": "payable",
      "type": "function"
    },
    {
      "inputs": [
        {
          "internalType": "uint256",
          "name": "_minDebtInBase",
          "type": "uint256"
        },
        {
          "internalType": "uint256",
          "name": "_killFactorBps",
          "type": "uint256"
        }
      ],
      "name": "setConfigs",
      "outputs": [],
      "stateMutability": "nonpayable",
      "type": "function"
    },
    {
      "inputs": [
        {
          "internalType": "address",
          "name": "token",
          "type": "address"
        },
        {
          "internalType": "address",
          "name": "vault",
          "type": "address"
        }
      ],
      "name": "setVault",
      "outputs": [],
      "stateMutability": "nonpayable",
      "type": "function"
    },
    {
      "inputs": [
        {
          "internalType": "uint256",
          "name": "share",
          "type": "uint256"
        }
      ],
      "name": "shareToAmount",
      "outputs": [
        {
          "internalType": "uint256",
          "name": "",
          "type": "uint256"
        }
      ],
      "stateMutability": "view",
      "type": "function"
    },
    {
      "inputs": [
        {
          "internalType": "address",
          "name": "",
          "type": "address"
        }
      ],
      "name": "tokenToVault",
      "outputs": [
        {
          "internalType": "address",
          "name": "",
          "type": "address"
        }
      ],
      "stateMutability": "view",
      "type": "function"
    },
    {
      "inputs": [],
      "name": "totalAmount",
      "outputs": [
        {
          "internalType": "uint256",
          "name": "",
          "type": "uint256"
        }
      ],
      "stateMutability": "view",
      "type": "function"
    },
    {
      "inputs": [
        {
          "internalType": "address",
          "name": "",
          "type": "address"
        }
      ],
      "name": "totalDebtOf",
      "outputs": [
        {
          "internalType": "uint256",
          "name": "",
          "type": "uint256"
        }
      ],
      "stateMutability": "view",
      "type": "function"
    },
    {
      "inputs": [],
      "name": "totalShare",
      "outputs": [
        {
          "internalType": "uint256",
          "name": "",
          "type": "uint256"
        }
      ],
      "stateMutability": "view",
      "type": "function"
    },
    {
      "inputs": [
        {
          "internalType": "address",
          "name": "newOwner",
          "type": "address"
        }
      ],
      "name": "transferOwnership",
      "outputs": [],
      "stateMutability": "nonpayable",
      "type": "function"
    },
    {
      "inputs": [],
      "name": "uEVMOS",
      "outputs": [
        {
          "internalType": "contract IUnbondedEvmos",
          "name": "",
          "type": "address"
        }
      ],
      "stateMutability": "view",
      "type": "function"
    },
    {
      "inputs": [
        {
          "internalType": "address",
          "name": "",
          "type": "address"
        }
      ],
      "name": "whitelistedKiller",
      "outputs": [
        {
          "internalType": "bool",
          "name": "",
          "type": "bool"
        }
      ],
      "stateMutability": "view",
      "type": "function"
    },
    {
      "stateMutability": "payable",
      "type": "receive"
    }
  ],
  "bytecode": "0x608060405234801561001057600080fd5b5061466c806100206000396000f3fe6080604052600436106101dc5760003560e01c806379e20bdc11610102578063bb94d3db11610095578063cff07fd111610064578063cff07fd1146106e6578063df5ca1f814610702578063ef6b24791461072b578063f2fde38b14610747576101e3565b8063bb94d3db14610624578063c1be667714610661578063c6918a611461069f578063ce9b7930146106bb576101e3565b8063a3381d28116100d1578063a3381d281461056a578063afd06b34146105a7578063b1ae5ed3146105d2578063b2a2a96b146105fb576101e3565b806379e20bdc146104b05780638da5cb5b146104d957806392707802146105045780639f2b28331461052d576101e3565b80632d6f80131161017a5780635ff02531116101495780635ff0253114610417578063714ccf7b14610454578063715018a61461047d578063744f4cf614610494576101e3565b80632d6f80131461034b57806334c389ef146103885780634520951e146103b157806351dabb75146103da576101e3565b80631a39d8ef116101b65780631a39d8ef1461027b57806327dfaf92146102a657806328f55a6c146102e35780632d4047e51461030e576101e3565b8063026c4207146101e85780630c7e172514610213578063178483a714610250576101e3565b366101e357005b600080fd5b3480156101f457600080fd5b506101fd610770565b60405161020a9190613db4565b60405180910390f35b34801561021f57600080fd5b5061023a600480360381019061023591906134b3565b610776565b60405161024791906139cc565b60405180910390f35b34801561025c57600080fd5b506102656107a9565b6040516102729190613db4565b60405180910390f35b34801561028757600080fd5b506102906107af565b60405161029d9190613db4565b60405180910390f35b3480156102b257600080fd5b506102cd60048036038101906102c891906134dc565b6107b5565b6040516102da9190613db4565b60405180910390f35b3480156102ef57600080fd5b506102f8610848565b6040516103059190613db4565b60405180910390f35b34801561031a57600080fd5b50610335600480360381019061033091906135cc565b61084e565b6040516103429190613db4565b60405180910390f35b34801561035757600080fd5b50610372600480360381019061036d91906135cc565b610882565b60405161037f9190613db4565b60405180910390f35b34801561039457600080fd5b506103af60048036038101906103aa9190613518565b6108b6565b005b3480156103bd57600080fd5b506103d860048036038101906103d3919061361e565b610c25565b005b3480156103e657600080fd5b5061040160048036038101906103fc91906134b3565b610c78565b60405161040e9190613db4565b60405180910390f35b34801561042357600080fd5b5061043e60048036038101906104399190613518565b610c90565b60405161044b9190613ac3565b60405180910390f35b34801561046057600080fd5b5061047b600480360381019061047691906134dc565b610e2b565b005b34801561048957600080fd5b506104926111cd565b005b6104ae60048036038101906104a991906135cc565b6111e1565b005b3480156104bc57600080fd5b506104d760048036038101906104d29190613518565b611321565b005b3480156104e557600080fd5b506104ee6115a7565b6040516104fb91906139cc565b60405180910390f35b34801561051057600080fd5b5061052b60048036038101906105269190613518565b6115d1565b005b34801561053957600080fd5b50610554600480360381019061054f91906134b3565b6118d5565b6040516105619190613db4565b60405180910390f35b34801561057657600080fd5b50610591600480360381019061058c91906134b3565b6118ed565b60405161059e9190613ac3565b60405180910390f35b3480156105b357600080fd5b506105bc61190d565b6040516105c99190613ade565b60405180910390f35b3480156105de57600080fd5b506105f960048036038101906105f491906134b3565b611933565b005b34801561060757600080fd5b50610622600480360381019061061d91906134dc565b6119b6565b005b34801561063057600080fd5b5061064b600480360381019061064691906134dc565b611b5c565b6040516106589190613db4565b60405180910390f35b34801561066d57600080fd5b5061068860048036038101906106839190613518565b611b81565b604051610696929190613a47565b60405180910390f35b6106b960048036038101906106b49190613518565b611be2565b005b3480156106c757600080fd5b506106d0611e77565b6040516106dd91906139cc565b60405180910390f35b61070060048036038101906106fb9190613554565b611e9d565b005b34801561070e57600080fd5b50610729600480360381019061072491906134b3565b612409565b005b61074560048036038101906107409190613518565b6127ad565b005b34801561075357600080fd5b5061076e600480360381019061076991906134b3565b6129a9565b005b609b5481565b60996020528060005260406000206000915054906101000a900473ffffffffffffffffffffffffffffffffffffffff1681565b609c5481565b609a5481565b60008173ffffffffffffffffffffffffffffffffffffffff16636592183b846040518263ffffffff1660e01b81526004016107f091906139cc565b60206040518083038186803b15801561080857600080fd5b505afa15801561081c573d6000803e3d6000fd5b505050506040513d601f19601f8201168201806040525081019061084091906135f5565b905092915050565b609d5481565b600080609a541461087957609a5482609b5461086a9190613f22565b6108749190613ef1565b61087b565b815b9050919050565b600080609b54146108ad57609b5482609a5461089e9190613f22565b6108a89190613ef1565b6108af565b815b9050919050565b6000609960008473ffffffffffffffffffffffffffffffffffffffff1673ffffffffffffffffffffffffffffffffffffffff16815260200190815260200160002060009054906101000a900473ffffffffffffffffffffffffffffffffffffffff169050600060a060008373ffffffffffffffffffffffffffffffffffffffff1673ffffffffffffffffffffffffffffffffffffffff168152602001908152602001600020609f60003373ffffffffffffffffffffffffffffffffffffffff1673ffffffffffffffffffffffffffffffffffffffff16815260200190815260200160002060008473ffffffffffffffffffffffffffffffffffffffff1673ffffffffffffffffffffffffffffffffffffffff1681526020019081526020016000205481548110610a0f577f4e487b7100000000000000000000000000000000000000000000000000000000600052603260045260246000fd5b906000526020600020906002020190506000816001015411610a66576040517f08c379a0000000000000000000000000000000000000000000000000000000008152600401610a5d90613c14565b60405180910390fd5b60008311610aa9576040517f08c379a0000000000000000000000000000000000000000000000000000000008152600401610aa090613cd4565b60405180910390fd5b8173ffffffffffffffffffffffffffffffffffffffff1663185cc75133856040518363ffffffff1660e01b8152600401610ae4929190613a47565b602060405180830381600087803b158015610afe57600080fd5b505af1158015610b12573d6000803e3d6000fd5b505050506040513d601f19601f82011682018060405250810190610b3691906135f5565b50610b418184612a2d565b506000610b4e33846107b5565b90506000610b6184846001015484612b66565b50905080610ba4576040517f08c379a0000000000000000000000000000000000000000000000000000000008152600401610b9b90613bb4565b60405180910390fd5b8373ffffffffffffffffffffffffffffffffffffffff163373ffffffffffffffffffffffffffffffffffffffff167ff35a14688e4794e8022cd9e5c7ec6475a6095ef189dea9647fad0de771465b8a610c008660010154610882565b866001015486604051610c1593929190613df8565b60405180910390a3505050505050565b610c2d612c23565b81609c8190555080609d819055507f2ae72b200de13d2ba3a98dada5fda0bd809e45a31ed7f2a54c4abbfec231a9bd8282604051610c6c929190613dcf565b60405180910390a15050565b60a16020528060005260406000206000915090505481565b600080609960008573ffffffffffffffffffffffffffffffffffffffff1673ffffffffffffffffffffffffffffffffffffffff16815260200190815260200160002060009054906101000a900473ffffffffffffffffffffffffffffffffffffffff169050600060a060008373ffffffffffffffffffffffffffffffffffffffff1673ffffffffffffffffffffffffffffffffffffffff1681526020019081526020016000208481548110610d6e577f4e487b7100000000000000000000000000000000000000000000000000000000600052603260045260246000fd5b90600052602060002090600202016040518060400160405290816000820160009054906101000a900473ffffffffffffffffffffffffffffffffffffffff1673ffffffffffffffffffffffffffffffffffffffff1673ffffffffffffffffffffffffffffffffffffffff1681526020016001820154815250509050600081602001511415610e0157600092505050610e25565b610e1d828260200151610e188460000151866107b5565b612b66565b508093505050505b92915050565b610e33612c23565b60008073ffffffffffffffffffffffffffffffffffffffff16609960008573ffffffffffffffffffffffffffffffffffffffff1673ffffffffffffffffffffffffffffffffffffffff16815260200190815260200160002060009054906101000a900473ffffffffffffffffffffffffffffffffffffffff1673ffffffffffffffffffffffffffffffffffffffff161490508015610f09577f7f03ac7449144076e2d9d5a237c3ff0d0108e0a2ebdd5213c4b0de6f4d4f69538383604051610efc9291906139e7565b60405180910390a1611062565b6000609960008573ffffffffffffffffffffffffffffffffffffffff1673ffffffffffffffffffffffffffffffffffffffff16815260200190815260200160002060009054906101000a900473ffffffffffffffffffffffffffffffffffffffff1673ffffffffffffffffffffffffffffffffffffffff1663c8dffa956040518163ffffffff1660e01b815260040160206040518083038186803b158015610fb057600080fd5b505afa158015610fc4573d6000803e3d6000fd5b505050506040513d601f19601f82011682018060405250810190610fe891906135f5565b14611028576040517f08c379a000000000000000000000000000000000000000000000000000000000815260040161101f90613b54565b60405180910390fd5b7fb3911b5760f95a64aaa8d7f1775f57a7b6ed0bcf1ebb3fbfcc045e2f04eaad1183836040516110599291906139e7565b60405180910390a15b81609960008573ffffffffffffffffffffffffffffffffffffffff1673ffffffffffffffffffffffffffffffffffffffff16815260200190815260200160002060006101000a81548173ffffffffffffffffffffffffffffffffffffffff021916908373ffffffffffffffffffffffffffffffffffffffff16021790555060a060008373ffffffffffffffffffffffffffffffffffffffff1673ffffffffffffffffffffffffffffffffffffffff1681526020019081526020016000206040518060400160405280600073ffffffffffffffffffffffffffffffffffffffff1681526020016000815250908060018154018082558091505060019003906000526020600020906002020160009091909190915060008201518160000160006101000a81548173ffffffffffffffffffffffffffffffffffffffff021916908373ffffffffffffffffffffffffffffffffffffffff160217905550602082015181600101555050505050565b6111d5612c23565b6111df6000612ca1565b565b609760009054906101000a900473ffffffffffffffffffffffffffffffffffffffff1673ffffffffffffffffffffffffffffffffffffffff163373ffffffffffffffffffffffffffffffffffffffff1614611271576040517f08c379a000000000000000000000000000000000000000000000000000000000815260040161126890613d34565b60405180910390fd5b609a548110156112b6576040517f08c379a00000000000000000000000000000000000000000000000000000000081526004016112ad90613c54565b60405180910390fd5b6000609a54826112c69190613f7c565b905081609a819055503373ffffffffffffffffffffffffffffffffffffffff167f9a65b5c5cdb30037df3368f844350f18c08099259c8c402a4781b85770983776826040516113159190613db4565b60405180910390a25050565b6000609960008473ffffffffffffffffffffffffffffffffffffffff1673ffffffffffffffffffffffffffffffffffffffff16815260200190815260200160002060009054906101000a900473ffffffffffffffffffffffffffffffffffffffff169050600060a060008373ffffffffffffffffffffffffffffffffffffffff1673ffffffffffffffffffffffffffffffffffffffff168152602001908152602001600020609f60003373ffffffffffffffffffffffffffffffffffffffff1673ffffffffffffffffffffffffffffffffffffffff16815260200190815260200160002060008473ffffffffffffffffffffffffffffffffffffffff1673ffffffffffffffffffffffffffffffffffffffff168152602001908152602001600020548154811061147a577f4e487b7100000000000000000000000000000000000000000000000000000000600052603260045260246000fd5b90600052602060002090600202019050600061149633846107b5565b90506114a485333087612d67565b6114af858486612ea0565b8273ffffffffffffffffffffffffffffffffffffffff1663724e591033866040518363ffffffff1660e01b81526004016114ea929190613a47565b600060405180830381600087803b15801561150457600080fd5b505af1158015611518573d6000803e3d6000fd5b505050508273ffffffffffffffffffffffffffffffffffffffff163373ffffffffffffffffffffffffffffffffffffffff167ff35a14688e4794e8022cd9e5c7ec6475a6095ef189dea9647fad0de771465b8a6115788560010154610882565b856001015488866115899190613f7c565b60405161159893929190613df8565b60405180910390a35050505050565b6000603360009054906101000a900473ffffffffffffffffffffffffffffffffffffffff16905090565b609860003373ffffffffffffffffffffffffffffffffffffffff1673ffffffffffffffffffffffffffffffffffffffff16815260200190815260200160002060009054906101000a900460ff1661165d576040517f08c379a000000000000000000000000000000000000000000000000000000000815260040161165490613cb4565b60405180910390fd5b6000609960008473ffffffffffffffffffffffffffffffffffffffff1673ffffffffffffffffffffffffffffffffffffffff16815260200190815260200160002060009054906101000a900473ffffffffffffffffffffffffffffffffffffffff169050600060a060008373ffffffffffffffffffffffffffffffffffffffff1673ffffffffffffffffffffffffffffffffffffffff168152602001908152602001600020838154811061173a577f4e487b7100000000000000000000000000000000000000000000000000000000600052603260045260246000fd5b906000526020600020906002020190506000816001015411611791576040517f08c379a000000000000000000000000000000000000000000000000000000000815260040161178890613c94565b60405180910390fd5b60006117c18260000160009054906101000a900473ffffffffffffffffffffffffffffffffffffffff16846107b5565b90506000806117d585856001015485612b66565b9150915081611819576040517f08c379a000000000000000000000000000000000000000000000000000000000815260040161181090613d14565b60405180910390fd5b6000611829858660010154612fd6565b90508460000160009054906101000a900473ffffffffffffffffffffffffffffffffffffffff1673ffffffffffffffffffffffffffffffffffffffff163373ffffffffffffffffffffffffffffffffffffffff167f62b067e31c5a2d2734bc19924c46c930e1b7063b5b473238f2f8bb7ab88a15b68885856118ab9190613f7c565b86898b600101546040516118c3959493929190613a70565b60405180910390a35050505050505050565b60a26020528060005260406000206000915090505481565b60986020528060005260406000206000915054906101000a900460ff1681565b609e60009054906101000a900473ffffffffffffffffffffffffffffffffffffffff1681565b61193b612c23565b80609760006101000a81548173ffffffffffffffffffffffffffffffffffffffff021916908373ffffffffffffffffffffffffffffffffffffffff1602179055507fc46722a14b09e7b7e59991ec89fb4bb88ffed57f1b2187a65e959f5c0053716d816040516119ab91906139cc565b60405180910390a150565b60008060019054906101000a900460ff161590508080156119e75750600160008054906101000a900460ff1660ff16105b80611a1457506119f6306131a2565b158015611a135750600160008054906101000a900460ff1660ff16145b5b611a53576040517f08c379a0000000000000000000000000000000000000000000000000000000008152600401611a4a90613bd4565b60405180910390fd5b60016000806101000a81548160ff021916908360ff1602179055508015611a90576001600060016101000a81548160ff0219169083151502179055505b611a986131c5565b611aa061321e565b611ab4678ac7230489e80000611f40610c25565b81609e60006101000a81548173ffffffffffffffffffffffffffffffffffffffff021916908373ffffffffffffffffffffffffffffffffffffffff160217905550611afe83611933565b8015611b575760008060016101000a81548160ff0219169083151502179055507f7f26b83ff96e1f2b6a682f133852f6798a09c465da95921460cefb38474024986001604051611b4e9190613af9565b60405180910390a15b505050565b609f602052816000526040600020602052806000526040600020600091509150505481565b60a06020528160005260406000208181548110611b9d57600080fd5b9060005260206000209060020201600091509150508060000160009054906101000a900473ffffffffffffffffffffffffffffffffffffffff16908060010154905082565b6000609960008473ffffffffffffffffffffffffffffffffffffffff1673ffffffffffffffffffffffffffffffffffffffff16815260200190815260200160002060009054906101000a900473ffffffffffffffffffffffffffffffffffffffff169050600060a060008373ffffffffffffffffffffffffffffffffffffffff1673ffffffffffffffffffffffffffffffffffffffff168152602001908152602001600020609f60003373ffffffffffffffffffffffffffffffffffffffff1673ffffffffffffffffffffffffffffffffffffffff16815260200190815260200160002060008473ffffffffffffffffffffffffffffffffffffffff1673ffffffffffffffffffffffffffffffffffffffff1681526020019081526020016000205481548110611d3b577f4e487b7100000000000000000000000000000000000000000000000000000000600052603260045260246000fd5b906000526020600020906002020190506000611d5733846107b5565b905060008373ffffffffffffffffffffffffffffffffffffffff16639d2e6fcb3433886040518463ffffffff1660e01b8152600401611d97929190613a47565b6020604051808303818588803b158015611db057600080fd5b505af1158015611dc4573d6000803e3d6000fd5b50505050506040513d601f19601f82011682018060405250810190611de991906135f5565b90508373ffffffffffffffffffffffffffffffffffffffff163373ffffffffffffffffffffffffffffffffffffffff167ff35a14688e4794e8022cd9e5c7ec6475a6095ef189dea9647fad0de771465b8a611e478660010154610882565b86600101548587611e589190613f7c565b604051611e6793929190613df8565b60405180910390a3505050505050565b609760009054906101000a900473ffffffffffffffffffffffffffffffffffffffff1681565b6000609960008573ffffffffffffffffffffffffffffffffffffffff1673ffffffffffffffffffffffffffffffffffffffff16815260200190815260200160002060009054906101000a900473ffffffffffffffffffffffffffffffffffffffff1690506000609f60003373ffffffffffffffffffffffffffffffffffffffff1673ffffffffffffffffffffffffffffffffffffffff16815260200190815260200160002060008373ffffffffffffffffffffffffffffffffffffffff1673ffffffffffffffffffffffffffffffffffffffff1681526020019081526020016000205411611fc0576040517f08c379a0000000000000000000000000000000000000000000000000000000008152600401611fb790613b34565b60405180910390fd5b348314612002576040517f08c379a0000000000000000000000000000000000000000000000000000000008152600401611ff990613cf4565b60405180910390fd5b600082846120109190613e9b565b9050609d54816120209190613f22565b6127108461202e9190613f22565b1061206e576040517f08c379a000000000000000000000000000000000000000000000000000000000815260040161206590613c74565b60405180910390fd5b60008273ffffffffffffffffffffffffffffffffffffffff1663185cc75133866040518363ffffffff1660e01b81526004016120ab929190613a47565b602060405180830381600087803b1580156120c557600080fd5b505af11580156120d9573d6000803e3d6000fd5b505050506040513d601f19601f820116820180604052508101906120fd91906135f5565b905060a060008473ffffffffffffffffffffffffffffffffffffffff1673ffffffffffffffffffffffffffffffffffffffff16815260200190815260200160002060405180604001604052803373ffffffffffffffffffffffffffffffffffffffff1681526020016000815250908060018154018082558091505060019003906000526020600020906002020160009091909190915060008201518160000160006101000a81548173ffffffffffffffffffffffffffffffffffffffff021916908373ffffffffffffffffffffffffffffffffffffffff160217905550602082015181600101555050600060a160008573ffffffffffffffffffffffffffffffffffffffff1673ffffffffffffffffffffffffffffffffffffffff168152602001908152602001600020549050600160a160008673ffffffffffffffffffffffffffffffffffffffff1673ffffffffffffffffffffffffffffffffffffffff168152602001908152602001600020600082825461227a9190613e9b565b9250508190555080609f60003373ffffffffffffffffffffffffffffffffffffffff1673ffffffffffffffffffffffffffffffffffffffff16815260200190815260200160002060008673ffffffffffffffffffffffffffffffffffffffff1673ffffffffffffffffffffffffffffffffffffffff16815260200190815260200160002081905550600061239260a060008773ffffffffffffffffffffffffffffffffffffffff1673ffffffffffffffffffffffffffffffffffffffff168152602001908152602001600020838154811061237e577f4e487b7100000000000000000000000000000000000000000000000000000000600052603260045260246000fd5b906000526020600020906002020185612a2d565b90508473ffffffffffffffffffffffffffffffffffffffff163373ffffffffffffffffffffffffffffffffffffffff167f92b0fd5c6dbe6ec5b43a8afae4c587c1db47afcca43a21b7800bd848fcf8e496898987866040516123f79493929190613e2f565b60405180910390a35050505050505050565b6000609960008373ffffffffffffffffffffffffffffffffffffffff1673ffffffffffffffffffffffffffffffffffffffff16815260200190815260200160002060009054906101000a900473ffffffffffffffffffffffffffffffffffffffff169050600060a060008373ffffffffffffffffffffffffffffffffffffffff1673ffffffffffffffffffffffffffffffffffffffff168152602001908152602001600020609f60003373ffffffffffffffffffffffffffffffffffffffff1673ffffffffffffffffffffffffffffffffffffffff16815260200190815260200160002060008473ffffffffffffffffffffffffffffffffffffffff1673ffffffffffffffffffffffffffffffffffffffff1681526020019081526020016000205481548110612562577f4e487b7100000000000000000000000000000000000000000000000000000000600052603260045260246000fd5b9060005260206000209060020201905060008160010154116125b9576040517f08c379a00000000000000000000000000000000000000000000000000000000081526004016125b090613d94565b60405180910390fd5b60006125c533846107b5565b905060008373ffffffffffffffffffffffffffffffffffffffff166395d6abf8836040518263ffffffff1660e01b81526004016126029190613db4565b60206040518083038186803b15801561261a57600080fd5b505afa15801561262e573d6000803e3d6000fd5b505050506040513d601f19601f8201168201806040525081019061265291906135f5565b90506000612664848560010154612fd6565b9050818110156126a9576040517f08c379a00000000000000000000000000000000000000000000000000000000081526004016126a090613b94565b60405180910390fd5b8473ffffffffffffffffffffffffffffffffffffffff163373ffffffffffffffffffffffffffffffffffffffff167f3cb91b4d61d4fefa96da17651a09b54f7b6751cb68d11134cf0efe0a4965796884846127049190613f7c565b8587896001015460405161271b9493929190613e2f565b60405180910390a36000609f60003373ffffffffffffffffffffffffffffffffffffffff1673ffffffffffffffffffffffffffffffffffffffff16815260200190815260200160002060008773ffffffffffffffffffffffffffffffffffffffff1673ffffffffffffffffffffffffffffffffffffffff16815260200190815260200160002081905550505050505050565b6000609960008473ffffffffffffffffffffffffffffffffffffffff1673ffffffffffffffffffffffffffffffffffffffff16815260200190815260200160002060009054906101000a900473ffffffffffffffffffffffffffffffffffffffff169050600060a060008373ffffffffffffffffffffffffffffffffffffffff1673ffffffffffffffffffffffffffffffffffffffff168152602001908152602001600020609f60003373ffffffffffffffffffffffffffffffffffffffff1673ffffffffffffffffffffffffffffffffffffffff16815260200190815260200160002060008473ffffffffffffffffffffffffffffffffffffffff1673ffffffffffffffffffffffffffffffffffffffff1681526020019081526020016000205481548110612906577f4e487b7100000000000000000000000000000000000000000000000000000000600052603260045260246000fd5b906000526020600020906002020190506129208184612a2d565b508173ffffffffffffffffffffffffffffffffffffffff163373ffffffffffffffffffffffffffffffffffffffff167ff35a14688e4794e8022cd9e5c7ec6475a6095ef189dea9647fad0de771465b8a61297d8460010154610882565b846001015461298c33886107b5565b60405161299b93929190613df8565b60405180910390a350505050565b6129b1612c23565b600073ffffffffffffffffffffffffffffffffffffffff168173ffffffffffffffffffffffffffffffffffffffff161415612a21576040517f08c379a0000000000000000000000000000000000000000000000000000000008152600401612a1890613b14565b60405180910390fd5b612a2a81612ca1565b50565b6000612a388261084e565b905080836001016000828254612a4e9190613e9b565b9250508190555081609a6000828254612a679190613e9b565b9250508190555080609b6000828254612a809190613e9b565b92505081905550612ab3609760009054906101000a900473ffffffffffffffffffffffffffffffffffffffff1683613277565b8260000160009054906101000a900473ffffffffffffffffffffffffffffffffffffffff1673ffffffffffffffffffffffffffffffffffffffff16609760009054906101000a900473ffffffffffffffffffffffffffffffffffffffff1673ffffffffffffffffffffffffffffffffffffffff167f63602d0ecc7b3a0ef7ff1a116e23056662d64280355ba8031b6d0d767c4b44588484604051612b58929190613dcf565b60405180910390a392915050565b6000808473ffffffffffffffffffffffffffffffffffffffff166395d6abf8846040518263ffffffff1660e01b8152600401612ba29190613db4565b60206040518083038186803b158015612bba57600080fd5b505afa158015612bce573d6000803e3d6000fd5b505050506040513d601f19601f82011682018060405250810190612bf291906135f5565b9050609d54612c0085610882565b612c0a9190613f22565b61271082612c189190613f22565b109150935093915050565b612c2b61339d565b73ffffffffffffffffffffffffffffffffffffffff16612c496115a7565b73ffffffffffffffffffffffffffffffffffffffff1614612c9f576040517f08c379a0000000000000000000000000000000000000000000000000000000008152600401612c9690613c34565b60405180910390fd5b565b6000603360009054906101000a900473ffffffffffffffffffffffffffffffffffffffff16905081603360006101000a81548173ffffffffffffffffffffffffffffffffffffffff021916908373ffffffffffffffffffffffffffffffffffffffff1602179055508173ffffffffffffffffffffffffffffffffffffffff168173ffffffffffffffffffffffffffffffffffffffff167f8be0079c531659141344cd1fd0a4f28419497f9722a3daafe3b4186f6b6457e060405160405180910390a35050565b6000808573ffffffffffffffffffffffffffffffffffffffff166323b872dd868686604051602401612d9b93929190613a10565b6040516020818303038152906040529060e01b6020820180517bffffffffffffffffffffffffffffffffffffffffffffffffffffffff8381831617835250505050604051612de991906139b5565b6000604051808303816000865af19150503d8060008114612e26576040519150601f19603f3d011682016040523d82523d6000602084013e612e2b565b606091505b5091509150818015612e595750600081511480612e58575080806020019051810190612e5791906135a3565b5b5b612e98576040517f08c379a0000000000000000000000000000000000000000000000000000000008152600401612e8f90613d74565b60405180910390fd5b505050505050565b6000808473ffffffffffffffffffffffffffffffffffffffff1663095ea7b38585604051602401612ed2929190613a47565b6040516020818303038152906040529060e01b6020820180517bffffffffffffffffffffffffffffffffffffffffffffffffffffffff8381831617835250505050604051612f2091906139b5565b6000604051808303816000865af19150503d8060008114612f5d576040519150601f19603f3d011682016040523d82523d6000602084013e612f62565b606091505b5091509150818015612f905750600081511480612f8f575080806020019051810190612f8e91906135a3565b5b5b612fcf576040517f08c379a0000000000000000000000000000000000000000000000000000000008152600401612fc690613b74565b60405180910390fd5b5050505050565b6000612fe182610882565b905081836001016000828254612ff79190613f7c565b9250508190555080609a60008282546130109190613f7c565b9250508190555081609b60008282546130299190613f7c565b92505081905550609e60009054906101000a900473ffffffffffffffffffffffffffffffffffffffff1673ffffffffffffffffffffffffffffffffffffffff16631cc6b7d48460000160009054906101000a900473ffffffffffffffffffffffffffffffffffffffff16600f426130a09190613e9b565b6040518363ffffffff1660e01b81526004016130bd929190613a47565b600060405180830381600087803b1580156130d757600080fd5b505af11580156130eb573d6000803e3d6000fd5b505050508260000160009054906101000a900473ffffffffffffffffffffffffffffffffffffffff1673ffffffffffffffffffffffffffffffffffffffff16609760009054906101000a900473ffffffffffffffffffffffffffffffffffffffff1673ffffffffffffffffffffffffffffffffffffffff167f18edd09e80386cd99df397e2e0d87d2bb259423eae08645e776321a36fe680ef8385604051613194929190613dcf565b60405180910390a392915050565b6000808273ffffffffffffffffffffffffffffffffffffffff163b119050919050565b600060019054906101000a900460ff16613214576040517f08c379a000000000000000000000000000000000000000000000000000000000815260040161320b90613d54565b60405180910390fd5b61321c6133a5565b565b600060019054906101000a900460ff1661326d576040517f08c379a000000000000000000000000000000000000000000000000000000000815260040161326490613d54565b60405180910390fd5b613275613406565b565b60008273ffffffffffffffffffffffffffffffffffffffff1682600067ffffffffffffffff8111156132d2577f4e487b7100000000000000000000000000000000000000000000000000000000600052604160045260246000fd5b6040519080825280601f01601f1916602001820160405280156133045781602001600182028036833780820191505090505b5060405161331291906139b5565b60006040518083038185875af1925050503d806000811461334f576040519150601f19603f3d011682016040523d82523d6000602084013e613354565b606091505b5050905080613398576040517f08c379a000000000000000000000000000000000000000000000000000000000815260040161338f90613bf4565b60405180910390fd5b505050565b600033905090565b600060019054906101000a900460ff166133f4576040517f08c379a00000000000000000000000000000000000000000000000000000000081526004016133eb90613d54565b60405180910390fd5b6134046133ff61339d565b612ca1565b565b600060019054906101000a900460ff16613455576040517f08c379a000000000000000000000000000000000000000000000000000000000815260040161344c90613d54565b60405180910390fd5b6001606581905550565b60008135905061346e816145f1565b92915050565b60008151905061348381614608565b92915050565b6000813590506134988161461f565b92915050565b6000815190506134ad8161461f565b92915050565b6000602082840312156134c557600080fd5b60006134d38482850161345f565b91505092915050565b600080604083850312156134ef57600080fd5b60006134fd8582860161345f565b925050602061350e8582860161345f565b9150509250929050565b6000806040838503121561352b57600080fd5b60006135398582860161345f565b925050602061354a85828601613489565b9150509250929050565b60008060006060848603121561356957600080fd5b60006135778682870161345f565b935050602061358886828701613489565b925050604061359986828701613489565b9150509250925092565b6000602082840312156135b557600080fd5b60006135c384828501613474565b91505092915050565b6000602082840312156135de57600080fd5b60006135ec84828501613489565b91505092915050565b60006020828403121561360757600080fd5b60006136158482850161349e565b91505092915050565b6000806040838503121561363157600080fd5b600061363f85828601613489565b925050602061365085828601613489565b9150509250929050565b61366381613fb0565b82525050565b61367281613fc2565b82525050565b600061368382613e74565b61368d8185613e7f565b935061369d81856020860161403b565b80840191505092915050565b6136b281614005565b82525050565b6136c181614029565b82525050565b60006136d4602683613e8a565b91506136df826140cc565b604082019050919050565b60006136f7602283613e8a565b91506137028261411b565b604082019050919050565b600061371a602d83613e8a565b91506137258261416a565b604082019050919050565b600061373d600c83613e8a565b9150613748826141b9565b602082019050919050565b6000613760601883613e8a565b915061376b826141e2565b602082019050919050565b6000613783603083613e8a565b915061378e8261420b565b604082019050919050565b60006137a6602e83613e8a565b91506137b18261425a565b604082019050919050565b60006137c9601283613e8a565b91506137d4826142a9565b602082019050919050565b60006137ec602783613e8a565b91506137f7826142d2565b604082019050919050565b600061380f602083613e8a565b915061381a82614321565b602082019050919050565b6000613832602883613e8a565b915061383d8261434a565b604082019050919050565b6000613855602b83613e8a565b915061386082614399565b604082019050919050565b6000613878601683613e8a565b9150613883826143e8565b602082019050919050565b600061389b602183613e8a565b91506138a682614411565b604082019050919050565b60006138be601d83613e8a565b91506138c982614460565b602082019050919050565b60006138e1602083613e8a565b91506138ec82614489565b602082019050919050565b6000613904601a83613e8a565b915061390f826144b2565b602082019050919050565b6000613927602483613e8a565b9150613932826144db565b604082019050919050565b600061394a602b83613e8a565b91506139558261452a565b604082019050919050565b600061396d601183613e8a565b915061397882614579565b602082019050919050565b6000613990602a83613e8a565b915061399b826145a2565b604082019050919050565b6139af81613fee565b82525050565b60006139c18284613678565b915081905092915050565b60006020820190506139e1600083018461365a565b92915050565b60006040820190506139fc600083018561365a565b613a09602083018461365a565b9392505050565b6000606082019050613a25600083018661365a565b613a32602083018561365a565b613a3f60408301846139a6565b949350505050565b6000604082019050613a5c600083018561365a565b613a6960208301846139a6565b9392505050565b600060a082019050613a85600083018861365a565b613a9260208301876139a6565b613a9f60408301866139a6565b613aac60608301856139a6565b613ab960808301846139a6565b9695505050505050565b6000602082019050613ad86000830184613669565b92915050565b6000602082019050613af360008301846136a9565b92915050565b6000602082019050613b0e60008301846136b8565b92915050565b60006020820190508181036000830152613b2d816136c7565b9050919050565b60006020820190508181036000830152613b4d816136ea565b9050919050565b60006020820190508181036000830152613b6d8161370d565b9050919050565b60006020820190508181036000830152613b8d81613730565b9050919050565b60006020820190508181036000830152613bad81613753565b9050919050565b60006020820190508181036000830152613bcd81613776565b9050919050565b60006020820190508181036000830152613bed81613799565b9050919050565b60006020820190508181036000830152613c0d816137bc565b9050919050565b60006020820190508181036000830152613c2d816137df565b9050919050565b60006020820190508181036000830152613c4d81613802565b9050919050565b60006020820190508181036000830152613c6d81613825565b9050919050565b60006020820190508181036000830152613c8d81613848565b9050919050565b60006020820190508181036000830152613cad8161386b565b9050919050565b60006020820190508181036000830152613ccd8161388e565b9050919050565b60006020820190508181036000830152613ced816138b1565b9050919050565b60006020820190508181036000830152613d0d816138d4565b9050919050565b60006020820190508181036000830152613d2d816138f7565b9050919050565b60006020820190508181036000830152613d4d8161391a565b9050919050565b60006020820190508181036000830152613d6d8161393d565b9050919050565b60006020820190508181036000830152613d8d81613960565b9050919050565b60006020820190508181036000830152613dad81613983565b9050919050565b6000602082019050613dc960008301846139a6565b92915050565b6000604082019050613de460008301856139a6565b613df160208301846139a6565b9392505050565b6000606082019050613e0d60008301866139a6565b613e1a60208301856139a6565b613e2760408301846139a6565b949350505050565b6000608082019050613e4460008301876139a6565b613e5160208301866139a6565b613e5e60408301856139a6565b613e6b60608301846139a6565b95945050505050565b600081519050919050565b600081905092915050565b600082825260208201905092915050565b6000613ea682613fee565b9150613eb183613fee565b9250827fffffffffffffffffffffffffffffffffffffffffffffffffffffffffffffffff03821115613ee657613ee561406e565b5b828201905092915050565b6000613efc82613fee565b9150613f0783613fee565b925082613f1757613f1661409d565b5b828204905092915050565b6000613f2d82613fee565b9150613f3883613fee565b9250817fffffffffffffffffffffffffffffffffffffffffffffffffffffffffffffffff0483118215151615613f7157613f7061406e565b5b828202905092915050565b6000613f8782613fee565b9150613f9283613fee565b925082821015613fa557613fa461406e565b5b828203905092915050565b6000613fbb82613fce565b9050919050565b60008115159050919050565b600073ffffffffffffffffffffffffffffffffffffffff82169050919050565b6000819050919050565b600060ff82169050919050565b600061401082614017565b9050919050565b600061402282613fce565b9050919050565b600061403482613ff8565b9050919050565b60005b8381101561405957808201518184015260208101905061403e565b83811115614068576000848401525b50505050565b7f4e487b7100000000000000000000000000000000000000000000000000000000600052601160045260246000fd5b7f4e487b7100000000000000000000000000000000000000000000000000000000600052601260045260246000fd5b7f4f776e61626c653a206e6577206f776e657220697320746865207a65726f206160008201527f6464726573730000000000000000000000000000000000000000000000000000602082015250565b7f616464506f736974696f6e3a20616c7265616479206861766520706f7369746960008201527f6f6e000000000000000000000000000000000000000000000000000000000000602082015250565b7f7365745661756c743a20446562742072656d61696e73206f6e2074686520657860008201527f697374696e67207661756c742e00000000000000000000000000000000000000602082015250565b7f2173616665417070726f76650000000000000000000000000000000000000000600082015250565b7f72656d6f7665506f736974696f6e3a2042616420646562740000000000000000600082015250565b7f616464446562743a2062616420646562742c2063616e6e6f7420616464206d6f60008201527f7265206465627420616e796d6f72652e00000000000000000000000000000000602082015250565b7f496e697469616c697a61626c653a20636f6e747261637420697320616c72656160008201527f647920696e697469616c697a6564000000000000000000000000000000000000602082015250565b7f21736166655472616e7366657245564d4f530000000000000000000000000000600082015250565b7f616464446562743a206e6f20706f736974696f6e20696e20666f72207468697360008201527f20746f6b656e2e00000000000000000000000000000000000000000000000000602082015250565b7f4f776e61626c653a2063616c6c6572206973206e6f7420746865206f776e6572600082015250565b7f6163637275653a2063757272656e74546f74616c5374616b6564203c20746f7460008201527f616c416d6f756e74000000000000000000000000000000000000000000000000602082015250565b7f616464506f736974696f6e3a2062616420646562742c2063616e6e6f74206f7060008201527f656e20706f736974696f6e000000000000000000000000000000000000000000602082015250565b7f6b696c6c3a2072656d6f76656420706f736974696f6e00000000000000000000600082015250565b7f537461796b696e673a204e6f742077686974656c6973746564204b696c6c657260008201527f2e00000000000000000000000000000000000000000000000000000000000000602082015250565b7f616464446562743a20657874726144656274496e42617365203c3d2030000000600082015250565b7f616464506f736974696f6e3a206d73672e76616c756520213d20657175697479600082015250565b7f6b696c6c3a207374696c6c207361666520706f736974696f6e2e000000000000600082015250565b7f537461796b696e673a204e6f742077686974656c69737465642064656c65676160008201527f746f722e00000000000000000000000000000000000000000000000000000000602082015250565b7f496e697469616c697a61626c653a20636f6e7472616374206973206e6f74206960008201527f6e697469616c697a696e67000000000000000000000000000000000000000000602082015250565b7f21736166655472616e7366657246726f6d000000000000000000000000000000600082015250565b7f72656d6f7665506f736974696f6e3a204e6f20706f736974696f6e20666f722060008201527f7468697320746f6b656e00000000000000000000000000000000000000000000602082015250565b6145fa81613fb0565b811461460557600080fd5b50565b61461181613fc2565b811461461c57600080fd5b50565b61462881613fee565b811461463357600080fd5b5056fea264697066735822122039c12dc6acf36e4e1b8fdbe1ca1781d05f1c2d2196b66d2cdbcfc71bd4a7068164736f6c63430008040033",
  "linkReferences": {},
  "deployedLinkReferences": {}
}