{
  "_format": "hh-sol-artifact-1",
  "contractName": "Stayking",
  "sourceName": "contracts/token/Stayking.sol",
  "abi": [
    {
      "anonymous": false,
      "inputs": [
        {
          "indexed": false,
          "internalType": "address",
          "name": "delegator",
          "type": "address"
        },
        {
          "indexed": false,
          "internalType": "uint256",
          "name": "amount",
          "type": "uint256"
        }
      ],
      "name": "Accrue",
      "type": "event"
    },
    {
      "anonymous": false,
      "inputs": [
        {
          "indexed": false,
          "internalType": "address",
          "name": "user",
          "type": "address"
        },
        {
          "indexed": false,
          "internalType": "address",
          "name": "vault",
          "type": "address"
        },
        {
          "indexed": false,
          "internalType": "uint256",
          "name": "equity",
          "type": "uint256"
        },
        {
          "indexed": false,
          "internalType": "uint256",
          "name": "debtInBase",
          "type": "uint256"
        },
        {
          "indexed": false,
          "internalType": "uint256",
          "name": "debt",
          "type": "uint256"
        },
        {
          "indexed": false,
          "internalType": "uint256",
          "name": "share",
          "type": "uint256"
        }
      ],
      "name": "AddPosition",
      "type": "event"
    },
    {
      "anonymous": false,
      "inputs": [
        {
          "indexed": false,
          "internalType": "address",
          "name": "token",
          "type": "address"
        },
        {
          "indexed": false,
          "internalType": "address",
          "name": "vault",
          "type": "address"
        }
      ],
      "name": "AddVault",
      "type": "event"
    },
    {
      "anonymous": false,
      "inputs": [
        {
          "indexed": false,
          "internalType": "uint256",
          "name": "minDebtInBase",
          "type": "uint256"
        },
        {
          "indexed": false,
          "internalType": "uint256",
          "name": "killFactorBps",
          "type": "uint256"
        }
      ],
      "name": "ChangeConfigs",
      "type": "event"
    },
    {
      "anonymous": false,
      "inputs": [
        {
          "indexed": false,
          "internalType": "address",
          "name": "swapHelper",
          "type": "address"
        }
      ],
      "name": "ChangeSwapHelper",
      "type": "event"
    },
    {
      "anonymous": false,
      "inputs": [
        {
          "indexed": false,
          "internalType": "address",
          "name": "token",
          "type": "address"
        },
        {
          "indexed": false,
          "internalType": "address",
          "name": "vault",
          "type": "address"
        }
      ],
      "name": "ChangeVault",
      "type": "event"
    },
    {
      "anonymous": false,
      "inputs": [
        {
          "indexed": false,
          "internalType": "uint8",
          "name": "version",
          "type": "uint8"
        }
      ],
      "name": "Initialized",
      "type": "event"
    },
    {
      "anonymous": false,
      "inputs": [
        {
          "indexed": false,
          "internalType": "address",
          "name": "user",
          "type": "address"
        }
      ],
      "name": "Kill",
      "type": "event"
    },
    {
      "anonymous": false,
      "inputs": [
        {
          "indexed": true,
          "internalType": "address",
          "name": "previousOwner",
          "type": "address"
        },
        {
          "indexed": true,
          "internalType": "address",
          "name": "newOwner",
          "type": "address"
        }
      ],
      "name": "OwnershipTransferred",
      "type": "event"
    },
    {
      "anonymous": false,
      "inputs": [
        {
          "indexed": false,
          "internalType": "address",
          "name": "user",
          "type": "address"
        },
        {
          "indexed": false,
          "internalType": "address",
          "name": "vault",
          "type": "address"
        },
        {
          "indexed": false,
          "internalType": "uint256",
          "name": "amount",
          "type": "uint256"
        },
        {
          "indexed": false,
          "internalType": "uint256",
          "name": "share",
          "type": "uint256"
        },
        {
          "indexed": false,
          "internalType": "uint256",
          "name": "debt",
          "type": "uint256"
        }
      ],
      "name": "PositionChanged",
      "type": "event"
    },
    {
      "anonymous": false,
      "inputs": [
        {
          "indexed": false,
          "internalType": "address",
          "name": "user",
          "type": "address"
        },
        {
          "indexed": false,
          "internalType": "address",
          "name": "vault",
          "type": "address"
        },
        {
          "indexed": false,
          "internalType": "uint256",
          "name": "equity",
          "type": "uint256"
        },
        {
          "indexed": false,
          "internalType": "uint256",
          "name": "debtInBase",
          "type": "uint256"
        },
        {
          "indexed": false,
          "internalType": "uint256",
          "name": "debt",
          "type": "uint256"
        },
        {
          "indexed": false,
          "internalType": "uint256",
          "name": "share",
          "type": "uint256"
        }
      ],
      "name": "RemovePosition",
      "type": "event"
    },
    {
      "anonymous": false,
      "inputs": [
        {
          "indexed": false,
          "internalType": "address",
          "name": "user",
          "type": "address"
        },
        {
          "indexed": false,
          "internalType": "uint256",
          "name": "amount",
          "type": "uint256"
        },
        {
          "indexed": false,
          "internalType": "uint256",
          "name": "share",
          "type": "uint256"
        }
      ],
      "name": "Stake",
      "type": "event"
    },
    {
      "anonymous": false,
      "inputs": [
        {
          "indexed": false,
          "internalType": "address",
          "name": "user",
          "type": "address"
        },
        {
          "indexed": false,
          "internalType": "uint256",
          "name": "amount",
          "type": "uint256"
        },
        {
          "indexed": false,
          "internalType": "uint256",
          "name": "share",
          "type": "uint256"
        }
      ],
      "name": "Unstake",
      "type": "event"
    },
    {
      "inputs": [],
      "name": "BASE_TOKEN",
      "outputs": [
        {
          "internalType": "address",
          "name": "",
          "type": "address"
        }
      ],
      "stateMutability": "view",
      "type": "function"
    },
    {
      "inputs": [
        {
          "internalType": "address",
          "name": "swapHelper_",
          "type": "address"
        }
      ],
      "name": "__Stayking_init",
      "outputs": [],
      "stateMutability": "nonpayable",
      "type": "function"
    },
    {
      "inputs": [
        {
          "internalType": "uint256",
          "name": "amount",
          "type": "uint256"
        }
      ],
      "name": "accrue",
      "outputs": [],
      "stateMutability": "payable",
      "type": "function"
    },
    {
      "inputs": [
        {
          "internalType": "address",
          "name": "debtToken",
          "type": "address"
        },
        {
          "internalType": "uint256",
          "name": "extraDebtInBase",
          "type": "uint256"
        }
      ],
      "name": "addDebt",
      "outputs": [],
      "stateMutability": "nonpayable",
      "type": "function"
    },
    {
      "inputs": [
        {
          "internalType": "address",
          "name": "debtToken",
          "type": "address"
        },
        {
          "internalType": "uint256",
          "name": "extraEquity",
          "type": "uint256"
        }
      ],
      "name": "addEquity",
      "outputs": [],
      "stateMutability": "payable",
      "type": "function"
    },
    {
      "inputs": [
        {
          "internalType": "address",
          "name": "debtToken",
          "type": "address"
        },
        {
          "internalType": "uint256",
          "name": "equity",
          "type": "uint256"
        },
        {
          "internalType": "uint256",
          "name": "debtInBase",
          "type": "uint256"
        }
      ],
      "name": "addPosition",
      "outputs": [],
      "stateMutability": "payable",
      "type": "function"
    },
    {
      "inputs": [
        {
          "internalType": "uint256",
          "name": "amount",
          "type": "uint256"
        }
      ],
      "name": "amountToShare",
      "outputs": [
        {
          "internalType": "uint256",
          "name": "",
          "type": "uint256"
        }
      ],
      "stateMutability": "view",
      "type": "function"
    },
    {
      "inputs": [
        {
          "internalType": "address",
          "name": "_newSwapHelper",
          "type": "address"
        }
      ],
      "name": "changeSwapHelper",
      "outputs": [],
      "stateMutability": "nonpayable",
      "type": "function"
    },
    {
      "inputs": [
        {
          "internalType": "uint256",
          "name": "amount",
          "type": "uint256"
        }
      ],
      "name": "delegate",
      "outputs": [],
      "stateMutability": "nonpayable",
      "type": "function"
    },
    {
      "inputs": [
        {
          "internalType": "address",
          "name": "debtToken",
          "type": "address"
        },
        {
          "internalType": "uint256",
          "name": "positionId",
          "type": "uint256"
        }
      ],
      "name": "isKillable",
      "outputs": [
        {
          "internalType": "bool",
          "name": "",
          "type": "bool"
        }
      ],
      "stateMutability": "view",
      "type": "function"
    },
    {
      "inputs": [
        {
          "internalType": "address",
          "name": "debtToken",
          "type": "address"
        },
        {
          "internalType": "uint256",
          "name": "positionId",
          "type": "uint256"
        }
      ],
      "name": "kill",
      "outputs": [],
      "stateMutability": "nonpayable",
      "type": "function"
    },
    {
      "inputs": [],
      "name": "killFactorBps",
      "outputs": [
        {
          "internalType": "uint256",
          "name": "",
          "type": "uint256"
        }
      ],
      "stateMutability": "view",
      "type": "function"
    },
    {
      "inputs": [],
      "name": "minDebtInBase",
      "outputs": [
        {
          "internalType": "uint256",
          "name": "",
          "type": "uint256"
        }
      ],
      "stateMutability": "view",
      "type": "function"
    },
    {
      "inputs": [],
      "name": "owner",
      "outputs": [
        {
          "internalType": "address",
          "name": "",
          "type": "address"
        }
      ],
      "stateMutability": "view",
      "type": "function"
    },
    {
      "inputs": [
        {
          "internalType": "address",
          "name": "",
          "type": "address"
        },
        {
          "internalType": "address",
          "name": "",
          "type": "address"
        }
      ],
      "name": "positionIdOf",
      "outputs": [
        {
          "internalType": "uint256",
          "name": "",
          "type": "uint256"
        }
      ],
      "stateMutability": "view",
      "type": "function"
    },
    {
      "inputs": [
        {
          "internalType": "address",
          "name": "",
          "type": "address"
        },
        {
          "internalType": "uint256",
          "name": "",
          "type": "uint256"
        }
      ],
      "name": "positions",
      "outputs": [
        {
          "internalType": "address",
          "name": "user",
          "type": "address"
        },
        {
          "internalType": "uint256",
          "name": "share",
          "type": "uint256"
        },
        {
          "internalType": "uint256",
          "name": "debt",
          "type": "uint256"
        }
      ],
      "stateMutability": "view",
      "type": "function"
    },
    {
      "inputs": [
        {
          "internalType": "address",
          "name": "",
          "type": "address"
        }
      ],
      "name": "positionsLengthOf",
      "outputs": [
        {
          "internalType": "uint256",
          "name": "",
          "type": "uint256"
        }
      ],
      "stateMutability": "view",
      "type": "function"
    },
    {
      "inputs": [
        {
          "internalType": "address",
          "name": "debtToken",
          "type": "address"
        }
      ],
      "name": "removePosition",
      "outputs": [],
      "stateMutability": "nonpayable",
      "type": "function"
    },
    {
      "inputs": [],
      "name": "renounceOwnership",
      "outputs": [],
      "stateMutability": "nonpayable",
      "type": "function"
    },
    {
      "inputs": [
        {
          "internalType": "address",
          "name": "debtToken",
          "type": "address"
        },
        {
          "internalType": "uint256",
          "name": "repaidDebt",
          "type": "uint256"
        }
      ],
      "name": "repayDebt",
      "outputs": [],
      "stateMutability": "nonpayable",
      "type": "function"
    },
    {
      "inputs": [
        {
          "internalType": "uint256",
          "name": "_minDebtInBase",
          "type": "uint256"
        },
        {
          "internalType": "uint256",
          "name": "_killFactorBps",
          "type": "uint256"
        }
      ],
      "name": "setConfigs",
      "outputs": [],
      "stateMutability": "nonpayable",
      "type": "function"
    },
    {
      "inputs": [
        {
          "internalType": "address",
          "name": "token",
          "type": "address"
        },
        {
          "internalType": "address",
          "name": "vault",
          "type": "address"
        }
      ],
      "name": "setVault",
      "outputs": [],
      "stateMutability": "nonpayable",
      "type": "function"
    },
    {
      "inputs": [
        {
          "internalType": "address",
          "name": "delegator",
          "type": "address"
        },
        {
          "internalType": "bool",
          "name": "status",
          "type": "bool"
        }
      ],
      "name": "setWhitelistDelegatorStatus",
      "outputs": [],
      "stateMutability": "nonpayable",
      "type": "function"
    },
    {
      "inputs": [
        {
          "internalType": "uint256",
          "name": "share",
          "type": "uint256"
        }
      ],
      "name": "shareToAmount",
      "outputs": [
        {
          "internalType": "uint256",
          "name": "",
          "type": "uint256"
        }
      ],
      "stateMutability": "view",
      "type": "function"
    },
    {
      "inputs": [],
      "name": "swapHelper",
      "outputs": [
        {
          "internalType": "contract ISwapHelper",
          "name": "",
          "type": "address"
        }
      ],
      "stateMutability": "view",
      "type": "function"
    },
    {
      "inputs": [
        {
          "internalType": "address",
          "name": "",
          "type": "address"
        }
      ],
      "name": "tokenToVault",
      "outputs": [
        {
          "internalType": "address",
          "name": "",
          "type": "address"
        }
      ],
      "stateMutability": "view",
      "type": "function"
    },
    {
      "inputs": [],
      "name": "totalAmount",
      "outputs": [
        {
          "internalType": "uint256",
          "name": "",
          "type": "uint256"
        }
      ],
      "stateMutability": "view",
      "type": "function"
    },
    {
      "inputs": [
        {
          "internalType": "address",
          "name": "",
          "type": "address"
        }
      ],
      "name": "totalDebtOf",
      "outputs": [
        {
          "internalType": "uint256",
          "name": "",
          "type": "uint256"
        }
      ],
      "stateMutability": "view",
      "type": "function"
    },
    {
      "inputs": [],
      "name": "totalShare",
      "outputs": [
        {
          "internalType": "uint256",
          "name": "",
          "type": "uint256"
        }
      ],
      "stateMutability": "view",
      "type": "function"
    },
    {
      "inputs": [
        {
          "internalType": "address",
          "name": "newOwner",
          "type": "address"
        }
      ],
      "name": "transferOwnership",
      "outputs": [],
      "stateMutability": "nonpayable",
      "type": "function"
    },
    {
      "inputs": [
        {
          "internalType": "address",
          "name": "",
          "type": "address"
        }
      ],
      "name": "whitelistedDelegator",
      "outputs": [
        {
          "internalType": "bool",
          "name": "",
          "type": "bool"
        }
      ],
      "stateMutability": "view",
      "type": "function"
    },
    {
      "inputs": [
        {
          "internalType": "address",
          "name": "",
          "type": "address"
        }
      ],
      "name": "whitelistedKiller",
      "outputs": [
        {
          "internalType": "bool",
          "name": "",
          "type": "bool"
        }
      ],
      "stateMutability": "view",
      "type": "function"
    }
  ],
  "bytecode": "0x608060405234801561001057600080fd5b50613e53806100206000396000f3fe6080604052600436106101e35760003560e01c8063744f4cf611610102578063b9f3595811610095578063cff07fd111610064578063cff07fd11461071d578063df5ca1f814610739578063ef6b247914610762578063f2fde38b1461077e576101e3565b8063b9f359581461063b578063bb94d3db14610678578063c1be6677146106b5578063c7a85b12146106f4576101e3565b806392b3855b116100d157806392b3855b1461056f5780639f2b2833146105985780639fa6dd35146105d5578063a3381d28146105fe576101e3565b8063744f4cf6146104d657806379e20bdc146104f25780638da5cb5b1461051b5780639270780214610546576101e3565b80632d6f80131161017a57806351dabb751161014957806351dabb751461041c5780635ff0253114610459578063714ccf7b14610496578063715018a6146104bf576101e3565b80632d6f8013146103645780632e746e7b146103a157806334c389ef146103ca5780634520951e146103f3576101e3565b80631a39d8ef116101b65780631a39d8ef146102a6578063210663e4146102d157806328f55a6c146102fc5780632d4047e514610327576101e3565b8063026c4207146101e85780630c7e1725146102135780630fc6a11c14610250578063178483a71461027b575b600080fd5b3480156101f457600080fd5b506101fd6107a7565b60405161020a91906136fd565b60405180910390f35b34801561021f57600080fd5b5061023a60048036038101906102359190612dd6565b6107ad565b60405161024791906132b3565b60405180910390f35b34801561025c57600080fd5b506102656107e0565b60405161027291906134a2565b60405180910390f35b34801561028757600080fd5b50610290610806565b60405161029d91906136fd565b60405180910390f35b3480156102b257600080fd5b506102bb61080c565b6040516102c891906136fd565b60405180910390f35b3480156102dd57600080fd5b506102e6610812565b6040516102f391906132b3565b60405180910390f35b34801561030857600080fd5b50610311610817565b60405161031e91906136fd565b60405180910390f35b34801561033357600080fd5b5061034e60048036038101906103499190612f2b565b61081d565b60405161035b91906136fd565b60405180910390f35b34801561037057600080fd5b5061038b60048036038101906103869190612f2b565b610851565b60405161039891906136fd565b60405180910390f35b3480156103ad57600080fd5b506103c860048036038101906103c39190612dd6565b610885565b005b3480156103d657600080fd5b506103f160048036038101906103ec9190612e77565b610908565b005b3480156103ff57600080fd5b5061041a60048036038101906104159190612f7d565b610c06565b005b34801561042857600080fd5b50610443600480360381019061043e9190612dd6565b610c59565b60405161045091906136fd565b60405180910390f35b34801561046557600080fd5b50610480600480360381019061047b9190612e77565b610c71565b60405161048d9190613487565b60405180910390f35b3480156104a257600080fd5b506104bd60048036038101906104b89190612dff565b610deb565b005b3480156104cb57600080fd5b506104d461119e565b005b6104f060048036038101906104eb9190612f2b565b6111b2565b005b3480156104fe57600080fd5b5061051960048036038101906105149190612e77565b611241565b005b34801561052757600080fd5b506105306114e9565b60405161053d91906132b3565b60405180910390f35b34801561055257600080fd5b5061056d60048036038101906105689190612e77565b611513565b005b34801561057b57600080fd5b5061059660048036038101906105919190612dd6565b61177e565b005b3480156105a457600080fd5b506105bf60048036038101906105ba9190612dd6565b6117fd565b6040516105cc91906136fd565b60405180910390f35b3480156105e157600080fd5b506105fc60048036038101906105f79190612f2b565b611815565b005b34801561060a57600080fd5b5061062560048036038101906106209190612dd6565b6118a4565b6040516106329190613487565b60405180910390f35b34801561064757600080fd5b50610662600480360381019061065d9190612dd6565b6118c4565b60405161066f9190613487565b60405180910390f35b34801561068457600080fd5b5061069f600480360381019061069a9190612dff565b6118e4565b6040516106ac91906136fd565b60405180910390f35b3480156106c157600080fd5b506106dc60048036038101906106d79190612e77565b611909565b6040516106eb93929190613450565b60405180910390f35b34801561070057600080fd5b5061071b60048036038101906107169190612e3b565b611970565b005b61073760048036038101906107329190612eb3565b6119d3565b005b34801561074557600080fd5b50610760600480360381019061075b9190612dd6565b611e1f565b005b61077c60048036038101906107779190612e77565b6121db565b005b34801561078a57600080fd5b506107a560048036038101906107a09190612dd6565b6123cb565b005b609b5481565b60996020528060005260406000206000915054906101000a900473ffffffffffffffffffffffffffffffffffffffff1681565b60a260009054906101000a900473ffffffffffffffffffffffffffffffffffffffff1681565b609c5481565b609a5481565b600081565b609d5481565b600080609a541461084857609a5482609b5461083991906137ef565b61084391906137be565b61084a565b815b9050919050565b600080609b541461087c57609b5482609a5461086d91906137ef565b61087791906137be565b61087e565b815b9050919050565b61088d61244f565b8060a260006101000a81548173ffffffffffffffffffffffffffffffffffffffff021916908373ffffffffffffffffffffffffffffffffffffffff1602179055507f85908fddd610f3a049e104d72e983f1e8f5d1cf1544b56d0be1755096350f210816040516108fd91906132b3565b60405180910390a150565b6000609960008473ffffffffffffffffffffffffffffffffffffffff1673ffffffffffffffffffffffffffffffffffffffff16815260200190815260200160002060009054906101000a900473ffffffffffffffffffffffffffffffffffffffff1690506000609f60008373ffffffffffffffffffffffffffffffffffffffff1673ffffffffffffffffffffffffffffffffffffffff168152602001908152602001600020609e60003373ffffffffffffffffffffffffffffffffffffffff1673ffffffffffffffffffffffffffffffffffffffff16815260200190815260200160002060008473ffffffffffffffffffffffffffffffffffffffff1673ffffffffffffffffffffffffffffffffffffffff1681526020019081526020016000205481548110610a61577f4e487b7100000000000000000000000000000000000000000000000000000000600052603260045260246000fd5b906000526020600020906003020190506000816001015411610ab8576040517f08c379a0000000000000000000000000000000000000000000000000000000008152600401610aaf906135bd565b60405180910390fd5b60008311610afb576040517f08c379a0000000000000000000000000000000000000000000000000000000008152600401610af29061363d565b60405180910390fd5b6000610b09338685876124cd565b90506000610b168561081d565b905081836002016000828254610b2c9190613768565b9250508190555080836001016000828254610b479190613768565b92505081905550610b618684600101548560020154612602565b610ba0576040517f08c379a0000000000000000000000000000000000000000000000000000000008152600401610b979061359d565b60405180910390fd5b610baa33866126e6565b507ff35a14688e4794e8022cd9e5c7ec6475a6095ef189dea9647fad0de771465b8a3385610bdb8660010154610851565b86600101548760020154604051610bf6959493929190613373565b60405180910390a1505050505050565b610c0e61244f565b81609c8190555080609d819055507f2ae72b200de13d2ba3a98dada5fda0bd809e45a31ed7f2a54c4abbfec231a9bd8282604051610c4d929190613718565b60405180910390a15050565b60a06020528060005260406000206000915090505481565b600080609f6000609960008773ffffffffffffffffffffffffffffffffffffffff1673ffffffffffffffffffffffffffffffffffffffff16815260200190815260200160002060009054906101000a900473ffffffffffffffffffffffffffffffffffffffff1673ffffffffffffffffffffffffffffffffffffffff1673ffffffffffffffffffffffffffffffffffffffff1681526020019081526020016000208381548110610d4a577f4e487b7100000000000000000000000000000000000000000000000000000000600052603260045260246000fd5b90600052602060002090600302016040518060600160405290816000820160009054906101000a900473ffffffffffffffffffffffffffffffffffffffff1673ffffffffffffffffffffffffffffffffffffffff1673ffffffffffffffffffffffffffffffffffffffff168152602001600182015481526020016002820154815250509050610de28482602001518360400151612602565b91505092915050565b610df361244f565b60008073ffffffffffffffffffffffffffffffffffffffff16609960008573ffffffffffffffffffffffffffffffffffffffff1673ffffffffffffffffffffffffffffffffffffffff16815260200190815260200160002060009054906101000a900473ffffffffffffffffffffffffffffffffffffffff1673ffffffffffffffffffffffffffffffffffffffff161490508015610ec9577f7f03ac7449144076e2d9d5a237c3ff0d0108e0a2ebdd5213c4b0de6f4d4f69538383604051610ebc9291906132ce565b60405180910390a1611022565b6000609960008573ffffffffffffffffffffffffffffffffffffffff1673ffffffffffffffffffffffffffffffffffffffff16815260200190815260200160002060009054906101000a900473ffffffffffffffffffffffffffffffffffffffff1673ffffffffffffffffffffffffffffffffffffffff1663fc7b9c186040518163ffffffff1660e01b815260040160206040518083038186803b158015610f7057600080fd5b505afa158015610f84573d6000803e3d6000fd5b505050506040513d601f19601f82011682018060405250810190610fa89190612f54565b14610fe8576040517f08c379a0000000000000000000000000000000000000000000000000000000008152600401610fdf906134fd565b60405180910390fd5b7fb3911b5760f95a64aaa8d7f1775f57a7b6ed0bcf1ebb3fbfcc045e2f04eaad1183836040516110199291906132ce565b60405180910390a15b81609960008573ffffffffffffffffffffffffffffffffffffffff1673ffffffffffffffffffffffffffffffffffffffff16815260200190815260200160002060006101000a81548173ffffffffffffffffffffffffffffffffffffffff021916908373ffffffffffffffffffffffffffffffffffffffff160217905550609f60008373ffffffffffffffffffffffffffffffffffffffff1673ffffffffffffffffffffffffffffffffffffffff1681526020019081526020016000206040518060600160405280600073ffffffffffffffffffffffffffffffffffffffff168152602001600081526020016000815250908060018154018082558091505060019003906000526020600020906003020160009091909190915060008201518160000160006101000a81548173ffffffffffffffffffffffffffffffffffffffff021916908373ffffffffffffffffffffffffffffffffffffffff16021790555060208201518160010155604082015181600201555050505050565b6111a661244f565b6111b06000612766565b565b609760003373ffffffffffffffffffffffffffffffffffffffff1673ffffffffffffffffffffffffffffffffffffffff16815260200190815260200160002060009054906101000a900460ff1661123e576040517f08c379a00000000000000000000000000000000000000000000000000000000081526004016112359061367d565b60405180910390fd5b50565b6000609960008473ffffffffffffffffffffffffffffffffffffffff1673ffffffffffffffffffffffffffffffffffffffff16815260200190815260200160002060009054906101000a900473ffffffffffffffffffffffffffffffffffffffff1690506000609f60008373ffffffffffffffffffffffffffffffffffffffff1673ffffffffffffffffffffffffffffffffffffffff168152602001908152602001600020609e60003373ffffffffffffffffffffffffffffffffffffffff1673ffffffffffffffffffffffffffffffffffffffff16815260200190815260200160002060008473ffffffffffffffffffffffffffffffffffffffff1673ffffffffffffffffffffffffffffffffffffffff168152602001908152602001600020548154811061139a577f4e487b7100000000000000000000000000000000000000000000000000000000600052603260045260246000fd5b9060005260206000209060030201905082816002015410156113f1576040517f08c379a00000000000000000000000000000000000000000000000000000000081526004016113e89061355d565b60405180910390fd5b6113fd8433308661282c565b611408848385612965565b8173ffffffffffffffffffffffffffffffffffffffff166322867d7833856040518363ffffffff1660e01b8152600401611443929190613427565b600060405180830381600087803b15801561145d57600080fd5b505af1158015611471573d6000803e3d6000fd5b50505050828160020160008282546114899190613849565b925050819055507ff35a14688e4794e8022cd9e5c7ec6475a6095ef189dea9647fad0de771465b8a33836114c08460010154610851565b846001015485600201546040516114db959493929190613373565b60405180910390a150505050565b6000603360009054906101000a900473ffffffffffffffffffffffffffffffffffffffff16905090565b609860003373ffffffffffffffffffffffffffffffffffffffff1673ffffffffffffffffffffffffffffffffffffffff16815260200190815260200160002060009054906101000a900460ff1661159f576040517f08c379a00000000000000000000000000000000000000000000000000000000081526004016115969061361d565b60405180910390fd5b6000609f6000609960008673ffffffffffffffffffffffffffffffffffffffff1673ffffffffffffffffffffffffffffffffffffffff16815260200190815260200160002060009054906101000a900473ffffffffffffffffffffffffffffffffffffffff1673ffffffffffffffffffffffffffffffffffffffff1673ffffffffffffffffffffffffffffffffffffffff1681526020019081526020016000208281548110611677577f4e487b7100000000000000000000000000000000000000000000000000000000600052603260045260246000fd5b9060005260206000209060030201905061169a8382600101548360020154612602565b6116d9576040517f08c379a00000000000000000000000000000000000000000000000000000000081526004016116d09061357d565b60405180910390fd5b60006116e88260010154610851565b905061171d8260000160009054906101000a900473ffffffffffffffffffffffffffffffffffffffff16828460010154612a9b565b7f4b989c8e96b2b5c3aaa80c31769c41b11af9675189b0e4f6b49b82938db9afb48260000160009054906101000a900473ffffffffffffffffffffffffffffffffffffffff1660405161177091906132b3565b60405180910390a150505050565b600060019054906101000a900460ff166117cd576040517f08c379a00000000000000000000000000000000000000000000000000000000081526004016117c49061369d565b60405180910390fd5b6117d5612b0d565b6117dd612b66565b6117f1678ac7230489e80000611f40610c06565b6117fa81610885565b50565b60a16020528060005260406000206000915090505481565b609760003373ffffffffffffffffffffffffffffffffffffffff1673ffffffffffffffffffffffffffffffffffffffff16815260200190815260200160002060009054906101000a900460ff166118a1576040517f08c379a00000000000000000000000000000000000000000000000000000000081526004016118989061367d565b60405180910390fd5b50565b60986020528060005260406000206000915054906101000a900460ff1681565b60976020528060005260406000206000915054906101000a900460ff1681565b609e602052816000526040600020602052806000526040600020600091509150505481565b609f602052816000526040600020818154811061192557600080fd5b9060005260206000209060030201600091509150508060000160009054906101000a900473ffffffffffffffffffffffffffffffffffffffff16908060010154908060020154905083565b61197861244f565b80609760008473ffffffffffffffffffffffffffffffffffffffff1673ffffffffffffffffffffffffffffffffffffffff16815260200190815260200160002060006101000a81548160ff0219169083151502179055505050565b6000609960008573ffffffffffffffffffffffffffffffffffffffff1673ffffffffffffffffffffffffffffffffffffffff16815260200190815260200160002060009054906101000a900473ffffffffffffffffffffffffffffffffffffffff1690506000609e60003373ffffffffffffffffffffffffffffffffffffffff1673ffffffffffffffffffffffffffffffffffffffff16815260200190815260200160002060008373ffffffffffffffffffffffffffffffffffffffff1673ffffffffffffffffffffffffffffffffffffffff1681526020019081526020016000205411611af6576040517f08c379a0000000000000000000000000000000000000000000000000000000008152600401611aed906134dd565b60405180910390fd5b348314611b38576040517f08c379a0000000000000000000000000000000000000000000000000000000008152600401611b2f9061365d565b60405180910390fd5b60008284611b469190613768565b9050609d5481611b5691906137ef565b61271084611b6491906137ef565b10611ba4576040517f08c379a0000000000000000000000000000000000000000000000000000000008152600401611b9b906135fd565b60405180910390fd5b6000611bb2338785876124cd565b90506000611bc033846126e6565b9050609f60008573ffffffffffffffffffffffffffffffffffffffff1673ffffffffffffffffffffffffffffffffffffffff16815260200190815260200160002060405180606001604052803373ffffffffffffffffffffffffffffffffffffffff16815260200183815260200184815250908060018154018082558091505060019003906000526020600020906003020160009091909190915060008201518160000160006101000a81548173ffffffffffffffffffffffffffffffffffffffff021916908373ffffffffffffffffffffffffffffffffffffffff16021790555060208201518160010155604082015181600201555050600060a060008673ffffffffffffffffffffffffffffffffffffffff1673ffffffffffffffffffffffffffffffffffffffff168152602001908152602001600020549050600160a060008773ffffffffffffffffffffffffffffffffffffffff1673ffffffffffffffffffffffffffffffffffffffff1681526020019081526020016000206000828254611d4c9190613768565b9250508190555080609e60003373ffffffffffffffffffffffffffffffffffffffff1673ffffffffffffffffffffffffffffffffffffffff16815260200190815260200160002060008773ffffffffffffffffffffffffffffffffffffffff1673ffffffffffffffffffffffffffffffffffffffff168152602001908152602001600020819055507f92b0fd5c6dbe6ec5b43a8afae4c587c1db47afcca43a21b7800bd848fcf8e496338689898787604051611e0d969594939291906133c6565b60405180910390a15050505050505050565b6000609960008373ffffffffffffffffffffffffffffffffffffffff1673ffffffffffffffffffffffffffffffffffffffff16815260200190815260200160002060009054906101000a900473ffffffffffffffffffffffffffffffffffffffff1690506000609f60008373ffffffffffffffffffffffffffffffffffffffff1673ffffffffffffffffffffffffffffffffffffffff168152602001908152602001600020609e60003373ffffffffffffffffffffffffffffffffffffffff1673ffffffffffffffffffffffffffffffffffffffff16815260200190815260200160002060008473ffffffffffffffffffffffffffffffffffffffff1673ffffffffffffffffffffffffffffffffffffffff1681526020019081526020016000205481548110611f78577f4e487b7100000000000000000000000000000000000000000000000000000000600052603260045260246000fd5b906000526020600020906003020190506000816001015411611fcf576040517f08c379a0000000000000000000000000000000000000000000000000000000008152600401611fc6906136dd565b60405180910390fd5b600060a260009054906101000a900473ffffffffffffffffffffffffffffffffffffffff1673ffffffffffffffffffffffffffffffffffffffff16637dceefee60008685600201546040518463ffffffff1660e01b8152600401612035939291906132f7565b60206040518083038186803b15801561204d57600080fd5b505afa158015612061573d6000803e3d6000fd5b505050506040513d601f19601f820116820180604052508101906120859190612f54565b905060006120968360010154610851565b9050818110156120db576040517f08c379a00000000000000000000000000000000000000000000000000000000081526004016120d29061353d565b60405180910390fd5b6120ea33828560010154612a9b565b7f3cb91b4d61d4fefa96da17651a09b54f7b6751cb68d11134cf0efe0a49657968338584846121199190613849565b8587600201548860010154604051612136969594939291906133c6565b60405180910390a160008360010181905550600083600201819055506000609e60003373ffffffffffffffffffffffffffffffffffffffff1673ffffffffffffffffffffffffffffffffffffffff16815260200190815260200160002060008673ffffffffffffffffffffffffffffffffffffffff1673ffffffffffffffffffffffffffffffffffffffff168152602001908152602001600020819055505050505050565b6000609960008473ffffffffffffffffffffffffffffffffffffffff1673ffffffffffffffffffffffffffffffffffffffff16815260200190815260200160002060009054906101000a900473ffffffffffffffffffffffffffffffffffffffff1690506000609f60008373ffffffffffffffffffffffffffffffffffffffff1673ffffffffffffffffffffffffffffffffffffffff168152602001908152602001600020609e60003373ffffffffffffffffffffffffffffffffffffffff1673ffffffffffffffffffffffffffffffffffffffff16815260200190815260200160002060008473ffffffffffffffffffffffffffffffffffffffff1673ffffffffffffffffffffffffffffffffffffffff1681526020019081526020016000205481548110612334577f4e487b7100000000000000000000000000000000000000000000000000000000600052603260045260246000fd5b9060005260206000209060030201905061234e33846126e6565b506123588361081d565b81600101600082825461236b9190613768565b925050819055507ff35a14688e4794e8022cd9e5c7ec6475a6095ef189dea9647fad0de771465b8a33836123a28460010154610851565b846001015485600201546040516123bd959493929190613373565b60405180910390a150505050565b6123d361244f565b600073ffffffffffffffffffffffffffffffffffffffff168173ffffffffffffffffffffffffffffffffffffffff161415612443576040517f08c379a000000000000000000000000000000000000000000000000000000000815260040161243a906134bd565b60405180910390fd5b61244c81612766565b50565b612457612bbf565b73ffffffffffffffffffffffffffffffffffffffff166124756114e9565b73ffffffffffffffffffffffffffffffffffffffff16146124cb576040517f08c379a00000000000000000000000000000000000000000000000000000000081526004016124c2906135dd565b60405180910390fd5b565b600060a260009054906101000a900473ffffffffffffffffffffffffffffffffffffffff1673ffffffffffffffffffffffffffffffffffffffff16637dceefee856000856040518463ffffffff1660e01b815260040161252f939291906132f7565b60206040518083038186803b15801561254757600080fd5b505afa15801561255b573d6000803e3d6000fd5b505050506040513d601f19601f8201168201806040525081019061257f9190612f54565b90508273ffffffffffffffffffffffffffffffffffffffff1663185cc75186836040518363ffffffff1660e01b81526004016125bc929190613427565b600060405180830381600087803b1580156125d657600080fd5b505af11580156125ea573d6000803e3d6000fd5b505050506125f9848284612bc7565b50949350505050565b60008060a260009054906101000a900473ffffffffffffffffffffffffffffffffffffffff1673ffffffffffffffffffffffffffffffffffffffff16637dceefee600087866040518463ffffffff1660e01b8152600401612665939291906132f7565b60206040518083038186803b15801561267d57600080fd5b505afa158015612691573d6000803e3d6000fd5b505050506040513d601f19601f820116820180604052508101906126b59190612f54565b9050609d546126c385610851565b6126cd91906137ef565b612710826126db91906137ef565b109150509392505050565b60006126f18261081d565b905081609a60008282546127059190613768565b9250508190555080609b600082825461271e9190613768565b925050819055507f5af417134f72a9d41143ace85b0a26dce6f550f894f2cbc1eeee8810603d91b683838360405161275893929190613450565b60405180910390a192915050565b6000603360009054906101000a900473ffffffffffffffffffffffffffffffffffffffff16905081603360006101000a81548173ffffffffffffffffffffffffffffffffffffffff021916908373ffffffffffffffffffffffffffffffffffffffff1602179055508173ffffffffffffffffffffffffffffffffffffffff168173ffffffffffffffffffffffffffffffffffffffff167f8be0079c531659141344cd1fd0a4f28419497f9722a3daafe3b4186f6b6457e060405160405180910390a35050565b6000808573ffffffffffffffffffffffffffffffffffffffff166323b872dd868686604051602401612860939291906132f7565b6040516020818303038152906040529060e01b6020820180517bffffffffffffffffffffffffffffffffffffffffffffffffffffffff83818316178352505050506040516128ae919061329c565b6000604051808303816000865af19150503d80600081146128eb576040519150601f19603f3d011682016040523d82523d6000602084013e6128f0565b606091505b509150915081801561291e575060008151148061291d57508080602001905181019061291c9190612f02565b5b5b61295d576040517f08c379a0000000000000000000000000000000000000000000000000000000008152600401612954906136bd565b60405180910390fd5b505050505050565b6000808473ffffffffffffffffffffffffffffffffffffffff1663095ea7b38585604051602401612997929190613427565b6040516020818303038152906040529060e01b6020820180517bffffffffffffffffffffffffffffffffffffffffffffffffffffffff83818316178352505050506040516129e5919061329c565b6000604051808303816000865af19150503d8060008114612a22576040519150601f19603f3d011682016040523d82523d6000602084013e612a27565b606091505b5091509150818015612a555750600081511480612a54575080806020019051810190612a539190612f02565b5b5b612a94576040517f08c379a0000000000000000000000000000000000000000000000000000000008152600401612a8b9061351d565b60405180910390fd5b5050505050565b81609a6000828254612aad9190613849565b9250508190555080609b6000828254612ac69190613849565b925050819055507ff960dbf9e5d0682f7a298ed974e33a28b4464914b7a2bfac12ae419a9afeb280838383604051612b0093929190613450565b60405180910390a1505050565b600060019054906101000a900460ff16612b5c576040517f08c379a0000000000000000000000000000000000000000000000000000000008152600401612b539061369d565b60405180910390fd5b612b64612cb3565b565b600060019054906101000a900460ff16612bb5576040517f08c379a0000000000000000000000000000000000000000000000000000000008152600401612bac9061369d565b60405180910390fd5b612bbd612d14565b565b600033905090565b6000612bf68460a260009054906101000a900473ffffffffffffffffffffffffffffffffffffffff1685612965565b60a260009054906101000a900473ffffffffffffffffffffffffffffffffffffffff1673ffffffffffffffffffffffffffffffffffffffff16630ed2fc9585600086866040518563ffffffff1660e01b8152600401612c58949392919061332e565b602060405180830381600087803b158015612c7257600080fd5b505af1158015612c86573d6000803e3d6000fd5b505050506040513d601f19601f82011682018060405250810190612caa9190612f54565b90509392505050565b600060019054906101000a900460ff16612d02576040517f08c379a0000000000000000000000000000000000000000000000000000000008152600401612cf99061369d565b60405180910390fd5b612d12612d0d612bbf565b612766565b565b600060019054906101000a900460ff16612d63576040517f08c379a0000000000000000000000000000000000000000000000000000000008152600401612d5a9061369d565b60405180910390fd5b6001606581905550565b600081359050612d7c81613dd8565b92915050565b600081359050612d9181613def565b92915050565b600081519050612da681613def565b92915050565b600081359050612dbb81613e06565b92915050565b600081519050612dd081613e06565b92915050565b600060208284031215612de857600080fd5b6000612df684828501612d6d565b91505092915050565b60008060408385031215612e1257600080fd5b6000612e2085828601612d6d565b9250506020612e3185828601612d6d565b9150509250929050565b60008060408385031215612e4e57600080fd5b6000612e5c85828601612d6d565b9250506020612e6d85828601612d82565b9150509250929050565b60008060408385031215612e8a57600080fd5b6000612e9885828601612d6d565b9250506020612ea985828601612dac565b9150509250929050565b600080600060608486031215612ec857600080fd5b6000612ed686828701612d6d565b9350506020612ee786828701612dac565b9250506040612ef886828701612dac565b9150509250925092565b600060208284031215612f1457600080fd5b6000612f2284828501612d97565b91505092915050565b600060208284031215612f3d57600080fd5b6000612f4b84828501612dac565b91505092915050565b600060208284031215612f6657600080fd5b6000612f7484828501612dc1565b91505092915050565b60008060408385031215612f9057600080fd5b6000612f9e85828601612dac565b9250506020612faf85828601612dac565b9150509250929050565b612fc28161387d565b82525050565b612fd18161388f565b82525050565b6000612fe282613741565b612fec818561374c565b9350612ffc8185602086016138e9565b80840191505092915050565b613011816138c5565b82525050565b6000613024602683613757565b915061302f8261397a565b604082019050919050565b6000613047602283613757565b9150613052826139c9565b604082019050919050565b600061306a602d83613757565b915061307582613a18565b604082019050919050565b600061308d600c83613757565b915061309882613a67565b602082019050919050565b60006130b0601883613757565b91506130bb82613a90565b602082019050919050565b60006130d3601f83613757565b91506130de82613ab9565b602082019050919050565b60006130f6601a83613757565b915061310182613ae2565b602082019050919050565b6000613119603083613757565b915061312482613b0b565b604082019050919050565b600061313c602783613757565b915061314782613b5a565b604082019050919050565b600061315f602083613757565b915061316a82613ba9565b602082019050919050565b6000613182602b83613757565b915061318d82613bd2565b604082019050919050565b60006131a5602183613757565b91506131b082613c21565b604082019050919050565b60006131c8601d83613757565b91506131d382613c70565b602082019050919050565b60006131eb602083613757565b91506131f682613c99565b602082019050919050565b600061320e602483613757565b915061321982613cc2565b604082019050919050565b6000613231602b83613757565b915061323c82613d11565b604082019050919050565b6000613254601183613757565b915061325f82613d60565b602082019050919050565b6000613277602a83613757565b915061328282613d89565b604082019050919050565b613296816138bb565b82525050565b60006132a88284612fd7565b915081905092915050565b60006020820190506132c86000830184612fb9565b92915050565b60006040820190506132e36000830185612fb9565b6132f06020830184612fb9565b9392505050565b600060608201905061330c6000830186612fb9565b6133196020830185612fb9565b613326604083018461328d565b949350505050565b60006080820190506133436000830187612fb9565b6133506020830186612fb9565b61335d604083018561328d565b61336a606083018461328d565b95945050505050565b600060a0820190506133886000830188612fb9565b6133956020830187612fb9565b6133a2604083018661328d565b6133af606083018561328d565b6133bc608083018461328d565b9695505050505050565b600060c0820190506133db6000830189612fb9565b6133e86020830188612fb9565b6133f5604083018761328d565b613402606083018661328d565b61340f608083018561328d565b61341c60a083018461328d565b979650505050505050565b600060408201905061343c6000830185612fb9565b613449602083018461328d565b9392505050565b60006060820190506134656000830186612fb9565b613472602083018561328d565b61347f604083018461328d565b949350505050565b600060208201905061349c6000830184612fc8565b92915050565b60006020820190506134b76000830184613008565b92915050565b600060208201905081810360008301526134d681613017565b9050919050565b600060208201905081810360008301526134f68161303a565b9050919050565b600060208201905081810360008301526135168161305d565b9050919050565b6000602082019050818103600083015261353681613080565b9050919050565b60006020820190508181036000830152613556816130a3565b9050919050565b60006020820190508181036000830152613576816130c6565b9050919050565b60006020820190508181036000830152613596816130e9565b9050919050565b600060208201905081810360008301526135b68161310c565b9050919050565b600060208201905081810360008301526135d68161312f565b9050919050565b600060208201905081810360008301526135f681613152565b9050919050565b6000602082019050818103600083015261361681613175565b9050919050565b6000602082019050818103600083015261363681613198565b9050919050565b60006020820190508181036000830152613656816131bb565b9050919050565b60006020820190508181036000830152613676816131de565b9050919050565b6000602082019050818103600083015261369681613201565b9050919050565b600060208201905081810360008301526136b681613224565b9050919050565b600060208201905081810360008301526136d681613247565b9050919050565b600060208201905081810360008301526136f68161326a565b9050919050565b6000602082019050613712600083018461328d565b92915050565b600060408201905061372d600083018561328d565b61373a602083018461328d565b9392505050565b600081519050919050565b600081905092915050565b600082825260208201905092915050565b6000613773826138bb565b915061377e836138bb565b9250827fffffffffffffffffffffffffffffffffffffffffffffffffffffffffffffffff038211156137b3576137b261391c565b5b828201905092915050565b60006137c9826138bb565b91506137d4836138bb565b9250826137e4576137e361394b565b5b828204905092915050565b60006137fa826138bb565b9150613805836138bb565b9250817fffffffffffffffffffffffffffffffffffffffffffffffffffffffffffffffff048311821515161561383e5761383d61391c565b5b828202905092915050565b6000613854826138bb565b915061385f836138bb565b9250828210156138725761387161391c565b5b828203905092915050565b60006138888261389b565b9050919050565b60008115159050919050565b600073ffffffffffffffffffffffffffffffffffffffff82169050919050565b6000819050919050565b60006138d0826138d7565b9050919050565b60006138e28261389b565b9050919050565b60005b838110156139075780820151818401526020810190506138ec565b83811115613916576000848401525b50505050565b7f4e487b7100000000000000000000000000000000000000000000000000000000600052601160045260246000fd5b7f4e487b7100000000000000000000000000000000000000000000000000000000600052601260045260246000fd5b7f4f776e61626c653a206e6577206f776e657220697320746865207a65726f206160008201527f6464726573730000000000000000000000000000000000000000000000000000602082015250565b7f616464506f736974696f6e3a20616c7265616479206861766520706f7369746960008201527f6f6e000000000000000000000000000000000000000000000000000000000000602082015250565b7f7365745661756c743a20446562742072656d61696e73206f6e2074686520657860008201527f697374696e67207661756c742e00000000000000000000000000000000000000602082015250565b7f2173616665417070726f76650000000000000000000000000000000000000000600082015250565b7f72656d6f7665506f736974696f6e3a2042616420646562740000000000000000600082015250565b7f7265706179446562743a20746f6f206d75636820726570616964206465627400600082015250565b7f4b696c6c3a207374696c6c207361666520706f736974696f6e2e000000000000600082015250565b7f616464446562743a2062616420646562742c2063616e6e6f7420616464206d6f60008201527f7265206465627420616e796d6f72652e00000000000000000000000000000000602082015250565b7f616464446562743a206e6f20706f736974696f6e20696e20666f72207468697360008201527f20746f6b656e2e00000000000000000000000000000000000000000000000000602082015250565b7f4f776e61626c653a2063616c6c6572206973206e6f7420746865206f776e6572600082015250565b7f616464506f736974696f6e3a2062616420646562742c2063616e6e6f74206f7060008201527f656e20706f736974696f6e000000000000000000000000000000000000000000602082015250565b7f537461796b696e673a204e6f742077686974656c6973746564204b696c6c657260008201527f2e00000000000000000000000000000000000000000000000000000000000000602082015250565b7f616464446562743a20657874726144656274496e42617365203c3d2030000000600082015250565b7f616464506f736974696f6e3a206d73672e76616c756520213d20657175697479600082015250565b7f537461796b696e673a204e6f742077686974656c69737465642064656c65676160008201527f746f722e00000000000000000000000000000000000000000000000000000000602082015250565b7f496e697469616c697a61626c653a20636f6e7472616374206973206e6f74206960008201527f6e697469616c697a696e67000000000000000000000000000000000000000000602082015250565b7f21736166655472616e7366657246726f6d000000000000000000000000000000600082015250565b7f72656d6f7665506f736974696f6e3a204e6f20706f736974696f6e20666f722060008201527f7468697320746f6b656e00000000000000000000000000000000000000000000602082015250565b613de18161387d565b8114613dec57600080fd5b50565b613df88161388f565b8114613e0357600080fd5b50565b613e0f816138bb565b8114613e1a57600080fd5b5056fea26469706673582212204ce98cd689c3e18ed860ff5fa23ec5762f48521d49f5772de5b9472057dacdb064736f6c63430008040033",
  "linkReferences": {},
  "deployedLinkReferences": {}
}